:100000000C94B21E0C94DC1E0C94DC1E0C94DC1EB2
:100010000C94DC1E0C94DC1E0C94DC1E0C94DC1E78
:100020000C94DC1E0C94DC1E0C94DC1E0C94DC1E68
:100030000C94DC1E0C9494470C94DC1E0C94DC1E77
:100040000C94DC1E0C94B2B40C94BAA90C94DC1E73
:100050000C94DA440C94DC1E0C94DC1E0C94DC1E14
:100060000C94DC1E0C94DC1E0C94DC1E0C94DC1E28
:100070000C94DC1E0C94DC1E0C94DC1E0C94DC1E18
:100080000C94DC1E0C94DC1E0C94DC1E0E3F133F03
:10009000183F223F503F2C3F343F3C3F463FE469EE
:1000A000E769DA69DE69FE69EB69EF69F569F969A3
:1000B00003740C7416741F74287443745074597448
:1000C00031743A744E414E494E495459494E46CDC9
:1000D000CCCC3D0AD7233C17B7D13877CC2B3295FF
:1000E00095E6241FB14F0A000020410000C84200DD
:1000F000401C4620BCBE4CCA1B0E5AAEC59D744364
:100100004F4D4D554E49434154494F4E004452596D
:1001100052554E004552524F525300494E464F00E1
:100120004543484F0020746F6F206C6F6E672065E9
:100130007874727573696F6E2070726576656E740F
:1001400065640A0020636F6C64206578747275734F
:10015000696F6E2070726576656E7465640A00D092
:10016000A1D0BFD0BBD18FD187D0BAD0B02E2E2E88
:1001700000D092D196D0B4D0BDD0BED0B2D0BBD03A
:10018000B5D0BDD0BDD18F20D0B4D180D183D0BA6D
:10019000D183005A354E20D0B3D0BED182D0BED04C
:1001A000B2D0B8D0B92E00D09ED187D196D0BAD1D6
:1001B00083D0B2D0B0D0BDD0BDD18F20D0B4D19635
:1001C000D0B92E2E2E00D09DD0B5D0BCD0B0D194B9
:1001D00020D180D183D185D1832E00456E642066E5
:1001E000696C65206C6973740A00426567696E20EA
:1001F00066696C65206C6973740A004D3132350094
:100200005344207072696E74696E672062797465F8
:1002100020004E6F74205344207072696E74696EB2
:10022000670A0046696C652064656C657465643AAC
:100230000044656C6574696F6E206661696C656405
:100240002C2046696C653A20006F70656E206661EF
:10025000696C65642C2046696C653A2000507269AF
:100260006E742074696D653A20006D0046696C619A
:100270006D656E7420757365643A20005374617403
:10028000733A20002C204C6F6E67657374206A6F80
:10029000623A2000546F74616C2074696D653A2075
:1002A0000053746174733A20002C204661696C65B8
:1002B000643A20002C2046696E69736865643A20B0
:1002C000005072696E74733A200053746174733A0B
:1002D000200020011B0114010D01FF006F66660064
:1002E00044454255473A00D09FD095D0A0D095D0F4
:1002F000A0D092D090D09DD09E2E20006F6B00D0C9
:100300009DD0B0D0B3D180D196D182D0BE2E002066
:10031000573A0045256920257300D0A1D182D19696
:10032000D0BB20D0BDD0B0D0B3D180D196D182D0B7
:10033000B8D0B92E0020573A00D09DD0B0D0B3D15C
:1003400080D196D0B2D0B0D0BDD0BDD18F20D181D8
:10035000D182D0BED0BBD1832E005A354E20D09250
:10036000D0B8D0BCD0BA2E202E00454D45524745BE
:100370004E43595F50415253455200434153455FEC
:100380004C494748545F4252494748544E4553539D
:1003900000544F47474C455F4C494748545300531E
:1003A0004F4654574152455F504F574552004255B2
:1003B000494C445F50455243454E54004C455645C8
:1003C0004C494E475F44415441005A5F50524F429E
:1003D00045004155544F4C4556454C005052494EEE
:1003E000545F4A4F420050524F47524553530041C9
:1003F00055544F5245504F52545F54454D5000563E
:100400004F4C554D455452494300454550524F4D70
:100410000053455249414C5F584F4E5F584F464636
:10042000004649524D574152455F4E414D453A4D68
:1004300061726C696E2042617365206F6E204D6140
:10044000726C696E312E312E3820284769746875B8
:10045000622920534F555243455F434F44455F55F2
:10046000524C3A68747470733A2F2F6769746875C8
:10047000622E636F6D2F7A6F6E6573746172336471
:100480002050524F544F434F4C5F56455253494FA3
:100490004E3A312E30204D414348494E455F545924
:1004A00050453A5A354E2045585452554445525FAE
:1004B000434F554E543A3120555549443A30303027
:1004C00030303031302D303830382D303030332D21
:1004D000303030302D323031383031313030303111
:1004E0000A002F2F200066696C616D656E743A20DA
:1004F000007A5F6D696E3A2000795F6D696E3A200F
:1005000000785F6D696E3A20005265706F72746991
:100510006E6720656E6473746F7020737461747598
:10052000730A004D31343520533C696E6465783E62
:10053000206F7574206F662072616E6765202830A9
:100540002D31290A0053657474696E6720547261F5
:1005500076656C20416363656C65726174696F6E6A
:100560003A200053657474696E6720526574726135
:10057000637420416363656C65726174696F6E3A80
:10058000200053657474696E67205072696E742020
:10059000416363656C65726174696F6E3A200053E4
:1005A000657474696E67205072696E7420616E6440
:1005B0002054726176656C20416363656C6572617D
:1005C00074696F6E3A2000205A00205900580020AC
:1005D000204D61783A2000205A0020590058002010
:1005E000204D696E3A2000D0A3D0B2D196D0BCD0B5
:1005F000BA2E00D092D0B8D0BCD0BA2E2000536F03
:10060000667420656E6473746F70733A2000000125
:1006100017161815FF14131812FF1110180DFFFFED
:10062000FF011CFFFFFF1B1A18FFFF011800FF1935
:10063000FFFFFFFFFFFF20643A0020693A002070AF
:100640003A0043290A0061626C656420286D696E76
:100650002074656D702000436F6C6420657874723F
:100660007564657320617265200023646566696E38
:1006700065202044454641554C545F4B642000237F
:10068000646566696E65202044454641554C545F5B
:100690004B69200023646566696E652020444546E9
:1006A00041554C545F4B70200050494420417574B3
:1006B0006F74756E652066696E6973686564212064
:1006C00050757420746865206C617374204B702CB5
:1006D000204B6920616E64204B6420636F6E7374DD
:1006E000616E74732066726F6D2062656C6F772027
:1006F000696E746F20436F6E6669677572617469A5
:100700006F6E2E680A00504944204175746F7475ED
:100710006E65206661696C6564212074696D656F22
:1007200075740A00D097D091D086D09920D0A2D0ED
:1007300095D09CD09FD095D0A0D090D0A2D0A3D05F
:10074000A0D09800546865726D616C2052756E611E
:1007500077617900D09DD0B5D0B2D0B4D0B0D0BB45
:10076000D0B8D0B920D0BDD0B0D0B3D180D196D040
:10077000B20048656174696E67206661696C656482
:1007800000504944204175746F74756E6520666130
:10079000696C6564212054656D7065726174757251
:1007A0006520746F6F20686967680A00204B643A9F
:1007B0002000204B693A2000204B703A20000A208C
:1007C000436C617373696320504944200A002054CC
:1007D000753A2000204B753A2000206D61783A2050
:1007E00000206D696E3A200020643A200020626982
:1007F00061733A20004E6F2063617365206C6967F6
:1008000068740A004163746976652045787472756E
:100810006465723A2000556E6B6E6F776E20636F61
:100820006D6D616E643A2022002569730025696D43
:1008300020256973002569682025696D2025697365
:1008400000256964202569682025696D2025697364
:100850000025697920256964202569682025696D4E
:1008600020256973004C696E65204E756D62657256
:10087000206973206E6F74204C617374204C696E14
:1008800065204E756D6265722B312C204C6173743E
:10089000204C696E653A2000D09FD095D0A0D095AD
:1008A000D0A0D092D090D09DD09E2E2000D097D0B6
:1008B000A3D09FD098D09DD095D09DD09E2E2000C3
:1008C0005072696E7465722073746F707065642005
:1008D00064756520746F206572726F72732E204686
:1008E000697820746865206572726F7220616E6429
:1008F00020757365204D39393920746F2072657306
:10090000746172742E202854656D706572617475FF
:1009100072652069732072657365742E2053657447
:1009200020697420616674657220726573746172E7
:1009300074696E67290A004E6F20436865636B73A4
:10094000756D2077697468206C696E65206E756DB1
:100950006265722C204C617374204C696E653A207C
:1009600000636865636B73756D206D69736D617489
:1009700063682C204C617374204C696E653A2000CA
:100980004D313130004D3331005344207265616484
:10099000206572726F720A00446F6E652070726912
:1009A0006E74696E672066696C650A0050726F74B8
:1009B00065637465642050696E0A004525692025C9
:1009C0007300205A3A0020593A0020436F756E7424
:1009D00020583A0020453A00205A3A0020593A005F
:1009E000583A003A004361703A0024F4D43050C3BE
:1009F0008E20C2A24017828B7011127A910D816CE9
:100A0000D90AA861E108C7586607615143061E4B21
:100A10005D05C145A7041A411104093D98037139C8
:100A200031034036DB0265339102D4305402802E0C
:100A30001D02632CEE01752AC501B028A001102704
:100A400081018F2564012B244B01E0223401AC216C
:100A50001F018D200D01801FFC00841EED00971DDD
:100A6000DF00B81CD200E61BC600201BBC00641AC5
:100A7000B200B219A8000A19A0006A189900D1178B
:100A8000910040178B00B516840031167E00B31517
:100A900079003A157300C7146F0058146A00EE13FA
:100AA00066008813630025135E00C7125B006C129A
:100AB000570015125400C111510070114F0021113F
:100AC0004B00D61049008D1047004610440002101C
:100AD0004200C00F4000800F3E00420F3C00060F56
:100AE0003B00CB0E3800930E37005C0E3500270E0E
:100AF0003400F30D3200C10D3100900D3000600D57
:100B00002E00320D2D00050D2C00D90C2B00AE0C43
:100B10002900850C29005C0C2700350C27000E0CE1
:100B20002600E80B2400C40B2400A00B23007D0B3F
:100B300023005A0B2100390B2100180B2000F80A62
:100B40001F00D90A1E00BB0A1E009D0A1D00800A54
:100B50001D00630A1C00470A1B002C0A1B00110A17
:100B60001A00F7091A00DD091900C4091900AB09B8
:100B70001900920917007B091800630917004C0936
:100B8000160036091600200916000A091500F50896
:100B90001500E0081400CC081400B8081400A408DC
:100BA0001400900813007D0812006B081300580809
:100BB0001200460812003408110023081100120820
:100BC000110001081100F0071000E0071000D00725
:100BD0001000C0071000B0070F00A1071000910718
:100BE0000E0083070F0074070F0065070E005707FC
:100BF0000E0049070E003B070D002E070E002007D0
:100C00000D0013070D0006070D00F9060C00ED0698
:100C10000D00E0060C00D4060C00C8060C00BC0653
:100C20000C00B0060C00A4060B0099060C008D0603
:100C30000B0082060B0077060B006C060B006106AA
:100C40000A0057060B004C060A0042060A00380646
:100C50000A002E060A0024060A001A060A001006D8
:100C6000090007060A00FD050900F4050900EB0567
:100C70000900E2050900D9050900D0050900C705EA
:100C80000900BE050900B5050800AD050800A50569
:100C900009009C050800940508008C0508008405DF
:100CA00008007C050800740508006C050700650550
:100CB00008005D050700560508004E0507004705BA
:100CC00007004005080038050700310507002A0520
:100CD0000700230507001C050600160507000F0581
:100CE00007000805060002050700FB040600F504DE
:100CF0000700EE040600E8040600E2040700DB0437
:100D00000600D5040600CF040600C9040600C3048B
:100D10000600BD040600B7040600B1040500AC04DB
:100D20000600A6040600A00405009B040600950426
:100D30000500900406008A0405008504050080046F
:100D400006007A04050075040500700405006B04B4
:100D5000050066040500610405005C0405005704F5
:100D60000500520405004D04050048040500430435
:100D700005003E0404003A04050035040500300473
:100D800004002C04050027040400230405001E04AD
:100D900004001A04040016040500110404000D04E4
:100DA0000400090405000404040000040400FC031A
:100DB0000400F8030400F4030400F0030400EC034F
:100DC0000400E8030400E4030400E0030400DC037F
:100DD0000400D8030400D4030400D0030400CC03AF
:100DE0000400C8030300C503030024F404D9201B36
:100DF000C40C5C0E9804C4095F0265077101F40518
:100E0000F900FB04B30048048700C10369005803DC
:100E1000550003034500BE023A008402310053022C
:100E20002A002902250004022000E4011C00C80158
:100E30001900AF011700980114008401130071011B
:100E400010006101100051010E0043010D00360138
:100E50000B002B010B0020010B00150109000C01F8
:100E6000090003010800FB000800F3000800EB0084
:100E70000700E4000600DE000600D8000600D200ED
:100E80000600CC000500C7000500C2000500BD003B
:100E90000400B9000400B5000400B1000400AD0076
:100EA0000400A9000400A5000300A20003009F00A5
:100EB00004009B00030098000300950002009300CB
:100EC0000300900003008D0002008B0003008800E7
:100ED00002008600020084000300810002007F00FF
:100EE00002007D0002007B00020079000200770012
:100EF000010076000200740002007200010071001F
:100F000002006F0002006D0001006C0002006A0028
:100F10000100690002006700010066000100650031
:100F20000100640002006200010061000100600035
:100F300001005F0002005D0001005C0001005B0039
:100F400001005A000100590001005800010057003B
:100F5000010056000100550001005400010053003B
:100F60000000530001005200010051000100500038
:100F700001004F0001004E0000004E0001004D0036
:100F800001004C0001004B0000004B0001004A0032
:100F9000010049000100480000004800010047002E
:100FA0000100460000004600010045000000450029
:100FB0000100440001004300000043000100420022
:100FC000000042000100410000004100010040001B
:100FD00001003F0000003F0001003E0000003E0015
:100FE00001003D0000003D0001003C0000003C000D
:100FF00000003C0001003B0000003B0001003A0003
:1010000000003A00010039000000390001003800FA
:1010100000003800000038000100370000003700F1
:1010200001003600000036000000360001003500E7
:1010300000003500000035000100340000003400DD
:1010400000003400010033000000330000003300D2
:1010500001003200000032000000320001003100C7
:1010600000003100000031000100300000003000BD
:101070000000300001002F0000002F0000002F00B2
:1010800000002F0001002E0000002E0000002E00A6
:1010900001002D0000002D0000002D0000002D009B
:1010A00001002C0000002C0000002C0000002C008F
:1010B00001002B0000002B0000002B0000002B0083
:1010C00001002A0000002A0000002A0000002A0077
:1010D000010029000000290000002900000029006B
:1010E000000029000100280000002800000028005E
:1010F0000000280000002800010027000000270051
:101100000000270000002700000027000100260043
:101110000000260000002600000026000000260037
:10112000010025000000250000002500000025002A
:10113000000025000000250001002400000024001C
:10114000000024000000240000002400010023000F
:101150000000230000002300000023000000230003
:1011600000002300000023000100220000002200F4
:1011700000002200000022000000220000002200E7
:1011800001002100000021000000210000002100DA
:1011900000002100000021000000210001002000CB
:1011A00000002000000020000000200000002000BF
:1011B00000002000000020000000200001001F00AF
:1011C00000001F0000001F0000001F0000001F00A3
:1011D00000001F0000001F0001001E0000001E0094
:1011E00000001E0000001E0000006265640A002C62
:1011F0002073797374656D2073746F7070656421EA
:10120000204865617465725F49443A2000D09DD0E2
:10121000B0D0B3D180D196D0B220504C4120456E91
:101220006400D09DD0B0D0B3D180D196D0B2205040
:101230004C4100D09DD0B0D0B3D180D196D0B22057
:10124000504C4120D0A1D182D196D0BB00D09FD1AB
:1012500096D0B4D0B3D0BED182D183D0B2D0B0D1E9
:1012600082D0B800D09DD0B0D0B3D180D196D0B2CA
:101270002041425320456E6400D09DD0B0D0B3D100
:1012800080D196D0B22041425300D09DD0B0D0B38F
:10129000D180D196D0B22041425320D0A1D182D169
:1012A00096D0BB00D09FD196D0B4D0B3D0BED1825F
:1012B000D183D0B2D0B0D182D0B8004261636B008C
:1012C0004E65787420636F726E657200D09DD0B0E9
:1012D000D0B3D180D196D0B220504C4100D09ED115
:1012E00085D0BED0BBD0BED0B4D0B6D0B5D0BDD0E6
:1012F000BDD18F00D09DD0B0D0B3D180D196D0B227
:101300002041425300D097D0BCD196D0BDD0B02060
:10131000D0B2D0BED0BBD0BED0BAD0BDD0B000D03D
:1013200092D0B8D0BCD0BA2E20D0B4D0B2D0B8D0E1
:10133000B3D183D0BDD0B8004D3834004C6576654C
:101340006C20636F726E65727300D09FD0B0D180D5
:10135000D0BAD183D0B2D0B0D0BDD0BDD18F205AB9
:1013600000473238205A00D09FD0B0D180D0BAD1B7
:1013700083D0B2D0B0D0BDD0BDD18F20590047327C
:1013800038205900D09FD0B0D180D0BAD183D0B20C
:10139000D0B0D0BDD0BDD18F2058004732382058B2
:1013A00000D090D0B2D182D0BE20D0BFD0B0D180FA
:1013B000D0BAD183D0B2D0B0D0BDD0BDD18F00478C
:1013C000323800D0A0D183D18520D0BFD0BE20D06C
:1013D000BED181D18FD0BC00D09CD0B5D0BDD18E34
:1013E00000D0A0D183D18520D0BFD0BE205800D05E
:1013F000A0D183D18520D0BFD0BE205900D0A0D1AC
:1014000083D18520D0BFD0BE205A00D095D0BAD18C
:1014100081D182D180D183D0B4D0B5D18000D0A089
:10142000D183D18520D0BFD0BE20302E316D6D004C
:10143000D0A0D183D18520D0BFD0BE20316D6D002A
:10144000D0A0D183D18520D0BFD0BE2031306D6DEA
:1014500000D0A0D183D18520D0BFD0BE20D0BED1B6
:1014600081D18FD0BC00D095D0BAD181D182D1802A
:10147000D183D0B4D0B5D18000D0A0D183D1852084
:10148000D0BFD0BE205A00D0A0D183D18520D0BFFC
:10149000D0BE205900D0A0D183D18520D0BFD0BEEE
:1014A00020580025753A2530327500253032753ABE
:1014B000253032750025756420253032753A253087
:1014C0003275005A00590058000920000000000041
:1014D00000000000000000007FFFE00000000000AE
:1014E000000000000000007000E0000000000000AC
:1014F00000000000000061F8600000000000000033
:10150000000000000041F820000000000000000082
:101510000000000040F0200000000000000000007B
:1015200000000040602000000000000000000000FB
:1015300000005801A07F800000000000000041046E
:10154000005C63A0FFC000000000000000208200DB
:101550005EF7A0FFC0000000000000002082005ED7
:10156000F7A0FFC0000000000000004104005C6321
:10157000A07F80000000000000008208005801A049
:101580007F8000000000000001041000406020FF88
:10159000C00000000000000104100040F020FFC067
:1015A0000000000000000082080041F820FFC00099
:1015B00000000000000041040061F8603F000000EE
:1015C00000000000000000007000E01E00000000AD
:1015D00000000001FFFF807FFFE00C000000000022
:1015E000000001FFFF80000000000000000000007C
:1015F00000000000007FFFE000000000000000008D
:10160000000000007000E00000000000000000008A
:10161000000000630C6000000000000000000000FB
:101620000000470E20000000000000000000000045
:10163000004F0F200000000000000000000000002C
:101640005F0FA00000000000000000000000005E2E
:1016500007A07F80000000000000004104004060FF
:1016600020FFC00000000000000020820040F020A9
:10167000FFC00000000000000020820040F020FFBA
:10168000C0000000000000004104004060207F8096
:10169000000000000000008208005E07A07F8000BC
:1016A0000000000000010410005F0FA0FFC0000058
:1016B00000000000010410004F0F20FFC0000000D8
:1016C00000000000820800470E20FFC0000000005C
:1016D000000000410400630C603F000000000000B7
:1016E00000000000007000E01E000000000000008C
:1016F00001FFFF807FFFE00C000000000000000100
:10170000FFFF8000000000060900FE00000000004E
:1017100001090008FE000005080806000040F0C8A6
:101720008888987810050808060000C0F88888881E
:101730008888F80505050600012030F830200508E6
:10174000080600002070F820202020E00509090686
:1017500000FF2070A8A8B888887020050909060035
:10176000FFE080C0B0A8283028280509090600FF3E
:10177000F8A88888888888A8F8050A0A0600FE2044
:101780005050505088A8A8887003030306000340F7
:10179000A0404572726F722077726974696E67201B
:1017A000746F20454550524F4D210A00290A0020F0
:1017B00062797465733B20637263200053657474AF
:1017C000696E67732053746F726564202800202847
:1017D00063616C63756C6174656429210A00202162
:1017E0003D2000454550524F4D20435243206D69E6
:1017F000736D61746368202D202873746F72656443
:10180000292000290A002062797465733B206372E5
:101810006320002073746F7265642073657474694B
:101820006E6773207265747269657665642028003E
:10183000204D61726C696E3D563530290A0028458D
:101840004550524F4D3D00454550524F4D20766515
:101850007273696F6E206D69736D617463682000C7
:1018600000002100240027002A000000220025009B
:1018700028002B000000200023002600290002027F
:101880000202020202020404040404040404030326
:10189000030303030303010101010101010101022B
:1018A000040810204080010204081020408001023A
:1018B000040810204080804020100804020100002D
:1018C0000001020000000000000004030706000001
:1018D0000000000000000000000000000000D09F99
:1018E000D095D0A0D095D0A0D092D090D09DD09EB1
:1018F0002E2000202D20496E76616C696420657869
:10190000747275646572206E756D62657220210A4D
:1019100000000000000000000000000000000000C7
:1019200000000000000000000000000000000000B7
:1019300000000000000000000000000000000000A7
:101940000000000000000000000000000000000097
:101950000007FF01FE070183FE0FF8FFF807007F75
:10196000C007FF83FF0F8187FE1FF8FFF80F80FF7E
:10197000E007FFC7038F818FFC3FF0FFF81FC0E037
:10198000E00003C6018FC18C00380007001FC0C0F3
:1019900060000786018CC18C00300007003DE0C06C
:1019A00060000F06018CE18C003800070038E0E091
:1019B000E0001E06018C618FFE3FF0070038E0FF5B
:1019C000C0003C06018C618FFE1FF807003060FFED
:1019D00080007806018C318FFC0FFC07007270FCD0
:1019E0000000F006018C318E00001C07006230CE32
:1019F0000001E006018C398C00000C07006730C73D
:101A00000003C006018C198C00000C07006730C36E
:101A100080078007038C198E00001C0700CF98C137
:101A2000C007FFC7FF8C0F8FFF1FFC0700CF98C0B8
:101A3000F003FFC3FF0C0F87FF3FF80700DFD8C09C
:101A40007001FFC1FE0C0701FE3FF007000000001F
:101A50000000000000000000000000000000000086
:101A60000000000000000000000000000000000076
:101A70000000000000000000000000000000000066
:101A80000000000000000000000000000000000056
:101A9000002020506C616E6E6572427566666572DC
:101AA00042797465733A20002046726565204D6561
:101AB0006D6F72793A2000436F6D70696C65643A9E
:101AC000204D617920333020323031390A00207CBA
:101AD00020417574686F723A202848616C6C7940B7
:101AE0005A4F4E4553544152290A00323031392D54
:101AF00030342D313500204C617374205570646191
:101B00007465643A200042617365206F6E204D61F8
:101B1000726C696E312E312E380A004D61726C691B
:101B20006E0020536F66747761726520526573652D
:101B3000740A00205761746368646F67205265738C
:101B400065740A002042726F776E206F75742052A0
:101B5000657365740A002045787465726E616C2047
:101B600052657365740A00506F77657255700A008C
:101B700073746172740A006572726F722077726991
:101B800074696E6720746F2066696C650A00D09A6C
:101B9000D196D0BDD186D0B5D0B2D0B8D0BA20259C
:101BA0006320256320256320256300205A3A002006
:101BB000593A0020583A00656E6473746F70732050
:101BC0006869743A2000446F6E6520736176696EAF
:101BD000672066696C652E0A004D323900D09AD0B4
:101BE000B0D180D182D0BAD0B020D0B2D0B8D0B4E9
:101BF000D0B0D0BBD0B5D0BDD0B000D09AD0B0D18D
:101C000080D182D0BAD0B020D0B2D181D182D0B030
:101C1000D0B2D0BBD0B5D0BDD0B00000060900FE18
:101C2000070191032020FFFF08FF07FF00000006C7
:101C3000000001070706020080808080800080038A
:101C40000202060105A0A00507070600005050F893
:101C500050F850500507070600002078A07028F0C3
:101C600020050707060000C0C81020409818050787
:101C7000070600006090A040A890680203030601D8
:101C800004C0408003070706010020408080804098
:101C90002003070706010080402020204080050522
:101CA0000506000120A870A82005050506000120F2
:101CB00020F820200203030602FFC0408005010136
:101CC000060003F8020202060200C0C00505050670
:101CD0000001081020408005070706000070889862
:101CE000A8C8887003070706010040C04040404074
:101CF000E0050707060000708808708080F8050777
:101D000007060000F81020100808F0050707060075
:101D10000010305090F81010050707060000F880FA
:101D2000F008088870050707060000304080F0883A
:101D30008870050707060000F808102020202005FD
:101D400007070600007088887088887005070706F6
:101D5000000070888878081060020505060200C03F
:101D6000C000C0C00206060602FFC0C000C040801E
:101D700004070706000010204080402010050303E0
:101D8000060002F800F80407070601008040201052
:101D900020408005070706000070880810200020FA
:101DA00005060606000070880868A8700507070683
:101DB0000000708888F8888888050707060000F00A
:101DC0008888F08888F00507070600007088808002
:101DD000808870050707060000E09088888890E0FA
:101DE000050707060000F88080F08080F8050707E7
:101DF000060000F88080F08080800507070600005C
:101E0000708880B888887005070706000088888871
:101E1000F88888880107070602008080808080801B
:101E200080050707060000381010101090600507A5
:101E3000070600008890A0C0A0908805070706004C
:101E400000808080808080F805070706000088D821
:101E5000A8888888880507070600008888C8A89889
:101E600088880507070600007088888888887005BC
:101E70000707060000F08888F080808005070706C5
:101E8000000070888888A89068050707060000F0A1
:101E90008888F0A090880507070600007880807089
:101EA0000808F0050707060000F820202020202061
:101EB0000507070600008888888888887005070756
:101EC00006000088888888885020050707060000DB
:101ED0008888888888A850050707060000888850E9
:101EE0002050888805070706000088888850202031
:101EF00020050707060000F80810204080F80307B7
:101F000007060100E08080808080E005050506006E
:101F1000018040201008030707060100E020202070
:101F20002020E00503030600042050880501010677
:101F30000000F802020206020580400505050600C1
:101F40000070087888780507070600008080B0C810
:101F50008888F005050506000070808088700507F8
:101F600007060000080868988888780505050600B7
:101F7000007088F880700507070600003048E040D0
:101F80004040400506060600FF7088887808700506
:101F900007070600008080B0C88888880107070608
:101FA0000200800080808080800308080601FF20F6
:101FB0000020202020A04004070706000080809019
:101FC000A0C0A090030707060100C0404040404069
:101FD000E0050505060000D0A8A8A8A80505050687
:101FE0000000B0C88888880505050600007088884C
:101FF00088700506060600FFF08888F080800506D8
:10200000060600FF788888780808050505060000A0
:10201000B0C880808005050506000070807008F05B
:102020000507070600004040E04040483005050530
:1020300006000088888898680505050600008888DD
:102040008850200505050600008888A8A8500505C9
:102050000506000088502050880506060600FF8807
:102060008888780870050505060000F8102040F8FB
:102070000307070601002040408040402001070779
:1020800006020080808080808080030707060100B0
:102090008040402040408005020206000368900016
:1020A000000006000000000006000000000006001E
:1020B0000000000006000000000006000000000014
:1020C00006000000000006000000000006000000FE
:1020D00000000600000000000600000000000600EE
:1020E00000000000060000000000060000000000E4
:1020F00006000000000006000000000006000000CE
:1021000000000600000000000600000000000600BD
:1021100000000000060000000000060000000000B3
:10212000060000000000060000000000060000009D
:10213000000006000000000006000000000006008D
:102140000000000006000000000006000000000083
:10215000060000000000060000000000060000006D
:10216000000006000005080806000040F88080F026
:102170008080F805080806000050F88080F0808014
:10218000F8050707060000E0404070484870050861
:10219000080600001020F888808080800507070668
:1021A0000000304880E080483005070706000070D6
:1021B000888070088870030707060100E0404040EF
:1021C0004040E0030808060100A000E04040404015
:1021D000E005070706000038101010109060050792
:1021E00007060000A0A0A0B8A8A8B8050707060029
:1021F00000A0A0A0F8A8A8B8040707060000E040C7
:10220000705050505005080806000010208890A01B
:10221000E0908805080806000040208898A8C88833
:10222000880509090600FF50208888885020202052
:102230000508080600FF888888888888F820050730
:1022400007060000708888F8888888050707060058
:1022500000F88080F08888F0050707060000F08805
:1022600088F08888F0050707060000F888808080DD
:1022700080800508080600FF782828284888F88804
:10228000050707060000F88080F08080F805070742
:10229000060000A8A8A870A8A8A8050707060000BF
:1022A000F00808700808F0050707060000888898FD
:1022B000A8C8888805080806000050208898A8A8A3
:1022C000C8880507070600008890A0C0A090880570
:1022D00007070600007828282828A84805070706C9
:1022E000000088D8A8888888880507070600008825
:1022F0008888F8888888050707060000708888881D
:10230000888870050707060000F88888888888880C
:10231000050707060000F08888F080808005070721
:10232000060000708880808088700507070600001E
:10233000F820202020202005070706000088888834
:10234000502040800507070600002070A8A8A8704C
:102350002005070706000088885020508888050857
:10236000080600FF888888888888F8080507070617
:10237000000088888898680808050707060000A8F4
:10238000A8A8A8A8A8F80508080600FFA8A8A8A853
:10239000A8A8F808050707060000C0404070484894
:1023A00070050707060000888888C8A8A8C8050720
:1023B00007060000808080F08888F0050707060087
:1023C000007088083808887005070706000090A884
:1023D000A8E8A8A89005070706000078888878284C
:1023E0004888050505060000700878887805070705
:1023F000060000186080F08888700405050600005B
:10240000E090E090E0050505060000F888808080F7
:102410000506060600FF78284888F88805050506A1
:1024200000007088F88070050505060000A8A870F7
:10243000A8A8050505060000F0083008F005050508
:102440000600008898A8C8880507070600005020E5
:102450008898A8C88804050506000090A0C0A09030
:10246000050505060000F82828A84805050506000A
:102470000088D8A888880505050600008888F8889F
:102480008805050506000070888888700505050622
:102490000000F8888888880506060600FFF088880E
:1024A000F0808005050506000070808088700505B5
:1024B00005060000F8202020200506060600FF88FB
:1024C00088887808700506060600002070A8A870A5
:1024D00020050505060000885020508805060606E0
:1024E00000FF88888888F8080505050600008888A8
:1024F000F80808050505060000A8A8A8A8F805061C
:10250000060600FFA8A8A8A8F8080505050600000B
:10251000C0407048700505050600008888C8A8C836
:102520000305050601008080C0A0C0050505060062
:1025300000708838887005050506000090A8E8A896
:1025400090050505060000788878284805080806E3
:1025500000004020007088F8807005070706000022
:1025600050007088F880700509090600FF40E040BF
:10257000407848484810050808060000102000F878
:1025800088808080050505060000708860887005D9
:10259000050506000070807008F0010707060200BC
:1025A00080008080808080030707060100A0004033
:1025B000404040400308080601FF20002020202062
:1025C000A040050505060000A0A0B8A8B8050505AF
:1025D000060000A0A0F8A8B805060606000040E026
:1025E0004078484804080806000010200090A0C069
:1025F000A0900508080600004020008898A8C88818
:102600000509090600FF50200088888878087005B1
:1026100006060600FF88888888F82048656174658A
:10262000722054657374696E67004D3130342053E5
:102630003236300A4D31343020533131350A4D3184
:1026400030362053300A004175746F205570206475
:102650006F776E004D32303320583135302059318C
:102660003530205A31360A4730205832323020591E
:10267000323230205A32333020463936300A473031
:10268000205830205930205A313020463936300A0F
:10269000473020583330302059333030205A3430CE
:1026A0003020463936300A47302058302059302003
:1026B0005A313020463936300A47302058323230CD
:1026C0002059323230205A32333020463936300ADF
:1026D0004730205830205930205A31302046393682
:1026E000300A473020583232302059323230205AA6
:1026F00032333020463936300A473020583020599E
:1027000030205A313020463936300A47302058328E
:1027100032302059323230205A3233302046393666
:10272000300A4730205830205930205A3130204666
:102730003936300A4732380A4D3230332058313575
:10274000302059313030205A380A4D333030205340
:1027500033303030205031303030004661737420D7
:10276000746F20426F74746F6D004D323033205897
:102770003135302059313530205A31360A47323818
:102780002058300A4730205A3020463936300A4D1A
:1027900032303320583135302059313030205A38DA
:1027A0000A004661737420746F20546F70004D32BC
:1027B000303320583135302059313530205A3136B8
:1027C0000A473020583232302059323230205A32C3
:1027D000333020463936300A4D32303320583135C7
:1027E000302059313030205A380A00D090D0B2D140
:1027F00082D0BE20D0BFD0B0D180D0BAD183D0B2E9
:10280000D0B0D0BDD0BDD18F0047323800D0A1D1DB
:1028100082D0B0D182D0B8D181D182D0B8D0BAD054
:10282000B000D0A2D0B5D180D0BCD196D181D18218
:10283000D0BED180D0B800D09FD180D0BE20D0BF34
:10284000D0BBD0B0D182D18300D086D0BDD184D0CE
:10285000BED180D0BCD0B0D186D196D18F00D09CD3
:10286000D0B5D0BDD18E0020204E6F7A7A6C653AFB
:10287000200020004261636B004D696E696D756DCB
:102880002054656D70206973203135302E00D09D45
:10289000D0B5D0B2D0B4D0B0D0BBD0B8D0B920D0A1
:1028A000BDD0B0D0B3D180D196D0B200D095D0BA3F
:1028B000D181D182D180D183D0B4D183D0B2D0B0F4
:1028C000D182D0B800D092D196D0B4D0BDD0BED0F5
:1028D000B2D0B8D182D0B820D0B4D180D183D0BA10
:1028E00000524553554D45204F5054494F4E533A91
:1028F0000020204E6F7A7A6C653A2000D0B2D0BEAC
:10290000D0BBD0BED0BAD0BDD0B000D0BFD0BED129
:1029100087D0B0D182D0BED0BA20D0B7D0B0D0BC92
:10292000D196D0BDD0B800D097D0B0D187D0B5D097
:10293000BAD0B0D0B9D182D0B520D0BDD0B000507F
:1029400052494E54205041555345440020204E6F6B
:102950007A7A6C653A20002000D0B2D0B8D0B2D1DB
:1029600096D0B420D0B2D0BED0BBD0BED0BAD0BDED
:10297000D0B000D097D0B0D187D0B5D0BAD0B0D039
:10298000B9D182D0B520D0BDD0B0005052494E54FC
:10299000205041555345440020204E6F7A7A6C6593
:1029A0003A20002000506C6561736520776169747E
:1029B0002E2E2E0048656174696E67206E6F7A7ADC
:1029C0006C65005052494E542050415553454400C7
:1029D00020204E6F7A7A6C653A200020006865618D
:1029E00074206E6F7A7A6C652E0050726573732056
:1029F000627574746F6E20746F005052494E54208B
:102A00005041555345440020204E6F7A7A6C653A08
:102A10002000D0BFD180D0BED0B4D0BED0B2D0B60E
:102A2000D0B5D0BDD0BDD18F2E2E2E00D182D0B04A
:102A300020D0BDD0B0D182D0B8D181D0BDD196D177
:102A400082D18C20D0B4D0BBD18F00D092D181D193
:102A500082D0B0D0B2D182D0B520D0B2D0BED0BB5F
:102A6000D0BED0BAD0BDD0BE005052494E54205036
:102A700041555345440020204E6F7A7A6C653A20C8
:102A8000002000D0B2D0B2D196D0B420D0B2D0BE07
:102A9000D0BBD0BED0BAD0BDD0B000D097D0B0D1CE
:102AA00087D0B5D0BAD0B0D0B9D182D0B520D0BD02
:102AB000D0B0005052494E54205041555345440027
:102AC00020204E6F7A7A6C653A2000D0B2D0BED00A
:102AD000BBD0BED0BAD0BDD0B000D0B5D0BAD181B5
:102AE000D182D180D183D0B7D196D18E00D097D06A
:102AF000B0D187D0B5D0BAD0B0D0B9D182D0B520BE
:102B0000D0BDD0B0005052494E542050415553458D
:102B10004400D0B4D180D183D0BAD18300D0B2D117
:102B200096D0B4D0BDD0BED0B2D0BBD0B5D0BDD081
:102B3000BDD18F00D097D0B0D187D0B5D0BAD0B0AA
:102B4000D0B9D182D0B520D0BDD0B0005052494EBE
:102B5000542050415553454400D09FD0B5D180D02A
:102B6000B5D0B7D0B0D0B2D0B0D0BDD182D0B0D077
:102B7000B6D182D0B500D09FD0A0D098D09DD0A2A1
:102B8000D095D0A020D097D0A3D09FD098D09DD062
:102B900095D09DD09E005072696E746572206861F8
:102BA0006C7465642E206B696C6C28292063616CE1
:102BB0006C6564210A00656E7175657565696E677F
:102BC000202200000048420000484200000040006F
:102BD0000000005761726E696E673A20486F6D6938
:102BE0006E672042756D702044697669736F72203C
:102BF0003C20310A000202040000A0400000A04076
:102C00000000004000007A4300005C43000068437D
:102C1000FFFFFF4D36303020486F74656E642074BE
:102C20006F6F20636F6C6420746F206368616E67E0
:102C3000652066696C616D656E740A007C3C3E5E61
:102C40002B3D3F2F5B5D3B2C2A225C00D095D0BAF8
:102C5000D181D182D180D183D0B4D0B5D18000D000
:102C6000A0D183D18520D0BFD0BE205A00D0A0D122
:102C700083D18520D0BFD0BE205900D0A0D183D130
:102C80008520D0BFD0BE205800D09FD196D0B4D0E0
:102C9000B3D0BED182D183D0B2D0B0D182D0B8006F
:102CA000496E697469616C697A6520454550524F77
:102CB0004D00D09DD0B0D0BBD0B0D188D182D183CF
:102CC000D0B2D0B0D0BDD0BDD18F00D092D196D0EF
:102CD000B4D0BDD0BED0B2D0B8D182D0B820D0B19F
:102CE000D0B0D0B7D0BED0B2D19600D097D187D0D7
:102CF000B8D182D0B0D182D0B820D0B720D09FD068
:102D000097D09F00496E697469616C697A65204546
:102D10004550524F4D00D097D0B1D0B5D180D0B5ED
:102D2000D0B3D182D0B820D0B220D09FD097D09F3E
:102D300000D0A0D183D18500D0A2D0B5D0BCD0BF67
:102D4000D0B5D180D0B0D182D183D180D0B000D0E5
:102D50009CD0B5D0BDD18E00D09DD0B0D0B3D180A5
:102D6000D196D0B22041425320D0BDD0B0D0BB2E9E
:102D700000D09DD0B0D0B3D180D196D0B220504CED
:102D80004120D0BDD0B0D0BB2E005049442D4400CE
:102D90005049442D44005049442D49005049442D88
:102DA00049005049442D50005049442D5000D09EB8
:102DB000D185D0BED0BBD0BED0B4D0B62E00D09E70
:102DC000D185D0BED0BBD0BED0B4D0B62E00D0A15D
:102DD000D182D196D0BB00D0A1D182D196D0BB00F8
:102DE000D0A1D0BED0BFD0BBD0BE00D0A1D0BED06D
:102DF000BFD0BBD0BE00D09DD0B0D0BBD0B0D188AA
:102E0000D182D183D0B2D0B0D0BDD0BDD18F00D0CF
:102E100097D0B1D0B5D180D0B5D0B3D182D0B820C1
:102E2000D0B220D09FD097D09F00D0A1D182D19690
:102E3000D0BB00D0A1D182D196D0BB00D0A1D0BE52
:102E4000D0BFD0BBD0BE00D0A1D0BED0BFD0BBD0F1
:102E5000BE00D09ED185D0BED0BBD0BED0B4D0B63F
:102E60002E00D09ED185D0BED0BBD0BED0B4D0B6BF
:102E70002E00D0A2D0B5D0BCD0BFD0B5D180D0B0BC
:102E8000D182D183D180D0B0005344206361726479
:102E9000206F6B0A006F70656E526F6F74206661F1
:102EA000696C65640A00766F6C756D652E696E6974
:102EB00074206661696C65640A00534420696E6918
:102EC00074206661696C0A006175746F25692E67EC
:102ED000004D3234004D323320257300577269742F
:102EE000696E6720746F2066696C653A20006F70A8
:102EF000656E206661696C65642C2046696C653A74
:102F000020006F70656E206661696C65642C2046D8
:102F1000696C653A200046696C652073656C656371
:102F20007465640A002053697A653A200046696C2A
:102F300065206F70656E65643A20006F70656E2065
:102F40006661696C65642C2046696C653A200020D6
:102F500066696C653A2000646F696E670066726529
:102F60007368004E6F772000454E442053554252FF
:102F70004F5554494E450A002220706F730022209D
:102F8000706172656E743A2200535542524F555427
:102F9000494E452043414C4C207461726765743A38
:102FA0002200D09FD095D0A0D095D0A0D092D09024
:102FB000D09DD09E2E2000747279696E6720746F48
:102FC0002063616C6C207375622D67636F6465208C
:102FD00066696C6573207769746820746F6F206D03
:102FE000616E79206C6576656C732E204D4158209A
:102FF0006C6576656C2069733A004572726F723A3F
:10300000001000AA038000400100012C01B0012241
:103010000140021001F00202018003F8004004F5B3
:1030200000E004ED009005E4003006DD00E006D786
:10303000008007D1003008CC00D008C7007009C359
:1030400000100ABE00B00ABB00500BB700900CB3D2
:1030500000D00DAA00B00FA500F010A0003012960D
:1030600000D0129000F0158B00D0178500B01980A9
:1030700000F01A7B00701D7500F01F6F0070226950
:10308000004025640020275F00A0295A00902B559E
:1030900000102D4F00502E4800E0314500303341E4
:1030A00000D03539006036370010373300F0382D46
:1030B00000A0392700803C1C00403D1700F03D1166
:1030C00000803E0900D03FE5FF56652DD180D0B885
:1030D000D0B2D0BED0BA0056652DD180D0B8D0B213
:1030E000D0BED0BA0056652DD180D0B8D0B2D0BEF7
:1030F000D0BA00567A2DD180D0B8D0B2D0BED0BAD6
:1031000000567A2DD180D0B8D0B2D0BED0BA0056F9
:10311000792DD180D0B8D0B2D0BED0BA0056792D9A
:10312000D180D0B8D0B2D0BED0BA0056792DD180DF
:10313000D0B8D0B2D0BED0BA0056782DD180D0B899
:10314000D0B2D0BED0BA0056782DD180D0B8D0B28F
:10315000D0BED0BA0056782DD180D0B8D0B2D0BE73
:10316000D0BA00D0A0D183D1850045D0BAD180D0CB
:10317000BED0BAD196D0B22FD0BCD0BC0045D0BA08
:10318000D180D0BED0BAD196D0B22FD0BCD0BC00A6
:103190005AD0BAD180D0BED0BAD196D0B22FD0BC3E
:1031A000D0BC005AD0BAD180D0BED0BAD196D0B25D
:1031B0002FD0BCD0BC0059D0BAD180D0BED0BAD1AB
:1031C00096D0B22FD0BCD0BC0059D0BAD180D0BEDE
:1031D000D0BAD196D0B22FD0BCD0BC0058D0BAD182
:1031E00080D0BED0BAD196D0B22FD0BCD0BC0058BF
:1031F000D0BAD180D0BED0BAD196D0B22FD0BCD068
:10320000BC00D0A0D183D18500D09AD180D0BED0CF
:10321000BAD196D0B22FD0BCD0BC00D0A0D0B8D0FC
:10322000B2D0BED0BA00416363656C6572617469E7
:103230006F6E0056656C6F63697479005A204D6932
:103240006E20506F732E005A204D696E20506F73A0
:103250002E0059204D696E20506F732E0059204D5D
:10326000696E20506F732E0058204D696E20506F8C
:10327000732E0058204D696E20506F732E00D09D24
:10328000D0B0D0BBD0B0D188D182D183D0B2D0B0B1
:10329000D0BDD0BDD18F0043616E6E6F7420656E5E
:1032A000746572207375626469723A2000022E2E72
:1032B00000D09CD0B5D0BDD18E0043616E6E6F74CE
:1032C000206F70656E20737562646972200065639B
:1032D000686F3A00D097D091D086D09920D0A2D0F4
:1032E00095D09CD09FD095D0A0D090D0A2D0A3D084
:1032F000A0D09800546865726D616C2052756E6143
:10330000776179005072696E7420706175736564BD
:10331000004D31323500004D323400D094D180D18F
:1033200083D0BA20D181D0BAD0B0D181D0BED0B2B2
:10333000D0B0D0BDD0BE00D092D196D0B4D181D182
:1033400083D182D0BDD18F20534420D0BAD0B0D108
:1033500080D1822E00D094D180D183D0BAD183D0B5
:10336000B2D0B0D182D0B820D0B720534400D0A181
:10337000D0BAD0B0D181D183D0B2D0B0D182D0B8C0
:1033800020D0B4D180D183D0BA00D092D196D0B41D
:10339000D0BDD0BED0B2D0B8D182D0B820D0B4D1B8
:1033A00080D183D0BA00D09FD180D0BE20D0BFD1F1
:1033B00080D0B8D0BDD182D0B5D18000D09FD1808F
:1033C000D0B8D0B7D183D0BFD0B8D0BDD0B8D1821B
:1033D000D0B820D0B4D180D183D0BA00D09DD0B0A5
:1033E000D0BBD0B0D188D182D183D0B2D0B0D0BD43
:1033F000D0BDD18F00D09FD196D0B4D0B3D0BED1A4
:1034000082D183D0B2D0B0D182D0B800D09FD19633
:10341000D0B4D0BBD0B0D188D182D183D0B2D0B01B
:10342000D0BDD0BDD18F00D086D0BDD184D0BED18B
:1034300080D0BCD0B0D186D196D18F00D09CD1960F
:10344000D0BAD180D0BED0BAD180D0BED0BA205AA6
:10345000004D36303020423000D097D0BCD196D0CD
:10346000BDD0B020D0B2D0BED0BBD0BED0BAD0BDBF
:10347000D0B000D09CD196D0BAD180D0BED0BAD135
:1034800080D0BED0BA205A00D09FD0BED182D19673
:10349000D0BA00D09FD0BED182D196D0BA00D09EF3
:1034A000D185D0BED0BBD0BED0B4D0B62E00D09E79
:1034B000D185D0BED0BBD0BED0B4D0B62E00D0A166
:1034C000D182D196D0BB00D0A1D182D196D0BB0001
:1034D000D0A1D0BED0BFD0BBD0BE00D0A1D0BED076
:1034E000BFD0BBD0BE00D0A8D0B2D0B8D0B4D0BA74
:1034F000D196D181D182D18C00D0A8D0B2D0B8D011
:10350000B4D0BAD196D181D182D18C00D09CD0B523
:10351000D0BDD18E00D09DD0B5D0B2D0B4D0B0D077
:10352000BBD0B8D0B920D0BDD0B0D0B3D180D19667
:10353000D0B20048656174696E67206661696C6528
:1035400064001000AA038000400100012C01B001BA
:10355000220140021001F00202018003F800400441
:10356000F500E004ED009005E4003006DD00E00623
:10357000D7008007D1003008CC00D008C700700900
:10358000C300100ABE00B00ABB00500BB700900C7D
:10359000B300D00DAA00B00FA5005010A000101469
:1035A00096009016900010198C00501A8500301C5F
:1035B000820070227800B023750040256E0020271D
:1035C0006900A0296400502A5F00902B5A00D02C7B
:1035D0005500702D4F00E02E48005031450030332B
:1035E0004100D03539006036370010373300F038ED
:1035F0002D00A0392700803C1C00403D1700F03D05
:103600001100803E0900D03FE5FF4572723A204D1F
:10361000494E54454D5020424544004572723A206F
:103620004D494E54454D50004D494E54454D502046
:10363000747269676765726564004572723A204DFD
:10364000415854454D5020424544004572723A203D
:103650004D415854454D50004D415854454D502012
:1036600074726967676572656400202F00204240AC
:103670003A0020403A0020746F6F206C6F6E672014
:10368000657874727573696F6E2070726576656E99
:103690007465640A0020636F6C64206578747275C9
:1036A00073696F6E2070726576656E7465640A006A
:1036B00048617264636F6465642044656661756C1B
:1036C000742053657474696E6773204C6F61646510
:1036D000640A00D007000020030000640000008896
:1036E000130000000016430000C842000000410023
:1036F0000048420000A0420000A0420000C8430071
:1037000000A04220440020490020204D33303120C9
:1037100050005049442073657474696E67733A0AA7
:103720000020460020420020480020204D31343542
:103730002053004D6174657269616C206865617425
:10374000757020706172616D65746572733A0A00FC
:10375000204500205A002059002058002042002017
:10376000540020204D323035205300416476616E84
:103770006365643A20533C6D696E5F66656564728B
:103780006174653E20543C6D696E5F74726176654C
:103790006C5F66656564726174653E20423C6D696C
:1037A0006E5F7365676D656E745F74696D655F7577
:1037B000733E20583C6D61785F78795F6A65726B03
:1037C0003E205A3C6D61785F7A5F6A65726B3E207D
:1037D000453C6D61785F655F6A65726B3E0A0020EB
:1037E000540020520020204D3230342050004163DC
:1037F00063656C65726174696F6E2028756E69749B
:10380000732F7332293A20503C7072696E745F6175
:103810006363656C3E20523C726574726163745FD1
:10382000616363656C3E20543C74726176656C5FC5
:10383000616363656C3E0A00204500205A002059F0
:103840000020204D3230312058004D6178696D756F
:103850006D20416363656C65726174696F6E2028C9
:10386000756E6974732F7332293A0A00204500205F
:103870005A0020590020204D3230332058004D612D
:1038800078696D756D206665656472617465732015
:1038900028756E6974732F73293A0A002045002039
:1038A0005A0020590020204D3932205800537465A9
:1038B00070732070657220756E69743A0A0020205A
:1038C0004D3230302044300A0020204D323030203C
:1038D00044002044697361626C65640A0046696C47
:1038E000616D656E742073657474696E67733A00F8
:1038F00020204D3134392043203B20556E697473AC
:1039000020696E2043656C736975730A0020204737
:103910003231202020203B20556E69747320696E5F
:10392000206D6D0A00D094D196D0BC2025732573EC
:10393000257320D0BFD0B5D180D188D0B8D0B90000
:1039400020D0BFD0B5D180D188D0B8D0B90A005A24
:103950000059005800D094D196D0BC200052657315
:10396000656E643A20006F6B004D36303000436165
:103970007463682066696C616D656E742072756E23
:10398000206F7574210A00D09FD095D0A0D095D01B
:10399000A0D092D090D09DD09E2E20004B494C4C70
:1039A0002063617573656420627920746F6F206D88
:1039B00075636820696E6163746976652074696DEA
:1039C00065202D2063757272656E7420636F6D6D56
:1039D000616E643A200046696C616D656E742069A1
:1039E0006E73657274210A004361746368206669AE
:1039F0006C616D656E742072756E206F7574210A2E
:103A00000056D180D183D185D18320D0BCD196D02E
:103A1000BD0056D180D183D185D18320D0BCD19631
:103A2000D0BD0056D180D183D185D18320D0BCD1E7
:103A300096D0BD0056D0BCD196D0BD0056D0BCD1DA
:103A400096D0BD0056D0BCD196D0BD0056D0BCD0CB
:103A5000B0D0BAD181450056D0BCD0B0D0BAD18157
:103A6000450056D0BCD0B0D0BAD181450056D0BCAC
:103A7000D0B0D0BAD1815A0056D0BCD0B0D0BAD1D3
:103A8000815A0056D0BCD0B0D0BAD1815A0056D09D
:103A9000BCD0B0D0BAD181590056D0BCD0B0D0BAC9
:103AA000D181590056D0BCD0B0D0BAD1815900567E
:103AB000D0BCD0B0D0BAD181580056D0BCD0B0D094
:103AC000BAD181580056D0BCD0B0D0BAD1815800FC
:103AD000D0A0D183D1850041D0BCD0B0D0BAD181A3
:103AE00020450041D0BCD0B0D0BAD18120450041A2
:103AF000D0BCD0B0D0BAD181205A0041D0BCD0B017
:103B0000D0BAD181205A0041D0BCD0B0D0BAD18136
:103B100020590041D0BCD0B0D0BAD1812059004149
:103B2000D0BCD0B0D0BAD18120580041D0BCD0B0E8
:103B3000D0BAD181205800412DD180D183D185D1F7
:103B40008300412DD180D183D185D18300412DD0F7
:103B5000B2D182D18FD0B3D183D0B22E00412DD03B
:103B6000B2D182D18FD0B3D183D0B22E00D09FD129
:103B700080D0B8D181D0BA2E00D09FD180D0B8D11A
:103B800081D0BA2E00D0A0D183D1850000D095D0AD
:103B9000BAD181D182D180D183D0B4D0BED0B2D0BD
:103BA000B0D0BDD0BE3A2000256C642E25696D00D2
:103BB00000D09DD0B0D0B9D0B4D0BED0B2D188D0D2
:103BC000B8D0B920D187D0B0D1813A200000D092AE
:103BD000D0B5D181D18C20D187D0B0D18120D0B4C3
:103BE000D180D183D0BAD1833A2000D097D0B0D041
:103BF000B2D0B5D180D188D0B5D0BDD0BE3A2000EA
:103C0000D09A2DD181D182D18C20D0B4D180D183D2
:103C1000D0BAD196D0B23A2000D09CD0B0D0BAD190
:103C20008120D0A2D0B5D0BCD0BF2E3A20313330C5
:103C300000D09CD196D0BD20D0A2D0B5D0BCD0BFF2
:103C40002E3A203500544265643A3130304B2031F1
:103C5000252062657461203339353000D09CD0B0A6
:103C6000D0BAD18120D0A2D0B5D0BCD0BF2E3A20BE
:103C700032373500D09CD196D0BD20D0A2D0B5D05F
:103C8000BCD0BF2E3A20350054303A203130304B72
:103C90002031252062657461203339353000D0949D
:103CA000D0B6D0B5D180D0B5D0BBD0BE20D0B6D0A4
:103CB000B8D0B22E3A2047656E6572696300D09F16
:103CC000D180D0BED182D0BED0BAD0BED0BB3A2037
:103CD000312E3000D0B1D196D1822FD1813A20310E
:103CE0003135323030005A4F4E45535441525F4CBB
:103CF00043443132383634005A4D494220285A4F15
:103D00004E45535441522900D095D0BAD181D18229
:103D1000D180D183D0B4D0B5D180D0B83A20310091
:103D2000687474703A2F2F7777772E7A6F6E657379
:103D300074617233642E636F6D005A354E003230F9
:103D400031392D30342D31350042617365206F6E6D
:103D5000204D61726C696E312E312E380056340060
:103D600023E5B3E411241FBECFEFD0E4DEBFCDBF07
:103D700012E0A0E0B1E0ECEDF8EE01E00BBF02C014
:103D800007900D92AE38B107D9F722E1AEE8B2E064
:103D900001C01D92A33EB207E1F71EE1C1EBDEE1D7
:103DA00004C02197FE010E94D1F3C03BD107C9F79F
:103DB0000E944EDF0C9461F40C9400002F923F920D
:103DC0004F925F926F927F928F929F92AF92BF922B
:103DD000CF92DF92EF92FF920F931F93CF93DF93D7
:103DE000CDB7DEB7C058D1090FB6F894DEBF0FBE0D
:103DF000CDBF8091CC118D3409F496C2843511F475
:103E00000C94B833873411F00C94FA338091CA11B2
:103E10009091CB118B31910509F407C264F497FF9F
:103E200002C00C9414348230910554F1049709F4C3
:103E3000CDC10C9414348A35910509F426C24CF492
:103E40004C9711F00C94143480E00E940B440C94B5
:103E500014348B35910509F41CC28C35910511F091
:103E60000C9414340E94584793E8292E91E0392E7F
:103E700027E8E22E21E1F22E00E0D12C10E033C23F
:103E800080910901882311F40C9414343BE5C32E6E
:103E90003AE0D32E47E8E42E41E1F42E5EE8A52E69
:103EA00052E0B52E03E811E064E0962E900ED801A2
:103EB0008D918D010E944D3C8823D9F00E941A3CBF
:103EC000F5012081211104C020919202222331F0BA
:103ED000D7012D913D914D915C9103C020E030E0E0
:103EE000A9010E9482F1F60160837183828393832A
:103EF0000AC0F70180819181A281B381F60180839C
:103F00009183A283B383F4E0CF0ED11C24E0E20EB0
:103F1000F11C3FEFA31AB30A9012C9CF86E40E94A6
:103F20007C3C8823C9F00E941A3C20E030E0A901C3
:103F30000E9405F3181684F40E941A3C20E030E039
:103F400040E752E40E9405F2609300017093010182
:103F5000809302019093030180910B1183FD2AC08D
:103F60006091670A7091680A8091690A90916A0A63
:103F70002091931130919411409195115091961187
:103F8000E091650EEE23B1F00E9481F19B01AC013E
:103F90006091570E7091580E8091590E90915A0E63
:103FA0000E9482F16093570E7093580E8093590EC1
:103FB00090935A0E80910C01882309F454C020E09C
:103FC00030E04CE553E460915B0A70915C0A8091AB
:103FD0005D0A90915E0A0E9405F3181664F480E071
:103FE00090E0ACE5B3E480935B0A90935C0AA09305
:103FF0005D0AB0935E0A20E030E04CE553E4609146
:104000005F0A7091600A8091610A9091620A0E9431
:1040100005F3181664F480E090E0ACE5B3E4809317
:104020005F0A9093600AA093610AB093620A20E04D
:1040300030E046E653E46091630A7091640A80912F
:10404000650A9091660A0E9405F3181664F480E0F0
:1040500090E0A6E6B3E48093630A9093640AA09389
:10406000650AB093660A0E945F3E80910B1183FD42
:1040700086C0C090670AD090680AE090690AF09004
:104080006A0A2091931130919411409195115091A9
:104090009611C701B6010E941FED882309F46FC075
:1040A0000E94DA81882301F1C0929311D092941179
:1040B000E0929511F0929611EEECF2E384918F016B
:1040C0000F5F1F4F882321F00E94A33EF801F6CF17
:1040D000E4E4F1E084918F010F5F1F4F882321F00A
:1040E0000E94A33EF801F6CFC090670AD090680AFC
:1040F000E090690AF0906A0A20919311309194112E
:104100004091951150919611C701B6010E9481F11D
:104110009F77E091230844E0E49FF0011124E059E7
:10412000FE4F20813181428153810E9485ED20E044
:1041300030E04AE754E40E9405F3181604F5C092F3
:104140009311D0929411E0929511F0929611EEECA9
:10415000F2E384918F010F5F1F4F882321F00E94AB
:10416000A33EF801F6CFE5E2F1E084918F010F5F05
:104170001F4F882321F00E94A33EF801F6CF6091E3
:10418000760170917701072E000C880B990B0E9425
:1041900026ED2091000130910101409102015091E2
:1041A00003010E9485ED2AE037ED43E25CE30E94C3
:1041B00085ED0E94B53A80E1EBE5FAE0A7E8B1E1D0
:1041C00001900D928A95E1F70C94143480E50E94D9
:1041D0007C3C882329F00E94D63B6B017C0103C004
:1041E000C12CD12C760183E50E947C3C882361F0B0
:1041F0000E941A3C20E030E04AE754E40E9485ED3A
:104200000E947EF26B017C010E94584780912C0134
:10421000811105C060E08FE591E00E949570C701B3
:10422000B6010E946A3E0C9414340E94E3C98111C5
:104230000C94143480E090E0A0E2B1EC89839A837E
:10424000AB83BC8380E090E0A0E2B1E48D839E83E9
:10425000AF83B88780E090E0A0EAB1E489879A87CD
:10426000AB87BC8780E50E947C3C882319F00E94C4
:10427000E63B01C060E068A3BE016F5F7F4FCE01E7
:1042800080960E9485DA0C941434109292020C9459
:10429000143481E0809392020C9414340E941A3CEE
:1042A0002B013C01F70120813181428153810E9421
:1042B00081F14B015C012DEB37E346E855EB0E94A1
:1042C00005F387FD18C02DEB37E346E855E3C5013C
:1042D000B4010E941FED181674F01F5FB4E0EB0EDE
:1042E000F11C1430A9F0D1018D911D010E947C3C7C
:1042F000882399F3D3CF133019F0DD24D39401C070
:1043000001E0D7014D925D926D927C921397E5CFBB
:10431000DD2019F00E94583B03C001110E94DECA43
:104320000E943D430C9414348091CA119091CB119A
:104330008F36910509F4F1C50CF0EBC08032910580
:1043400009F466C40CF081C08531910509F4CBC233
:10435000A4F58430910509F45DC284F497FF02C08E
:104360000C941434823091050CF4CEC1039711F0F3
:104370000C9414340E94BC800C9414348131910547
:1043800009F463C27CF4059711F00C9414340E9474
:104390005847289868EE73E080E090E00E946A3EFB
:1043A0000C9414348231910509F46BC7449711F0D1
:1043B0000C941434EAEEF1E053C28A31910509F409
:1043C000D0C2F4F48731910509F497C20CF48FC27E
:1043D0008831910509F4A7C2499711F00C9414345F
:1043E0001092680E8DE39EE00E94F8468BEF91E0FC
:1043F0009093B40C8093B30C0E94F83A0C9414344C
:104400008C31910509F4F7C20CF4B9C28E319105D3
:1044100009F4FBC24F9711F00C9414348DE39EE025
:104420000E94CB4668A379A38AA39BA3BE016F5FBA
:104430007F4FCE0180960E94F03C60E0CE01019655
:104440000E94B670EEECF2E32FC48435910509F4B6
:1044500018C764F58D34910509F446C474F48B349F
:10446000910509F437C40CF039C48A9711F00C9403
:1044700014340E94AA3E0C9414348135910509F439
:10448000E5C634F48E34910509F432C40C94143426
:104490008235910509F4F1C68335910511F00C942C
:1044A000143481E0809391020C9414348A3691057F
:1044B00009F41BC6DCF48C35910509F434C734F4D7
:1044C0008535910509F414C70C9414348836910588
:1044D00009F41FC58936910511F00C9414348091AC
:1044E000230880932011ECEFF2E090C58C36910503
:1044F00009F484C50CF41EC68D36910509F4BEC5B9
:104500008E36910511F00C9414340E94A03C0C944A
:104510001434833D910511F40C94122D0CF075C0E8
:104520008D37910509F418C67CF58537910511F48E
:104530000C94762A8CF48237910509F47DC7833771
:10454000910509F47FC78037910511F00C9414345C
:1045500087EE92E00E94C0838737910511F40C9496
:10456000BE2A14F40C947F2A8837910511F40C9418
:10457000402B8937910511F00C94143410923C0EA5
:1045800010923B0E0C941434883C910511F40C9459
:10459000C12BCCF48139910511F40C94472B4CF4C8
:1045A0008C38910511F00C9414340E94893C0C94C1
:1045B00014348B39910509F43AC58E3B910509F401
:1045C00078C50C9414348B3C910511F40C941F2C79
:1045D00084F4893C910511F00C94143465EAE62EBC
:1045E00062E1F62E03E811E074E0D72ED00E0C94B1
:1045F000062C8C3C910511F40C943D2C8D3C9105BE
:1046000011F40C94A72C0C9414348A39E1E09E0721
:1046100009F4F8C4C4F58D3221E0920711F40C942A
:10462000192ECCF48D3D910511F40C949D2D3CF484
:104630008C3D910511F40C94902D0C941434823E11
:10464000910511F40C94E22D8232914011F40C94F6
:104650000C2E0C9414348F3251E0950711F40C9405
:104660000B2F14F40C94B72E8336B1E09B0711F492
:104670000C948A338039914011F00C9414340E94C8
:1046800058470C941434863FF1E09F0711F40C94C2
:10469000723204F5843C31E0930709F4BFC05CF446
:1046A000833C914011F00C94143410921D1110921F
:1046B0001C110C941434843FA1E09A0711F40C945B
:1046C0006F32853F914011F00C9414340E9449647C
:1046D0000C9414348835E2E09E0711F40C94813276
:1046E0003CF4873F914011F40C9475320C941434CF
:1046F000803A33E0930709F4CAC2873E934011F42D
:104700000C94A3330C941434A090C811B090C91128
:1047100080E50E947C3C882359F00E94D63B6B01C7
:104720007C0111E0672B682B692B31F410E004C089
:1047300010E0C12CD12C760183E50E947C3C8823BB
:10474000F1F00E941A3C20E030E04AE754E40E9475
:1047500085ED0E947EF26B017C01111112C0672B66
:10476000682B692B71F4A114B10459F0D5018C9117
:10477000882339F061E0C5010E94B67007C011239B
:1047800091F360E087EA91E00E94957081E0809368
:10479000330A0E9458470E945F3EC114D104E104CD
:1047A000F104F1F08091561290915712A091581295
:1047B000B0915912C80ED91EEA1EFB1E0E94AEA966
:1047C000DC01CB018C199D09AE09BF09B7FF1EC0E2
:1047D0008091330A8823D1F080E00E94C2CCEECFD2
:1047E0008091330A882321F080E00E94C2CCF8CF68
:1047F00080913D0E90913E0E60E0029719F483E99E
:1048000091E002C081E791E00E9495701092330A16
:104810000C9414340E94BC800C94143483E50E94E0
:104820007C3C811103C010927B0107C00E94F63BC3
:104830008823C9F381E080937B0181E090E090932D
:104840001D1180931C110C94143460E086EC91E0EF
:104850000E94957017981798179817980C9414340D
:1048600084918F010F5F1F4F882321F00E94A33E88
:10487000F801F6CF1092EE101092ED1040E050E0EB
:10488000BA0189E99EE00E9424A38BE1E9E9FEE0F8
:10489000DE01159601900D928A95E1F78091970EB1
:1048A0009091980E9C838B838FED91E09A838983FE
:1048B00040E050E0BE016F5F7F4F85E892E00E94CC
:1048C000259FCE0101960E94B883EBEDF1E0849123
:1048D0008F010F5F1F4F882311F40C9414340E9432
:1048E000A33EF801F4CF0E94D48F0C94143410929C
:1048F000680E1092690E0C941434E091C811F09176
:10490000C9118081882329F0803209F41082319600
:10491000F8CF40E061E08091C8119091C9110E94E8
:10492000938C0C94143419821A821B821C8218A254
:1049300019A21AA21BA280916B0A882339F0BE012A
:104940006F5F7F4FCE0180960E94CC828091690E6E
:10495000882319F081E08093680E0E9481CA0C942C
:1049600014348091690E882311F40C94143483E577
:104970000E947C3C81110C9417340C941434809167
:10498000690E882351F1E0E0F2E084918F010F5F1E
:104990001F4F882321F00E94A33EF801F6CF6091BB
:1049A000E4107091E5108091E6109091E7104AE0D4
:1049B0000E9400428FE20E94A33E6091E01070913D
:1049C000E1108091E2109091E3104AE00E940042D1
:1049D0008AE00E94A33E0C941434E2E1F2E0849158
:1049E0008F010F5F1F4F882311F40C9414340E9421
:1049F000A33EF801F4CF40E060E08091C8119091AF
:104A0000C9110E94938C0C9414348091690E8823F0
:104A100011F40C94143483E390E10E94F1A283E337
:104A200090E10E94037D1092670E1092660EE09056
:104A3000C811F090C9118091690E882311F40C946B
:104A400014340E94A59CFE0131966F01CF010E9493
:104A50009E6985E99EE09093B50E8093B40ED701D0
:104A60008C918F3209F060C06FE270E0C7010E9444
:104A70001EF48C010F5F1F4F09F45CC06FE270E001
:104A8000C8010E941EF45C01009709F454C0081785
:104A9000190708F050C04C01801A910AA401B8010E
:104AA000CE0180960E9447F4E0E2F0E0EC0FFD1F9B
:104AB000E80DF91D10828E01005E1F4FF8018191F3
:104AC0008F01882319F00E94A33EF8CF8AE00E944C
:104AD000A33E6091B40E7091B50E6115710511F091
:104AE0006C5F7F4F21E0AE01405E5F4FCE010596C7
:104AF0000E940C7D811112C0BE01605E7F4F89E46F
:104B000092E00E94DB4E8EE20E94A33E8AE00E9469
:104B1000A33EC6010E94B8830C941434D092B50E03
:104B2000C092B40E8501A6CF86EB9EE09093B50EA1
:104B30008093B40E87016091B40E7091B50E61152B
:104B4000710511F06C5F7F4F18A21BA222E0A80133
:104B5000CE0180960E940C7D811102C0F12C14C000
:104B6000CE0180960E94139C8823C1F361E0CE01A0
:104B700080960E94FE7D009789F325EEDC012C9340
:104B80001BA20E94FEA0F82ECE0180960E94B03D8E
:104B9000FF2009F1E3E2F2E084917F01BFEFEB1A1D
:104BA000FB0A882321F00E94A33EF701F5CFF8010C
:104BB00081918F01882319F00E94A33EF8CF8AE0EB
:104BC0000E94A33E1092E4101092E5101092E6109D
:104BD0001092E71018C0E1E3F2E084917F012FEF1B
:104BE000E21AF20A882321F00E94A33EF701F5CFD2
:104BF000D8018D918D01882319F00E94A33EF8CF32
:104C00008EE20E94A33EC6010E94B8830C94143425
:104C10008091680E81110E9458478091690E882307
:104C200011F40C94143480E50E947C3C882319F024
:104C30000E940A3C03C080E50E944D3C182F482F7B
:104C400061E08091C8119091C9110E94938C83E515
:104C50000E947C3C882381F00E94E63BAB01BC01B2
:104C60004093E4105093E5106093E6107093E710C2
:104C700083E390E10E9424A38091690E882319F0B8
:104C800081E08093680E11110C94143466CE8091EB
:104C9000C8119091C91121E02093670E40E060E0B7
:104CA0000E94938C0C94143484918F010F5F1F4FDA
:104CB000882321F00E94A33EF801F6CFBE016F5F6A
:104CC0007F4F8DE592E00E94DB4E8AE00E94A33E7A
:104CD0000C9414340E9481CA0C9414348DE39EE029
:104CE0000E94F8460C9414340E94CD9C0C94143409
:104CF00083E50E947C3C882359F00E94E63B6E3499
:104D0000710531F48DE39EE00E94104F0C94143431
:104D100018A219A21AA21BA2EAECF2E084918F0158
:104D20000F5F1F4F882321F00E94A33EF801F6CFAA
:104D3000E1ECF2E084918F010F5F1F4F882321F097
:104D40000E94A33EF801F6CF60914B0E70914C0E7D
:104D500080E090E04AE00E940042E4EBF2E08491BF
:104D60008F010F5F1F4F882321F00E94A33EF8019F
:104D7000F6CF60914D0E70914E0E80E090E04AE0CB
:104D80000E940042E9EAF2E084918F010F5F1F4F19
:104D9000882321F00E94A33EF801F6CF60914B0ECC
:104DA00070914C0E80914D0E90914E0E681B790BB8
:104DB00080913D0E90913E0E019721E030E00297E8
:104DC00010F020E030E0621B730B80E090E04AE0DE
:104DD0000E9400428AE00E94A33EE1EAF2E0849150
:104DE0008F010F5F1F4F882321F00E94A33EF8011F
:104DF000F6CF80914F0E9091500EA091510EB09130
:104E0000520E88A399A3AAA3BBA3BE016F5F7F4FD5
:104E1000CE0180960E94F03CE4E9F2E084918F019B
:104E20000F5F1F4F811105C0FE0131967F018F0179
:104E300004C00E94A33EF801F1CFD8018D918D01ED
:104E4000882319F00E94A33EF8CF8091530E9091D1
:104E5000540EA091550EB091560E88A399A3AAA303
:104E6000BBA3BE016F5F7F4FCE0180960E94F03CD6
:104E7000E4E8F2E084918F010F5F1F4F882321F057
:104E80000E94A33EF801F6CFF70181917F018823AC
:104E900019F00E94A33EF8CF8AE00E94A33EECE7FF
:104EA000F2E084918F010F5F1F4F882321F00E9451
:104EB000A33EF801F6CFECE6F2E084918F010F5F9C
:104EC0001F4F882321F00E94A33EF801F6CF20E077
:104ED00030E04AE754E46091570E7091580E80918B
:104EE000590E90915A0E0E9405F242E00E94C8426B
:104EF000EAE6F2E084918F010F5F1F4F882321F0D3
:104F00000E94A33EF801F6CF8AE00E94A33E0C94D3
:104F100014340E94B03C0C94143483E50E944D3C40
:104F2000882359F083E50E947C3C882319F00E9475
:104F3000F63B01C080E080930B11EEECF2E384912C
:104F40008F010F5F1F4F882321F00E94A33EF801BD
:104F5000F6CFE0EEF2E084918F010F5F1F4F8823C0
:104F600021F00E94A33EF801F6CF80910B11882317
:104F7000A1F182EDC82E82E0D82EE12CF12C20E0A8
:104F800080910B1190E00E2C02C0959587950A94A4
:104F9000E2F780FF17C0BB24B394B20E222319F0AE
:104FA0008CE20E94A33EF60125913491F90184918F
:104FB00089010F5F1F4F882321F00E94A33E9801B3
:104FC000F5CF2B2DFFEFEF1AFF0A32E0C30ED11CF5
:104FD00045E0E416F104A1F60CC0ECEDF2E084919A
:104FE0008F010F5F1F4F882321F00E94A33EF8011D
:104FF000F6CF8AE00E94A33E0C94143410926F0105
:105000000C9414340E94BF3D0C94143484918F018D
:105010000F5F1F4F882321F00E94A33EF801F6CFB7
:105020000E9426B48AE00E94A33E0C94133983E5C3
:105030000E947C3C882311F40C9414340E94F63BAB
:10504000182F8D3308F01CE3109353120E94AEA961
:105050006B017C01212F30E0A8EEB3E00E9472F1D9
:10506000C60ED71EE81EF91EC0924F12D0925012E3
:10507000E0925112F09252120C9414348091230851
:105080008093201180910B1183FF02C00C94143483
:1050900083E50E947C3C60968FAF609781110C94F1
:1050A000283482E50E947C3C81110C9428340C94B5
:1050B000143480910B1183FF02C00C94143460E00F
:1050C00089E393E00E94957083E50E947C3C6096A2
:1050D0008FAF609781110C94AA3582E50E947C3CC9
:1050E00081110C94AA350C94143480E50E947C3C08
:1050F000811108C083E50E947C3C811109C03FEF0B
:1051000020E00AC00E94F63B81110C941434F2CFC7
:105110000E94E63B362F272F832F922F8F3F91053A
:1051200019F010F08FEF90E090936A11809369115D
:105130000C94143480E50E947C3C811106C01092CE
:105140006A11109269110C9414340E94E63B672B8B
:1051500011F00C941434F3CF8CE40E944D3C88235E
:1051600019F00E941A3C04C060E070E080E890EC06
:105170006BAF7CAF8DAF9EAF80E090E0A0E2B1EC72
:1051800089839A83AB83BC8380E090E0A0E2B1E4A2
:105190008D839E83AF83B88780E090E0A0EAB1E47E
:1051A00089879A87AB87BC8788E50E947C3C8823E7
:1051B00079F088E50E947C3C882319F00E941A3C13
:1051C00003C060E070E0CB0169837A838B839C83AA
:1051D00089E50E947C3C882379F089E50E947C3C2B
:1051E000882319F00E941A3C03C060E070E0CB01F4
:1051F0006D837E838F8398878AE50E947C3C882319
:1052000079F08AE50E947C3C882319F00E941A3CC0
:1052100003C060E070E0CB0169877A878B879C8749
:1052200018A219A21AA21BA280916B0A81110C94D8
:10523000143420E0AE01405E5F4FBE016F5F7F4FD0
:10524000CE01CB960E94FA810C9414340E94E3B6EE
:105250000E9458470E94D9CE10926A11109269118B
:1052600068EE73E080E090E00E94AC6F60E08AE559
:1052700093E00E9495700C941434109291020C9457
:10528000143483E50E947C3C8823A1F00E941A3CE0
:1052900020E030E04AE754E40E9485ED0E947EF26F
:1052A00060937F01709380018093810190938201CC
:1052B0000C94143488E50E944D3C81110C940937FC
:1052C00089E50E944D3C81110C9409378AE50E94C2
:1052D0004D3C81110C94093785E40E944D3C8111AD
:1052E0000C9409370E9458470E94D9CE0C9414346C
:1052F00083E50E944D3C882311F40C9414340E94E1
:105300001A3C20E030E04AE754E40E9485ED0E9418
:105310007EF260935A1270935B1280935C129093AA
:105320005D120C94143413E8C12E11E0D12E07E95C
:10533000E02E01E1F02E10E0D6018D916D010E946A
:105340004D3C882309F46DC0133009F063C00E94FE
:105350001A3C4B015C0120E030E040EA51E40E943D
:105360001FED87FF4EC0A50194016091A3117091BC
:10537000A4118091A5119091A6110E9405F22B0114
:105380003C019B01AC016091C30D7091C40D8091F3
:10539000C50D9091C60D0E9485ED6093C30D70936D
:1053A000C40D8093C50D9093C60DA3019201609129
:1053B000A1127091A2128091A3129091A4120E9446
:1053C00085ED6093A1127093A2128093A312909323
:1053D000A4126091D9127091DA128091DB1290912F
:1053E000DC120E9424EDA30192010E9485ED0E942F
:1053F0007EF26093D9127093DA128093DB1290934D
:10540000DC128092A3119092A411A092A511B092E7
:10541000A61107C00E941A3CF70160837183828342
:1054200093831F5FF4E0EF0EF11C143009F084CF7A
:105430000E94264F0C9414340E9458470E943D430A
:105440000C941434E1E2F4E084918F010F5F1F4F5C
:10545000882321F00E94A33EF801F6CF60E081E1AD
:1054600094E00E94844261E08AE094E00E948442D9
:1054700061E08FEF93E00E94844261E08FEE93E061
:105480000E94844260E086EE93E00E94844261E0E4
:105490008CED93E00E94844260E082ED93E00E94F4
:1054A000844260E08AEC93E00E94844260E08CEBEE
:1054B00093E00E94844260E08EEA93E00E9484427E
:1054C00060E08FE993E00E94844260E081E993E02C
:1054D0000E94844260E08BE793E00E94844260E097
:1054E0008AE693E00E9484420C94143460E0809138
:1054F000C8119091C9110E94B6700C94143485E4BF
:105500000E947C3C882319F00E940A3C03C085E479
:105510000E944D3C882361F0EEECF2E384918F0110
:105520000F5F1F4F882321F00E94A33EF801F6CFA2
:1055300081E40E947C3C882319F00E940A3C03C04D
:1055400081E40E944D3C882361F0E2EEF4E0849116
:105550008F010F5F1F4F882321F00E94A33EF801A7
:10556000F6CF0091C8111091C911D8018D918D010C
:10557000882309F43ECD0E94A33EF7CFE9E0F5E091
:1055800084918F010F5F1F4F882321F00E94A33E5B
:10559000F801F6CFE1E0F5E084918F010F5F1F4F36
:1055A000882321F00E94A33EF801F6CF359B03C06B
:1055B0000BEE11E002C000EF11E0F80181918F01C4
:1055C000882319F00E94A33EF8CF8AE00E94A33EF0
:1055D000E9EFF4E084918F010F5F1F4F882321F0E2
:1055E0000E94A33EF801F6CF329B03C00BEE11E000
:1055F00002C000EF11E0D8018D918D01882319F0D0
:105600000E94A33EF8CF8AE00E94A33EE1EFF4E0BF
:1056100084918F010F5F1F4F882321F00E94A33ECA
:10562000F801F6CF4D9B03C00BEE11E002C000EF76
:1056300011E0F80181918F01882319F00E94A33EA7
:10564000F8CF8AE00E94A33EE6EEF4E084918F0159
:105650000F5F1F4F882321F00E94A33EF801F6CF71
:10566000069B03C00BEE11E002C000EF11E0D80171
:105670008D918D01882309F4BCCC0E94A33EF7CF05
:1056800081E080933C0E80933B0E0C94143483E5B0
:105690000E947C3C882319F00E94E63B02C060E037
:1056A00070E08B01112702301105D4F0EAEFFFE220
:1056B00084918F010F5F1F4F882321F00E94A33E2A
:1056C000F801F6CFE3E2F5E084918F010F5F1F4F01
:1056D000882311F40C9414340E94A33EF801F4CFF3
:1056E00088E40E947C3C8823A9F00E94E63B66394E
:1056F00071053CF06530B1E07B072CF064E071E0AF
:1057000002C066E970E0F801EE0FFF1FE357F54FA6
:105710007183608386E40E947C3C8823A9F00E9408
:10572000E63BF801EE0FFF1FEF56F54F71836083E4
:105730006F3F710519F014F06FEF70E077FF02C052
:1057400060E070E07183608382E40E947C3C882387
:1057500011F40C9414340E94E63B6530710534F06A
:10576000643771052CF063E770E002C065E070E01B
:10577000000F111FF801E757F54F718360830C94F8
:105780001434809123088093201184E40E944D3CBE
:105790008823C1F10E941A3C11E020E030E0A90109
:1057A0000E941FED811101C010E0109347111123D9
:1057B00049F10E941A3CE091201124E0E29FF0019F
:1057C0001124E85BFE4E608371838283938320E023
:1057D00030E0A901609148117091491180914A11FE
:1057E00090914B110E941FED81110CC080E090E060
:1057F000A0EEBFE38093481190934911A0934A1102
:10580000B0934B110E94AFC40C941434D8018D9105
:105810008D010E944D3C882349F00E941A3C0E9451
:105820007EF2F7016083718382839383F4E0EF0E4D
:10583000F11CD012EBCF0E94C8DB0C94143445E964
:10584000E42E42E1F42E03E811E054E0D52ED00E10
:10585000D8018D918D010E944D3C882339F00E9422
:105860001A3CF7016083718382839383F4E0EF0E27
:10587000F11CD012EDCF0C94143483E50E944D3C02
:105880008823D9F00E941A3CAB01BC014093BD12A1
:105890005093BE126093BF127093C0124093B51222
:1058A0005093B6126093B7127093B8128FE995E0D7
:1058B0000E94A54E8AE00E94A33E80E50E944D3CD6
:1058C000882399F00E941A3CAB01BC014093BD12A1
:1058D0005093BE126093BF127093C01282E895E09D
:1058E0000E94A54E8AE00E94A33E82E50E944D3CA4
:1058F000882399F00E941A3CAB01BC014093B91275
:105900005093BA126093BB127093BC1283E695E079
:105910000E94A54E8AE00E94A33E84E50E944D3C71
:10592000882309F481C70E941A3CAB01BC01409353
:10593000B5125093B6126093B7127093B81285E403
:1059400095E00E94A54E8AE00E94A33E6DC783E5C4
:105950000E944D3C882351F00E941A3C60939112A2
:1059600070939212809393129093941284E50E9404
:105970004D3C882351F00E941A3C60938D12709325
:105980008E1280938F129093901282E40E944D3C6D
:10599000882351F00E94D63B60934C1170934D11B7
:1059A00080934E1190934F1188E50E944D3C8823BF
:1059B00051F00E941A3C6093B70D7093B80D80931C
:1059C000B90D9093BA0D89E50E944D3C882351F0A2
:1059D0000E941A3C6093BB0D7093BC0D8093BD0D6B
:1059E0009093BE0D8AE50E944D3C882351F00E94A1
:1059F0001A3C6093BF0D7093C00D8093C10D9093BE
:105A0000C20D85E40E944D3C882309F40DC70E9415
:105A10001A3C6093C30D7093C40D8093C50D909391
:105A2000C60D02C7EEECF2E384918F010F5F1F4FAA
:105A3000882321F00E94A33EF801F6CF83E50E945F
:105A40004D3C882321F00E940A3C80930C01EEEF2C
:105A5000F5E084918F010F5F1F4F882321F00E9492
:105A6000A33EF801F6CF80910C01811103C0E3EF52
:105A7000F5E002C0E7EEF5E084918F010F5F1F4F64
:105A8000882321F00E94A33EF801F6CFEFEDF5E068
:105A900084918F010F5F1F4F882321F00E94A33E46
:105AA000F801F6CF40E050E0BA018DED95E00E949C
:105AB000A54E40E050E0BA018AED95E00E94A54E67
:105AC00040E050E060E070EC87ED95E00E94A54E6C
:105AD000EFECF5E084918F010F5F1F4F882321F0D9
