:100000000C94AD100C94DE100C94DE100C94DE10E9
:100010000C94DE100C94DE100C94DE100C94DE10A8
:100020000C94DE100C94DE100C94DE100C94DE1098
:100030000C94DE100C94DE100C94DE100C94DE1088
:100040000C94DE100C9416590C94DE100C94DE10F7
:100050000C94DE100C94DE100C9409430C9498ABB5
:100060000C94DE100C94E02B0C94D62B0C94DE1028
:100070000C94DE100C94DE100C94DE100C94DE1048
:100080000C94DE100C94DE100C94DE100C94DE1038
:100090000C94DE100C94DE100C94DE100C94DE1028
:1000A0000C94DE100C94DE100C94DE100C94DE1018
:1000B0000C94DE100C94DE100C94DE100C94DE1008
:1000C0000C94DE100C94DE100C94DE100C947A2646
:1000D0000C9445260C94DE100C94DE100C94DE106B
:1000E0000C94DE109966B666CB66E066F166026730
:1000F000136724673D6756676B6778678D67A667E8
:10010000C76703AB06ABF5AAF9AAFDAA3DAB0AABDC
:100110000EAB14AB18AB1CAB22AB26AB2AAB3DAB82
:1001200030AB34AB38AB0C9402670C946B670C9417
:1001300024670C9422AB0C94FDAA0C94A6670C9433
:10014000C7670C94CB660C941CAB0C94F9AA0C9466
:1001500056670C94B6660C9434AB0C9438AB0C9484
:1001600014AB0C9499660C942AAB0C9478670C949D
:10017000E0660C940EAB0C94F1660C9418AB0C94E6
:1001800006AB0C945ABB0C948D670C943D670C9491
:100190003DAB0C9426AB0C9403AB0C9413670C94FE
:1001A0000AAB0C9430AB0C94F5AA0C943CBB4E41BA
:1001B0004E494E495459494E46CDCCCC3D0AD723E1
:1001C0003C17B7D13877CC2B329595E6241FB14F29
:1001D0000A000020410000C84200401C4620BCBE6E
:1001E0004CCA1B0E5AAEC59D7400407A10F35A00DB
:1001F000A0724E18090010A5D4E80000E876481750
:100200000000E40B54020000CA9A3B000000E1F534
:1002100005000080969800000040420F000000A0FA
:100220008601000000102700000000E80300000025
:10023000006400000000000A00000000000100004F
:100240000000002C76D888DC674F0823DFC1DFAEC2
:1002500059E1B1B796E5E3E453C63AE6519976968B
:10026000E8E6C28426EB898C9B62ED407C6FFCEF54
:10027000BC9C9F40F2BAA56FA5F490055A2AF75C82
:10028000936B6CF9676DC11BFCE0E40D47FEF52034
:10029000E6B500D0ED902E030094357705008084FC
:1002A0001E080000204E0A000000C80C3333333310
:1002B0000F986E12831141EF8D2114893BE655167C
:1002C000CFFEE6DB18D1844B381BF77C1D901DA4B4
:1002D000BBE424203284725E228100C9F124ECA1A7
:1002E000E53D27434F4D4D554E49434154494F4EEF
:1002F0000044525952554E004552524F52530049F4
:100300004E464F004543484F004D65736820706F5F
:10031000696E74206F7574206F662072616E6765F8
:100320000A00456E642066696C65206C6973740A06
:1003300000426567696E2066696C65206C6973743C
:100340000A004E6F206D656469610A00286E6F2097
:1003500066696C65290043757272656E7420666902
:100360006C653A20005344207072696E74696E6740
:10037000206279746520004E6F742053442070729F
:10038000696E74696E670A002569792025696420A1
:100390002569682025696D20256973005072696E92
:1003A000742074696D653A20006F666600444542AA
:1003B00055473A004D3131322053687574646F7778
:1003C0006E004348414D4245525F54454D504552A1
:1003D00041545552450042414259535445505049A9
:1003E0004E470041524353004D4F54494F4E5F4DCD
:1003F0004F44455300544845524D414C5F50524F75
:1004000054454354494F4E004C4F4E475F46494C6C
:10041000454E414D45004155544F5245504F525461
:100420005F53445F53544154555300534443415226
:10043000440050524F4D50545F535550504F5254FA
:1004400000454D455247454E43595F504152534533
:100450005200434153455F4C494748545F4252491B
:100460004748544E45535300544F47474C455F4C03
:10047000494748545300534F4654574152455F50E3
:100480004F574552004255494C445F5045524345F1
:100490004E54004C4556454C494E475F44415441EB
:1004A000005A5F50524F42450052554E4F5554002E
:1004B0004155544F4C4556454C005052494E545F9F
:1004C0004A4F420050524F475245535300415554F2
:1004D0004F5245504F52545F54454D5000564F4C6B
:1004E000554D455452494300454550524F4D0042E9
:1004F000494E4152595F46494C455F5452414E5313
:100500004645520053455249414C5F584F4E5F5843
:100510004F4646004649524D574152455F4E414D68
:10052000453A4D61726C696E204D61726C696E2D39
:10053000322E302E3820284A756C20203920323057
:1005400032312031393A31363A33322920534F553E
:100550005243455F434F44455F55524C3A6874746B
:1005600070733A2F2F6769746875622E636F6D2FF1
:100570004D61726C696E4669726D776172652F4D5F
:1005800061726C696E2050524F544F434F4C5F560E
:10059000455253494F4E3A312E30204D4143484940
:1005A0004E455F545950453A5A38545F4D332045B3
:1005B000585452554445525F434F554E543A31209A
:1005C000555549443A63656465326132662D34316C
:1005D00061322D343734382D396231322D6335355F
:1005E0006336326633363766660A002F2F200041A5
:1005F0006363656C65726174696F6E004163636506
:100600006C65726174696F6E3A20500020204D61F4
:10061000783A200020204D696E3A2000536F6674AE
:1006200020656E6473746F70733A200046523A000E
:1006300020466C6F773A200042616279737465706E
:10064000205A0050726F6265204F66667365742091
:100650005A0020643A0020693A0020703A00496E3E
:1006600076616C69642065787472756465720A00DD
:100670004D34323120696E636F727265637420701D
:100680006172616D657465722075736167650A00DA
:1006900020204261636B6C617368204469737461EC
:1006A0006E636520286D6D293A20202020202020AF
:1006B0002000202846312E30203D2066756C6C2CA1
:1006C0002046302E30203D206E6F6E65290A0020B6
:1006D00020436F7272656374696F6E20416D6F7530
:1006E0006E742F466164652D6F75743A202020204A
:1006F0002046006163746976653A0A004261636B63
:100700006C61736820436F7272656374696F6E20E9
:1007100000546F6F206661722066726F6D20726583
:10072000666572656E636520706F696E740A004558
:100730004550524F4D204F4B0A00205A323A004448
:1007400075616C20456E6473746F702041646A75C6
:1007500073746D656E7420286D6D293A2000506F9A
:100760007765722D6C6F7373207265636F76657237
:100770007920004D383400446F6E65207072696EC8
:1007800074696E672066696C650A004D3737004DE5
:100790003331000403FF02F802F102E302457272F2
:1007A0006F722077726974696E6720746F20454597
:1007B00050524F4D210A002121204B494C4C2063BF
:1007C000617573656420627920746F6F206D756345
:1007D0006820696E6163746976652074696D65204F
:1007E0002D2063757272656E7420636F6D6D616E1E
:1007F000643A20004D323930004D343130004D31F3
:100800003132004D313038005072696E746572209B
:1008100073746F707065642064756520746F2065F3
:1008200072726F72732E2046697820746865206535
:1008300072726F7220616E6420757365204D393954
:100840003920746F20726573746172742E2028547D
:10085000656D70657261747572652069732072656B
:100860007365742E20536574206974206166746505
:10087000722072657374617274696E67290A004E22
:100880006F20436865636B73756D207769746820AA
:100890006C696E65206E756D6265722C204C61739B
:1008A00074204C696E653A2000636865636B7375EC
:1008B0006D206D69736D617463682C204C61737475
:1008C000204C696E653A20004C696E65204E756D4E
:1008D000626572206973206E6F74204C617374209E
:1008E0004C696E65204E756D6265722B312C204C03
:1008F000617374204C696E653A20004D31313000CF
:1009000053442072656164206572726F720A004DF3
:100910003130303053005072696E746572206861F6
:100920006C7465642E206B696C6C28292063616C83
:100930006C6564210A0020746F6F206C6F6E6720F5
:10094000657874727573696F6E2070726576656E06
:100950007465640A004572723A204D415854454D01
:1009600050004D415854454D502074726967676579
:10097000726564004572723A204D494E54454D509F
:10098000004D494E54454D50207472696767657239
:10099000656400202F002042403A0020403A007C4D
:1009A0003C3E5E2B3D3F2F5B5D3B2C2A225C00656D
:1009B0006E7175657565696E672022006F6B0052F8
:1009C0006573656E643A200020573A0023646566BB
:1009D000696E652044454641554C545F004B642088
:1009E000004B6920004B7020005049442041757431
:1009F0006F74756E652066696E6973686564212021
:100A000050757420746865206C617374204B702C71
:100A1000204B6920616E64204B6420636F6E737499
:100A2000616E74732066726F6D2062656C6F7720E3
:100A3000696E746F20436F6E666967757261746961
:100A40006F6E2E680A00504944204175746F7475AA
:100A50006E65206661696C6564212074696D656FDF
:100A600075740A000A20436C6173736963205049EE
:100A700044200A00204B643A2000204B693A2000B1
:100A8000204B703A20002054753A2000204B753AD4
:100A90002000206D61783A2000206D696E3A2000B8
:100AA00020643A200020626961733A200050494472
:100AB000204175746F74756E652073746172740A69
:100AC00000504944204175746F74756E65206661ED
:100AD000696C6564212054656D706572617475720E
:100AE0006520746F6F20686967680A005049442068
:100AF0004175746F74756E65206661696C656421FB
:100B000020426164206578747275646572206E7528
:100B10006D6265720A006F70656E005452494747F6
:100B200045524544007A5F70726F6265007A325FA9
:100B30006D696E007A5F6D696E00795F6D696E0038
:100B4000785F6D696E005265706F7274696E6720B0
:100B5000656E6473746F70207374617475730A00CA
:100B60004F46460A004661646520486569676874B7
:100B70002000426564204C6576656C696E672000D4
:100B80004661696C656420746F20656E61626C6596
:100B900020426564204C6576656C696E670A004981
:100BA0006E76616C6964206D6573682E0A00507200
:100BB0006F62696E67206D65736820706F696E740F
:100BC000200070726F62652E6F66667365742E7A90
:100BD000203D20006D696E5F6F66667365747A20D4
:100BE0003D20006D61785F6F66667365747A203DA5
:100BF0002000202844525952554E290047323920AE
:100C00004175746F20426564204C6576656C696E31
:100C100067003F20284C2C522C462C4229206F750F
:100C200074206F6620626F756E64732E0A003F2811
:100C300056296572626F7365206C6576656C2069F4
:100C40006D706C61757369626C652028302D342974
:100C50002E0A00426164205A2076616C75650A0094
:100C60004E6F2062696C696E65617220677269649B
:100C70000A006F70656E206661696C65642C2046A1
:100C8000696C653A200057726974696E6720746FE9
:100C90002066696C653A2000667265736800646F4F
:100CA000696E67004E6F7720002020506C616E6E79
:100CB000657242756666657242797465733A2000A2
:100CC0002046726565204D656D6F72793A2000434C
:100CD0006F6D70696C65643A204A756C202039200C
:100CE000323032310A00204C6173742055706461D7
:100CF0007465643A20323032312D30332D32322057
:100D00007C20417574686F723A20285A4F4E4553C3
:100D10005441522C2048616C6C79290A004D617253
:100D20006C696E2D322E302E380A004D61726C695E
:100D30006E0020536F66747761726520526573652B
:100D4000740A00205761746368646F67205265738A
:100D500065740A002042726F776E206F757420529E
:100D6000657365740A002045787465726E616C2045
:100D700052657365740A00506F77657255700A008A
:100D80004D3234004D3233202573006175746F2568
:100D9000632E67004732385859004D3130303100EA
:100DA0006572726F722077726974696E6720746FF2
:100DB0002066696C650A00446F6E65207361766910
:100DC0006E672066696C652E0A004D32390020502E
:100DD0003A00656E6473746F7073206869743A20AA
:100DE00000F0004A0110013B0130012C01400127B5
:100DF000015001220170011D0190011801B0011381
:100E000001C0010E01F0010901100204013002FFCE
:100E1000006002FA009002F500C002F0000003EB4F
:100E2000004003E6008003E100D003DC002004D78B
:100E300000E004D200C005CD004006C800D006C3C3
:100E4000008007BE00F008B9004009B400C009AF37
:100E500000B00AAA00B00BA500D00CA000000E9BA9
:100E600000C01096005012910000148C00C015872D
:100E700000B0178200B0197D00D01B7800001E73EF
:100E80000040206E0090226900F024640040275F3B
:100E90000090295A00E02B5500102E500020304BB6
:100EA0000010324600E033410090353C00103737E7
:100EB0000070383200A0392D00B03A2800A03B2342
:100EC00000603C1E00103D1900903D1700103E14BC
:100ED00000703E1200C03E0F00003F0C00403F0873
:100EE00000803F0500C03F0000F03FFBFF24F4D42A
:100EF0003050C38E20C2A24017828B7011127A919B
:100F00000D816CD90AA861E108C758660761514391
:100F1000061E4B5D05C145A7041A411104093D9801
:100F200003713931034036DB0265339102D430540A
:100F300002802E1D02632CEE01752AC501B028A087
:100F400001102781018F2564012B244B01E02234FD
:100F500001AC211F018D200D01801FFC00841EEDBE
:100F600000971DDF00B81CD200E61BC600201BBC8A
:100F700000641AB200B219A8000A19A0006A1899F0
:100F800000D117910040178B00B516840031167EF2
:100F900000B31579003A157300C7146F0058146A2E
:100FA00000EE1366008813630025135E00C7125B12
:100FB000006C12570015125400C111510070114FEE
:100FC0000021114B00D61049008D104700461044F7
:100FD0000002104200C00F4000800F3E00420F3C54
:100FE00000060F3B00CB0E3800930E37005C0E3529
:100FF00000270E3400F30D3200C10D3100900D308A
:1010000000600D2E00320D2D00050D2C00D90C2B8B
:1010100000AE0C2900850C29005C0C2700350C273C
:10102000000E0C2600E80B2400C40B2400A00B23A8
:10103000007D0B23005A0B2100390B2100180B20D7
:1010400000F80A1F00D90A1E00BB0A1E009D0A1DD7
:1010500000800A1D00630A1C00470A1B002C0A1BA3
:1010600000110A1A00F7091A00DD091900C409194C
:1010700000AB091900920917007B091800630917D2
:10108000004C09160036091600200916000A091539
:1010900000F5081500E0081400CC081400B8081486
:1010A00000A4081400900813007D0812006B0813B8
:1010B00000580812004608120034081100230811D5
:1010C000001208110001081100F0071000E00710DD
:1010D00000D0071000C0071000B0070F00A10710D4
:1010E0000091070E0083070F0074070F0065070EBD
:1010F0000057070E0049070E003B070D002E070E94
:101100000020070D0013070D0006070D00F9060C5F
:1011100000ED060D00E0060C00D4060C00C8060C1D
:1011200000BC060C00B0060C00A4060B0099060CCF
:10113000008D060B0082060B0077060B006C060B79
:101140000061060A0057060B004C060A0042060A18
:101150000038060A002E060A0024060A001A060AAB
:10116000001006090007060A00FD050900F405093C
:1011700000EB050900E2050900D9050900D00509C1
:1011800000C7050900BE050900B5050800AD050842
:1011900000A50509009C050800940508008C0508B9
:1011A00000840508007C050800740508006C05072C
:1011B00000650508005D050700560508004E050797
:1011C00000470507004005080038050700310507FE
:1011D000002A050700230507001C05060016050761
:1011E000000F0507000805060002050700FB0406BE
:1011F00000F5040700EE040600E8040600E2040718
:1012000000DB040600D5040600CF040600C904066E
:1012100000C3040600BD040600B7040600B10405BF
:1012200000AC040600A6040600A00405009B04060A
:101230000095040500900406008A04050085040555
:1012400000800406007A040500750405007004059A
:10125000006B04050066040500610405005C0405DC
:101260000057040500520405004D0405004804051C
:1012700000430405003E0404003A0405003504055B
:1012800000300404002C0405002704040023040596
:10129000001E0404001A04040016040500110404CE
:1012A000000D040400090405000404040000040403
:1012B00000FC030400F8030400F4030400F003043A
:1012C00000EC030400E8030400E4030400E003046A
:1012D00000DC030400D8030400D4030400D003049A
:1012E00000CC030400C8030300C503030024F40476
:1012F000D9201BC40C5C0E9804C4095F02650771F9
:1013000001F405F900FB04B30048048700C1036938
:10131000005803550003034500BE023A0084023121
:101320000053022A002902250004022000E4011CC7
:1013300000C8011900AF01170098011400840113BF
:1013400000710110006101100051010E0043010DF8
:101350000036010B002B010B0020010B00150109C9
:10136000000C01090003010800FB000800F300085D
:1013700000EB000700E4000600DE000600D80006CF
:1013800000D2000600CC000500C7000500C2000521
:1013900000BD000400B9000400B5000400B1000461
:1013A00000AD000400A9000400A5000300A2000392
:1013B000009F0004009B00030098000300950002BA
:1013C0000093000300900003008D0002008B0003D7
:1013D00000880002008600020084000300810002F1
:1013E000007F0002007D0002007B00020079000205
:1013F0000077000100760002007400020072000114
:1014000000710002006F0002006D0001006C00021C
:10141000006A000100690002006700010066000127
:10142000006500010064000200620001006100012B
:1014300000600001005F0002005D0001005C00012F
:10144000005B0001005A0001005900010058000132
:101450000057000100560001005500010054000132
:101460000053000000530001005200010051000130
:1014700000500001004F0001004E0000004E00012E
:10148000004D0001004C0001004B0000004B00012A
:10149000004A000100490001004800000048000126
:1014A0000047000100460000004600010045000022
:1014B000004500010044000100430000004300011A
:1014C0000042000000420001004100000041000114
:1014D00000400001003F0000003F0001003E00000E
:1014E000003E0001003D0000003D0001003C000006
:1014F000003C0000003C0001003B0000003B0001FC
:10150000003A0000003A00010039000000390001F3
:1015100000380000003800000038000100370000EB
:1015200000370001003600000036000000360001E0
:1015300000350000003500000035000100340000D7
:1015400000340000003400010033000000330000CC
:1015500000330001003200000032000000320001C0
:1015600000310000003100000031000100300000B7
:101570000030000000300001002F0000002F0000AC
:10158000002F0000002F0001002E0000002E0000A0
:10159000002E0001002D0000002D0000002D000095
:1015A000002D0001002C0000002C0000002C000089
:1015B000002C0001002B0000002B0000002B00007D
:1015C000002B0001002A0000002A0000002A000071
:1015D000002A000100290000002900000029000065
:1015E0000029000000290001002800000028000058
:1015F000002800000028000000280001002700004B
:10160000002700000027000000270000002700013D
:101610000026000000260000002600000026000032
:101620000026000100250000002500000025000024
:101630000025000000250000002500010024000016
:101640000024000000240000002400000024000109
:1016500000230000002300000023000000230000FE
:1016600000230000002300000023000100220000EE
:1016700000220000002200000022000000220000E2
:1016800000220001002100000021000000210000D4
:1016900000210000002100000021000000210001C5
:1016A00000200000002000000020000000200000BA
:1016B00000200000002000000020000000200001A9
:1016C000001F0000001F0000001F0000001F00009E
:1016D000001F0000001F0000001F0001001E00008E
:1016E000001E0000001E0000001E000000A42C00D0
:1016F00000841E0000B0120000870A00009E050052
:1017000000E90200007B010000BF00000065636883
:101710006F3A004572726F723A0042696C696E6589
:101720006172204C6576656C696E672047726964EA
:101730003A0A005761726E696E673A20486F6D69A8
:101740006E672042756D702044697669736F7220F0
:101750003C20310A000202040000484200004842D6
:1017600000008040000080400000804000000040F9
:101770000080A24300809D430000C843FFFFFF009C
:101780000070C10000A0C00000000000009B4300EA
:10179000009B430000C843206C696D697465642038
:1017A000746F2000204D617820004A65726B0053F1
:1017B000657474696E67732053746F726564202852
:1017C000002053697A653A200043616E6E6F742081
:1017D0006F70656E207375626469722000534420D7
:1017E00063617264206F6B0A006F70656E526F6F79
:1017F00074206661696C65640A00766F6C756D654E
:101800002E696E6974206661696C65640A004E6FAA
:1018100020534420636172640A0046696C6520733A
:10182000656C65637465640A0046696C65206F7059
:10183000656E65643A2000454E4420535542524F30
:101840005554494E450A002220706F7300222070C3
:101850006172656E743A2200535542524F55544995
:101860004E452043414C4C207461726765743A22A6
:101870000053756263616C6C204F766572666C6FA5
:1018800077004578636565646564206D61782053F1
:101890005542524F5554494E452064657074683A1C
:1018A000310A0044656C6574696F6E206661696C0D
:1018B00065642C2046696C653A200046696C652099
:1018C00064656C657465643A00000021002400279B
:1018D000002A002D00300033000101000004010740
:1018E000010A012062797465733B206372632000F2
:1018F0004E6F20454550524F4D2E0A0045455052DF
:101900004F4D206461746173697A65206572726FEE
:10191000722E0A002073746F72656420736574748C
:10192000696E6773207265747269657665642028D4
:1019300000202863616C63756C6174656429210AF9
:101940000020213D2000454550524F4D2043524339
:10195000206D69736D61746368202D202873746F26
:10196000726564292000496E6465783A2000444914
:101970004749504F5453204C6F616465640A0044DA
:10198000494749504F5453204C6F6164696E670A50
:1019900000204D61726C696E3D563833290A00454E
:1019A0004550524F4D2076657273696F6E206D6998
:1019B000736D617463682028454550524F4D3D005A
:1019C00020453A00205A3A0020593A0054484552DE
:1019D0004D414C2052554E41574159005468657253
:1019E0006D616C2052756E617761790020436F756F
:1019F0006E7420583A0042656400453100626564A7
:101A0000002C2073797374656D2073746F7070652A
:101A10006421204865617465725F49443A2000483A
:101A2000656174696E67204661696C65640048652C
:101A30006174696E67206661696C656400202D20A1
:101A4000496E76616C69642065787472756465723C
:101A5000206E756D62657220210A00001000AA03D5
:101A60008000400100012C01B00122014002100160
:101A7000F00202018003F8004004F500E004ED00EC
:101A80009005E4003006DD00E006D7008007D100B5
:101A90003008CC00D008C7007009C300100ABE008F
:101AA000B00ABB00500BB700900CB300D00DAA00D9
:101AB000B00FA5005010A0001014960090169000D2
:101AC00010198C00501A8500301C8200702278009A
:101AD000B023750040256E0020276900A02964000E
:101AE000502A5F00902B5A00D02C5500702D4F00CB
:101AF000E02E48005031450030334100D0353900E8
:101B00006036370010373300F0382D00A039270039
:101B1000803C1C00103D1900903D1700103E140041
:101B2000703E1200C03E0F00003F0C00403F080016
:101B3000803F0500C03F0000F03FFBFF2052004502
:101B40004550524F4D20496E697469616C697A65E0
:101B5000640A0048617264636F646564204465666A
:101B600061756C742053657474696E6773204C6F73
:101B7000616465640A003B200020204D343235202A
:101B800046004261636B6C61736820636F6D7065C2
:101B90006E736174696F6E3A0020204D38353120C4
:101BA00058005A2D50726F6265204F6666736574D7
:101BB0000020204D3230392053004175746F2D5272
:101BC0006574726163743A20533D3020746F2064F1
:101BD000697361626C652C203120746F20696E74AA
:101BE00065727072657420452D6F6E6C79206D6F13
:101BF00076657320617320726574726163742F72ED
:101C000065636F7665720020204D323038205300B6
:101C10005265636F7665723A20533C6C656E6774EB
:101C2000683E20463C756E6974732F6D3E002057E8
:101C30000020204D323037205300526574726163AA
:101C4000743A20533C6C656E6774683E20463C7560
:101C50006E6974732F6D3E205A3C6C6966743E0049
:101C600020204D343133205300506F7765722D4C56
:101C70006F7373205265636F766572793A00202026
:101C80004D333031205000504944207365747469DD
:101C90006E67733A0020204D36363600456E647309
:101CA000746F702061646A7573746D656E743A0048
:101CB000204A002020473239205720490020204D5B
:101CC0003432302053004175746F20426564204CDB
:101CD0006576656C696E673A0020204D323036209B
:101CE0005800486F6D65206F66667365743A002012
:101CF000204D323035204200416476616E63656468
:101D00003A20423C6D696E5F7365676D656E745F06
:101D100074696D655F75733E20533C6D696E5F66D7
:101D2000656564726174653E20543C6D696E5F74D4
:101D3000726176656C5F66656564726174653E208C
:101D4000583C6D61785F785F6A65726B3E20593CE4
:101D50006D61785F795F6A65726B3E205A3C6D6198
:101D6000785F7A5F6A65726B3E20453C6D61785F93
:101D7000655F6A65726B3E0020540020204D323052
:101D800034205000416363656C65726174696F6EE5
:101D90002028756E6974732F7332293A20503C7075
:101DA00072696E745F616363656C3E20523C72655C
:101DB00074726163745F616363656C3E20543C744C
:101DC000726176656C5F616363656C3E0020204DD7
:101DD0003230312058004D6178696D756D20416356
:101DE00063656C65726174696F6E2028756E6974C5
:101DF000732F7332293A0020450020590020204DCE
:101E00003230332058004D6178696D756D206665FC
:101E1000656472617465732028756E6974732F73BD
:101E2000293A0053746570732070657220756E696D
:101E3000743A0020440020204D32303020530020DE
:101E400044697361626C65640A0046696C616D6522
:101E50006E742073657474696E67733A0020286D20
:101E60006D29002020473231202020203B20556E54
:101E700069747320696E206D6D000000FA430000E4
:101E8000FA430000A0400000C8420000A042000049
:101E9000A0420000C8430000C843B80B0000B80BC4
:101EA00000006400000010270000204D3932205847
:101EB00000252900257C00203B2043757272656E49
:101EC00074205A00203B20456E6400203B20537450
:101ED000617274004772616469656E74204D69783F
:101EE0002000203B20657874727564657273002051
:101EF0003B204865696768740052616E646F6D20AD
:101F00004D69782000526573756D65207265717535
:101F100069726573204C43442E0A004D32342053BD
:101F2000256C642054256C64004739322E392045D5
:101F3000257300473120462564004731205825731A
:101F40002059257320463330303000473120452555
:101F5000642046323030004D343230205325692021
:101F60005A2573004D31303620502569205325699C
:101F7000005425692053004D313039205325690024
:101F80004D32303020442573004732385230585992
:101F9000004739322E39204530205A300A47315A0D
:101FA0002573004D3130392053313830004D3139EF
:101FB0003020532569004D343230205330205A30C0
:101FC0000020496E76616C6964206578747275646E
:101FD00065722000205A3A200020593A20004265BC
:101FE0006420583A200050726F62696E6720466123
:101FF000696C65640A0000002200250028002B009F
:102000002E003100340002010000050108010B011F
:1020100005050505070508080808020202020A0A64
:102020000808040404040101010101010101030382
:10203000030303030303040707070C0C0C0C0C0C2D
:102040000C0C0202020206060606060606060B0B2A
:102050000B0B0B0B0B0B010210202008081020406B
:10206000102040800201020108040201010204085C
:1020700010204080804020100804020180040201EA
:102080008040201008040201080402010102040833
:1020900010204080010204081020408000000A0B3C
:1020A00002090C0D0E0807030401000000000000E7
:1020B0000000000000000000000000000000000020
:1020C00000000000000000001211100000000000DD
:1020D0000000000000000000000000000000000000
:1020E00000004361703A003F5A206F7574206F669C
:1020F0002072616E67652028003F59206F7574203B
:102100006F662072616E676520282D003F58206F32
:102110007574206F662072616E676520282D0050EF
:10212000726F6265204F6666736574205800486F51
:102130006D652025732573257320466972737400BD
:10214000220A00556E6B6E6F776E20636F6D6D6146
:102150006E643A2022005ABB3CBB11241FBECFEF55
:10216000D1E2DEBFCDBF00E00CBF13E0A0E0B2E0E3
:10217000E0E4F5E901E00BBF02C007900D92A83042
:10218000B107D9F724E1A8E0B3E001C01D92A13E58
:10219000B207E1F710E1CCEAD0E100E006C02197F8
:1021A0000109802FFE010E9402C8CB3AD10780E0CE
:1021B0000807A9F70E948BB20C948ECA0C940000F9
:1021C0002F923F924F925F926F927F928F929F9247
:1021D000AF92BF92CF92DF92EF92FF920F931F9335
:1021E000CF93DF93CDB7DEB7E4970FB6F894DEBF99
:1021F0000FBECDBF8CAB809195138D3409F458C4BC
:10220000843511F40C945A22873411F00C948522F1
:1022100080919313909194138B31910509F45EC1D1
:10222000CCF48430910509F415C11CF4029788F1AF
:102230003BC48B30910509F44CC18531910511F4F3
:102240000C9487220A9709F02FC481E00E94366817
:102250000C9487228A32910509F446C354F48D31D7
:10226000910509F4F4C10CF4E2C14E9709F40DC2D2
:102270001BC48B35910509F483C28C35910509F493
:1022800084C28A35910509F00FC410929F130C94F3
:1022900087228091420C813011F00C9487221982A0
:1022A0001A821B821C829E012F5F3F4F490177E0FB
:1022B000C72E7DE0D72EEBE4EE2EE2E0FE2EF6EE0A
:1022C000AF2EF2E0BF2E10E088E5810F0E94B952D8
:1022D000D4018D934D01882311F10E945F502B0191
:1022E0003C01812F0E9401A3882351F0F701208136
:1022F000318142815381C301B2010E940BC809C0E0
:10230000D5012D913D914D915C91C301B2010E9487
:102310000AC8F60160837183828393830AC0F70140
:1023200080819181A281B381F60180839183A28310
:10233000B3831F5FF4E0CF0ED11C24E0E20EF11C4A
:1023400034E0A30EB11C133009F0BECF85E40E9427
:10235000B9528C83882301F10E945F506B017C018C
:1023600083E00E9401A3882371F0209157023091ED
:1023700058024091590250915A02C701B6010E9479
:102380000BC86B017C01C092130DD092140DE0922A
:10239000150DF092160D10C08091570290915802C1
:1023A000A0915902B0915A028093130D9093140D8D
:1023B000A093150DB093160D8091901082FF0CC064
:1023C0008C81882349F08981811103C08A81882307
:1023D00019F080E00E9471B040E050E0BA0186E45C
:1023E0000E94E14520E030E0A9010E948EC9181644
:1023F00084F40E945F5020E030E040E752E40E9405
:102400008EC86093850270938602809387029093B2
:1024100088028091A512882311F40C94BF2285E4D0
:102420000E949650882311F40C94BF2288E50E94E4
:10243000965081110C94BF2289E50E94965081111B
:102440000C94BF228AE50E94965081110C94BF2201
:102450000C948D2280E50E94B952882379F08091F6
:10246000110390911203009749F04AE050E060E0B8
:1024700070E00E946EBF6B017C0103C0C12CD12CA7
:10248000760183E50E94B952882361F00E945F5073
:1024900020E030E04AE754E40E9487C10E9407C967
:1024A0006B017C010E947B7E0E948CABC60ED71E06
:1024B000E81EF91E0E948CABDC01CB018C199D0932
:1024C000AE09BF09B7FD02C00C9487220E94D02735
:1024D000F1CF80E00E9436680C9487220E9433B2CC
:1024E00081110C9487228CE0EDE8F2E0DE01119678
:1024F00001900D928A95E1F780E50E94B9528823F8
:1025000019F00E94275001C060E080E090E0A8EC44
:10251000B2E48CA39DA3AEA3BFA380E090E0A0EAA9
:10252000B0E488A399A3AAA3BBA3613019F06230D9
:1025300039F029C0BE01605E7F4FCE01099658C0B8
:1025400029853A854B855C856091530270915402D0
:1025500080915502909156020E940BC86B017C013C
:1025600020E030E048EC53E40E9421C187FD06C022
:10257000C12CD12C68ECE62E63E4F62ECC8EDD8ED9
:10258000EE8EFF8E30C020E030E040E050E46091FD
:1025900053027091540280915502909156020E940C
:1025A0000BC87B018C0120E030E048EC53E40E9432
:1025B0008EC9181624F4E12CF12C08EC13E4A9843C
:1025C000BA84CB84DC849701A801B501C6010E94BE
:1025D0008EC9181614F475018601C701D8018C8FB5
:1025E0009D8FAE8FBF8FBE01605E7F4FCE014C9638
:1025F0000E942D76E0905302F09054020091550213
:102600001091560220914F02309150024091510298
:102610005091520269817A818B819C81DE0194966E
:102620006D010E946C750E9465770C9487228091E1
:102630009A138770873011F00C94EA2260E08FE4DF
:102640000E94E15281110C9487220C94EA220E948C
:102650008CAB6093000E7093010E8093020E9093EA
:10266000030E0E9433B281110C9487228091CC1406
:10267000882311F40C94592360E08FE40E94E15206
:1026800081110C9487220C9459232091611330916D
:102690006213409163135091641360914B027091E7
:1026A0004C0280914D0290914E020E940BC8AB01EA
:1026B000BC0188E50E94E14569837A838B839C8312
:1026C0002091651330916613409167135091681300
:1026D00060914F027091500280915102909152028C
:1026E0000E940BC8AB01BC0189E50E94E1456D83E6
:1026F0007E838F839887BE016B5F7F4FCE010196EB
:102700000E94744E882311F40C94872280E00E946A
:102710003F6B0E944D7561E085E40E94E15201E04B
:1027200021E0482FBE016B5F7F4FCE0101960E94D2
:102730009CA86B017C019B01AC010E940CCA811119
:1027400019C049815A816B817C818EED9FE10E9485
:10275000996E4D815E816F81788589ED9FE10E9440
:10276000996EB701A60184ED9FE10E94996E8AE0FF
:102770000E94A4260E9434750E9465770C948722DB
:102780008FE080939F130C9487228091921388236B
:1027900051F1893009F0A4C04DEDA42E42E0B42ED1
:1027A0005BE4E52E52E0F52ED12C00E010E0F501BF
:1027B00081915F010E94B952882371F00E945F509D
:1027C000D7016D937D938D939C931397133011F4E0
:1027D00001E002C0DD24D3941F5FB4E0EB0EF11CD6
:1027E000143029F772C09DED292E92E0392E2CEC81
:1027F000E22E23E1F22EEBE4F2E0F9A7E8A736EEB1
:10280000C32E32E0D32E00E010E0D1018D911D01E6
:102810000E94B952882309F448C00E945F502B01DE
:102820003C01133049F0F60120813181428153810E
:102830000E940AC82B013C01A8A5B9A52D913D9184
:102840004D915C91C301B2010E940AC84B015C0129
:102850002DEB37E346E855EB0E948EC987FD0AC091
:102860002DEB37E346E855E3C501B4010E9421C1D1
:102870001816DCF4133051F440925702509258026B
:102880006092590270925A0201E00FC0A5019401B2
:10289000F70160817181828193810E940BC8D70109
:1028A0006D937D938D939C9313971F5FB4E0EB0E14
:1028B000F11CE8A5F9A53496F9A7E8A7F4E0CF0E36
:1028C000D11C143009F0A1CF05C0DD2019F00E9401
:1028D000637706C0002321F087E592E00E948B7E9B
:1028E0000E9465770C9487228091420C813011F010
:1028F0000C94872289E40E94B952E82E882321F0A3
:102900000E945B50082F01C000E08AE40E94B95287
:10291000F82E882321F00E945B50182F01C010E090
:10292000EE2011F0063020F4FF2041F0163030F098
:1029300089E093E00E94E96D0C94872280E1EBE44A
:10294000F2E0A7E0BDE001900D928A95E1F7EE205C
:1029500019F1602F000F770B880B990B0E9428C18B
:1029600020919D1230919E1240919F125091A01281
:102970000E9487C12091F70D3091F80D4091F90D1B
:102980005091FA0D0E940BC86093070D7093080DCB
:102990008093090D90930A0DFF2019F1612F110FFB
:1029A000770B880B990B0E9428C12091A1123091BE
:1029B000A2124091A3125091A4120E9487C12091AB
:1029C000FB0D3091FC0D4091FD0D5091FE0D0E94CC
:1029D0000BC860930B0D70930C0D80930D0D9093AD
:1029E0000E0D60E080E50E94E1528823C1F1EE20E7
:1029F000D1F0209161133091621340916313509193
:102A000064136091070D7091080D8091090D9091EC
:102A10000A0D0E940AC86093070D7093080D8093F9
:102A2000090D90930A0DFF20D1F02091651330918C
:102A30006613409167135091681360910B0D70916C
:102A40000C0D80910D0D90910E0D0E940AC860939F
:102A50000B0D70930C0D80930D0D90930E0D40E0B7
:102A600050E0BA0186E40E94E1456B017C0120E060
:102A700030E0A9010E948EC918164CF420E030E025
:102A800040E752E4C701B6010E948EC803C060E06F
:102A900070E0CB0169837A838B839C83CE0101969E
:102AA0000E944C760C9487220E9425B20C948722B7
:102AB00080919313909194138B39910509F465C516
:102AC0000CF04BC18335910509F496C50CF063C039
:102AD0008B31910509F416C354F58631910509F43B
:102AE0008AC2B4F48231910509F48DC52CF4419762
:102AF00009F432C20C9457228431910509F44AC278
:102B0000459711F00C9457220E9438840C94872228
:102B10008831910509F48EC20CF477C28931910590
:102B200009F4C3C24A9709F4DFC20C9457228032D9
:102B3000910509F459C37CF48D31910509F43DC325
:102B40000CF433C38E31910509F43EC34F9709F459
:102B500074C30C9457228D34910509F42EC454F497
:102B60008B34910509F410C48C34910509F410C418
:102B70000C9457228135910509F42DC582359105B4
:102B800011F00C94572280919F138F7D8061809368
:102B90009F130C9487228E36910509F46EC444F578
:102BA0008936910509F427C484F48535910509F423
:102BB00060C50CF428C58C35910509F47DC58836AF
:102BC000910509F4FEC30C9457228B36910509F444
:102BD00049C40CF423C48C36910509F4A6C48D367F
:102BE000910511F00C9457220E94C84B0C94872237
:102BF0008537910511F40C9487220CF092C0803730
:102C0000910509F496C40CF44BC48237910509F47C
:102C1000F3C58337910511F00C94572284E195E0B8
:102C20000E94E96D60E084E095E00E94B0AE60E053
:102C30008FEE94E00E94B0AE61E088EE94E00E94D6
:102C4000B0AE61E08DED94E00E94B0AE61E08DEC3D
:102C500094E00E94B0AE60E084EC94E00E94B0AEDC
:102C600061E08AEB94E00E94B0AE61E080EB94E01A
:102C70000E94B0AE60E089EA94E00E94B0AE61E0EC
:102C800081EA94E00E94B0AE61E083E994E00E94A2
:102C9000B0AE60E085E894E00E94B0AE60E086E708
:102CA00094E00E94B0AE60E088E694E00E94B0AE8E
:102CB00060E082E594E00E94B0AE60E081E494E0E0
:102CC0000E94B0AE60E082E394E00E94B0AE61E0AA
:102CD0008BE294E00E94B0AE60E086E194E00E9456
:102CE000B0AE60E088E094E00E94B0AE61E085EFB5
:102CF00093E00E94B0AE60E088EE93E00E94B0AE38
:102D000060E083EE93E00E94B0AE61E086ED93E078
:102D10000E94B0AE60E082EC93E00E94B0AE0C94F2
:102D200087228837910509F4A8C56CF48637910588
:102D300009F469C58737910511F00C9457220E9458
:102D400016450C9487228937910509F49EC58C3865
:102D5000910509F4F9C30C945722803921E09207B8
:102D600011F40C943B200CF06DC08D3C910509F4DE
:102D7000AEC694F58E3B910509F404C4C4F4843ABC
:102D8000910509F4BCC534F4833A910509F484C56E
:102D90000C945722863A910509F4C0C5873A9105EB
:102DA00011F00C9457220E9484A50C948722893C30
:102DB000910509F4FBC534F4883C910509F4B1C5CB
:102DC0000C9457228B3C910509F431C68C3C91053B
:102DD00009F44CC60C945722833D910509F43DC774
:102DE00084F48F3C910509F49DC60CF480C6803DA7
:102DF000910509F4DBC6813D910509F421C70C94C6
:102E000057228232A1E09A0711F40C94571F5CF408
:102E10008C3D910509F4CEC78D3D910511F40C94BC
:102E2000011F0C9457228D32E1E09E0711F40C949F
:102E3000BB1F8F32914011F00C9457220E94F8452D
:102E40000C948722853F21E0920711F40C94C52150
:102E5000CCF5843AA1E09A0711F40C944920ACF423
:102E60008239E1E09E0711F40C94442014F40C9490
:102E70003E208A3921E0920709F462C38D399140DE
:102E800011F40C941A220C945722893AA1E09A0763
:102E900011F40C94C0203CF4853A914011F40C9448
:102EA0004C200C9457228C3AF1E09F0711F40C94BB
:102EB0006621843F914011F00C9457220E94C47700
:102EC0000C9487228A3932E0930711F40C94F22192
:102ED000B4F4873FB1E09B0711F40C94CB2114F4B8
:102EE0000C94C821883FF1E09F0711F40C94D42181
:102EF0008C30924011F40C94E5210C945722873EBB
:102F000033E0930711F40C940E22CCF48335B3E034
:102F10009B0711F40C940B22803A934011F00C940F
:102F200057222091901330919113909190109260BC
:102F300090939010C9010E9482810C948722883E50
:102F4000F3E09F0711F40C943422893E934011F46E
:102F50000C9437220C9457228091961384FF02C060
:102F60000C945C238091981387FF02C00C945C231F
:102F700080919913837011F00C945C235F988A9868
:102F80008091080181708093060112980E94442567
:102F90000C9487228091901083FF25C081E393E0F9
:102FA0000E94E96D8091901083FF17C08EEA90E136
:102FB0000E94F43D8BE1EEEAF0E1DE011196019012
:102FC0000D928A95E1F760E070E0CE0101960E94D3
:102FD0008085CE0101960E94635882E293E00E94B0
:102FE000E96D0C9487220E94CE6E82E493E00E94E9
:102FF000E96D0C9487220E94028180919010877F56
:103000008062809390100C948722E0919013F0914D
:1030100091138081882329F0803209F4108231963F
:10302000F8CF60E080919013909191130E94C68137
:103030000C94872283E50E94B952882321F00E94D4
:1030400027500E94634D84E50E94B9528823A9F05D
:103050000E9427506B017C010E948D45C0929D0A01
:10306000D0929E0AE0929F0AF092A00ACD28CE2824
:10307000CF2819F081E08093A50A0E947525882346
:1030800011F40C9487220E9411810E94A84581E5C9
:1030900094E10E94B8801092110A1092120A1092C4
:1030A000130A1092140A0C9487228091901082FFC8
:1030B00003C08B7F8093901081E00E9471B080915B
:1030C000A50A813011F00C94872282E08093A50A32
:1030D0000E948CAB6093A10A7093A20A8093A30A0A
:1030E0009093A40A0C9487228091901083FD02C0D3
:1030F0000C94872283E50E94B95281110C947A23A3
:103100000C94872283E40E949650882319F186E567
:1031100093E00E94E96D8091F511882391F0BE0142
:103120006F5F7F4F82EF91E10E94BB3C8E010F5F8A
:103130001F4FD8018D918D01882339F00E94A4265C
:10314000F8CF8CE493E00E94E96D8AE00E94A42607
:103150000C9487228091901082FF21C085E693E035
:103160000E94E96D60918C1070918D1080918E108D
:1031700090918F104AE00E94AB268FE20E94A42615
:10318000609188107091891080918A1090918B10B5
:103190004AE00E94AB260E94A9270C94872287E769
:1031A00093E00E94E96D0C94872280919013909196
:1031B00091130E9482810C948722809190108E7FBF
:1031C000809390100C9487228091901083FD02C010
:1031D0000C9487220E940EB28091901390919113CB
:1031E0000E94CD830C9487228091901082FD0E94D2
:1031F0007B7E8091901083FD02C00C94872260E05A
:1032000080E50E94E152182F682F809190139091D1
:1032100091130E94C68183E50E94B952882321F050
:103220000E9427500E94634D0E94118111110C943D
:1032300087220E94A8450C9487220E9459457B0151
:103240008C0120E831E541E050E00E9477C7C901D8
:103250006DE671E00E94DAC74B015C01C801B7015D
:1032600020E13EE040E050E00E9477C7CA01B9018A
:1032700028E130E040E050E00E9477C7762E672ECC
:10328000C62ED72E8CE3282E312C412C512CC80170
:10329000B701A20191010E9477C7F62EE72ECA015D
:1032A000B901A20191010E9477C7CB018E010F5F86
:1032B0001F4F8114910499F0EF92FF927F936F93C7
:1032C0006F927F92BF92AF929F928F9288E893E025
:1032D0009F938F931F930F930E94F2C013C0A1146A
:1032E000B104B1F0EF92FF927F936F936F927F9250
:1032F000BF92AF928CE893E09F938F931F930F93AD
:103300000E94F2C00FB6F894DEBF0FBECDBF30C032
:10331000CD2879F0EF92FF927F936F936F927F9217
:1033200080E993E09F938F931F930F930E94F2C0C5
:10333000E9CF892B69F0EF92FF927F936F9384E935
:1033400093E09F938F931F930F930E94F2C0DACF65
:10335000EF92FF9288E993E09F938F931F930F93CF
:103360000E94F2C00F900F900F900F900F900F904F
:103370000E94CE6EB8018CE993E00E94B76E8AE09D
:103380000E94A4260C9487220E94A8450C948722B0
:103390008091A50A813011F00C94872282E08093FD
:1033A000A50A0E948CAB6093A10A7093A20A809335
:1033B000A30A9093A40A0C9487220E94CC450C94F3
:1033C000872280919E1383FF02C00C94872283E59D
:1033D0000E94B952882311F40C9487220E945F50F6
:1033E0000E9400C9CB010E94074161E080E00E9479
:1033F00041430C9487220E94D8A2182F87FF02C055
:103400000C9401258CEB99E00E94E96D812F0E94BC
:1034100048418AE00E94A4260C94012560E080E5E2
:103420000E94D55281110C94872281E40E9496500B
:10343000882321F06091A313062F02C00FEF10E044
:1034400083E50E94B952882349F00E9427508B01DE
:103450006F3F710519F010F00FEF10E00093A31308
:103460000C94872260E080E50E94D55281110C9473
:1034700087221092A3130C9487228EE40E94B952E3
:10348000882311F40C9487220E9427506093990A94
:1034900070939A0A80939B0A90939C0A0C948722BB
:1034A00083E50E949650882331F060E083E50E9416
:1034B000D55280939E130E94CE6E8DEA93E00E94B7
:1034C000E96D80919E13882369F1B3E9EB2EB7E093
:1034D000FB2E00E010E020E080919E1390E0A0E041
:1034E000B0E0002E04C0B695A795979587950A94ED
:1034F000D2F780FF0EC0DD24D394D20E222319F020
:103500008CE20E94A426F701859194910E94E96DB6
:103510002D2D0F5F1F4FB2E0EB0EF11C0530110592
:10352000D9F613CE89EA93E00ECE10921A020C94CB
:10353000872241E060E070E084EB93E00E948925FF
:103540000E9452250C94872280919E1383FDDFC731
:1035500083E50E94B952882309F4D9C70E945F50BD
:103560000E9400C96837710514F068E770E0709335
:10357000AD136093AC130E94889761E080E00E94D5
:103580004143C5C70E94234AC2C783E50E94B9527E
:10359000882309F4BCC70E943750182F90E0CD97BC
:1035A0000CF01CE310930C030E948CAB6B017C01AC
:1035B000212F30E0A8EEB3E00E94CBC7C60ED71E85
:1035C000E81EF91EC0920803D0920903E0920A0394
:1035D000F0920B039CC70E94C0970E94CC450E94AA
:1035E000F47F0E94832568EE73E080E090E00E9403
:1035F000C56D0E9486258BC780919F138F7E806248
:1036000080939F1384C783E50E94B9528823E9F011
:103610000E948CAB6093000E7093010E8093020E9B
:103620009093030E0E945F5020E030E04AE754E49C
:103630000E9487C10E9407C9609300027093010233
:10364000809302029093030262C78091961384FFD5
:1036500002C00C947F238091981387FF02C00C94C2
:103660007F2380919913837011F00C947F230C9425
:10367000B12383E50E949650882309F448C70E942D
:103680008CAB6093000E7093010E8093020E9093AA
:10369000030E0E945F5020E030E04AE754E40E94AD
:1036A00087C10E9407C960930D0370930E03809336
:1036B0000F03909310032BC70E94D8A287FD27C742
:1036C0009091961394FD04C09091981397FF0AC0AF
:1036D000FDEDCF2EF2E0DF2EA6EBEA2EA9E0FA2ECA
:1036E00010E009C090919913937091F7682F81E0D1
:1036F0000E9454A70CC7F60181916F010E94B95234
:10370000882309F46FC0133009F063C00E945F5032
:103710004B015C0120E030E040EA51E40E9421C10D
:1037200087FF4EC0A50194016091D6097091D70919
:103730008091D8099091D9090E948EC82B013C0133
:103740009B01AC01609176047091770480917804BC
:10375000909179040E9487C16093760470937704F6
:103760008093780490937904A30192016091E60913
:103770007091E7098091E8099091E9090E9487C159
:103780006093E6097093E7098093E8099093E9094B
:1037900060918604709187048091880490918904D7
:1037A0000E9426C1A30192010E9487C10E9407C9FD
:1037B00060938604709387048093880490938904AF
:1037C0008092D6099092D709A092D809B092D909CF
:1037D00009C00E945F50D70154966D937D938D93DD
:1037E0009C9357971F5FB4E0EB0EF11C143009F067
:1037F00082CF0E94B57D8BC60E94EB9681E790E157
:103800000E94F19C84C6009190131091911394E052
:10381000F12C40E0915021F1F8018081282F2B7F7D
:10382000213421F421812133D9F407C08035C1F43A
:10383000818180538A3048F013C0813421F085346F
:1038400021F441E002C0FF24F39498012E5F3F4F22
:1038500089012F5F3F4FF80180818032C9F3DACFB1
:1038600041110E94CE6EFF2021F08BEE95E00E9468
:10387000E96DC8010E94AF274AC681E08093AE0A75
:103880008093AD0A0E944A4542C61092AE0A109239
:10389000AD0A0E944A453BC660E070E083E50E94A5
:1038A000C6527C018330910524F540E050E0BA0116
:1038B00080E50E94E1454B015C018701112720E072
:1038C00030E0A9010E948EC918161CF0812C912CA1
:1038D0005401000F111F000F111FF801EF54F54F95
:1038E00080829182A282B38222E0E216F10499F0F2
:1038F0000EC6039709F40BC60E94556608C66FEF03
:103900007FEF83E50E94C6528031910510F08091CF
:10391000CB130E9431650E946163F9C50E9474A6B1
:10392000F6C50E94D8A2182F87FDF1C50091CA13D1
:1039300084E40E94B952882309F416C70E945F509C
:103940006B017C0120E030E0A9010E9421C18823A5
:1039500039F184E01802F0011124EA53FC4EC082D0
:10396000D182E282F38220E030E0A9016091C613A7
:103970007091C7138091C8139091C9130E9421C1FF
:1039800081110CC080E090E0A0EEBFE38093C613ED
:103990009093C713A093C813B093C91301E0E4C672
:1039A00080E08093CA130E94ED6EB1C50E94D8A238
:1039B00087FDADC56DEDC62E62E0D62E76EBE72E07
:1039C00079E0F72E10E0D6018D916D010E9496509E
:1039D000882331F10E945F506C8F7D8F8E8F9F8F77
:1039E00080E1E9E9F2E0DE01119601900D928A95FD
:1039F000E1F79E012F5F3F4F4FEE55E0612FCE0163
:103A00004C960E94E07C6C8D7D8D8E8D9F8D0E94EA
:103A100007C9F70160837183828393830E946E7D5F
:103A20001F5FF4E0EF0EF11C143069F670C50E94C0
:103A3000D8A287FD6CC55DEDE52E52E0F52E06EBB4
:103A400019E0D7018D917D010E949650882339F0AD
:103A50000E945F50F80164A375A386A397A30C5F2F
:103A60001F4FF9E0063C1F0761F751C5809197137E
:103A700087FD7FC6809198138E7009F07AC64091B9
:103A8000EA095091EB096091EC097091ED098CEF16
:103A900095E00E94996E4091EE095091EF09609176
:103AA000F0097091F1098CE39BE10E94996E4091BD
:103AB000F2095091F3096091F4097091F50988E7D2
:103AC0009DE10E94996E8AE00E94A42620C5809103
:103AD0009613827109F093C6809198138C7809F03F
:103AE0008EC680919913837009F089C610C548ED80
:103AF000E42E43E1F42E18E5812F0E94965088238E
:103B000041F00E945F50D7016D937D938D939C93FC
:103B100013971F5FB4E0EB0EF11C1B3569F70E9491
:103B20006577F5C483E50E949650882351F00E9482
:103B30005F506093A6127093A7128093A81290937F
:103B4000A91286E40E949650882381F00E945F505B
:103B500020E030E040E752E40E948EC86093AA1251
:103B60007093AB128093AC129093AD128AE50E94D1
:103B70009650882351F00E945F506093AE1270936C
:103B8000AF128093B0129093B11287E50E949650C5
:103B9000882309F4BCC40E945F506093BA127093EA
:103BA000BB128093BC129093BD12B1C483E50E94F6
:103BB0009650882351F00E945F506093B212709328
:103BC000B3128093B4129093B51286E40E9496507B
:103BD000882381F00E945F5020E030E040E752E40B
:103BE0000E948EC86093B6127093B7128093B81279
:103BF0009093B91282E50E949650882381F00E942A
:103C00005F5020E030E040E752E40E948EC86093AD
:103C1000C2127093C3128093C4129093C51287E5A9
:103C20000E949650882309F472C40E945F506093EA
:103C3000BE127093BF128093C0129093C11267C4DA
:103C400083E50E949650882309F461C40E944B507A
:103C50008093A51210922D0D5AC420E030E0A901E6
:103C600060912F0270913002809131029091320266
:103C70000E940BC82B013C0120E030E0A9016091BB
:103C800033027091340280913502909136020E9485
:103C90000BC84B015C0120E030E0A90160913702C4
:103CA000709138028091390290913A020E940BC8BB
:103CB0006B017C0120E030E0A90160913B02709132
:103CC0003C0280913D0290913E020E940BC868A781
:103CD00079A78AA79BA720E030E0A90160913F0265
:103CE0007091400280914102909142020E940BC863
:103CF0006CA77DA78EA79FA720E030E0A901609167
:103D000043027091440280914502909146020E94C4
:103D10000BC868AB79AB8AAB9BAB0E94CE6E8CE1D3
:103D200096E00E94E96D83E50E949650882321F079
:103D30000E944B5080932D0280912D020E94836E31
:103D400084E196E00E94E96DB301A20183ED9DE15B
:103D50000E94996EB501A4018AEF9DE10E94996EBF
:103D6000B701A60180E496E00E94996E80EB96E090
:103D70000E94E96D8CE096E00E94E96D48A559A586
:103D80006AA57BA583ED9DE10E94996E4CA55DA57A
:103D90006EA57FA58AEF9DE10E94996E48A959A959
:103DA0006AA97BA980E496E00E94996E8AE00E944D
:103DB000A426ADC383E50E94B952882331F00E9446
:103DC0005B5090932A0280932902809196139091E0
:103DD0009713A0919813B0919913892B8A2B8B2B51
:103DE00009F095C36091290270912A028CE296E055
:103DF0000E94AA6E85E20E94A4268AE00E94A42660
:103E000086C30E94D8A2F82E87FD81C383E50E9455
:103E1000B9520F2D0F2C000C110B882369F10E9451
:103E20005B50F801EE0FFF1FE55DFD4F918380832E
:103E3000000F111F000F111FF801EB5FFD4F7F01F5
:103E4000BC01990F880B990B0E9428C12AE037ED1D
:103E500043E25CE30E9487C1F801E95EF24F2081F2
:103E60003181428153810E9487C1D7016D937D9337
:103E70008D939C9313974BC30E94CE6E85E40E9452
:103E8000A42680E38F0D0E94A426000F111FF801C5
:103E9000E55DFD4F6081718180E396E00E94AA6E2E
:103EA00085E20E94A4268AE00E94A42630C38AE507
:103EB0000E94B952811105C083E50E94B95288233E
:103EC000A1F10E945F5020E030E040E050EC0E9401
:103ED00021C187FD07C50E945F5020E030E040E02F
:103EE00050E40E948EC918160CF4F6C40E945F506C
:103EF0006B017C012091D2093091D3094091D40902
:103F00005091D509C701B6010E9487C10E9400C91E
:103F1000CB010E94449780E50E949650882309F4C3
:103F2000E7C40E944B508111E3C48091981387FD30
:103F300005C580919913837009F000C50E94CE6E6B
:103F40004091691350916A1360916B1370916C13D7
:103F500083E496E00E94996E8AE00E94A426609114
:103F6000040E7091050E88E396E00E94AA6E8AE026
:103F70000E94A426CCC260E085E40E94D552811143
:103F800073C080E50E949650882351F00E945F50D4
:103F90006093BA137093BB138093BC139093BD13BB
:103FA00089E40E949650882381F00E945F502CEA99
:103FB00035EC47E25EE30E9487C16093BE137093C5
:103FC000BF138093C0139093C11384E40E94965052
:103FD000882381F00E945F502CEA35EC47E25EE3D3
:103FE0000E948EC86093C2137093C3138093C4134E
:103FF0009093C5130E94CE6E4091BA135091BB139B
:104000006091BC137091BD138AE596E00E94996E91
:104010002CEA35EC47E25EE36091BE137091BF136A
:104020008091C0139091C1130E948EC8AB01BC0156
:1040300086E596E00E94996E2CEA35EC47E25EE355
:104040006091C2137091C3138091C4139091C513F2
:104050000E9487C1AB01BC0182E596E00E94996E87
:104060008AE00E94A42653C20E94CA6E8EE596E0A2
:104070000E94E96D4CC20E947B7E49C281E00E9491
:104080003B7C0E94657743C20E94714E0E94657717
:104090003EC20E94E4503BC26FEF7FEF89E40E9472
:1040A000C652082F6FEF7FEF8AE40E94C652182F86
:1040B0008AE50E94B952811108C081E50E94B95277
:1040C000D82E882309F440C401C0D12CC02E81E031
:1040D000800F873008F04DC0912E81E0810F87302E
:1040E00008F047C00E945F502B013C01F02E07FDF5
:1040F000F12C07FF02C0A5E0CA2E812E17FD812CEE
:1041000017FF02C0F5E09F2EE6E03E2ECF1408F424
:10411000FEC1E82C3F9C500111249E1440F10E2D4D
:1041200010E0DD2071F0F501E00FF11FEE0FFF1F31
:10413000EE0FFF1FE553FD4E2081318142815381F7
:1041400003C020E030E0A9010A0D1B1D000F111F64
:10415000000F111F05531D4EC301B2010E940BC871
:10416000F8016083718382839383E394D6CFF394C1
:10417000CDCF0E94CA6E89E093E00E94E96DC7C16D
:104180003CE4E32E34E0F32E670118E501E0812FD3
:104190000E949650882391F00E947B7E80911103AB
:1041A00090911203892B09F4D6C30E945F50D60167
:1041B0006D937D938D939C93139700E01F5FB4E004
:1041C000CB0ED11C1B3519F786E40E94965088232C
:1041D00071F10E947B7E0E945F506B017C0120E0A8
:1041E00030E040E85FE30E948EC918166CF020E0D2
:1041F00030E0A901C701B6010E9421C187FF0AC0B2
:10420000C12CD12C760106C0C12CD12C20E8E22E85
:104210002FE3F22E20E030E04FE753E4C701B60170
:104220000E9487C10E9407C96093580470C100238F
:1042300009F46DC18CEF96E00E94E96D80915804FD
:10424000811104C08FE29DE00E94E96D83EF96E04A
:104250000E94E96D80915804E4E68E9FC00111240C
:1042600081589F4F6FEF70E00E94EEC770E080E0D2
:1042700090E00E9426C120E030E048EC52E40E9429
:104280008EC8AB01BC018FEC96E00E94996E82EB68
:1042900096E00E94E96D80E996E00E94E96D18E5DC
:1042A00080E20E94A426812F0E94A426D7016D914E
:1042B0007D918D919D917D0142E00E9434278AE09D
:1042C0000E94A4261F5F1B3559F721C10E9433B2FB
:1042D00081111DC18FE7E82E87E1F82EEBE4F2E0B3
:1042E000F9A7E8A78E010F5F1F4F9CE7C92E97E142
:1042F000D92E1801F7016591759185919491A8A522
:10430000B9A58D909D90AD90BD90B9A7A8A7A50126
:1043100094010E940AC82B013C01F1016083718362
:104320008283938320E030E040EA51EC0E948EC902
:1043300087FD0AC020E030E040EA51E4C301B20149
:104340000E9421C118162CF4F601849118160CF461
:1043500006C3D1018D909D90AD90BD901D0120E0D0
:1043600030E040EA51ECC501B4010E948EC987FDDE
:1043700000C320E030E040EA51E4C501B4010E94EE
:1043800021C118160CF0FCC2F4C20E94E09EBFC00E
:104390000E94759DBCC061E083E50E94E15291E0FE
:1043A00089270E94F69EB3C081E0809398120E94F4
:1043B000D28C10929812882309F4A9C00E94CE6E64
:1043C0008FE297E00E94E96DA2C08091901082FF79
:1043D00004C08064809390109AC083FF98C00E94AC
:1043E0000EB295C08AE50E94B952882351F00E940E
:1043F0005F506093C7127093C8128093C912909354
:10440000CA128091981387FD82C08091991383709E
:1044100009F07DC0D5C20E94E2AB79C081E08093F3
:10442000420C60E083E50E94E152811170C00E945D
:10443000BC4D6DC083E50E949650882339F00E94E0
:104440004B508093C6120E94535861C00E94CE6E9A
:104450008EE597E00E94E96D8091C6120E94836EFE
:104460008AE00E94A42653C00E941AA350C00E9452
:1044700059456D3371058105910520F08FE897E06E
:104480000E94FAAE8BE897E00E94FAAE0E944B5869
:104490000E94BA5887E797E00E94E96D83E797E0AA
:1044A0009093BF0A8093BE0A0E94556630C00E9456
:1044B00025B22DC000919313109194130E948CABE0
:1044C0006093000E7093010E8093020E9093030E82
:1044D0000031A8F00E94CE6E84E50E94A426B801A7
:1044E0007727072E000C880B990B0E94182780E273
:1044F0000E94A4268EE596E00E94E96D08C0009314
:10450000CB13802F0E94336402C00E9425B2BCA945
:10451000B11177C20E94AC4D74C28090130D90907F
:10452000140DA090150DB090160D209157023091EA
:1045300058024091590250915A02C501B4010E949B
:104540000AC86B017C0120E030E0A9010E948EC9FD
:1045500087FF4AC22AE037ED43EA5CEBC701B601A8
:104560000E9421C118165CF0C701B601905820E0E6
:1045700030E040E251E40E9421C118161CF40E9470
:104580006A71C5CF11E020E030E0A901C701B60192
:104590000E948EC918160CF010E080912D0D811329
:1045A000EECF8092570290925802A0925902B09298
:1045B0005A0287E592E00E948B7E20E030E0A9015C
:1045C000C701B6010E9421C1881F8827881F0E9449
:1045D00036689DCF0E947B7E10922E02E090CC1414
:1045E00080E00E943F6B0E948CAB6093000E709342
:1045F000010E8093020E9093030E0E944D7581E090
:104600008093AE0A0E944A458AE50E949650F82E91
:1046100088E50E949650182F89E50E94965018133D
:1046200046C0F11611F0012F04C001E011E0FF2493
:10463000F39482E50E94B952882319F00E945F50DA
:1046400004C060E070E080E291E469837A838B8348
:104650009C8320E030E0A9010E9421C1882341F021
:10466000111102C0002371F0CE0101960E943AA8F8
:10467000112319F080E00E943FB9002319F081E076
:104680000E943FB9FF2029F00E94714E82E00E94F3
:104690003FB90E9463778091AD0A8093AE0A8E2D58
:1046A0000E943F6B0E9434750E94657730CF082FBF
:1046B000C0CF0E94F6522BCF88E50E949650811100
:1046C0005F9889E50E94965081118A988AE50E9438
:1046D0009650882331F08091080181708093060103
:1046E000129885E40E949650882309F410CF0E9406
:1046F00044250DCF0E9427500E94634D08CF0E9491
:104700007B7E88E50E949650882331F05F9A8091E5
:1047100060138E7F8093601389E50E9496508823F2
:1047200031F08A9A809160138D7F809360138AE5BF
:104730000E949650882361F08091080180958170D5
:1047400080930601129A809160138B7F809360138F
:1047500085E40E949650882309F4D9CE0E941A2538
:10476000D6CE0E94F47FD3CE602F83E50E94E15223
:1047700018C983E50E94B952882391F00E945F50C6
:104780006093EA097093EB098093EC099093ED092B
:104790006093F2097093F3098093F4099093F509FB
:1047A00080E50E94B952882351F00E945F506093C7
:1047B000EA097093EB098093EC099093ED0982E587
:1047C0000E94B952882351F00E945F506093EE0915
:1047D0007093EF098093F0099093F10984E50E94AA
:1047E000B952882309F493CE0E945F506093F20976
:1047F0007093F3098093F4099093F50988CE82E4CD
:104800000E9496508823C1F0809111039091120369
:10481000009739F04AE050E060E070E00E946EBF1F
:1048200003C060E070E0CB016093C6097093C709D4
:104830008093C8099093C90983E50E949650882304
:1048400051F00E945F506093F6097093F7098093CE
:10485000F8099093F90984E50E949650882351F055
:104860000E945F506093FA097093FB098093FC09E2
:104870009093FD0988E50E949650882339F00E94A4
:104880005F50AB01BC0180E00E9401BB89E50E9442
:104890009650882339F00E945F50AB01BC0181E043
:1048A0000E9401BB8AE50E949650882339F00E943D
:1048B0005F50AB01BC0182E00E9401BB85E40E9415
:1048C0009650882309F423CE0E945F50AB01BC01AF
:1048D00083E00E9401BB1BCEC12CD12CE12C10E443
:1048E000F12E08CBC12CD12CE12CB0ECFB2E02CB4D
:1048F000A70196016091691370916A1380916B13FF
:1049000090916C130E940BC86093691370936A13A3
:1049100080936B1390936C130E94CE6E4091691339
:1049200050916A1360916B1370916C1383E496E05D
:104930000E94996E8AE00E94A426F7CA82E50E942E
:1049400096508111FBCAE3CD0E94CA6E80E796E0C3
:104950000E94E96DDCCD60E070E0CB0128CCB7FAB5
:10496000B094B7F8B094F10180829182A282B382B0
:10497000F0CC0E94CA6E81E197E00E94E96DC7CD3C
:10498000F4E0EF0EF11C2FEFC21AD20A3BE8E31657
:1049900037E1F30609F0AECCE8EDF3E1CE010D9678
:1049A000D8014D915D916D917D918D014193519310
:1049B000619371938A179B0799F70E946577A7CD3A
:1049C0008FE397E00E94E96D4091C7125091C812A1
:1049D0006091C9127091CA128AE397E00E94996EA1
:1049E0008AE00E94A42693CD2AE037ED43EA5CE3F7
:1049F000C701B6010E948EC987FDC1CDC701B601AE
:104A0000B6CDE4960FB6F894DEBF0FBECDBFDF91F2
:104A1000CF911F910F91FF90EF90DF90CF90BF90BB
:104A2000AF909F908F907F906F905F904F903F904E
:104A30002F900895479A109AABE0B1E08C91809541
:104A40008078E9E0F1E08083109A8C9180958078FD
:104A5000808308955F9A809160138E7F80936013A6
:104A60008A9A809160138D7F8093601380910801F2
:104A70008095817080930601129A809160138B7FDC
:104A8000809360130C941A2547981098ABE0B1E01E
:104A90008C918078E9E0F1E0808310988C918078A7
:104AA000808308950E945D7190914C1090934B10FB
:104AB00090934A109093491094E69093481020EDFB
:104AC00033E03093B5092093B40981110E94A86D99
:104AD00081E0809357120E947B7E8EEF0E94B37616
:104AE0000C946377269A2E9A08959091901093FBD8
:104AF000882780F993FF06C081E09091F51191110C
:104B000001C080E008951092A3130895269A2E986C
:104B10000895C42F0E94C0970E94CA6E86E199E052
:104B20000E94E96D89EE93E030E6019729F0232F8A
:104B30002A950000E9F7F9CFF89489EE93E038EE72
:104B4000019729F0232F2A950000E9F7F9CF0E9459
:104B5000C097CC2319F00E942A2502C00E941A2572
:104B60000E948625A895FECF8F929F92AF92BF920A
:104B7000CF92DF92EF92FF920F93CF93DF931F922A
:104B8000CDB7DEB75C016B017A014901F501808187
:104B900091810E9451C78983002311F0F60180831F
:104BA000BE016F5F7F4FC4010E940A93F5018081AF
:104BB0009181019691838083FFEFCF1ADF0A81E014
:104BC000E81AF10819F780E00F90DF91CF910F916B
:104BD000FF90EF90DF90CF90BF90AF909F908F901D
:104BE00008957F928F929F92AF92BF92CF92DF9261
:104BF000EF92FF920F931F93CF93DF931F92CDB746
:104C0000DEB77C0159018B016B01C40ED51E0C155A
:104C10001D0559F1F70180809180F80171908F0195
:104C20007982C4010E9451C7781691F0672DC401A2
:104C30000E9459C7C4010E9451C79981891741F048
:104C40000E94CE6E8DE997E00E94E96D81E00EC072
:104C5000BE016F5F7F4FC5010E940A93F7018081FB
:104C60009181019691838083D2CF80E00F90DF9174
:104C7000CF911F910F91FF90EF90DF90CF90BF9059
:104C8000AF909F908F907F9008951F920F920FB6D4
:104C90000F9211240BB60F922F938F939F93EF9344
:104CA000FF9380915C0320915B03821791F0E82FC2
:104CB000F0E0E55AFC4F92818F5F8F779093D6009A
:104CC00080935C039091D00090649093D00028135F
:104CD00005C08091D1008F7D8093D100FF91EF912D
:104CE0009F918F912F910F900BBE0F900FBE0F9041
:104CF0001F9018951F920F920FB60F9211240BB6AA
:104D00000F922F938F939F93EF93FF939091D600E1
:104D100020911A03E091190381E08E0F8F732817F9
:104D200029F0F0E0E75EFC4F9283E82FE09319034F
:104D3000FF91EF919F918F912F910F900BBE0F904C
:104D40000FBE0F901F9018959091C00095FFFCCF5B
:104D50008093C60008958F929F92AF92BF92EF9278
:104D6000FF920F931F93CF93DF93CDB7DEB7A0973A
:104D70000FB6F894DEBF0FBECDBF6115710581057A
:104D8000910591F100E0842E912CA12CB12C102FD3
:104D9000EE24E394F12CEC0EFD1EE00EF11C07FD59
:104DA000FA94A50194010E9477C7F7016083B901C5
:104DB000CA010F5F611571058105910541F71F3F1C
:104DC00031F1E1E0F0E0EC0FFD1FE10FF11D17FD07
:104DD000FA9580818A3010F097E301C090E3890F43
:104DE0000E94A4261150EBCF80E3A0960FB6F89452
:104DF000DEBF0FBECDBFDF91CF911F910F91FF900E
:104E0000EF90BF90AF909F908F900C94A426A096A7
:104E10000FB6F894DEBF0FBECDBFDF91CF911F91CB
:104E20000F91FF90EF90BF90AF909F908F9008955B
:104E3000CF92DF92EF92FF926B017C0197FF0BC044
:104E40008DE20E94A426F094E094D094C094C11CFA
:104E5000D11CE11CF11C4AE0C701B601FF90EF90A4
:104E6000DF90CF900C94AB268F929F92AF92BF921F
:104E7000CF92DF92EF92FF92CF936B017C01B42E21
:104E800020E030E0A9010E9421C187FF07C08DE228
:104E90000E94A426F7FAF094F7F8F094C0E060E0DE
:104EA00070E080E09FE3CB1541F02DEC3CEC4CEC46
:104EB0005DE30E9487C1CF5FF6CF9B01AC01C701C4
:104EC000B6010E940BC86B017C010E9407C94B010F
:104ED0005C014AE00E94AB26CC2389F1C501B401F4
:104EE0000E9426C19B01AC01C701B6010E940AC8FD
:104EF0006B017C018EE20E94A42620E030E040E2BB
:104F000051E4C701B6010E9487C14B015C010E94B8
:104F100000C96B01770FEE08FF08C701B6010E94B8
:104F20001827C701B6010E9428C19B01AC01C50129
:104F3000B4010E940AC86B017C01C150F1F6CF9107
:104F4000FF90EF90DF90CF90BF90AF909F908F90A9
:104F500008958DE00E94A4268AE00C94A426CF93A5
:104F6000DF93EC018991882319F00E94A426FACFDF
:104F7000DF91CF910C94A9278091150A9091160A80
:104F8000981759F0E92FF0E0EB5EF54F82819F5FB3
:104F90009F779093160A90E008958FEF9FEF089502
:104FA0004F925F926F927F928F929F92AF92BF9239
:104FB000CF92DF92EF92FF920F931F93CF93DF93E5
:104FC00000D0CDB7DEB78091410C843008F028C204
:104FD0008091410C843008F049C18091150A90916C
:104FE000160A891B8F7709F441C10E94BC2797FDDF
:104FF000EFCF8A3019F08D3009F02FC11092E10304
:105000008091970A9091980AFC01EE51FC4F108212
:10501000892B39F01092980A1092970A02EE13E049
:1050200003C00E94B099D4CFF8018191803211F46D
:105030008F01FACF8E3409F06AC00115110509F409
:1050400066C06BEF78E0C8010E94D8C07C01892B54
:1050500041F06EE470E0C80104960E9454CA0097C3
:1050600009F4C8014AE050E060E070E001960E9457
:1050700040BE4B015C018091990A90919A0AA091DF
:105080009B0AB0919C0A0196A11DB11D8816990634
:10509000AA06BB0631F0EF2821F460E088EC98E026
:1050A00049C06AE270E0C8010E9483CA9C0100976F
:1050B00009F1982F901BF12C992339F09150F801A8
:1050C000E90FF11D8081F826F7CF4AE050E060E05B
:1050D00070E0C90101960E9440BECF2CD12CE12C7A
:1050E000F12C6C157D058E059F0541F060E089EA85
:1050F00098E020C060E08FE798E01CC08092990A99
:1051000090929A0AA0929B0AB0929C0A16C0809133
:10511000901080FF12C06AEC7DE0C8010E94D8C0E8
:10512000009729F0FC01838180538A3030F460E0DD
:105130008FE798E00E94D84D99C08091420C813051
:10514000B9F067E470E0C8010E9454CA009781F08A
:105150004AE050E060E070E001960E9440BE62309C
:1051600071058105910520F488E098E00E94E96DC1
:1051700063E078E0C8010E9498C0892B11F4109276
:105180001A026EEF77E0C8010E9498C0892B31F4B3
:1051900041E060E070E084EB93E087C169EF77E085
:1051A000C8010E9498C0892B11F40E94522564EF17
:1051B00077E0C8010E94D8C0892B09F448C06AE58D
:1051C00070E0C80104960E9454CA009709F43FC0D9
:1051D0008C010F5F1F4F60E070E0C8010E94E4BCCB
:1051E00020E030E040E050EC0E9421C187FD13C078
:1051F00060E070E0C8010E94E4BC20E030E040E0E4
:1052000050E40E948EC918165CF060E070E0C8019E
:105210000E94E4BC09C060E070E080E090EC04C053
:1052200060E070E080E090E42091D2093091D309F1
:105230004091D4095091D5090E9487C10E9400C9AC
:10524000CB010E94449781E00E94074EC1CE61E0ED
:1052500082EE93E00E94304EBBCE27E93AE042EE68
:1052600053E061EE73E00E94714DB2CE80919010D8
:1052700082FFD6C01A82198211E040918C105091A1
:105280008D1060918E1070918F1080918810909188
:105290008910A0918A10B0918B10481759076A079E
:1052A0007B0708F410E000E680E1F82E99E6E92E8D
:1052B0008091410C843008F0B3C01111B1C08091CD
:1052C000FA119091FB11A091FC11B091FD11809306
:1052D0008C1090938D10A0938E10B0938F1041E09E
:1052E00050E0BE016D5F7F4F82EF91E10E94E48A42
:1052F000019719F48B8190E002C08FEF9FEF4090EF
:105300008C1050908D1060908E1070908F10809047
:10531000881090908910A0908A10B0908B1011E0A6
:10532000481459046A047B0408F410E08F3FFFEF2F
:105330009F0761F4481459046A047B0438F40E94FE
:10534000CA6E80E099E00E94E96DB2CF4091BD0A3B
:105350008A3079F08D3069F0481459046A047B046E
:1053600008F496C089819A81009719F001969A8372
:1053700089831092420489819A81FC01049FE00D87
:10538000F11D1124E054F54F1082892BB1F01A82DF
:10539000198280E00E94074E80918C1090918D10B0
:1053A000A0918E10B0918F108093110A9093120AE1
:1053B000A093130AB093140A02C00E94B099481433
:1053C00059046A047B0408F473CF0E947B7E82EF49
:1053D00091E10E94963C809187108823E1F08150F2
:1053E00080938710E89EC001112462E0825C924F96
:1053F0000E94C681E091871024E0E29FF001112411
:10540000E65CF24F60817181828193810E94634DDD
:105410000E9411814DCF0E940281F092420C48CF30
:105420000E948CAB6B017C0140910D0350910E03E7
:1054300060910F03709110034115510561057105CD
:10544000B1F18091000E9091010EA091020EB091E9
:10545000030E840F951FA61FB71FA7019601281BD7
:10546000390B4A0B5B0B57FD22C00E94CA6E60913C
:105470009C1370919D1387EB97E00E94B76E8AE0B2
:105480000E94A42640E060E070E080E090E00DC063
:10549000049FA00111244054554F9E012F5F3F4FA0
:1054A00062E474E00E94714D03CF0E9489258091CF
:1054B000000290910102A0910202B0910302892B97
:1054C0008A2B8B2B09F44EC090914B1080914C107D
:1054D000981749F0C092000ED092010EE092020E91
:1054E000F092030E3FC00E948CAB8090000E909013
:1054F000010EA090020EB090030E009100021091D8
:1055000001022091020230910302080D191D2A1D8B
:105510003B1DDC01CB01801B910BA20BB30BB7FD34
:10552000F2C08091470481111DC081E0809347043F
:105530005F9A809160138E7F809360138A9A809126
:1055400060138D7F80936013809108018095817036
:1055500080930601129A809160138B7F8093601371
:105560000E941A258091430490914404A09145041F
:10557000B0914604A7019601281B390B4A0B5B0B1F
:1055800057FD51C090914B1080914C10981751F0DD
:10559000E0914C103EE4E39FF0011124E35EFA4FEA
:1055A000108102C01091A313112329F10E948CAB2A
:1055B0008090DD039090DE03A090DF03B090E003C5
:1055C000DC01CB0181149104A104B10469F48C596C
:1055D0009F4FAF4FBF4F8093DD039093DE03A093A7
:1055E000DF03B093E00392C088199909AA09BB09A7
:1055F000B7FF8DC08BC01092DD031092DE031092B6
:10560000DF031092E00320E02093050A44E6C40E75
:10561000D11CE11CF11CC0924304D0924404E092DE
:105620004504F09246040E94B0998091420C882370
:1056300009F4A8C080910901817011E018279091A8
:105640000402911709F447C09091901090629093D2
:1056500090101093040281110DC064EF71E080E09E
:1056600090E00E94C56D0E9438848091901083FD67
:105670000DC031C00E94028180919010877F8062AE
:1056800080939010112339F10E94388480919010FA
:1056900083FF21C08091C6128823E9F00E949B807D
:1056A000882379F081E00E94E45840EE50E064EEF7
:1056B00073E183E990E10E94E48A83E990E10E942A
:1056C000963C0E946958811138C00E944B580E9434
:1056D000BA581092851080910C03882391F00E9493
:1056E0008CAB009108031091090320910A033091BB
:1056F0000B03DC01CB01801B910BA20BB30BB7FF9B
:1057000023C0A8953FC0109247042CCF1FEF812FD4
:1057100090E0A0E0B0E09C01AD01215031094109C9
:105720005109A5EAB0E00E94B8C72EEF30E040E092
:1057300050E00E9499C7265A67CF8FE099E0909376
:10574000BF0A8093BE0AC7CF0E948CAB6B017C015D
:1057500020910C0330E0A8EEB3E00E94CBC7C60E48
:10576000D71EE81EF91EC0920803D0920903E092EA
:105770000A03F0920B0380E00E9448418AE00E94F5
:10578000A426BFCF0F900F900F90DF91CF911F9164
:105790000F91FF90EF90DF90CF90BF90AF909F90D0
:1057A0008F907F906F905F904F9008951F920F920F
:1057B0000FB60F9211240F900FBE0F901F901895E7
:1057C0001F920F920FB60F9211240BB60F922F93C8
:1057D0008F939F93EF93FF939091C6002091160AA9
:1057E000E091150A81E08E0F8F77281729F0F0E0FD
:1057F000EB5EF54F9283E82FE093150AFF91EF914E
:105800009F918F912F910F900BBE0F900FBE0F9015
:105810001F9018958EBD0DB407FEFDCF08958FEF34
:105820008EBD0DB407FEFDCF8EB508959091640036
:105830009B7F90936400982F906A96959CBD80FD05
:1058400003C091E0863009F490E09DBD08952F9249
:105850003F924F925F926F927F928F929F92AF9200
:10586000BF92CF92DF92EF92FF920F931F93CF934D
:10587000DF93CDB7DEB7CF56D1090FB6F894DEBFB0
:105880000FBECDBF4B015A016901A396FFAEEEAE2C
:10589000A3972091CA093091CB094091CC0950912E
:1058A000CD09DC016D917D918D919C910E9487C104
:1058B0000E9493C9A7966CAF7DAF8EAF9FAFA7979D
:1058C0002091CE093091CF094091D0095091D10952
:1058D000F40160817181828193810E9487C10E945D
:1058E00093C9AB966CAF7DAF8EAF9FAFAB97D50131
:1058F0002D913D914D915C9165962CAF3DAF4EAF92
:105900005FAF65972091D2093091D3094091D409B6
:105910005091D50965966CAD7DAD8EAD9FAD659707
:105920000E9487C10E9493C9AF966CAF7DAF8EAFC6
:105930009FAFAF972091D6093091D7094091D809F0
:105940005091D909F60160817181828193810E9411
:1059500087C10E9493C9A1966CAF7DAF8EAF9FAFF8
:10596000A19780919E1383FF0EC0A1962CAD3DADF3
:105970004EAD5FADA19720937D1030937E10409384
:105980007F10509380104091B4095091B5095EABDF
:105990004DAB452B11F00C940A3BD801BC9160969D
:1059A000BFAF6097F801F1812696FFAF2697D80127
:1059B0001296BC91B9AFF801F3812C96FFAF2C97EA
:1059C00080914B1090914C10891B8F708F3019F47F
:1059D0000E94D027F5CF20914B10E0962FAFE09793
:1059E00080914B10482F50E05CA74BA75EE4859F49
:1059F000C0011124DC01AC52BB4FBAABA9AB809102
:105A0000711090917210A0917310B0917410A796BC
:105A10002CAD3DAD4EAD5FADA797281B390B4A0BA2
:105A20005B0B2BA33CA34DA35EA3809175109091BB
:105A30007610A0917710B0917810AB962CAD3DAD5B
:105A40004EAD5FADAB97281B390B4A0B5B0B2FA3F9
:105A500038A749A75AA78091791090917A10A09100
:105A60007B10B0917C10AF962CAD3DAD4EAD5FADCF
:105A7000AF97281B390B4A0B5B0B2DA73EA74FA7EF
:105A800058AB80917D1090917E10A0917F10B091C5
:105A90008010A1968CAC9DACAEACBFACA197881A1F
:105AA000990AAA0ABB0A09F4BFC0C501B4010E9441
:105AB00028C12091050230910602409107025091C1
:105AC00008020E9487C16B017C0120E030E0A9013F
:105AD0000E948EC987FF04C0F7FAF094F7F8F0949B
