:100000000C94E71B0C94181C0C94181C0C94181CD2
:100010000C94181C0C94181C0C94181C0C94181C90
:100020000C94181C0C94181C0C94181C0C94181C80
:100030000C94181C0C9407E30C94181C0C94181CBA
:100040000C94181C0C94CABF0C94181C0C94181C0B
:100050000C94181C0C94181C0C9481EC0C94ECE47B
:100060000C94181C0C9459580C94181C0C94181CC3
:100070000C94181C0C94181C0C94181C0C94181C30
:100080000C94181C0C94181C0C94181C0C94181C20
:100090000C94181C0C94181C0C94181C0C94181C10
:1000A0000C94181C0C94181C0C94181C0C94181C00
:1000B0000C94181C0C94181C0C94181C0C94181CF0
:1000C0000C94181C0C94181C0C94181C0C94181CE0
:1000D0000C94181C0C94181C0C94181C0C94181CD0
:1000E0000C94181CF08FF98F02900B9014902F90A5
:1000F0003C9045901D902690EEE1F1E1E0E1E4E1D5
:10010000EAE128E2F5E1F9E1FFE103E207E20DE2CD
:1001100011E215E228E21BE21FE223E208E40DE40B
:1001200012E41CE426E49FE430E438E440E44AE4CA
:1001300054E45EE46DE477E49FE481E48BE495E4C9
:10014000084AD73B3BCE016E84BCBFFDC12F3D6C3E
:1001500074319ABD56833DDA3D00C77F11BED9E4A4
:10016000BB4C3E916BAAAABE000000803F05A84C84
:10017000CDB2D44EB93836A9020C50B99186880850
:100180003CA6AAAA2ABE000000803F000D941716C4
:100190000D94160E4E414E494E495459494E46CD86
:1001A000CCCC3D0AD7233C17B7D13877CC2B32952E
:1001B00095E6241FB14F0A000020410000C842000C
:1001C000401C4620BCBE4CCA1B0E5AAEC59D7420B6
:1001D000746F6F206C6F6E672065787472757369C9
:1001E0006F6E2070726576656E7465640A002063B8
:1001F0006F6C6420657874727573696F6E207072AD
:100200006576656E7465640A0047322F4733206255
:10021000616420706172616D65746572730A004576
:100220006D206573706572612E2E2E00205A3A2063
:100230000020593A200042656420583A2000526557
:10024000746F6D616E646F20696D70726573736138
:100250006F005A31304D322070726F6E74612E0013
:100260004120657370657261206465206F726465FA
:100270006D0053656D206D6F76696D656E746F00EE
:10028000456E642066696C65206C6973740A00426F
:100290006567696E2066696C65206C6973740A0015
:1002A0004D313235005344207072696E74696E6747
:1002B000206279746520004E6F7420534420707260
:1002C000696E74696E670A0046696C652064656CC6
:1002D000657465643A0044656C6574696F6E206688
:1002E00061696C65642C2046696C653A20006F700A
:1002F000656E206661696C65642C2046696C653AA0
:1003000020005072696E742074696D653A20005047
:10031000726F7465637465642050696E0A00454DA0
:10032000455247454E4349412E20004261736520A6
:1003300061717565636964612E0020573A004171EF
:10034000756563656E646F20626173652E2E005A59
:1003500031304D32204F66662E00454D455247459F
:100360004E43595F50415253455200434153455FFC
:100370004C494748545F4252494748544E455353AD
:1003800000544F47474C455F4C494748545300532E
:100390004F4654574152455F504F574552004255C2
:1003A000494C445F50455243454E54004C455645D8
:1003B0004C494E475F44415441005A5F50524F42AE
:1003C00045004155544F4C4556454C005052494EFE
:1003D000545F4A4F420050524F47524553530041D9
:1003E00055544F5245504F52545F54454D5000564E
:1003F0004F4C554D455452494300454550524F4D81
:100400000053455249414C5F584F4E5F584F464646
:10041000004649524D574152455F4E414D453A4D78
:1004200061726C696E2042617365206F6E204D6150
:10043000726C696E312E312E3820284769746875C8
:10044000622920534F555243455F434F44455F5502
:10045000524C3A68747470733A2F2F6769746875D8
:10046000622E636F6D2F7A6F6E6573746172336481
:100470002050524F544F434F4C5F56455253494FB3
:100480004E3A312E30204D414348494E455F545934
:1004900050453A5A31304D32204558545255444512
:1004A000525F434F554E543A3120555549443A30E6
:1004B000303030303031302D303830382D30303031
:1004C000332D303030302D32303138303131303022
:1004D00030310A002F2F20007A5F70726F62653A08
:1004E00020007A325F6D696E3A20007A5F6D696E26
:1004F0003A2000795F6D696E3A2000785F6D696E11
:100500003A20005265706F7274696E6720656E6480
:1005100073746F70207374617475730A004D313495
:100520003520533C696E6465783E206F7574206F8A
:10053000662072616E67652028302D31290A0020FF
:100540005A004475616C20456E6473746F7020416D
:10055000646A7573746D656E7420286D6D293A2018
:1005600000205A00205900580020204D61783A2080
:1005700000205A00205900580020204D696E3A2072
:10058000004F6E20004F666600536F667420656EE4
:100590006473746F70733A2000000136372603FFCE
:1005A0003C3D380EFF2E303E1213020C080906FFA8
:1005B000FF1A1C18FFFF24221E08440A06430405E4
:1005C00016FFFFFFFFFFFF20643A0020693A00207A
:1005D000703A0043290A0061626C656420286D69E5
:1005E0006E2074656D702000436F6C6420657874B4
:1005F00072756465732061726520002364656669A5
:100600006E65202044454641554C545F4B642000A4
:1006100023646566696E65202044454641554C5407
:100620005F4B69200023646566696E652020444540
:100630004641554C545F4B70200050494420417551
:10064000746F74756E652066696E69736865642180
:100650002050757420746865206C617374204B7031
:100660002C204B6920616E64204B6420636F6E7395
:1006700074616E74732066726F6D2062656C6F7743
:1006800020696E746F20436F6E666967757261745E
:10069000696F6E2E680A00504944204175746F746A
:1006A000756E65206661696C6564212074696D658D
:1006B0006F75740A00544845524D414C2052554EB6
:1006C0004157415900546865726D616C2052756ED6
:1006D00061776179004171756563696D656E746FED
:1006E0002066616C686F750048656174696E67208B
:1006F0006661696C656400504944204175746F748B
:10070000756E65206661696C6564212054656D7045
:100710006572617475726520746F6F2068696768AF
:100720000A00204B643A2000204B693A2000204BFD
:10073000703A20000A20436C61737369632050494A
:1007400044200A002054753A2000204B753A2000BE
:10075000206D61783A2000206D696E3A2000206497
:100760003A200020626961733A2000426564204C9F
:100770006576656C696E6720004661696C6564200A
:10078000746F20656E61626C6520426564204C6503
:1007900076656C696E670A00426564204C65766513
:1007A0006C20436F7272656374696F6E204D617463
:1007B0007269783A004F6666736574732061707071
:1007C0006C696564004572723A20546F6F206661EF
:1007D000722100546F6F206661722066726F6D2007
:1007E0007265666572656E636520706F696E740A06
:1007F000003A2000207A5F6D696E3A20202D323059
:10080000207A5F6D61783A202032300A0050726F92
:100810006265205A204F6666736574004E6F2063D0
:10082000617365206C696768740A00556E6B6E6F42
:10083000776E20636F6D6D616E643A2022002569CA
:10084000730025696D202569730025696820256975
:100850006D20256973002569642025696820256954
:100860006D20256973002569792025696420256933
:10087000682025696D20256973004C696E65204EDE
:10088000756D626572206973206E6F74204C6173A0
:1008900074204C696E65204E756D6265722B312C2B
:1008A000204C617374204C696E653A2000454D45BB
:1008B0005247454E4349412E200050415241444F3A
:1008C0002E20005072696E7465722073746F7070A0
:1008D00065642064756520746F206572726F727331
:1008E0002E2046697820746865206572726F7220C8
:1008F000616E6420757365204D39393920746F201D
:10090000726573746172742E202854656D706572FF
:1009100061747572652069732072657365742E2029
:100920005365742069742061667465722072657302
:1009300074617274696E67290A004E6F204368659E
:10094000636B73756D2077697468206C696E6520C0
:100950006E756D6265722C204C617374204C696EEB
:10096000653A2000636865636B73756D206D69730C
:100970006D617463682C204C617374204C696E65E2
:100980003A20004D313130004D3331005344207254
:10099000656164206572726F720A00446F6E652033
:1009A0007072696E74696E672066696C650A0020F2
:1009B000496E76616C6964206578747275646572DD
:1009C0002000000034C2000000000000C0C0000091
:1009D000A04300009B430000C84320706F736974FC
:1009E000696F6E206F7574206F662072616E676527
:1009F0002E0A003F50726F626520000A0A42656449
:100A0000204C6576656C20436F7272656374696F04
:100A10006E204D61747269783A00202B000A436F92
:100A20007272656374656420426564204865696715
:100A300068742076732E2042656420546F706F6C4A
:100A40006F67793A0A00202B000A426564204865E6
:100A50006967687420546F706F6772617068793A63
:100A60000A2020202B2D2D2D204241434B202D2DBF
:100A70002B0A2020207C2020202020202020202025
:100A8000207C0A204C207C20202020282B2920207C
:100A900020207C20520A2045207C2020202020205D
:100AA00020202020207C20490A2046207C20282D40
:100AB00029204E20282B29207C20470A2054207CE6
:100AC00020202020202020202020207C20480A20B8
:100AD00020207C20202020282D29202020207C2040
:100AE000540A2020207C202020202020202020208C
:100AF000207C0A2020204F2D2D2046524F4E54207E
:100B00002D2D2B0A2028302C30290A004D65616ECE
:100B1000206F662073616D706C656420706F696E04
:100B200074733A200020643A200020623A20004585
:100B3000716E20636F656666696369656E74733A8A
:100B400020613A2000202844525952554E2900472E
:100B50003239204175746F20426564204C6576659A
:100B60006C696E670028422961636B002846297210
:100B70006F6E74002852296967687400284C2965D3
:100B80006674003F4E756D626572206F66207072EC
:100B90006F626520706F696E747320697320696D70
:100BA000706C61757369626C65202832206D696EA6
:100BB000696D756D292E0A003F2856296572626F8E
:100BC0007365206C6576656C20697320696D706C47
:100BD00061757369626C652028302D34292E0A00F6
:100BE0007C3C3E5E2B3D3F2F5B5D3B2C2A225C0014
:100BF000526573656E643A20006F6B00454D455237
:100C000047454E4349412E20004B494C4C206361DF
:100C100075736564206279204B494C4C2062757471
:100C2000746F6E2F70696E0A00454D455247454EF0
:100C30004349412E20004B494C4C2063617573653C
:100C40006420627920746F6F206D75636820696E0F
:100C50006163746976652074696D65202D20637504
:100C60007272656E7420636F6D6D616E643A200000
:100C7000506C6561736520726573657400505249EC
:100C80004E5445522048414C544544005072696EC0
:100C90007465722068616C7465642E206B696C6C7D
:100CA00028292063616C6C6564210A00656E71758A
:100CB000657565696E67202200000034C20000007F
:100CC000000000C0C0000048420000484200000090
:100CD00040000000005761726E696E673A20486FED
:100CE0006D696E672042756D702044697669736F17
:100CF00072203C20310A000202040000A0400000E3
:100D0000A040000000400080B64300009B4300006C
:100D1000CB43FFFFFF4D36303020486F74656E6463
:100D200020746F6F20636F6C6420746F2063686140
:100D30006E67652066696C616D656E740A0020746B
:100D40006F6F206C6F6E6720657874727573696F52
:100D50006E2070726576656E7465640A0020636F3C
:100D60006C6420657874727573696F6E207072653B
:100D700076656E7465640A004D6F766572204578FD
:100D8000747275736F72004D6F766572205A004DE4
:100D90006F7665722059004D6F766572205800504D
:100DA0007265706172617200496E697469616C6923
:100DB0007A6520454550524F4D00436F6E74726FF7
:100DC0006C6F00526573742E20646520656D6572CA
:100DD00067656E2E0043617272656761722064619F
:100DE000206D656D6F72696100496E697469616C2F
:100DF000697A6520454550524F4D004775617264D0
:100E00006172206E61206D656D6F726961004D6F5A
:100E100076696D656E746F0054656D70657261748E
:100E2000757261004D656E75207072696E636970D0
:100E3000616C00446566696E69636F657320414249
:100E40005300446566696E69636F657320504C4159
:100E5000005049442D44005049442D440050494419
:100E60002D49005049442D49005049442D5000500F
:100E700049442D50000820466163740008204661F3
:100E800063740008204D61780008204D61780008E7
:100E9000204D61780008204D696E0008204D696E74
:100EA0000008204D696E004F6666004F6E200054AA
:100EB000656D702E204175746F6D6174696361009A
:100EC00056656C2E2076656E746F696E686100568B
:100ED000656C2E2076656E746F696E6861000820FF
:100EE0004261736500082042617365000820426911
:100EF000636F0008204269636F00436F6E74726F06
:100F00006C6F0047756172646172206E61206D655F
:100F10006D6F7269610008204261736500082042AC
:100F20006173650008204269636F000820426963AD
:100F30006F0056656C2E2076656E746F696E686101
:100F40000056656C2E2076656E746F696E68610060
:100F500054656D70657261747572610020204E6F0A
:100F60007A7A6C653A20002000506C6561736520C8
:100F7000776169742E2E2E0048656174696E672052
:100F80006E6F7A7A6C65005052494E54205041552C
:100F90005345440020204E6F7A7A6C653A20002039
:100FA0000068656174206E6F7A7A6C652E005072ED
:100FB00065737320627574746F6E20746F00505285
:100FC000494E54205041555345440020204E6F7ADD
:100FD0007A6C653A2000746F20636F6E74696E7569
:100FE000652E2E2E00616E64207072657373206210
:100FF0007574746F6E00496E736572742066696CE7
:10100000616D656E74005052494E542050415553E5
:1010100045440020204E6F7A7A6C653A200020000B
:1010200066696C616D656E74206C6F6164005761F8
:10103000697420666F72005052494E5420504155D9
:101040005345440020204E6F7A7A6C653A20002088
:101050000066696C616D656E742065787472756484
:1010600065005761697420666F72005052494E5492
:101070002050415553454400746F20726573756D5F
:1010800065005761697420666F72207072696E74B2
:10109000005052494E542050415553454400434F4F
:1010A0004D4D554E49434154494F4E0044525952BB
:1010B000554E004552524F525300494E464F00453F
:1010C00043484F0041717565636964612E00205784
:1010D0003A0045256920257300BF10BA10B310AC43
:1010E000109E106F66660044454255473A00205AEC
:1010F0003A0020593A0020436F756E7420583A0028
:1011000020453A00205A3A0020593A00583A003A0D
:10111000004361703A0053657474696E67205472BD
:101120006176656C20416363656C65726174696F9B
:101130006E3A200053657474696E6720526574724C
:1011400061637420416363656C65726174696F6E7D
:101150003A200053657474696E67205072696E742A
:1011600020416363656C65726174696F6E3A20003B
:1011700053657474696E67205072696E7420616E75
:10118000642054726176656C20416363656C65729E
:101190006174696F6E3A2000454D455247454E4394
:1011A00049412E2000202D20496E76616C69642013
:1011B0006578747275646572206E756D62657220F3
:1011C000210A0000000000000000000000000000F4
:1011D000000000000000000000000000000000000F
:1011E00000000000000000000000000000000000FF
:1011F00000000000000000000000000000000000EF
:1012000000000007FF01FE070183FE0FF8FFF8074B
:10121000007FC007FF83FF0F8187FE1FF8FFF80FD5
:1012200080FFE007FFC7038F818FFC3FF0FFF81FAF
:10123000C0E0E00003C6018FC18C00380007001F2A
:10124000C0C060000786018CC18C00300007003DE3
:10125000E0C060000F06018CE18C00380007003808
:10126000E0E0E0001E06018C618FFE3FF0070038D1
:10127000E0FFC0003C06018C618FFE1FF8070030C4
:1012800060FF80007806018C318FFC0FFC07007234
:1012900070FC0000F006018C318E00001C0700621B
:1012A00030CE0001E006018C398C00000C0700678D
:1012B00030C70003C006018C198C00000C070067C2
:1012C00030C380078007038C198E00001C0700CFF5
:1012D00098C1C007FFC7FF8C0F8FFF1FFC0700CF0F
:1012E00098C0F003FFC3FF0C0F87FF3FF80700DF34
:1012F000D8C07001FFC1FE0C0701FE3FF0070000DF
:1013000000000000000000000000000000000000DD
:1013100000000000000000000000000000000000CD
:1013200000000000000000000000000000000000BD
:1013300000000000000000000000000000000000AD
:101340000000002020506C616E6E6572427566660A
:10135000657242797465733A200020467265652093
:101360004D656D6F72793A2000436F6D70696C65E1
:10137000643A2041756720323520323031380A0016
:10138000207C20417574686F723A202848616C6C2B
:1013900079405A4F4E4553544152290A0032303158
:1013A000382D30382D323400204C61737420557044
:1013B00064617465643A200042617365206F6E2039
:1013C0004D61726C696E312E312E380A004D61729A
:1013D0006C696E0020536F66747761726520526588
:1013E0007365740A00205761746368646F672052E4
:1013F000657365740A002042726F776E206F757492
:101400002052657365740A002045787465726E61B8
:101410006C2052657365740A00506F776572557061
:101420000A0073746172740A006572726F722077B9
:10143000726974696E6720746F2066696C650A0052
:1014400046696D20646520637572736F2025632083
:1014500025632025632025630020503A00205A3A56
:101460000020593A0020583A00656E6473746F701A
:1014700073206869743A2000446F6E65207361764A
:10148000696E672066696C652E0A004D3239002549
:10149000753A2530327500253032753A253032756F
:1014A0000025756420253032753A25303275005A92
:1014B00000590058004D616E75616C0052616E6498
:1014C0006F6D004C696E65617200092000000000BC
:1014D0000000000000000000007FFFE000000000AE
:1014E00000000000000000007000E00000000000AC
:1014F0000000000000000061F86000000000000033
:1015000000000000000041F8200000000000000082
:10151000000000000040F02000000000000000007B
:1015200000000000406020000000000000000000FB
:101530000000005801A0FFC0000077003B80004081
:1015400081005C63A07F80000077003B800020402A
:10155000805EF7A07F80000036001B0000204080E6
:101560005EF7A07F80000036001B00004081005C19
:1015700063A07F800001F7FFFBE0008102005801BB
:10158000A03F000001F00003E001020400406020E1
:10159000FFC00001FFF3FFE00102040040F020FF64
:1015A000C00001FFF3FFE00081020041F820FFC00E
:1015B0000000003300000040810061F8603F00003F
:1015C0000000330000000000007000E01E0000007A
:1015D000001E000001FFFF807FFFE00C0000000004
:1015E0000C000001FFFF8000000000000000000070
:1015F0000000000000007FFFE0000000000000008D
:1016000000000000007000E000000000000000008A
:1016100000000000630C60000000000000000000FB
:10162000000000470E200000000000000000000045
:1016300000004F0F2000000000000000000000002C
:10164000005F0FA00000000000000000000000008C
:101650005E07A0FFC0000077003B80004081004093
:1016600060207F80000077003B800020408040F0B9
:10167000207F80000036001B000020408040F020CA
:101680007F80000036001B00004081004060207F0A
:10169000800001F7FFFBE0008102005E07A03F0031
:1016A0000001F00003E0010204005F0FA0FFC00092
:1016B00001FFF3FFE0010204004F0F20FFC0000113
:1016C000FFF3FFE000810200470E20FFC000000092
:1016D00033000000408100630C603F0000000033D5
:1016E0000000000000007000E01E000000001E006E
:1016F0000001FFFF807FFFE00C000000000C0000F5
:1017000001FFFF8000000000060900FE000000004D
:101710000001090008FE000005080806000040F06E
:10172000C88888987810050808060000C0F88888DE
:10173000888888F80505050600012030F830200566
:1017400008080600002070F820202020E005090984
:101750000600FF2070A8A8B888887020050909062F
:1017600000FFE080C0B0A82830282805090906003D
:10177000FFF8A88888888888A8F8050A0A0600FE65
:10178000205050505088A8A8887003030306000317
:1017900040A0404572726F722077726974696E67FB
:1017A00020746F20454550524F4D210A00290A00F0
:1017B0002062797465733B20637263200053657403
:1017C00074696E67732053746F72656420280020FB
:1017D0002863616C63756C6174656429210A00205B
:1017E000213D2000454550524F4D20435243206D2E
:1017F00069736D61746368202D202873746F72653E
:1018000064292000290A002062797465733B2063F3
:10181000726320002073746F726564207365747442
:10182000696E6773207265747269657665642028D5
:1018300000204D61726C696E3D563437290A0028CC
:10184000454550524F4D3D00454550524F4D207635
:10185000657273696F6E206D69736D617463682062
:101860000056652D6A65726B0056652D6A65726B50
:101870000056652D6A65726B00567A2D6A65726B2B
:1018800000567A2D6A65726B0056792D6A65726B07
:101890000056792D6A65726B0056792D6A65726BF8
:1018A0000056782D6A65726B0056782D6A65726BEA
:1018B0000056782D6A65726B004D6F76696D656EA6
:1018C000746F004520706173736F2F6D6D0045203C
:1018D000706173736F2F6D6D005A20706173736F39
:1018E0002F6D6D005A20706173736F2F6D6D0059ED
:1018F00020706173736F2F6D6D0059207061737369
:101900006F2F6D6D005820706173736F2F6D6D00B8
:101910005820706173736F2F6D6D004D6F76696D18
:10192000656E746F00506173736F2F6D6D004A6543
:10193000726B00416363656C65726174696F6E0000
:1019400056656C6F636974790044657376696F20BE
:101950005A0044657376696F205A00436F6E747243
:101960006F6C6F0043616E6E6F7420656E7465728C
:10197000207375626469723A2000022E2E004D6554
:101980006E75207072696E636970616C00004578D5
:1019900074727564656420746F74616C3A200025FC
:1019A0006C642E25696D00004C6F6E676573742042
:1019B0006A6F622074696D653A200000546F74612B
:1019C0006C207072696E742074696D653A200043F2
:1019D0006F6D706C657465643A20005072696E7446
:1019E00020436F756E743A20004261636B004E6550
:1019F000787420636F726E6572004D343238004720
:101A000032380A473239005072652D61717565634D
:101A1000657220414253005072652D617175656396
:101A2000657220504C410041727265666563657253
:101A30000054726F6361722066696C616D656E74CB
:101A40006F0044657361637469766172206D6F74B1
:101A50006F726573004D383400446566696E697253
:101A60002064657376696F004C6576656C20636FE2
:101A7000726E65727300426564204C6576656C69B0
:101A80006E670049722070617261206F72696765CC
:101A90006D205A00473238205A0049722070617216
:101AA00061206F726967656D20590047323820598F
:101AB0000049722070617261206F726967656D20E4
:101AC00058004732382058004972207061726120F6
:101AD0006F726967656D00473238004D6F766572C9
:101AE000206569786F0045312050726563656E74BA
:101AF0000045312050726563656E74004D656E75EA
:101B0000207072696E636970616C004D6F766572EA
:101B10002058004D6F7665722059004D6F766572C2
:101B2000205A004D6F766572204578747275736F18
:101B300072004D6F76657220302E316D6D004D6FE5
:101B400076657220316D6D004D6F76657220313093
:101B50006D6D004D6F766572206569786F004D6F11
:101B6000766572204578747275736F72004D6F766A
:101B70006572205A004D6F7665722059004D6F7660
:101B8000657220580043617274616F2072656D6FD9
:101B90007669646F0043617274616F20696E73656A
:101BA0007269646F0000060900FE0701920321209C
:101BB0007FFF07FF07FF0000000600000107070680
:101BC000020080808080800080030202060105A060
:101BD000A00507070600005050F850F850500507C0
:101BE000070600002078A07028F0200507070600EF
:101BF00000C0C81020409818050707060000609034
:101C0000A040A89068020303060104C040800307B7
:101C1000070601002040808080402003070706015E
:101C2000008040202020408005050506000120A8F6
:101C300070A8200505050600012020F820200203D9
:101C4000030602FFC04080050101060003F80202FE
:101C500002060200C0C0050505060001081020406C
:101C60008005070706000070888888888870030749
:101C70000706010040C040404040E005070706005D
:101C800000708808708080F8050707060000F810CB
:101C900020100808F005070706000010305090F8E3
:101CA0001010050707060000F880F0080888700586
:101CB0000707060000708080F08888700507070617
:101CC0000000F808102020202005070706000070FB
:101CD00088887088887005070706000070888878F3
:101CE000080870020505060200C0C000C0C0020658
:101CF000060602FFC0C000C04080040707060000BF
:101D000010204080402010050303060002F800F870
:101D100004070706010080402010204080050707C7
:101D20000600007088081020002005070706000044
:101D300070880868A8A870050707060000708888E2
:101D4000F8888888050707060000F08888F08888EA
:101D5000F0050707060000708880808088700507FE
:101D600007060000F08888888888F00507070600C5
:101D700000F88080F08080F8050707060000F880F2
:101D800080F0808080050707060000708880B88892
:101D90008870050707060000888888F88888880109
:101DA0000707060200808080808080800507070684
:101DB000000038101010109060050707060000881A
:101DC00090A0C0A090880507070600008080808052
:101DD0008080F805070706000088D8A888888888CA
:101DE0000507070600008888C8A89888880507079F
:101DF000060000708888888888700507070600003C
:101E0000F08888F0808080050707060000708888C9
:101E100088A89068050707060000F08888F0A09061
:101E200088050707060000788080700808F005071D
:101E300007060000F82020202020200507070600C4
:101E400000888888888888700507070600008888C9
:101E500088888850200507070600008888888888B9
:101E6000A85005070706000088885020508888057C
:101E700007070600008888885020202005070706ED
:101E80000000F80810204080F8030707060100E072
:101E90008080808080E005050506000180402010DC
:101EA00008030707060100E02020202020E00503AA
:101EB00003060004205088050101060000F8020214
:101EC00002060205804005050506000070087888B6
:101ED000780507070600008080B0C88888F00505EF
:101EE000050600007080808870050707060000085E
:101EF0000868988888780505050600007088F880CD
:101F0000700507070600003048E0404040400506E5
:101F1000060600FF7088887808700507070600002D
:101F20008080B0C88888880107070602008000808A
:101F3000808080800308080601FF200020202020E8
:101F4000A040040707060000808090A0C0A0900376
:101F50000707060100C04040404040E00505050677
:101F60000000D0A8A8A8A8050505060000B0C888EC
:101F700088880505050600007088888870050606B3
:101F80000600FFF08888F080800506060600FF78CE
:101F90008888780808050505060000B0C88080809C
:101FA00005050506000070807008F00407070600AC
:101FB000004040E0404040300505050600008888AC
:101FC0008898680505050600008888885020050562
:101FD000050600008888A8A85005050506000088A9
:101FE000502050880506060600FF8888887808700B
:101FF000050505060000F8102040F8030707060154
:1020000000204040804040200107070602008080F9
:1020100080808080800307070601008040402040C8
:1020200040800502020600026890000000060000E1
:1020300024F4D43050C38E20C2A24017828B70117A
:10204000127A910D816CD90AA861E108C758660718
:10205000615143061E4B5D05C145A7041A41110499
:10206000093D9803713931034036DB026533910233
:10207000D4305402802E1D02632CEE01752AC50156
:10208000B028A001102781018F2564012B244B016A
:10209000E0223401AC211F018D200D01801FFC00C6
:1020A000841EED00971DDF00B81CD200E61BC600A1
:1020B000201BBC00641AB200B219A8000A19A000C3
:1020C0006A189900D117910040178B00B51684004B
:1020D00031167E00B31579003A157300C7146F00EE
:1020E00058146A00EE1366008813630025135E001F
:1020F000C7125B006C12570015125400C111510039
:1021000070114F0021114B00D61049008D1047006F
:102110004610440002104200C00F4000800F3E00F5
:10212000420F3C00060F3B00CB0E3800930E3700E9
:102130005C0E3500270E3400F30D3200C10D310066
:10214000900D3000600D2E00320D2D00050D2C007D
:10215000D90C2B00AE0C2900850C29005C0C270043
:10216000350C27000E0C2600E80B2400C40B2400BD
:10217000A00B23007D0B23005A0B2100390B2100FB
:10218000180B2000F80A1F00D90A1E00BB0A1E0007
:102190009D0A1D00800A1D00630A1C00470A1B00DF
:1021A0002C0A1B00110A1A00F7091A00DD09190090
:1021B000C4091900AB091900920917007B0918001E
:1021C000630917004C09160036091600200916008D
:1021D0000A091500F5081500E0081400CC081400E1
:1021E000B8081400A4081400900813007D08120019
:1021F0006B0813005808120046081200340811003A
:10220000230811001208110001081100F007100046
:10221000E0071000D0071000C0071000B0070F0043
:10222000A107100091070E0083070F0074070F002D
:1022300065070E0057070E0049070E003B070D000B
:102240002E070E0020070D0013070D0006070D00D6
:10225000F9060C00ED060D00E0060C00D4060C009B
:10226000C8060C00BC060C00B0060C00A4060B004F
:1022700099060C008D060B0082060B0077060B00FA
:102280006C060B0061060A0057060B004C060A009C
:1022900042060A0038060A002E060A0024060A0032
:1022A0001A060A001006090007060A00FD050900C3
:1022B000F4050900EB050900E2050900D90509004C
:1022C000D0050900C7050900BE050900B5050800CD
:1022D000AD050800A50509009C0508009405080047
:1022E0008C050800840508007C05080074050800BA
:1022F0006C050700650508005D0507005605080028
:102300004E0507004705070040050800380507008F
:10231000310507002A050700230507001C050600F4
:10232000160507000F05070008050600020507004F
:10233000FB040600F5040700EE040600E8040600AE
:10234000E2040700DB040600D5040600CF04060003
:10235000C9040600C3040600BD040600B704060055
:10236000B1040500AC040600A6040600A0040500A4
:102370009B04060095040500900406008A040500ED
:1023800085040500800406007A0405007504050034
:10239000700405006B040500660405006104050077
:1023A0005C04050057040500520405004D040500B7
:1023B00048040500430405003E0404003A040500F7
:1023C00035040500300404002C0405002704040033
:1023D000230405001E0404001A040400160405006A
:1023E000110404000D0404000904050004040400A1
:1023F00000040400FC030400F8030400F4030400D8
:10240000F0030400EC030400E8030400E403040008
:10241000E0030400DC030400D8030400D403040038
:10242000D0030400CC030400C8030300C503030069
:1024300024F404D9201BC40C5C0E9804C4095F0268
:1024400065077101F405F900FB04B3004804870037
:10245000C10369005803550003034500BE023A005A
:102460008402310053022A002902250004022000C0
:10247000E4011C00C8011900AF0117009801140005
:1024800084011300710110006101100051010E0060
:1024900043010D0036010B002B010B0020010B0046
:1024A000150109000C01090003010800FB000800E8
:1024B000F3000800EB000700E4000600DE00060061
:1024C000D8000600D2000600CC000500C7000500B9
:1024D000C2000500BD000400B9000400B5000400FE
:1024E000B1000400AD000400A9000400A500030031
:1024F000A20003009F0004009B000300980003005B
:102500009500020093000300900003008D0002007C
:102510008B00030088000200860002008400030094
:10252000810002007F0002007D0002007B000200AB
:1025300079000200770001007600020074000200BA
:1025400072000100710002006F0002006D000100C6
:102550006C0002006A0001006900020067000100CF
:1025600066000100650001006400020062000100D5
:1025700061000100600001005F0002005D000100D9
:102580005C0001005B0001005A00010059000100DD
:1025900058000100570001005600010055000100DD
:1025A00054000100530000005300010052000100DC
:1025B00051000100500001004F0001004E000000DA
:1025C0004E0001004D0001004C0001004B000000D6
:1025D0004B0001004A0001004900010048000000D2
:1025E00048000100470001004600000046000100CD
:1025F00045000000450001004400010043000000C8
:1026000043000100420000004200010041000000C0
:1026100041000100400001003F0000003F000100B8
:102620003E0000003E0001003D0000003D000100B2
:102630003C0000003C0000003C0001003B000000AA
:102640003B0001003A0000003A00010039000000A0
:102650003900010038000000380000003800010097
:10266000370000003700010036000000360000008F
:102670003600010035000000350000003500010083
:10268000340000003400000034000100330000007A
:10269000330000003300010032000000320000006F
:1026A0003200010031000000310000003100010063
:1026B0003000000030000000300001002F0000005A
:1026C0002F0000002F0000002F0001002E0000004E
:1026D0002E0000002E0001002D0000002D00000043
:1026E0002D0000002D0001002C0000002C00000037
:1026F0002C0000002C0001002B0000002B0000002B
:102700002B0000002B0001002A0000002A0000001E
:102710002A0000002A000100290000002900000012
:102720002900000029000000290001002800000005
:1027300028000000280000002800000028000100F8
:1027400027000000270000002700000027000000ED
:1027500027000100260000002600000026000000DF
:1027600026000000260001002500000025000000D2
:1027700025000000250000002500000025000100C4
:1027800024000000240000002400000024000000B9
:1027900024000100230000002300000023000000AB
:1027A000230000002300000023000000230001009C
:1027B0002200000022000000220000002200000091
:1027C0002200000022000100210000002100000082
:1027D0002100000021000000210000002100000075
:1027E0002100010020000000200000002000000067
:1027F0002000000020000000200000002000000059
:10280000200001001F0000001F0000001F0000004A
:102810001F0000001F0000001F0000001F0001003B
:102820001E0000001E0000001E0000001E00000030
:102830004D383420582059205A2045006175746F56
:1028400025692E67004D3234004D32332025730048
:1028500057726974696E6720746F2066696C653A97
:1028600020006F70656E206661696C65642C20467F
:10287000696C653A20006F70656E206661696C65F1
:10288000642C2046696C653A200046696C652073AB
:10289000656C65637465640A002053697A653A2043
:1028A0000046696C65206F70656E65643A20006F44
:1028B00070656E206661696C65642C2046696C6584
:1028C0003A20002066696C653A2000646F696E6783
:1028D000006672657368004E6F772000454E442095
:1028E000535542524F5554494E450A002220706FAD
:1028F00073002220706172656E743A220053554253
:10290000524F5554494E452043414C4C20746172FE
:102910006765743A2200454D455247454E4349414B
:102920002E2000747279696E6720746F2063616C69
:102930006C207375622D67636F64652066696C65D2
:1029400073207769746820746F6F206D616E7920D1
:102950006C6576656C732E204D4158206C657665EC
:102960006C2069733A004572726F723A00544845A0
:10297000524D414C2052554E4157415900546865C3
:10298000726D616C2052756E61776179004D61786E
:102990002054656D703A20313330004D696E2054FB
:1029A000656D703A203500544265643A3130304BE1
:1029B00020312520626574612033393530004D6146
:1029C000782054656D703A20323735004D696E209D
:1029D00054656D703A20350054303A2041544320FC
:1029E00031303447542D32005053553A2047656EEC
:1029F000657269630050726F746F636F6C3A203157
:102A00002E3000426175643A203131353230300069
:102A10005A4F4E4553544152204C4344313238367C
:102A200034005A52494220626F617264004C696EF0
:102A3000656172204C6576656C696E6700457874D7
:102A40007275646572733A203200687474703A2F3C
:102A50002F7777772E7A6F6E657374617233642E79
:102A6000636F6D005A31304D3200323031382D30C5
:102A7000382D32340042617365206F6E204D6172D3
:102A80006C696E312E312E380056322E3400486576
:102A9000617465722054657374696E67004D3130DE
:102AA0003420533236300A4D3134302053313135F1
:102AB0000A4D3130362053300A004175746F20556D
:102AC0007020646F776E004D3230332058313530CE
:102AD0002059313530205A31360A473020583330AA
:102AE000302059333030205A343030204639363097
:102AF0000A4730205830205930205A31302046398A
:102B000036300A47302058333030205933303020A7
:102B10005A34303020463936300A47302058302079
:102B20005930205A313020463936300A4730205843
:102B30003330302059333030205A34303020463949
:102B400036300A4730205830205930205A31302052
:102B5000463936300A473020583330302059333028
:102B600030205A34303020463936300A4730205829
:102B700030205930205A313020463936300A47301B
:102B800020583330302059333030205A3430302000
:102B9000463936300A4730205830205930205A31D3
:102BA0003020463936300A4732380A4D3230332029
:102BB000583135302059313030205A380A4D3330B1
:102BC00030205333303030205031303030004661C7
:102BD000737420746F20426F74746F6D004D3230C7
:102BE0003320583135302059313530205A31360AAA
:102BF0004732382058300A4730205A30204639367C
:102C0000300A4D3230332058313530205931303090
:102C1000205A380A004661737420746F20546F7014
:102C2000004D323033205831353020593135302085
:102C30005A31360A47302058313530205931353035
:102C4000205A34303020463936300A4D3230332065
:102C5000583135302059313030205A380A00497205
:102C60002070617261206F726967656D004732384C
:102C7000005072696E7465722053746174730054ED
:102C80006865726D6973746F727300426F6172640C
:102C900020496E666F005072696E74657220496ECD
:102CA000666F004D656E75207072696E6369706144
:102CB0006C0020204E6F7A7A6C653A20002000422A
:102CC00061636B004D696E696D756D2054656D7043
:102CD000206973203135302E004171756563696D4F
:102CE000656E746F2066616C686F750045787472EC
:102CF000756465206D6F726500526573756D652032
:102D00007072696E7400524553554D45204F5054B2
:102D1000494F4E533A0020204E6F7A7A6C653A2024
:102D2000006368616E6765006F6620746865206681
:102D3000696C616D656E74005761697420666F72AD
:102D4000207374617274005052494E5420504155A2
:102D50005345440020204E6F7A7A6C653A2000205B
:102D60000066696C616D656E7420756E6C6F616470
:102D7000005761697420666F72005052494E5420AA
:102D80005041555345440048617264636F64656403
:102D90002044656661756C742053657474696E6750
:102DA00073204C6F616465640A00D00700009001D5
:102DB00000006400000088130000000016430000BB
:102DC000C84200000041000048420000A04200004C
:102DD000A0420000C8430000AA4220204D383531EF
:102DE000205A005A2D50726F6265204F66667365D7
:102DF0007420286D6D293A0A0020440020490020E3
:102E0000204D333031205000504944207365747494
:102E1000696E67733A0A002046002042002048008D
:102E200020204D3134352053004D61746572696145
:102E30006C2068656174757020706172616D657475
:102E40006572733A0A00205A0020204D363636004B
:102E5000456E6473746F702061646A7573746D6518
:102E60006E743A0A0020204D3432302053004175F0
:102E7000746F20426564204C6576656C696E673AB4
:102E80000A00205A0020590020204D3230362058A8
:102E900000486F6D65206F66667365743A0A00209E
:102EA0004500205A0020590020580020420020549C
:102EB0000020204D323035205300416476616E632E
:102EC00065643A20533C6D696E5F66656564726146
:102ED00074653E20543C6D696E5F74726176656CFA
:102EE0005F66656564726174653E20423C6D696E23
:102EF0005F7365676D656E745F74696D655F75732B
:102F00003E20583C6D61785F78795F6A65726B3EF0
:102F1000205A3C6D61785F7A5F6A65726B3E20452E
:102F20003C6D61785F655F6A65726B3E0A00205494
:102F30000020520020204D32303420500041636385
:102F4000656C65726174696F6E2028756E69747343
:102F50002F7332293A20503C7072696E745F61633E
:102F600063656C3E20523C726574726163745F618C
:102F70006363656C3E20543C74726176656C5F617E
:102F80006363656C3E0A00204500205A002059000A
:102F900020204D3230312058004D6178696D756DBB
:102FA00020416363656C65726174696F6E2028757A
:102FB0006E6974732F7332293A0A00204500205A33
:102FC0000020590020204D3230332058004D6178C8
:102FD000696D756D2066656564726174657320281E
:102FE000756E6974732F73293A0A00204500205AC0
:102FF0000020590020204D3932205800537465704C
:10300000732070657220756E69743A0A0020204D35
:103010003230302044300A0020204D3230302044FD
:10302000002044697361626C65640A0046696C61E2
:103030006D656E742073657474696E67733A0020F1
:10304000204D3134392043203B20556E6974732064
:10305000696E2043656C736975730A0020204732DE
:1030600031202020203B20556E69747320696E202A
:103070006D6D0A0050726F62696E67206661696CDF
:1030800065640A0050726F62696E67206661696CE0
:10309000656400205A3A200020593A2000426564B5
:1030A00020583A2000486F6D6520257325732573DD
:1030B000206669727374002066697273740A005A1C
:1030C0000059005800486F6D65200053442063612B
:1030D0007264206F6B0A006F70656E526F6F7420A0
:1030E0006661696C65640A00766F6C756D652E6942
:1030F0006E6974206661696C65640A0053442069D6
:103100006E6974206661696C0A0000002100240069
:1031100027002A002D0030003300010100000401C7
:1031200007010A0100002200250028002B002E00C4
:103130003100340002010000050108010B0100000C
:1031400020002300260029002C002F00320000015F
:10315000000003010601090105050505070508082A
:103160000808020202020A0A080804040404010111
:103170000101010101010303030303030303040726
:1031800007070C0C0C0C0C0C0C0C020202020606BD
:103190000606060606060B0B0B0B0B0B0B0B0102B0
:1031A0001020200808102040102040800201020159
:1031B0000804020101020408102040808040201011
:1031C000080402018004020180402010080402016A
:1031D00008040201010204081020408001020408D2
:1031E0001020408000000A0B02090C0D0E08070396
:1031F00004010000000000000000000000000000CA
:1032000000000000000000000000000000000000BE
:10321000121110000000000000000000000000007B
:1032200000000000000000000000024175746F20E3
:103230004D6978204D6F6465004175746F204D694C
:1032400078204D6F64650054726F63617220666907
:103250006C616D656E746F00426162797374657044
:10326000205A00466C75786F00466C75786F005672
:10327000656C2E2076656E746F696E6861005665A8
:103280006C2E2076656E746F696E6861000820424E
:1032900061736500082042617365004531205072FA
:1032A0006563656E740045312050726563656E74A8
:1032B0000008204269636F0008204269636F00566E
:1032C000656C6F6369646164650056656C6F636902
:1032D00064616465004D656E75207072696E636926
:1032E00070616C005072652D617175656365722047
:1032F000504C4120456E64005072652D61712E2046
:10330000504C41200842617365005072652D617117
:10331000756563657220504C410050726570617232
:103320006172005072652D6171756563657220412F
:10333000425320456E64005072652D61712E20410C
:103340004253200842617365005072652D617175AA
:10335000656365722041425300507265706172610D
:1033600072004572723A20542042617365204D69A3
:103370006E696D61004572723A2054204D696E6924
:103380006D61004D494E54454D5020747269676718
:1033900065726564004572723A205420426173651B
:1033A000204D6178696D61004572723A2054204D5C
:1033B0006178696D61004D415854454D50207472DB
:1033C0006967676572656400202F002042403A00FB
:1033D00020403A0043616E6E6F74206F70656E20FE
:1033E00073756264697220006563686F3A0010004B
:1033F000C90210012C014001220170011801B00125
:103400000E01F00104015002FA00B002F000300396
:10341000E600D003DC009004D2007005C800A006CE
:10342000BE000008B400B009AA00D00BA000600ED6
:10343000960060118C000015820020197800C01DD4
:103440006E00A0226400B0275A00902C500000317A
:103450004600E0343C0010383200903A2800603CCE
:103460001E00A03D1400803E0A00203F000056547C
:10347000726176206D696E005654726176206D69B6
:103480006E005654726176206D696E00566D696EDD
:1034900000566D696E00566D696E0020566D61783C
:1034A00020450020566D617820450020566D6178DA
:1034B00020450020566D6178205A0020566D6178B5
:1034C000205A0020566D6178205A0020566D617890
:1034D00020590020566D617820590020566D617882
:1034E00020590020566D617820580020566D617873
:1034F00020580020566D61782058004D6F76696D18
:10350000656E746F00416D6178204500416D617892
:10351000204500416D6178205A00416D6178205A44
:1035200000416D6178205900416D6178205900415A
:103530006D6178205800416D6178205800412D6DF3
:103540006F76696D656E746F00412D6D6F76696D74
:10355000656E746F00412D72657472616363616F93
:1035600000412D72657472616363616F0041636332
:1035700000416363004D6F76696D656E746F005036
:1035800072696E7420706175736564004D313235F7
:1035900000004D323400496D7072657373616F20A5
:1035A00063616E63656C6164610053656D20636186
:1035B0007274616F20534400496D7072696D697255
:1035C00020646F20534400506172617220696D70F5
:1035D00072657373616F005265746F6D61722069FB
:1035E0006D7072657373616F0041626F7574205006
:1035F00072696E7465720050617573617220696DD5
:103600007072657373616F00436F6E74726F6C6F6D
:10361000005072657061726172004166696E61721C
:10362000004D6F6E69746F72697A617200426162F7
:103630007973746570205A004D3630302042300066
:103640006D0046696C616D656E7420757365643AD2
:10365000200053746174733A20002C204C6F6E6705
:10366000657374206A6F623A2000546F74616C2035
:1036700074696D653A200053746174733A20002CAC
:10368000204661696C65643A20002C2046696E69A9
:10369000736865643A20005072696E74733A200052
:1036A00053746174733A2000452569202573006FB7
:1036B0006B00060606060600000000006265640A4C
:1036C000002C2073797374656D2073746F7070654E
:1036D0006421204865617465725F49443A20004165
:1036E00071756563696D656E746F2066616C686F76
:1036F000750048656174696E67206661696C656410
:10370000001000AA038000400100012C01B001223A
:103710000140021001F00202018003F8004004F5AC
:1037200000E004ED009005E4003006DD00E006D77F
:10373000008007D1003008CC00D008C7007009C352
:1037400000100ABE00B00ABB00500BB700900CB3CB
:1037500000D00DAA00B00FA5005010A000101496C4
:10376000009016900010198C00501A8500301C82B1
:103770000070227800B023750040256E0020276974
:1037800000A0296400502A5F00902B5A00D02C55CD
:1037900000702D4F00E02E4800503145003033417D
:1037A00000D03539006036370010373300F0382D3F
:1037B00000A0392700803C1C00403D1700F03D115F
:1037C00000803E0900D03FE5FF00C600C80011247C
:1037D0001FBECFEFD1E2DEBFCDBF00E00CBF13E0D4
:1037E000A0E0B2E0ECEAFEE402E00BBF02C007900A
:1037F0000D92A83CB107D9F725E1A8ECB3E001C0D0
:103800001D92AC39B207E1F71BE1C6EEDBE100E047
:1038100006C021970109802FFE010F94BA26C53EEC
:10382000D10780E00807A9F70F94AE0F0D94452744
:103830000C9400002F923F924F925F926F927F9272
:103840008F929F92AF92BF92CF92DF92EF92FF92B0
:103850000F931F93CF93DF93CDB7DEB7C05AD10933
:103860000FB6F894DEBF0FBECDBF809195158D3495
:1038700009F478C7843511F40C94B335873411F00A
:103880000C94EC3580919315909194158B319105A2
:1038900009F43EC67CF4843091053CF482309105F5
:1038A00094F597FF29C00C940636049709F4E9C5EE
:1038B0000C9406368E31910509F45FC664F48C31A0
:1038C000910509F455C64D9711F00C9406360E94E7
:1038D000E4490C9406368B35910509F4BDC68C3548
:1038E000910509F4BEC68A35910511F00C9406368F
:1038F0001092CC030C9406368091A40281110C9492
:1039000009360C9406362091A402222311F40C945B
:10391000063611E0029709F010E00E94664382E546
:103920000E945A43882309F45CC10E94F8426B014B
:103930007C014090D00D5090D10D6090D20D7090D0
:10394000D30D2091D40D3091D50D4091D60D5091CD
:10395000D70D2B962CAF3DAF4EAF5FAF2B9780911D
:10396000080590910905A0910A05B0910B052F96C5
:103970008CAF9DAFAEAFBFAF2F9720910C053091AC
:103980000D0540910E0550910F056B962CAF3DAF84
:103990004EAF5FAF6B9720E030E0A901C701B601E1
:1039A0000F94551F882309F452C5A30192012F9645
:1039B0006CAD7DAD8EAD9FAD2F970F94551F8111CE
:1039C00011C02B962CAD3DAD4EAD5FAD2B976B96D8
:1039D0006CAD7DAD8EAD9FAD6B970F94551F882359
:1039E00009F435C520E030E0A901C701B6010F9404
:1039F000551F881F8827881F18130BC080E090E090
:103A0000A0E8BFE3A3968CAF9DAFAEAFBFAFA397C7
:103A10000AC020E030E040E85FEBA3962CAF3DAF5A
:103A20004EAF5FAFA397A30192012F966CAD7DAD12
:103A30008EAD9FAD2F970F94BE2367966CAF7DAF71
:103A40008EAF9FAF67972B962CAD3DAD4EAD5FAD62
:103A50002B976B966CAD7DAD8EAD9FAD6B970F9434
:103A6000BE236F966CAF7DAF8EAF9FAF6F9767969B
:103A70002CAD3DAD4EAD5FAD6797CA01B9010F9456
:103A8000BA1F4B015C016F962CAD3DAD4EAD5FADE5
:103A90006F97CA01B9010F94BA1F9B01AC01C50110
:103AA000B4010F94BF230F942A2663966CAF7DAFA9
:103AB0008EAF9FAF639720E030E040E05FE30F946C
:103AC000BA1F4B015C01A7019601C701B6010F9413
:103AD000BA1F6B017C01A5019401C501B4010F94CB
:103AE000BA1F9B01AC01C701B6010F94BE230F940E
:103AF0002A269B01AC01A3966CAD7DAD8EAD9FAD2A
:103B0000A3970F94BA1F4B015C012F962CAD3DADCE
:103B10004EAD5FAD2F97C301B2010F94BF2320E0DC
:103B200030E040E05FE30F94BA1F6B017C016F96B9
:103B30006CAD7DAD8EAD9FAD6F97905863962CADFB
:103B40003DAD4EAD5FAD63970F949B249B01AC01DF
:103B5000C501B4010F94BA1F9B01AC01C701B601A6
:103B60000F94BF23A30192010F94BE236B017C012C
:103B70006B962CAD3DAD4EAD5FAD6B972B966CAD9E
:103B80007DAD8EAD9FAD2B970F94BF2320E030E02D
:103B900040E05FE30F94BA1F2B013C0163962CAD0C
:103BA0003DAD4EAD5FAD639767966CAD7DAD8EADAF
:103BB0009FAD67970F949B249B01AC01C501B40195
:103BC0000F94BA1F9B01AC01C301B2010F94BF2334
:103BD0002B962CAD3DAD4EAD5FAD2B970F94BE2314
:103BE00014C089E40E945A43882329F00E94F842B5
:103BF0006B017C0103C0C12CD12C76018AE40E94A8
:103C00005A438823F9F00E94F8426B966CAF7DAF5F
:103C10008EAF9FAF6B9720E030E0A901C701B601DE
:103C20000F94551F81111EC020E030E0A9016B9652
:103C30006CAD7DAD8EAD9FAD6B970F94551F81110F
:103C400011C005C420E030E0A901C701B6010F94FE
:103C5000551F882309F4FBC36B961CAE1DAE1EAE28
:103C60001FAE6B97D701C601B0582B968CAF9DAF96
:103C7000AEAFBFAF2B976B962CAD3DAD4EAD5FADEC
:103C80006B9750582F962CAF3DAF4EAF5FAF2F972D
:103C90009C01AD01BC01CD010F94BA1F4B015C0129
:103CA0002F962CAD3DAD4EAD5FAD2F97CA01B9013A
:103CB0000F94BA1F9B01AC01C501B4010F94BF233F
:103CC0000F942A26E3966CAF7DAF8EAF9FAFE3973C
:103CD0008091D00D9091D10DA091D20DB091D30DC6
:103CE00063968CAF9DAFAEAFBFAF6397A701960150
:103CF000BC01CD010F94BF23A3966CAF7DAF8EAFF7
:103D00009FAFA3972091D40D3091D50D4091D60D42
:103D10005091D70D6F962CAF3DAF4EAF5FAF6F9701
:103D20006B962CAD3DAD4EAD5FAD6B976F966CADA8
:103D30007DAD8EAD9FAD6F970F94BF23A7966CAFEF
:103D40007DAF8EAF9FAFA797809108059091090531
:103D5000A0910A05B0910B05AB968CAF9DAFAEAFAD
:103D6000BFAFAB97A3962CAD3DAD4EAD5FADA39766
:103D7000BC01CD010F94BE236B017C0120910C0589
:103D800030910D0540910E0550910F05AF962CAF67
:103D90003DAF4EAF5FAFAF97A7962CAD3DAD4EADEB
:103DA0005FADA797AF966CAD7DAD8EAD9FADAF9774
:103DB0000F94BE234B015C018091D80D9091D90DD9
:103DC000A091DA0DB091DB0DEB968CAF9DAFAEAF4D
:103DD000BFAFEB979C01AD0160911005709111058B
:103DE00080911205909113050F94BE2367966CAFD6
:103DF0007DAF8EAF9FAF6797209114053091150569
:103E00004091160550911705E7962CAF3DAF4EAF88
:103E10005FAFE7978091DC0D9091DD0DA091DE0DF5
:103E2000B091DF0DEF968CAF9DAFAEAFBFAFEF9708
:103E3000A70196012B966CAD7DAD8EAD9FAD2B97F6
:103E40000F94BA1F2B013C01A50194012F966CAD74
:103E50007DAD8EAD9FAD2F970F94BA1F9B01AC0126
:103E6000C301B2010F94BF232B013C01A5019401B2
:103E70002B966CAD7DAD8EAD9FAD2B970F94BA1F79
:103E80004B015C01A70196012F966CAD7DAD8EAD07
:103E90009FAD2F970F94BA1F9B01AC01C501B401D0
:103EA0000F94BE23A30192010F9432246B017C0175
:103EB00020E030E0A9010F94551F87FF0AC02BEDC9
:103EC0003FE049EC50E4C701B6010F94BF236B01FA
:103ED0007C01112351F02BED3FE049EC50E4C70188
:103EE000B6010F94BE236B017C0120E030E0A901F4
:103EF000C701B6010F94551F811128C0AB962CAD98
:103F00003DAD4EAD5FADAB9763966CAD7DAD8EAD07
:103F10009FAD63970F94551F811118C0AF962CADBC
:103F20003DAD4EAD5FADAF976F966CAD7DAD8EADD7
:103F30009FAD6F970F94551F811108C02BEDC22EB6
:103F40002FE0D22E29ECE22E20E4F22EE3962CADC7
:103F50003DAD4EAD5FADE397C701B6010F94BA1FFB
:103F60009B01AC010F94BA1F4B015C0167962CAD0D
:103F70003DAD4EAD5FAD6797CA01B9010F94BA1F51
:103F80009B01AC01C501B4010F94BF230F942A26F5
:103F90004B015C012FE632E143E85AE30F94551FD1
:103FA00087FD51C2C501B4010F9434250F94082533
:103FB0001B01672B19F422242394312CB10180E0DA
:103FC00090E00F94591F4B015C019B01AC01C701AC
:103FD000B6010F949B2463966CAF7DAF8EAF9FAFFD
:103FE0006397A501940167966CAD7DAD8EAD9FADD5
:103FF00067970F949B24E3966CAF7DAF8EAF9FAF16
:10400000E397EF962CAD3DAD4EAD5FADEF97E796E4
:104010006CAD7DAD8EAD9FADE7970F94BE23A5012E
:1040200094010F949B24E7966CAF7DAF8EAF9FAF4A
:10403000E79763962CAD3DAD4EAD5FAD6397CA017A
:10404000B9010F94BA1F20E030E040E05FE30F9425
:10405000BA1F9B01AC0160E070E080E89FE30F9421
:10406000BE23AB966CAF7DAF8EAF9FAFAB97EB9699
:104070002CAD3DAD4EAD5FADEB9729873A874B87B1
:104080005C87EF968CAD9DADAEADBFADEF978D87E4
:104090009E87AF87B88B6091890270918A02072E44
:1040A000000C880B990B0F945B1F20913A02309102
:1040B0003B0240913C0250913D020F94BA1F2AE00E
:1040C00037ED43E25CE30F94BA1F6BAF7CAF8DAF6B
:1040D0009EAF0E94E0E49B01AC0128533F4F4F4F3D
:1040E0005F4FAF962CAF3DAF4EAF5FAFAF97289607
:1040F0004FAC289729965FAC29972A966FAC2A97E0
:104100002B967FAC2B9741E050E06D965FAF4EAFA2
:104110006D9759E164965FAF64976D96AEADBFAD94
:104120006D97A215B30509F454C10F9452060E946D
:10413000E0E4DC01CB01AF962CAD3DAD4EAD5FAD03
:10414000AF97821B930BA40BB50BB7FD11C00E9458
:10415000E0E49B01AC0128533F4F4F4F5F4FAF96B8
:104160002CAF3DAF4EAF5FAFAF9780E00E94F966D6
:1041700064963FAD6497315064963FAF64973323A4
:1041800009F44BC0AB962CAD3DAD4EAD5FADAB97DA
:104190002F966CAD7DAD8EAD9FAD2F970F94BA1F4E
:1041A0006B017C0163962CAD3DAD4EAD5FAD639769
:1041B000B201C3010F94BA1FA70196010F94BF2348
:1041C0007B018C01AB962CAD3DAD4EAD5FADAB9799
:1041D000B201C3010F94BA1F4B015C0163962CAD71
:1041E0003DAD4EAD5FAD63972F966CAD7DAD8EADA1
:1041F0009FAD2F970F94BA1F9B01AC01C501B4016D
:104200000F94BE232B013C01C701D8012F968CAF20
:104210009DAFAEAFBFAF2F9761C06D964EAD5FAD96
:104220006D97BA0180E090E00F94591F63962CAD12
:104230003DAD4EAD5FAD63970F94BA1F4B015C016E
:104240000F9498246B017C01C501B4010F942026C2
:104250004B015C01A70196012B966CAD7DAD8EAD37
:104260009FAD2B970F94BA1F2B013C01A501940120
:104270006B966CAD7DAD8EAD9FAD6B970F94BA1FF5
:104280009B01AC01C301B2010F94BF232B013C0180
:10429000A50194012B966CAD7DAD8EAD9FAD2B9796
:1042A0000F94BA1F4B015C01A70196016B966CAD90
:1042B0007DAD8EAD9FAD6B970F94BA1F9B01AC0186
:1042C000C501B4010F94BE232F966CAF7DAF8EAFA6
:1042D0009FAF2F9759E164965FAF64979201A30156
:1042E000A3966CAD7DAD8EAD9FADA3970F94BF230C
:1042F00069837A838B839C832F962CAD3DAD4EAD25
:104300005FAD2F97A7966CAD7DAD8EAD9FADA79796
:104310000F94BF236D837E838F839887E3962CADA4
:104320003DAD4EAD5FADE39769857A858B859C8504
:104330000F94BF2369877A878B879C87E7962CAD7C
:104340003DAD4EAD5FADE7976D857E858F859889D4
:104350000F94BF236D877E878F87988BCE01019640
:104360000E94516C89819A81AB81BC8188A399A3F9
:10437000AAA3BBA38D819E81AF81B8858CA39DA389
:10438000AEA3BFA389859A85AB85BC8588A799A76D
:10439000AAA7BBA7CE0180960E94F544E12C8E010E
:1043A000055C1F4F9E01235F3F4FAE01485D5F4F8D
:1043B000BE016C5D7F4FCE0180960E94DB7B6D96C7
:1043C0008EAD9FAD6D9701966D969FAF8EAF6D9739
:1043D000A4CE8091080590910905A0910A05B0919D
:1043E0000B0588A399A3AAA3BBA380910C05909168
:1043F0000D05A0910E05B0910F058CA39DA3AEA352
:10440000BFA38091100590911105A0911205B09164
:10441000130588A799A7AAA7BBA7CE0180960E94DB
:10442000F544E12C8E01055C1F4F24E135E0AE011F
:10443000485D5F4FBE016C5D7F4FCE0180960E944C
:10444000DB7B0E9407450E9411450C940636E6E688
:10445000F9E284918F010F5F1F4F882321F00E94A2
:10446000E445F801F6CFE9E0F2E084918F010F5FB7
:104470001F4F882311F40C9406360E94E445F8017E
:10448000F4CF80E50E945A43882329F00E94B84265
:104490006B017C0103C0C12CD12C760183E50E9405
:1044A0005A43882361F00E94F84220E030E04AE756
:1044B00054E40F94BA1F0F9408256B017C010F94EC
:1044C0001F0880913F02811105C060E08FE192E0FA
:1044D0000E946DBC0E9411458091E8049091E9040E
:1044E000A091EA04B091EB04C80ED91EEA1EFB1E8F
:1044F0000E94E0E4DC01CB018C199D09AE09BF09E3
:10450000B7FD02C00C94063680E00E94F966F0CF39
:104510000E9470DE81110C94063680E090E0ACE0E1
:10452000B2EC89839A83AB83BC8380E090E0A0E205
:10453000B1E48D839E83AF83B88780E090E0A0EAEA
:10454000B1E489879A87AB87BC8780E50E945A438C
:10455000882319F00E94C84201C060E068A3BE0130
:104560006F5F7F4FCE0180960F94D80A0C94063669
:1045700080E00E9454450C940636C090D00DD09037
:10458000D10DE090D20DF090D30D88E50E945A43F2
:10459000811109C020E030E040EF51E4C701B601CD
:1045A0000F94BF2302C00E94F84268A379A38AA394
:1045B0009BA3C090D40DD090D50DE090D60DF09077
:1045C000D70D89E50E945A43811108C020E030E0F0
:1045D000A901C701B6010F94BF2302C00E94F8428F
:1045E0006B017C0169837A838B839C8388A099A06B
:1045F000AAA0BBA02FE632E143E85AEBC501B40103
:104600000F94E52587FF02C00C94063621E230E0C6
:104610004BE953E4C501B4010F94551F181614F467
:104620000C9406362FE632E143E85AEBC701B60197
:104630000F94E52587FF02C00C94063621E230E096
:104640004BE953E4C701B6010F94551F181614F433
:104650000C9406360C94B63681E08093CC030C940F
:1046600006360F941F0809EA202E02E0302E80EF54
:10467000C82E84E0D82EE12CF12C00E010E0289622
:104680001FAE2897F10181911F010E945A43882390
:1046900009F452C00E94F8424B015C01033011053D
:1046A00059F0F701E055F24F208131814281538169
:1046B0000F94BE234B015C01F701E053F24F2081C0
:1046C000318142815381C501B4010F94BE232B0176
:1046D0003C012DEB37E346E855EB0F94E52587FDCC
:1046E0000AC02DEB37E346E855E3C301B2010F944E
:1046F000551F18160CF50330110569F48092DC0D76
:104700009092DD0DA092DE0DB092DF0DF1E02896C3
:10471000FFAF289711C0A3019201D6016D917D9141
:104720008D919C910F94BF23F601608371838283E6
:104730009383C8010E948E400F5F1F4FF4E0CF0E9D
:10474000D11C24E0E20EF11C0430110509F09ACFCF
:1047500028963FAD289731110E9469DF0E943A9355
:104760000C94063680919315909194158737910596
:1047700009F4ADC60CF0D2C08D34910509F41FC503
:104780000CF055C08931910509F4EBC21CF5843158
:10479000910509F467C27CF48131910509F44EC298
:1047A0002CF4029708F4C4C10C940636429709F41D
:1047B00061C50C9406368631910509F49CC20CF44F
:1047C00096C28731910509F49CC2489709F4AFC29B
:1047D0000C9406368F31910509F481C47CF48B3139
:1047E000910509F4DCC20CF4CCC28C31910509F4BA
:1047F00012C34E9709F419C30C9406368A329105F8
:1048000009F499C42CF4809709F41FC40C9406365B
:104810008B34910509F4CFC48C34910511F00C94BC
:1048200006368BEE90E10F94BF070C9406368A365D
:10483000910509F4F8C4E4F58435910509F41AC525
:10484000E4F48135910509F4FAC44CF48E349105F1
:1048500011F00C9406360F9456010C9406368235EE
:10486000910509F403C58335910511F00C940636C2
:1048700081E08093CB030C9406368C35910509F4C6
:10488000FDC44CF48535910511F00C9406360E9458
:1048900043940C9406368836910509F494C48936FD
:1048A000910511F00C9406360F94F5000C94913A92
:1048B0008F36910509F48BC49CF48C36910509F46C
:1048C0008AC40CF4B4C48D36910509F48CC48E36B8
:1048D000910511F00C9406360E9442950C94063610
:1048E0008337910509F453C57CF48037910509F4A9
:1048F00076C48237910511F00C9406360F941F0888
:104900000E943A930C9406368537910509F493C5B5
:104910008637910509F498C50C940636823241E039
:10492000940711F40C94692D0CF074C08E3B910522
:1049300009F45DC49CF58139910509F477C69CF4AE
:104940008937910509F46CC60CF463C68D3791055F
:1049500009F471C48C38910511F00C9406360E944C
:10496000B4940C940636833A910509F4D9C64CF4F4
:104970008B39910511F00C9406360E9438970C94EF
:104980000636843A910509F4FFC6893A910511F07B
:104990000C9406360E9448900C9406368D3C910586
:1049A00009F4FEC6DCF4893C910509F4F1C64CF427
:1049B000883C910511F00C9406360E9420920C94CC
:1049C00006368B3C910509F4E7C68C3C910511F045
:1049D0000C9406360E9470910C9406368C3D91051D
:1049E00009F4EFC764F48E3C910509F4DDC6833DFC
:1049F000910511F00C940636E8EEF3E303C78D3D04
:104A0000910509F4EDC7823E910511F40C943A2DFD
:104A10000C940636843AA1E09A0711F40C948B3278
:104A20000CF041C08336E1E09E0711F40C9485350B
:104A3000DCF48D3221E0920711F40C94A12D3CF4AA
:104A40008C32914011F40C94772D0C9406368E32F2
:104A500051E0950711F40C943F2E8F32914011F4E0
:104A60000C94932E0C9406368139B1E09B0711F417
:104A70000C9483324CF48039914011F00C9406363A
:104A80000F941F080C940636823921E0920711F426
:104A90000C9487328A39914011F00C9406360E94AA
:104AA000CC900C940636873F41E0940711F40C94A7
:104AB000FA33ECF4843FA1E09A0711F40C94F43338
:104AC0003CF48C3A914011F40C940B330C94063660
:104AD000853FF1E09F0711F40C94F733863F914036
:104AE00011F00C9406360E9409DA0C9406368335D0
:104AF00033E0930711F40C94063474F4883552E0D3
:104B0000950711F40C9460348A39924011F00C949A
:104B10000636E2E4F5E04CC6803AB3E09B0709F4C0
:104B2000D1C2873E934011F40C949E350C94063606
:104B3000A0909115B090921580E50E945A43882369
:104B400059F00E94B8426B017C0111E0672B682B81
:104B5000692B31F410E004C010E0C12CD12C760197
:104B600083E50E945A438823F1F00E94F84220E036
:104B700030E04AE754E40F94BA1F0F9408256B0104
:104B80007C01111112C0672B682B692B71F4A114E1
:104B9000B10459F0D5018C91882339F061E0C50149
:104BA0000E948DBC07C0112391F360E080E692E083
:104BB0000E946DBC81E0809308080F941F080E943A
:104BC0001145C114D104E104F104F1F08091E8042D
:104BD0009091E904A091EA04B091EB04C80ED91EAB
:104BE000EA1EFB1E0E94E0E4DC01CB018C199D094A
:104BF000AE09BF09B7FF1EC0809108088823D1F015
:104C000080E00E94F966EECF80910808882321F0A9
:104C100080E00E94F966F8CF8091EB109091EC1043
:104C200060E0029719F482E592E002C08EE392E020
:104C30000E946DBC109208080C94063660E082E772
:104C400092E00E946DBC5F988A989FB7F89480911B
:104C500008018E7F809308019FBF10981298479893
:104C60000C940636EFE8F2E084918F010F5F1F4F3E
:104C7000882321F00E94E445F801F6CF1092C61374
:104C80001092C51340E050E0BA0187E491E10E9420
:104C9000BE5B8BE1E7E4F1E1DE01159601900D9238
:104CA0008A95E1F780914511909146119C838B8301
:104CB0008BEF92E09A83898340E050E0BE016F5F02
:104CC0007F4F8EEB93E00E9404F0CE0101960E948C
:104CD0005C66E0E8F2E084918F010F5F1F4F88234C
:104CE00011F40C9406360E94E445F801F4CF0E94BA
:104CF00044DD0C94063610921611109217110C9484
:104D00000636E0919115F09192158081882329F063
:104D1000803209F410823196F8CF40E061E0809152
:104D20009115909192150E9483CB0C9406361982AE
:104D30001A821B821C8218A219A21AA21BA280919D
:104D40001805882341F040E0BE016F5F7F4FCE0120
:104D500080960E94456B0E9471CB0E940DDF0C94DF
:104D60000636109216118BEE90E10F94BF0780EA81
:104D700092E09093980D8093970D0E94EB400C94D5
:104D8000063680911711882311F40C94063683E5BA
:104D90000E945A4381110C940D370C940636809171
:104DA0001711882351F1E5EAF2E084918F010F5F3A
:104DB0001F4F882321F00E94E445F801F6CF60914F
:104DC000BC137091BD138091BE139091BF134AE044
:104DD0000E94B9488FE20E94E4456091B813709137
:104DE000B9138091BA139091BB134AE00E94B9485D
:104DF0008AE00E94E4450C940636E7EBF2E08491E9
:104E00008F010F5F1F4F882311F40C9406360E9408
:104E1000E445F801F4CF40E060E080919115909175
:104E200092150E9483CB0C9406368091171188232B
:104E300011F40C9406368BE093E10E94545F8BE0F2
:104E400093E10E94855F1092151110921411E09069
:104E50009115F090921580911711882311F40C94FC
:104E600006360E9418C91D8218861C821B828BEF91
:104E700092E09A83898383E491E190936311809314
:104E80006211F70180818F3209F068C06FE270E033
:104E9000C7010F9402278C010F5F1F4F9E012F5FE8
:104EA0003F4F49010115110509F45EC06FE270E042
:104EB000C8010F9402276C01009709F456C0081727
:104EC000190708F052C05C01A01AB10AA501B80187
:104ED000CE0180960F942B27E0E2F0E0EC0FFD1F4F
:104EE000EA0DFB1D10828E01005E1F4FD8018D91CF
:104EF0008D01882319F00E94E445F8CF8AE00E94D2
:104F0000E44560916211709163116115710511F0B2
:104F10006C5F7F4F21E0AE01405E5F4FCE01059692
:104F20000E947261811112C0BE01605E7F4F8EEEE1
:104F300092E00E94C8798EE20E94E4458AE00E94D5
:104F4000E445C4010E945C660C940636909263119D
:104F50008092621186010F5F1F4FA4CF84E691E11A
:104F60009093631180936211870160916211709137
:104F700063116115710511F06C5F7F4F18A21BA2C0
:104F800022E0A801CE0180960E947261811102C0C8
:104F9000F12C14C0CE0180960E9472EF8823C1F3D9
:104FA00061E0CE0180960E94D75E009789F325EEDE
:104FB000FC0120831BA20E947F59F82ECE0180960F
:104FC0000E94E644FF2019F1E8ECF2E084917F01B1
:104FD0002FEFE21AF20A882321F00E94E445F7013C
:104FE000F5CFD8018D918D01882319F00E94E445F9
:104FF000F8CF8AE00E94E4451092BC131092BD13D2
:105000001092BE131092BF130E9467C818C0E6ED3D
:10501000F2E084917F01BFEFEB1AFB0A882321F0B5
:105020000E94E445F701F5CFF80181918F018823B3
:1050300019F00E94E445F8CF8EE20E94E445CE01CB
:1050400001960E945C660C940636809116118111BF
:105050000F941F0880911711882311F40C940636C1
:1050600080E50E945A43882319F00E94E94203C058
:1050700080E50E942B43182F482F61E08091911505
:10508000909192150E9483CB83E50E945A43882316
:1050900081F00E94C842AB01BC014093BC13509305
:1050A000BD136093BE137093BF138BE093E10E9416
:1050B000BE5B0E9471CB11110C9406360E940DDF6D
:1050C0000C940636809191159091921521E02093D1
:1050D000151140E060E00E9483CB0C9406368BEE05
:1050E00090E10F94920768A379A38AA39BA3BE01C2
:1050F0006F5F7F4FCE0180960E94264460E0CE0114
:1051000001960E948DBCE8EEF3E384918F010F5F5E
:105110001F4F882321F00E94E445F801F6CFBE011D
:105120006F5F7F4F82E093E00E94C8798AE00E941F
:10513000E4450C94063683E50E945A43882311F413
:105140000C9406360E94D842E82E80E50E945A430D
:10515000882341F00E94C8428B0177FF02C00C9463
:10516000063602C00DE010E0902FE9E9F5E08EE28E
:105170008E0F2491921729F031968E13FACF0C944A
:105180001E37E6E6F9E284918F010F5F1F4F8823F7
:1051900021F00E94E445F801F6CFEFE0F3E08491BE
:1051A0008F010F5F1F4F882311F40C9406360E9465
:1051B000E445F801F4CF0E940DDF0C9406360E94FE
:1051C00023C90C9406360F9412010C9406360E94E3
:1051D000CB940C9406361092A1020C9406368EE104
:1051E00093E00E948E660E9452950C940636809140
:1051F0000A1583FF02C00C94063660E08EE393E04C
:105200000E946DBC83E50E945A4368968FAF6897F1
:1052100081110C94343782E50E945A4381110C9419
:1052200034370C9406360E9415970C9406360E946B
:1052300006970C9406360E9469920C9406360E94DA
:105240001DEF0F941F080E947D6610922615109284
:10525000251568EE73E080E090E00E9482BB60E07C
:105260008FE493E00E946DBC0C9406361092CB0341
:105270000C9406360E945B940C940636B9EACB2E49
:10528000B2E0DB2E10EEE12E1DE0F12E10E0D60193
:105290008D916D010E942B43882309F46DC013305A
:1052A00009F063C00E94F8424B015C0120E030E04D
:1052B00040EA51E40F94551F87FF4EC0A5019401A9
:1052C0006091EC0D7091ED0D8091EE0D9091EF0DD0
:1052D0000F949B242B013C019B01AC016091DF07E3
:1052E0007091E0078091E1079091E2070F94BA1F57
:1052F0006093DF077093E0078093E1079093E207E4
:10530000A30192016091E1147091E2148091E31481
:105310009091E4140F94BA1F6093E1147093E21417
:105320008093E3149093E41460917005709171057B
:1053300080917205909173050F94591FA3019201FA
:105340000F94BA1F0F940825609370057093710530
:1053500080937205909373058092EC0D9092ED0D01
:10536000A092EE0DB092EF0D07C00E94F842F70137
:1053700060837183828393831F5FF4E0EF0EF11CDF
:10538000143009F084CF0E94707B0C940636E1E162
:10539000F4E084918F010F5F1F4F882321F00E945A
:1053A000E445F801F6CF60E081E094E00E94F692D7
:1053B00061E08AEF93E00E94F69261E08FEE93E065
:1053C0000E94F69261E08FED93E00E94F69260E019
:1053D00086ED93E00E94F69261E08CEC93E00E94EF
:1053E000F69261E082EC93E00E94F69261E08AEB33
:1053F00093E00E94F69261E08CEA93E00E94F692BC
:1054000060E08EE993E00E94F69260E08FE893E01E
:105410000E94F69260E081E893E00E94F69260E0DC
:105420008BE693E00E94F69260E08AE593E00E94AA
:10543000F6920C94063660E0809191159091921549
:105440000E948DBC0C94063685E40E945A43882342
:1054500019F00E94E94203C085E40E942B4388238F
:1054600061F0E8EEF3E384918F010F5F1F4F882313
:1054700021F00E94E445F801F6CF81E40E945A43EE
:10548000882319F00E94E94203C081E40E942B4363
:10549000882361F0E4EDF4E084918F010F5F1F4FEA
:1054A000882321F00E94E445F801F6CF0091911580
:1054B00010919215D8018D918D01882319F00E94C9
:1054C000E445F8CF8AE00E94E4450C940636E3E018
:1054D000F5E084918F010F5F1F4F882321F00E9418
:1054E000E445F801F6CFEBEFF4E084918F010F5F14
:1054F0001F4F882321F00E94E445F801F6CF659BF9
:1055000003C007E213E002C00CE213E0F80181914E
:105510008F01882319F00E94E445F8CF8AE00E94A9
:10552000E445E3EFF4E084918F010F5F1F4F882380
:1055300021F00E94E445F801F6CF8091030181FF3C
:1055400003C007E213E002C00CE213E0D8018D9122
:105550008D01882319F00E94E445F8CF8AE00E946B
:10556000E445EBEEF4E084918F010F5F1F4F882339
:1055700021F00E94E445F801F6CF4B9B03C007E2FF
:1055800013E002C00CE213E0F80181918F0188233F
:1055900019F00E94E445F8CF8AE00E94E445E2EE6B
:1055A000F4E084918F010F5F1F4F882321F00E9448
:1055B000E445F801F6CF4A9B03C007E213E002C0BE
:1055C0000CE213E0D8018D918D01882319F00E941F
:1055D000E445F8CF8AE00E94E445E8EDF4E08491E8
:1055E0008F010F5F1F4F882321F00E94E445F801CF
:1055F000F6CF649B03C007E213E002C00CE213E0A5
:10560000F80181918F01882309F45CCF0E94E44561
:10561000F7CF81E08093CC108093CB100C940636AA
:105620001092CC101092CB100C94063683E50E9499
:105630005A43882319F00E94C84202C060E070E01B
:105640008B01112702301105D4F0E6E6F9E28491CE
:105650008F010F5F1F4F882321F00E94E445F8015E
:10566000F6CFEDE1F5E084918F010F5F1F4F8823A6
:1056700011F40C9406360E94E445F801F4CF88E456
:105680000E945A438823A9F00E94C84266397105D6
:105690003CF06530F1E07F072CF064E071E002C07F
:1056A00066E970E0F801EE0FFF1FE257FA4F7183D1
:1056B000608386E40E945A438823A9F00E94C8426E
:1056C000F801EE0FFF1FEE56FA4F718360836F3FB4
:1056D000710519F014F06FEF70E077FF02C060E021
:1056E00070E07183608382E40E945A43882311F43E
:1056F0000C9406360E94C8426530710534F0643758
:1057000071052CF063E770E002C065E070E0000F07
:10571000111FF801E657FA4F718360830C94063627
:1057200083E50E945A43882349F00E94C8428B01B6
:105730006230710514F00C94063602C000E010E0EF
:1057400080E50E945A43882319F00E94C84201C094
:1057500060E0F801E554FA4F60830115110539F452
:105760009091BB0584E6891B8093BC0509C001307C
:10577000110531F49091BC0584E6891B8093BB052B
:105780000E9495900C9406360E94AC900C940636BC
:105790000E94FB910C9406360E94D9910C94063617
:1057A0000E9406910C9406360E9417940C940636BB
:1057B00084918F010F5F1F4F882321F00E94E445E1
:1057C000F801F6CF8AE50E942B43882351F00E940E
:1057D000F8426093AC0D7093AD0D8093AE0D909335
:1057E000AF0D4091AC0D5091AD0D6091AE0D70912B
:1057F000AF0D8FE395E00E9492798AE00E94E44524
:105800000C94063684918F010F5F1F4F882321F07F
:105810000E94E445F801F6CF83E50E942B438823DC
:1058200021F00E94E94280933202E9E8F5E0849198
:105830008F010F5F1F4F882321F00E94E445F8017C
:10584000F6CF80913202811103C0E5E8F5E002C095
:10585000E1E8F5E084918F010F5F1F4F882321F06D
:105860000E94E445F801F6CFE9E7F5E084918F0165
:105870000F5F1F4F882321F00E94E445F801F6CF07
:105880002091B00D3091B10D4091B20D5091B30DFA
:1058900060910002709101028091020290910302D6
:1058A0000F94BF23AB01BC0187E795E00E9492797A
:1058B0002091B40D3091B50D4091B60D5091B70DBA
:1058C0006091040270910502809106029091070296
:1058D0000F94BF23AB01BC0184E795E00E9492794D
:1058E0002091B80D3091B90D4091BA0D5091BB0D7A
:1058F000609108027091090280910A0290910B0256
:105900000F94BF23AB01BC0181E795E00E9492791F
:10591000E9E6F5E084918F010F5F1F4F882321F0A6
:105920000E94E445F801F6CF2091B00D3091B10D01
:105930004091B20D5091B30D6091260270912702F3
:1059400080912802909129020F94BF23AB01BC01E2
:1059500087E695E00E9492792091B40D3091B50DC3
:105960004091B60D5091B70D60912A0270912B02B3
:1059700080912C0290912D020F94BF23AB01BC01AA
:1059800084E695E00E9492792091B80D3091B90D8E
:105990004091BA0D5091BB0D60912E0270912F0273
:1059A00080913002909131020F94BF23AB01BC0172
:1059B00081E695E00E9492798AE00E94E4450C9489
:1059C000063683E50E945A43882311F40C94063668
:1059D0000E94C84270938A02609389020C94063632
:1059E0008DED90E00E941F4981110C94063683E5ED
:1059F0000E945A43882311F40C94063600912C100F
:105A000010E00E94C842000F111FF801E957FD4F36
:105A10007183608380912C1090E08C01000F111F26
:105A2000000F111F98012D573D4F7901880F991FC5
:105A3000FC01E957FD4F60817181072E000C880B36
:105A4000990B0F945B1F2AE037ED43E25CE30F9460
:105A5000BA1FF801EA5EFF4E2081318142815381F5
:105A60000F94BA1FD7016D937D938D939C931397D9
:105A70000C94063680E50E942B43882311F40C9485
:105A800006360E94C8426B017C0183E50E945A439E
:105A9000882321F00E94C8428B0102C00FEF1FEF44
:105AA000C8010196039710F00C940636D7FE02C089
:105AB0000C9406369C2DE9E9F5E08EE28E0F2491D8
:105AC000921711F40C94063631968E13F8CF0C947D
:105AD000683A8AE50E945A4381110C94913883E513
