:100000000C9455190C947F190C947F190C947F193A
:100010000C947F190C947F190C947F190C947F1900
:100020000C947F190C947F190C947F190C947F19F0
:100030000C947F190C94176F0C947F190C947F19F2
:100040000C947F190C9494BE0C9479C60C947F196F
:100050000C94C3400C947F190C947F190C947F1955
:100060000C947F190C947F190C947F190C947F19B0
:100070000C947F190C947F190C947F190C947F19A0
:100080000C947F190C947F190C947F19E83AED3A7F
:10009000F23AFC3A2A3B063B0E3B163B203BFF5410
:1000A000085512551B5524553F554C5555552D5542
:1000B00036552A612D6120612461446131613561C9
:1000C0003B613F614E414E494E495459494E46CDE0
:1000D000CCCC3D0AD7233C17B7D13877CC2B3295FF
:1000E00095E6241FB14F0A000020410000C84200DD
:1000F000401C4620BCBE4CCA1B0E5AAEC59D744364
:100100004F4D4D554E49434154494F4E004452596D
:1001100052554E004552524F525300494E464F00E1
:100120004543484F0020746F6F206C6F6E672065E9
:100130007874727573696F6E2070726576656E740F
:1001400065640A0020636F6C64206578747275734F
:10015000696F6E2070726576656E7465640A005210
:1001600065706F732E2E2E0052657072692E20649A
:1001700065206C27696D70722E005A35532070729D
:100180006574652E00417474656E2E206465206C64
:10019000277574696C2E004D6F74657572732062DB
:1001A0006C6F717565732E00456E642066696C65B1
:1001B000206C6973740A00426567696E2066696C19
:1001C00065206C6973740A004D3132350053442048
:1001D0007072696E74696E67206279746520004E72
:1001E0006F74205344207072696E74696E670A00E0
:1001F00046696C652064656C657465643A004465A5
:100200006C6574696F6E206661696C65642C20464C
:10021000696C653A20006F70656E206661696C6577
:10022000642C2046696C653A20005072696E742017
:1002300074696D653A20006D0046696C616D656E8C
:100240007420757365643A200053746174733A20A6
:10025000002C204C6F6E67657374206A6F623A20C1
:1002600000546F74616C2074696D653A200053749A
:100270006174733A20002C204661696C65643A20F1
:10028000002C2046696E69736865643A20005072DC
:10029000696E74733A200053746174733A20004598
:1002A00025692025730020011B0114010D01FF00A9
:1002B0006F66660044454255473A004D4F52542EF2
:1002C000006F6B0043686175666665207465726DCA
:1002D000696E65650020573A004525692025730041
:1002E00043686175666665206C6974207465726D1B
:1002F000696E65650020573A004C697420656E2070
:10030000636861756666652E2E005A35532041720A
:100310007265742E00454D455247454E43595F5016
:10032000415253455200434153455F4C494748545D
:100330005F4252494748544E45535300544F474734
:100340004C455F4C494748545300534F465457411E
:1003500052455F504F574552004255494C445F50FB
:10036000455243454E54004C4556454C494E475F17
:1003700044415441005A5F50524F42450041555448
:100380004F4C4556454C005052494E545F4A4F42DF
:100390000050524F4752455353004155544F524518
:1003A000504F52545F54454D5000564F4C554D459B
:1003B0005452494300454550524F4D005345524910
:1003C000414C5F584F4E5F584F4646004649524D8C
:1003D000574152455F4E414D453A4D61726C696ED1
:1003E0002042617365206F6E204D61726C696E31C1
:1003F0002E312E3820284769746875622920534FA2
:10040000555243455F434F44455F55524C3A6874DB
:100410007470733A2F2F6769746875622E636F6DFD
:100420002F7A6F6E657374617233642050524F542B
:100430004F434F4C5F56455253494F4E3A312E3041
:10044000204D414348494E455F545950453A5A352D
:10045000532045585452554445525F434F554E54CE
:100460003A3120555549443A30303030303031300F
:100470002D303830382D303030332D303030302D75
:1004800032303138303131303030310A004D313492
:100490003520533C696E6465783E206F7574206F1B
:1004A000662072616E67652028302D31290A00535D
:1004B000657474696E672054726176656C2041635F
:1004C00063656C65726174696F6E3A200053657480
:1004D00074696E672052657472616374204163634E
:1004E000656C65726174696F6E3A2000536574744F
:1004F000696E67205072696E7420416363656C6534
:10050000726174696F6E3A200053657474696E6726
:10051000205072696E7420616E6420547261766539
:100520006C20416363656C65726174696F6E3A201B
:1005300000205A00205900580020204D61783A20B0
:1005400000205A00205900580020204D696E3A20A2
:10055000004D617263686500417272657400536F8B
:10056000667420656E6473746F70733A20000001C6
:1005700017161815FF14131812FF1110180DFFFF8E
:10058000FF011CFFFFFF1B1A18FFFF011800FF19D6
:10059000FFFFFFFFFFFF20643A0020693A00207050
:1005A0003A0043290A0061626C656420286D696E17
:1005B0002074656D702000436F6C642065787472E0
:1005C0007564657320617265200023646566696ED9
:1005D00065202044454641554C545F4B6420002320
:1005E000646566696E65202044454641554C545FFC
:1005F0004B69200023646566696E6520204445468A
:1006000041554C545F4B7020005049442041757453
:100610006F74756E652066696E6973686564212004
:1006200050757420746865206C617374204B702C55
:10063000204B6920616E64204B6420636F6E73747D
:10064000616E74732066726F6D2062656C6F7720C7
:10065000696E746F20436F6E666967757261746945
:100660006F6E2E680A00504944204175746F74758E
:100670006E65206661696C6564212074696D656FC3
:1006800075740A00454D42414C4C454D454E542031
:10069000544845524D2E00546865726D616C20526D
:1006A000756E617761790045727265757220646557
:1006B00020636861756666650048656174696E6788
:1006C000206661696C656400504944204175746F0F
:1006D00074756E65206661696C6564212054656D72
:1006E000706572617475726520746F6F20686967D8
:1006F000680A00204B643A2000204B693A20002011
:100700004B703A20000A20436C6173736963205078
:100710004944200A002054753A2000204B753A20A5
:1007200000206D61783A2000206D696E3A2000202B
:10073000643A200020626961733A20004465636175
:100740006C61676573206170706C697175657300A9
:100750004572723A20546F6F206661722100546FA7
:100760006F206661722066726F6D207265666572B9
:10077000656E636520706F696E740A004E6F20634A
:10078000617365206C696768740A004163746976F7
:10079000652045787472756465723A2000556E6BF9
:1007A0006E6F776E20636F6D6D616E643A2022000C
:1007B0002569730025696D20256973002569682006
:1007C00025696D20256973002569642025696820E5
:1007D00025696D20256973002569792025696420C4
:1007E0002569682025696D20256973004C696E654F
:1007F000204E756D626572206973206E6F74204C97
:10080000617374204C696E65204E756D6265722B44
:10081000312C204C617374204C696E653A20004D78
:100820004F52542E0053544F5050652E0050726951
:100830006E7465722073746F707065642064756582
:1008400020746F206572726F72732E204669782053
:10085000746865206572726F7220616E64207573B2
:1008600065204D39393920746F2072657374617257
:10087000742E202854656D706572617475726520E0
:1008800069732072657365742E20536574206974D2
:100890002061667465722072657374617274696E2A
:1008A00067290A004E6F20436865636B73756D207E
:1008B00077697468206C696E65206E756D6265720B
:1008C0002C204C617374204C696E653A200063687B
:1008D00065636B73756D206D69736D617463682CEE
:1008E000204C617374204C696E653A20004D3131A3
:1008F00030004D33310053442072656164206572CD
:10090000726F720A00446F6E65207072696E74694E
:100910006E672066696C650A000000A0C1000000D7
:1009200000000000000000664300005C4300006619
:100930004350726F7465637465642050696E0A0079
:10094000205A3A0020593A0020436F756E7420589F
:100950003A0020453A00205A3A0020593A00583AC5
:10096000003A004361703A002F2F20007C3C3E5E2D
:100970002B3D3F2F5B5D3B2C2A225C00706F757214
:100980002072657072656E64726500617474656E64
:10099000746520696D7072657373696F6E00505273
:1009A000494E54205041555345440000060900FE6D
:1009B0000701920321207FFF07FF07FF00000006C9
:1009C000000001070706020080808080800080030D
:1009D0000202060105A0A00507070600005050F816
:1009E00050F850500507070600002078A07028F046
:1009F00020050707060000C0C8102040981805070A
:100A0000070600006090A040A8906802030306015A
:100A100004C040800307070601002040808080401A
:100A200020030707060100804020202040800505A4
:100A30000506000120A870A8200505050600012074
:100A400020F820200203030602FFC04080050101B8
:100A5000060003F8020202060200C0C005050506F2
:100A600000010810204080050707060000708888F4
:100A70008888887003070706010040C04040404056
:100A8000E0050707060000708808708080F80507F9
:100A900007060000F81020100808F00507070600F8
:100AA0000010305090F81010050707060000F8807D
:100AB000F008088870050707060000708080F0883D
:100AC0008870050707060000F80810202020200580
:100AD0000707060000708888708888700507070679
:100AE000000070888878080870020505060200C0BA
:100AF000C000C0C00206060602FFC0C000C04080A1
:100B00000407070600001020408040201005030362
:100B1000060002F800F804070706010080402010D4
:100B2000204080050707060000708808102000207C
:100B300005070706000070880868A8A87005070761
:100B4000060000708888F888888805070706000076
:100B5000F08888F08888F005070706000070888014
:100B600080808870050707060000F08888888888DC
:100B7000F0050707060000F88080F08080F8050780
:100B800007060000F88080F08080800507070600D7
:100B900000708880B888887005070706000088887C
:100BA00088F8888888010707060200808080808096
:100BB00080800507070600003810101010906005AF
:100BC00007070600008890A0C0A0908805070706C8
:100BD0000000808080808080F8050707060000887C
:100BE000D8A8888888880507070600008888C8A8CC
:100BF00098888805070706000070888888888870AC
:100C0000050707060000F08888F080808005070748
:100C100006000070888888A890680507070600000D
:100C2000F08888F0A090880507070600007880808B
:100C3000700808F0050707060000F8202020202093
:100C400020050707060000888888888888700507BF
:100C50000706000088888888885020050707060056
:100C6000008888888888A8500507070600008888BB
:100C70005020508888050707060000888888502083
:100C80002020050707060000F80810204080F80320
:100C90000707060100E08080808080E005050506EA
:100CA00000018040201008030707060100E0202013
:100CB000202020E0050303060004205088050101E0
:100CC000060000F80202020602058040050505063E
:100CD000000070087888780507070600008080B05B
:100CE000C88888F0050505060000708080887005BA
:100CF0000707060000080868988888780505050633
:100D000000007088F880700507070600003048E092
:100D1000404040400506060600FF7088887808704D
:100D20000507070600008080B0C88888880107078B
:100D3000060200800080808080800308080601FF92
:100D4000200020202020A04004070706000080800B
:100D500090A0C0A090030707060100C0404040409B
:100D600040E0050505060000D0A8A8A8A8050505CF
:100D7000060000B0C8888888050505060000708850
:100D80008888700506060600FFF08888F0808005D8
:100D900006060600FF78888878080805050506001D
:100DA00000B0C880808005050506000070807008CE
:100DB000F00407070600004040E0404040300505D1
:100DC00005060000888888986805050506000088E3
:100DD000888850200505050600008888A8A85005C9
:100DE000050506000088502050880506060600FF0D
:100DF000888888780870050505060000F8102040EE
:100E0000F80307070601002040408040402001070A
:100E1000070602008080808080808003070706012B
:100E20000080404020404080050202060002689099
:100E30000000000600004572726F722077726974BC
:100E4000696E6720746F20454550524F4D210A004E
:100E5000290A002062797465733B20637263200065
:100E600053657474696E67732053746F7265642080
:100E70002800202863616C63756C617465642921A6
:100E80000A0020213D2000454550524F4D2043523D
:100E900043206D69736D61746368202D202873741D
:100EA0006F726564292000290A00206279746573D5
:100EB0003B2063726320002073746F72656420733B
:100EC000657474696E67732072657472696576659E
:100ED00064202800204D61726C696E3D56353029C2
:100EE0000A0028454550524F4D3D00454550524F50
:100EF0004D2076657273696F6E206D69736D6174D4
:100F00006368200048617264636F646564204465AF
:100F10006661756C742053657474696E6773204CD8
:100F20006F616465640A00D007000020030000645C
:100F300000000088130000000016430000C84200B3
:100F4000000041000048420000A0420000A0420012
:100F500000C8430000A04200002100240027002A0E
:100F60000000002200250028002B000000200023A4
:100F70000026002900020202020202020204040406
:100F80000404040404030303030303030301010132
:100F90000101010101010204081020408001020446
:100FA000081020408001020408102040808040206A
:100FB000100804020100000001020000000000000F
:100FC000000403070600000000000000000000000D
:100FD00000000000004D4F52542E00202D20496E7D
:100FE00076616C6964206578747275646572206ED0
:100FF000756D62657220210A00000000000000008B
:1010000000000000000000000000000000000000E0
:1010100000000000000000000000000000000000D0
:1010200000000000000000000000000000000000C0
:1010300000000000000000000007FF01FE07018320
:10104000FE0FF8FFF807007FC007FF83FF0F8187BF
:10105000FE1FF8FFF80F80FFE007FFC7038F818FA7
:10106000FC3FF0FFF81FC0E0E00003C6018FC18C19
:1010700000380007001FC0C060000786018CC18CCB
:1010800000300007003DE0C060000F06018CE18CDD
:10109000003800070038E0E0E0001E06018C618F98
:1010A000FE3FF0070038E0FFC0003C06018C618F76
:1010B000FE1FF807003060FF80007806018C318F3A
:1010C000FC0FFC07007270FC0000F006018C318EF2
:1010D00000001C07006230CE0001E006018C398C54
:1010E00000000C07006730C70003C006018C198C94
:1010F00000000C07006730C380078007038C198E3F
:1011000000001C0700CF98C1C007FFC7FF8C0F8FDE
:10111000FF1FFC0700CF98C0F003FFC3FF0C0F8731
:10112000FF3FF80700DFD8C07001FFC1FE0C0701C8
:10113000FE3FF0070000000000000000000000007B
:10114000000000000000000000000000000000009F
:10115000000000000000000000000000000000008F
:10116000000000000000000000000000000000007F
:101170000000000000000000002020506C616E6E36
:10118000657242756666657242797465733A2000CD
:101190002046726565204D656D6F72793A20004377
:1011A0006F6D70696C65643A204A756C203131202E
:1011B000323031390A00207C20417574686F723AF0
:1011C000202848616C6C79405A4F4E455354415227
:1011D000290A00323031392D30372D313100204C81
:1011E00061737420557064617465643A20004261D3
:1011F0007365206F6E204D61726C696E312E312ED9
:10120000380A004D61726C696E0020536F66747706
:101210006172652052657365740A002057617463BA
:1012200068646F672052657365740A002042726FAC
:10123000776E206F75742052657365740A002045BF
:10124000787465726E616C2052657365740A005023
:101250006F77657255700A0073746172740A006565
:1012600072726F722077726974696E6720746F2072
:1012700066696C650A004275746565732025632094
:10128000256320256320256300205A3A0020593A1F
:101290000020583A00656E6473746F70732068693B
:1012A000743A2000446F6E6520736176696E672022
:1012B00066696C652E0A004D323900457874727586
:1012C00064657572733A203100687474703A2F2F18
:1012D0007777772E7A6F6E657374617233642E63DD
:1012E0006F6D005A355300323031392D30372D3182
:1012F000310042617365206F6E204D61726C696EC2
:10130000312E312E380056332E3000486561746519
:10131000722054657374696E67004D313034205308
:101320003236300A4D31343020533131350A4D31A7
:1013300030362053300A004175746F205570206498
:101340006F776E004D3230332058313530205931AF
:101350003530205A31360A47302058323230205941
:10136000323230205A32333020463936300A473054
:10137000205830205930205A313020463936300A32
:10138000473020583330302059333030205A3430F1
:101390003020463936300A47302058302059302026
:1013A0005A313020463936300A47302058323230F0
:1013B0002059323230205A32333020463936300A02
:1013C0004730205830205930205A313020463936A5
:1013D000300A473020583232302059323230205AC9
:1013E00032333020463936300A47302058302059C1
:1013F00030205A313020463936300A4730205832B2
:1014000032302059323230205A3233302046393689
:10141000300A4730205830205930205A3130204689
:101420003936300A4732380A4D3230332058313598
:10143000302059313030205A380A4D333030205363
:1014400033303030205031303030004661737420FA
:10145000746F20426F74746F6D004D3230332058BA
:101460003135302059313530205A31360A4732383B
:101470002058300A4730205A3020463936300A4D3D
:1014800032303320583135302059313030205A38FD
:101490000A004661737420746F20546F70004D32DF
:1014A000303320583135302059313530205A3136DB
:1014B0000A473020583232302059323230205A32E6
:1014C000333020463936300A4D32303320583135EA
:1014D000302059313030205A380A004F726967691C
:1014E0006E65206175746F2E004732380053746149
:1014F00074732E20696D7072696D616E746500542D
:101500006865726D6973746F727300496E666F738C
:1015100020636172746500496E666F7320696D7037
:1015200072696D616E7465004D656E7520707269CB
:101530006E636970616C002020427573653A20000B
:1015400020005265746F7572004C612074656D7077
:101550002E206D696E696D756D206573742031354F
:10156000302E004572726575722064652063686173
:1015700075666665002B20657874727573696F6E89
:101580000052657072656E64726520696D70722EAE
:1015900000524553554D45204F5054494F4E533AF4
:1015A000002020427573653A20006368616E6765AC
:1015B000720064752066696C616D656E74004174BB
:1015C00074656E74652044656D6172726167650053
:1015D0005052494E5420504155534544002020421A
:1015E0007573653A20002000646563686172676501
:1015F000722066696C616D656E7400617474656EED
:101600007465206465005052494E54205041555332
:101610004544002020427573653A20002000506147
:101620007469656E74657A205356502E2E2E0042D2
:1016300075736520656E2063686175666665005028
:1016400052494E5420504155534544002020427584
:1016500073653A20002000507220636861756666E9
:101660006572206C612062757365005072657373DA
:101670006572206C6520626F75746F6E2E2E2E0061
:101680005052494E54205041555345440020204269
:101690007573653A2000706F757220636F6E7469A0
:1016A0006E7565722E2E2E006574206170702E206E
:1016B000626F75746F6E00696E7365726572206615
:1016C000696C616D656E74005052494E54205041F2
:1016D00055534544002020427573653A2000200090
:1016E0006368617267656D656E742066696C616DB3
:1016F000656E7400617474656E7465206465005075
:1017000052494E54205041555345440020204275C3
:1017100073653A20002000657874727573696F6E86
:101720002066696C616D656E7400617474656E74B9
:1017300065206465005052494E5420504155534530
:10174000440024F4D43050C38E20C2A24017828BB0
:101750007011127A910D816CD90AA861E108C758FD
:101760006607615143061E4B5D05C145A7041A413A
:101770001104093D9803713931034036DB026533AA
:101780009102D4305402802E1D02632CEE01752A82
:10179000C501B028A001102781018F2564012B24E9
:1017A0004B01E0223401AC211F018D200D01801F6F
:1017B000FC00841EED00971DDF00B81CD200E61B64
:1017C000C600201BBC00641AB200B219A8000A1996
:1017D000A0006A189900D117910040178B00B51628
:1017E000840031167E00B31579003A157300C714D2
:1017F0006F0058146A00EE13660088136300251307
:101800005E00C7125B006C12570015125400C11124
:10181000510070114F0021114B00D61049008D105E
:1018200047004610440002104200C00F4000800FE5
:101830003E00420F3C00060F3B00CB0E3800930EDB
:1018400037005C0E3500270E3400F30D3200C10D59
:101850003100900D3000600D2E00320D2D00050D71
:101860002C00D90C2B00AE0C2900850C29005C0C37
:101870002700350C27000E0C2600E80B2400C40BB3
:101880002400A00B23007D0B23005A0B2100390BF1
:101890002100180B2000F80A1F00D90A1E00BB0AFD
:1018A0001E009D0A1D00800A1D00630A1C00470AD5
:1018B0001B002C0A1B00110A1A00F7091A00DD0987
:1018C0001900C4091900AB091900920917007B0916
:1018D0001800630917004C09160036091600200984
:1018E00016000A091500F5081500E0081400CC08D8
:1018F0001400B8081400A4081400900813007D0810
:1019000012006B0813005808120046081200340831
:101910001100230811001208110001081100F0073E
:101920001000E0071000D0071000C0071000B0073B
:101930000F00A107100091070E0083070F00740726
:101940000F0065070E0057070E0049070E003B0702
:101950000D002E070E0020070D0013070D000607CF
:101960000D00F9060C00ED060D00E0060C00D40693
:101970000C00C8060C00BC060C00B0060C00A40647
:101980000B0099060C008D060B0082060B007706F3
:101990000B006C060B0061060A0057060B004C0694
:1019A0000A0042060A0038060A002E060A0024062B
:1019B0000A001A060A001006090007060A00FD05BB
:1019C0000900F4050900EB050900E2050900D90545
:1019D0000900D0050900C7050900BE050900B505C5
:1019E0000800AD050800A50509009C050800940540
:1019F00008008C050800840508007C0508007405B3
:101A000008006C050700650508005D050700560520
:101A100008004E0507004705070040050800380587
:101A20000700310507002A050700230507001C05EC
:101A30000600160507000F05070008050600020549
:101A40000700FB040600F5040700EE040600E804A6
:101A50000600E2040700DB040600D5040600CF04FC
:101A60000600C9040600C3040600BD040600B7044E
:101A70000600B1040500AC040600A6040600A0049C
:101A800005009B04060095040500900406008A04E6
:101A9000050085040500800406007A04050075042D
:101AA0000500700405006B04050066040500610470
:101AB00005005C04050057040500520405004D04B0
:101AC000050048040500430405003E0404003A04F0
:101AD000050035040500300404002C04050027042B
:101AE0000400230405001E0404001A040400160464
:101AF0000500110404000D04040009040500040499
:101B0000040000040400FC030400F8030400F403D0
:101B10000400F0030400EC030400E8030400E40301
:101B20000400E0030400DC030400D8030400D40331
:101B30000400D0030400CC030400C8030300C50361
:101B4000030024F404D9201BC40C5C0E9804C409BF
:101B50005F0265077101F405F900FB04B300480456
:101B60008700C10369005803550003034500BE0206
:101B70003A008402310053022A002902250004029F
:101B80002000E4011C00C8011900AF0117009801F2
:101B90001400840113007101100061011000510153
:101BA0000E0043010D0036010B002B010B0020013C
:101BB0000B00150109000C01090003010800FB00DE
:101BC0000800F3000800EB000700E4000600DE0058
:101BD0000600D8000600D2000600CC000500C700B1
:101BE0000500C2000500BD000400B9000400B500F6
:101BF0000400B1000400AD000400A9000400A50029
:101C00000300A20003009F0004009B000300980053
:101C100003009500020093000300900003008D0074
:101C200002008B000300880002008600020084008E
:101C30000300810002007F0002007D0002007B00A3
:101C400002007900020077000100760002007400B3
:101C5000020072000100710002006F0002006D00BE
:101C600001006C0002006A000100690002006700C8
:101C700001006600010065000100640002006200CE
:101C8000010061000100600001005F0002005D00D2
:101C900001005C0001005B0001005A0001005900D6
:101CA00001005800010057000100560001005500D6
:101CB00001005400010053000000530001005200D5
:101CC000010051000100500001004F0001004E00D2
:101CD00000004E0001004D0001004C0001004B00CF
:101CE00000004B0001004A000100490001004800CB
:101CF00000004800010047000100460000004600C7
:101D000001004500000045000100440001004300BF
:101D100000004300010042000000420001004100B9
:101D2000000041000100400001003F0000003F00B2
:101D300001003E0000003E0001003D0000003D00AB
:101D400001003C0000003C0000003C0001003B00A2
:101D500000003B0001003A0000003A000100390099
:101D60000000390001003800000038000000380091
:101D70000100370000003700010036000000360087
:101D8000000036000100350000003500000035007D
:101D90000100340000003400000034000100330072
:101DA0000000330000003300010032000000320068
:101DB000000032000100310000003100000031005D
:101DC00001003000000030000000300001002F0052
:101DD00000002F0000002F0000002F0001002E0047
:101DE00000002E0000002E0001002D0000002D003C
:101DF00000002D0000002D0001002C0000002C0030
:101E000000002C0000002C0001002B0000002B0023
:101E100000002B0000002B0001002A0000002A0017
:101E200000002A0000002A0001002900000029000B
:101E300000002900000029000000290001002800FE
:101E400000002800000028000000280000002800F2
:101E500001002700000027000000270000002700E5
:101E600000002700010026000000260000002600D8
:101E700000002600000026000100250000002500CB
:101E800000002500000025000000250000002500BE
:101E900001002400000024000000240000002400B1
:101EA00000002400010023000000230000002300A4
:101EB0000000230000002300000023000000230096
:101EC0000100220000002200000022000000220089
:101ED000000022000000220001002100000021007B
:101EE000000021000000210000002100000021006E
:101EF0000000210001002000000020000000200060
:101F00000000200000002000000020000000200051
:101F10000000200001001F0000001F0000001F0043
:101F200000001F0000001F0000001F0000001F0035
:101F300001001E0000001E0000001E0000001E0028
:101F400000006265640A002C2073797374656D204B
:101F500073746F7070656421204865617465725F89
:101F600049443A20004572726575722064652063A9
:101F70006861756666650048656174696E672066AC
:101F800061696C6564001000AA03800040010001D3
:101F90002C01B001220140021001F0020201800375
:101FA000F8004004F500E004ED009005E400300680
:101FB000DD00E006D7008007D1003008CC00D00853
:101FC000C7007009C300100ABE00B00ABB00500B66
:101FD000B700900CB300D00DAA00B00FA5005010B0
:101FE000A000101496009016900010198C00501A42
:101FF0008500301C820070227800B02375004025D7
:102000006E0020276900A0296400502A5F00902BF1
:102010005A00D02C5500702D4F00E02E4800503152
:10202000450030334100D035390060363700103775
:102030003300F0382D00A0392700803C1C00403DC3
:102040001700F03D1100803E0900D03FE5FF4570CC
:1020500061732F6D6D00457061732F6D6D005A7047
:1020600061732F6D6D005A7061732F6D6D00597023
:1020700061732F6D6D00597061732F6D6D00587015
:1020800061732F6D6D00587061732F6D6D004D6F12
:102090007576656D656E74005061732F6D6D004AC5
:1020A00065726B00416363656C65726174696F6E24
:1020B0000056656C6F6369746500484F4D455F5A03
:1020C0005F6F666673657400484F4D455F5A5F6F7A
:1020D000666673657400484F4D455F595F6F66666D
:1020E00073657400484F4D455F595F6F6666736551
:1020F0007400484F4D455F585F6F666673657400A6
:10210000484F4D455F585F6F666673657400436F57
:102110006E74726F6C65720043616E6E6F742065D1
:102120006E746572207375626469723A2000022EC3
:102130002E000141637475616C69736572004D65B1
:102140006E75207072696E636970616C0000546F07
:1021500074616C2066696C616D656E743A2000254F
:102160006C642E25696D0000496D70722E206C61C3
:10217000202B206C6F6E6775653A200000547073D9
:1021800020696D70722E20746F74616C3A20005457
:1021900065726D696E6565733A20004E62726520E6
:1021A000696D7072657373696F6E733A2000546560
:1021B0006D70204D61783A203133300054656D7078
:1021C000204D696E3A203500544265643A31303012
:1021D0004B2031252062657461203339353000543D
:1021E000656D70204D61783A203237350054656D49
:1021F00070204D696E3A20350054303A203130302D
:102200004B2031252062657461203339353000411F
:102210006C696D656E746174696F6E3A2047656EA6
:10222000657269630050726F746F636F6C653A20FA
:10223000312E3000426175643A2031313532303010
:10224000005A4F4E45535441525F4C43443132384B
:102250003634005A4D4942563220285A4F4E455383
:10226000544152290020440020490020204D3330A1
:10227000312050005049442073657474696E67734F
:102280003A0A0020460020420020480020204D311C
:1022900034352053004D6174657269616C20686546
:1022A0006174757020706172616D65746572733AE6
:1022B0000A00205A0020590020204D323036205884
:1022C00000486F6D65206F66667365743A0A00207A
:1022D0004500205A00205900205800204200205478
:1022E0000020204D323035205300416476616E630A
:1022F00065643A20533C6D696E5F66656564726122
:1023000074653E20543C6D696E5F74726176656CD5
:102310005F66656564726174653E20423C6D696EFE
:102320005F7365676D656E745F74696D655F757306
:102330003E20583C6D61785F78795F6A65726B3ECC
:10234000205A3C6D61785F7A5F6A65726B3E20450A
:102350003C6D61785F655F6A65726B3E0A00205470
:102360000020520020204D32303420500041636361
:10237000656C65726174696F6E2028756E6974731F
:102380002F7332293A20503C7072696E745F61631A
:1023900063656C3E20523C726574726163745F6168
:1023A0006363656C3E20543C74726176656C5F615A
:1023B0006363656C3E0A00204500205A00205900E6
:1023C00020204D3230312058004D6178696D756D97
:1023D00020416363656C65726174696F6E20287556
:1023E0006E6974732F7332293A0A00204500205A0F
:1023F0000020590020204D3230332058004D6178A4
:10240000696D756D206665656472617465732028F9
:10241000756E6974732F73293A0A00204500205A9B
:102420000020590020204D39322058005374657027
:10243000732070657220756E69743A0A0020204D11
:102440003230302044300A0020204D3230302044D9
:10245000002044697361626C65640A0046696C61BE
:102460006D656E742073657474696E67733A0020CD
:10247000204D3134392043203B20556E6974732040
:10248000696E2043656C736975730A0020204732BA
:1024900031202020203B20556E69747320696E2006
:1024A0006D6D0A0066696C616D656E743A20007A24
:1024B0005F6D696E3A2000795F6D696E3A20007831
:1024C0005F6D696E3A20005265706F7274696E6755
:1024D00020656E6473746F70207374617475730A11
:1024E000006F6B004D3630300043617463682066C6
:1024F000696C616D656E742072756E206F757421E4
:102500000A004D4F52542E004B494C4C20636175CC
:1025100073656420627920746F6F206D7563682025
:10252000696E6163746976652074696D65202D201C
:1025300063757272656E7420636F6D6D616E643A5F
:10254000200046696C616D656E7420696E736572FA
:1025500074210A0043617463682066696C616D656B
:102560006E742072756E206F7574210A0052615A64
:102570002E2053565000494D50522E2053544F5048
:10258000506545005072696E7465722068616C74A4
:1025900065642E206B696C6C28292063616C6C6506
:1025A00064210A00656E7175657565696E67202224
:1025B000000000A0C1000000000000000000004872
:1025C00042000048420000004000000000576172D5
:1025D0006E696E673A20486F6D696E672042756D4F
:1025E000702044697669736F72203C20310A0002C2
:1025F00002040000A0400000A040000000400000D5
:102600007A4300005C4300006643FFFFFF4D363015
:102610003020486F74656E6420746F6F20636F6C38
:102620006420746F206368616E67652066696C6101
:102630006D656E740A0050726563686175666661E7
:102640006765204142532066696E69005072656378
:10265000682E20414253206C697400507265636893
:10266000617566666167652041425300507265700E
:1026700061726572005265746F7572004E65787490
:1026800020636F726E6572004D343238005072658F
:1026900063686175666661676520504C41005265EC
:1026A00066726F696469720050726563686175660D
:1026B0006661676520414253004368616E676572D9
:1026C0002066696C616D656E740041727265746537
:1026D00072206D6F7465757273004D3834005265E9
:1026E000676C2E20646563616C2E206F7269676968
:1026F0006E65004C6576656C20636F726E657273F3
:10270000004F726967696E65205A204175746F2E9B
:1027100000473238205A004F726967696E65205948
:10272000204175746F2E004732382059004F72696E
:1027300067696E652058204175746F2E00473238E6
:102740002058004F726967696E65206175746F2E3D
:1027500000473238004465706C6163657220756EA5
:1027600020617865004D656E75207072696E6369D1
:1027700070616C004465706C2E2058004465706C6C
:102780002E2059004465706C2E205A0045787472D2
:1027900075646572004465706C2E20302E316D6D4D
:1027A000004465706C2E20316D6D004465706C2E98
:1027B0002031306D6D004465706C61636572207509
:1027C0006E206178650045787472756465720044A6
:1027D00065706C2E205A004465706C2E20590044A0
:1027E00065706C2E20580020746F6F206C6F6E67C0
:1027F00020657874727573696F6E20707265766586
:102800006E7465640A0020636F6C6420657874726E
:102810007573696F6E2070726576656E7465640A93
:102820000025753A2530327500253032753A25304D
:1028300032750025756420253032753A25303275A1
:10284000005A005900580009200000000000000054
:102850000000000000007FFFE0000000000000001A
:1028600000000000007000E0000000000000000018
:102870000000000061F8600000000000000000009F
:1028800000000041F82000000000000000000000EF
:10289000000040F0200000000000000000000000E8
:1028A0000040602000000000000000000000000068
:1028B0005801A07F80000000000000004104005C7F
:1028C00063A0FFC0000000000000002082005EF74F
:1028D000A0FFC0000000000000002082005EF7A002
:1028E000FFC0000000000000004104005C63A07F06
:1028F00080000000000000008208005801A07F80D6
:1029000000000000000001041000406020FFC00033
:1029100000000000000104100040F020FFC0000093
:10292000000000000082080041F820FFC000000005
:102930000000000041040061F8603F00000000005A
:102940000000000000007000E01E00000000000019
:102950000001FFFF807FFFE00C000000000000008E
:1029600001FFFF80000000000000000000000000E8
:102970000000007FFFE000000000000000000000F9
:1029800000007000E00000000000000000000000F7
:1029900000630C6000000000000000000000000068
:1029A000470E200000000000000000000000004F63
:1029B0000F200000000000000000000000005F0F7A
:1029C000A00000000000000000000000005E07A062
:1029D0007F8000000000000000410400406020FFF4
:1029E000C00000000000000020820040F020FFC076
:1029F0000000000000000020820040F020FFC00026
:102A00000000000000004104004060207F800000C2
:102A100000000000008208005E07A07F8000000028
:102A2000000000010410005F0FA0FFC000000000C4
:102A30000000010410004F0F20FFC0000000000044
:102A40000000820800470E20FFC0000000000000C8
:102A500000410400630C603F000000000000000023
:102A60000000007000E01E0000000000000001FFF8
:102A7000FF807FFFE00C0000000000000001FFFF6E
:102A80008000000000060900FE00000000000109AF
:102A90000008FE000005080806000040F0C888880D
:102AA000987810050808060000C0F888888888888B
:102AB000F80505050600012030F830200508080655
:102AC00000002070F820202020E00509090600FF02
:102AD0002070A8A8B8888870200509090600FFE0C2
:102AE00080C0B0A8283028280509090600FFF8A8EA
:102AF0008888888888A8F8050A0A0600FE205050B1
:102B0000505088A8A8887003030306000340A04023
:102B10004578747275646572004465706C2E205A35
:102B2000004465706C2E2059004465706C2E20584E
:102B300000507265706172657200496E69746961F6
:102B40006C6973657220454550524F4D00436F6E5E
:102B500074726F6C65720052657374617572657220
:102B60002064656661757473004C69726520636FDB
:102B70006E66696700496E697469616C6973657234
:102B800020454550524F4D00536175766572206364
:102B90006F6E666967004D6F7576656D656E740062
:102BA00054656D7065726174757265004D656E7502
:102BB000207072696E636970616C005265676C2E7B
:102BC0002070726563682E20414253005265676C25
:102BD0002E2070726563682E20504C41005049448D
:102BE0002D44005049442D44005049442D49005083
:102BF00049442D49005049442D50005049442D501E
:102C000000566974657373652076656E74696C2E01
:102C100000566974657373652076656E74696C2EF1
:102C2000004C6974004C697400427573650042750C
:102C3000736500436F6E74726F6C657200536175DB
:102C400076657220636F6E666967004C6974004C2C
:102C50006974004275736500427573650056697446
:102C6000657373652076656E74696C2E00566974A1
:102C7000657373652076656E74696C2E0054656D9E
:102C8000706572617475726500496D70722E206591
:102C90006E207061757365004D31323500004D3224
:102CA0003400496D70722E20416E6E756C65650042
:102CB000496E69742E206C612063617274652053C3
:102CC00044004D32310050617320646520636172AD
:102CD0007465004368616E67657220646520636196
:102CE000727465004D323100496D70722E2064653A
:102CF0007075697320534400417272657465722067
:102D0000696D70722E0052657072656E6472652016
:102D1000696D70722E00496E666F7320696D7072F6
:102D2000696D616E746500496E746572726F6D7065
:102D3000726520696D70722E00436F6E74726F6CD5
:102D40006572005072657061726572005265676CE1
:102D50006572005375727665696C6C6572004261CC
:102D6000627973746570205A004D363030204230DD
:102D7000004368616E6765722066696C616D656E9F
:102D800074004261627973746570205A00466C75F4
:102D90007800466C757800566974657373652076A3
:102DA000656E74696C2E0056697465737365207660
:102DB000656E74696C2E004C6974004C6974004235
:102DC0007573650042757365002056697465737389
:102DD00065002056697465737365004D656E7520D6
:102DE0007072696E636970616C00507265636861CE
:102DF00075666661676520504C412066696E6900A2
:102E000050726563682E20504C41206C69740050EC
:102E1000726563686175666661676520504C410044
:102E20005072657061726572005344206361726410
:102E3000206F6B0A006F70656E526F6F7420666151
:102E4000696C65640A00766F6C756D652E696E69D4
:102E500074206661696C65640A00534420696E6978
:102E600074206661696C0A006175746F25692E674C
:102E7000004D3234004D323320257300577269748F
:102E8000696E6720746F2066696C653A20006F7008
:102E9000656E206661696C65642C2046696C653AD4
:102EA00020006F70656E206661696C65642C204639
:102EB000696C653A200046696C652073656C6563D2
:102EC0007465640A002053697A653A200046696C8B
:102ED00065206F70656E65643A20006F70656E20C6
:102EE0006661696C65642C2046696C653A20002037
:102EF00066696C653A2000646F696E67006672658A
:102F00007368004E6F772000454E4420535542525F
:102F10004F5554494E450A002220706F73002220FD
:102F2000706172656E743A2200535542524F555487
:102F3000494E452043414C4C207461726765743A98
:102F400022004D4F52542E00747279696E672074BE
:102F50006F2063616C6C207375622D67636F6465AD
:102F60002066696C6573207769746820746F6F20C0
:102F70006D616E79206C6576656C732E204D4158BD
:102F8000206C6576656C2069733A004572726F72C9
:102F90003A001000AA038000400100012C01B0019A
:102FA000220140021001F00202018003F8004004F7
:102FB000F500E004ED009005E4003006DD00E006D9
:102FC000D7008007D1003008CC00D008C7007009B6
:102FD000C300100ABE00B00ABB00500BB700900C33
:102FE000B300D00DAA00B00FA500F010A000301261
:102FF0009600D0129000F0158B00D0178500B01904
:103000008000F01A7B00701D7500F01F6F007022A9
:1030100069004025640020275F00A0295A00902BFA
:103020005500102D4F00502E4800E0314500303340
:103030004100D03539006036370010373300F038A2
:103040002D00A0392700803C1C00403D1700F03DBA
:103050001100803E0900D03FE5FF4572723A2054CE
:10306000454D502E204D494E204C4954004572721A
:103070003A2054454D502E204D494E004D494E5456
:10308000454D5020747269676765726564004572CA
:10309000723A2054454D502E204D4158204C4954F1
:1030A000004572723A2054454D502E204D41580033
:1030B0004D415854454D502074726967676572657B
:1030C0006400202F002042403A0020403A00436133
:1030D0006E6E6F74206F70656E20737562646972B6
:1030E00020006563686F3A00454D42414C4C454DA8
:1030F000454E5420544845524D2E00546865726D1B
:10310000616C2052756E6177617900566465706CF0
:10311000206D696E00566465706C206D696E005696
:103120006465706C206D696E00566D696E00566D39
:10313000696E00566D696E00566D61784500566D7A
:1031400061784500566D61784500566D61785A008A
:10315000566D61785A00566D61785A00566D6178E7
:103160005900566D61785900566D61785900566D59
:1031700061785800566D61785800566D6178580036
:103180004D6F7576656D656E7400416D6178204593
:1031900000416D6178204500416D6178205A004101
:1031A0006D6178205A00416D6178205900416D6150
:1031B00078205900416D6178205800416D61782078
:1031C0005800412D4465706C2E00412D4465706C93
:1031D0002E00412D7265747261637400412D726519
:1031E000747261637400416363656C6572617469D4
:1031F0006F6E00416363656C65726174696F6E0028
:103200004D6F7576656D656E740056652D6A6572D5
:103210006B0056652D6A65726B0056652D6A657286
:103220006B00567A2D6A65726B00567A2D6A65724C
:103230006B0056792D6A65726B0056792D6A65723E
:103240006B0056792D6A65726B0056782D6A65722F
:103250006B0056782D6A65726B0056782D6A657220
:103260006B004D6F7576656D656E74004F726967A2
:10327000696E6520257325732573205072656D690D
:10328000657200205072656D6965720A005A0059B6
:103290000058004F726967696E652000526573655A
:1032A0006E643A20000065E097DF11241FBECFEF67
:1032B000D0E4DEBFCDBF12E0A0E0B1E0E2EDF0EE81
:1032C00001E00BBF02C007900D92A838B107D9F7F3
:1032D00023E1A8E8B2E001C01D92A630B207E1F7F1
:1032E00019E1C4E5D9E104C02197FE010E94CCEFA9
:1032F000C335D107C9F70E9482DB0C945CF00C94B3
:1033000000002F923F924F925F926F927F928F9226
:103310009F92AF92BF92CF92DF92EF92FF920F9364
:103320001F93CF93DF93CDB7DEB7C258D1090FB645
:10333000F894DEBF0FBECDBF80917D128D3409F4AD
:10334000FBC2843511F40C94FE2E873411F00C94DA
:10335000402F80917B1290917C128B31910509F462
:1033600041C264F497FF02C00C945A2F8230910539
:1033700074F1049709F4EFC10C945A2F8A35910522
:1033800009F460C24CF44C9711F00C945A2F80E071
:103390000E94F43F0C945A2F8B35910509F456C2C4
:1033A0008C35910511F00C945A2F0E94DB6E66E863
:1033B000262E61E0362E72E4C72E7AE0D72EE12C5D
:1033C000F12C00E010E028961FAE289780C2809173
:1033D0001101882311F40C945A2FE6E88E2EE1E0B7
:1033E0009E2EFEE4CF2EFAE0DF2EA8E3EA2EA2E125
:1033F000FA2EBBEFAB2EBAE0BB2E00E010E0D401FA
:103400008D914D010E948638882371F10E945338B6
:10341000F801EC56FD4F2081211104C02091980243
:10342000222331F0F701208131814281538103C091
:1034300020E030E0A9010E947DED0330110559F034
:10344000D5012D913D914D915C912B013C01C30122
:10345000B2010E947CED462F572FBC01F60140833C
:103460005183628373830AC0F70180819181A281B5
:10347000B381F60180839183A283B3830F5F1F4FD3
:10348000F4E0CF0ED11C24E0E20EF11C34E0A30ED8
:10349000B11C0430110509F0B2CF86E40E94B538A2
:1034A0008823C9F00E94533820E030E0A9010E942F
:1034B00000EF181684F40E94533820E030E040E713
:1034C00052E40E9400EE609300017093010180932A
:1034D0000201909303018091450B83FD2AC0609106
:1034E0005A0A70915B0A80915C0A90915D0A209162
:1034F0004412309145124091461250914712E0918A
:103500001B0EEE23B1F00E947CED9B01AC0160919B
:103510000D0E70910E0E80910F0E9091100E0E9464
:103520007DED60930D0E70930E0E80930F0E9093B1
:10353000100E80912401882309F45AC0C09018010C
:10354000D0901901E0901A01F0901B01A70196019B
:1035500060914E0A70914F0A8091500A9091510AE1
:103560000E9400EF181644F4C0924E0AD0924F0AFF
:10357000E092500AF092510AC0901C01D0901D01B7
:10358000E0901E01F0901F01A70196016091520A80
:103590007091530A8091540A9091550A0E9400EF4D
:1035A000181644F4C092520AD092530AE092540A78
:1035B000F092550AC0902001D0902101E0902201A4
:1035C000F0902301A70196016091560A7091570A65
:1035D0008091580A9091590A0E9400EF181644F4FD
:1035E000C092560AD092570AE092580AF092590AAD
:1035F0000E94313A8091450B83FD86C0C0905A0AE3
:10360000D0905B0AE0905C0AF0905D0A2091441231
:10361000309145124091461250914712C701B601B0
:103620000E941AE9882309F46FC00E9475878823D5
:1036300001F1C0924412D0924512E0924612F092EB
:103640004712E2EEF0E384918F010F5F1F4F882352
:1036500021F00E943C3AF801F6CFE4E4F1E08491D5
:103660008F010F5F1F4F882321F00E943C3AF80121
:10367000F6CFC0905A0AD0905B0AE0905C0AF090B6
:103680005D0A2091441230914512409146125091AA
:103690004712C701B6010E947CED9F77E091A00A16
:1036A00044E0E49FF0011124EA5DFE4F2081318166
:1036B000428153810E9480E920E030E04AE754E4EF
:1036C0000E9400EF181604F5C0924412D0924512E1
:1036D000E0924612F0924712E2EEF0E384918F01FD
:1036E0000F5F1F4F882321F00E943C3AF801F6CF6C
:1036F000E5E2F1E084918F010F5F1F4F882321F0F5
:103700000E943C3AF801F6CF60912C0170912D0196
:10371000072E000C880B990B0E9421E920910001D3
:103720003091010140910201509103010E9480E912
:103730002AE037ED43E25CE30E9480E90E94AD3667
:1037400080E1EEE4FAE0A8E3B2E101900D928A95FF
:10375000E1F70C945A2F80E50E94B538882329F0B0
:103760000E940F386B017C0103C0C12CD12C760163
:1037700083E50E94B538882361F00E94533820E029
:1037800030E04AE754E40E9480E90E9479EE6B0140
:103790007C010E94DB6E80913301811105C060E0E5
:1037A0008FE591E00E94C9510E94313A80913A0A16
:1037B00090913B0AA0913C0AB0913D0AC80ED91ED7
:1037C000EA1EFB1E0E946DC6DC01CB018C199D090F
:1037D000AE09BF09B7FD02C00C945A2F80E00E94C9
:1037E0001388F0CF0E94B5D581110C945A2F80E038
:1037F00090E0A0E2B1EC89839A83AB83BC8380E044
:1038000090E0A0E2B1E48D839E83AF83B88780E02F
:1038100090E0A0EAB1E489879A87AB87BC8780E50E
:103820000E94B538882319F00E941F3801C060E05B
:1038300068A3BE016F5F7F4FCE0180960E94BF7F5D
:103840000C945A2F109298020C945A2F81E0809376
:1038500098020C945A2F0E9453384B015C0103309C
:10386000110559F0F701E550F54F20813181428172
:1038700053810E947CED4B015C01F701E85CFD4E39
:103880002081318142815381C501B4010E947CEDC8
:103890002B013C012DEB37E346E855EB0E9400EF8E
:1038A00087FD1DC02DEB37E346E855E3C301B201A8
:1038B0000E941AE918169CF00F5F1F4FB4E0CB0E60
:1038C000D11CE4E0EE0EF11C0430110559F1D101D8
:1038D0008D911D010E94B538882371F3BCCF033050
:1038E000110569F48092441290924512A0924612FA
:1038F000B0924712B1E02896BFAF2897DDCFA30161
:103900009201F60160817181828193810E947DED37
:10391000D6016D937D938D939C931397C8010E945C
:10392000D336CACF2896FFAD2897F1110E94B0D6A2
:103930000E94173F0C945A2F80917B1290917C1219
:103940008237910511F40C945A250CF0C6C08B34C3
:10395000910509F487C40CF06CC08831910509F415
:1039600093C2B4F58231910511F40C947F24BCF418
:1039700097FF02C00C945A2F823091050CF4A0C11D
:10398000419711F00C945A2F60E087E991E00E9472
:10399000C95117981798179817980C945A2F853172
:1039A000910509F456C23CF4449711F00C945A2F37
:1039B000E7EBF1E00BC28631910509F44EC247975F
:1039C00011F00C945A2FE0917912F0917A124FC2B3
:1039D0008C31910509F4C0C2B4F48A31910509F41F
:1039E00071C20CF07DC210921E0E83EF9DE00E940A
:1039F0007B6E88EC91E09093630D8093620D0E9442
:103A000031370C945A2F8F31910509F4FFC32CF4F0
:103A10004E9709F4ABC20C945A2F8032910509F4E9
:103A2000A9C38A9711F00C945A2F0E94843A0C94DF
:103A30005A2F8C35910511F40C94D1240CF5813555
:103A4000910509F43CC764F48D34910509F414C45C
:103A50000CF40CC48E34910509F412C40C945A2F42
:103A60008335910509F446C70CF440C784359105A8
:103A700009F445C78535910509F478C70C945A2F88
:103A80008C36910509F4D5C5ACF48936910509F455
:103A9000F0C534F48836910509F403C50C945A2F07
:103AA0008A36910509F45AC68B36910509F47BC60E
:103AB0000C945A2F8E36910509F437C50CF417C6AD
:103AC0008F36910509F444C58037910511F00C94A7
:103AD0005A2F8BEB92E00E94A787833D910511F44A
:103AE0000C94BC270CF070C08139910511F40C9432
:103AF000D0254CF58737910511F40C94BF258CF433
:103B00008537910511F40C94B22514F00C94BB2563
:103B10008337910511F00C945A2FECECF3E00C94E0
:103B200060258937910511F40C94CA2514F40C947E
:103B3000C3258D37910509F448C68C38910509F4E1
:103B40007CC50C945A2F893C910511F40C948F2656
:103B50007CF48E3B910509F4E5C5883C910511F490
:103B60000C944A268B39910511F00C945A2F98C564
:103B70008C3C910511F40C94C72684F48B3C910580
:103B800011F00C945A2F66ECE62E61E1F62E06E851
:103B900011E074E0D72ED00E0C94B8268D3C910520
:103BA00011F40C9433278E3C910511F00C945A2F8C
:103BB00046E8C42E41E0D42E5DE4E52E53E0F52E18
:103BC00000E010E00C94AA27803921E0920711F45C
:103BD0000C947B2DACF5823241E0940711F40C94E7
:103BE00018298CF48D3D910511F40C94A928823E7E
:103BF000910511F40C94EE288C3D910511F00C9474
:103C00005A2F0C949C288E32A1E09A0711F40C9440
:103C1000C3293CF48D32914011F40C9425290C9465
:103C20005A2F8F32F1E09F0711F40C94172A833634
:103C3000914011F00C945A2FEBE8FFE20C94D22E35
:103C4000863F31E0930711F40C94BA2DFCF48C3AC2
:103C500051E0950711F40C947E2D4CF48A39914073
:103C600011F00C945A2F0E9491390C945A2F843FD2
:103C7000E1E09E0711F40C94B72D853F914011F0BF
:103C80000C945A2F0E946C570C945A2F883522E0BE
:103C9000920711F40C94C92D3CF4873F914011F424
:103CA0000C94BD2D0C945A2F803A53E0950709F4DB
:103CB000A0C2873E934011F40C94E92E0C945A2F25
:103CC000A0907912B0907A1280E50E94B5388823CE
:103CD00059F00E940F386B017C0111E0672B682BB3
:103CE000692B31F410E004C010E0C12CD12C760116
:103CF00083E50E94B5388823F1F00E94533820E014
:103D000030E04AE754E40E9480E90E9479EE6B01BA
:103D10007C01111112C0672B682B692B71F4A1145F
:103D2000B10459F0F5018081882339F061E0C501C3
:103D30000E94EA5107C0112391F360E085E891E009
:103D40000E94C95181E0809329030E94DB6E0E948A
:103D5000313AC114D104E104F104F1F080913A0A3E
:103D600090913B0AA0913C0AB0913D0AC80ED91E21
:103D7000EA1EFB1E0E946DC6DC01CB018C199D0959
:103D8000AE09BF09B7FF1EC0809129038823D1F077
:103D900080E00E941388EECF80912903882321F0D0
:103DA00080E00E941388F8CF8091F30D9091F40D7C
:103DB00060E0029719F48AE791E002C088E691E09A
:103DC0000E94C951109229030C945A2F84918F019B
:103DD0000F5F1F4F882321F00E943C3AF801F6CF75
:103DE0001092A4101092A31040E050E0BA018FE4AA
:103DF0009EE00E9404448BE1EFE4FEE0DE011596B4
:103E000001900D928A95E1F780914D0E90914E0EA2
:103E10009C838B838AED91E09A83898340E050E014
:103E2000BE016F5F7F4F8FE692E00E94FEC3CE011E
:103E300001960E949587E8EAF1E084918F010F5F77
:103E40001F4F882311F40C945A2F0E943C3AF8011A
:103E5000F4CF0E9495BA0C945A2F10921E0E109215
:103E60001F0E0C945A2F803209F4108231968081F3
:103E70008111F9CF40E061E08091791290917A123E
:103E80000E9454B70C945A2F19821A821B821C82EA
:103E900018A219A21AA21BA280915E0A882339F0E7
:103EA000BE016F5F7F4FCE0180960E94FC8A809199
:103EB0001F0E882319F081E080931E0E0E9453D6B6
:103EC0000C945A2F80911F0E882311F40C945A2FB2
:103ED00083E50E94B53881110C945D2F0C945A2F04
:103EE00080911F0E882351F1EDECF1E084918F0158
:103EF0000F5F1F4F882321F00E943C3AF801F6CF54
:103F000060919A1070919B1080919C1090919D10DF
:103F10004AE00E94DA3D8FE20E943C3A609196109E
:103F20007091971080919810909199104AE00E949A
:103F3000DA3D8AE00E943C3A0C945A2FEFEDF1E012
:103F400084918F010F5F1F4F882311F40C945A2F17
:103F50000E943C3AF801F4CF40E060E08091791291
:103F600090917A120E9454B70C945A2F80911F0E90
:103F7000882311F40C945A2F89EE9FE00E948F46FB
:103F800089EE9FE00E94594810921D0E10921C0E5F
:103F9000E0907912F0907A1280911F0E882311F42C
:103FA0000C945A2F0E947EC19E012F5F3F4F6901E2
:103FB000C9010E9402418BE49EE090936B0E8093B6
:103FC0006A0ED7018C918F3209F060C06FE270E009
:103FD000C7010E9419F08C010F5F1F4F09F45CC0EC
:103FE0006FE270E0C8010E9419F05C01009709F4CB
:103FF00054C00817190708F050C04C01801A910AE4
:10400000A401B801CE0180960E9442F0E0E2F0E007
:10401000EC0FFD1FE80DF91D10828E01005E1F4F91
:10402000F80181918F01882319F00E943C3AF8CF62
:104030008AE00E943C3A60916A0E70916B0E6115A5
:10404000710511F06C5F7F4F21E0AE01405E5F4F64
:10405000CE0105960E94504A811112C0BE01605ED9
:104060007F4F86E192E00E94E99F8EE20E943C3AF7
:104070008AE00E943C3AC6010E9495870C945A2F10
:10408000D0926B0EC0926A0E8501A6CF8CE69EE0A0
:1040900090936B0E80936A0E870160916A0E709107
:1040A0006B0E6115710511F06C5F7F4F18A21BA29A
:1040B00022E0A801CE0180960E94504A811102C0E0
:1040C000F12C14C0CE0180960E94ECC08823C1F36D
:1040D00061E0CE0180960E947346009789F325EE39
:1040E000DC012C931BA20E940C41F82ECE0180967D
:1040F0000E948239FF2009F1E0EFF1E084917F0115
:10410000BFEFEB1AFB0A882321F00E943C3AF7012B
:10411000F5CFF80181918F01882319F00E943C3A74
:10412000F8CF8AE00E943C3A10929A1010929B10AD
:1041300010929C1010929D1018C0EEEFF1E0849147
:104140007F012FEFE21AF20A882321F00E943C3A05
:10415000F701F5CFD8018D918D01882319F00E94C8
:104160003C3AF8CF8EE20E943C3AC6010E94958705
:104170000C945A2F80911E0E81110E94DB6E80914B
:104180001F0E882311F40C945A2F80E50E94B53835
:10419000882319F00E94433803C080E50E948638C6
:1041A000182F482F61E08091791290917A120E9425
:1041B00054B783E50E94B538882381F00E941F38E8
:1041C000AB01BC0140939A1050939B1060939C10DC
:1041D00070939D1089EE9FE00E94044480911F0E11
:1041E000882319F081E080931E0E11110C945A2F30
:1041F00065CE8091791290917A1221E020931D0E64
:1042000040E060E00E9454B70C945A2F83EF9DE089
:104210000E944E6E68A379A38AA39BA3BE016F5F21
:104220007F4FCE0180960E94C23860E0CE01019699
:104230000E94EA51E2EEF0E384918F010F5F1F4F7D
:10424000882321F00E943C3AF801F6CFBE016F5F4F
:104250007F4F8AE292E00E94E99F8AE00E943C3A06
:104260000C945A2F0E9453D60C945A2F83EF9DE042
:104270000E947B6E0C945A2F0E94A6C10C945A2F58
:1042800083E50E94B538882359F00E941F386E34A8
:10429000710531F483EF9DE00E941EA00C945A2F0B
:1042A00018A219A21AA21BA2E7E9F2E084918F01D9
:1042B0000F5F1F4F882321F00E943C3AF801F6CF90
:1042C000EEE8F2E084918F010F5F1F4F882321F009
:1042D0000E943C3AF801F6CF6091010E7091020EF7
:1042E00080E090E04AE00E94DA3DE1E8F2E084916B
:1042F0008F010F5F1F4F882321F00E943C3AF80185
:10430000F6CF6091030E7091040E80E090E04AE0D9
:104310000E94DA3DE6E7F2E084918F010F5F1F4FC4
:10432000882321F00E943C3AF801F6CF6091010EFB
:104330007091020E8091030E9091040E681B790B10
:104340008091F30D9091F40D019721E030E00297F8
:1043500010F020E030E0621B730B80E090E04AE058
:104360000E94DA3D8AE00E943C3AEEE6F2E0849157
:104370008F010F5F1F4F882321F00E943C3AF80104
:10438000F6CF8091050E9091060EA091070EB09188
:10439000080E88A399A3AAA3BBA3BE016F5F7F4F9A
:1043A000CE0180960E94C238E1E6F2E084918F014E
:1043B0000F5F1F4F811105C0FE0131967F018F01F4
:1043C00004C00E943C3AF801F1CFD8018D918D01D3
:1043D000882319F00E943C3AF8CF8091090E909101
:1043E0000A0EA0910B0EB0910C0E88A399A3AAA35C
:1043F000BBA3BE016F5F7F4FCE0180960E94C23883
:10440000E1E5F2E084918F010F5F1F4F882321F0D7
:104410000E943C3AF801F6CFF70181917F01882391
:1044200019F00E943C3AF8CF8AE00E943C3AE9E455
:10443000F2E084918F010F5F1F4F882321F00E94CB
:104440003C3AF801F6CFE9E3F2E084918F010F5F87
:104450001F4F882321F00E943C3AF801F6CF20E05C
:1044600030E04AE754E460910D0E70910E0E809199
:104470000F0E9091100E0E9400EE42E00E94A23EAC
:10448000E7E3F2E084918F010F5F1F4F882321F053
:104490000E943C3AF801F6CF8AE00E943C3A0C9424
:1044A0005A2F8091A00A80936F0D8091450B83FF56
:1044B00002C00C945A2F83E50E94B538882311F46A
:1044C0000C945A2F0E9453380E9472EE7093191266
:1044D0006093181280E00E9452C00E9453382091CD
:1044E000A10A3091A20A4091A30A5091A40A0E9405
:1044F00000EF181614F00C945A2F82EF91E09F935E
:104500008F9380916F0D90E001969F938F938FE929
:1045100092E09F938F931F920E9489C10FB6F894E7
:10452000DEBF0FBECDBF0C945A2F8EE40E94B5386B
:10453000882311F40C945A2F0E941F386093530B58
:104540007093540B8093550B9093560B0C945A2FE9
:1045500083E50E948638882359F083E50E94B538A8
:10456000882319F00E942F3801C080E08093450B0A
:10457000E2EEF0E384918F010F5F1F4F882321F05B
:104580000E943C3AF801F6CFE4EBF2E084918F010F
:104590000F5F1F4F882321F00E943C3AF801F6CFAD
:1045A0008091450B8823A1F156EAC52E52E0D52E05
:1045B000E12CF12C20E08091450B90E00E2C02C004
:1045C000959587950A94E2F780FF17C0BB24B394B2
:1045D000B20E222319F08CE20E943C3AF60125919A
:1045E0003491F901849189010F5F1F4F882321F0D5
:1045F0000E943C3A9801F5CF2B2DFFEFEF1AFF0AEE
:1046000032E0C30ED11C45E0E416F104A1F60CC063
:10461000E0EBF2E084918F010F5F1F4F882321F0C0
:104620000E943C3AF801F6CF8AE00E943C3A0C9492
:104630005A2F109225010C945A2F8091450B83FF1D
:1046400002C00C945A2F83E50E94B538882311F4D8
:104650000C945A2F0E9453380E9472EE63387105F1
:1046600014F062E870E070931D1260931C120C94B9
:104670005A2F8091A00A80936F0DE1ECF2E08491B3
:104680008F010F5F1F4F882321F00E943C3AF801F1
:10469000F6CF0E9408BE8AE00E943C3A0C940B358B
:1046A00083E50E94B538882311F40C945A2F0E9498
:1046B0002F38182F8D3308F01CE31093370A0E940F
:1046C0006DC66B017C01212F30E0A8EEB3E00E94A3
:1046D0006DEDC60ED71EE81EF91EC092330AD092A9
:1046E000340AE092350AF092360A0C945A2F8091DF
:1046F000A00A80936F0D8091450B83FF02C00C943C
:104700005A2F83E50E94B53860968FAF609781116C
:104710000C946E2F82E50E94B53881110C946E2F97
:104720000C945A2F8091450B83FF02C00C945A2F92
:1047300060E089EF92E00E94C95183E50E94B5389C
:1047400060968FAF609781110C94F33082E50E94E0
:10475000B53881110C94F3300C945A2F80E50E94E7
:10476000B538811108C083E50E94B538811109C0B0
:104770003FEF20E00AC00E942F3881110C945A2F7D
:10478000F2CF0E941F38362F272F832F922F8F3F73
:10479000910519F010F08FEF90E090931B12809329
:1047A0001A120C945A2F80E50E94B538811106C068
:1047B00010921B1210921A120C945A2F0E941F383A
:1047C000672B11F00C945A2FF3CF8CE40E9486389B
:1047D000882319F00E94533804C060E070E080E83C
:1047E00090EC6BAF7CAF8DAF9EAF80E090E0A0E22D
:1047F000B1EC89839A83AB83BC8380E090E0A0E234
:10480000B1E48D839E83AF83B88780E090E0A0EA17
:10481000B1E489879A87AB87BC8788E50E94B53861
:10482000882379F088E50E94B538882319F00E9422
:10483000533803C060E070E0CB0169837A838B83D7
:104840009C8389E50E94B538882379F089E50E9428
:10485000B538882319F00E94533803C060E070E037
:10486000CB016D837E838F8398878AE50E94B5385C
:10487000882379F08AE50E94B538882319F00E94D0
:10488000533803C060E070E0CB0169877A878B877B
:104890009C8718A219A21AA21BA280915E0A8111FC
:1048A0000C945A2F20E0AE01405E5F4FBE016F5F57
:1048B0007F4FCE01CB960E942A8A0C945A2F0E94D9
:1048C0009DC00E94DB6E0E949D8710921B12109269
:1048D0001A1268EE73E080E090E00E941FCC60E066
:1048E0008AE093E00E94C9510C945A2F10929702CB
:1048F0000C945A2F81E0809397020C945A2F83E5F1
:104900000E94B5388823A1F00E94533820E030E09F
:104910004AE754E40E9480E90E9479EE6093120114
:104920007093130180931401909315010C945A2FE6
:1049300088E50E94863881110C94523289E50E94E4
:10494000863881110C9452328AE50E948638811192
:104950000C94523285E40E94863881110C945232B4
:104960000E94DB6E0E949D870C945A2F83E50E9463
:104970008638882311F40C945A2F0E94533820E073
:1049800030E04AE754E40E9480E90E9479EE6093A7
:104990003E0A70933F0A8093400A9093410A0C9418
:1049A0005A2F96E8C92E91E0D92E28E4E22E22E172
:1049B000F22E10E0D6018D916D010E948638882379
:1049C00009F46DC0133009F063C00E9453384B01E5
:1049D0005C0120E030E040EA51E40E941AE987FFE0
:1049E0004EC0A501940160915412709155128091AE
:1049F0005612909157120E9400EE2B013C019B0130
:104A0000AC016091FE117091FF11809100129091A4
:104A100001120E9480E96093FE117093FF11809350
:104A2000001290930112A30192016091D211709132
:104A3000D3118091D4119091D5110E9480E9609397
:104A4000D2117093D3118093D4119093D5116091AA
:104A5000C60A7091C70A8091C80A9091C90A0E943B
:104A60001FE9A30192010E9480E90E9479EE609300
:104A7000C60A7093C70A8093C80A9093C90A8092A5
:104A8000541290925512A0925612B092571207C02B
:104A90000E945338F70160837183828393831F5F81
:104AA000F4E0EF0EF11C143009F084CF0E9461A1F4
:104AB0000C945A2F0E94DB6E0E94173F0C945A2FC1
:104AC00084918F010F5F1F4F882321F00E943C3A91
:104AD000F801F6CF60E08CEB93E00E945E3E61E06F
:104AE00085EB93E00E945E3E61E08AEA93E00E94DB
:104AF0005E3E61E08AE993E00E945E3E60E081E90B
:104B000093E00E945E3E61E087E893E00E945E3E93
:104B100060E08DE793E00E945E3E60E085E793E011
:104B20000E945E3E60E087E693E00E945E3E60E0A9
:104B300089E593E00E945E3E60E08AE493E00E9493
:104B40005E3E60E08CE393E00E945E3E60E086E2C1
:104B500093E00E945E3E60E085E193E00E945E3E4D
:104B60000C945A2F60E08091791290917A120E94F1
:104B7000EA510C945A2F0E94433A0C945A2F0E94E7
:104B800002810C945A2F81E08093F20D8093F10DF5
:104B90000C945A2F1092F20D1092F10D0C945A2F82
:104BA00083E50E94B538882319F00E941F3802C09F
:104BB00060E070E08B01112702301105D4F0EBE8C2
:104BC000FFE284918F010F5F1F4F882321F00E9425
:104BD0003C3AF801F6CFEDE8F4E084918F010F5FE5
:104BE0001F4F882311F40C945A2F0E943C3AF8016D
:104BF000F4CF88E40E94B5388823A9F00E941F38BA
:104C0000663971053CF0653021E072072CF064E0F4
:104C100071E002C066E970E0F801EE0FFF1FE75D8A
:104C2000F44F7183608386E40E94B5388823A9F02D
:104C30000E941F38F801EE0FFF1FE35DF44F7183F0
:104C400060836F3F710519F014F06FEF70E077FF2C
:104C500002C060E070E07183608382E40E94B53836
:104C6000882311F40C945A2F0E941F386530710567
:104C700034F0643771052CF063E770E002C065E042
:104C800070E0000F111FF801EB5DF44F718360833A
:104C90000C945A2F8091A00A80936F0D84E40E9497
:104CA00086388823C1F10E94533811E020E030E0BB
:104CB000A9010E941AE9811101C010E01093B10A04
:104CC000112349F10E945338E0916F0D34E0E39FC6
:104CD000F0011124EE54F54F608371838283938336
:104CE00020E030E0A9016091B20A7091B30A80918E
:104CF000B40A9091B50A0E941AE981110CC080E0B3
:104D000090E0A0EEBFE38093B20A9093B30AA09321
:104D1000B40AB093B50A0E94B7A20C945A2FE6EDDC
:104D2000EE2EE1E1FE2E06E811E0F4E0DF2ED00EDB
:104D3000D8018D918D010E948638882349F00E9408
:104D400053380E9479EEF7016083718382839383E5
:104D5000F4E0EF0EF11CD012EBCF0E9434A00C94C3
:104D60005A2FF4E0EF0EF11CD01611F40C945A2FC8
:104D7000D8018D918D010E948638882391F30E947D
:104D80005338F7016083718382839383EACF83E58D
:104D90000E9486388823D9F00E945338AB01BC01A9
:104DA0004093EE115093EF116093F0117093F11155
:104DB0004093E6115093E7116093E8117093E91165
:104DC00089E095E00E94B39F8AE00E943C3A80E52A
:104DD0000E948638882399F00E945338AB01BC01A9
:104DE0004093EE115093EF116093F0117093F11115
:104DF0008CEE94E00E94B39F8AE00E943C3A82E5E8
:104E00000E948638882399F00E945338AB01BC0178
:104E10004093EA115093EB116093EC117093ED11F4
:104E20008DEC94E00E94B39F8AE00E943C3A84E5B6
:104E30000E948638882311F40C945A2F0E9453380C
:104E4000AB01BC014093E6115093E7116093E81168
:104E50007093E9118FEA94E00E94B39F8AE00E9468
:104E60003C3A0C945A2F83E50E948638882351F0EF
:104E70000E9453386093C2117093C3118093C41180
:104E80009093C51184E50E948638882351F00E94D2
:104E900053386093BE117093BF118093C0119093EB
:104EA000C11182E40E948638882351F00E940F3895
:104EB0006093B60A7093B70A8093B80A9093B90AC0
:104EC00088E50E948638882351F00E945338609309
:104ED000F2117093F3118093F4119093F51189E519
:104EE0000E948638882351F00E9453386093F6114F
:104EF0007093F7118093F8119093F9118AE50E944D
:104F00008638882351F00E9453386093FA117093C9
:104F1000FB118093FC119093FD1185E40E9486386B
:104F2000882311F40C945A2F0E9453386093FE1179
:104F30007093FF1180930012909301120C945A2FDA
:104F40000F5F1F4FF4E0EF0EF11C0330110511F459
:104F50000C94981CD6018D916D010E94863888238F
:104F600079F30E945338F7016083718382839383BE
:104F7000C8010E94D336E4CFE2EEF0E384918F01C2
:104F80000F5F1F4F882321F00E943C3AF801F6CFB3
:104F900083E50E948638882321F00E94433880935D
:104FA0002401EEE5F5E084918F010F5F1F4F882308
:104FB00021F00E943C3AF801F6CF80912401811142
:104FC00003C0E8E5F5E002C0E1E5F5E084918F017A
:104FD0000F5F1F4F882321F00E943C3AF801F6CF63
:104FE000E9E4F5E084918F010F5F1F4F882321F0E2
:104FF0000E943C3AF801F6CF2091FB0A3091FC0A5E
:105000004091FD0A5091FE0A6091880270918902D8
:1050100080918A0290918B020E947DEDAB01BC01D0
:1050200087E495E00E94B39F2091FF0A3091000B26
:105030004091010B5091020B60918C0270918D0296
:1050400080918E0290918F020E947DEDAB01BC0198
:1050500084E495E00E94B39F2091030B3091040BF0
:105060004091050B5091060B609190027091910256
:1050700080919202909193020E947DEDAB01BC0160
:1050800081E495E00E94B39FE9E3F5E084918F010C
:105090000F5F1F4F882321F00E943C3AF801F6CFA2
:1050A0002091FB0A3091FC0A4091FD0A5091FE0AC2
:1050B000609118017091190180911A0190911B0162
:1050C0000E947DEDAB01BC0187E395E00E94B39F98
:1050D0002091FF0A3091000B4091010B5091020B7F
:1050E00060911C0170911D0180911E0190911F0122
:1050F0000E947DEDAB01BC0184E395E00E94B39F6B
:105100002091030B3091040B4091050B5091060B3D
:1051100060912001709121018091220190912301E1
:105120000E947DEDAB01BC0181E395E00E94B39F3D
:105130008AE00E943C3ABEC683E50E94B5388823C7
:1051400009F4B8C60E941F3870932D0160932C019A
:10515000B1C68091A00A80936F0D83E50E94B53897
:10516000882309F4A7C600916F0D10E00E941F3834
:10517000000F111FF801E65DFE4F7183608380917F
:105180006F0D90E08C01000F111F000F111F98018F
:105190002A5D3E4F7901880F991FFC01E65DFE4FA5
:1051A00060817181072E000C880B990B0E9421E908
:1051B0002AE037ED43E25CE30E9480E9F801EA5B14
:1051C000F44F20813181428153810E9480E9D701CF
:1051D0006D937D938D939C9313976CC680E50E948D
:1051E0008638882309F466C60E941F386B017C014B
:1051F00083E50E94B538882321F00E941F388B0177
:1052000002C00FEF1FEFC8010196039708F052C6C6
:10521000D7FC50C69C2DEEE6F5E088E28E0F249177
:10522000921709F447C631968E13F9CF0C94E234E5
:105230008AE50E94B53881110C946E3283E50E9494
:10524000B53881110C946E3235C685E40E94B538AC
:10525000811110C080E50E948638882391F00E9459
:1052600053386093190B70931A0B80931B0B909318
:105270001C0B07C00E942F38882361F3EBE8FFE284
:1052800071C089E40E948638882381F00E945338D7
:105290002CEA35EC47E25EE30E9480E96093210B43
:1052A0007093220B8093230B9093240B84E40E9431
:1052B0008638882381F00E9453382CEA35EC47E287
:1052C0005EE30E9400EE60931D0B70931E0B8093B3
:1052D0001F0B9093200BE2EEF0E384918F010F5FA0
:1052E0001F4F882321F00E943C3AF801F6CF4091ED
:1052F000190B50911A0B60911B0B70911C0B8EE9CE
:1053000095E00E94B39F2CEA35EC47E25EE36091A2
:10531000210B7091220B8091230B9091240B0E9402
:1053200000EEAB01BC018AE995E00E94969F2CEA51
:1053300035EC47E25EE360911D0B70911E0B80918E
:105340001F0B9091200B0E9480E9AB01BC0186E904
:1053500095E00E94969F8AE00E943C3AABC50E946D
:105360003C3AF80184918F010F5F1F4F8111F7CFF5
:1053700000E012E0F80181918F01882309F454C9FB
:105380000E943C3AF7CF83E50E948638182F882385
:1053900071F00E9453380E9472EE7093170160936F
:1053A000160121E0672B09F020E02093A50A80E593
:1053B0000E948638882359F02091160130911701F8
:1053C000232B11F00E9443388093A50A73C5111155
:1053D00071C5E2EEF0E384918F010F5F1F4F8823C8
:1053E00021F00E943C3AF801F6CF8091A50A811184
:1053F00003C06EEE71E002C062E772E087EB95E0F9
:105400000E94E99F609116017091170186EA95E06C
:105410000E94D09FE2EAF5E084918F010F5F1F4F59
:10542000882309F447C50E943C3AF801F5CF85E48A
:105430000E94B538882321F00E941F387B0102C0EA
:10544000E12CF12C83E40E94B538882331F00E94CE
:105450001F38A9966FAFA99704C025E0A9962FAF72
:10546000A99785E50E94B538882319F00E94433832
:1054700003C085E50E948638E5968FAFE597F7FC77
:1054800007C0812C912C16E1A12E13E4B12E06C089
:10549000812C912CBCE8AB2EB2E4BB2E83E50E949C
:1054A000B538882321F00E9453384B015C01E11488
:1054B000F10411F410926F0D0E946DC62B013C0196
:1054C000E11003C001E112E00BC004E212E0D801D8
:1054D0008D918D01882309F4A7C80E943C3AF7CF2B
:1054E000F80181918F01882319F00E943C3AF8CF8E
:1054F000C501B4010E9472EE072E000C880B990BB7
:105500000E9421E960966FAF609761967FAF6197C7
:1055100065968FAF659766969FAF6697A3019201D8
:1055200020543B424E4F5F4FC358DF4F288339838F
:105530004A835B83CD57D0408AE00E943C3A0E9468
:105540009DC08FE780936D0D81E080932501E096EB
:105550004CAE5DAE6EAE7FAEE097E9964CAE5DAE02
:105560006EAE7FAEE997AC961FAEAC97ED961CAED3
:105570001DAE1EAE1FAEED9769961FAE699730E463
:105580006A963FAF6A974CE16B964FAF6B9756E4C4
:105590006C965FAF6C976D961FAE6D976E961FAE53
:1055A0006E976F961FAE6F97A0961FAEA097A896A6
:1055B0001CAE1DAE1EAE1FAEA897A4961CAE1DAEAF
:1055C0001EAE1FAEA497C12CD12C7601AFE78A2E58
:1055D000912CA12CB12C8FE790E0A0E0B0E02F96A9
:1055E0008CAF9DAFAEAFBFAF2F97E4961CAE1DAE94
:1055F0001EAE1FAEE49791E0AB969FAFAB97689657
:105600001FAE1EAE689710E0212C312C00E0A99649
:10561000AFADA9970A2E000CBB0BAA96BFAFAEAFD9
:10562000AA9780912501882309F402C10E946DC6C2
:105630002B966CAF7DAF8EAF9FAF2B9780916A0D8D
:10564000882309F4D1C00E94BCC01091A10A209007
:10565000A20A3090A30A0091A40A212F322D432DD3
:10566000502F6D966FAD6D976E967FAD6E976F965E
:105670008FAD6F97A0969FADA0970E941AE987FF04
:105680000CC06D961FAF6D976E962FAE6E976F968E
:105690003FAE6F97A0960FAFA097212F322D432DCD
:1056A000502F69966FAD69976A967FAD6A976B9632
:1056B0008FAD6B976C969FAD6C970E9400EF18169C
:1056C00064F469961FAF69976A962FAE6A976B96D6
:1056D0003FAE6B976C960FAF6C97AB96BFADAB9729
:1056E00060962FAD609761963FAD619765964FAD1F
:1056F000659766965FAD6697612F722D832D902F0B
:10570000BB2309F455C00E9400EF18160CF06CC0C2
:105710002B964CAD5DAD6EAD7FAD2B974419550901
:1057200066097709DB01CA0188589341A109B109CB
:10573000B7FD5AC02F968CAD9DADAEADBFAD2F97C6
:1057400088199909AA09BB09B595A79597958795D1
:1057500080936D0DE4964CAF5DAF6EAF7FAFE49775
:105760006096EFAD60976D96EFAF6D976196FFAD68
:1057700061976E96FFAF6E9765962FAD65976F96A2
:105780002FAF6F9766963FAD6697A0963FAFA097F5
:105790002B968CAD9DADAEADBFAD2B97E0968CAF8B
:1057A0009DAFAEAFBFAFE097AB961FAEAB971CC03F
:1057B0000E941AE987FF18C02B968CAD9DADAEAD47
:1057C000BFAD2B97E0962CAD3DAD4EAD5FADE097F4
:1057D000821B930BA40BB50BAC01BD014858534180
:1057E0006109710977FFB6C620E030E040EA51E474
:1057F00060966FAD609761967FAD619765968FAD4E
:10580000659766969FAD66970E947DED9B01AC0102
:10581000612F722D832D902F0E9400EF18167CF4BB
:10582000E8ECF6E084918F010F5F1F4F811103C0F8
:105830000E949DC03FC30E943C3AF801F3CF2B96D3
:105840008CAD9DADAEADBFAD2B97E9962CAD3DAD0A
:105850004EAD5FADE997821B930BA40BB50BB7FD63
:10586000ABC00E9408BE8AE00E943C3A2B968CADE9
:105870009DADAEADBFAD2B978053984FAF4FBF4F8F
:10588000E9968CAF9DAFAEAFBFAFE997AC969FAD39
:10589000AC9791116EC0ED962CAD3DAD4EAD5FADA8
:1058A000ED97612F722D832D902F0E9400EF181617
:1058B0000CF046C020E030E040E051E460966FAD6F
:1058C000609761967FAD619765968FAD6597669697
:1058D0009FAD66970E947CED9B01AC01A1E0AC9668
:1058E000AFAFAC97612F722D832D902F0E9400EFE8
:1058F00018161CF0AC961FAEAC9720E030E040E0EC
:1059000050E4612F722D832D902F0E947DEDED9636
:105910006CAF7DAF8EAF9FAFED972B962CAD3DADAD
:105920004EAD5FAD2B9720543B424E4F5F4FC35857
:10593000DF4F288339834A835B83CD57D0403CC0F7
:105940002B968CAD9DADAEADBFAD2B97C358DF4F41
:10595000288139814A815B81CD57D040821B930BCE
:10596000A40BB50BB7FD28C047EA56E069EB76E01B
:1059700020C020E030E040EA51E460966FAD6097CF
:1059800061967FAD619765968FAD659766969FAD81
:1059900066970E947CED9B01AC01612F722D832DD7
:1059A000902F0E941AE987FF07C044E856E067E994
:1059B00076E080E00E94C86C2B968CAD9DADAEADBC
:1059C000BFAD2B97880F991FAA1FBB1FE0962CAD68
:1059D0003DAD4EAD5FADE097821B930BA40BB50BB5
:1059E00084199509A609B70981389F44A241B105D8
:1059F00068F0E6E6F6E084918F010F5F1F4F882381
:105A000009F416CF0E943C3AF801F5CF68964EADE6
:105A10005FAD6897AA968EAD9FADAA97841795073C
:105A20000CF066C0E9E0F6E084918F010F5F1F4F34
:105A3000882321F00E943C3AF801F6CFB701A60175
:105A400084EF95E00E94B39F8AE00E943C3AA496BE
:105A50004CAD5DAD6EAD7FADA4978FED95E00E942E
:105A6000B39F8AE00E943C3AA8964CAD5DAD6EAD06
:105A70007FADA8978AEC95E00E94B39F8AE00E94D0
:105A80003C3AE5969FADE597992309F413C2C0927D
:105A9000190BD0921A0BE0921B0BF0921C0B2CEA04
:105AA00035EC47E25EE3A4966CAD7DAD8EAD9FAD67
:105AB000A4970E9480E96093210B7093220B80933E
:105AC000230B9093240B2CEA35EC47E25EE3A89677
:105AD0006CAD7DAD8EAD9FADA8970E9400EE60933A
