:100000000C9442220C9473220C9473220C9473224D
:100010000C9473220C9473220C9473220C9473220C
:100020000C9473220C9473220C9473220C947322FC
:100030000C9473220D9451610C9473220C947322CE
:100040000C9473220D9474040C9473220C947322F8
:100050000C9473220C9473220C94EAFE0D940761A5
:100060000C9473220C9495930C948B930C947322A0
:100070000C9473220C9473220C9473220C947322AC
:100080000C9473220C9473220C9473220C9473229C
:100090000C9473220C9473220C9473220C9473228C
:1000A0000C9473220C9473220C9473220C9473227C
:1000B0000C9473220C9473220C9473220C9473226C
:1000C0000C9473220C9473220C9473220C94B25BE4
:1000D0000C947C5B0C9473220C9473220C9473220A
:1000E0000C9473220C9463D10C94DDE20C9483D6AF
:1000F0000C94FDBE0D94B15D0C9485E10C9429DE49
:100100000C94C9DC0C94B5520C9474D30C9413E188
:100110000C94C7BF0C94B2EC0C946BEC0C9437E2CB
:100120000C94D5CF0C949FE90C94A4DE0C9496D03B
:100130000C949C320D94E16F0C94C2320D94BF5D0F
:100140000C94A3450C94CFCB0C94ADD60C942FBE3D
:100150000C940BB40C9493DD0C94BDEA0C94C2DEA9
:100160000C9412BB0C9403CF0C9461D60C9464BE17
:100170000C94D1B30C94DFAE0D94A05D0C94D3E33A
:100180000C94F5DC0C946E330C94BAEE0C941BBBFF
:100190000C941FC00C9471CD0C94BAB40C94FDC097
:1001A0000C94A7430C9461EB0C943BCB0D94E06A48
:1001B0000C94DBEB0C94AADE0C9465CD0C94B2D2BB
:1001C0000C9482E10C94EF520C9439EF0C94095288
:1001D0000C94B7AF0C946ACD0C9405330D949C5DD0
:1001E0000C940D520C946DE70C94CFCD0C941CEC38
:1001F0000C9414E90C94BCD10C94D1AF0D94526FB3
:100200000C946A320C94C5DE0C9433460C94BA42BA
:100210000C94D7450C943E520C9434BE0C942EB4DE
:100220000D94D86E0C946CE40C9490DD0C94B0DEBC
:100230000C94F8E70C944FE60C94DFE00D94C95D44
:100240000C9464E00C94B0CC0D949F6B0C944433EC
:100250000C9492520C94EC320C949EDE0C94BFDE03
:100260000C9483E80C941ED30C94DFDF0D948B6EFA
:100270000C945EDF0D94D75D0C94DB320D949F706F
:100280000C942EEA0C9426BE0C9451B40C9426BC0B
:100290000C94A1DE0C9435EF0C949BD00C9414CFED
:1002A0000C94B3DE0C9458E30C94A7D00C94D9D2E0
:1002B0000C9498DE0C9489E10C9465EB0C9463ED3E
:1002C0000D9479710C94A7DE0C942F450D94026C5B
:1002D0000C94BBDE0C94C1430C9426DE0C9469EBA9
:1002E0000D94DB5D0C945CBE0C94B7DE0D94C35D85
:1002F0000C94F2DC0D94BB5D0C949BDE0C9448D204
:100300000C94DCE00C94E3AE0C946B450D94C2703D
:100310000C948DE10C9405E50C94E3BB0C942CDE5D
:100320000C9408CF0C94CBDC0C9498330C949CD692
:100330000C940CCF0C947F320C947BD10C9410CF86
:100340000D94B8690C946F520C9416E10C94CEBFC6
:100350000C942FDE0C9456BB0C9487330C94EFBE98
:100360000C94E5BD0D9459680C944BE60D94A45D76
:100370000C94ECDC0C94EFDC0D94855D0D948A5D9F
:100380000C9403DD0C945FED0C946ED30C94024737
:100390000C94F8DC0C94C8DE0D94B55D0C9419E156
:1003A0000C9416330C9489EF0C9436CB0C9497B4C0
:1003B0000C9480AF0D94CD5D0C9472D30C947E465A
:1003C0000C943ECB0C9410E10D94A85D0C9461E06C
:1003D0000D94156F0C94D5D50C94C1BB0D94D15DC3
:1003E0000C94B2C00C94A3BB0D94226D0C94ADDEA2
:1003F0000C9485C10C94B1320C94E0E60C94D9D5E0
:100400000C9453E60C9415EE0C9474B40C9426D60C
:100410000C9410E90D945B710D949E6C0C940DE19D
:100420000D94AB5D0C9483D10C9422BC0C946AC0E7
:100430000C9427330D94056E0C94CDB30C9477BEB9
:100440000C94C5460C9481D20C944BC10C940CD2E4
:100450000C9459330C94D8E50C943CAF0C9491E176
:100460004E414E494E495459494E46CDCCCC3D0A99
:10047000D7233C17B7D13877CC2B329595E6241F7C
:10048000B14F0A000020410000C84200401C462035
:10049000BCBE4CCA1B0E5AAEC59D7400407A10F308
:1004A0005A00A0724E18090010A5D4E80000E876A2
:1004B00048170000E40B54020000CA9A3B000000F9
:1004C000E1F505000080969800000040420F000012
:1004D00000A08601000000102700000000E80300D3
:1004E0000000006400000000000A0000000000019D
:1004F00000000000002C76D888DC674F0823DFC19D
:10050000DFAE59E1B1B796E5E3E453C63AE6519957
:100510007696E8E6C28426EB898C9B62ED407C6F80
:10052000FCEFBC9C9F40F2BAA56FA5F490055A2A37
:10053000F75C936B6CF9676DC11BFCE0E40D47FE43
:10054000F520E6B500D0ED902E0300943577050038
:1005500080841E080000204E0A000000C80C3333BF
:1005600033330F986E12831141EF8D2114893BE6CE
:100570005516CFFEE6DB18D1844B381BF77C1D9057
:100580001DA4BBE424203284725E228100C9F124C0
:10059000ECA1E53D27434F4D4D554E49434154494C
:1005A0004F4E0044525952554E004552524F5253ED
:1005B00000494E464F004543484F004572726F72E6
:1005C0002077726974696E6720746F2045455052B8
:1005D0004F4D210A004D323930004D343130004D3D
:1005E000313132004D313038005072696E746572AD
:1005F0002073746F707065642064756520746F205B
:100600006572726F72732E20466978207468652057
:100610006572726F7220616E6420757365204D394A
:10062000393920746F20726573746172742E2028BA
:1006300054656D706572617475726520697320729E
:10064000657365742E205365742069742061667427
:1006500065722072657374617274696E67290A002D
:100660004E6F20436865636B73756D20776974689E
:10067000206C696E65206E756D6265722C204C6110
:100680007374204C696E653A2000636865636B7310
:10069000756D206D69736D617463682C204C617396
:1006A00074204C696E653A20004C696E65204E7569
:1006B0006D626572206973206E6F74204C61737473
:1006C000204C696E65204E756D6265722B312C2051
:1006D0004C617374204C696E653A20004D313130A5
:1006E0000053442072656164206572726F720A0063
:1006F0002121204B494C4C20636175736564206255
:1007000079204B494C4C20627574746F6E2F706960
:100710006E0A002121204B494C4C206361757365A2
:100720006420627920746F6F206D75636820696E34
:100730006163746976652074696D65202D20637529
:100740007272656E7420636F6D6D616E643A200025
:100750004D3130303053004D363030006563686FB6
:100760003A004572726F723A0042696C696E656157
:1007700072204C6576656C696E6720477269643AD1
:100780000A00507265737320627574746F6E207402
:100790006F20726573756D650A0050726573732002
:1007A000627574746F6E20746F2068656174206E5A
:1007B0006F7A7A6C650A004F46460A0046616465A6
:1007C000204865696768742000426564204C65763E
:1007D000656C696E6720004661696C656420746FA2
:1007E00020656E61626C6520426564204C657665AB
:1007F0006C696E670A00496E76616C6964206D658C
:1008000073682E0A0050726F62696E67206D65739F
:100810006820706F696E74200070726F62652E6F51
:1008200066667365742E7A203D20006D696E5F6F79
:1008300066667365747A203D20006D61785F6F662F
:10084000667365747A203D20002028445259525521
:100850004E2900473239204175746F20426564206B
:100860004C6576656C696E67003F20284C2C522CD5
:10087000462C4229206F7574206F6620626F756E5A
:1008800064732E0A003F2856296572626F736520D3
:100890006C6576656C20696D706C61757369626CEE
:1008A000652028302D34292E0A00426164205A2008
:1008B00076616C75650A004E6F2062696C696E65C1
:1008C000617220677269640A0020204D61783A20C5
:1008D0000020204D696E3A2000536F667420656ECB
:1008E0006473746F70733A2000252900257C002002
:1008F0003B2043757272656E74205A00203B204580
:100900006E6400203B20537461727400477261640E
:1009100069656E74204D69782000203B20657874ED
:1009200072756465727300203B204865696768745E
:100930000052616E646F6D204D697820004D323435
:100940002053256C642054256C64004739322E39BD
:100950002045257300473120462564004731205843
:10096000257320592573204633303030004731201D
:100970005A25732046333030004731204525642006
:1009800046323030004D34323020532569205A250C
:1009900073004D31303620502569205325690054AD
:1009A00025692053004D31303920532569004D31E0
:1009B000393020532569004D3230302044257300F2
:1009C00047323852305859004739322E3920453095
:1009D000205A300A47315A2573004D3432302053A3
:1009E00030205A30004D313039205331383000201A
:1009F000496E76616C69642065787472756465729D
:100A0000200020496E76616C69642045207374650E
:100A10007070657220002045207374657070657277
:100A2000206E6F74207370656369666965640A007F
:100A30004D65736820706F696E74206F7574206FD8
:100A4000662072616E67650A00456E642066696C97
:100A500065206C6973740A00426567696E20666977
:100A60006C65206C6973740A004E6F206D65646953
:100A7000610A00286E6F2066696C652900437572F3
:100A800072656E742066696C653A2000534420706C
:100A900072696E74696E67206279746520004E6FAA
:100AA00074205344207072696E74696E670A002561
:100AB000697920256964202569682025696D2025CC
:100AC0006973005072696E742074696D653A200014
:100AD0006F66660044454255473A004348414D42DF
:100AE00045525F54454D5045524154555245004280
:100AF0004142595354455050494E47004152435387
:100B0000004D4F54494F4E5F4D4F4445530054489C
:100B100045524D414C5F50524F54454354494F4EFE
:100B2000004C4F4E475F46494C454E414D450041B4
:100B300055544F5245504F52545F53445F535441A4
:100B4000545553005344434152440050524F4D506A
:100B5000545F535550504F525400454D45524745F0
:100B60004E43595F50415253455200434153455FF4
:100B70004C494748545F4252494748544E455353A5
:100B800000544F47474C455F4C4947485453005326
:100B90004F4654574152455F504F574552004255BA
:100BA000494C445F50455243454E54004C455645D0
:100BB0004C494E475F44415441005A5F50524F42A6
:100BC000450052554E4F5554004155544F4C4556D3
:100BD000454C005052494E545F4A4F420050524FCC
:100BE0004752455353004155544F5245504F52546C
:100BF0005F54454D5000564F4C554D455452494356
:100C000000454550524F4D0042494E4152595F46B2
:100C1000494C455F5452414E53464552005345524C
:100C200049414C5F584F4E5F584F46460046495227
:100C30004D574152455F4E414D453A4D61726C6989
:100C40006E204D61726C696E2D322E302E38202848
:100C500041707220203220323032322031373A3522
:100C6000333A33392920534F555243455F434F445C
:100C7000455F55524C3A68747470733A2F2F676908
:100C8000746875622E636F6D2F4D61726C696E466C
:100C900069726D776172652F4D61726C696E20505B
:100CA000524F544F434F4C5F56455253494F4E3A63
:100CB000312E30204D414348494E455F54595045EF
:100CC0003A5A38545F4D3320455854525544455292
:100CD0005F434F554E543A3120555549443A636568
:100CE0006465326132662D343161322D34373438E7
:100CF0002D396231322D63353563363266333637FE
:100D000066660A002F2F20004D31343520533C6990
:100D10006E6465783E206F7574206F662072616E18
:100D200067652028302D31290A00416363656C65B1
:100D3000726174696F6E3A20500046523A00204644
:100D40006C6F773A20004261627973746570205A43
:100D50000050726F6265204F6666736574205A009A
:100D600020643A0020693A0020703A00496E7661AA
:100D70006C69642065787472756465720A004669EE
:100D80006C616D656E742072756E6F757420646928
:100D90007374616E636520286D6D293A2000466981
:100DA0006C616D656E742072756E6F757420004D88
:100DB00034323120696E636F7272656374207061C2
:100DC00072616D657465722075736167650A0020D4
:100DD000204261636B6C6173682044697374616E57
:100DE000636520286D6D293A2020202020202020B6
:100DF00000202846312E30203D2066756C6C2C205A
:100E000046302E30203D206E6F6E65290A0020206E
:100E1000436F7272656374696F6E20416D6F756E9A
:100E2000742F466164652D6F75743A202020202050
:100E300046006163746976653A0A004261636B6CCF
:100E400061736820436F7272656374696F6E20000E
:100E5000546F6F206661722066726F6D20726566D6
:100E60006572656E636520706F696E740A00454532
:100E700050524F4D204F4B0A00205A323A004475D1
:100E8000616C20456E6473746F702041646A757381
:100E9000746D656E7420286D6D293A2000506F774F
:100EA00065722D6C6F7373207265636F76657279EE
:100EB00020004361703A003F5A206F7574206F66BE
:100EC0002072616E67652028003F59206F7574207D
:100ED0006F662072616E676520282D003F58206F75
:100EE0007574206F662072616E676520282D005032
:100EF000726F6265204F6666736574205800656E78
:100F00007175657565696E672022006F6B005265AB
:100F100073656E643A2000436C69636B20746F20C4
:100F20006578697421005072696E7420446F6E6533
:100F30002C00446F6E65207072696E74696E672054
:100F400066696C650A004D3737004D333100236404
:100F50006566696E652044454641554C545F0050B6
:100F60004944204175746F2074756E6520646F6EFE
:100F70006521004B6420004B6920004B702000501D
:100F80004944204175746F74756E652066696E6999
:100F900073686564212050757420746865206C61E5
:100FA0007374204B702C204B6920616E64204B645D
:100FB00020636F6E7374616E74732066726F6D2040
:100FC00062656C6F7720696E746F20436F6E66691F
:100FD0006775726174696F6E2E680A00504944200B
:100FE0004175746F74756E65206661696C65642106
:100FF0002074696D656F75740A005049442041750D
:10100000746F74756E65206661696C656421205427
:10101000656D706572617475726520746F6F20689C
:101020006967680A00204B643A2000204B693A2027
:1010300000204B703A20000A20436C61737369638F
:1010400020504944200A002054753A2000204B7556
:101050003A2000206D61783A2000206D696E3A20B8
:101060000020643A200020626961733A20005049F0
:10107000442054756E696E672120506C65617365FC
:1010800020776169742E2E2E0050494420417574DA
:101090006F74756E652073746172740A0054656DA7
:1010A000706572617475726520746F6F206869670E
:1010B000682100504944204175746F74756E652035
:1010C0006661696C65642120426164206578747290
:1010D00075646572206E756D6265720A0041757483
:1010E0006F20526574726163740052756E6F75740F
:1010F0002053656E736F723A00506F776572204CA3
:101100006F7373205265636F766572793A0041752B
:10111000746F2053687574646F776E3A004D697808
:10112000696E6720466561747572653A0045332DB6
:1011300045322D45310045332D45312D4532004591
:10114000322D45332D45310045322D45312D453366
:101150000045312D45332D45340045312D45322D87
:10116000453300457874722E53657175656E6365FD
:101170003A004175746F204C6576656C696E673A0C
:1011800000416374697665204175746F6C6576659E
:101190006C3A00486F74656E642050494400417594
:1011A000746F2D526574726163743A00556E5265A6
:1011B000747261637420563A00526574726163748C
:1011C000205A486F703A00556E52657472616374AC
:1011D000204D4D3A005049442054756E6520503AD8
:1011E000005049442054756E6520493A00504944E6
:1011F0002054756E6520443A00504944206175744E
:101200006F2074756E653A005049442054756E65C0
:101210000043616E277420776F726B206F6E204DD4
:101220006978696E6720484F54454E442121004D2E
:101230006978696E6720666561747572652074757A
:10124000726E206F666620210043415554494F4E0F
:10125000212052657175697265204D6978696E67E4
:1012600020484F54454E442E004D343133205330E6
:10127000004D343133205331004D3431322053305E
:10128000004D34313220533100B605B105AA05A313
:10129000059505473238205A30004D3834000A2071
:1012A000656570726F6D2073697A65203D20005A04
:1012B00038545F4D330056322E322E30004669725C
:1012C0006D776172652056657273696F6E3A003290
:1012D0003032322D30342D303200446174653A00A2
:1012E0004D61726C696E2D322E302E380042617362
:1012F00065206F6E3A007777772E7A6F6E6573741C
:10130000617233642E636F6D005765627369746533
:101310003A005A4F4E4553544152205A5249425F67
:10132000563600426F6172643A0045787472756493
:101330006572204E756D6265723A00546974616E13
:10134000004578747275646572204D6F64656C3AFF
:10135000005A204472697665733A004475616C00E6
:101360005A20456E6473746F70733A0031313532B0
:1013700030300042617564726174653A00312E301C
:101380000050726F746F636F6C3A00504C2D3038A0
:101390004E004C6576656C2053656E736F723A0033
:1013A0004E5443203130304B4F484D204233393674
:1013B0003000546865726D6973746F723A00313130
:1013C00035004D415854454D503A004D494E544515
:1013D0004D503A00486F744265643A20003233350C
:1013E00000486F74456E643A200042757A7A6572DF
:1013F0003A00526F746172793A00486F74206265E6
:10140000643A00486F7420656E643A00334420509B
:1014100072696E7465722054657374004E6F205348
:101420004420636172643F20706C65617365206362
:101430006865636B21004572726F720042656420BB
:101440004C6576656C696E672066696E6973686560
:101450006421005A206F66667365743D2000506FEA
:10146000696E743A2020202F2020202000537461C0
:1014700072742050726F62696E67210043617463F9
:10148000686564212050726F6265205A206F66661D
:101490007365743D004F7665722072616E67652CCE
:1014A000206D616E75616C206C6576656C210046FF
:1014B00061696C21204D6F766520646F776E2050D6
:1014C000726F626500436174636820506F696E7467
:1014D0003A202000546F206361746368206F666651
:1014E00073657400506C6561736520776169742061
:1014F000756E74696C20646F6E652E00486F6D693F
:101500006E672058595A00486F6D696E6720580001
:10151000486F6D696E67205900486F6D696E67206E
:101520005A004732382059300047323820583000AE
:1015300047323800542531640A4739322045300A91
:1015400047312045252E316620463130300A473953
:1015500032204530005425640A4739322045300A8C
:10156000473120452D252E316620463130300A473F
:101570003932204530005425640A4739322045303D
:101580000A47312045252E326620463130300A4741
:101590003932204530005425640A4739322045301D
:1015A0000A473120452D252E326620463130300A3B
:1015B00047393220453000416C6C00556E6C6F61CC
:1015C00064696E672C20706C656173652077616952
:1015D00074202531646D25326473202E2E2E005523
:1015E0006E6C6F6164696E672C20706C65617365E9
:1015F000207761697420253264207365636F6E649F
:10160000732E2E2E004661737420726574726163AE
:1016100074696E672E2E2E005075726765206120EA
:101620006C6974746C652066697273742E2E2E005A
:101630004C6F6164696E672C20706C656173652006
:1016400077616974202531646D25326473202E2EF4
:101650002E004C6F6164696E672C20706C6561733D
:1016600065207761697420253264207365636F6E2D
:1016700064732E2E2E00202D2D4E412D2D00416302
:101680007469766564004361746368696E672050AD
:10169000726F6265205A204F666673657400473228
:1016A000380A4732390A004732380A473239204E61
:1016B0000A004732384F0A4739310A4731205A3138
:1016C000302046313530300A4739300A473120580A
:1016D0002564205925642046333030300A473120B4
:1016E0005A302046353030004732380A4739310AFF
:1016F0004731205A31302046313530300A473930B1
:101700000A4731205825642059256420463330305B
:10171000300A4731205A30204635303000436F6E52
:101720006669726D2053687574646F776E3F004E02
:101730006F204D656469610043616E6E6F74206552
:101740006E746572207375626469723A20002D2D83
:101750003A2D2D0052640047720053746F70205070
:1017600072696E743F005061757365205072696EC6
:10177000743F005072657373206167696E20746FE7
:10178000206B696C6C21006B696C6C6564212100B5
:1017900049732070726F63657373696E672C207074
:1017A0006C65617365207761697421004D32352065
:1017B000500A4D32340053746F70696E672E2E2EAE
:1017C000004261627973746570733A0046696C61B6
:1017D0006D656E7420556E6C6F61640046696C6156
:1017E0006D656E74204C6F61640046696C616D6557
:1017F0006E74204368616E67650050617573652E75
:101800002E2E0052756E206F75742E2E2E00746F62
:10181000207374617274210046696C616D656E7429
:10182000206368616E6765005061726B696E672046
:10183000686F74656E64210046696C616D656E74D5
:1018400020556E6C6F616421005761697420666F6A
:101850007200746F20636F6E74696E75652100612C
:101860006E6420707265737320627574746F6E009D
:10187000496E736572742066696C616D656E740083
:1018800046696C616D656E74204C6F616421005710
:1018900061697420666F722E2E2E0046696C616D30
:1018A000656E7420507572676521005075726765AA
:1018B000206D6F72652066696C616D656E743F00A6
:1018C000526573756D65205072696E742E2E2E00F0
:1018D0004E6F7A7A6C652048656174696E672E2E4A
:1018E0002E006E6F7A7A6C6520697320636F6F6C5F
:1018F00000436C69636B20746F206865617421001C
:1019000049732068656174696E672C20706C65612D
:10191000736520776169742100497320726573755E
:101920006D696E672C20506C656173652077616905
:101930007421005075726765206D6F72653F0049B4
:10194000732050757267696E672C20706C656173C7
:1019500065207761697421004973204C6F61646967
:101960006E672C2020706C656173652077616974E7
:1019700021005761697420666F7220696E73657209
:1019800074696E672046696C616D656E7400556E92
:101990006C6F61642046696C616D656E742E2E2ECD
:1019A00000506C656173652077616974207265739E
:1019B000746172742E2E2E004973206368616E6705
:1019C000696E672C20706C6561736520776169743E
:1019D0002E2E2E004973207061726B696E672C2069
:1019E000706C6561736520776169742E2E2E0043DB
:1019F000757272656E742056544F4F4C203D2025F1
:101A000032640052616E646F6D204D6978205A3ADD
:101A10002533642D3E25336420483A25332E316624
:101A200020453A253164004772616469656E74200F
:101A30004D6978205A3A2533642D3E25336420566B
:101A40003A2532642D3E25326400506F776572204E
:101A50006F666620616674657220352053202121EF
:101A600000506C6561736520636865636B20697401
:101A70002100484F54454E442000484541544245BA
:101A800044200066696C652077617320696E746517
:101A9000727275707465642E004974206C6F6F6B80
:101AA00073206C696B6520746865206C61737400C9
:101AB000436F6E74696E7565205072696E74004D67
:101AC000313030300044656C65746520506F776547
:101AD00072206C6F7373205265636F726421004DC6
:101AE0003130303043004D333033205325336420C0
:101AF00045302043342055310A4D35303000414CBB
:101B00004C2046616E204F6666004D383100646996
:101B10007361626C652069743F0053656E736F7208
:101B2000206973207374696C6C206F6E003500241B
:101B3000002C0023001E00AC00A5009600A800A405
:101B4000002C002C001B0025002400969798999AE1
:101B50009B969CA0A1A2A3A4A5A0A6AAABACADAE47
:101B6000AFAAB0B4B5B6B7B8B9B4BABEBFC0C1C2F7
:101B7000C3BEC4B800B800A000B600B9002000136E
:101B800000190017001800750065006B006B0069F4
:101B90000074006800720074006E00D000BD00CCBC
:101BA00000D000C40025002052005761726E6E699B
:101BB0006E672C20486967682074656D7065726176
:101BC0007475726521006F70656E00545249474705
:101BD00045524544007A5F70726F6265007A325FE9
:101BE0006D696E007A5F6D696E00795F6D696E0078
:101BF000785F6D696E005265706F7274696E6720F0
:101C0000656E6473746F70207374617475730A0009
:101C10005761726E696E673A20486F6D696E672012
:101C200042756D702044697669736F72203C203173
:101C30000A00206C696D6974656420746F2000204F
:101C40004D61782000416363656C65726174696FF2
:101C50006E004A65726B002062797465733B206385
:101C60007263200053657474696E67732053746FD8
:101C7000726564202800454550524F4D20646174C0
:101C80006173697A65206572726F722E0A00207323
:101C9000746F7265642073657474696E6773207203
:101CA0006574726965766564202800202863616C1C
:101CB00063756C6174656429210A0020213D200050
:101CC000454550524F4D20435243206D69736D611D
:101CD000746368202D202873746F72656429200056
:101CE000496E6465783A200044494749504F54533F
:101CF000204C6F616465640A0044494749504F5461
:101D000053204C6F6164696E670A00204D61726CEC
:101D1000696E3D563833290A00454550524F4D20D3
:101D200076657273696F6E206D69736D6174636837
:101D30002028454550524F4D3D00454550524F4D8E
:101D400020496E697469616C697A65640A0048614A
:101D50007264636F6465642044656661756C7420A9
:101D600053657474696E6773204C6F616465640AAF
:101D7000003B200020204D3630332000204400203E
:101D8000204D34313220530046696C616D656E74AC
:101D90002072756E6F75742073656E736F723A0082
:101DA00020204D3432352046004261636B6C6173F4
:101DB0006820636F6D70656E736174696F6E3A0051
:101DC00020550046696C616D656E74206C6F6164AE
:101DD0002F756E6C6F6164206C656E677468733A02
:101DE0000020204D3835312058005A2D50726F6236
:101DF00065204F66667365740020204D32303920AF
:101E000053004175746F2D526574726163743A208A
:101E1000533D3020746F2064697361626C652C20BF
:101E20003120746F20696E7465727072657420451C
:101E30002D6F6E6C79206D6F7665732061732072E3
:101E40006574726163742F7265636F7665720020CA
:101E5000570020204D3230382053005265636F7692
:101E600065723A20533C6C656E6774683E20463C50
:101E7000756E6974732F6D3E0020204D323037200F
:101E80005300526574726163743A20533C6C656E02
:101E90006774683E20463C756E6974732F6D3E20F2
:101EA0005A3C6C6966743E0020204D343133205317
:101EB00000506F7765722D4C6F7373205265636F9E
:101EC000766572793A0020204D3330312050005031
:101ED00049442073657474696E67733A0020480042
:101EE00020204D3134352053004D61746572696195
:101EF0006C2068656174757020706172616D6574C5
:101F00006572733A0020204D36363600456E647394
:101F1000746F702061646A7573746D656E743A00D5
:101F2000204A002020473239205720490020204DE8
:101F30003432302053004175746F20426564204C68
:101F40006576656C696E673A0020204D3230362028
:101F50005800486F6D65206F66667365743A00209F
:101F6000204D323035204200416476616E636564F5
:101F70003A20423C6D696E5F7365676D656E745F94
:101F800074696D655F75733E20533C6D696E5F6665
:101F9000656564726174653E20543C6D696E5F7462
:101FA000726176656C5F66656564726174653E201A
:101FB000583C6D61785F785F6A65726B3E20593C72
:101FC0006D61785F795F6A65726B3E205A3C6D6126
:101FD000785F7A5F6A65726B3E20453C6D61785F21
:101FE000655F6A65726B3E0020540020204D3230E0
:101FF00034205000416363656C65726174696F6E73
:102000002028756E6974732F7332293A20503C7002
:1020100072696E745F616363656C3E20523C7265E9
:1020200074726163745F616363656C3E20543C74D9
:10203000726176656C5F616363656C3E0020204D64
:102040003230312058004D6178696D756D204163E3
:1020500063656C65726174696F6E2028756E697452
:10206000732F7332293A0020204D3230332058002C
:102070004D6178696D756D20666565647261746522
:10208000732028756E6974732F73293A0053746531
:1020900070732070657220756E69743A0020204D4F
:1020A0003230302053002044697361626C65640AE9
:1020B0000046696C616D656E742073657474696E39
:1020C00067733A0020286D6D2900202047323120A7
:1020D0002020203B20556E69747320696E206D6D41
:1020E0000020436F756E7420583A002C207379736A
:1020F00074656D2073746F7070656421204865612C
:102100007465725F49443A200048656174696E677E
:10211000204661696C65640048656174696E67207A
:102120006661696C6564004572723A204D4158548D
:10213000454D50004D41582054454D502045727238
:102140006F7221004572723A204D494E54454D50F0
:10215000004D494E2054454D50204572726F7221FA
:1021600000202F002042403A0020403A007C3C3EB4
:102170005E2B3D3F2F5B5D3B2C2A225C0043616E52
:102180006E6F74206F70656E207375626469722063
:102190000053442063617264206F6B0A006F7065A6
:1021A0006E526F6F74206661696C65640A00766FA9
:1021B0006C756D652E696E6974206661696C656405
:1021C0000A004E6F20534420636172640A000100CC
:1021D00087012700940129008701660098016700A4
:1021E0008701A4009401A6008701C4009401C600E1
:1021F0008701F100940101009A013000A70132002B
:1022000099017300AA0175009A01DB00AA0101007F
:10221000AB013B00B901DD009A010A01A7013D00B5
:10222000AC018000B9018200AC01A000B901A1009D
:10223000AC01C200B901C300AC010701B901010042
:10224000BB016300C8016400BA018600C8018700B1
:10225000BB01D200CA01D400BB01F100C8010100DA
:10226000CD014500DB014700CD018900DB018B007A
:10227000CD01B100DF01CC00CD01E400DA018B001B
:10228000CD01CB00DF01E500CD010B01DB015700E3
:102290007701A4008601A8007701EE008601030003
:1022A00006013B0016013D0006017A0016017C0084
:1022B0000601B7001201B9000601EC00120102008C
:1022C0001A015D0029015F0019019B002501020030
:1022D00001002A000F004400010082001300830067
:1022E0000100C0000F00C1000100E0000F0002006B
:1022F000E7002800F500030016002F00230030003F
:102300001600B80026006C002800C8003500020046
:102310004B001E005D0026004B0068005D00690058
:102320004D009C005E00CC003900E5004700BB007A
:102330003B00FE00480001005F003E006D003E00D3
:102340005F005D006D005E005F007E006D00560066
:102350006F00A9007D00AB007000F8008000030052
:1023600028006A003800B9001500F3002300CA00F5
:102370002700F8003400A0001901EF002B017700BE
:102380003B00BA00480002003B002F0048002A0032
:10239000E8005100F4005200E800D600F400C1004B
:1023A0000200E0000F00E2000300EB000F00EC0071
:1023B0000300F5000F00F7000300FF000F0002010B
:1023C000030009010F000200830045008F00D700C1
:1023D000BB00DD00C700E600BB00ED00C700F50054
:1023E000BB00FC00C7000301BB000D01C7009A0041
:1023F0002800C9003400F500160009012200D900A8
:10240000820003019000020092002D00A000BC0099
:102410003A00FD0047006C002700920038002600BB
:102420004B0068005D004C00F6007B0003012E00AD
:1024300093005C00A4005E0093009900A0009B0044
:102440009300EB00A30093008200D7008F004E00A2
:10245000A700B100B3004E00A7008000B300ED005C
:1024600060000F016D000200A7004D00B700DE0004
:102470004C00FB005900B300A600F800B3000300B5
:10248000B9004400C6000200D9003D00E40043004A
:10249000D9008000E4008300D800B300E600B90052
:1024A000D800ED00E600A7006000CE006C00D00070
:1024B0006000EB006C00D900E8000E01F60033006C
:1024C0003B0076004A004600830067008F007F00D3
:1024D0005F00A6006C0001006F002F007C0002006E
:1024E00001002A000F002F006F0055008000BB0084
:1024F0009200EC00A3005800CF019E00DF01020013
:102500002D0147003F014B002D0180003F01840059
:102510002D01C2003F01C6002D01FE003F01020057
:102520004001280052012E0040016600520169005E
:102530004001A5005201A5004001F4005201030032
:102540000A014400170149001A018D0029018E007B
:102550001901CB002601CE001901EC002601BA00BA
:10256000FA00ED00060101002B0137003B013900A4
:102570002B018A0037018B002C01F2003B01020085
:102580003D0163004A018E000A01E6001601650064
:102590003D01A8004A01AA003D01C8004A01C90046
:1025A0003D01EA004A018100F800B800080101007D
:1025B0004C014200570143004C0164005701660082
:1025C0004C01BB005901BD004C01FA00570101004C
:1025D0005B015A006B015C005C01820067018500B1
:1025E0005B01CB006B010200F8007F000401850055
:1025F0005B01CB006B01CC005B0106016B010200AB
:10260000E8004200F6004600E800AA00F6000300D9
:102610004B0131005B0133004C016F005B01720024
:102620004C01980057019A004B01D4005701550006
:102630003901A7004901A9003901D3004501000073
:10264000000048001200490001008E0012008E00B8
:102650000000CB000E00CC000000EB000E00B60026
:10266000BE00E000CB000100140033002000340065
:102670001400B8002300CC00250002013500CB0077
:102680009C00F700A70001005A0052006700AD004F
:102690005A00EC006A00AD005A00EC006A006400C9
:1026A0004A00A500570001006C0035007900370092
:1026B0006C005500790056006C00760079004A00E5
:1026C0008D007E009A007F008D00BF009A0063009D
:1026D0002600CA00350001002500620032005400C7
:1026E0005A00AB00660054005A00AB0066000300BD
:1026F0005E0175006F0101003700400044007C005E
:102700003800B100480001004A0062005700CD00C7
:102710000100EB000E00ED000200F6000E00F800D4
:10272000020000010E00030102000B010E00040173
:1027300026000B01320044009C009700A800D7003F
:102740004B00DC005700E1004B00E8005700EA00B6
:102750004B00F2005700F4004B00FD005700CC0086
:10276000250002013400B9001400E20020009900A5
:102770009C00C800A8000100AC003E00BB00640043
:102780004A00A5005700CB009C00F700A7000100FD
:102790005A0052006700AE00F300D40000013F0071
:1027A000AB006C00BB006E00AB009900B7009B0053
:1027B000AB00EF00B6008F000301C500130102005B
:1027C0009C004300A70002009C004300A7003F00BC
:1027D0007C005F0088000200BF005600CB000200B2
:1027E0007C003C0088005A00BF00B300CF0001000D
:1027F00012014C001F01A700E300EB00EF004200B4
:10280000F3007600FF000100F3003C0000014200ED
:10281000F3007600FF0078006C00A8007900A900A2
:102820006D0001017900D600F3000D0100014200A6
:1028300037007B004700C1008E00E1009A000200D3
:1028400026013C0037013D0026017E0034010000D6
:1028500000004800120080002601C7003401020079
:10286000390151004601C800CF010E01DF01780097
:102870005E01C8006E01020072014C008101CC00B3
:102880005E0106016E01500072017E00810184002C
:102890007201B9008101BE0072010E0181010200C6
:1028A0008201370092013A00820187009201010003
:1028B000D2003E00DE007B00D300E800E100020011
:1028C000C1005C00CF005D00C100AE00D000AF00D1
:1028D000C1000701CF0002009F003C00AD000200D4
:1028E000B0008000BF003D009F00A900AC00AC001C
:1028F0009F000401AE008300B000DC00BB000200BA
:102900008C004200980044008D0062009900640031
:102910008D008400990085008D00D4009D00020088
:102920007C005C008900D6008E000D0199005D00DE
:102930007B00CA008A0002006A0060007500630024
:102940006A00B0007900010058006C006700400088
:10295000D3007900DE006E005800E90067004000F7
:10296000D3007900DE0002004800590056006000E4
:1029700048008A0056008C00480002015600020000
:102980003B0164004C016A003B01C2004C01CA00DB
:102990003B010C014C0101004E0170005F0177000A
:1029A0004F01F4005F018E002A01E40036010100AE
:1029B00000003B000D003D000000A0001000AB0037
:1029C00000000601100000001100520020009100DC
:1029D0000701C200150154001300AA0020000200E4
:1029E000230063002E006F003300A9004100450062
:1029F00057007400620076005500F3006500020085
:102A000066006B007300020066006B00730002003A
:102A1000560043006200CF00670008017500D40033
:102A20006101F2006D01E700610107016D01010024
:102A30009D004900AA00BA007A00E300820002006B
:102A400032006E004100AC00130003012000AB0017
:102A5000330002013D0003006F015A007E01A60011
:102A60004400E6004F000200420046004F00C30051
:102A700007010A01160102001B015D002801010087
:102A8000120051002000BD002100C7002E00C80028
:102A90002100D1002E00D2002100DB002E00DC003E
:102AA0002100E4002E006C008800D0009800E800AF
:102AB0004300ED004F00F2004300F9004F00FC001E
:102AC000430002014F00050143000E014F0070005A
:102AD0003300A9004100E600230002012D00D400CC
:102AE000890005019400A6009B00E200A6000200F8
:102AF00056004300620044005600750062007700F3
:102B00005700C800660096001901D0002701020096
:102B1000AC002E00BC003000AD006200B8006400C4
:102B2000AD00C700BC0002009C004900A9004B009A
:102B30009A00A500A9004B009A00A500A900020078
:102B4000610138006D015000BE00BC00CC006D007A
:102B50006700CC007300BF00BF000C01CD00020075
:102B6000D0006D00E000A700F500F00005010200B4
:102B7000070134001301360008018F00160102001E
:102B80000801340013013A00620176006D01010072
:102B900078005F00830060001901940024014A005E
:102BA0004400A3005300E50078000601830077008D
:102BB0006001A7007001600076008F0086000100B0
:102BC00000003B000D0090007600B800830001007B
:102BD000BF004F00CD002B00AB018F00BA015E009B
:102BE0007201C2008201C20072010E018201020064
:102BF0008001380090013C0080017E00900181003E
:102C00008001B2009001B60080010E019001020027
:102C100092013C00A001400092019600A001010039
:102C2000CE014500DF019400CD01D900DF01010094
:102C3000BB014E00C9015000BB016E00C901780004
:102C4000BB01BD00CD010100A8013C00BA01BF00DD
:102C5000BC01F500C9013D00A801A400BA01A6000D
:102C6000A9010501B601AA008601E1009401010055
:102C700097014400A401460097016400A401650087
:102C800097018500A40187009601C200A4010100FC
:102C9000860164009401C2009601E200A80166006A
:102CA0008701A8009501AA008601E10094010100B6
:102CB000620144007401460062018800700148000E
:102CC000CD019200DF01010074017D008201480006
:102CD000CD019200DF017F007401B1008601B300D5
:102CE0007501EB0085018A006201FC007001BD00E6
:102CF000E800F800FA003000FB0073000A0102004F
:102D0000FB002E0008017A00FB00B9000C01BB009B
:102D1000FB0008010C0101000B013C00190100003F
:102D200001004B0011004D0002008D0012008D00CB
:102D30000100D4000E00D5000100F9000E00A4002F
:102D4000DA00D900E7000100120043002200010070
:102D500023007800300079002300AF003300B70073
:102D60003400C7004100C9003400FC0041000100EC
:102D70005300970063000100530097006300770041
:102D80003400B5004100C8004500F50052008F0036
:102D90008600AD009200AE008600CE0092000200D8
:102DA00086004200930082007600B8008500A000F3
:102DB000120001012200440013009F001F00B10017
:102DC0002400E500300041000D01B2002001870021
:102DD0004500C6005200020034004000450041009A
:102DE0003400760044000200450085005200D50002
:102DF0000100F9000E00DA007600E4008200E50030
:102E00007600EF008200EF007600F8008200FA0002
:102E1000760001018200430086008D009300E000EF
:102E2000B900E500C600EA00B900F100C600F400F0
:102E3000B900FB00C600FD00B9000701C60079001B
:102E40002300AF0033009700E900BD00F600E60064
:102E500023000D013000010094004500A50077001B
:102E60003400B5004100B7003400C7004100C9007C
:102E70003400FC0041005E00E9009700F6004600C7
:102E800094007300A400750094009900A1009A00BA
:102E90009300F300A000CE00540004016000010084
:102EA00064005D007100010064005D0071005E005F
:102EB00064007B0075007D006500BA007100B10000
:102EC0002400E50030007400A500B700B700B90089
:102ED000A500FB00B3000200E8005C00F600020061
:102EE000DA003400E7003600DA00A300E700020051
:102EF000DB003400E700BC006500EA007100EB0075
:102F00006500FF007100750094009900A100DD00CC
:102F1000DB00F600E700BB007600DA00820002006A
:102F2000750031008500320076005D0082000000EF
:102F300001003B0011005E007600810085003A0030
:102F4000A6007300B3008C00BE01DA00CC010200C1
:102F5000200150003001510020018A003001AC00F6
:102F600020010E01300102003201500042015300E5
:102F700032019500420199003201ED004201020048
:102F800044014500540149004401A40054010100DA
:102F90004501450057019C004601E1005701010031
:102FA0003601490044014B003601690044016B00C1
:102FB00037019D0044015B002401950036019F000C
:102FC00036010501440196002501FD00350101008F
:102FD00015015D002301010024015A0032010100A6
:102FE0000701440014014600070164001401650054
:102FF00007017B00140186000601D80014010100BE
:10300000F400570006013900D0006C00DE005900C2
:10301000F500AE000301B000F400EC000201010075
:10302000E2004F00F0005000E2009B00F00048007A
:1030300046019A0057019C00E200DC00F3004800C2
:1030400046019A005701DD00E2000E01F000020087
:10305000D0003600E0007000D000C800E0000100A1
:1030600023012F00340132002301780033017B005B
:103070002401AD003001B0002301E900300101005E
:103080003601530047015500360188004301000016
:1030900001005400120055000100990011009A002F
:1030A0000100E3000E00E300000003010E005C00DD
:1030B0001301870020010100140034001F000100EB
:1030C00025009B00320093001300CE002400010075
:1030D000580024006400270057008D0064000100A0
:1030E0006900800079000100690080007900A70074
:1030F0004900E90056008F005800EE006700CB0041
:103100009E00E900AA00EA009E000A01AA00010050
:10311000AF004B00BC0072009D00A500AD009C00FC
:103120002600030136003600130092002000010043
:1031300037005A00440090003601E700480164005F
:103140004A00A60056005B003800B2004400B300FD
:103150003800E10047000100490062005500E4002A
:10316000010003010E00CF001400D9002000DA0096
:103170001400E4002000E5001400EE002000F00040
:103180001400F60020004D00AF008C00BC00C00011
:103190006A00C6007600CA006A00D2007600D50038
:1031A0006A00DC007600DE006A00E700760093002B
:1031B0001300CF002400D9008D000B019A008E006F
:1031C000B000BD00BC00BF00B0000601C000A700F9
:1031D0004900E9005600010058002400640027005F
:1031E00057008D0064008A000401BC001101010039
:1031F000C3002F00D2003100C2005200CF005200A5
:10320000C200A700CF0001007B00540088005500D9
:103210007B00AB008B0055007B00AB008B00AC004B
:103220007B00DF00880001008E0056009A0001003C
:1032300037003C0044000200D4005000E100500080
:10324000D4009C00E100320013015B002001550016
:103250000401870011010100130130002001550015
:1032600004018700110158008D0088009A008A002F
:103270008D00A6009A0088001401C1002001BE0044
:103280000401F8001501A7009E00C900AA00A600CD
:103290008D00D7009A0001009D003600AA000000B2
:1032A00001003F00120037009D007000AA00A80036
:1032B000C2000001CF00A500BE01F700CE01020050
:1032C00048014C0058014E004801A5005801A800D3
:1032D00048010C01580102005C0169006E016A009E
:1032E0005C01AE006E01B0005C010E016E010200D7
:1032F00070013600800138007001900080010000EC
:1033000070C10000A0C000000000000048420000A2
:10331000484200008040020204000080400000801B
:1033200040000000400080A24300809D430000C890
:1033300043FFFFFF00009B4300009B430000C84386
:1033400024F4D43050C38E20C2A24017828B701157
:10335000127A910D816CD90AA861E108C7586607F5
:10336000615143061E4B5D05C145A7041A41110476
:10337000093D9803713931034036DB026533910210
:10338000D4305402802E1D02632CEE01752AC50133
:10339000B028A001102781018F2564012B244B0147
:1033A000E0223401AC211F018D200D01801FFC00A3
:1033B000841EED00971DDF00B81CD200E61BC6007E
:1033C000201BBC00641AB200B219A8000A19A000A0
:1033D0006A189900D117910040178B00B516840028
:1033E00031167E00B31579003A157300C7146F00CB
:1033F00058146A00EE1366008813630025135E00FC
:10340000C7125B006C12570015125400C111510015
:1034100070114F0021114B00D61049008D1047004C
:103420004610440002104200C00F4000800F3E00D2
:10343000420F3C00060F3B00CB0E3800930E3700C6
:103440005C0E3500270E3400F30D3200C10D310043
:10345000900D3000600D2E00320D2D00050D2C005A
:10346000D90C2B00AE0C2900850C29005C0C270020
:10347000350C27000E0C2600E80B2400C40B24009A
:10348000A00B23007D0B23005A0B2100390B2100D8
:10349000180B2000F80A1F00D90A1E00BB0A1E00E4
:1034A0009D0A1D00800A1D00630A1C00470A1B00BC
:1034B0002C0A1B00110A1A00F7091A00DD0919006D
:1034C000C4091900AB091900920917007B091800FB
:1034D000630917004C09160036091600200916006A
:1034E0000A091500F5081500E0081400CC081400BE
:1034F000B8081400A4081400900813007D081200F6
:103500006B08130058081200460812003408110016
:10351000230811001208110001081100F007100023
:10352000E0071000D0071000C0071000B0070F0020
:10353000A107100091070E0083070F0074070F000A
:1035400065070E0057070E0049070E003B070D00E8
:103550002E070E0020070D0013070D0006070D00B3
:10356000F9060C00ED060D00E0060C00D4060C0078
:10357000C8060C00BC060C00B0060C00A4060B002C
:1035800099060C008D060B0082060B0077060B00D7
:103590006C060B0061060A0057060B004C060A0079
:1035A00042060A0038060A002E060A0024060A000F
:1035B0001A060A001006090007060A00FD050900A0
:1035C000F4050900EB050900E2050900D905090029
:1035D000D0050900C7050900BE050900B5050800AA
:1035E000AD050800A50509009C0508009405080024
:1035F0008C050800840508007C0508007405080097
:103600006C050700650508005D0507005605080004
:103610004E0507004705070040050800380507006C
:10362000310507002A050700230507001C050600D1
:10363000160507000F05070008050600020507002C
:10364000FB040600F5040700EE040600E80406008B
:10365000E2040700DB040600D5040600CF040600E0
:10366000C9040600C3040600BD040600B704060032
:10367000B1040500AC040600A6040600A004050081
:103680009B04060095040500900406008A040500CA
:1036900085040500800406007A0405007504050011
:1036A000700405006B040500660405006104050054
:1036B0005C04050057040500520405004D04050094
:1036C00048040500430405003E0404003A040500D4
:1036D00035040500300404002C0405002704040010
:1036E000230405001E0404001A0404001604050047
:1036F000110404000D04040009040500040404007E
:1037000000040400FC030400F8030400F4030400B4
:10371000F0030400EC030400E8030400E4030400E5
:10372000E0030400DC030400D8030400D403040015
:10373000D0030400CC030400C8030300C503030046
:1037400024F404D9201BC40C5C0E9804C4095F0245
:1037500065077101F405F900FB04B3004804870014
:10376000C10369005803550003034500BE023A0037
:103770008402310053022A0029022500040220009D
:10378000E4011C00C8011900AF01170098011400E2
:1037900084011300710110006101100051010E003D
:1037A00043010D0036010B002B010B0020010B0023
:1037B000150109000C01090003010800FB000800C5
:1037C000F3000800EB000700E4000600DE0006003E
:1037D000D8000600D2000600CC000500C700050096
:1037E000C2000500BD000400B9000400B5000400DB
:1037F000B1000400AD000400A9000400A50003000E
:10380000A20003009F0004009B0003009800030037
:103810009500020093000300900003008D00020059
:103820008B00030088000200860002008400030071
:10383000810002007F0002007D0002007B00020088
:103840007900020077000100760002007400020097
:1038500072000100710002006F0002006D000100A3
:103860006C0002006A0001006900020067000100AC
:1038700066000100650001006400020062000100B2
:1038800061000100600001005F0002005D000100B6
:103890005C0001005B0001005A00010059000100BA
:1038A00058000100570001005600010055000100BA
:1038B00054000100530000005300010052000100B9
:1038C00051000100500001004F0001004E000000B7
:1038D0004E0001004D0001004C0001004B000000B3
:1038E0004B0001004A0001004900010048000000AF
:1038F00048000100470001004600000046000100AA
:1039000045000000450001004400010043000000A4
:10391000430001004200000042000100410000009D
:1039200041000100400001003F0000003F00010095
:103930003E0000003E0001003D0000003D0001008F
:103940003C0000003C0000003C0001003B00000087
:103950003B0001003A0000003A000100390000007D
:103960003900010038000000380000003800010074
:10397000370000003700010036000000360000006C
:103980003600010035000000350000003500010060
:103990003400000034000000340001003300000057
:1039A000330000003300010032000000320000004C
:1039B0003200010031000000310000003100010040
:1039C0003000000030000000300001002F00000037
:1039D0002F0000002F0000002F0001002E0000002B
:1039E0002E0000002E0001002D0000002D00000020
:1039F0002D0000002D0001002C0000002C00000014
:103A00002C0000002C0001002B0000002B00000007
:103A10002B0000002B0001002A0000002A000000FB
:103A20002A0000002A0001002900000029000000EF
:103A300029000000290000002900010028000000E2
:103A400028000000280000002800000028000100D5
:103A500027000000270000002700000027000000CA
:103A600027000100260000002600000026000000BC
:103A700026000000260001002500000025000000AF
:103A800025000000250000002500000025000100A1
:103A90002400000024000000240000002400000096
:103AA0002400010023000000230000002300000088
:103AB0002300000023000000230000002300010079
:103AC000220000002200000022000000220000006E
:103AD000220000002200010021000000210000005F
:103AE0002100000021000000210000002100000052
:103AF0002100010020000000200000002000000044
:103B00002000000020000000200000002000000035
:103B1000200001001F0000001F0000001F00000027
:103B20001F0000001F0000001F0000001F00010018
:103B30001E0000001E0000001E0000001E0000000D
:103B4000A42C0000841E0000B0120000870A0000B0
:103B50009E050000E90200007B010000BF0000009C
:103B60001000AA038000400100012C01B0012201D5
:103B700040021001F00202018003F8004004F50049
:103B8000E004ED009005E4003006DD00E006D7001B
:103B90008007D1003008CC00D008C7007009C300EE
:103BA000100ABE00B00ABB00500BB700900CB30067
:103BB000D00DAA00B00FA5005010A0001014960060
:103BC0009016900010198C00501A8500301C82004D
:103BD00070227800B023750040256E002027690010
:103BE000A0296400502A5F00902B5A00D02C550069
:103BF000702D4F00E02E4800503145003033410019
:103C0000D03539006036370010373300F0382D00DA
:103C1000A0392700803C1C00103D1900903D170082
:103C2000103E1400703E1200C03E0F00003F0C001A
:103C3000403F0800803F0500C03F0000F03FFBFF11
:103C4000002053697A653A2000205A3A2000205912
:103C50003A200042656420583A200020746F6F209B
:103C60006C6F6E6720657874727573696F6E207003
:103C7000726576656E7465640A00204F4E004D32A1
:103C8000332025730046696C652073656C65637429
:103C900065640A0046696C65206F70656E65643AFC
:103CA0002000454E4420535542524F5554494E45ED
:103CB0000A002220706F73002220706172656E749A
:103CC0003A2200535542524F5554494E45204341E4
:103CD0004C4C207461726765743A220045786365C4
:103CE00065646564206D617820535542524F555488
:103CF000494E452064657074683A310A0044656C29
:103D00006574696F6E206661696C65642C20466914
:103D10006C653A200046696C652064656C65746565
:103D2000643A006F70656E206661696C65642C2072
:103D300046696C653A200057726974696E67207431
:103D40006F2066696C653A2000667265736800646E
:103D50006F696E67004E6F7720006F6B2E0A000A46
:103D60004457494E2068616E647368616B6520003A
:103D70002020506C616E6E65724275666665724297
:103D8000797465733A20002046726565204D656D33
:103D90006F72793A2000436F6D70696C65643A20E8
:103DA00041707220203220323032320A00204C61C1
:103DB000737420557064617465643A203230323215
:103DC0002D30342D3032207C20417574686F723A6A
:103DD00020285A4F4E45535441522C2048616C6C58
:103DE00079290A004D61726C696E2D322E302E38A1
:103DF0000A004D61726C696E0020536F66747761C2
:103E000072652052657365740A0020576174636897
:103E1000646F672052657365740A002042726F7781
:103E20006E206F75742052657365740A00204578A2
:103E30007465726E616C2052657365740A00506F10
:103E400077657255700A006175746F25632E67007F
:103E50004732385859004D31303031006572726F39
:103E6000722077726974696E6720746F2066696C5E
:103E7000650A00446F6E6520736176696E6720661F
:103E8000696C652E0A004D323900656E6473746F7B
:103E90007073206869743A200050726F62696E67AF
:103EA000204661696C65640A00486F6D6520257362
:103EB0002573257320466972737400496E736572A9
:103EC000742066696C616D656E7420616E6420702B
:103ED0007265737320627574746F6E0A0020573AAE
:103EE00000220A00556E6B6E6F776E20636F6D6DEA
:103EF000616E643A202200526F7461746520616EB5
:103F00006420636C69636B206B6E6F6200546F207A
:103F100070726573732074686520454E4453544F26
:103F20005073004F4B0045787472756465204D6F77
:103F3000746F7273204F66660054320A473932201C
:103F400045300A473120452D31302046333030305E
:103F50000054320A4739322045300A473120453172
:103F60003020463330303000546573742045787407
:103F7000727564657233204D6F746F720054310A2C
:103F80004739322045300A473120452D313020460F
:103F9000333030300054310A4739322045300A4737
:103FA0003120453130204633303030005465737451
:103FB00020457874727564657232204D6F746F722B
:103FC0000054300A4739322045300A473120452D08
:103FD00031302046333030300054300A47393220F7
:103FE00045300A47312045313020463330303000EB
:103FF0005465737420457874727564657231204D10
:104000006F746F720057617463682065787472759D
:104010006465206D6F746F7273005A204178697304
:10402000204D6F746F7273204F6666005A2D4C20BE
:104030004D6F746F72204F6E2E2E2E005A2D52200F
:104040004D6F746F72204F6E2E2E2E005761746369
:1040500068205A206D6F746F7273005859204D6F2D
:10406000746F72204F6666005859204D6F746F72DE
:10407000204F6E2E2E2E00576174636820582659EB
:10408000206D6F746F727300457874727564657219
:104090002046616E204F66662100436F6F6C696E2B
:1040A000672046616E204F6E21005761746368205F
:1040B0007468652046414E73004578747275646576
:1040C000722046616E204F6E2100506C65617365F1
:1040D00020636865636B20486F74626564210048E3
:1040E0006F74206265642074657374204F4B2120C7
:1040F0002000506C6561736520636865636B2048C0
:104100006F74656E642100486F7420656E6420745E
:10411000657374204F4B21202000486F7420656E1A
:10412000642074657374206661696C210054657342
:1041300074696E6720486F74656E642F486F74628F
:10414000656400486F742062656420486561746925
:104150006E672E2E2E00486F7420656E64204865B1
:104160006174696E672E2E2E00486F74206265643C
:1041700020746F6F20686F742100486F742062652F
:10418000642074657374206661696C2100486F74E3
:10419000656E6420746F6F20686F742100486F74BF
:1041A000656E642074657374206661696C210020FB
:1041B00020496E7365727420746F20636F6E74692A
:1041C0006E75652000202053442043617264204EA8
:1041D0006F742046696E6421202000534420536987
:1041E0007A65284D293A0053442043617264204F78
:1041F0004B2100204500204D39322058002053200B
:1042000000204620005A5220005A4C2000205920FD
:1042100000205820002D2D2D2E2D2D2000544845F6
:10422000524D414C2052554E4157415900546865FA
:10423000726D616C2052756E6177617900507269A0
:104240006E7465722068616C7465642E206B696C95
:104250006C28292063616C6C6564210A0020453A52
:1042600000205A3A0020593A000210014A01300158
:104270003B014001360150012C01700127019001E2
:104280002201B0011D01C0011801F001130110024B
:104290000E0130020901600204019002FF00C00219
:1042A000FA000003F5002003F0004003EB00600378
:1042B000E6008003E100B003DC00F003D700400417
:1042C000D200E004CD00C005C8004006C300E006EF
:1042D000BE008007B900C008B4004009AF00C009A3
:1042E000AA00B00AA500B00BA000D00C9B00000EE5
:1042F0009600C010910050128C0000148700C01569
:104300008200B0177D00C01A7800C01D73004020E5
:104310006E0090226900F024640040275F0090291D
:104320005A00E02B5500102E500020304B00103268
:104330004600E033410090353C00103737007038BC
:104340003200A0392D00B03A2800A03B2300603C89
:104350001E00103D1900903D1700103E1400803ED5
:104360001200203F0F00603F0C00903F0800B03F5C
:104370000500D03F0000F03FFBFF00000A0B0209E0
:104380000C0D0E08070304010000000000000000EF
:10439000000000000000000000000000000000001D
:1043A00000000000000012111000000000000000DA
:1043B00000000000000000000000000000000000FD
:1043C00000002200250028002B002E0031003400C0
:1043D00002010000050108010B010000210024007A
:1043E00027002A002D0030003300010100000401E5
:1043F00007010A0105050505070508080808020266
:1044000002020A0A0808040404040101010101016E
:1044100001010303030303030303040707070C0C51
:104420000C0C0C0C0C0C0202020206060606060618
:1044300006060B0B0B0B0B0B0B0B010210202008BD
:1044400008102040102040800201020108040201EF
:10445000010204081020408080402010080402015E
:1044600080040201804020100804020108040201B7
:10447000010204081020408001020408102040803E
:1044800060010A0211241FBECFEFD1E2DEBFCDBF13
:1044900000E00CBF14E0A0E0B2E0E8E2F0E103E0ED
:1044A0000BBF02C007900D92AC30B107D9F728E1DD
:1044B000ACE0B4E001C01D92AF3AB207E1F712E2FE
:1044C000C1E4D2E200E006C021970109802FFE017D
:1044D0000F947685C034D10780E00807A9F70F94C0
:1044E00016730D9402880C94000080917E16823021
:1044F00091F04CF4882321F08130B1F010927E16B7
:104500008AE591E10895843061F044F08530B1F797
:104510008DE291E1089588E491E108958FE391E1BE
:10452000089586E391E1089581E591E10895CF939F
:10453000DF93DB01F9019C919130C1F0943080F060
:1045400094509C938830D1F480819181009771F0D0
:10455000019791838083480F591FEA01188206C092
:104560008C3539F49C5F9C93943041F4DF91CF916A
:1045700008958B3339F781E08C93F8CF2081318116
:10458000B9016F5F7F4F71836083420F531FEA0150
:104590008883808191818F3591056CF7E7CF909169
:1045A0009E0A292F30E0F901EC57F94E8083220F43
:1045B000331F220F331FF901EC57F34F4091800551
:1045C00050918105609182057091830540835183EC
:1045D000628373839F5F943040F490939E0A80912E
:1045E000620C8F5F8093620C089510929E0AF7CF41
:1045F000282F9091F611833021F495FD0FC094FD82
:104600000FC0892F90E0B0E0A0E004C0B695A79558
:10461000979587952A95D2F78170089581E008953E
:1046200080E008952FEB280F2A3108F047C0E22FD1
:10463000F0E080917C0590917D05A0917E05B09180
:104640007F0504C0B695A795979587952A95D2F7CB
:1046500080FD02C081700895E45AFA4FE081EE2394
:1046600041F18091740C9091750CE80FF92FF11DB8
:10467000808190ED980F9A3030F08E3251F4818124
:1046800080538A3098F4F0935B05E0935A0581E0FB
:1046900008958D3211F08B3249F4818190ED980F9D
:1046A0009A3088F38E3211F48281EACFF0E0E0E0B4
:1046B000EACF10925B0510925A05E9CF80E0089589
:1046C0000E941223882341F081E020915A05309105
:1046D0005B05232B09F480E00895CF92DF92EF92DF
:1046E000FF920F931F93CF93DF93FC01EC01219670
:1046F00082812181022E000C330B280F311D87FD92
:104700003A958081280F311D87FD3A9530932E050B
:1047100020932D058F017F0183E0E80EF11C44E614
:10472000D8018D918D016D01B1E0CB1AD1088402C1
:10473000C0011124B9010F944E85D6016C93E01687
:10474000F10671F72081A22F022E000CBB0B5281C3
:104750003181632F032E000C770BCB01850F911D48
:1047600057FD9A958A0F9B1F90932E0580932D05D8
:104770008436910570F5932F8B010A0F1B1F109340
:104780002E0500932D05842F801B151654F482836B
:10479000DF91CF911F910F91FF90EF90DF90CF901D
:1047A000089512163CF444E650E0481B5109A41742
:1047B000B50764F0131664F724E630E0281B3109CE
:1047C000621773072CF7890F8883E2CF922FEF01CE
:1047D000FACF84369105E1F2845695E0899FA001D5
:1047E00011244A175B073CF0232F4617570784F61E
:1047F000281B2883CDCFEF01FBCF4F925F926F92A2
:104800007F928F929F92AF92BF92CF92DF92EF9260
:10481000FF920F931F93CF93DF9300D000D0CDB7BB
:10482000DEB78090920A9090930AA090940AB0907C
:10483000950A20E030E0A901C501B4010F947F85FD
:10484000C090960AD090970AE090980AF090990A42
:10485000A70196010F947F8520919A0A30919B0AB7
:1048600040919C0A50919D0A29833A834B835C8333
:104870000F947F8520E030E040EA51E40F94A77E5A
:104880001816CCF542E95AE05E834D83ED81FE8136
:104890004190519061907190FE83ED8320E030E073
:1048A000A901C301B2010F940287181654F420E045
:1048B00030E040E85FE3C301B2010F94A77E181611
:1048C000D4F42D813E812E593A4001F7C501B4013F
:1048D0000F9474866093FF11C701B6010F9474861C
:1048E0006093001269817A818B819C810F94748618
:1048F000609301121EC082E99AE09A8389830FEFC8
:1049000011E1E981FA816191719181919191FA832B
:10491000E98320E030E040E251E40F940D7F0F94F2
:104920007486F80161938F0129813A812E593A40AA
:1049300041F78FEF91E126960FB6F894DEBF0FBED8
:10494000CDBFDF91CF911F910F91FF90EF90DF903E
:10495000CF90BF90AF909F908F907F906F905F901F
:104960004F900C946D230F931F93CF93DF93CFEF52
:10497000D1E102E91AE06991062E000C770B880B51
:10498000990B0F94AE7E20E030E040E251E40F94AA
:104990000286F80161937193819391938F01F2E103
:1049A000C230DF0741F7DF91CF911F910F9108953A
:1049B0002F923F924F925F926F927F928F929F922F
:1049C000AF92BF92CF92DF92EF92FF920F931F931D
:1049D000CF93DF93CDB7DEB72E970FB6F894DEBF37
:1049E0000FBECDBFE82ED62E042F122F282F30E079
:1049F0003C872B87462F50E05A87498766E0F62E82
:104A0000F29EC001F39E900D11249E878D87FA01BE
:104A1000E80FF91FEE0FFF1FEE0FFF1FEC52F84FCC
:104A200060817181828193819B01AC010F948087A9
:104A3000882309F434C1E00E612F6D0DFE9CF00156
:104A40001124A985BA85AE0FBF1FAA0FBB1FAA0FDD
:104A5000BB1FAC52B84FAC901196BC9011971296F8
:104A6000CC9012971396DC90E00EFE9CA0011124CE
:104A7000A985BA85A40FB51FAA0FBB1FAA0FBB1F1C
:104A8000AC52B84FEC901196FC90119712960C9185
:104A9000129713969C90862F90E0AD85BE85A80F47
:104AA000B91FAA0FBB1FAA0FBB1FAC52B84F8C90E7
:104AB00011967C90119712966C90129713965C90B9
:104AC000610F70E0AD85BE85A60FB71FAA0FBB1F93
:104AD000AA0FBB1FAC52B84F4C9011963C90119747
:104AE00012961C91129713962C90E80FF91FEE0F57
:104AF000FF1FEE0FFF1FEC52F84FB081B9832181E9
:104B00002A8332813B8383818C83FA01E60FF71F6E
:104B1000EE0FFF1FEE0FFF1FEC52F84F90819D83A9
:104B2000A181AE83B281BF83238128879701402F63
:104B3000592DB701802F992D0F948087882321F05C
:104B4000E12CF12C00E0912C9501A601B501C601E4
:104B50000F948087882319F05701C02ED92C242D5B
:104B6000332D412F522D642D732D812F922D0F94B3
:104B70008087882321F0412C312C10E0212C282D16
:104B8000372D462D552D682D772D862D952D0F947B
:104B90008087882321F0842C732C612E522C2D8148
:104BA0003E814F8158856D817E818F8198850F94DC
:104BB0008087882321F01D821E821F82188629810A
:104BC0003A814B815C8169817A818B819C810F94D0
:104BD0008087882341F03D8139834E814A835F81FC
:104BE0005B8388858C8386E0EB85FC858E9FD00176
:104BF0008F9FB00D112429853A85A20FB31FAA0FEC
:104C0000BB1FAA0FBB1FAC52B84FBA87A98795012B
:104C1000A601B501C6010F947F859701402F592D3C
:104C20000F947E856B017C01282D372D462D552D47
:104C3000682D772D862D952D0F947F85242D332D6E
:104C4000412F522D0F947E859B01AC01C701B60107
:104C50000F947F856B017C0129813A814B815C81B6
:104C600069817A818B819C810F947F852D813E8122
:104C70004F8158850F947E859B01AC01C701B60119
:104C80000F947F8520E030E040E450E40F940286EA
:104C9000A985BA856D937D938D939C9313972E96DA
:104CA0000FB6F894DEBF0FBECDBFDF91CF911F913D
:104CB0000F91FF90EF90DF90CF90BF90AF909F90BB
:104CC0008F907F906F905F904F903F902F900895BE
:104CD000AF92BF92CF92DF92EF920F931F93CF9339
:104CE000C82F85E3C89F5001112481E3A80EB11C91
:104CF000A50167E370E08AE50F94582C20917316A4
:104D0000822F022E000C990BAA0BBB0BBF93AF9303
:104D10009F932F938AEDC82ED12C93E0E92E10E0BB
:104D200000E02FEF3FEF41E060E081E00F947D462F
:104D30000F900F900F900F9050E040E064E68C2FA2
:104D4000CF911F910F91EF90DF90CF90BF90AF90D8
:104D50000D94B02EAF92BF92CF92DF92EF920F934D
:104D60001F93CF93C82F85E3C89F5001112481E37F
:104D7000A80EB11CA50167E370E08FE30F94582CD7
:104D80008FE30F943D2CBC01645C7F4FA50180E450
:104D90000F94582C20917416822F022E000C990B20
:104DA000AA0BBB0BBF93AF939F932F938AEDC82E93
:104DB000D12C93E0E92E10E000E02FEF3FEF41E02F
:104DC00060E081E00F947D460F900F900F900F9060
:104DD00050E040E06FE58C2FCF911F910F91EF9045
:104DE000DF90CF90BF90AF900D94B02EAB01BC017F
:104DF00040938F165093901660939116709392166D
:104E000085EF97E10C946BF480915A0590915B05C6
:104E1000009731F04AE050E070E060E00D94FD7CD6
:104E200060E070E0CB01089580915A0590915B0598
:104E3000009731F04AE050E070E060E00D94CF7BE5
:104E400060E070E0CB010895CF93DF93EB010E9407
:104E50006023882319F00E941427EB01CE01DF9113
:104E6000CF9108950E94142797FD0CC00E9414272B
:104E70006F3F71058105910509F034F40E941427F4
:104E8000862F089580E008958FEF0895CF93C62F61
:104E90000E946023882319F0CF910C9432278C2F25
:104EA000CF91089580915A0590915B05892B41F02F
:104EB0000E94322791E0811101C090E0892F08956E
:104EC00091E0FCCFCF93DF93C82FD62F0E946023B1
:104ED000882321F0DF91CF910C9452278C2F0E94D0
:104EE0001223811101C08D2FDF91CF9108950E946F
:104EF0001427CB010895CF93DF93EB010E94602329
:104F0000882321F0DF91CF910C947727CE01DF9198
:104F1000CF9108950F931F93CF9380915A0590914D
:104F20005B050097E9F0FC018F01C1912C2F2F7DCB
:104F300081F0C53411F0C536B9F7F801108270E080
:104F400060E00F94717AF801C083CF911F910F91A7
:104F5000089570E060E0CF911F910F910D94717AE8
:104F600060E070E0CB01F1CFCF92DF92EF92FF9241
:104F70006A017B010E946023882331F0FF90EF904B
:104F8000DF90CF900C948A27C701B601FF90EF9075
:104F9000DF90CF90089580917C05827149F48091D3
:104FA0007E058C7829F480917F05837009F45DC0BB
:104FB00082E40E941223882351F00E940427609308
:104FC000311370933213809333139093341383E52A
:104FD0000E941223882351F00E948A276093611354
:104FE00070936213809363139093641384E50E941B
:104FF0001223882351F00E948A27609365137093CF
:105000006613809367139093681388E50E941223B8
:10501000882339F00E948A27AB01BC0180E00F94FD
:10502000AB3E89E50E941223882339F00E948A272B
:10503000AB01BC0181E00F94AB3E8AE50E941223D4
:10504000882339F00E948A27AB01BC0182E00F94CB
:10505000AB3E85E40E941223882339F00E948A2700
:10506000AB01BC0183E00D94AB3E089580915102E9
:1050700091E0892781950895CF93C82F85E3C89F34
:10508000A00111244F5C5F4F67E370E089E30F9448
:10509000582C50E040E06DE28C2FCF910D94B02E53
:1050A0001F93CF93DF93182F85E3189FE0011124FE
:1050B000E196AE0167E370E088E30F94582C88E333
:1050C0000F943D2CBC01645C7F4FAE018EE50F94C4
:1050D000582C50E040E06CE2812FDF91CF911F917E
:1050E0000D94B02E1F93CF93DF93182F85E3189F55
:1050F000E0011124E196AE0167E370E087E30F94CD
:10510000582C87E30F943D2CBC01645C7F4FAE01AB
:105110008EE50F94582C50E040E06BE2812FDF9138
:10512000CF911F910D94B02E1F93CF93DF93182F23
:1051300085E3189FE0011124E196AE0167E370E07A
:105140008DE20F94582C8DE20F943D2CBC01645CD1
:105150007F4FAE018FE20F94582C50E040E060E2A8
:10516000812F0F94B02E812FDF91CF911F910D943D
:10517000A52E1F93CF93DF93182F85E3189FE0018F
:105180001124E196AE0167E370E08DE20F94582C94
:105190008DE20F943D2CBC01645C7F4FAE018EE22A
:1051A0000F94582C50E040E06FE1812F0F94B02E07
:1051B000812FDF91CF911F910D94A52ECF93C82FF2
:1051C00085E3C89FA00111244F5C5F4F67E370E047
:1051D00083E30F94582C50E040E068E28C2F0F944A
:1051E000B02E8C2FCF910D94A52E0D94114721E256
:1051F00030E03093660720936507809364078093BF
:10520000630785E08093670783E00F94832B0E94F8
:1052100042AB0E94F52847E050E06EE070E088E085
:105220000F94582C809112168F5F0E94F52881E010
:1052300090916307911180E00F94EF2E50E040E0D1
:1052400064E381E00F94B02E46E650E067E370E03F
:105250008FE40F94582C81E00F94A52E50E040E08D
:1052600065E382E00F94B02E4BE950E067E370E015
:1052700080E50F94582C82E00F94A52E50E040E07A
:1052800066E383E00F94B02E40ED50E067E370E0FA
:1052900082E50F94582C83E00F94A52E50E040E057
:1052A00067E384E00F94B02E45E051E067E370E0DF
:1052B00083E50F94582C84E00F94A52E809163070A
:1052C00081110D94B02C0895AF92BF92CF92DF92CE
:1052D000EF920F931F9383E00F94832B0F94E5328B
:1052E0000E9442AB0E94F52847E050E06EE070E07B
:1052F00081E10F94582C809112168F5F0E94F5283F
:1053000081E090916307911180E00F94EF2E81E08E
:105310000E94682682E00E94AA2640ED50E067E3E2
:1053200070E08FE30F94582C8FE30F943D2CBC0159
:10533000645C7F4F40ED50E081E40F94582C209145
:105340007516822F022E000C990BAA0BBB0BBF9374
:10535000AF939F932F9380EDA82EB12C9AEDC92E79
:10536000D12C23E0E22E10E000E02FEF3FEF41E0F0
:1053700060E081E00F947D4650E040E060E683E02D
:105380000F94B02E45E051E067E370E08FE30F9497
:10539000582C8FE30F943D2CBC01645C7F4F45E09B
:1053A00051E082E40F94582C20917616822F022E21
:1053B000000C990BAA0BBB0BBF93AF939F932F933A
:1053C00035E0A32EBB24B3942FEF3FEF41E060E024
:1053D00081E00F947D4650E040E061E684E00F9468
:1053E000B02E0F943247809163072DB73EB7285FE8
:1053F0003F4F0FB6F8943EBF0FBE2DBF882349F034
:105400001F910F91EF90DF90CF90BF90AF900D94D0
:10541000B02C1F910F91EF90DF90CF90BF90AF9085
:1054200008950F931F93CF93DF9323E030E03093E1
:10543000660720936507809364078093630790E075
:105440008530910514F485E090E0C82F80936707BC
:10545000D5E0D81B8BE00F94832B0E9442AB0E94B7
:10546000F52847E050E06EE070E082E00F94582CA1
:10547000809112168F5F0E94F528D63038F481E0B3
:1054800090916307911180E00F94EF2E809151026B
:10549000882331F086E08C1B863010F40E94E3B93B
:1054A0000D2F0D2E000C110B0E943628282F082ED0
:1054B000000C330B2E5F3F4F200F311F263031057C
:1054C00020F48C1B895F0E94CCB90E943628282FBB
:1054D000082E000C330B2D5F3F4F200F311F26305D
:1054E000310520F48C1B885F0E94DE280E9436283C
:1054F000282F082E000C330B2C5F3F4F200F311F3D
:105500002630310520F48C1B875F0E94B9280E9449
:105510003628282F082E000C330B2B5F3F4F200F0F
:10552000311F2630310520F48C1B865F0E949428A1
:105530000E9436289801280F311D87FD3A952A3F91
:105540003F4F20F08C1B855F0E9472280E943628F6
:10555000282F082E000C330B295F3F4F200F311FDF
:105560002630310520F48C1B845F0E9450280E9455
:105570003628282F082E000C330B285F3F4F020FD0
:10558000131F0630110520F48C1B835F0E943C28FA
:1055900080916307882319F08D0F0F94B02CDF9151
:1055A000CF911F910F910D94B72D8337910514F072
:1055B00083E790E090931112809310120C9422FFD5
:1055C000CF93FC0120812B33B1F02091620C243069
:1055D00090F4C62FBC0180919E0AF0E68F9FC00117
:1055E00011248F51954F0F94D3878C2F0E94CF2277
:1055F00081E0CF91089580E0FCCF8F929F92AF928F
:10560000BF92CF92DF92EF92FF920F931F93CF93AF
:10561000DF9310927705109276052FE320937B0598
:1056200010927A05109279051092780510927C05F7
:1056300010927D0510927E0510927F059C01F90164
:1056400090812F5F3F4F9032D1F39E34C9F4818116
:1056500090ED980F9A3020F08D3211F08B3281F45A
:1056600032969F012F5F3F4F808180538A3008F42C
:105670007CC09F012F5F3F4F8081803209F477C04B
:10568000F093750CE093740C8F010F5F1F4FC08176
:105690006AE270E0C8010F94C887009731F0FC01FE
:1056A000319780818032E1F31182CD3429F0C43505
:1056B00019F0C73409F04CC0F80180810F5F1F4F0B
:1056C0008032D1F380538A3008F042C0C0937B050A
:1056D00030E020E04AE0DF011196429FC001439F85
:1056E000900D11242081BC01620F711D27FD7A9558
:1056F0009B0120533109818190ED980F9A30C8F1B8
:1057000030937A05209379058E3261F4329690E0D9
:105710004AE0DF0131968C9150ED580F5A3058F124
:1057200090937805CD01DC0101964C914032D9F37C
:10573000CD3489F52E31310539F01CF5273131058D
:1057400019F02C31310539F5B0937705A093760522
:10575000DF91CF911F910F91FF90EF90DF90CF904D
:10576000BF90AF909F908F900895F9017ACFF90183
:1057700080CFFD01B0CF949F800D112490ED980F44
:10578000C8CF253731053CF027373105ECF2203AF8
:1057900073E03707C9F2D091740C40E050E0BA01D1
:1057A00010E000E0C12CD12C7601C394FD013196AC
:1057B0008C91882309F47FC08132E1F4CD34D1F497
:1057C00020323105B9F440937C0550937D056093F8
:1057D0007E0570937F05F0937705E093760563E28D
:1057E00070E0CF010F94C887009709F4B1CFFC0196
:1057F0001082AECF81548A3108F058C0DF019D91EC
:10580000903291F0A0EDA90FAA30E8F09E3271F429
:10581000918190539A30B8F00115110519F48F0158
:105820000150110990E013C0FD01E8CF9D3211F045
:105830009B3291F79181A0EDA90FAA3020F09E3202
:1058400059F79281E6CF9E2F9D1B309759F3A82FD1
:10585000B0E04601570104C0880C991CAA1CBB1C6F
:105860008A95D2F7482959296A297B29A45ABA4F1F
:105870009C9380818154DF018A3108F497CFDF0146
:105880008191882309F492CF90ED980F9A30B8F364
:1058900093ED980F923098F38B3289F3CD010196F6
:1058A000EC91E03209F082CFDC01F8CF011511054F
:1058B00001F78D01DECF10937705009376054093B5
:1058C0007C0550937D0560937E0570937F0540CFE6
:1058D0008091640C882319F080E00F94002480E00C
:1058E00008954F925F926F927F928F929F92AF92A4
:1058F000BF92CF92DF92EF92FF92CF93DF9300D0CF
:1059000000D01F921F92CDB7DEB79E838D83DB013F
:10591000CD90DD90ED90FC908091690C90916A0C97
:10592000A0916B0CB0916C0C89839A83AB83BC8380
:105930009C01AD01C701B6010F947E852B013C018E
:10594000AD81BE818D909D90AD90BC908091650C95
:105950009091660CA091670CB091680C8D839E832A
:10596000AF83B88722ED30E040EA50ECC301B201CA
:105970000F94028787FDD5C023E030E04BE953E464
:10598000C301B2010F94A77E18160CF4CAC02D8172
:105990003E814F815885C501B4010F947E852B014E
:1059A0003C0129E630E040E751EC0F94028787FD87
:1059B000B8C023E030E04BE953E4C301B2010F94D7
:1059C000A77E18160CF4ADC020E030E040E751E4AB
:1059D0006D817E818F8198850F947E852B013C019E
:1059E00020E030E04CE052E40F94A77E87FF06C031
:1059F000412C512C3CE0632E32E4732E27E137EB2F
:105A000041ED58E3C301B2010F947E859B01AC01C7
:105A1000C501B4010F94028787FD83C020E030E008
:105A20004BE953E46D817E818F8198850F947F854A
:105A30002B013C0120E030E849E853E40F94028751
:105A400018163CF4412C20E8522E29E8622E23E45B
:105A5000722E27E137EB41ED58E3C301B2010F94F9
:105A60007F859B01AC01C501B4010F94A77E181678
:105A70000CF457C020E030E040EA50E469817A81BC
:105A80008B819C810F947E854B015C0120E030E08E
:105A90004CE052E40F94A77E87FF06C0812C912C26
:105AA0009CE0A92E92E4B92E27E137EB41ED58E3B3
:105AB000C501B4010F947E859B01AC01C701B601FD
:105AC0000F94028787FD2DC020E030E04BE953E4BE
:105AD00069817A818B819C810F947F854B015C0168
