:100000000C9499200C94CA200C94CA200C94CA20F9
:100010000C94CA200C94CA200C94CA200C94CA20B8
:100020000C94CA200C94CA200C94CA200C94CA20A8
:100030000C94CA200C943A390C94CA200C94CA200F
:100040000C94CA200C940E430C94CA200C94CA2021
:100050000C94CA200C94CA200C94C47E0C9485B0D5
:100060000C94CA200C946DDA0C94CA200C94CA200B
:100070000C94CA200C94CA200C94CA200C94CA2058
:100080000C94CA200C94CA200C94CA200C94CA2048
:100090000C94CA200C94CA200C94CA200C94CA2038
:1000A0000C94CA200C94CA200C94CA200C94CA2028
:1000B0000C94CA200C94CA200C94CA200C94CA2018
:1000C0000C94CA200C94CA200C94CA200C94CA2008
:1000D0000C94CA200C94CA200C94CA200C94CA20F8
:1000E0000C94CA20D5AED8AEC7AECBAED1AE0FAF52
:1000F000DCAEE0AEE6AEEAAEEEAEF4AEF8AEFCAE2E
:100100000FAF02AF06AF0AAFA1AFA6AFABAFB5AFAF
:10011000BFAF38B0C9AFD1AFD9AFE3AFEDAFF7AF35
:1001200006B010B038B01AB024B02EB027D26AD0C2
:10013000A3D063D2A3D0A3D0A3D0A3D0A3D0A3D065
:10014000A3D0A3D0A3D0A3D0A3D0A3D0A3D0A3D017
:10015000A3D0A3D0A3D0A3D0A3D0A3D0A3D0A3D007
:10016000A3D0A3D0A3D0A3D05DD2A3D0A3D0A3D03B
:10017000A3D0A3D0A3D0A3D0A3D036D2A3D0A3D052
:10018000A3D0A3D0A3D0A3D0A3D0A3D0A3D0A3D0D7
:100190007AD2A0D0084AD73B3BCE016E84BCBFFDCB
:1001A000C12F3D6C74319ABD56833DDA3D00C77F47
:1001B00011BED9E4BB4C3E916BAAAABE00000080E0
:1001C0003F05A84CCDB2D44EB93836A9020C50B96F
:1001D000918688083CA6AAAA2ABE000000803F009B
:1001E0000D9464020D94D3004E414E494E4954592A
:1001F000494E46CDCCCC3D0AD7233C17B7D13877F2
:10020000CC2B329595E6241FB14F0A000020410007
:1002100000C84200401C4620BCBE4CCA1B0E5AAE51
:10022000C59D74434F4D4D554E49434154494F4E22
:100230000044525952554E004552524F52530049B4
:100240004E464F004543484F0047322F4733206208
:10025000616420706172616D65746572730A00D0AB
:10026000A1D0BFD0BBD18FD187D0BAD0B02E2E2E87
:1002700000D092D196D0B4D0BDD0BED0B2D0BBD039
:10028000B5D0BDD0BDD18F20D0B4D180D183D0BA6C
:10029000D183005A313020D0B3D0BED182D0BED06D
:1002A000B2D0B8D0B92E00D09ED187D196D0BAD1D5
:1002B00083D0B2D0B0D0BDD0BDD18F20D0B4D19634
:1002C000D0B92E2E2E00D09DD0B5D0BCD0B0D194B8
:1002D00020D180D183D185D1832E00456E642066E4
:1002E000696C65206C6973740A00426567696E20E9
:1002F00066696C65206C6973740A004D3132350093
:100300005344207072696E74696E672062797465F7
:1003100020004E6F74205344207072696E74696EB1
:10032000670A0046696C652064656C657465643AAB
:100330000044656C6574696F6E206661696C656404
:100340002C2046696C653A20006F70656E206661EE
:10035000696C65642C2046696C653A2000507269AE
:100360006E742074696D653A200050726F74656315
:100370007465642050696E0A004525692025730064
:1003800044023F023802310223026F666600444590
:100390004255473A00D09FD095D0A0D095D0A0D05C
:1003A00092D090D09DD09E2E20006F6B00D09DD01B
:1003B000B0D0B3D180D196D182D0BE2E0020573A92
:1003C0000045256920257300D0A1D182D196D0BBEC
:1003D00020D0BDD0B0D0B3D180D196D182D0B8D00A
:1003E000B92E0020573A00D09DD0B0D0B3D180D1E3
:1003F00096D0B2D0B0D0BDD0BDD18F20D181D18226
:10040000D0BED0BBD1832E005A313020D092D0B88C
:10041000D0BCD0BA2E202E00454D455247454E4304
:10042000595F50415253455200434153455F4C4937
:100430004748545F4252494748544E45535300542D
:100440004F47474C455F4C494748545300534F462C
:1004500054574152455F504F574552004255494C01
:10046000445F50455243454E54004C4556454C4917
:100470004E475F44415441005A5F50524F4245003D
:100480004155544F4C4556454C005052494E545FCF
:100490004A4F420050524F47524553530041555422
:1004A0004F5245504F52545F54454D5000564F4C9B
:1004B000554D455452494300454550524F4D005308
:1004C000455249414C5F584F4E5F584F4646004693
:1004D00049524D574152455F4E414D453A4D61722B
:1004E0006C696E2042617365206F6E204D61726C85
:1004F000696E312E312E382028476974687562295B
:1005000020534F555243455F434F44455F55524C2E
:100510003A68747470733A2F2F6769746875622E25
:10052000636F6D2F7A6F6E657374617233642050E0
:10053000524F544F434F4C5F56455253494F4E3ADA
:10054000312E30204D414348494E455F5459504566
:100550003A5A31302045585452554445525F434F22
:10056000554E543A3120555549443A3030303030A8
:100570003031302D303830382D303030332D303070
:1005800030302D32303138303131303030310A00B6
:100590002F2F20004D31343520533C696E6465782F
:1005A0003E206F7574206F662072616E676520282B
:1005B000302D31290A0053657474696E67205472B6
:1005C0006176656C20416363656C65726174696F07
:1005D0006E3A200053657474696E672052657472B8
:1005E00061637420416363656C65726174696F6EE9
:1005F0003A200053657474696E67205072696E7496
:1006000020416363656C65726174696F6E3A2000A6
:1006100053657474696E67205072696E7420616EE0
:10062000642054726176656C20416363656C657209
:100630006174696F6E3A2000205A004475616C2025
:10064000456E6473746F702041646A7573746D6570
:100650006E7420286D6D293A2000205A0020590020
:10066000580020204D61783A2000205A002059007F
:10067000580020204D696E3A2000D0A3D0B2D19608
:10068000D0BCD0BA2E00D092D0B8D0BCD0BA2E20D8
:1006900000536F667420656E6473746F70733A20D4
:1006A00000000136372603FF3C3D380EFF2E303E5A
:1006B0001213FFFF080906FFFF24221EFFFF282751
:1006C0001608440A06431A1C18FFFFFFFFFFFF200D
:1006D000643A0020693A0020703A0043290A006118
:1006E000626C656420286D696E2074656D702000F1
:1006F000436F6C64206578747275646573206172F1
:100700006520004E6F2063617365206C69676874B3
:100710000A00556E6B6E6F776E20636F6D6D616E44
:10072000643A202200000020002300260029002C2B
:10073000002F00320000010000030106010901053D
:10074000050505070508080808020202020A0A084A
:100750000804040404010101010101010103030370
:100760000303030303040707070C0C0C0C0C0C0C0D
:100770000C0202020206060606060606060B0B0B14
:100780000B0B0B0B0B01021020200808102040104F
:100790002040800201020108040201010204081045
:1007A0002040808040201008040201800402018063
:1007B000402010080402010804020101020408108C
:1007C000204080010204081020408000000A0B0233
:1007D000090C0D0E080703040100000000000000D2
:1007E0000000000000000000000000000000000009
:1007F00000000000000000121110000000000000C6
:1008000000000000000000000000000000000000E8
:1008100000020000000000000000000000000000D6
:1008200000000000000000000000000000000000C8
:1008300000000000000000000000000000000000B8
:1008400000000000000000000000000000000000A8
:10085000000007FF01FE070183FE0FF8FFF8070005
:100860007FC007FF83FF0F8187FE1FF8FFF80F800F
:10087000FFE007FFC7038F818FFC3FF0FFF81FC029
:10088000E0E00003C6018FC18C00380007001FC0E4
:10089000C060000786018CC18C00300007003DE07D
:1008A000C060000F06018CE18C003800070038E0C2
:1008B000E0E0001E06018C618FFE3FF0070038E08B
:1008C000FFC0003C06018C618FFE1FF807003060FE
:1008D000FF80007806018C318FFC0FFC07007270DE
:1008E000FC0000F006018C318E00001C0700623015
:1008F000CE0001E006018C398C00000C0700673047
:10090000C70003C006018C198C00000C070067307B
:10091000C380078007038C198E00001C0700CF9846
:10092000C1C007FFC7FF8C0F8FFF1FFC0700CF98C8
:10093000C0F003FFC3FF0C0F87FF3FF80700DFD8AD
:10094000C07001FFC1FE0C0701FE3FF00700000070
:100950000000000000000000000000000000000097
:100960000000000000000000000000000000000087
:100970000000000000000000000000000000000077
:100980000000000000000000000000000000000067
:1009900000002020506C616E6E657242756666655F
:1009A0007242797465733A20002046726565204D65
:1009B000656D6F72793A2000436F6D70696C656484
:1009C0003A204A616E20313220323031390A00201B
:1009D0007C20417574686F723A202848616C6C798C
:1009E000405A4F4E4553544152290A003230313853
:1009F0002D31322D323000204C61737420557064DB
:100A0000617465643A200042617365206F6E204D09
:100A100061726C696E312E312E380A004D61726C34
:100A2000696E0020536F667477617265205265733A
:100A300065740A00205761746368646F67205265AB
:100A40007365740A002042726F776E206F75742090
:100A500052657365740A002045787465726E616C26
:100A60002052657365740A00506F77657255700A7D
:100A70000073746172740A006572726F722077720B
:100A80006974696E6720746F2066696C650A00D0AE
:100A90009AD196D0BDD186D0B5D0B2D0B8D0BA2038
:100AA000256320256320256320256300205A3A0012
:100AB00020593A0020583A00656E6473746F707361
:100AC000206869743A2000446F6E6520736176690E
:100AD0006E672066696C652E0A004D323900D0952C
:100AE000D0BAD181D182D180D183D0B4D0B5D180D8
:100AF000D0B83A203200687474703A2F2F77777725
:100B00002E7A6F6E657374617233642E636F6D003D
:100B10005A313000323031382D31322D32300042EE
:100B2000617365206F6E204D61726C696E312E317C
:100B30002E380056312E310048656174657220549C
:100B4000657374696E67004D31303420533236302E
:100B50000A4D31343020533131350A4D3130362091
:100B600053300A004175746F20557020646F776EA2
:100B7000004D323033205831353020593135302056
:100B80005A31360A4730205833313020593331300A
:100B9000205A34303020463936300A473020583019
:100BA000205930205A313020463936300A4730201B
:100BB000583330302059333030205A3430302046CA
:100BC0003936300A4730205830205930205A3130D9
:100BD00020463936300A47302058333130205933D7
:100BE0003130205A34303020463936300A473020F0
:100BF0005830205930205A313020463936300A4793
:100C00003020583331302059333130205A3430308D
:100C100020463936300A4730205830205930205A83
:100C2000313020463936300A4730205833313020B1
:100C300059333130205A34303020463936300A4763
:100C400030205830205930205A3130204639363043
:100C50000A4732380A4D3230332058313530205966
:100C6000313030205A380A4D333030205333303051
:100C700030205031303030004661737420746F2062
:100C8000426F74746F6D004D3230332058313530FF
:100C90002059313530205A31360A47323820583001
:100CA0000A4730205A3020463936300A4D32303328
:100CB00020583135302059313030205A380A00461A
:100CC00061737420746F20546F70004D3230332084
:100CD000583135302059313530205A31360A4730B5
:100CE00020583331302059333130205A34303020BD
:100CF000463936300A4D323033205831353020599C
:100D0000313030205A380A00D090D0B2D182D0BED3
:100D100020D0BFD0B0D180D0BAD183D0B2D0B0D0A3
:100D2000BDD0BDD18F0047323800D0A1D182D0B024
:100D3000D182D0B8D181D182D0B8D0BAD0B000D0D1
:100D4000A2D0B5D180D0BCD196D181D182D0BED134
:100D500080D0B800D09FD180D0BE20D0BFD0BBD033
:100D6000B0D182D18300D086D0BDD184D0BED18015
:100D7000D0BCD0B0D186D196D18F00D09CD0B5D088
:100D8000BDD18E0020204E6F7A7A6C653A2000200B
:100D9000004261636B004D696E696D756D2054652D
:100DA0006D70206973203135302E00D09DD0B5D0C4
:100DB000B2D0B4D0B0D0BBD0B8D0B920D0BDD0B0B4
:100DC000D0B3D180D196D0B200D095D0BAD181D154
:100DD00082D180D183D0B4D183D0B2D0B0D182D0EF
:100DE000B800D092D196D0B4D0BDD0BED0B2D0B8D9
:100DF000D182D0B820D0B4D180D183D0BA005245AE
:100E000053554D45204F5054494F4E533A002020E2
:100E10004E6F7A7A6C653A2000D0B2D0BED0BBD08B
:100E2000BED0BAD0BDD0B000D0BFD0BED187D0B078
:100E3000D182D0BED0BA20D0B7D0B0D0BCD196D05D
:100E4000BDD0B800D097D0B0D187D0B5D0BAD0B08F
:100E5000D0B9D182D0B520D0BDD0B0005052494ECB
:100E600054205041555345440020204E6F7A7A6CEF
:100E7000653A20002000D0B2D0B8D0B2D196D0B41C
:100E800020D0B2D0BED0BBD0BED0BAD0BDD0B00082
:100E9000D097D0B0D187D0B5D0BAD0B0D0B9D182A8
:100EA000D0B520D0BDD0B0005052494E5420504152
:100EB000555345440020204E6F7A7A6C653A2000E5
:100EC0002000506C6561736520776169742E2E2E49
:100ED0000048656174696E67206E6F7A7A6C650090
:100EE0005052494E54205041555345440020204E05
:100EF0006F7A7A6C653A2000200068656174206E14
:100F00006F7A7A6C652E0050726573732062757407
:100F1000746F6E20746F005052494E5420504155EA
:100F20005345440020204E6F7A7A6C653A2000D0F9
:100F3000BFD180D0BED0B4D0BED0B2D0B6D0B5D0A4
:100F4000BDD0BDD18F2E2E2E00D182D0B020D0BDED
:100F5000D0B0D182D0B8D181D0BDD196D182D18C40
:100F600020D0B4D0BBD18F00D092D181D182D0B06B
:100F7000D0B2D182D0B520D0B2D0BED0BBD0BED0FE
:100F8000BAD0BDD0BE005052494E542050415553A6
:100F900045440020204E6F7A7A6C653A200020008C
:100FA000D0B2D0B2D196D0B420D0B2D0BED0BBD0C7
:100FB000BED0BAD0BDD0B000D097D0B0D187D0B518
:100FC000D0BAD0B0D0B9D182D0B520D0BDD0B00089
:100FD0005052494E54205041555345440020204E14
:100FE0006F7A7A6C653A2000D0B2D0BED0BBD0BE4A
:100FF000D0BAD0BDD0B000D0B5D0BAD181D182D1D5
:1010000080D183D0B7D196D18E00D097D0B0D18780
:10101000D0B5D0BAD0B0D0B9D182D0B520D0BDD063
:10102000B0005052494E542050415553454400247D
:10103000F4D43050C38E20C2A24017828B7011129C
:101040007A910D816CD90AA861E108C758660761D9
:101050005143061E4B5D05C145A7041A4111040901
:101060003D9803713931034036DB0265339102D478
:10107000305402802E1D02632CEE01752AC501B08A
:1010800028A001102781018F2564012B244B01E04A
:10109000223401AC211F018D200D01801FFC008432
:1010A0001EED00971DDF00B81CD200E61BC6002015
:1010B0001BBC00641AB200B219A8000A19A0006A89
:1010C000189900D117910040178B00B51684003194
:1010D000167E00B31579003A157300C7146F0058D7
:1010E000146A00EE1366008813630025135E00C7C0
:1010F000125B006C12570015125400C111510070A0
:10110000114F0021114B00D61049008D10470046A9
:1011100010440002104200C00F4000800F3E004209
:101120000F3C00060F3B00CB0E3800930E37005CDF
:101130000E3500270E3400F30D3200C10D31009042
:101140000D3000600D2E00320D2D00050D2C00D944
:101150000C2B00AE0C2900850C29005C0C270035F7
:101160000C27000E0C2600E80B2400C40B2400A062
:101170000B23007D0B23005A0B2100390B21001893
:101180000B2000F80A1F00D90A1E00BB0A1E009D92
:101190000A1D00800A1D00630A1C00470A1B002C60
:1011A0000A1B00110A1A00F7091A00DD091900C408
:1011B000091900AB091900920917007B091800638F
:1011C0000917004C09160036091600200916000AF6
:1011D000091500F5081500E0081400CC081400B843
:1011E000081400A4081400900813007D0812006B76
:1011F0000813005808120046081200340811002392
:101200000811001208110001081100F0071000E099
:10121000071000D0071000C0071000B0070F00A192
:1012200007100091070E0083070F0074070F006579
:10123000070E0057070E0049070E003B070D002E52
:10124000070E0020070D0013070D0006070D00F91B
:10125000060C00ED060D00E0060C00D4060C00C8DC
:10126000060C00BC060C00B0060C00A4060B00998E
:10127000060C008D060B0082060B0077060B006C37
:10128000060B0061060A0057060B004C060A0042D6
:10129000060A0038060A002E060A0024060A001A6A
:1012A000060A001006090007060A00FD050900F4F9
:1012B000050900EB050900E2050900D9050900D080
:1012C000050900C7050900BE050900B5050800AD00
:1012D000050800A50509009C050800940508008C78
:1012E000050800840508007C050800740508006CEA
:1012F000050700650508005D050700560508004E56
:1013000005070047050700400508003805070031BC
:101310000507002A050700230507001C050600161F
:101320000507000F0507000805060002050700FB7A
:10133000040600F5040700EE040600E8040600E2D7
:10134000040700DB040600D5040600CF040600C92C
:10135000040600C3040600BD040600B7040600B17D
:10136000040500AC040600A6040600A00405009BCA
:1013700004060095040500900406008A0405008513
:10138000040500800406007A040500750405007059
:101390000405006B04050066040500610405005C9B
:1013A00004050057040500520405004D04050048DB
:1013B000040500430405003E0404003A040500351A
:1013C000040500300404002C040500270404002355
:1013D0000405001E0404001A04040016040500118C
:1013E0000404000D040400090405000404040000C2
:1013F000040400FC030400F8030400F4030400F0F8
:10140000030400EC030400E8030400E4030400E028
:10141000030400DC030400D8030400D4030400D058
:10142000030400CC030400C8030300C50303002425
:10143000F404D9201BC40C5C0E9804C4095F026537
:10144000077101F405F900FB04B30048048700C1EB
:101450000369005803550003034500BE023A0084A7
:1014600002310053022A002902250004022000E470
:10147000011C00C8011900AF011700980114008475
:10148000011300710110006101100051010E0043B1
:10149000010D0036010B002B010B0020010B001584
:1014A0000109000C01090003010800FB000800F31A
:1014B000000800EB000700E4000600DE000600D88C
:1014C000000600D2000600CC000500C7000500C2DF
:1014D000000500BD000400B9000400B5000400B11F
:1014E000000400AD000400A9000400A5000300A250
:1014F0000003009F0004009B000300980003009578
:1015000000020093000300900003008D0002008B96
:1015100000030088000200860002008400030081AE
:101520000002007F0002007D0002007B00020079C3
:1015300000020077000100760002007400020072D1
:10154000000100710002006F0002006D0001006CDC
:101550000002006A000100690002006700010066E5
:1015600000010065000100640002006200010061EA
:10157000000100600001005F0002005D0001005CEE
:101580000001005B0001005A0001005900010058F1
:1015900000010057000100560001005500010054F1
:1015A00000010053000000530001005200010051EF
:1015B000000100500001004F0001004E0000004EED
:1015C0000001004D0001004C0001004B0000004BE9
:1015D0000001004A000100490001004800000048E5
:1015E00000010047000100460000004600010045E0
:1015F00000000045000100440001004300000043DA
:1016000000010042000000420001004100000041D2
:10161000000100400001003F0000003F0001003ECB
:101620000000003E0001003D0000003D0001003CC4
:101630000000003C0000003C0001003B0000003BBB
:101640000001003A0000003A0001003900000039B2
:1016500000010038000000380000003800010037A9
:1016600000000037000100360000003600000036A0
:101670000001003500000035000000350001003495
:10168000000000340000003400010033000000338B
:101690000000003300010032000000320000003280
:1016A0000001003100000031000000310001003075
:1016B00000000030000000300001002F0000002F6B
:1016C0000000002F0000002F0001002E0000002E5F
:1016D0000000002E0001002D0000002D0000002D54
:1016E0000000002D0001002C0000002C0000002C48
:1016F0000000002C0001002B0000002B0000002B3C
:101700000000002B0001002A0000002A0000002A2F
:101710000000002A00010029000000290000002923
:101720000000002900000029000100280000002816
:101730000000002800000028000000280001002709
:1017400000000027000000270000002700000027FD
:1017500000010026000000260000002600000026F0
:1017600000000026000100250000002500000025E3
:1017700000000025000000250000002500010024D5
:1017800000000024000000240000002400000024C9
:1017900000010023000000230000002300000023BC
:1017A00000000023000000230000002300010022AD
:1017B00000000022000000220000002200000022A1
:1017C0000000002200010021000000210000002193
:1017D0000000002100000021000000210000002185
:1017E0000001002000000020000000200000002078
:1017F0000000002000000020000000200000002069
:101800000001001F0000001F0000001F0000001F5B
:101810000000001F0000001F0000001F0001001E4C
:101820000000001E0000001E0000001E0000004D11
:10183000383420582059205A20450025753A253043
:10184000327500253032753A2530327500257564C1
:1018500020253032753A25303275005A005900582B
:10186000004D616E75616C0052616E646F6D004C6D
:10187000696E656172000920000000000000000030
:1018800000000000007FFFE00000000000000000FA
:10189000000000007000E0000000000000000000F8
:1018A00000000061F860000000000000000000007F
:1018B000000041F8200000000000000000000000CF
:1018C0000040F020000000000000000000000000C8
:1018D00040602000000000000000000000000058F0
:1018E00001A0FFC0000077003B80004081005C63E6
:1018F000A07F80000077003B80002040805EF7A042
:101900007F80000036001B00002040805EF7A07F33
:1019100080000036001B00004081005C63A07F80D7
:101920000001F7FFFBE0008102005801A03F00002A
:1019300001F00003E001020400406020FFC000014C
:10194000FFF3FFE00102040040F020FFC00001FFB0
:10195000F3FFE00081020041F820FFC000000033E7
:1019600000000040810061F8603F0000000033008B
:1019700000000000007000E01E000000001E0000DB
:1019800001FFFF807FFFE00C000000000C00000161
:10199000FFFF8000000000000000000000000000C9
:1019A00000007FFFE00000000000000000000000D9
:1019B000007000E0000000000000000000000000D7
:1019C000630C600000000000000000000000004701
:1019D0000E200000000000000000000000004F0F7B
:1019E000200000000000000000000000005F0FA0C9
:1019F0000000000000000000000000005E07A0FFE3
:101A0000C0000077003B80004081004060207F8064
:101A1000000077003B800020408040F0207F800065
:101A20000036001B000020408040F0207F80000036
:101A300036001B00004081004060207F800001F7DD
:101A4000FFFBE0008102005E07A03F000001F00004
:101A500003E0010204005F0FA0FFC00001FFF3FFDD
:101A6000E0010204004F0F20FFC00001FFF3FFE080
:101A700000810200470E20FFC0000000330000007C
:101A8000408100630C603F00000000330000000054
:101A900000007000E01E000000001E000001FFFFBB
:101AA000807FFFE00C000000000C000001FFFF80C1
:101AB000000000205A3A0020593A0020436F756E0A
:101AC0007420583A0020453A00205A3A0020593AEA
:101AD00000583A003A004361703A00236465666931
:101AE0006E65202044454641554C545F4B642000B0
:101AF00023646566696E65202044454641554C5413
:101B00005F4B69200023646566696E65202044454B
:101B10004641554C545F4B7020005049442041755C
:101B2000746F74756E652066696E6973686564218B
:101B30002050757420746865206C617374204B703C
:101B40002C204B6920616E64204B6420636F6E73A0
:101B500074616E74732066726F6D2062656C6F774E
:101B600020696E746F20436F6E6669677572617469
:101B7000696F6E2E680A00504944204175746F7475
:101B8000756E65206661696C6564212074696D6598
:101B90006F75740A00D097D091D086D09920D0A2CA
:101BA000D095D09CD09FD095D0A0D090D0A2D0A3DB
:101BB000D0A0D09800546865726D616C2052756E2B
:101BC0006177617900D09DD0B5D0B2D0B4D0B0D01B
:101BD000BBD0B8D0B920D0BDD0B0D0B3D180D196D1
:101BE000D0B20048656174696E67206661696C6592
:101BF0006400504944204175746F74756E652066A9
:101C000061696C6564212054656D706572617475DD
:101C1000726520746F6F20686967680A00204B64E2
:101C20003A2000204B693A2000204B703A20000AED
:101C300020436C617373696320504944200A00207B
:101C400054753A2000204B753A2000206D61783A97
:101C50002000206D696E3A200020643A2000206246
:101C60006961733A2000D09FD095D0A0D095D0A0C4
:101C7000D092D090D09DD09E2E2000D097D0A3D0CF
:101C80009FD098D09DD095D09DD09E2E2000507290
:101C9000696E7465722073746F707065642064750A
:101CA0006520746F206572726F72732E204669789A
:101CB00020746865206572726F7220616E64207591
:101CC0007365204D39393920746F207265737461E2
:101CD00072742E202854656D70657261747572651A
:101CE0002069732072657365742E205365742069B2
:101CF00074206166746572207265737461727469B0
:101D00006E67290A004E6F20436865636B73756DBB
:101D10002077697468206C696E65206E756D6265E8
:101D2000722C204C617374204C696E653A200063FC
:101D30006865636B73756D206D69736D617463683D
:101D40002C204C617374204C696E653A20004C69FC
:101D50006E65204E756D626572206973206E6F74BA
:101D6000204C617374204C696E65204E756D626500
:101D7000722B312C204C617374204C696E653A20B3
:101D8000004D313130004D333100534420726561D4
:101D900064206572726F720A00446F6E6520707203
:101DA000696E74696E672066696C650A006D00462D
:101DB000696C616D656E7420757365643A200053BB
:101DC000746174733A20002C204C6F6E67657374D5
:101DD000206A6F623A2000546F74616C2074696DE0
:101DE000653A200053746174733A20002C204661D8
:101DF000696C65643A20002C2046696E69736865D9
:101E0000643A20005072696E74733A200053746112
:101E100074733A2000D0B4D180D183D0BAD183007A
:101E2000D0B2D196D0B4D0BDD0BED0B2D0BBD0B598
:101E3000D0BDD0BDD18F00D097D0B0D187D0B5D094
:101E4000BAD0B0D0B9D182D0B520D0BDD0B000507A
:101E500052494E542050415553454400D09AD0B079
:101E6000D180D182D0BAD0B020D0B2D0B8D0B4D046
:101E7000B0D0BBD0B5D0BDD0B000D09AD0B0D1805A
:101E8000D182D0BAD0B020D0B2D181D182D0B0D05E
:101E9000B2D0BBD0B5D0BDD0B00020746F6F206C75
:101EA0006F6E6720657874727573696F6E207072DB
:101EB0006576656E7465640A0020636F6C642065E6
:101EC0007874727573696F6E2070726576656E7462
:101ED00065640A001000C90210012C0140012201B2
:101EE00070011801B0010E01F00104015002FA0066
:101EF000B002F0003003E600D003DC009004D20012
:101F00007005C800A006BE000008B400B009AA0011
:101F1000D00BA000600E960060118C0000158200AE
:101F200020197800C01D6E00A0226400B0275A005E
:101F3000902C500000314600E0343C001038320054
:101F4000903A2800603C1E00A03D1400803E0A002C
:101F5000203F00004572723A204D494E54454D5085
:101F600020424544004572723A204D494E54454D39
:101F700050004D494E54454D502074726967676555
:101F8000726564004572723A204D415854454D5077
:101F900020424544004572723A204D415854454D07
:101FA00050004D415854454D502074726967676523
:101FB00072656400202F002042403A0020403A0021
:101FC000656E7175657565696E6720220000002079
:101FD000C2000000000000A0C0000048420000480D
:101FE0004200000040000000005761726E696E6799
:101FF0003A20486F6D696E672042756D70204469A4
:102000007669736F72203C20310A000202040000DE
:10201000A0400000A040000000400000B4430000C9
:102020009B430080CA43FFFFFF4D36303020486F8E
:1020300074656E6420746F6F20636F6C6420746FBE
:10204000206368616E67652066696C616D656E749A
:102050000A0045D0BAD180D0BED0BAD196D0B22F26
:10206000D0BCD0BC0045D0BAD180D0BED0BAD196B9
:10207000D0B22FD0BCD0BC005AD0BAD180D0BED004
:10208000BAD196D0B22FD0BCD0BC005AD0BAD18031
:10209000D0BED0BAD196D0B22FD0BCD0BC0059D0CF
:1020A000BAD180D0BED0BAD196D0B22FD0BCD0BCDD
:1020B0000059D0BAD180D0BED0BAD196D0B22FD0EC
:1020C000BCD0BC0058D0BAD180D0BED0BAD196D046
:1020D000B22FD0BCD0BC0058D0BAD180D0BED0BABC
:1020E000D196D0B22FD0BCD0BC00D0A0D183D185A6
:1020F00000D09AD180D0BED0BAD196D0B22FD0BC69
:10210000D0BC00D0A0D0B8D0B2D0BED0BA0041630D
:1021100063656C65726174696F6E0056656C6F63A0
:10212000697479005A20454E4453544F50204164FD
:102130006A005A20454E4453544F502041646A006F
:10214000D097D0BCD196D189D0B5D0BDD0BDD18FDC
:10215000205A00D097D0BCD196D189D0B5D0BDD06F
:10216000BDD18F205A00D09DD0B0D0BBD0B0D18887
:10217000D182D183D0B2D0B0D0BDD0BDD18F0043F9
:10218000616E6E6F7420656E746572207375626423
:1021900069723A2000022E2E00D09CD0B5D0BDD15D
:1021A0008E0000D095D0BAD181D182D180D183D098
:1021B000B4D0BED0B2D0B0D0BDD0BE3A2000256CD5
:1021C000642E25696D0000D09DD0B0D0B9D0B4D0B8
:1021D000BED0B2D188D0B8D0B920D187D0B0D1810B
:1021E0003A200000D092D0B5D181D18C20D187D0B7
:1021F000B0D18120D0B4D180D183D0BAD1833A205C
:1022000000D097D0B0D0B2D0B5D180D188D0B5D0E1
:10221000BDD0BE3A2000D09A2DD181D182D18C2060
:10222000D0B4D180D183D0BAD196D0B23A2000D0E8
:102230009CD0B0D0BAD18120D0A2D0B5D0BCD0BF74
:102240002E3A2031333000D09CD196D0BD20D0A280
:10225000D0B5D0BCD0BF2E3A203500544265643A88
:102260003130304B2031252062657461203339359F
:102270003000D09CD0B0D0BAD18120D0A2D0B5D07F
:10228000BCD0BF2E3A2032373500D09CD196D0BD7D
:1022900020D0A2D0B5D0BCD0BF2E3A2035005430CB
:1022A0003A204154432031303447542D3200D094E9
:1022B000D0B6D0B5D180D0B5D0BBD0BE20D0B6D0AE
:1022C000B8D0B22E3A2047656E6572696300D09F20
:1022D000D180D0BED182D0BED0BAD0BED0BB3A2041
:1022E000312E3000D0B1D196D1822FD1813A203118
:1022F0003135323030005A4F4E4553544152204C04
:1023000043443132383634005A4F4E4553544152CB
:10231000205A5249425F563600D095D0BAD181D169
:1023200082D180D183D0B4D0B5D18000D0A0D18368
:10233000D18520D0BFD0BE205A00D0A0D183D18576
:1023400020D0BFD0BE205900D0A0D183D18520D0CD
:10235000BFD0BE205800D09FD196D0B4D0B3D0BE4D
:10236000D182D183D0B2D0B0D182D0B800496E69C9
:102370007469616C697A6520454550524F4D00D0B3
:102380009DD0B0D0BBD0B0D188D182D183D0B2D0D3
:10239000B0D0BDD0BDD18F00D092D196D0B4D0BD39
:1023A000D0BED0B2D0B8D182D0B820D0B1D0B0D0C9
:1023B000B7D0BED0B2D19600D097D187D0B8D18255
:1023C000D0B0D182D0B820D0B720D09FD097D09FA6
:1023D00000496E697469616C697A6520454550529F
:1023E0004F4D00D097D0B1D0B5D180D0B5D0B3D1BA
:1023F00082D0B820D0B220D09FD097D09F00D0A05C
:10240000D183D18500D0A2D0B5D0BCD0BFD0B5D1BA
:1024100080D0B0D182D183D180D0B000D09CD0B553
:10242000D0BDD18E00D09DD0B0D0B3D180D196D0C8
:10243000B22041425320D0BDD0B0D0BB2E00D09DA1
:10244000D0B0D0B3D180D196D0B220504C4120D062
:10245000BDD0B0D0BB2E005049442D44005049445B
:102460002D44005049442D49005049442D49005005
:1024700049442D50005049442D5000200820D0A43C
:10248000D0B0D0BAD18200200820D0A4D0B0D0BA29
:10249000D18200200820D09CD0B0D0BAD1810020B9
:1024A0000820D09CD0B0D0BAD18100200820D09C88
:1024B000D0B0D0BAD18100200820D09CD196D0BD18
:1024C00000200820D09CD196D0BD00200820D09CB0
:1024D000D196D0BD00D092D0B8D0BCD0BA2E2000BA
:1024E000D0A3D0B2D196D0BCD0BA2E00D090D0B26A
:1024F000D182D0BED182D0B5D0BCD0BFD0B5D18032
:102500002E00D09ED185D0BED0BBD0BED0B4D0B628
:102510002E00D09ED185D0BED0BBD0BED0B4D0B618
:102520002E00D09ED185D0BED0BBD0BED0B4D0B608
:102530002E00D0A1D182D196D0BB00D0A1D182D122
:1025400096D0BB00D0A1D182D196D0BB00D0A1D073
:10255000BED0BFD0BBD0BE00D0A1D0BED0BFD0BBFC
:10256000D0BE00D0A1D0BED0BFD0BBD0BE00D09DC9
:10257000D0B0D0BBD0B0D188D182D183D0B2D0B0CE
:10258000D0BDD0BDD18F00D097D0B1D0B5D180D043
:10259000B5D0B3D182D0B820D0B220D09FD097D0C0
:1025A0009F00D0A1D182D196D0BB00D0A1D182D141
:1025B00096D0BB00D0A1D182D196D0BB00D0A1D003
:1025C000BED0BFD0BBD0BE00D0A1D0BED0BFD0BB8C
:1025D000D0BE00D0A1D0BED0BFD0BBD0BE00D09E58
:1025E000D185D0BED0BBD0BED0B4D0B62E00D09E48
:1025F000D185D0BED0BBD0BED0B4D0B62E00D09E38
:10260000D185D0BED0BBD0BED0B4D0B62E00D0A223
:10261000D0B5D0BCD0BFD0B5D180D0B0D182D1831D
:10262000D180D0B000D09DD0B0D0B3D180D196D0E1
:10263000B22041425320456E6400D09DD0B0D0B34B
:10264000D180D196D0B22041425320D0A1D182D1A5
:1026500096D0BB00D09DD0B0D0B3D180D196D0B2AF
:102660002041425300D09FD196D0B4D0B3D0BED138
:1026700082D183D0B2D0B0D182D0B8004261636B36
:10268000004E65787420636F726E657200D09DD0C5
:10269000B0D0B3D180D196D0B220504C4100D09E62
:1026A000D185D0BED0BBD0BED0B4D0B6D0B5D0BD11
:1026B000D0BDD18F00D097D0BCD196D0BDD0B020A6
:1026C000D0B2D0BED0BBD0BED0BAD0BDD0B000D07A
:1026D0009DD0B0D0B3D180D196D0B220414253002A
:1026E000D092D0B8D0BCD0BA2E20D0B4D0B2D0B80E
:1026F000D0B3D183D0BDD0B8004D38340053657409
:10270000204D697820526174696F004C6576656C64
:1027100020636F726E65727300D09FD0B0D180D08D
:10272000BAD183D0B2D0B0D0BDD0BDD18F205A00A5
:10273000473238205A00D09FD0B0D180D0BAD18350
:10274000D0B2D0B0D0BDD0BDD18F205900473238E3
:10275000205900D09FD0B0D180D0BAD183D0B2D090
:10276000B0D0BDD0BDD18F2058004732382058009E
:10277000D090D0B2D182D0BE20D0BFD0B0D180D046
:10278000BAD183D0B2D0B0D0BDD0BDD18F00473246
:102790003800D0A0D183D18520D0BFD0BE20D0BEFC
:1027A000D181D18FD0BC00D09CD0B5D0BDD18E000E
:1027B000D0A0D183D18520D0BFD0BE205800D0A0DA
:1027C000D183D18520D0BFD0BE205900D0A0D183E5
:1027D000D18520D0BFD0BE205A00D095D0BAD181AB
:1027E000D182D180D183D0B4D0B5D18000D0A0D156
:1027F00083D18520D0BFD0BE20302E316D6D00D06A
:10280000A0D183D18520D0BFD0BE20316D6D00D046
:10281000A0D183D18520D0BFD0BE2031306D6D00D6
:10282000D0A0D183D18520D0BFD0BE20D0BED18151
:10283000D18FD0BC00D095D0BAD181D182D180D1F6
:1028400083D0B4D0B5D18000D0A0D183D18520D0A1
:10285000BFD0BE205A00D0A0D183D18520D0BFD018
:10286000BE205900D0A0D183D18520D0BFD0BE20BA
:102870005800D09CD196D0BAD180D0BED0BAD180E9
:10288000D0BED0BA205A004E6F726D616C697A6505
:1028900020616E64204170706C793E3E00453220AC
:1028A00050726563656E74004532205072656365D1
:1028B0006E740045312050726563656E7400453159
:1028C0002050726563656E7400D09FD196D0B4D0ED
:1028D000BBD0B0D188D182D183D0B2D0B0D0BDD05E
:1028E000BDD18F0045322050726563656E742073D0
:1028F000746F700045322050726563656E7420738A
:10290000746F700045322050726563656E74207379
:10291000746172740045322050726563656E742074
:102920007374617274004175746F204D6978204D25
:102930006F6465004175746F204D6978204D6F6438
:102940006500D09FD196D0B4D0BBD0B0D188D18211
:10295000D183D0B2D0B0D0BDD0BDD18F004D3630F4
:1029600030204230004175746F204D6978204D6FE2
:10297000646500D097D0BCD196D0BDD0B020D0B285
:10298000D0BED0BBD0BED0BAD0BDD0B000D09CD1CC
:1029900096D0BAD180D0BED0BAD180D0BED0BA2025
:1029A0005A00D09FD0BED182D196D0BA00D09FD04D
:1029B000BED182D196D0BA00D09FD0BED182D1965E
:1029C000D0BA00D09ED185D0BED0BBD0BED0B4D0BE
:1029D000B62E00D09ED185D0BED0BBD0BED0B4D054
:1029E000B62E00D09ED185D0BED0BBD0BED0B4D044
:1029F000B62E00D0A1D182D196D0BB00D0A1D18279
:102A0000D196D0BB00D0A1D182D196D0BB00536566
:102A100074204D697820526174696F00D0A1D0BED6
:102A2000D0BFD0BBD0BE00D0A1D0BED0BFD0BBD015
:102A3000BE00D0A1D0BED0BFD0BBD0BE00D0A8D0E9
:102A4000B2D0B8D0B4D0BAD196D181D182D18C00D5
:102A5000D0A8D0B2D0B8D0B4D0BAD196D181D182DA
:102A6000D18C00D0A8D0B2D0B8D0B4D0BAD196D141
:102A700081D182D18C00D09CD0B5D0BDD18E00D078
:102A80009DD0B0D0B3D180D196D0B220504C41204F
:102A9000456E6400D09DD0B0D0B3D180D196D0B275
:102AA00020504C4120D0A1D182D196D0BB00D09DE6
:102AB000D0B0D0B3D180D196D0B220504C4100D00C
:102AC0009FD196D0B4D0B3D0BED182D183D0B2D072
:102AD000B0D182D0B800290A002062797465733BB6
:102AE00020637263200053657474696E67732053AA
:102AF000746F726564202800202863616C63756CB4
:102B00006174656429210A0020213D20004545505B
:102B1000524F4D20435243206D69736D6174636859
:102B2000202D202873746F726564292000290A0003
:102B30002062797465733B20637263200020737494
:102B40006F7265642073657474696E677320726553
:102B500074726965766564202800204D61726C6925
:102B60006E3D563438290A0028454550524F4D3D98
:102B700000454550524F4D2076657273696F6E2047
:102B80006D69736D61746368200000060900FE07BB
:102B90000191032020FFFF08FF07FF00000006004F
:102BA0000001070706020080808080800080030209
:102BB00002060105A0A00507070600005050F850C6
:102BC000F850500507070600002078A07028F02074
:102BD000050707060000C0C8102040981805070721
:102BE0000600006090A040A890680203030601045C
:102BF000C0408003070706010020408080804020FD
:102C000003070706010080402020204080050505BD
:102C100006000120A870A820050505060001202057
:102C2000F820200203030602FFC0408005010106D0
:102C30000003F8020202060200C0C00505050600F6
:102C4000010810204080050707060000708898A83A
:102C5000C8887003070706010040C040404040E0BC
:102C6000050707060000708808708080F8050707D0
:102C7000060000F81020100808F0050707060000FD
:102C800010305090F81010050707060000F880F08B
:102C900008088870050707060000304080F0888823
:102CA00070050707060000F80810202020200507FF
:102CB000070600007088887088887005070706007E
:102CC0000070888878081060020505060200C0C000
:102CD00000C0C00206060602FFC0C000C04080045B
:102CE000070706000010204080402010050303065F
:102CF0000002F800F80407070601008040201020B9
:102D00004080050707060000708808102000200595
:102D1000060606000070880868A870050707060008
:102D200000708888F8888888050707060000F08802
:102D300088F08888F005070706000070888080808A
:102D40008870050707060000E09088888890E005F5
:102D50000707060000F88080F08080F80507070666
:102D60000000F88080F08080800507070600007072
:102D70008880B8888870050707060000888888F86A
:102D80008888880107070602008080808080808014
:102D9000050707060000381010101090600507079F
:102DA0000600008890A0C0A09088050707060000D4
:102DB000808080808080F805070706000088D8A8FA
:102DC000888888880507070600008888C8A898882A
:102DD00088050707060000708888888888700507BE
:102DE00007060000F08888F080808005070706004D
:102DF0000070888888A89068050707060000F0889A
:102E000088F0A09088050707060000788080700889
:102E100008F0050707060000F820202020202005E4
:102E200007070600008888888888887005070706D5
:102E300000008888888888502005070706000088D9
:102E400088888888A85005070706000088885020D1
:102E500050888805070706000088888850202020B1
:102E6000050707060000F80810204080F803070750
:102E7000060100E08080808080E0050505060001F5
:102E80008040201008030707060100E020202020D2
:102E900020E0050303060004205088050101060018
:102EA00000F8020202060205804005050506000042
:102EB00070087888780507070600008080B0C88809
:102EC00088F00505050600007080808870050707FA
:102ED000060000080868988888780505050600003F
:102EE0007088F880700507070600003048E0404011
:102EF00040400506060600FF7088887808700507C0
:102F0000070600008080B0C888888801070706028D
:102F100000800080808080800308080601FF200078
:102F200020202020A040040707060000808090A0F9
:102F3000C0A090030707060100C04040404040E0A9
:102F4000050505060000D0A8A8A8A80505050600E7
:102F500000B0C88888880505050600007088888844
:102F6000700506060600FFF08888F08080050606DA
:102F70000600FF788888780808050505060000B077
:102F8000C880808005050506000070807008F00587
:102F900007070600004040E04040483005050506B0
:102FA00000008888889868050505060000888888DC
:102FB00050200505050600008888A8A850050505CD
:102FC00006000088502050880506060600FF888805
:102FD00088780870050505060000F8102040F80301
:102FE00007070601002040408040402001070706F7
:102FF00002008080808080808003070706010080B7
:103000004040204040800502020600036890000016
:10301000000600000000000600000000000600009E
:10302000000000060000000000060000000000068E
:103030000000000000060000000000060000000084
:10304000000600000000000600000000000600006E
:10305000000000060000000000060000000000065E
:103060000000000000060000000000060000000054
:10307000000600000000000600000000000600003E
:10308000000000060000000000060000000000062E
:103090000000000000060000000000060000000024
:1030A000000600000000000600000000000600000E
:1030B00000000006000000000006000000000006FE
:1030C00000000000000600000000000600000000F4
:1030D0000006000005080806000040F88080F08027
:1030E00080F805080806000050F88080F08080F81D
:1030F000050707060000E0404070484870050808D2
:103100000600001020F888808080800507070600F0
:1031100000304880E08048300507070600007088CE
:103120008070088870030707060100E040404040B7
:1031300040E0030808060100A000E040404040E0F5
:1031400005070706000038101010109060050707EB
:10315000060000A0A0A0B8A8A8B8050707060000B0
:10316000A0A0A0F8A8A8B8040707060000E04070D7
:103170005050505005080806000010208890A0E02C
:10318000908805080806000040208898A8C888880C
:103190000509090600FF5020888888502020200556
:1031A00008080600FF888888888888F820050707AF
:1031B000060000708888F8888888050707060000E0
:1031C000F88080F08888F0050707060000F08888FE
:1031D000F08888F0050707060000F8888080808066
:1031E000800508080600FF782828284888F8880500
:1031F0000707060000F88080F08080F805070706C2
:103200000000A8A8A870A8A8A8050707060000F055
:103210000808700808F0050707060000888898A8C5
:10322000C8888805080806000050208898A8A8C803
:10323000880507070600008890A0C0A090880507B1
:10324000070600007828282828A848050707060050
:103250000088D8A88888888805070706000088881D
:1032600088F888888805070706000070888888889D
:103270008870050707060000F88888888888880510
:103280000707060000F08888F080808005070706A1
:10329000000070888080808870050707060000F8AD
:1032A000202020202020050707060000888888505D
:1032B0002040800507070600002070A8A8A87020FD
:1032C00005070706000088885020508888050808F0
:1032D0000600FF888888888888F8080507070600A0
:1032E0000088888898680808050707060000A8A8CD
:1032F000A8A8A8A8F80508080600FFA8A8A8A8A8D4
:10330000A8F808050707060000C04040704848704C
:10331000050707060000888888C8A8A8C805070709
:10332000060000808080F08888F00507070600000E
:103330007088083808887005070706000090A8A85C
:10334000E8A8A8900507070600007888887828482C
:1033500088050505060000700878887805070706C7
:103360000000186080F0888870040505060000E001
:1033700090E090E0050505060000F8888080800553
:1033800006060600FF78284888F888050505060027
:10339000007088F88070050505060000A8A870A8D0
:1033A000A8050505060000F0083008F0050505062B
:1033B00000008898A8C888050707060000502088E4
:1033C00098A8C88804050506000090A0C0A0900534
:1033D0000505060000F82828A84805050506000090
:1033E00088D8A888880505050600008888F8888898
:1033F000050505060000708888887005050506002B
:1034000000F8888888880506060600FFF08888F09E
:103410008080050505060000708080887005050520
:10342000060000F8202020200506060600FF8888F8
:10343000887808700506060600002070A8A870208D
:103440000505050600008850205088050606060080
:10345000FF88888888F8080505050600008888F830
:103460000808050505060000A8A8A8A8F80506068E
:103470000600FFA8A8A8A8F808050505060000C0D2
:10348000407048700505050600008888C8A8C80374
:1034900005050601008080C0A0C0050505060000E6
:1034A000708838887005050506000090A8E8A89087
:1034B00005050506000078887828480508080600F4
:1034C000004020007088F880700507070600005053
:1034D000007088F880700509090600FF40E0404050
:1034E0007848484810050808060000102000F888B1
:1034F00080808005050506000070886088700505DD
:103500000506000070807008F001070706020080C1
:10351000008080808080030707060100A0004040F3
:103520004040400308080601FF200020202020A082
:1035300040050505060000A0A0B8A8B805050506C9
:103540000000A0A0F8A8B805060606000040E0406C
:1035500078484804080806000010200090A0C0A089
:10356000900508080600004020008898A8C8880533
:1035700009090600FF502000888888780870050631
:10358000060600FF88888888F820000021002400B3
:1035900027002A002D003000330001010000040143
:1035A00007010A0100002200250028002B002E0040
:1035B0003100340002010000050108010B015344F1
:1035C0002063617264206F6B0A006F70656E526FCA
:1035D0006F74206661696C65640A00766F6C756D46
:1035E000652E696E6974206661696C65640A0045C0
:1035F00072726F723A00534420696E69742066617A
:10360000696C0A0043616E6E6F74206F70656E2086
:1036100073756264697220006175746F25692E6725
:1036200000D094D196D0BC2025732573257320D06B
:10363000BFD0B5D180D188D0B8D0B90020D0BFD00C
:10364000B5D180D188D0B8D0B90A005A00590058F5
:1036500000D094D196D0BC200057726974696E670F
:1036600020746F2066696C653A20006F70656E206B
:103670006661696C65642C2046696C653A20006F50
:1036800070656E206661696C65642C2046696C65A6
:103690003A200046696C652073656C6563746564E7
:1036A0000A002053697A653A200046696C65206FEC
:1036B00070656E65643A20006F70656E20666169A2
:1036C0006C65642C2046696C653A20002066696C44
:1036D000653A2000646F696E670066726573680002
:1036E0004E6F772000454E4420535542524F55545B
:1036F000494E450A002220706F73002220706172CB
:10370000656E743A2200535542524F5554494E4506
:103710002043414C4C207461726765743A2200D09A
:103720009FD095D0A0D095D0A0D092D090D09DD051
:103730009E2E2000747279696E6720746F20636119
:103740006C6C207375622D67636F64652066696CAD
:103750006573207769746820746F6F206D616E796E
:10376000206C6576656C732E204D4158206C657613
:10377000656C2069733A007C3C3E5E2B3D3F2F5BBD
:103780005D3B2C2A225C00526573656E643A200012
:103790006F6B0020746F6F206C6F6E67206578749C
:1037A000727573696F6E2070726576656E7465648C
:1037B0000A0020636F6C6420657874727573696F9A
:1037C0006E2070726576656E7465640A00D09FD055
:1037D00095D0A0D095D0A0D092D090D09DD09E2E44
:1037E00020004B494C4C20636175736564206279FD
:1037F000204B494C4C20627574746F6E2F70696E4B
:103800000A00D09FD095D0A0D095D0A0D092D090D3
:10381000D09DD09E2E20004B494C4C206361757387
:10382000656420627920746F6F206D75636820690C
:103830006E6163746976652074696D65202D2063FF
:10384000757272656E7420636F6D6D616E643A207F
:1038500000D09FD0B5D180D0B5D0B7D0B0D0B2D045
:10386000B0D0BDD182D0B0D0B6D182D0B500D09F7B
:10387000D0A0D098D09DD0A2D095D0A020D097D065
:10388000A3D09FD098D09DD095D09DD09E0050724F
:10389000696E7465722068616C7465642E206B6952
:1038A0006C6C28292063616C6C6564210A00000639
:1038B0000900FE000000000001090008FE000005EC
:1038C000080806000040F0C88888987810050808A5
:1038D000060000C0F88888888888F8050505060075
:1038E000012030F830200508080600002070F8207C
:1038F000202020E00509090600FF2070A8A8B8884C
:103900008870200509090600FFE080C0B0A82830B3
:1039100028280509090600FFF8A88888888888A84B
:10392000F8050A0A0600FE205050505088A8A888C2
:103930007003030306000340A04025697300256956
:103940006D20256973002569682025696D2025692A
:103950007300256964202569682025696D20256923
:103960007300256979202569642025696820256907
:103970006D202569730048617264636F646564201B
:1039800044656661756C742053657474696E677301
:10399000204C6F616465640A00D00700009001004C
:1039A000006400000088130000000016430000C8F7
:1039B0004200000041000048420000A0420000A078
:1039C000420000C8430000AA4220440020490020D1
:1039D000204D3330312050005049442073657474B9
:1039E000696E67733A0A00204600204200204800B2
:1039F00020204D3134352053004D6174657269616A
:103A00006C2068656174757020706172616D657499
:103A10006572733A0A00205A0020204D363636006F
:103A2000456E6473746F702061646A7573746D653C
:103A30006E743A0A00204500205A00205900205890
:103A40000020420020540020204D32303520530009
:103A5000416476616E6365643A20533C6D696E5FC4
:103A600066656564726174653E20543C6D696E5F85
:103A700074726176656C5F66656564726174653EDB
:103A800020423C6D696E5F7365676D656E745F742F
:103A9000696D655F75733E20583C6D61785F78791C
:103AA0005F6A65726B3E205A3C6D61785F7A5F6A2F
:103AB00065726B3E20453C6D61785F655F6A65723B
:103AC0006B3E0A0020540020520020204D3230343A
:103AD000205000416363656C65726174696F6E208C
:103AE00028756E6974732F7332293A20503C7072B6
:103AF000696E745F616363656C3E20523C726574ED
:103B0000726163745F616363656C3E20543C7472E0
:103B10006176656C5F616363656C3E0A00204500F9
:103B2000205A0020590020204D3230312058004DBD
:103B30006178696D756D20416363656C6572617450
:103B4000696F6E2028756E6974732F7332293A0A73
:103B500000204500205A0020590020204D323033EB
:103B60002058004D6178696D756D206665656472D9
:103B7000617465732028756E6974732F73293A0A0E
:103B800000204500205A0020590020204D393220C5
:103B9000580053746570732070657220756E697477
:103BA0003A0A0020204D3230302044300A002020D4
:103BB0004D3230302044002044697361626C65648A
:103BC0000A0046696C616D656E7420736574746972
:103BD0006E67733A0020204D3134392043203B205A
:103BE000556E69747320696E2043656C73697573D3
:103BF0000A002020473231202020203B20556E69CA
:103C0000747320696E206D6D0A0056D180D183D106
:103C100085D18320D0BCD196D0BD0056D180D18330
:103C2000D185D18320D0BCD196D0BD0056D180D1D2
:103C300083D185D18320D0BCD196D0BD0056D0BCD5
:103C4000D196D0BD0056D0BCD196D0BD0056D0BCC8
:103C5000D196D0BD0056D0BCD0B0D0BAD1814500ED
:103C600056D0BCD0B0D0BAD181450056D0BCD0B06F
:103C7000D0BAD181450056D0BCD0B0D0BAD1815A8B
:103C80000056D0BCD0B0D0BAD1815A0056D0BCD0EA
:103C9000B0D0BAD1815A0056D0BCD0B0D0BAD18100
:103CA000590056D0BCD0B0D0BAD181590056D0BC42
:103CB000D0B0D0BAD181590056D0BCD0B0D0BAD192
:103CC00081580056D0BCD0B0D0BAD181580056D05F
:103CD000BCD0B0D0BAD1815800D0A0D183D185005A
:103CE00041D0BCD0B0D0BAD18120450041D0BCD0A9
:103CF000B0D0BAD18120450041D0BCD0B0D0BAD12B
:103D000081205A0041D0BCD0B0D0BAD181205A0015
:103D100041D0BCD0B0D0BAD18120590041D0BCD064
:103D2000B0D0BAD18120590041D0BCD0B0D0BAD1E6
:103D30008120580041D0BCD0B0D0BAD181205800E9
:103D4000412DD180D183D185D18300412DD180D126
:103D500083D185D18300412DD0B2D182D18FD0B310
:103D6000D183D0B22E00412DD0B2D182D18FD0B329
:103D7000D183D0B22E00D09FD180D0B8D181D0BA1B
:103D80002E00D09FD180D0B8D181D0BA2E00D0A043
:103D9000D183D1850056652DD180D0B8D0B2D0BEA8
:103DA000D0BA0056652DD180D0B8D0B2D0BED0BA2E
:103DB0000056652DD180D0B8D0B2D0BED0BA005652
:103DC0007A2DD180D0B8D0B2D0BED0BA00567A2DDC
:103DD000D180D0B8D0B2D0BED0BA0056792DD18023
:103DE000D0B8D0B2D0BED0BA0056792DD180D0B8DC
:103DF000D0B2D0BED0BA0056792DD180D0B8D0B2D2
:103E0000D0BED0BA0056782DD180D0B8D0B2D0BEB6
:103E1000D0BA0056782DD180D0B8D0B2D0BED0BAAA
:103E20000056782DD180D0B8D0B2D0BED0BA00D054
:103E3000A0D183D185004572726F72207772697448
:103E4000696E6720746F20454550524F4D210A001E
:103E50006563686F3A004D3234004D32332025736C
:103E600000060606060600000000006265640A00FF
:103E70002C2073797374656D2073746F7070656432
:103E800021204865617465725F49443A2000D097EB
:103E9000D091D086D09920D0A2D095D09CD09FD060
:103EA00095D0A0D090D0A2D0A3D0A0D09800546834
:103EB00065726D616C2052756E6177617900D09D7D
:103EC000D0B5D0B2D0B4D0B0D0BBD0B8D0B920D05B
:103ED000BDD0B0D0B3D180D196D0B2004865617466
:103EE000696E67206661696C6564001000AA0380D2
:103EF00000400100012C01B001220140021001F03C
:103F00000202018003F8004004F500E004ED009097
:103F100005E4003006DD00E006D7008007D1003060
:103F200008CC00D008C7007009C300100ABE00B05A
:103F30000ABB00500BB700900CB300D00DAA00B024
:103F40000FA5005010A000101496009016900010BD
:103F5000198C00501A8500301C820070227800B045
:103F600023750040256E0020276900A029640050B9
:103F70002A5F00902B5A00D02C5500702D4F00E086
:103F80002E48005031450030334100D035390060B3
:103F900036370010373300F0382D00A03927008065
:103FA0003C1C00403D1700F03D1100803E0900D050
:103FB0003FE5FF7A5F6D61783A20007A325F6D6984
:103FC0006E3A20007A5F6D696E3A2000795F6D6904
:103FD0006E3A2000785F6D696E3A20005265706F0E
:103FE0007274696E6720656E6473746F7020737489
:103FF000617475730A005072696E74207061757314
:104000006564004D31323500004D323400D094D11A
:1040100080D183D0BA20D181D0BAD0B0D181D0BEE6
:10402000D0B2D0B0D0BDD0BE00D092D196D0B4D155
:1040300081D183D182D0BDD18F20534420D0BAD03A
:10404000B0D180D1822E00D094D180D183D0BAD18A
:1040500083D0B2D0B0D182D0B820D0B720534400A2
:10406000D0A1D0BAD0B0D181D183D0B2D0B0D182DA
:10407000D0B820D0B4D180D183D0BA00D092D1961C
:10408000D0B4D0BDD0BED0B2D0B8D182D0B820D0BC
:10409000B4D180D183D0BA00D09FD180D0BE20D0FF
:1040A000BFD180D0B8D0BDD182D0B5D18000D09F53
:1040B000D180D0B8D0B7D183D0BFD0B8D0BDD0B820
:1040C000D182D0B820D0B4D180D183D0BA00D09DD5
:1040D000D0B0D0BBD0B0D188D182D183D0B2D0B053
:1040E000D0BDD0BDD18F00D09FD196D0B4D0B3D0A9
:1040F000BED182D183D0B2D0B0D182D0B800D09F0F
:10410000D196D0B4D0BBD0B0D188D182D183D0B237
:10411000D0B0D0BDD0BDD18F00D086D0BDD184D09D
:10412000BED180D0BCD0B0D186D196D18F00F00066
:10413000F20011241FBECFEFD1E2DEBFCDBF00E001
:104140000CBF13E0A0E0B2E0E8E0F4E202E00BBF55
:1041500002C007900D92AC3AB107D9F725E1ACEA5D
:10416000B3E001C01D92A232B207E1F710E2C8E944
:10417000D0E200E006C021970109802FFE010F94D4
:104180006111C739D10780E00807A9F70E94B9F982
:104190000D94F3110C9400002F923F924F925F9276
:1041A0006F927F928F929F92AF92BF92CF92DF9247
:1041B000EF92FF920F931F93CF93DF93CDB7DEB7AC
:1041C000C257D1090FB6F894DEBF0FBECDBF8091A4
:1041D00033108D3409F44CC6843511F40C94073532
:1041E000873411F00C943F3520903110309032100C
:1041F00024E02216310409F48DC55CF437FE02C0B8
:104200000C94593580918A0242E024163104ACF5B1
:104210002FC05AE52516310409F4DBC584F49BE16F
:104220002916310409F4A5C5ACE12A16310411F0B0
:104230000C94593580E00E94855F0C945935BBE59C
:104240002B16310409F4C9C5ECE52E16310411F022
:104250000C9459350E9435F222E9222E22E0322EAA
:104260003BEEE32E3EE0F32E00E0D12C10E0DFC564
:1042700081110C945C350C945935882311F40C94FD
:1042800059350E948F5D82E50E9442D8882309F447
:104290005EC10E94E0D74B015C0120E030E0A90143
:1042A0000F94ED09882309F41BC52091EB0E309182
:1042B000EC0E4091ED0E5091EE0E23962CAF3DAFDB
:1042C0004EAF5FAF23978091EF0E9091F00EA091CB
:1042D000F10EB091F20E27968CAF9DAFAEAFBFAF8F
:1042E00027972091420C3091430C4091440C5091FF
:1042F000450C63962CAF3DAF4EAF5FAF6397809197
:10430000460C9091470CA091480CB091490C2B960B
:104310008CAF9DAFAEAFBFAF2B9723966CAD7DAD8D
:104320008EAD9FAD23970F94ED09811111C02B968F
:104330002CAD3DAD4EAD5FAD2B9727966CAD7DADF1
:104340008EAD9FAD27970F94ED09882309F4C8C45B
:1043500011E092E02916310409F010E020E030E08D
:10436000A901C501B4010F94ED09881F8827881F92
:1043700018130BC020E030E040E85FE36B962CAFF1
:104380003DAF4EAF5FAF6B970AC080E090E0A0E812
:10439000BFEB6B968CAF9DAFAEAFBFAF6B97239665
:1043A0002CAD3DAD4EAD5FAD239763966CAD7DAD4D
:1043B0008EAD9FAD63970F94690E2F966CAF7DAF56
:1043C0008EAF9FAF2F9727962CAD3DAD4EAD5FAD15
:1043D00027972B966CAD7DAD8EAD9FAD2B970F942F
:1043E000690E6B017C012F962CAD3DAD4EAD5FADDE
:1043F0002F97CA01B9010F94520A2B013C01A70162
:104400009601C701B6010F94520A9B01AC01C3018A
:10441000B2010F946A0E0F94D51067966CAF7DAF02
:104420008EAF9FAF679720E030E040E05FE30F94EE
:10443000520A2B013C01A5019401C501B4010F945E
:10444000520A4B015C01A3019201C301B2010F9416
:10445000520A9B01AC01C501B4010F94690E0F947F
:10446000D5106B962CAD3DAD4EAD5FAD6B970F94F7
:10447000520A4B015C01C701B601905867962CADFA
:104480003DAD4EAD5FAD67970F94460FA50194010A
:104490000F94520A6B017C0163962CAD3DAD4EAD7D
:1044A0005FAD639723966CAD7DAD8EAD9FAD2397C9
:1044B0000F946A0E20E030E040E05FE30F94520A70
:1044C0009B01AC01C701B6010F946A0E23962CAD77
:1044D0003DAD4EAD5FAD23970F94690E6B017C012E
:1044E0002B962CAD3DAD4EAD5FAD2B9727966CADA9
:1044F0007DAD8EAD9FAD27970F946A0E20E030E022
:1045000040E05FE30F94520A2B013C0167962CAD0B
:104510003DAD4EAD5FAD67972F966CAD7DAD8EAD69
:104520009FAD2F970F94460FA50194010F94520A47
:104530009B01AC01C301B2010F946A0E27962CAD0A
:104540003DAD4EAD5FAD27970F94690E14C089E461
:104550000E9442D8882329F00E94E0D76B017C0199
:1045600003C0C12CD12C76018AE40E9442D8882352
:10457000F9F00E94E0D763966CAF7DAF8EAF9FAF2E
:10458000639720E030E0A901C701B6010F94ED095F
:1045900081111EC020E030E0A90163966CAD7DADB5
:1045A0008EAD9FAD63970F94ED09811111C098C333
:1045B00020E030E0A901C701B6010F94ED0988237E
:1045C00009F48EC363961CAE1DAE1EAE1FAE63977C
:1045D000A7019601505823962CAF3DAF4EAF5FAF69
:1045E000239763968CAD9DADAEADBFAD6397B058CC
:1045F00027968CAF9DAFAEAFBFAF2797CA01B90169
:104600000F94520A4B015C0127962CAD3DAD4EAD87
:104610005FAD2797CA01B9010F94520A9B01AC0103
:10462000C501B4010F946A0E0F94D510AB966CAF10
:104630007DAF8EAF9FAFAB972091EB0E3091EC0E1C
:104640004091ED0E5091EE0E2B962CAF3DAF4EAF3C
:104650005FAF2B97C701B6010F946A0E6B966CAFD4
:104660007DAF8EAF9FAF6B978091EF0E9091F00E64
:10467000A091F10EB091F20E67968CAF9DAFAEAFE8
:10468000BFAF679763962CAD3DAD4EAD5FAD639701
:10469000BC01CD010F946A0E6F966CAF7DAF8EAFEB
:1046A0009FAF6F972091420C3091430C4091440C86
:1046B0005091450CA3962CAF3DAF4EAF5FAFA39783
:1046C0006B962CAD3DAD4EAD5FAD6B97A3966CADCB
:1046D0007DAD8EAD9FADA3970F94690E6B017C01EC
:1046E0008091460C9091470CA091480CB091490CD8
:1046F000A7968CAF9DAFAEAFBFAFA7976F962CAD0F
:104700003DAD4EAD5FAD6F97BC01CD010F94690E0D
:104710004B015C012091F30E3091F40E4091F50EA7
:104720005091F60EAF962CAF3DAF4EAF5FAFAF9747
:1047300060914A0C70914B0C80914C0C90914D0CF7
:104740000F94690E2F966CAF7DAF8EAF9FAF2F97F2
:10475000A701960123966CAD7DAD8EAD9FAD2397DD
:104760000F94520A2B013C01A501940127966CADD0
:104770007DAD8EAD9FAD27970F94520A9B01AC0182
:10478000C301B2010F946A0E2B013C01A5019401F3
:1047900023966CAD7DAD8EAD9FAD23970F94520ADD
:1047A0004B015C01A701960127966CAD7DAD8EADE6
:1047B0009FAD27970F94520A9B01AC01C501B4012C
:1047C0000F94690EA30192010F94DD0E6B017C0121
:1047D00020E030E0A9010F94ED0987FF0AC02BED1E
:1047E0003FE049EC50E4C701B6010F946A0E6B013B
:1047F0007C0132E02316310451F42BED3FE049EC0B
:1048000050E4C701B6010F94690E6B017C0120E0F2
:1048100030E0A901C701B6010F94ED09811128C04C
:10482000A3962CAD3DAD4EAD5FADA3972B966CAD71
:104830007DAD8EAD9FAD2B970F94ED09811118C002
:10484000A7962CAD3DAD4EAD5FADA79767966CAD0D
:104850007DAD8EAD9FAD67970F94ED09811108C0B6
:104860005BEDC52E5FE0D52E59ECE52E50E4F52E1C
:10487000A7019601AB966CAD7DAD8EAD9FADAB97AC
:104880000F94520A9B01AC010F94520A4B015C0138
:104890002F962CAD3DAD4EAD5FAD2F97CA01B9013E
:1048A0000F94520A9B01AC01C501B4010F946A0E2A
:1048B0000F94D5104B015C012FE632E143E85AE337
:1048C0000F94ED0987FD08C2C501B4010F94DF0FF5
:1048D0000F94B30F65967FAF6EAF6597672B31F47A
:1048E00081E090E065969FAF8EAF65974090F70EA0
:1048F0005090F80E6090F90E7090FA0E6596AEAD7D
:10490000BFAD6597BD0180E090E00F94F1094B01C8
:104910005C019B01AC01C701B6010F94460F2B96B9
:104920006CAF7DAF8EAF9FAF2B97A50194012F96F3
:104930006CAD7DAD8EAD9FAD2F970F94460FAB96AE
:104940006CAF7DAF8EAF9FAFAB97A301920160912B
:104950004E0C70914F0C8091500C9091510C0F9413
:10496000690EA50194010F94460FE3966CAF7DAFDD
:104970008EAF9FAFE3972B962CAD3DAD4EAD5FADA7
:104980002B97CA01B9010F94520A20E030E040E0B1
:104990005FE30F94520A9B01AC0160E070E080E895
:1049A0009FE30F94690EA3966CAF7DAF8EAF9FAF60
:1049B000A397AF962CAD3DAD4EAD5FADAF972987B8
:1049C0003A874B875C874D865E866F86788A6091D2
:1049D0002B0270912C02072E000C880B990B0F9460
:1049E000F30920913D0230913E0240913F025091E7
:1049F00040020F94520A2AE037ED43E25CE30F9441
:104A0000520A68A379A38AA39BA30E9479B09B0151
:104A1000AC0128533F4F4F4F5F4FA7962CAF3DAF90
:104A20004EAF5FAFA7974FAC21965FAC2197229610
:104A30006FAC229723967FAC239722242394312CAA
:104A400039E12C963FAF2C9765964EAD5FAD6597DB
:104A50004215530509F430C10E94ACEE0E9479B0B2
:104A6000DC01CB01A7962CAD3DAD4EAD5FADA79758
:104A7000821B930BA40BB50BB7FD11C00E9479B03C
:104A80009B01AC0128533F4F4F4F5F4FA7962CAF70
:104A90003DAF4EAF5FAFA79780E00E94CCC92C9688
:104AA0003FAD2C9731502C963FAF2C97332309F410
:104AB0004BC027962CAD3DAD4EAD5FAD2797A3966D
:104AC0006CAD7DAD8EAD9FADA3970F94520A6B0177
:104AD0007C019201A3012B966CAD7DAD8EAD9FAD97
:104AE0002B970F94520AA70196010F946A0E6B013F
:104AF0007C019201A301A3966CAD7DAD8EAD9FADFF
:104B0000A3970F94520A4B015C0127962CAD3DAD43
:104B10004EAD5FAD27972B966CAD7DAD8EAD9FAD45
:104B20002B970F94520A9B01AC01C501B4010F945D
:104B3000690E2B013C01C601D70127968CAF9DAFB2
:104B4000AEAFBFAF27975BC0B10180E090E00F949C
:104B5000F1092B962CAD3DAD4EAD5FAD2B970F946B
:104B6000520A4B015C010F94430F6B017C01C5019C
:104B7000B4010F94CB104B015C01A7019601239661
:104B80006CAD7DAD8EAD9FAD23970F94520A2B0176
:104B90003C0163962CAD3DAD4EAD5FAD6397C50155
:104BA000B4010F94520AA30192010F946A0E2B01D3
:104BB0003C01A501940123966CAD7DAD8EAD9FADFA
:104BC00023970F94520A4B015C0163962CAD3DADC7
:104BD0004EAD5FAD6397C701B6010F94520A9B01BA
:104BE000AC01C501B4010F94690E27966CAF7DAF7F
:104BF0008EAF9FAF279749E12C964FAF2C9792012C
:104C0000A3016B966CAD7DAD8EAD9FAD6B970F9490
:104C10006A0E69837A838B839C8327962CAD3DAD86
:104C20004EAD5FAD27976F966CAD7DAD8EAD9FADF0
:104C30006F970F946A0E6D837E838F839887AB96F0
:104C40002CAD3DAD4EAD5FADAB9769857A858B855B
:104C50009C850F946A0E69877A878B879C87E39679
:104C60002CAD3DAD4EAD5FADE3976D857E858F85F7
:104C700098890F946A0E6D877E878F87988B8091B5
:104C80002402882321F0CE0101960E94AA83E12C00
:104C90008E01005E1F4F9E01235F3F4FAE01475FB5
:104CA0005F4FBE016B5F7F4FCE0101960E94FC7982
:104CB0005FEF251A350AC8CEE12C8E01005E1F4F2A
:104CC0002EE43CE04AE45CE066E47CE082E49CE0C4
:104CD0000E94FC790E9443D90E944DD90C94593509
:104CE000EFEEF5E384918F010F5F1F4F882321F0D2
:104CF0000E9458D9F801F6CFE9E4F2E084918F01DF
:104D00000F5F1F4F882311F40C9459350E9458D916
:104D1000F801F4CF80E50E9442D8882329F00E9450
:104D2000A0D76B017C0103C0C12CD12C760183E597
:104D30000E9442D8882361F00E94E0D720E030E052
:104D40004AE754E40F94520A0F94B30F6B017C01AD
:104D50000E9435F280914702811105C060E08FE525
:104D600092E00E94C7B5C701B6010E94685D0C942D
:104D700059350E941ABE81110C94593580E090E09B
:104D8000A0EFB1EC89839A83AB83BC8380E090E091
:104D9000A0E2B1E48D839E83AF83B88780E090E08A
:104DA000A0EAB1E489879A87AB87BC8780E50E9437
:104DB00042D8882319F00E94B0D701C060E068A3F0
:104DC000BE016F5F7F4FCE0180960E945EF40C940F
:104DD00059351092B0030C94593581E08093B0039B
:104DE0000C9459350E94E0D72B013C01F70120813A
:104DF0003181428153810F94690E4B015C012DEB8F
:104E000037E346E855EB0F94901087FD18C02DEB63
:104E100037E346E855E3C501B4010F94ED091816D0
:104E200074F01F5FB4E0EB0EF11C1430A9F0D10157
:104E30008D911D010E9442D8882399F3D3CF13305E
:104E400019F0DD24D39401C001E0D7014D925D92A9
:104E50006D927C921397E5CFDD2019F00E9496D7D2
:104E600003C001110E94DCBD0E943E5A0C945935CA
:104E700080913110909132108337910511F40C9488
:104E80007D2F0CF0E1C08A32910509F4FAC40CF0D0
:104E90006EC08631910509F4D9C2CCF585309105F3
:104EA00009F470C25CF48330910509F463C20CF01C
:104EB00065C2029708F4DAC10C9459358231910524
:104EC00009F445C7C4F4419711F00C94593560E0DA
:104ED00086EC92E00E94C7B55F988A989FB7F894D5
:104EE000809108018E7F809308019FBF1298479898
:104EF00010980C9459358431910509F465C2459791
:104F000011F00C9459350E9481BC0C9459358B31A9
:104F1000910509F4EDC27CF48831910509F4B2C21F
:104F20000CF49AC28931910509F4C6C24A9709F472
:104F3000D1C20C9459358E31910509F415C374F41E
:104F40004C9711F00C94593540E060E080912F109F
:104F5000909130100E9423C00C9459358F319105E7
:104F600009F463C4809709F416C40C9459358C3540
:104F7000910509F43AC784F58135910509F4C6C64F
:104F8000DCF48C34910509F4BDC44CF48B349105E8
:104F900011F00C9459350E9480BD0C9459358D3414
:104FA000910509F4B3C48E34910511F00C94593570
:104FB0000E94205B0C9459358335910509F4C3C6D2
:104FC0000CF4BEC68435910509F4C1C6853591053A
:104FD00009F4F2C60C9459358C36910509F45EC576
:104FE000ACF48936910509F47EC534F48836910510
:104FF00009F490C40C9459358A36910509F4DAC540
:105000008B36910509F4F9C50C9459358F36910505
:1050100009F4D3C454F48D36910509F49EC58E3637
:10502000910509F4B7C40C9459358037910509F4FA
:1050300039C58237910511F00C9459350E9435F22B
:105040000E943E5A0C9459358C3D910511F40C94F4
:1050500024330CF083C0833A910511F40C948E3004
:105060000CF03DC08937910509F4DCC71CF5863783
:10507000910509F495C774F48537910511F00C94E6
:10508000593560E080912F10909130100E94E7B563
:105090000C9459358737910509F4C1C788379105B4
:1050A00011F00C94593581E08093C8118093C71199
:1050B0000C9459358C38910509F4FCC434F48D37BF
:1050C000910509F4AAC50C9459358139910509F463
:1050D000AEC78B39910509F41BC50C945935893C31
:1050E000910511F40C947331C4F4893A910511F4CB
:1050F0000C94DE303CF4843A910511F40C94C030E9
:105100000C9459358E3B910509F43BC5883C9105BB
:1051100011F40C9427310C9459358C3C910511F401
:105120000C94A8316CF48B3C910511F00C9459351A
:1051300042E9E42E42E0F42E0EE111E10C949931A3
:105140008D3C910511F40C941232833D910511F0C0
:105150000C945935E0E5FEE30C94A8328A39E1E07D
:105160009E0709F4A3C4CCF58D3221E0920711F417
:105170000C94D133D4F4823E910511F40C94743321
:105180003CF48D3D910511F40C9431330C94593558
:10519000823241E0940711F40C949D338C3291409B
:1051A00011F40C94A8330C9459358F32A1E09A076E
:1051B00011F40C94C43414F40C9470348336E1E08C
:1051C0009E0711F40C94D9348039914011F00C945D
:1051D00059350E9435F20C945935863F21E09207EB
:1051E00011F40C94CA3404F5843C41E0940709F4AA
:1051F000D4C05CF4833C914011F00C94593510926A
:105200002C0C10922B0C0C945935843FB1E09B0769
:1052100011F40C94C734853F914011F00C9459352A
:105220000E9455A40C9459358A39F2E09F0711F475
:105230000C947D327CF4873F31E0930711F40C9499
:10524000CD348835924011F00C9459350E94F653B4
:105250000C945935803A53E0950709F4D9C2873E3A
:10526000934011F40C94F2340C945935A0902F1003
:10527000B090301080E50E9442D8882359F00E94F7
:10528000A0D76B017C0111E0672B682B692B31F4EF
:1052900010E004C010E0C12CD12C760183E50E94FF
:1052A00042D88823F1F00E94E0D720E030E04AE7BE
:1052B00054E40F94520A0F94B30F6B017C01111147
:1052C00012C0672B682B692B71F4A114B10459F03B
:1052D000F5018081882339F061E0C5010E94E7B5BE
:1052E00007C0112391F360E087EA92E00E94C7B5FE
:1052F00081E08093E60B0E9435F20E944DD9C114E3
:10530000D104E104F104E1F08091BD109091BE1050
:10531000A091BF10B091C010C80ED91EEA1EFB1E8E
:105320000E9479B0DC01CB018C199D09AE09BF093F
:10533000B7FF1CC08091E60B81110C94613516C03B
:105340008091E60B882321F080E00E94CCC9F8CF41
:105350008091E7119091E81160E0029719F483E9D8
:1053600092E002C081E792E00E94C7B51092E60B7E
:105370000C9459350E9490830C9459350E94908367
:105380000C9459350E9435F22C9868EE73E080E059
:1053900090E00E94685D0C94593583E50E9442D8E4
:1053A000811103C01092410207C00E94C0D7882318
:1053B000C9F381E08093410281E090E090932C0C4E
:1053C00080932B0C0C945935EAEEF2E084918F0116
:1053D0000F5F1F4F882321F00E9458D9F801F6CFA4
:1053E0001092C2141092C11483E492E10E9426C468
:1053F0008BE1E3E4F2E1DE01159601900D928A95CE
:10540000E1F780914112909142129C838B8380EF4F
:1054100092E09A83898340E050E0BE016F5F7F4F46
:1054200084E493E00E9460B9CE0101960E945A85FF
:10543000EBEDF2E084918F010F5F1F4F882311F491
:105440000C9459350E9458D9F801F4CF10921212D9
:10545000109213120C945935E0912F10F0913010E6
:105460008081882329F0803209F410823196F8CFA8
:1054700040E061E080912F10909130100E9423C095
:105480000C94593519821A821B821C8218A219A207
:105490001AA21BA28091520C882341F040E0BE0169
:1054A0006F5F7F4FCE0180960E9482820E944EB92C
:1054B0000E9480BD0C945935109212120E94B8BE01
:1054C0008BEF92E090935E1180935D110E9437D72D
:1054D0000C94593580911312882311F40C9459358A
:1054E00083E50E9442D881110C9466350C9459359D
:1054F00080911312882351F1E0E0F3E084918F0151
:105500000F5F1F4F882321F00E9458D9F801F6CF72
:105510006091B8147091B9148091BA149091BB1431
:105520004AE00E945FD98FE20E9458D96091B4147A
:105530007091B5148091B6149091B7144AE00E940E
:105540005FD98AE00E9458D90C945935E2E1F3E022
:1055500084918F010F5F1F4F882311F40C945935EC
:105560000E9458D9F801F4CF80911312882311F4C6
:105570000C94593587E094E10E948CE887E094E12F
:105580000E94C9C21092111210921012809113122F
:10559000882311F40C945935E0902F10F0903010BE
:1055A0001092121280910A14882321F087E094E16E
:1055B0000E94C9C21D8218861C821B8280EF92E065
:1055C0009A8389838FE392E190935F1280935E12B6
:1055D000D7018C918F3209F067C06FE270E0C7018C
:1055E0000F94B0118C010F5F1F4FFE0131965F01C8
:1055F0000115110509F45EC06FE270E0C8010F9457
:10560000B0116C01009709F456C00817190708F08B
:1056100052C04C01801A910AA401B801CE018096B3
:105620000F94D911E0E2F0E0EC0FFD1FE80DF91D39
:1056300010828E01005E1F4FD8018D918D0188234D
:1056400019F00E9458D9F8CF8AE00E9458D9609189
:105650005E1270915F126115710511F06C5F7F4FE2
:1056600021E0AE01405E5F4FCE0105960E945EC80C
:10567000811112C0BE01605E7F4F89E493E00E94F9
:10568000AB4B8EE20E9458D98AE00E9458D9C501DE
:105690000E945A850C945935B0925F12A0925E1206
:1056A00086010F5F1F4FA4CF80E692E190935F12B7
:1056B00080935E12870160915E1270915F12611596
:1056C000710511F06C5F7F4F18A21BA222E0A801A8
:1056D000CE0180960E945EC8811102C0F12C14C0D8
:1056E000CE0180960E94BCB88823C1F361E0CE0150
:1056F00080960E94D2C2009789F325EEFC01208398
:105700001BA20E943BE6F82ECE0180960E942AD969
:10571000FF2019F1E3E2F3E084917F012FEFE21A19
:10572000F20A882321F00E9458D9F701F5CFD80159
:105730008D918D01882319F00E9458D9F8CF8AE005
:105740000E9458D91092B8141092B9141092BA1439
:105750001092BB140E94D3BB18C0E1E3F3E0849124
:105760007F01BFEFEB1AFB0A882321F00E9458D972
:10577000F701F5CFF80181918F01882319F00E947C
:1057800058D9F8CF8EE20E9458D9CE0101960E94D6
:105790005A850C9459358091121281110E9435F26C
:1057A00080911312882311F40C94593580E50E94DE
:1057B00042D8882319F00E94D1D703C080E50E9407
:1057C00013D8182F482F61E080912F10909130103E
:1057D0000E9423C083E50E9442D8882381F00E9462
:1057E000B0D7AB01BC014093B8145093B914609387
:1057F000BA147093BB1487E094E10E94BEE80E9443
:105800004EB911110C9459350E9480BD0C94593534
:1058100080912F109091301021E02093111240E0E0
:1058200060E00E9423C00C94593587EE91E10E94FC
:10583000C0F168A379A38AA39BA3BE016F5F7F4FCA
:10584000CE0180960E944ED860E0CE0101960E9463
:10585000E7B5E0E5FEE384918F010F5F1F4F8823DA
:1058600021F00E9458D9F801F6CFBE016F5F7F4F3B
:105870008DE593E00E94AB4B8AE00E9458D90C94CE
:10588000593583E50E9442D8882311F40C94593588
:105890000E94C0D7E82E80E50E9442D8882341F0BC
:1058A0000E94B0D78B0177FF02C00C94593502C01B
:1058B0000DE010E0202FE1EAF6E08FEC96E0349165
:1058C000231731F031968E179F07C9F70C9477355F
:1058D000EFEEF5E384918F010F5F1F4F882321F0D6
:1058E0000E9458D9F801F6CFEAE6F3E084918F01DF
:1058F0000F5F1F4F882311F40C9459350E9458D91B
:10590000F801F4CF0E94B8BE0C9459350E941CEBEC
:105910000C9459351092300C8091A50C83FF02C075
:105920000C94593583E50E9442D8882379F10E946E
:10593000E0D70F94AE0F70930F1560930E1580E0B3
:105940000E9419810E94E0D72091B90C3091BA0CC5
:105950004091BB0C5091BC0C0F9490101816B4F4ED
:1059600088E093E09F938F938091300C90E00196B4
:105970009F938F9389E793E09F938F931F920E9449
:10598000EEEA0FB6F894DEBF0FBECDBF0E94364CD4
:105990000C9459358EE40E9442D8882311F40C945B
:1059A00059350E94B0D760930D0F70930E0F8093FE
:1059B0000F0F9093100F0C94593583E50E9413D864
:1059C000882359F083E50E9442D8882319F00E9469
:1059D000C0D701C080E08093A50CE0E5FEE3849190
:1059E0008F010F5F1F4F882321F00E9458D9F801C3
:1059F000F6CFEEE8F3E084918F010F5F1F4F88230D
:105A000021F00E9458D9F801F6CF8091A50C882387
:105A1000A1F190E8C92E93E0D92EE12CF12C20E0E1
:105A20008091A50C90E00E2C02C0959587950A9464
:105A3000E2F780FF17C0BB24B394B20E222319F003
:105A40008CE20E9458D9F60185919491FC018491D1
:105A50008F010F5F1F4F882321F00E9458D9F80152
:105A6000F6CF2B2D3FEFE31AF30A42E0C40ED11C10
:105A700055E0E516F104A1F60CC0EAE8F3E08491E4
:105A80008F010F5F1F4F882321F00E9458D9F80122
:105A9000F6CF8AE00E9458D90C94593510928B02A7
:105AA0000C94593585E993E00E945FC90E943855EE
:105AB0000C9459358091A50C83FF01C0FAC783E58A
:105AC0000E9442D8882309F4F4C70E94E0D70F94BB
:105AD000AE0F6338710514F062E870E0709313152F
