:100000000C94331F0C94641F0C94641F0C94641F95
:100010000C94641F0C94641F0C94641F0C94641F54
:100020000C94641F0C94641F0C94641F0C94641F44
:100030000C94641F0C9447AD0C94641F0C94641FC3
:100040000C94641F0D94E7090C94641F0C94641FB6
:100050000C94641F0C94641F0C94768E0C94FDAC6D
:100060000C94641F0C94D53B0C94CB3B0C94641FF4
:100070000C94641F0C94641F0C94641F0C94641FF4
:100080000C94641F0C94641F0C94641F0C94641FE4
:100090000C94641F0C94641F0C94641F0C94641FD4
:1000A0000C94641F0C94641F0C94641F0C94641FC4
:1000B0000C94641F0C94641F0C94641F0C94641FB4
:1000C0000C94641F0C94641F0C94641F0C94641FA4
:1000D0000C94641F0C94641F0C94641F0C94641F94
:1000E0000C94641F47394C3951395B396539DE3915
:1000F0006F3977397F39893993399D39AC39B639B8
:10010000DE39C039CA39D4390D3F2B3D643D493FF2
:10011000643D643D643D643D643D643D643D643DD7
:10012000643D643D643D643D643D643D643D643DC7
:10013000643D643D643D643D643D643D643D643DB7
:10014000643D643D433F643D643D643D643D643DC6
:10015000643D643D643D1C3F643D643D643D643DDD
:10016000643D643D643D643D643D643D603F613D8C
:1001700015DE22DE37DE44DE61DE76DE83DE94DEEF
:10018000A5DEBEDED7DEF0DE09DF26DF43DF0101BC
:100190009301F30021029F011102EB01710267013B
:1001A0007901AF0275024302E90081011D012502B8
:1001B000E7012D013B0149027B02E90103013701FF
:1001C0002701E7019B02F901A9020C94F0450C9468
:1001D0002E960D94BD250C9445960C9458660C945F
:1001E00089390C9449580D945B1D0C9420440C944F
:1001F0008BFA0C94BB3C0C941E710C940F4C0C9419
:1002000042570D94751D0D94D9250C94745C0C9473
:100210001AD60C944C390C94915F0C94A3480C940E
:10022000945F0C940DFF0C940A710C9401EA0C94E9
:1002300015490C9420D60C94F0DE0D94B0250C9446
:1002400015660C940BFF0C94E8FE0C94B03F0D94D3
:10025000E1250C9477390C94CA530D94C1250C9464
:10026000EB480C946B560C94FD480C94DB430D94B6
:10027000DD250C949E730D94C5250C941EAC0C9436
:100280005B390C94BD590C9461DE0C94EED70C9440
:10029000316E0C943E5B0C94E4660C947F560C9487
:1002A00043DF0C9417DA0C94B6390C9436430C9453
:1002B00009FF0C944F430C94D73F0C9426DF0C9409
:1002C000F2470C94CA390C94865C0C94A5550D9495
:1002D000671D0C9417660C947A560C9428430C9462
:1002E00001720C940D3F0C94CCA30C94F65C0D940D
:1002F000A9410D94821D0C941B490C949C430C94B1
:1003000098A10D94AC250C94975F0C9476DE0C9418
:1003100018FD0C94BEDE0C9488550C9447390C944F
:1003200082480C94C0390D94551D0C949D5F0C941B
:100330001C480C94433F0C9408460C94776C0D9425
:100340005E1D0C946F390C94EE430C946A550C941A
:1003500044DE0C94613D0C9439400C941CD60C94F2
:10036000D4660C94BA690C94FD470C9465390C94CE
:1003700049570C94C25C0C94A5DE0C94CB660C948B
:10038000C85C0C94EE6E0C9498670C9494DE0C94FC
:1003900007440C941C3C0C9402FC0C9404630C94D5
:1003A00083DE0C94F7480C9452AC0C94BA470C942E
:1003B00070560C94493F0C940E710C94CDE00C9443
:1003C00009490C9461560C94ED5C0C9498730D944F
:1003D000F4250D94D3250D94641D0C94A0AC0C94BD
:1003E00076550C9406710C94AC390C949CA10C9429
:1003F00056560D94EB250C94C9470C9409DF0C94C8
:10040000B1550C9447550C9478550C94A0A10C94BC
:10041000B2480C949D390C94643D0C94F1480C94B2
:10042000B05C0D94611D0C9479730C94F6700C946F
:100430000F490C941A710C94FA700C94C1480C94E6
:1004400081430D94581D0C94B83C0D94B4250C9424
:10045000AB550C944A6E0C9491FA0C9475560C940E
:10046000985C0C9451390C94AF430C94B9FF0C94E4
:1004700037DE0C945C960C94CE5C0C94EA470C949A
:100480001ED60C94A94B0D94BA250C94DE390C940D
:10049000F9450D94CB250C9452680C94005D0C9496
:1004A000C2430C9403490C949A5F0C942B3D0C941A
:1004B00002710C94D4390C94E89B0C9450560C9413
:1004C000A45C0C94D8E90C94B7550C94DAD90C942C
:1004D0001C3F0C94603F0C9493390C94B1A10C9484
:1004E00085730D94701D0C9416710D946D1D0C94F4
:1004F0001E6E0C9468430D94CF250C9422DE0C9450
:10050000D0480C9466560C94B73C0C946B550C94E4
:100510007F390C9415DE0C94BD550C9422D60C94A6
:10052000D7DE0C94BC5C0C9477660C94DC660C945F
:10053000175D0D94C7410D94E7250C94A4730C949A
:1005400037610C9474550C9414BA0C9412710C9479
:100550000F5E0D94EF250C9421490C94DC480D940A
:100560006A1D0C94FE700C941F3C0C9417960C940E
:1005700007FF0C945C560C94CAAC0C94B84B4E41DB
:100580004E494E495459494E46CDCCCC3D0AD7230D
:100590003C17B7D13877CC2B329595E6241FB14F55
:1005A0000A000020410000C84200401C4620BCBE9A
:1005B0004CCA1B0E5AAEC59D7400407A10F35A0007
:1005C000A0724E18090010A5D4E80000E87648177C
:1005D0000000E40B54020000CA9A3B000000E1F561
:1005E00005000080969800000040420F000000A027
:1005F0008601000000102700000000E80300000052
:10060000006400000000000A00000000000100007B
:100610000000002C76D888DC674F0823DFC1DFAEEE
:1006200059E1B1B796E5E3E453C63AE651997696B7
:10063000E8E6C28426EB898C9B62ED407C6FFCEF80
:10064000BC9C9F40F2BAA56FA5F490055A2AF75CAE
:10065000936B6CF9676DC11BFCE0E40D47FEF52060
:10066000E6B500D0ED902E03009435770500808428
:100670001E080000204E0A000000C80C333333333C
:100680000F986E12831141EF8D2114893BE65516A8
:10069000CFFEE6DB18D1844B381BF77C1D901DA4E0
:1006A000BBE424203284725E228100C9F124ECA1D3
:1006B000E53D27434F4D4D554E49434154494F4E1B
:1006C0000044525952554E004552524F5253004920
:1006D0004E464F004543484F005265706F732E2EB3
:1006E0002E004D65736820706F696E74206F75748D
:1006F000206F662072616E67650A00417474656ED2
:100700007465207574696C69732E004D6F7465751E
:10071000727320626C6F7175C3A97300456E64209B
:1007200066696C65206C6973740A00426567696E5E
:100730002066696C65206C6973740A004E6F206DC9
:10074000656469610A00286E6F2066696C6529001E
:1007500043757272656E742066696C653A20005349
:1007600044207072696E74696E67206279746520C6
:10077000004E6F74205344207072696E74696E6706
:100780000A00256979202569642025696820256982
:100790006D20256973005072696E742074696D65EF
:1007A0003A2000526566726F6964697373656D659E
:1007B0006E740045202553006F666600444542551F
:1007C000473A004D3131322053687574646F776E4B
:1007D000004D3131332053005A394D33204F4646B6
:1007E0002E004348414D4245525F54454D504552BD
:1007F0004154555245004241425953544550504985
:100800004E470041524353004D4F54494F4E5F4DA8
:100810004F44455300544845524D414C5F50524F50
:1008200054454354494F4E004C4F4E475F46494C48
:10083000454E414D45004155544F5245504F52543D
:100840005F53445F53544154555300534443415202
:10085000440050524F4D50545F535550504F5254D6
:1008600000454D455247454E43595F50415253450F
:100870005200434153455F4C494748545F425249F7
:100880004748544E45535300544F47474C455F4CDF
:10089000494748545300534F4654574152455F50BF
:1008A0004F574552004255494C445F5045524345CD
:1008B0004E54004C4556454C494E475F44415441C7
:1008C000005A5F50524F42450052554E4F5554000A
:1008D0004155544F4C4556454C005052494E545F7B
:1008E0004A4F420050524F475245535300415554CE
:1008F0004F5245504F52545F54454D5000564F4C47
:10090000554D45545249430042494E4152595F4664
:10091000494C455F5452414E53464552005345524F
:1009200049414C5F584F4E5F584F4646004649522A
:100930004D574152455F4E414D453A4D61726C698C
:100940006E206D61726C696E2D322E302E3820282B
:100950004E6F7620313920323032302031323A3504
:10096000353A30362920534F555243455F434F4463
:10097000455F55524C3A68747470733A2F2F67690B
:10098000746875622E636F6D2F4D61726C696E466F
:1009900069726D776172652F4D61726C696E20505E
:1009A000524F544F434F4C5F56455253494F4E3A66
:1009B000312E30204D414348494E455F54595045F2
:1009C0003A5A394D332045585452554445525F43A5
:1009D0004F554E543A3120555549443A6365646544
:1009E000326132662D343161322D343734382D394D
:1009F0006231322D6335356336326633363766669B
:100A00000A002F2F20004D31343520533C696E648D
:100A100065783E206F7574206F662072616E676521
:100A20002028302D31290A00416363656C657261AD
:100A300074696F6E00416363656C65726174696FA0
:100A40006E3A20500046523A0020466C6F773A20AA
:100A50000020643A0020693A0020703A00496E761E
:100A6000616C69642065787472756465720A004609
:100A7000696C616D656E742072756E6F757420643B
:100A8000697374616E636520286D6D293A20004694
:100A9000696C616D656E742072756E6F757420007F
:100AA0004D34323120696E636F72726563742070E9
:100AB0006172616D657465722075736167650A00A6
:100AC00044C3A963616C61676573206170706C6970
:100AD0007175C3A973004572723A20546F6F206616
:100AE00061722100546F6F206661722066726F6DB3
:100AF000207265666572656E636520706F696E74DD
:100B00000A00454550524F4D204F4B0A00506F7719
:100B100065722D6C6F7373207265636F7665727981
:100B20002000446F6E65207072696E74696E672074
:100B300066696C650A004D3737004D333100D406C5
:100B4000CF06C806C106B3064572726F722077726F
:100B50006974696E6720746F20454550524F4D216E
:100B60000A004D323930004D343130004D313132D0
:100B7000004D3130380053544F5050C389005072EB
:100B8000696E7465722073746F707065642064752B
:100B90006520746F206572726F72732E20466978BB
:100BA00020746865206572726F7220616E642075B2
:100BB0007365204D39393920746F20726573746103
:100BC00072742E202854656D70657261747572653B
:100BD0002069732072657365742E205365742069D3
:100BE00074206166746572207265737461727469D1
:100BF0006E67290A004E6F20436865636B73756DDD
:100C00002077697468206C696E65206E756D626509
:100C1000722C204C617374204C696E653A2000631D
:100C20006865636B73756D206D69736D617463685E
:100C30002C204C617374204C696E653A20004C691D
:100C40006E65204E756D626572206973206E6F74DB
:100C5000204C617374204C696E65204E756D626521
:100C6000722B312C204C617374204C696E653A20D4
:100C7000004D31313000534420726561642065724B
:100C8000726F720A002121204B494C4C2063617520
:100C9000736564206279204B494C4C2062757474F2
:100CA0006F6E2F70696E0A002121204B494C4C2039
:100CB00063617573656420627920746F6F206D7550
:100CC000636820696E6163746976652074696D6517
:100CD000202D2063757272656E7420636F6D6D6177
:100CE0006E643A2000627573793A2070617573659D
:100CF0006420666F7220696E7075740A0062757385
:100D0000793A2070617573656420666F722075731F
:100D100065720A00627573793A2070726F63657349
:100D200073696E670A004DC3A964696120726574B6
:100D30006972C3A9004DC3A964696120696E73C358
:100D4000A972C3A9004D3130303053004D363030D8
:100D500020543137004572723A2075746638206627
:100D60006F6E74206E6F7420696E697469616C694E
:100D70007A65642E00000C0F00FE07022503BB01FC
:100D8000FFFE0AFE08FE05080806000040F0C888BD
:100D900088987810050808060000C0F888888888B8
:100DA00088F80505050600012030F8302005080800
:100DB0000600002070F820202020E0050909060028
:100DC000FF2070A8A8B888887020070505070001D3
:100DD000D86C366CD80509090600FFF8A888888801
:100DE0008888A8F8050A0A0600FE2050505050884E
:100DF000A8A8887003030306000340A040FFFFFF7C
:100E0000FFFFFFFFFFFFFFFFFFFFFFFFFFFFFFFFF2
:100E1000FFFFFF0000000605FF0107070602008034
:100E2000808080800080030303060105A0A0A00548
:100E3000060606000050F85050F850050909060053
:100E4000FF2070A8A07028A87020050707060000E2
:100E5000C8C8102040989805070706000040A0A0C9
:100E600040A89068010303060205808080030909F9
:100E70000601FF2040408080804040200309090691
:100E800001FF8040402020204040800507070600E9
:100E90000020A8702070A82005050506000120206C
:100EA000F820200203030601FFC04080050101066F
:100EB0000003F8020202060100C0C0050707060091
:100EC00000081010204040800507070600007088C9
:100ED00098A8C8887003070706010040C04040403A
:100EE00040E0050707060000708808102040F8055C
:100EF0000707060000F80810300888700507070685
:100F0000000010305090F81010050707060000F898
:100F100080F008088870050707060000304080F060
:100F2000888870050707060000F8081010202020A8
:100F30000507070600007088887088887005070715
:100F40000600007088887808106002050506010018
:100F5000C0C000C0C00206060601FFC0C000C040FD
:100F6000800305050601012040804020050303069B
:100F70000002F800F80305050601018040204080CA
:100F800005070706000070881020200020050707CD
:100F90000600007088B8A8B8807005070706000032
:100FA000708888F8888888050707060000F0484898
:100FB000704848F005070706000070888080808828
:100FC00070050707060000F04848484848F0050744
:100FD00007060000F88080F08080F805070706000B
:100FE00000F88080F0808080050707060000708888
:100FF0008080988870050707060000888888F88830
:101000008888030707060100E04040404040E005B3
:10101000070706000038101010109060050707063B
:1010200000008890A0C0A0908805070706000080F7
:101030008080808080F805070706000088D8A8888F
:101040008888880507070600008888C8A8988888C7
:1010500005070706000070888888888870050707DC
:10106000060000F08888F0808080050707060000F1
:1010700070888888A89068050707060000F08888AF
:10108000F0A0908805070706000070888070088827
:1010900070050707060000F8202020202020050703
:1010A000070600008888888888887005070706007A
:1010B0000088888888505020050707060000888827
:1010C0008888A8A850050707060000888850205087
:1010D0008888050707060000888850202020200502
:1010E0000707060000F80810204080F803090906E9
:1010F00001FFE080808080808080E0050707060097
:1011000000804040201010080309090601FFE0207C
:10111000202020202020E005030306000520508821
:101120000501010600FEF8030303060105804020C7
:101130000505050600007008788878050707060091
:10114000008080F0888888F0050505060000708022
:101150008088700507070600000808788888887866
:101160000505050600007088F08070050707060079
:1011700000304840E04040400507070600FE708808
:1011800088887808700507070600008080F0888846
:1011900088880307070601004000C0404040E00483
:1011A00009090601FE1000301010101090600507AC
:1011B0000706000080808890E090880307070601FA
:1011C00000C04040404040E0050505060000D0A8B2
:1011D000A8A8A8050505060000B0C88888880505E8
:1011E0000506000070888888700507070600FEF075
:1011F000888888F080800507070600FE7888888840
:10120000780808050505060000B0C880808005053F
:101210000506000078807008F0050707060000202A
:1012200020F82020201805050506000088888898E9
:101230006805050506000088888850200505050614
:1012400000008888A8A850050505060000885020E1
:1012500050880507070600FE8888885020408005D2
:101260000505060000F8102040F80309090601FFF3
:101270002040404080404040200109090602FF8094
:1012800080808080808080800309090601FF804083
:101290004040204040408005030306000248A890DB
:1012A000FFFFFFFFFFFFFFFFFFFFFFFFFFFFFFFF4E
:1012B000FFFFFFFFFFFFFFFFFFFFFFFFFFFFFFFF3E
:1012C000FF0000000605FF010707060200800080FE
:1012D000808080800507070600FF2070A8A0A87006
:1012E00020050707060000304840E04048B00505EB
:1012F00005060000A8508850A805070706000088CA
:1013000050F820F8202001070706020080808000A6
:101310008080800408080601007080609090601052
:10132000E0030101060107A0060707060000788414
:10133000B4A4B4847803050506010460A06000E04D
:101340000505050600002850A050280503030600E7
:1013500001F80808030101060103E006070706007B
:10136000007884B4A4A48478050101060007F80479
:101370000404060105609090600507070600002040
:1013800020F8202000F803050506010440A02040B5
:10139000E0030505060104C0204020C00303030646
:1013A00001052040800507070600FE88888898E828
:1013B000808005080806000078E8E8E86828282802
:1013C000020202060203C0C00302020601FE20C0A0
:1013D00003050506010440C04040E0030505060181
:1013E0000540A04000E0050505060000A05028507B
:1013F000A0050A0A06000040C048506050B050786E
:1014000010050A0A06000040C048506050A80810A5
:1014100038050A0A060000C0204830E050B0507875
:101420001005070706000020002020408870050AEC
:101430000A060000402000708888F8888888050A1D
:101440000A060000102000708888F8888888050A3D
:101450000A060000205000708888F8888888050AED
:101460000A06000068B000708888F8888888050936
:10147000090600005000708888F8888888050A0AE4
:10148000060000205020708888F8888888050707A3
:1014900006000078A0A0F0A0A0B80509090600FE8B
:1014A000708880808088701060050A0A06000040FD
:1014B0002000F88080F08080F8050A0A06000010FD
:1014C0002000F88080F08080F8050A0A06000020DD
:1014D0005000F88080F08080F8050909060000506F
:1014E00000F88080F08080F8030A0A06010080403E
:1014F00000E04040404040E0030A0A06010020406E
:1015000000E04040404040E0030A0A06010040A0DD
:1015100000E04040404040E0030909060100A0000F
:10152000E04040404040E0050707060000704848A2
:10153000E8484870050A0A06000068B0008888C8B4
:10154000A8988888050A0A0600004020007088884C
:1015500088888870050A0A060000102000708888B4
:1015600088888870050A0A06000020500070888864
:1015700088888870050A0A06000068B000708888AC
:1015800088888870050909060000500070888888DE
:1015900088887005050506000188502050880509D7
:1015A000090600FF087098A8A8A8C87080050A0A54
:1015B00006000040200088888888888870050A0A0C
:1015C00006000010200088888888888870050A0A2C
:1015D00006000020500088888888888870050909DE
:1015E000060000500088888888888870050A0A06E6
:1015F00000001020008888502020202004070706C3
:10160000010080E0909090E08005070706000070E0
:101610008890A09088B0050808060000402000705F
:1016200008788878050808060000102000700878FF
:10163000887805080806000020500070087888782F
:1016400005080806000068B000700878887805076B
:101650000706000050007008788878050808060022
:101660000020502070087888780505050600007075
:101670002870A0780507070600FE70888088701023
:10168000600508080600004020007088F0807005A2
:1016900008080600001020007088F0807005080817
:1016A0000600002050007088F080700507070600D3
:1016B0000050007088F08070030808060100804028
:1016C00000C0404040E0030808060100204000C080
:1016D000404040E003080806010040A000C0404030
:1016E00040E0030707060100A000C0404040E005BD
:1016F000090906000050205008788888887005087D
:101700000806000068B000B0C88888880508080688
:1017100000004020007088888870050808060000D6
:101720001020007088888870050808060000205086
:1017300000708888887005080806000068B000708E
:101740008888887005070706000050007088888820
:10175000700505050600012000F8002005050506B6
:1017600000007898A8C8F00508080600004020008E
:10177000888888887005080806000010200088887E
:10178000888870050808060000205000888888882E
:101790007005070706000050008888888870050AD1
:1017A0000A0600FE10200088888850204080050925
:1017B000090600FE8080F0888888F080800509098D
:1017C0000600FE500088888850204080436F696E74
:1017D0002073756976616E74005465726D696EC3AD
:1017E000A90053756976616E74004F726967696EFE
:1017F000652058595A2E2E2E0048617574657572F1
:10180000206C697373C3A965004E697665617520A4
:101810006475206C6974004732380A4732390043D6
:1018200061746368205A204F66667365740047329E
:1018300039204E004E6976656175206465732063BA
:101840006F696E7300562E72C3A9742E2072657074
:10185000726973650052C3A9742E726570726973E0
:1018600065206D6D0053617574205A206D6D0056B2
:1018700069742E2072C3A97472616374C2B000527D
:10188000C3A974726163746174696F6E206D6D00B9
:1018900052C3A97472616374696F6E206175746F4D
:1018A000004261627973746570205A005669742E23
:1018B000202076656E74696C2E2020004275736559
:1018C000004D656E75207072696E636970616C00A1
:1018D000466C757800566974657373650025687584
:1018E0003A253032687500256875642025303268E5
:1018F000753A2530326875002020202020202000F5
:101900001FE0201020102010102010202010201088
:1019100030300840048003001FE03FF03FF03FF00C
:101920001FE01FE03FF03FF03FF00FC007800300D3
:101930003FFFF038007030FC3020FC102078102081
:1019400030102C00D02E31D02F7BD02F7BD02E31D9
:10195000D02C00D020301020781020FC1030FC302B
:101960003800703FFFF03FFFF038007031863023C1
:1019700087102787902F87D02F03D0203010207812
:10198000102078102030102F03D02F87D027879079
:101990002387103186303800703FFFF01FFFF81F9B
:1019A000FFF804104002082002082004104008201C
:1019B0008010410010410008208004104000000009
:1019C0001FFFF81FFFF83300CC00CC12004800487E
:1019D0001200480048120048004813FFCFFFC8100B
:1019E000000000081FFF83FFF8000FC7E000000F92
:1019F000EFE0000003EF80000001EF000000006C4A
:101A00000000000000000041637469766520562DD7
:101A1000746F6F6C004D6F7576656D656E74004DFB
:101A200038340052C3A9676C6572204E69762E2047
:101A30006C6974004F726967696E65206175746FB7
:101A40000054656D70C3A97261747572650041427E
:101A50005300504C4100417272C3AA746572206DEC
:101A60006F7465757273004F726967696E65205A8D
:101A7000206175746F004732385A004F7269676988
:101A80006E652059206175746F0047323859004FD8
:101A9000726967696E652058206175746F004732FE
:101AA000385800473238005072C3A963682E20248A
:101AB0002062757365005072C3A963682E202420CC
:101AC0006C697400526566726F6964697200507265
:101AD000C3A9636861756666616765202400546FF9
:101AE00074616C00521A4E1A4D6978657572003F28
:101AF00000416E6E756C657200496E766572736535
:101B0000722064C3A967726164C3A900202046697A
:101B10006E20562D746F6F6C0044C3A962757420DB
:101B2000562D746F6F6C00202046696E205A3A0063
:101B30002534642E2564206D6D0044C3A96275743C
:101B4000205A3A004379636C65206D6978005661CC
:101B50006C69646572204D697820562D746F6F6CC6
:101B600000436F6D706F73616E7465203D00562D7C
:101B7000746F6F6C732072C3A9696E69742E206FC5
:101B80006B0052657365740052616E646F6D204D19
:101B90006978003A64697361626C65003A20656E29
:101BA00061626C650044C3A967726164C3A9005295
:101BB000C3A9696E69742E20562D746F6F6C730003
:101BC00052C3A96375702E20636F75702E00436F2A
:101BD0006E66696775726174696F6E0052657072C6
:101BE000656E64726520696D70722E0054495441AF
:101BF0004E204558545255444552004E6976656111
:101C0000752062696C696EC3A96169726500457867
:101C10007472756465757273007777772E7A6F6E5C
:101C2000657374617233642E636F6D005A394D337E
:101C300000323032302D31312D3039006D61726C0F
:101C4000696E2D322E302E380056352E332E32004E
:101C5000546865726D697374616E63657300496E73
:101C6000666F7320636172746500496E666F7320DE
:101C7000696D7072696D616E7465004D3130303020
:101C800000417272C3AA74657220696D70722E0071
:101C90005265746F75720053746F700050617320D9
:101CA0006465206DC3A96469610041637475616CEA
:101CB00069736572206DC3A9646961004D3231009A
:101CC000457465696E64726520616C696D2E004DA6
:101CD0003831004368616E6765722066696C616DBA
:101CE000656E740052C3A9676C65720050617573AC
:101CF0006520696D7072657373696F6E00537572DC
:101D00007665696C6C65720044C3A96D6172726519
:101D10007220696D7072657373696F6E00496D70C2
:101D200072696D65720043616E6E6F7420656E74CA
:101D30006572207375626469723A2000022E2E006B
:101D40004368617267657220636F6E6669672E0013
:101D5000456E72656769737472657220636F6E6633
:101D600069672E0044C3A963616C616765205A00EE
:101D7000436F6E6669672E206176616E63C3A965E5
:101D800000417272C3AA74004D61726368650044B9
:101D900045434841524745522046494C004348413B
:101DA0004E4745522046494C414D454E54005265E0
:101DB000737461757265722064C3A966617574730A
:101DC0000052C3A9676C6572207072C3A963682E44
:101DD000202400436170746575722066696C2E0062
:101DE00052C3A974726163746174696F6E004D3679
:101DF000303020423020542569004D373031205496
:101E00002569004D373032205425690052657472BF
:101E10006169742066696C616D656E74202A005278
:101E200065746972657220746F7574004D37303255
:101E300000436861726765722066696C616D656EEA
:101E400074202A004368616E6765722066696C6160
:101E50006D656E74202A0050757267657220656E1C
:101E6000636F7265004F5054494F4E532052455096
:101E7000524953453A00494D50522E205041555336
:101E800045002020427573653A200050726F7465DA
:101E90006374696F6E20696E616374697665003181
:101EA0003330004245443A203130306B207769743A
:101EB0006820342E376B2070756C6C2D7570005057
:101EC000726F74656374696F6E206163746976659F
:101ED0000054656D70204D617800323735005465CF
:101EE0006D70204D696E0045313A203130306B20E5
:101EF0007769746820342E376B2070756C6C2D7583
:101F00007000416C696D2E0047656E6572696300F3
:101F100050726F746F636F6C6500312E30004261D8
:101F20007564730031313532303000687474707309
:101F30003A2F2F7777772E616C69657870726573A9
:101F4000732E636F6D2F6974656D2F33323936359B
:101F50003430363339362E68746D6C005A4F4E4526
:101F600053544152205A5249425F563600506172D2
:101F70006B696E672E2E2E000000417474656E74BE
:101F8000652066696C616D656E7400706F75722096
:101F900064C3A96D61727265720000417474656EEC
:101FA0007465007265747261697420647520666975
:101FB0006C616D656E7400004275736520656E20FE
:101FC000636861756666650050617469656E746505
:101FD00072205356502E2E2E00005072657373657A
:101FE00072206C6520626F75746F6E00706F757211
:101FF0002063686175666665722E2E2E0000496E3C
:1020000073C3A97265722066696C616D656E740038
:102010006574206170702E20626F75746F6E007031
:102020006F757220636F6E74696E7565722E2E2ED9
:1020300000417474656E7465006368617267656DF4
:10204000656E742066696C616D656E740000507217
:10205000657373657220626F75746F6E00706F7553
:10206000722072657072656E6472650000417474EE
:10207000656E7465207265707269736500696D7054
:1020800072657373696F6E0000417474656E746578
:102090000050757267652066696C616D656E7400CD
:1020A000004A65726B00436F6E6669672E20656E2D
:1020B00072656769737472C3A9650020627974657B
:1020C000733B20637263200053657474696E677399
:1020D0002053746F726564202800454550524F4D5F
:1020E000206461746173697A65206572726F722E03
:1020F0000A002073746F7265642073657474696E6E
:1021000067732072657472696576656420280020A3
:102110002863616C63756C6174656429210A002011
:10212000213D2000454550524F4D20435243206DE4
:1021300069736D61746368202D202873746F7265F4
:1021400064292000496E6465783A20004449474973
:10215000504F5453204C6F616465640A00444947F2
:1021600049504F5453204C6F6164696E670A0020D8
:102170004D61726C696E3D563832290A00454550F2
:10218000524F4D2076657273696F6E206D69736D65
:10219000617463682028454550524F4D3D00000052
:1021A000A0C0000020C10000000000009B43000010
:1021B0009B430000C8437C3C3E5E2B3D3F2F5B5D54
:1021C0003B2C2A225C004C69740020423A002043D8
:1021D0006F756E7420413A00453100626564002CD1
:1021E0002073797374656D2073746F7070656421EA
:1021F000204865617465725F49443A2000457272F7
:1022000020544845524D4951554500546865726DFA
:10221000616C2052756E617761790045727220643D
:102220006520636861756666650048656174696EFE
:1022300067206661696C656400202D20496E7661B7
:102240006C6964206578747275646572206E756D52
:1022500062657220210A004572722054454D502E4D
:10226000204D4158004D415854454D5020747269DD
:10227000676765726564004572722054454D502E43
:10228000204D494E004D494E54454D5020747269C1
:1022900067676572656400202F002042403A002085
:1022A000403A00001000AA038000400100012C0108
:1022B000B001220140021001F00202018003F80087
:1022C0004004F500E004ED009005E4003006DD0078
:1022D000E006D7008007D1003008CC00D008C70046
:1022E0007009C300100ABE00B00ABB00500BB70053
:1022F000900CB300D00DAA00B00FA5005010A000A4
:10230000101496009016900010198C00501A850039
:10231000301C820070227800B023750040256E00CA
:1023200020276900A0296400502A5F00902B5A00E2
:10233000D02C5500702D4F00E02E48005031450044
:1023400030334100D0353900603637001037330064
:10235000F0382D00A0392700803C1C00403D1700BC
:10236000F03D1100703E0A00C03E0500003F000035
:10237000403FFBFF803FF6FFC03FF1FF43616973C1
:10238000736F6E0052756E6F75742044697374209C
:102390006D6D0043686172676572206D6D005265F6
:1023A0007472616974206D6D004469616DC3A874B5
:1023B00072652066696C2E004520656E206D6DC2C9
:1023C000B300496D70722E20616E6E756CC3A96585
:1023D000004D323520500A4D3234004D697365206E
:1023E000656E2070617573652E2E2E006F70656EA0
:1023F00000545249474745524544007A5F70726F16
:102400006265007A5F6D696E00795F6D696E007854
:102410005F6D696E005265706F7274696E672065DA
:102420006E6473746F70207374617475730A000244
:10243000000000000000000000000000000000009C
:10244000000000000000000000000000000000008C
:10245000000000000000000000000000000000007C
:1024600007FFC3FF870187FF0FFCFFFC1E01FF80F2
:1024700007FFC3FF87018FFF1FFCFFFC1E03FFC088
:102480000000C600C7018C0018000300618300C073
:102490000001C600C7C18C0018000300618300C0A2
:1024A00000038600C6C18C0018000301806300C0D1
:1024B00000070600C6618C0018000301806300C09D
:1024C000000E0600C6618C0018000301806300C086
:1024D000001C0600C6318FFE1FF803018063FFC099
:1024E00000380600C6318FFE0FFC03018063FF80B9
:1024F00000700600C6198C00000C0301FFE30C00FD
:1025000000E00600C6198C00000C0301FFE3070081
:1025100001C00600C60D8C00000C03018063018021
:1025200003800600C60D8C00000C0301806301804F
:1025300007000600C6078C00000C030180630180C1
:1025400006000600C6078C00000C030180630180B2
:1025500007FFC3FF86038FFF1FFC03018063018019
:1025600007FFC3FF860387FF1FF803018063018015
:10257000000000000000000000000000000000005B
:10258000000000000000000000000000000000004B
:10259000000000000000000000000000000000003B
:1025A000000000000000000000000000000000002B
:1025B000F0004A0110013B0130012C0140012701CC
:1025C0005001220170011D0190011801B001130199
:1025D000C0010E01F0010901100204013002FF00E8
:1025E0006002FA009002F500C002F0000003EB0068
:1025F0004003E6008003E100D003DC002004D700A4
:10260000E004D200C005CD004006C800D006C300DB
:102610008007BE00F008B9004009B400C009AF004F
:10262000B00AAA00B00BA500D00CA000000E9B00C1
:10263000C01096005012910000148C00C015870045
:10264000B0178200B0197D00D01B7800001E730007
:1026500040206E0090226900F024640040275F0053
:1026600090295A00E02B5500102E500020304B00CE
:1026700010324600E033410090353C0010373700FF
:1026800070383200A0392D00B03A2800A03B23005A
:10269000603C1E00103D1900903D1400103E0F00DC
:1026A000703E0A00C03E0500003F0000403FFBFFB7
:1026B000803FF6FFC03FF1FF2020506C616E6E65D9
:1026C0007242756666657242797465733A200020BD
:1026D00046726565204D656D6F72793A2000436FD3
:1026E0006D70696C65643A204E6F76203139203206
:1026F0003032300A00204C6173742055706461746C
:1027000065643A20323032302D31312D3039207C21
:1027100020417574686F723A20285A4F4E455354C1
:1027200041522C2048616C6C79290A006D61726CF1
:10273000696E2D322E302E380A004D61726C696E32
:102740000020536F667477617265205265736574FB
:102750000A00205761746368646F6720526573656F
:10276000740A002042726F776E206F757420526574
:102770007365740A002045787465726E616C20522E
:10278000657365740A00506F77657255700A006151
:1027900075746F25632E67004732385859004D31E4
:1027A000303031006572726F722077726974696EB1
:1027B0006720746F2066696C650A00446F6E65203F
:1027C000736176696E672066696C652E0A004D320A
:1027D0003900427574C3A965730025532025632011
:1027E00025632025632025630020503A0020583AB5
:1027F00000656E6473746F7073206869743A2000AA
:102800004361703A003F5A206F7574206F662072E2
:10281000616E67652028003F59206F7574206F66D0
:102820002072616E676520282D003F58206F7574F7
:10283000206F662072616E676520282D0050726FD0
:102840006265204F6666736574205800656E717509
:10285000657565696E67202200526573656E643A1E
:102860002000526566726F69642E206475206C6961
:10287000742E2E2E004C697420656E20636861757D
:102880006666652E2E2E0023646566696E6520449B
:10289000454641554C545F004B6420004B69200075
:1028A0004B702000504944204175746F74756E65FB
:1028B0002066696E697368656421205075742074A0
:1028C0006865206C617374204B702C204B6920610B
:1028D0006E64204B6420636F6E7374616E7473203A
:1028E00066726F6D2062656C6F7720696E746F2001
:1028F000436F6E66696775726174696F6E2E680AE0
:1029000000504944204175746F74756E652066618E
:10291000696C6564212074696D656F75740A000ABD
:1029200020436C617373696320504944200A00207E
:102930004B643A2000204B693A2000204B703A202B
:10294000002054753A2000204B753A2000206D611C
:10295000783A2000206D696E3A200020643A200009
:1029600020626961733A2000504944204175746FB8
:1029700074756E652073746172740A005049442046
:102980004175746F74756E65206661696C6564214C
:102990002054656D706572617475726520746F6F17
:1029A00020686967680A00504944204175746F7453
:1029B000756E6500504944204175746F74756E657D
:1029C000206661696C6564212042616420657874C9
:1029D0007275646572206E756D6265720A00000022
:1029E000484200004842000080400202040000A06B
:1029F000400000A0400000004000809D430000A077
:102A0000430000C843FFFFFF5761726E696E673A6B
:102A100020486F6D696E672042756D70204469763D
:102A200069736F72203C20310A00206C696D6974F3
:102A3000656420746F2000204D6178200020746F41
:102A40006F206C6F6E6720657874727573696F6E36
:102A50002070726576656E7465640A004D3330339C
:102A600020553120452569205325690050494420CF
:102A70004175746F74756E65202A005049442D4469
:102A8000202A005049442D49202A005049442D5005
:102A9000202A00566D696E20636F7572736500564B
:102AA0006D696E00566D6178204500566D61782025
:102AB0005A00566D6178205900566D617820580093
:102AC000416D6178204500416D6178205A00416D6B
:102AD0006178205900416D61782058004163632E70
:102AE000636F75727365004163632E72C3A974725C
:102AF000616374696F6E00526564C3A96D6172721F
:102B000065722053565000494D50522E2053544F59
:102B10005050C389450025533A202553004B494C5A
:102B20004C4544005072696E7465722068616C7423
:102B300065642E206B696C6C28292063616C6C6560
:102B400064210A006563686F3A004572726F723AD9
:102B50000042696C696E656172204C6576656C69CE
:102B60006E6720477269643A0A002053697A653AB1
:102B7000200043616E6E6F74206F70656E207375F8
:102B8000626469722000534420496E697420466172
:102B9000696C0053442063617264206F6B0A006F9C
:102BA00070656E526F6F74206661696C65640A00AF
:102BB000766F6C756D652E696E6974206661696CDF
:102BC00065640A004E6F20534420636172640A00FA
:102BD0004D32332025730046696C652073656C6542
:102BE000637465640A0046696C65206F70656E6584
:102BF000643A2000454E4420535542524F555449A3
:102C00004E450A002220706F7300222070617265A9
:102C10006E743A2200535542524F5554494E452046
:102C200043414C4C207461726765743A22005375BD
:102C30006263616C6C204F766572666C6F770045DD
:102C400078636565646564206D61782053554252F0
:102C50004F5554494E452064657074683A310A00F6
:102C600044656C6574696F6E206661696C65642C7F
:102C70002046696C653A200046696C652064656C85
:102C8000657465643A006F70656E206661696C6595
:102C9000642C2046696C653A200057726974696E2D
:102CA0006720746F2066696C653A200066726573F0
:102CB0006800646F696E67004E6F772000252900F9
:102CC000257C00203B2043757272656E74205A008B
:102CD000203B20456E6400203B20537461727400D9
:102CE0004772616469656E74204D69782000526195
:102CF0006E646F6D204D697820004D32342053256D
:102D00006C642054256C64004739322E39204525E7
:102D10007300473120462564004739322E39205A46
:102D20002573004731205A30204632303000473179
:102D30002058257320592573204633303030004702
:102D400031204525642046323030004D3130362068
:102D500050256920532569004D31303920532569AC
:102D6000004D31393020532569004D323030204438
:102D700025730047323852305859004739322E39BE
:102D8000204530205A300A47315A2573004D3432DD
:102D900030205330205A300020496E76616C6964CF
:102DA000206578747275646572200020496E7661C2
:102DB0006C69642045207374657070657220002012
:102DC000452073746570706572206E6F7420737027
:102DD000656369666965640A005665206A65726B99
:102DE00000565A206A65726B005659206A65726BEC
:102DF000005658206A65726B0044C3A963616C6118
:102E0000676520590044C3A963616C6167652058F8
:102E10000045207061732F6D6D005A207061732F13
:102E20006D6D0059207061732F6D6D0058207061B9
:102E3000732F6D6D00496E69742E004D3432380069
:102E4000496E697469616C697365722045455052B9
:102E50004F4D0046696C616D656E74005061732F53
:102E60006D6D00506F736974696F6E20736F6E645F
:102E700065205A00416363C3A96CC3A97261746978
:102E80006F6E0056C3A96C6F636974C3A90052C307
:102E9000A9676C2E2064C3A963616C206F72696797
:102EA000696E6500507265737320627574746F6E1D
:102EB00020746F20726573756D650A0050726573BA
:102EC0007320627574746F6E20746F20686561740E
:102ED000206E6F7A7A6C650A004F46460A0046619A
:102EE0006465204865696768742000426564204C09
:102EF0006576656C696E6720004661696C65642063
:102F0000746F20656E61626C6520426564204C655B
:102F100076656C696E670A00496E76616C6964203B
:102F20006D6573682E0A0024F4D43050C38E20C21D
:102F3000A24017828B7011127A910D816CD90AA868
:102F400061E108C7586607615143061E4B5D05C124
:102F500045A7041A411104093D9803713931034012
:102F600036DB0265339102D4305402802E1D026399
:102F70002CEE01752AC501B028A001102781018F10
:102F80002564012B244B01E0223401AC211F018D6B
:102F9000200D01801FFC00841EED00971DDF00B88E
:102FA0001CD200E61BC600201BBC00641AB200B293
:102FB00019A8000A19A0006A189900D117910040B9
:102FC000178B00B516840031167E00B31579003AD0
:102FD000157300C7146F0058146A00EE136600885A
:102FE00013630025135E00C7125B006C12570015B7
:102FF000125400C111510070114F0021114B00D625
:103000001049008D1047004610440002104200C0D5
:103010000F4000800F3E00420F3C00060F3B00CBEC
:103020000E3800930E37005C0E3500270E3400F387
:103030000D3200C10D3100900D3000600D2E0032B8
:103040000D2D00050D2C00D90C2B00AE0C29008590
:103050000C29005C0C2700350C27000E0C2600E81C
:103060000B2400C40B2400A00B23007D0B23005A6B
:103070000B2100390B2100180B2000F80A1F00D982
:103080000A1E00BB0A1E009D0A1D00800A1D006367
:103090000A1C00470A1B002C0A1B00110A1A00F721
:1030A000091A00DD091900C4091900AB09190092B9
:1030B0000917007B091800630917004C0916003630
:1030C000091600200916000A091500F5081500E088
:1030D000081400CC081400B8081400A408140090C8
:1030E0000813007D0812006B0813005808120046F0
:1030F0000812003408110023081100120811000101
:10310000081100F0071000E0071000D0071000C001
:10311000071000B0070F00A107100091070E0083F1
:10312000070F0074070F0065070E0057070E0049D0
:10313000070E003B070D002E070E0020070D0013A1
:10314000070D0006070D00F9060C00ED060D00E066
:10315000060C00D4060C00C8060C00BC060C00B01F
:10316000060C00A4060B0099060C008D060B0082CD
:10317000060B0077060B006C060B0061060A005771
:10318000060B004C060A0042060A0038060A002E0A
:10319000060A0024060A001A060A0010060900079B
:1031A000060A00FD050900F4050900EB050900E227
:1031B000050900D9050900D0050900C7050900BEA9
:1031C000050900B5050800AD050800A50509009C26
:1031D000050800940508008C050800840508007C9B
:1031E000050800740508006C050700650508005D0A
:1031F000050700560508004E050700470507004073
:1032000005080038050700310507002A05070023D7
:103210000507001C050600160507000F0507000836
:1032200005060002050700FB040600F5040700EE92
:10323000040600E8040600E2040700DB040600D5EB
:10324000040600CF040600C9040600C3040600BD3E
:10325000040600B7040600B1040500AC040600A68D
:10326000040600A00405009B0406009504050090D8
:103270000406008A04050085040500800406007A1F
:1032800004050075040500700405006B0405006664
:10329000040500610405005C0405005704050052A4
:1032A0000405004D04050048040500430405003EE4
:1032B0000404003A04050035040500300404002C21
:1032C00004050027040400230405001E0404001A5A
:1032D00004040016040500110404000D0404000990
:1032E0000405000404040000040400FC030400F8C6
:1032F000030400F4030400F0030400EC030400E8FA
:10330000030400E4030400E0030400DC030400D829
:10331000030400D4030400D0030400CC030400C859
:10332000030300C503030024F404D9201BC40C5C70
:103330000E9804C4095F0265077101F405F900FBEA
:1033400004B30048048700C1036900580355000313
:10335000034500BE023A008402310053022A0029CC
:1033600002250004022000E4011C00C8011900AF7E
:10337000011700980114008401130071011000610D
:1033800001100051010E0043010D0036010B002B0E
:10339000010B0020010B00150109000C01090003BD
:1033A000010800FB000800F3000800EB000700E440
:1033B000000600DE000600D8000600D2000600CCA1
:1033C000000500C7000500C2000500BD000400B9EB
:1033D000000400B5000400B1000400AD000400A921
:1033E000000400A5000300A20003009F0004009B4E
:1033F0000003009800030095000200930003009072
:103400000003008D0002008B00030088000200868C
:1034100000020084000300810002007F0002007DA2
:103420000002007B000200790002007700010076B4
:103430000002007400020072000100710002006FBF
:103440000002006D0001006C0002006A00010069CA
:1034500000020067000100660001006500010064D1
:103460000002006200010061000100600001005FD5
:103470000002005D0001005C0001005B0001005AD9
:1034800000010059000100580001005700010056DA
:1034900000010055000100540001005300000053DA
:1034A0000001005200010051000100500001004FD6
:1034B0000001004E0000004E0001004D0001004CD4
:1034C0000001004B0000004B0001004A00010049D0
:1034D00000010048000000480001004700010046CC
:1034E00000000046000100450000004500010044C6
:1034F00000010043000000430001004200000042C0
:103500000001004100000041000100400001003FB7
:103510000000003F0001003E0000003E0001003DB1
:103520000000003D0001003C0000003C0000003CA9
:103530000001003B0000003B0001003A0000003A9F
:103540000001003900000039000100380000003897
:10355000000000380001003700000037000100368D
:103560000000003600000036000100350000003584
:103570000000003500010034000000340000003479
:10358000000100330000003300000033000100326E
:103590000000003200000032000100310000003164
:1035A0000000003100010030000000300000003059
:1035B0000001002F0000002F0000002F0000002F4E
:1035C0000001002E0000002E0000002E0001002D42
:1035D0000000002D0000002D0000002D0001002C37
:1035E0000000002C0000002C0000002C0001002B2B
:1035F0000000002B0000002B0000002B0001002A1F
:103600000000002A0000002A0000002A0001002912
:103610000000002900000029000000290000002906
:1036200000010028000000280000002800000028F9
:1036300000000028000100270000002700000027EC
:1036400000000027000000270001002600000026DF
:1036500000000026000000260000002600010025D2
:1036600000000025000000250000002500000025C6
:1036700000000025000100240000002400000024B8
:1036800000000024000000240001002300000023AB
:10369000000000230000002300000023000000239E
:1036A0000000002300010022000000220000002290
:1036B0000000002200000022000000220001002182
:1036C0000000002100000021000000210000002176
:1036D0000000002100000021000100200000002067
:1036E000000000200000002000000020000000205A
:1036F00000000020000000200001001F0000001F4B
:103700000000001F0000001F0000001F0000001F3D
:103710000000001F0001001E0000001E0000001E2F
:103720000000001E000000A42C0000841E0000B059
:10373000120000870A00009E050000E90200007BDD
:10374000010000BF0000004D657375726520706F49
:10375000696E740025532025692F25690050726F0A
:1037600062696E67206D65736820706F696E742082
:10377000004F6666736574206361746368656420D6
:1037800021006661696C2C206D616E75616C206C26
:103790006576656C004661696C21204D6F76652009
:1037A000646F776E2050726F62652E00546F2063D5
:1037B00061746368206F66667365740020284452E4
:1037C0005952554E2900473239204175746F2042B5
:1037D0006564204C6576656C696E67003F20284CF7
:1037E0002C522C462C4229206F7574206F66206263
:1037F0006F756E64732E0A003F2856296572626FDA
:103800007365206C6576656C20696D706C6175738D
:1038100069626C652028302D34292E0A00426164CB
:10382000205A2076616C75650A004E6F2062696CC3
:10383000696E65617220677269640A00204D3932D1
:1038400020580020204D61783A200020204D696EDC
:103850003A2000536F667420656E6473746F7073E2
:103860003A2000205A3A200020593A20004265644C
:1038700020583A2000496D70722E20656E207061CC
:103880007573650050726F62696E67204661696C7E
:1038900065640A00456368656320736F6E64650044
:1038A0004F726967696E65202573257325732050F3
:1038B00072656D69657200496E7365727420666920
:1038C0006C616D656E7420616E64207072657373D7
:1038D00020627574746F6E0A0020573A005A394D91
:1038E00033207072C3AA74652E00496D70726573BF
:1038F00073696F6E00220A00556E6B6E6F776E20D3
:10390000636F6D6D616E643A202200496D7072655F
:103910007373696F6E2053440044C3A9706C616374
:1039200065722025736D6D0044C3A9706C61636579
:103930007220302E316D6D0044C3A9706C616365D7
:103940007220316D6D0044C3A9706C616365722093
:1039500031306D6D0044C3A9706C61636572207570
:103960006E206178650045787472756465757200C3
:1039700044C3A9706C61636572205A0044C3A97086
:103980006C6163657220590044C3A9706C61636502
:103990007220580000000A0B02090C0D0E080703E4
:1039A0000401000000000000000000000000000012
:1039B0000000000000000000000000000000000007
:1039C00012111000000000000000000000000000C4
:1039D00000000000000000000000000022002500A0
:1039E00028002B002E0031003400020100000501E8
:1039F00008010B0100002100240027002A002D00EF
:103A00003000330001010000040107010A0105052F
:103A10000505070508080808020202020A0A080844
:103A20000404040401010101010101010303030372
:103A300003030303040707070C0C0C0C0C0C0C0C01
:103A40000202020206060606060606060B0B0B0B12
:103A50000B0B0B0B01021020200808102040102037
:103A60004080020102010804020101020408102042
:103A70004080804020100804020180040201804040
:103A800020100804020108040201010204081020A9
:103A90004080010204081020408020453A0020594F
:103AA0003A00205200454550524F4D20496E6974EE
:103AB00069616C697A65640A0048617264636F6465
:103AC00065642044656661756C742053657474691F
:103AD0006E6773204C6F616465640A003B200020B0
:103AE000204D363033200020204D34313220530019
:103AF00046696C616D656E742072756E6F757420A9
:103B000073656E736F723A0020550046696C616D83
:103B1000656E74206C6F61642F756E6C6F616420CC
:103B20006C656E677468733A0020204D383531201B
:103B300058005A2D50726F6265204F666673657427
:103B40000020204D3230392053004175746F2D52C2
:103B50006574726163743A20533D3020746F206441
:103B6000697361626C652C203120746F20696E74FA
:103B700065727072657420452D6F6E6C79206D6F63
:103B800076657320617320726574726163742F723D
:103B900065636F7665720020204D32303820530007
:103BA0005265636F7665723A20533C6C656E67743C
:103BB000683E20463C756E6974732F6D3E00205739
:103BC0000020204D323037205300526574726163FB
:103BD000743A20533C6C656E6774683E20463C75B1
:103BE0006E6974732F6D3E205A3C6C6966743E009A
:103BF00020204D343133205300506F7765722D4CA7
:103C00006F7373205265636F766572793A00202076
:103C10004D3330312050005049442073657474692D
:103C20006E67733A0020460020480020204D313452
:103C3000352053004D6174657269616C206865615F
:103C400074757020706172616D65746572733A008D
:103C5000204A002020473239205720490020204D9B
:103C60003432302053004175746F20426564204C1B
:103C70006576656C696E673A0020204D32303620DB
:103C80005800486F6D65206F66667365743A002052
:103C9000204D323035204200416476616E636564A8
:103CA0003A20423C6D696E5F7365676D656E745F47
:103CB00074696D655F75733E20533C6D696E5F6618
:103CC000656564726174653E20543C6D696E5F7415
:103CD000726176656C5F66656564726174653E20CD
:103CE000583C6D61785F785F6A65726B3E20593C25
:103CF0006D61785F795F6A65726B3E205A3C6D61D9
:103D0000785F7A5F6A65726B3E20453C6D61785FD3
:103D1000655F6A65726B3E0020540020204D323092
:103D200034205000416363656C65726174696F6E25
:103D30002028756E6974732F7332293A20503C70B5
:103D400072696E745F616363656C3E20523C72659C
:103D500074726163745F616363656C3E20543C748C
:103D6000726176656C5F616363656C3E0020204D17
:103D70003230312058004D6178696D756D20416396
:103D800063656C65726174696F6E2028756E697405
:103D9000732F7332293A0020204D323033205800DF
:103DA0004D6178696D756D206665656472617465D5
:103DB000732028756E6974732F73293A00537465E4
:103DC00070732070657220756E69743A002044002B
:103DD00020204D3230302053002044697361626CE2
:103DE00065640A0046696C616D656E742073657464
:103DF00074696E67733A0020204D313439204320B6
:103E00003B20556E69747320696E2043656C73693D
:103E100075730A0020286D6D29002020473231205B
:103E20002020203B20556E69747320696E206D6DD3
:103E3000000000FA430000FA430000A0400000C860
:103E4000420000A0420000A0420000C8430000C899
:103E500043B80B0000B80B000064000000102700FE
:103E600000009902770111241FBECFEFD1E2DEBF1F
:103E7000CDBF00E00CBF13E0A0E0B2E0ECEAF3EA53
:103E800002E00BBF02C007900D92AE34B107D9F724
:103E900026E1AEE4B3E001C01D92A83FB207E1F70E
:103EA0001FE1C2E3DFE100E006C021970109802F96
:103EB000FE010F942C4FC133D10780E00807A9F70A
:103EC0000F9438380D94C4510C9400002F923F92F7
:103ED0004F925F926F927F928F929F92AF92BF921A
:103EE000CF92DF92EF92FF920F931F93CF93DF93C6
:103EF000CDB7DEB7A7970FB6F894DEBF0FBECDBF24
:103F00008FA320912C0F2EA311E010932C0F8091E2
:103F100028078D3409F4D0C3843511F40C94DD30B6
:103F2000873411F00C94083180912607909127076F
:103F30008B31910509F463C1F4F488309105D1F116
:103F40004CF497FDB5C382309105A4F1049709F4B0
:103F500012C1AEC38B30910509F44CC18531910576
:103F600011F40C940A310A9709F0A2C381E00E946F
:103F7000A4E10C940A318A32910509F4B9C254F4CF
:103F80008D31910509F465C10CF453C14E9709F4C4
:103F90007EC18EC38B35910509F4F4C18C35910532
:103FA00009F4F5C18A35910509F082C310925C0FBE
:103FB0000C940A3180910507813011F00C940A317C
:103FC00019821A821B821C82CE0101965C0129EBA8
:103FD000E22E27E0F22E04E712E03FE8C32E32E1A2
:103FE000D32E912C88E5890D0F94A603F5018193BA
:103FF0005F01882311F10F944B012B013C01892DA6
:104000000E9447F2882351F0F801208131814281DA
:104010005381C301B2010F94354F09C0F6012081CD
:10402000318142815381C301B2010F94344FF701B2
:1040300060837183828393830AC0F80180819181B8
:10404000A281B381F70180839183A283B383939488
:10405000F4E0EF0EF11C0C5F1F4F24E0C20ED11CE8
:1040600033E09312BFCF85E40F94A6038C8388239B
:1040700001F10F944B016B017C0183E00E9447F238
:10408000882371F020918002309181024091820258
:1040900050918302C701B6010F94354F6B017C012B
:1040A000C092C507D092C607E092C707F092C80732
:1040B00010C08091800290918102A0918202B09103
:1040C00083028093C5079093C607A093C707B09358
:1040D000C80780915D16882381F08091631382FF69
:1040E0000CC08C81882349F08981811103C08A81A9
:1040F000882319F080E00F94161C40E050E0BA01CC
:1041000086E40E9431AF20E030E0A9010F94B8505E
:10411000181684F40F944B0120E030E040E752E49D
:104120000F94B84F6093670270936802809369029E
:1041300090936A0280913C16882311F40C944531C7
:1041400085E40F948201882311F40C94453188E5AD
:104150000F94820181110C94453189E50F948201FD
:1041600081110C9445318AE50F94820181110C94E0
:1041700045310C94133180E50F94A603882329F070
:104180000F9419146B017C0103C0C12CD12C760152
:1041900083E50F94A603882361F00F944B0120E080
:1041A00030E04AE754E40F9497480F9431506B0184
:1041B0007C010E94ABBB8091AE04811105C060E020
:1041C00089ED96E00E94E7AB0F944326C60ED71EFA
:1041D000E81EF91E0F944326DC01CB018C199D09C2
:1041E000AE09BF09B7FD02C00C940A3180E00E94FD
:1041F0000A36F0CF80E00E94A4E10C940A310F94BB
:10420000122081110C940A318CE0ECE9F2E0DE011D
:10421000119601900D928A95E1F760E070E080E5DB
:104220000E94DFF8BE016F5F7F4F0E9442A70C948F
:104230000A3180912A0F8770873011F00C94703109
:1042400060E08FE40F94B30381110C940A310C9455
:1042500070310F9443266093AA167093AB16809327
:10426000AC169093AD160F94122081110C940A3164
:104270008091610F882311F40C94E03160E08FE4A9
:104280000F94B30381110C940A310C94E031209106
:104290001E0F30911F0F4091200F5091210F609100
:1042A00074027091750280917602909177020F945A
:1042B000354FAB01BC0188E50E9431AF69837A8339
:1042C0008B839C832091220F3091230F4091240FE8
:1042D0005091250F609178027091790280917A0255
:1042E00090917B020F94354FAB01BC0189E50E9490
:1042F00031AF6D837E838F839887BE016B5F7F4F65
:10430000CE0101960F949414882311F40C940A3171
:1043100080E00E94CEE40E94DEC361E085E40F9459
:10432000B30301E021E0482FBE016B5F7F4FCE0158
:1043300001960F94CA206B017C019B01AC010F9484
:104340003651811119C049815A816B817C818DE67A
:1043500098E30E9413E94D815E816F81788588E63C
:1043600098E30E9413E9B701A60183E698E30E944F
:1043700013E98AE00E94DE340E94C5C30E9467A24E
:104380000C940A318FE080935C0F0C940A31809179
:104390002507882349F1893009F0A6C08FEDA82EA2
:1043A00082E0B82E94E7E92E92E0F92ED12C00E0BD
:1043B00010E0F50181915F010F94A603882369F055
:1043C0000F944B01F70160837183828393831330D1
:1043D00011F401E002C0DD24D3941F5FF4E0EF0E7E
:1043E000F11C143031F775C0BFED2B2EB2E03B2E1F
:1043F00012E7E12E1FE0F12E24E732E03DA32CA3CB
:104400000FE8C02E02E1D02E00E010E0F101819112
:104410001F010F94A603882309F44AC00F944B018F
:104420002B013C01133049F0F6012081318142819A
:1044300053810F94344F2B013C01ECA1FDA120814D
:10444000318142815381C301B2010F94344F4B013A
:104450005C012DEB37E346E855EB0F94B85087FD30
:104460000AC02DEB37E346E855E3C501B4010F94CC
:1044700031481816ECF4133051F4409280025092F7
:104480008102609282027092830201E011C0A50154
:104490009401F70160817181828193810F94354F7E
:1044A000F7016083718382839383812F0E9429C0E7
:1044B0001F5FF4E0EF0EF11C2CA13DA12C5F3F4FDC
:1044C0003DA32CA334E0C30ED11C143009F09ECFC1
:1044D00005C0DD2019F00E9465A206C0002321F06E
:1044E00080E892E00E9440BE0E9467A20C940A31CC
:1044F00080910507813011F00C940A3189E40F9402
:10450000A603E82E882321F00F944701082F01C04D
:1045100000E08AE40F94A603F82E882321F00F947C
:104520004701182F01C010E0EE2011F0043020F4F4
:10453000FF2041F0143030F082EE96E00E9452E805
:104540000C940A3180E1E4E7F2E0A9EBB7E00190D6
:104550000D928A95E1F7EE2019F1602F000F770B8D
:10456000880B990B0F94384820912C1630912D16FA
:1045700040912E1650912F160F94974820910B04BE
:1045800030910C0440910D0450910E040F94354F5E
:104590006093B9077093BA078093BB079093BC07E9
:1045A000FF2019F1612F110F770B880B990B0F94D6
:1045B0003848209130163091311640913216509182
:1045C00033160F94974820910F04309110044091B6
:1045D0001104509112040F94354F6093BD077093EE
:1045E000BE078093BF079093C00760E080E50F94FB
:1045F000B3038823C1F1EE20D1F020911E0F30913A
:104600001F0F4091200F5091210F6091B9077091B9
:10461000BA078091BB079091BC070F94344F609309
:10462000B9077093BA078093BB079093BC07FF202C
:10463000D1F02091220F3091230F4091240F5091FF
:10464000250F6091BD077091BE078091BF079091C3
:10465000C0070F94344F6093BD077093BE078093DB
:10466000BF079093C00740E050E0BA0186E40E9483
:1046700031AF6B017C0120E030E0A9010F94B8500C
:1046800018164CF420E030E040E752E4C701B601D0
:104690000F94B84F03C060E070E0CB0169837A8368
:1046A0008B839C83CE0101960E94FDC30C940A313A
:1046B0000F94331D0C940A3180912607909127079F
:1046C0008139910509F4EEC70CF0FAC083359105E4
:1046D00009F40CC60CF082C08A31910509F41FC39D
:1046E000BCF58431910509F472C27CF481319105E5
:1046F00009F459C22CF4029708F41DC20C94DA3064
:10470000429709F4FAC50C94DA308731910509F41F
:1047100093C294F48531910509F48AC2469711F049
:104720000C94DA300E9457EC80916313877F80628B
:10473000809363130C940A318831910509F491C276
:10474000499711F00C94DA300E9405F80C940A3164
:104750008032910509F45BC3F4F48D31910509F4BD
:104760003FC384F48B31910509F4E7C24C9711F0F3
:104770000C94DA3080912307909124070E94BCEDBD
:104780000C940A318E31910509F431C34F9709F425
:1047900067C30C94DA308D34910509F410C46CF4BD
:1047A0008B34910509F407C48C34910511F00C94F5
:1047B000DA300E94E2A30C940A318135910509F4A4
:1047C0007FC58235910511F00C94DA3080915C0F31
:1047D0008F7D806180935C0F0C940A318F36910538
:1047E00009F4A4C474F58936910509F42FC484F43E
:1047F0008535910509F4B7C50CF47FC58C35910555
:1048000009F4D4C58836910509F4DDC30C94DA3077
:104810008C36910509F4CFC454F48A36910509F415
:1048200029C48B36910509F463C40C94DA308D36B3
:10483000910509F4E9C38E36910509F464C40C941A
:10484000DA308637910509F4E8C6CCF48237910551
:1048500009F44AC654F48037910509F4B2C481378B
:10486000910509F4BBC40C94DA308337910509F43F
:1048700042C68537910509F4C0C60C94DA308937F1
:10488000910509F408C794F48737910509F400C726
:104890008837910511F00C94DA3081E0809331056E
:1048A000809330050E944AA30C940A318D379105FC
:1048B00009F403C58C38910509F4B5C40C94DA30B9
:1048C0008039E1E09E0711F40C94E22E0CF085C0D3
:1048D0008D3C910511F40C94CE2CBCF5873A9105D2
:1048E00009F483C7C4F4833A910509F44FC734F43B
:1048F0008B39910509F4BBC40C94DA30843A9105E4
:1049000009F460C7863A910511F00C94DA300E94E0
:10491000ABF90C940A31893C910509F4AEC754F403
:104920008E3B910509F4A0C4883C910509F460C749
:104930000C94DA308B3C910509F4E0C78C3C91056E
:1049400011F40C949D2C0C94DA308C3D910511F4EB
:104950000C948A2D04F5803D910511F40C94332DAF
:1049600064F48E3C910511F40C94D12C8F3C91058C
:1049700011F40C94EF2C0C94DA30813D910511F474
:104980000C947D2D833D910511F00C94DA300F9439
:10499000F6120C940A318C3221E0920711F40C9437
:1049A0004D2E64F48D3D910511F40C94B12D82329D
:1049B000914011F40C94062E0C94DA308D32F1E013
:1049C0009F0711F40C94622E8F32914011F00C94D9
:1049D000DA300E9448AF0C940A31873F31E09307E8
:1049E00011F40C94EA2F0CF04FC0843AF1E09F07C9
:1049F00011F40C94112F2CF58A3931E0930709F446
:104A0000E9C394F48139F1E09F0711F40C94E52E89
:104A10008239914011F00C94DA3080E00E941581C7
:104A20000E9467A20C940A318C3931E0930711F48B
:104A30000C94EB2E8D39914011F40C949F300C9412
:104A4000DA30843FF1E09F0711F40C94E42F6CF40A
:104A5000853A31E0930711F40C94142F8C3A91406D
:104A600011F40C94872F0C94DA30853FF1E09F0706
:104A700011F40C94E72F863F914011F00C94DA303A
:104A80000F94462C0C940A318E3B32E0930711F4BC
:104A90000C948B301CF58835F2E09F0711F40C94D0
:104AA00010306CF4883F31E0930711F40C94F22F2E
:104AB0008C30924011F40C9403300C94DA308B3526
:104AC000F2E09F0711F40C9413308D3B924011F0EB
:104AD0000C94DA300E94A2F50C940A31873E33E040
:104AE000930711F40C949130CCF48335F3E09F07D5
:104AF00011F40C948E30803A934011F00C94DA301B
:104B00002091230730912407909163139260909332
:104B10006313C9010E94BCED0C940A31883E33E056
:104B2000930711F40C94B930893E934011F40C941E
:104B3000BC300C94DA3080E50F94A603882329F06A
:104B40000F9419146B017C0103C0C12CD12C760188
:104B500083E50F94A603882361F00F944B0120E0B6
:104B600030E04AE754E40F9497480F9431506B01BA
:104B70007C010E94ABBB8091230790912407009792
:104B800021F061E00E947DAC05C060E08BEF96E013
:104B90000E94E7AB40E0C701B6010E948D3B0F9435
:104BA000841D0C940A318091290784FF02C00C9463
:104BB000E33180912B0787FF02C00C94E331809191
:104BC0002C07837011F00C94E3310C940032809127
:104BD000631383FF25C08BE297E00E9452E8809127
:104BE000631383FF17C082E893E10E94BF898BE1C2
:104BF000E2E8F3E1DE01119601900D928A95E1F76A
:104C000060E070E0CE0101960E94BDF0CE010196F9
:104C10000F94E0038CE197E00E9452E80C940A3173
:104C20000E9448E98CE397E00E9452E80C940A3114
:104C30000E9458F00C940A31E0912307F091240768
:104C40008081882329F0803209F410823196F8CFD0
:104C500060E080912307909124070E9404EE0C9459
:104C60000A3183E50F94A603882321F00F941301E2
:104C70000E945FB584E50F94A6038823A9F00F94E2
:104C800013016B017C010E948DA3C092E404D092B9
:104C9000E504E092E604F092E704CD28CE28CF2880
:104CA00019F081E08093550F8091100E8823F9F060
:104CB00080E090E0A8E4B2E488A399A3AAA3BBA3F0
:104CC0001C8E1D8E1E8E1F8E19821A821B821C82C4
:104CD00000E010E020E0AE01405E5F4FBE01645E88
:104CE0007F4FCE0101960F9487040C940A310E94E5
:104CF0002334882381F00E9468EC0E94A8A381EFEE
:104D00009FE00E940DEC10922D0710922E0710923A
:104D10002F07109230070F94841D0C940A31809154
:104D2000631383FD02C00C940A3183E50F94A6033C
:104D300081110C940F320C940A3183E40F94820198
:104D4000882319F180E597E00E9452E88091C91408
:104D5000882391F0BE016F5F7F4F86EC94E10E9443
:104D60008B898E010F5F1F4FF80181918F0188237E
:104D700039F00E94DE34F8CF86E497E00E9452E8D2
:104D80008AE00E94DE340C940A318091631382FF22
:104D900021C08FE597E00E9452E860915F13709107
:104DA000601380916113909162134AE00E94E53490
:104DB0008FE20E94DE3460915B1370915C138091EE
:104DC0005D1390915E134AE00E94E5340E94E33542
:104DD0000C940A3181E797E00E9452E80C940A3162
:104DE000809163138E7F809363130C940A318091BA
:104DF000631383FD02C00C940A310F941C1D809133
:104E00002307909124070E94E2EF0C940A318091CD
:104E1000631382FD0E94ABBB8091631383FD02C0CC
:104E20000C940A3160E080E50F94B303182F682FCB
:104E300080912307909124070E9404EE83E50F944C
:104E4000A603882321F00F9413010E945FB50E94EE
:104E500068EC11110C940A310E94A8A30C940A3139
:104E60000E9459A37B018C0120E831E541E050E02C
:104E70000F94874EC9016DE671E00F94044F4B010A
:104E80005C01C801B70120E13EE040E050E00F9432
:104E9000874ECA01B90128E130E040E050E00F94AC
:104EA000874E762E672EC62ED72EACE32A2E312CB7
:104EB000412C512CC801B701A20191010F94874EDA
:104EC000F62EE72ECA01B901A20191010F94874E77
:104ED000CB018E010F5F1F4F8114910499F0EF9267
:104EE000FF927F936F936F927F92BF92AF929F9248
:104EF0008F9282E897E09F938F931F930F930F9465
:104F0000C94713C0A114B104B1F0EF92FF927F938F
:104F10006F936F927F92BF92AF9286E897E09F93D4
:104F20008F931F930F930F94C9470FB6F894DEBF6A
:104F30000FBECDBF30C0CD2879F0EF92FF927F93A6
:104F40006F936F927F928AE897E09F938F931F935E
:104F50000F930F94C947E9CF892B69F0EF92FF9225
:104F60007F936F938EE897E09F938F931F930F9398
:104F70000F94C947DACFEF92FF9282E997E09F93AF
:104F80008F931F930F930F94C9470F900F900F901B
:104F90000F900F900F9060E0C8010E947DAC0E94BE
:104FA00048E9B80186E997E00E9431E98AE00E9469
:104FB000DE340C940A310E94A8A30C940A310E949A
:104FC000F7A30C940A3180918E0D83FF02C00C94DC
:104FD0000A3189E40F94A603882311F40C94143247
:104FE0000F94230190E01816190614F481E090E064
:104FF00026E0289FF001299FF00D1124E25AF94E76
:10500000808191810C941F3280918E0D83FF02C0AC
:105010000C940A3189E40F94A603882311F40C94AC
:1050200026320F94230190E01816190614F481E03B
:1050300090E026E0289FF001299FF00D1124E25A0C
:10504000F94E8081918110E00C9437320E941EF25B
:10505000182F87FD0AC08FE79BE10E9452E8812F3D
:105060000E94048E8AE00E94DE343EA130932C0F11
:105070000C94AE3360E080E50F94541681110C94CB
:105080000A3181E40F948201882329F06091240879
:10509000062F10E002C00FEF10E089E40F94A60382
:1050A000882399F00F94230190E01816190614F440
:1050B00081E090E026E0289FF001299FF00D112467
:1050C000E25AF94E0481158108C083E50F94A603C6
:1050D000882319F00F9413018B01B8010F3F1105BC
:1050E00019F010F06FEF70E0609324080C940A310F
:1050F00060E080E50F94541681110C940A311092EF
:1051000024080C940A318EE40F94A603882311F42A
:105110000C940A310F9413016093B5077093B6078E
:105120008093B7079093B8070C940A3183E50F94E6
:105130008201882331F060E083E50F945416809358
:105140008E0D0E9448E98CEB97E00E9452E8809116
:105150008E0D882369F1FEE3EF2EFBE0FF2E00E0C9
:1051600010E020E080918E0D90E0A0E0B0E0002EF5
:1051700004C0B695A795979587950A94D2F780FFB6
:105180000EC0DD24D394D20E222319F08CE20E94AB
:10519000DE34F701859194910E9452E82D2D0F5F26
:1051A0001F4F82E0E80EF11C05301105D9F6E8CD5D
:1051B00088EB97E0E3CD10922B0F109265020C94D0
:1051C0000A3141E060E070E083EC97E00E944CE936
:1051D0000C940A310E94FE330C940A3183E50F943B
:1051E000A603882381F00F942301282F30E02D336C
:1051F000310524F4809300020C940A318CE38093EF
:1052000000020C940A310E9448E94091000250E0EB
:1052100060E070E081ED97E00E94F5E88AE00E948E
:10522000DE340C940A3180918E0D83FF02C00C9401
:105230000A3189E40F94A603882311F40C94783280
:105240000F94230190E01816190614F481E090E001
:1052500026E0289FF001299FF00D1124E25AF94E13
:10526000628173810C9482320E9469B3D3C783E553
:105270000F94A603882309F4CDC70F942301182F98
:1052800090E0CD970CF01CE3109353030F9443264A
:105290006B017C01212F30E0A8EEB3E00F94DB4ED0
:1052A000C60ED71EE81EF91EC0924F03D0925003BF
:1052B000E0925103F0925203ADC70E9405F8AAC7CD
:1052C0000E94C78E0E94F7A30E94BCBB0E94473475
:1052D00068EE73E080E090E00E942EE80E944A347D
:1052E00060E088ED97E00E94E7AB94C780915C0F87
:1052F0008F7E806280935C0F8DC783E50F94A60339
:105300008823E9F00F9443266093AA167093AB1696
:105310008093AC169093AD160F944B0120E030E0D3
:105320004AE754E40F9497480F9431506093010278
:105330007093020280930302909304026BC78091E2
:10534000290784FF02C00C94933280912B0787FFBA
:1053500002C00C94933280912C07837011F00C944E
:1053600093320C94C43283E50F948201882309F4AC
:1053700051C70F9443266093AA167093AB1680937F
:10538000AC169093AD160F944B0120E030E04AE745
:1053900054E40F9497480F943150609354037093E2
:1053A0005503809356039093570334C70E941EF20F
:1053B00087FD30C79091290794FD04C090912B0779
:1053C00097FF0AC07FEDC72E72E0D72EEFE8EE2ED2
:1053D000EDE0FE2E10E009C090912C07937091F73C
:1053E000682F81E00F94DE1315C7F60181916F01DC
:1053F0000F94A603882309F46DC0133009F063C02D
:105400000F944B014B015C0120E030E040EA51E495
:105410000F94314887FF4EC0A50194016091AF0DF4
:105420007091B00D8091B10D9091B20D0F94B84F65
:105430002B013C019B01AC016091080870910908A7
:1054400080910A0890910B080F9497486093080880
:105450007093090880930A0890930B08A3019201A6
:105460006091BF0D7091C00D8091C10D9091C20DE2
:105470000F9497486093BF0D7093C00D8093C10D3A
:105480009093C20D609118087091190880911A08C4
:1054900090911B080F943648A30192010F949748EE
:1054A0000F943150609318087093190880931A086C
:1054B00090931B088092AF0D9092B00DA092B10D09
:1054C000B092B20D07C00F944B01F701648B758B3E
:1054D000868B978B1F5FF4E0EF0EF11C143009F000
:1054E00084CF0E9487BB96C60F947A2880EF92E102
:1054F0000E948A958FC68DE299E00E9452E860E092
:105500008DE199E00E943AB960E088E099E00E945C
:105510003AB961E08CE49EE20E943AB961E08DEF15
:1055200098E00E943AB961E08DEE98E00E943AB9A5
:1055300060E084EE98E00E943AB961E08AED98E07C
:105540000E943AB961E080ED98E00E943AB961E0CA
:1055500089EC98E00E943AB961E081EC98E00E9401
:105560003AB961E083EB98E00E943AB960E085EADD
:1055700098E00E943AB960E086E998E00E943AB962
:1055800060E088E898E00E943AB960E082E798E03D
:105590000E943AB960E081E698E00E943AB960E082
:1055A00082E598E00E943AB961E08BE498E00E94BD
:1055B0003AB960E086E398E00E943AB960E088E298
:1055C00098E00E943AB960E085E198E00E943AB91B
:1055D00060E088E098E00E943AB960E083E098E0FB
:1055E0000E943AB961E086EF97E00E943AB960E024
:1055F00082EE97E00E943AB90DC680912307909100
:105600002407009709F487CBFC012081222309F4A9
:1056100082CB60E00E947DACFDC500912307109114
:10562000240794E0F12C40E0915029F1F8018081A9
:10563000282F2B7F213421F421812133E1F408C06C
:105640008035C9F4F801818180538A3048F013C055
:10565000813421F0853421F441E002C0FF24F39429
:1056600098012E5F3F4F89012F5F3F4FF8018081E6
:105670008032C9F3D9CF41110E9448E9FF2021F0BF
:1056800082E09AE00E9452E8C8010E94E935C2C552
:105690000E9418A3BFC510923105109230050E94D8
:1056A0004AA3B8C560E070E083E50F9445168230E8
:1056B00038F00E9444E986E09AE00E9452E8AAC5C8
:1056C0008C01112788E40F94A6038823E1F00F943E
:1056D00047018A3A910544F00F9447018530914083
:1056E00034F40F94470105C08AEA90E002C084E0D8
:1056F00091E026E0209FF001219FF00D1124E25A55
:10570000F94E9183808382E40F94A6038823D9F015
:105710000F944701059744F00F944701893791058D
:1057200034F40F94470105C085E090E002C088E79B
:1057300090E026E0209FF001219FF00D1124E25A15
:10574000F94E9383828386E40F94A603882309F499
:1057500061C50F94470197FD09C00F9447018F3F22
:10576000910509F034F40F94470105C080E090E002
:1057700002C08FEF90E026E0209FF001219FF00D06
:105780001124E25AF94E9583848344C560E070E0A9
:1057900083E50F9445168C01833091056CF460E02D
:1057A00070E080E50F9445161127F801E253FC4F95
:1057B00080830F942C092EC541970CF42BC50F94B0
:1057C000C40928C56FEF7FEF83E50F94451697FD59
:1057D00007C0803191050CF01DC50E9447E11AC534
:1057E00080916B080E9447E115C50E94F2F812C52E
:1057F0000E941EF2182F87FD0DC50091710F84E4E1
:105800000F94A603882309F4C2C60F944B016B01C1
:105810007C0120E030E0A9010F943148882339F160
:1058200024E01202F0011124E359F04FC082D1822A
:10583000E282F38220E030E0A90160916D0F709167
:105840006E0F80916F0F9091700F0F9431488111FE
:105850000CC080E090E0A0EEBFE380936D0F9093CA
:105860006E0FA0936F0FB093700F01E090C680E0B1
:105870008093710F0E9414BACDC40E941EF287FD5E
:10588000C9C45FEDC52E52E0D52E6FE8E62E6DE05F
:10589000F62E10E0F60181916F010F9482018823AA
:1058A00031F10F944B016C8F7D8F8E8F9F8F80E134
:1058B000E8EAF2E0DE01119601900D928A95E1F797
:1058C0009E012F5F3F4F48E25AE0612FCE014C9678
:1058D0000E94B2BA6C8D7D8D8E8D9F8D0F9431504C
:1058E000F70160837183828393830E9440BB1F5FB3
:1058F000F4E0EF0EF11C143069F68CC40E941EF225
:1059000087FD88C44FEDE42E42E0F42E0FE81DE041
:10591000F70181917F010F948201882339F00F9460
:105920004B01F80164A375A386A397A30C5F1F4FD7
:10593000FDE00F391F0761F76DC480912A0787FDCD
:105940002BC680912B078E7009F026C64091C30D9F
:105950005091C40D6091C50D7091C60D85E39AE01C
:105960000E9413E94091C70D5091C80D6091C90D77
:105970007091CA0D82EA9AE30E9413E94091CB0D1F
:105980005091CC0D6091CD0D7091CE0D88E19DE3CD
:105990000E9413E98AE00E94DE343CC40F9429146B
:1059A00039C43EE7E32E3FE0F32E10E088E5810F97
:1059B0000F948201882351F00F944B01F70160830B
:1059C000718382839383812F0E9429C01F5FF4E03B
:1059D000EF0EF11C133051F70E9467A21BC483E540
:1059E0000F948201882351F00F944B0160933D1670
:1059F00070933E1680933F169093401686E40F9462
:105A00008201882381F00F944B0120E030E040E7D1
:105A100052E40F94B84F60934116709342168093EE
:105A20004316909344168AE50F948201882351F01F
:105A30000F944B016093451670934616809347165A
:105A40009093481687E50F948201882309F4E2C3F6
:105A50000F944B0160935116709352168093531616
:105A600090935416D7C383E50F948201882351F095
:105A70000F944B016093491670934A1680934B160E
:105A800090934C1686E40F948201882381F00F9442
:105A90004B0120E030E040E752E40F94B84F6093B0
:105AA0004D1670934E1680934F169093501682E5C4
:105AB0000F948201882381F00F944B0120E030E0A5
:105AC00040E752E40F94B84F6093591670935A16FA
:105AD00080935B1690935C1687E50F948201882370
