:100000000C9479130C94A3130C94A3130C94A313C2
:100010000C94A3130C94A3130C94A3130C94A31388
:100020000C94A3130C94A3130C94A3130C94A31378
:100030000C94A3130C9410250C94A3130C94A313E9
:100040000C94A3130C946E200C9459CE0C94A3130F
:100050000C9417AD0C940DAD0C94A3130C94A31336
:100060000C94A3130C94A3130C94A3130C94A31338
:100070000C94A3130C94A3130C94A3130C94A31328
:100080000C94A3130C94A3130C94A3134E414E4948
:100090004E495459494E46CDCCCC3D0AD7233C1746
:1000A000B7D13877CC2B329595E6241FB14F0A0093
:1000B0000020410000C84200401C4620BCBE4CCA83
:1000C0001B0E5AAEC59D7400407A10F35A00A07200
:1000D0004E18090010A5D4E80000E8764817000083
:1000E000E40B54020000CA9A3B000000E1F5050051
:1000F0000080969800000040420F000000A086019A
:10010000000000102700000000E803000000006469
:1001100000000000000A00000000000100000000D4
:10012000002C76D888DC674F0823DFC1DFAE59E1A9
:10013000B1B796E5E3E453C63AE651997696E8E618
:10014000C28426EB898C9B62ED407C6FFCEFBC9CEB
:100150009F40F2BAA56FA5F490055A2AF75C936BFD
:100160006CF9676DC11BFCE0E40D47FEF520E6B5B8
:1001700000D0ED902E0300943577050080841E0892
:100180000000204E0A000000C80C333333330F98B0
:100190006E12831141EF8D2114893BE65516CFFE77
:1001A000E6DB18D1844B381BF77C1D901DA4BBE403
:1001B00024203284725E228100C9F124ECA1E53D45
:1001C0002750726F6265205A204F6666736574000F
:1001D0004D38340041425300504C41004261627935
:1001E00073746570205A0020520045207374657046
:1001F000732F6D6D005A2053746570732F6D6D00F1
:10020000592053746570732F6D6D005820537465B9
:1002100070732F6D6D00416476616E636564205369
:10022000657474696E67730043616E63656C004941
:100230006E697400496E697469616C697A652045FC
:100240004550524F4D0050726F6265204F66667385
:10025000657473004A756E6374696F6E20446576C9
:1002600000416363656C65726174696F6E00566509
:100270006C6F63697479005A20486F6D65204F6612
:100280006673657473005920486F6D65204F66660C
:1002900073657473005820486F6D65204F666673F0
:1002A000657400436F6E66696775726174696F6E1D
:1002B000004E65787420436F726E657200446F6EF5
:1002C00065004E65787400486F6D696E67205859F7
:1002D0005A0053746F72652053657474696E677346
:1002E000004C6F61642053657474696E6773004FCE
:1002F0006666004F6E004C6576656C204265640052
:100300004732380A473239004C6576656C20436FB6
:10031000726E657273004175746F20486F6D650071
:100320004D6F74696F6E004E6F7A7A6C650046612E
:100330006E20537065656400526573746F7265203A
:1003400044656661756C74730050726568656174AC
:10035000202420436F6E66004C434420436F6E742C
:1003600072617374004D61696E004261636B00538A
:10037000746F70004D32310052656C656173652099
:100380004D65646961004D32320054656D7065726F
:10039000617475726500526573756D652050726980
:1003A0006E743F0054756E650053746F7020507208
:1003B000696E743F005061757365205072696E7488
:1003C0003F00417474616368204D65646961004950
:1003D0006E666F2053637265656E0053746172744C
:1003E000205072696E740043616E6E6F7420656E8A
:1003F000746572207375626469723A2000022E2E51
:100400000001526566726573680044697361626CCD
:100410006520537465707065727300473238005000
:1004200072656865617420242042656400507265BD
:1004300068656174202420456E6400436F6F6C64AE
:100440006F776E0050726568656174202400546F88
:1004500074616C00466C6F77002568753A25303200
:10046000687500256875642025303268753A253036
:100470003268750020202020202020005072696EF4
:10048000742041626F72746564004D3235005061B2
:100490007573696E672E2E2E006F70656E00545254
:1004A00049474745524544007A5F6D696E00795F60
:1004B0006D696E00785F6D696E005265706F727461
:1004C000696E6720656E6473746F702073746174F5
:1004D00075730A00486F6D65202573257325732099
:1004E0004669727374005761726E696E673A20488C
:1004F0006F6D696E672042756D702044697669730F
:100500006F72203C20310A0053657474696E677302
:100510002053746F726564002062797465733B20A8
:10052000637263200053657474696E67732053743B
:100530006F726564202800454550524F4D2064611C
:10054000746173697A65206572726F722E0A002079
:1005500073746F7265642073657474696E67732059
:10056000726574726965766564202800202863616D
:100570006C63756C6174656429210A0020213D203B
:1005800000454550524F4D20435243206D69736DD5
:1005900061746368202D202873746F72656429204C
:1005A00000496E6465783A200044494749504F54E9
:1005B00053204C6F616465640A0044494749504FB9
:1005C0005453204C6F6164696E670A00204D61725C
:1005D0006C696E3D563833290A00454550524F4DDF
:1005E0002076657273696F6E206D69736D617463D7
:1005F000682028454550524F4D3D00454550524FCB
:100600004D20496E697469616C697A65640A0048B5
:10061000617264636F6465642044656661756C74BF
:100620002053657474696E6773204C6F61646564F0
:100630000A003B200020204D3835312058005A2D2B
:1006400050726F6265204F66667365740020204D9E
:100650003235302043004C434420436F6E74726146
:1006600073743A0020440020204D33303120500074
:100670005049442073657474696E67733A0020466C
:100680000020480020204D3134352053004D617446
:10069000657269616C206865617475702070617243
:1006A000616D65746572733A00204A0020204732FC
:1006B00039205720490020204D343230205300414A
:1006C00075746F20426564204C6576656C696E6751
:1006D0003A0020204D323036205800486F6D65209A
:1006E0006F66667365743A0020204D3230352042C3
:1006F00000416476616E6365643A20423C6D696EC8
:100700005F7365676D656E745F74696D655F757342
:100710003E20533C6D696E5F666565647261746509
:100720003E20543C6D696E5F74726176656C5F66E5
:10073000656564726174653E204A3C6A756E635FEC
:100740006465763E0020540020204D323034205025
:1007500000416363656C65726174696F6E20287512
:100760006E6974732F7332293A20503C7072696E2F
:10077000745F616363656C3E20523C7265747261A4
:1007800063745F616363656C3E20543C7472617690
:10079000656C5F616363656C3E0020204D323031D3
:1007A0002058004D6178696D756D20416363656CFB
:1007B00065726174696F6E2028756E6974732F732A
:1007C00032293A0020204D3230332058004D6178D4
:1007D000696D756D20666565647261746573202846
:1007E000756E6974732F73293A00537465707320A2
:1007F00070657220756E69743A0020204D3134396D
:100800002043203B20556E69747320696E20436538
:100810006C736975730A0020286D6D2900202047CC
:100820003231202020203B20556E69747320696E80
:10083000206D6D0020436F756E7420583A0045316D
:1008400000626564002C2073797374656D20737485
:100850006F7070656421204865617465725F4944FA
:100860003A2000544845524D414C2052554E415774
:10087000415900546865726D616C2052756E6177E4
:1008800061790048656174696E67204661696C65CD
:10089000640048656174696E67206661696C6564AF
:1008A000004572723A204D415854454D50004D411B
:1008B000582054454D50204572726F722100457288
:1008C000723A204D494E54454D50004D494E2054EA
:1008D000454D50204572726F722100202F0020423A
:1008E000403A0020403A00D801D4011FE0201020F7
:1008F000102010102010202010201030300840044C
:100900008003001FE03FF03FF03FF01FE01FE03F9B
:10091000F03FF03FF00FC0078003003FFFF03800CA
:100920007030FC3020FC102078102030102C00D0CB
:100930002E31D02F7BD02F7BD02E31D02C00D02049
:10094000301020781020FC1030FC303800703FFF51
:10095000F03FFFF0380070318630238710278790F2
:100960002F87D02F03D0203010207810207810202F
:1009700030102F03D02F87D0278790238710318600
:10098000303800703FFFF01FFFF81FFFF8041040E1
:1009900002082002082004104008208010410010A6
:1009A00041000820800410400000001FFFF81FFFD6
:1009B000F80000A0C1000000000000000000004896
:1009C0004200004842000080400202040000A040B3
:1009D0000000A0400000000000002A430000164371
:1009E00000001643FFFFFF000016430000164300FF
:1009F00000164300009643000096430000A040000C
:100A000000C8410000A0420000A0420000C843000E
:100A100000C843B80B0000B80B00006400000010D1
:100A200027000024F4D43050C38E20C2A240178285
:100A30008B7011127A910D816CD90AA861E108C7F7
:100A4000586607615143061E4B5D05C145A7041A50
:100A5000411104093D9803713931034036DB0265C9
:100A6000339102D4305402802E1D02632CEE0175A6
:100A70002AC501B028A001102781018F2564012B10
:100A8000244B01E0223401AC211F018D200D018097
:100A90001FFC00841EED00971DDF00B81CD200E68D
:100AA0001BC600201BBC00641AB200B219A8000AC1
:100AB00019A0006A189900D117910040178B00B552
:100AC00016840031167E00B31579003A157300C7FD
:100AD000146F0058146A00EE136600881363002533
:100AE000135E00C7125B006C12570015125400C150
:100AF00011510070114F0021114B00D61049008D8B
:100B00001047004610440002104200C00F40008011
:100B10000F3E00420F3C00060F3B00CB0E38009307
:100B20000E37005C0E3500270E3400F30D3200C185
:100B30000D3100900D3000600D2E00320D2D00059E
:100B40000D2C00D90C2B00AE0C2900850C29005C63
:100B50000C2700350C27000E0C2600E80B2400C4DF
:100B60000B2400A00B23007D0B23005A0B2100391E
:100B70000B2100180B2000F80A1F00D90A1E00BB29
:100B80000A1E009D0A1D00800A1D00630A1C004702
:100B90000A1B002C0A1B00110A1A00F7091A00DDB3
:100BA000091900C4091900AB091900920917007B43
:100BB000091800630917004C0916003609160020B1
:100BC0000916000A091500F5081500E0081400CC04
:100BD000081400B8081400A4081400900813007D3D
:100BE0000812006B0813005808120046081200345F
:100BF000081100230811001208110001081100F06B
:100C0000071000E0071000D0071000C0071000B068
:100C1000070F00A107100091070E0083070F007453
:100C2000070F0065070E0057070E0049070E003B2F
:100C3000070D002E070E0020070D0013070D0006FC
:100C4000070D00F9060C00ED060D00E0060C00D4BF
:100C5000060C00C8060C00BC060C00B0060C00A474
:100C6000060B0099060C008D060B0082060B007720
:100C7000060B006C060B0061060A0057060B004CC1
:100C8000060A0042060A0038060A002E060A002458
:100C9000060A001A060A001006090007060A00FDE7
:100CA000050900F4050900EB050900E2050900D972
:100CB000050900D0050900C7050900BE050900B5F2
:100CC000050800AD050800A50509009C050800946D
:100CD0000508008C050800840508007C05080074E0
:100CE0000508006C050700650508005D050700564E
:100CF0000508004E050700470507004005080038B5
:100D0000050700310507002A050700230507001C19
:100D1000050600160507000F050700080506000276
:100D2000050700FB040600F5040700EE040600E8D2
:100D3000040600E2040700DB040600D5040600CF29
:100D4000040600C9040600C3040600BD040600B77B
:100D5000040600B1040500AC040600A6040600A0C9
:100D60000405009B04060095040500900406008A13
:100D700004050085040500800406007A040500755A
:100D8000040500700405006B04050066040500619D
:100D90000405005C04050057040500520405004DDD
:100DA00004050048040500430405003E0404003A1D
:100DB00004050035040500300404002C0405002758
:100DC000040400230405001E0404001A0404001691
:100DD000040500110404000D0404000904050004C6
:100DE00004040000040400FC030400F8030400F4FD
:100DF000030400F0030400EC030400E8030400E42F
:100E0000030400E0030400DC030400D8030400D45E
:100E1000030400D0030400CC030400C8030300C58E
:100E200003030024F404D9201BC40C5C0E9804C4F2
:100E3000095F0265077101F405F900FB04B300487E
:100E4000048700C10369005803550003034500BE31
:100E5000023A008402310053022A002902250004CC
:100E6000022000E4011C00C8011900AF011700981E
:100E70000114008401130071011000610110005180
:100E8000010E0043010D0036010B002B010B002069
:100E9000010B00150109000C01090003010800FB0A
:100EA000000800F3000800EB000700E4000600DE85
:100EB000000600D8000600D2000600CC000500C7DE
:100EC000000500C2000500BD000400B9000400B523
:100ED000000400B1000400AD000400A9000400A556
:100EE000000300A20003009F0004009B0003009881
:100EF0000003009500020093000300900003008DA2
:100F00000002008B000300880002008600020084BB
:100F1000000300810002007F0002007D0002007BD0
:100F200000020079000200770001007600020074E0
:100F300000020072000100710002006F0002006DEB
:100F40000001006C0002006A0001006900020067F5
:100F500000010066000100650001006400020062FB
:100F600000010061000100600001005F0002005DFF
:100F70000001005C0001005B0001005A0001005903
:100F80000001005800010057000100560001005503
:100F90000001005400010053000000530001005202
:100FA00000010051000100500001004F0001004EFF
:100FB0000000004E0001004D0001004C0001004BFC
:100FC0000000004B0001004A0001004900010048F8
:100FD00000000048000100470001004600000046F4
:100FE00000010045000000450001004400010043ED
:100FF00000000043000100420000004200010041E7
:1010000000000041000100400001003F0000003FDF
:101010000001003E0000003E0001003D0000003DD8
:101020000001003C0000003C0000003C0001003BCF
:101030000000003B0001003A0000003A00010039C6
:1010400000000039000100380000003800000038BE
:1010500000010037000000370001003600000036B4
:1010600000000036000100350000003500000035AA
:10107000000100340000003400000034000100339F
:101080000000003300000033000100320000003295
:10109000000000320001003100000031000000318A
:1010A0000001003000000030000000300001002F7F
:1010B0000000002F0000002F0000002F0001002E74
:1010C0000000002E0000002E0001002D0000002D69
:1010D0000000002D0000002D0001002C0000002C5D
:1010E0000000002C0000002C0001002B0000002B51
:1010F0000000002B0000002B0001002A0000002A45
:101100000000002A0000002A000100290000002938
:10111000000000290000002900000029000100282B
:10112000000000280000002800000028000000281F
:101130000001002700000027000000270000002712
:101140000000002700010026000000260000002605
:1011500000000026000000260001002500000025F8
:1011600000000025000000250000002500000025EB
:1011700000010024000000240000002400000024DE
:1011800000000024000100230000002300000023D1
:1011900000000023000000230000002300000023C3
:1011A00000010022000000220000002200000022B6
:1011B00000000022000000220001002100000021A8
:1011C000000000210000002100000021000000219B
:1011D000000000210001002000000020000000208D
:1011E000000000200000002000000020000000207F
:1011F000000000200001001F0000001F0000001F71
:101200000000001F0000001F0000001F0000001F62
:101210000001001E0000001E0000001E0000001E55
:10122000000000043700001E290000511B00005878
:1012300010000010090000CC0400007802000041FA
:101240000100001000AA038000400100012C01B041
:1012500001220140021001F00202018003F8004067
:1012600004F500E004ED009005E4003006DD00E048
:1012700006D7008007D1003008CC00D008C7007026
:1012800009C300100ABE00B00ABB00500BB70090A3
:101290000CB300D00DAA00B00FA5005010A0001094
:1012A0001496009016900010198C00501A8500308A
:1012B0001C820070227800B023750040256E00204B
:1012C000276900A0296400502A5F00902B5A00D0A3
:1012D0002C5500702D4F00E02E4800503145003055
:1012E000334100D03539006036370010373300F015
:1012F000382D00A0392700803C1C00103D190090BB
:101300003D1700103E1400703E1200C03E0F00005A
:101310003F0C00403F0800803F0500C03F0000F048
:101320003FFBFF434F4D4D554E49434154494F4EAE
:101330000044525952554E004552524F52530049A3
:101340004E464F004543484F004572726F722077FA
:10135000726974696E6720746F20454550524F4D15
:10136000210A002121204B494C4C20636175736593
:101370006420627920746F6F206D75636820696ED8
:101380006163746976652074696D65202D206375CD
:101390007272656E7420636F6D6D616E643A2000C9
:1013A0004D343130004D313132004D313038005341
:1013B000544F505045442E20005072696E7465722F
:1013C0002073746F707065642064756520746F207D
:1013D0006572726F72732E2046697820746865207A
:1013E0006572726F7220616E6420757365204D396D
:1013F000393920746F20726573746172742E2028DD
:1014000054656D70657261747572652069732072C0
:10141000657365742E205365742069742061667449
:1014200065722072657374617274696E67290A004F
:101430004E6F20436865636B73756D2077697468C0
:10144000206C696E65206E756D6265722C204C6132
:101450007374204C696E653A2000636865636B7332
:10146000756D206D69736D617463682C204C6173B8
:1014700074204C696E653A20004C696E65204E758B
:101480006D626572206973206E6F74204C61737495
:10149000204C696E65204E756D6265722B312C2073
:1014A0004C617374204C696E653A20004D313130C7
:1014B0000053442072656164206572726F720A0085
:1014C0004D6564696120496E73657274656400508E
:1014D0006C65617365205265736574005052494EA6
:1014E0005445522048414C5445440025533A202548
:1014F00053004B494C4C45442E20005072696E7489
:1015000065722068616C7465642E206B696C6C2850
:10151000292063616C6C6564210A006563686F3A19
:10152000004572726F723A0042696C696E65617251
:10153000204C6576656C696E6720477269643A0A6B
:101540000050726F62696E672025692F25693D2002
:1015500025730050726F62696E67206D6573682035
:10156000706F696E74200050726F62696E672050F0
:101570006F696E7400202844525952554E29004715
:101580003239204175746F20426564204C65766560
:101590006C696E67003F20284C2C522C462C422947
:1015A000206F7574206F6620626F756E64732E0AEB
:1015B000003F2856296572626F7365206C657665F9
:1015C0006C20696D706C61757369626C6520283080
:1015D0002D34292E0A00426164205A2076616C75F0
:1015E000650A004E6F2062696C696E6561722067E2
:1015F0007269640A0020496E76616C6964206578BE
:101600007472756465722000536C6565702E2E2EA1
:10161000005A2050726F62652050617374204265D9
:10162000640A005A2050726F626520506173742002
:10163000426564004D65736820706F696E74206F39
:101640007574206F662072616E67650A00436C696D
:10165000636B20746F20526573756D652E2E2E009E
:101660004E6F204D6F76652E00456E642066696C66
:1016700065206C6973740A00426567696E2066694B
:101680006C65206C6973740A004E6F206D65646927
:10169000610A00286E6F2066696C652900437572C7
:1016A00072656E742066696C653A20005344207040
:1016B00072696E74696E67206279746520004E6F7E
:1016C00074205344207072696E74696E670A004416
:1016D000656C6574696F6E206661696C656420284D
:1016E000726561642D6F6E6C79292C2046696C657A
:1016F0003A2000256979202569642025696820251C
:10170000696D20256973005072696E742074696D6B
:10171000653A20006F66660044454255473A004DE1
:101720003131322053687574646F776E004265649E
:1017300020436F6F6C696E672E2E2E004265642009
:1017400048656174696E672E2E2E005A3646422017
:101750004F46462E004649524D574152455F4E4135
:101760004D453A4D61726C696E206D61726C696EA7
:101770002D322E302E382028417072202031203218
:101780003032322031343A34333A31302920534F19
:10179000555243455F434F44455F55524C3A687438
:1017A0007470733A2F2F6769746875622E636F6D5A
:1017B0002F4D61726C696E4669726D776172652F2B
:1017C0004D61726C696E2050524F544F434F4C5FC5
:1017D00056455253494F4E3A312E30204D414348E1
:1017E000494E455F545950453A5A3646422045586D
:1017F0005452554445525F434F554E543A3120554B
:101800005549443A63656465326132662D3431610D
:10181000322D343734382D396231322D633535630A
:1018200036326633363766660A002F2F20004D3178
:10183000343520533C696E6465783E206F757420A2
:101840006F662072616E67652028302D31290A008D
:10185000206C696D6974656420746F2000204D618F
:10186000782000416363656C65726174696F6E3ADC
:101870002050003F4A206F7574206F662072616EA1
:1018800067652028302E303120746F20302E3329A8
:101890000A0020204D61783A200020204D696E3AE0
:1018A0002000536F667420656E6473746F70733AB2
:1018B000200046523A0020466C6F773A20002064A0
:1018C0003A0020693A0020703A00496E76616C69EE
:1018D000642065787472756465720A004C43442014
:1018E000436F6E74726173743A20004F4646004233
:1018F0006564204C6576656C696E67200046616999
:101900006C656420746F20656E61626C6520426551
:1019100064204C6576656C696E670A00496E766175
:101920006C6964206D6573682E0A004D3432312075
:10193000696E636F727265637420706172616D6548
:101940007465722075736167650A004F666673651A
:101950007473204170706C696564004572723A203E
:10196000546F6F206661722100546F6F2066617240
:101970002066726F6D207265666572656E636520A4
:10198000706F696E740A00454550524F4D204F4BA1
:101990000A003F5A206F7574206F662072616E676F
:1019A000652028003F59206F7574206F6620726192
:1019B0006E676520282D003F58206F7574206F6674
:1019C0002072616E676520282D0050726F6265205D
:1019D0004F6666736574205800446F6E65207072A0
:1019E000696E74696E672066696C650A004D3737E9
:1019F000004D333100656E7175657565696E6720E0
:101A000022006F6B00526573656E643A20002057A8
:101A10003A00452025530023646566696E652044BD
:101A2000454641554C545F004B6420004B692000F3
:101A30004B702000504944204175746F74756E6579
:101A40002066696E6973686564212050757420741E
:101A50006865206C617374204B702C204B69206189
:101A60006E64204B6420636F6E7374616E747320B8
:101A700066726F6D2062656C6F7720696E746F207F
:101A8000436F6E66696775726174696F6E2E680A5E
:101A900000504944204175746F74756E652066610D
:101AA000696C6564212074696D656F75740A0050F6
:101AB0004944204175746F74756E65206661696C68
:101AC0006564212054656D7065726174757265205E
:101AD000746F6F20686967680A00204B643A2000C1
:101AE000204B693A2000204B703A20000A20436CBA
:101AF000617373696320504944200A002054753A89
:101B00002000204B753A2000206D61783A2000209B
:101B10006D696E3A200020643A200020626961738A
:101B20003A2000504944204175746F74756E6520E9
:101B300073746172740A00504944204175746F7463
:101B4000756E6500504944204175746F74756E65FB
:101B5000206661696C656421204261642065787447
:101B60007275646572206E756D6265720A004572E9
:101B7000723A207574663820666F6E74206E6F74CA
:101B800020696E697469616C697A65642E00456EBE
:101B9000636C6F73757265005654726176204D697F
:101BA0006E00566D696E00566D6178204500566D69
:101BB0006178205A00566D6178205900566D617821
:101BC000205800416D6178204500416D6178205AB0
:101BD00000416D6178205900416D617820580041C5
:101BE0002D54726176656C00412D5265747261638B
:101BF0007400416363656C0050726F626520592008
:101C00004F66667365740050726F62652058204F8E
:101C100066667365740044133F133813311323133E
:101C2000000C0F00FE07022503BB017FFE08FE0823
:101C3000FE05080806000040F0C88888987810055E
:101C40000808060000C0F88888888888F805050517
:101C50000600012030F8302005080806000020703A
:101C6000F820202020E00509090600FF2070A8A820
:101C7000B888887020070505070001D86C366CD835
:101C80000509090600FFF8A88888888888A8F8054B
:101C90000A0A0600FE205050505088A8A8887003F9
:101CA000030306000340A040FFFFFFFFFFFFFFFF0D
:101CB000FFFFFFFFFFFFFFFFFFFFFFFFFFFF000032
:101CC000000605FF01070706020080808080800073
:101CD00080030303060105A0A0A005060606000078
:101CE00050F85050F8500509090600FF2070A8A0D0
:101CF0007028A87020050707060000C8C8102040FB
:101D0000989805070706000040A0A040A890680129
:101D100003030602058080800309090601FF2040B5
:101D2000408080804040200309090601FF80404038
:101D300020202040408005070706000020A87020D2
:101D400070A8200505050600012020F820200203C8
:101D5000030601FFC04080050101060003F80202EE
:101D600002060100C0C00507070600000810102089
:101D7000404080050707060000708898A8C8887052
:101D800003070706010040C040404040E005070748
:101D9000060000708808102040F8050707060000BC
:101DA000F80810300888700507070600001030504A
:101DB00090F81010050707060000F880F008088862
:101DC00070050707060000304080F088887005071E
:101DD00007060000F808101020202005070706005D
:101DE0000070888870888870050707060000708872
:101DF0008878081060020505060100C0C000C0C058
:101E00000206060601FFC0C000C0408003050506AB
:101E100001012040804020050303060002F800F87D
:101E200003050506010180402040800507070600E4
:101E30000070881020200020050707060000708829
:101E4000B8A8B88070050707060000708888F88871
:101E50008888050707060000F04848704848F005E4
:101E600007070600007088808080887005070706D5
:101E70000000F04848484848F0050707060000F809
:101E80008080F08080F8050707060000F88080F069
:101E90008080800507070600007088808098887021
:101EA000050707060000888888F8888888030707E0
:101EB000060100E04040404040E005070706000002
:101EC000381010101090600507070600008890A0D9
:101ED000C0A0908805070706000080808080808071
:101EE000F805070706000088D8A8888888880507AD
:101EF000070600008888C8A8988888050707060094
:101F00000070888888888870050707060000F088B8
:101F100088F080808005070706000070888888A800
:101F20009068050707060000F08888F0A0908805F3
:101F3000070706000070888070088870050707068C
:101F40000000F82020202020200507070600008838
:101F50008888888888700507070600008888888830
:101F600050502005070706000088888888A8A850D8
:101F70000507070600008888502050888805070755
:101F80000600008888502020202005070706000052
:101F9000F80810204080F80309090601FFE080805E
:101FA0008080808080E00507070600008040402098
:101FB0001010080309090601FFE02020202020203E
:101FC00020E00503030600052050880501010600F6
:101FD000FEF8030303060105804020050505060001
:101FE0000070087888780507070600008080F08870
:101FF0008888F00505050600007080808870050758
:102000000706000008087888888878050505060016
:10201000007088F08070050707060000304840E037
:102020004040400507070600FE70888888780870E1
:102030000507070600008080F08888888803070766
:102040000601004000C0404040E00409090601FECE
:102050001000301010101090600507070600008077
:10206000808890E09088030707060100C040404048
:102070004040E0050505060000D0A8A8A8A8050571
:1020800005060000B0C888888805050506000070B0
:10209000888888700507070600FEF0888888F08029
:1020A000800507070600FE788888887808080505F7
:1020B00005060000B0C88080800505050600007890
:1020C000807008F00507070600002020F820202077
:1020D0001805050506000088888898680505050626
:1020E000000088888850200505050600008888A81B
:1020F000A8500505050600008850205088050707F0
:102100000600FE88888850204080050505060000EE
:10211000F8102040F80309090601FF2040404080E4
:10212000404040200109090602FF808080808080B5
:102130008080800309090601FF8040404020404024
:10214000408005030306000248A890FF2053697AE7
:10215000653A20005072696E742066726F6D204D72
:102160006564696100205A3A200020593A200042F3
:10217000656420583A20005072696E742050617571
:102180007365640020746F6F206C6F6E67206578D4
:1021900074727573696F6E2070726576656E7465A2
:1021A000640A0043616E6E6F74206F70656E2073F9
:1021B0007562646972200053442063617264206F09
:1021C0006B0A006F70656E526F6F74206661696C88
:1021D00065640A00766F6C756D652E696E69742092
:1021E0006661696C65640A004E6F20534420636128
:1021F00072640A004D3234004D3233202573006F73
:1022000070656E206661696C65642C2046696C653A
:102210003A200046696C652073656C65637465647B
:102220000A0046696C65206F70656E65643A20002F
:10223000454E4420535542524F5554494E450A008D
:102240002220706F73002220706172656E743A22D2
:1022500000535542524F5554494E452043414C4C32
:10226000207461726765743A220053756263616C11
:102270006C204F766572666C6F7700457863656594
:10228000646564206D617820535542524F5554491E
:102290004E452064657074683A310A00646F696E57
:1022A00067004E6F7720002020506C616E6E657263
:1022B00042756666657242797465733A20002046FD
:1022C000726565204D656D6F72793A2000436F6DC0
:1022D00070696C65643A2041707220203120323080
:1022E00032320A00204C6173742055706461746549
:1022F000643A20323032322D30342D3031207C207F
:10230000417574686F723A20285A4F4E45535441B4
:10231000522C2048616C6C79290A006D61726C69DD
:102320006E2D322E302E380A004D61726C696E00AF
:1023300020536F6674776172652052657365740A05
:1023400000205761746368646F6720526573657419
:102350000A002042726F776E206F75742052657389
:1023600065740A002045787465726E616C20526550
:102370007365740A00506F77657255700A00617555
:10238000746F25632E67004732385859004D31303D
:102390003031006572726F722077726974696E678E
:1023A00020746F2066696C650A00446F6E65207347
:1023B0006176696E672066696C652E0A004D323958
:1023C00000456E6473746F7073002553202563207D
:1023D000256320256320256300656E6473746F7028
:1023E00073206869743A20004D6F76652025736DFF
:1023F0006D004D6F766520302E316D6D004D6F761E
:102400006520316D6D004D6F76652031306D6D004A
:102410004D6F7665204178697300457874727564F4
:102420006572004D6F7665205A004D6F76652059B4
:10243000004D6F766520580050726F62696E67209C
:102440004661696C65640A0050726F62696E67204C
:102450004661696C656400220A00556E6B6E6F7789
:102460006E20636F6D6D616E643A2022005A3646AD
:10247000422052656164792E005072696E74696EF3
:10248000672E2E2E00204D393220580020453A006C
:10249000205A3A0020593A007C3C3E5E2B3D3F2FAB
:1024A0005B5D3B2C2A225C00FFE0FFD1AFFF32FFD7
:1024B000D0FFFEFFE0FFD1AEFFD0FFFEFFE0FFD177
:1024C0001002FFFEFFD0FFE0FFC1FFD1AED580A814
:1024D0003FD300408D142002A1C8DA1281CFD9F178
:1024E000DB402EA4A6AFFFD0FFFE00002100240099
:1024F00027002A0010014A0130013B01400136014A
:1025000050012C017001270190012201B0011D0131
:10251000C0011801F001130110020E01300209017F
:10252000600204019002FF00C002FA000003F500FF
:102530002003F0004003EB006003E6008003E100AD
:10254000B003DC00F003D7004004D200E004CD006B
:10255000C005C8004006C300E006BE008007B90001
:10256000C008B4004009AF00C009AA00B00AA50025
:10257000B00BA000D00C9B00000E9600C010910084
:1025800050128C0000148700C0158200B0177D0027
:10259000C01A7800C01D730040206E0090226900B0
:1025A000F024640040275F0090295A00E02B55007A
:1025B000102E500020304B0010324600E033410016
:1025C00090353C001037370070383200A0392D00AC
:1025D000B03A2800A03B2300603C1E00103D1900CB
:1025E000903D1700103E1400803E1200203F0F0067
:1025F000603F0C00903F0800B03F0500D03F000056
:10260000F03FFBFF00002200250028002B00020203
:102610000202020202020404040404040404030388
:10262000030303030303010101010101010101028D
:10263000040810204080010204081020408001029C
:10264000040810204080804020100804020100008F
:1026500000010200090A000000000403080700004E
:102660000000000000000000000000000000DB0F80
:10267000C93F45BCDA3F8FB30240FCF02740569477
:102680006140FE4B9B4084A5D840E0231841346A4A
:102690005641E859974164DBD5416E271742B4B7DC
:1026A0005542CE1A9742C8AED542B5885A43D40691
:1026B00084BFA65FA7BF7443E0BF10B11AC01C2C33
:1026C00058C0E8F697C0B849D6C04E4E17C124D3BB
:1026D00055C1802497C1A0B5D5C1121A17C244AE06
:1026E00055C2781797C26CACD5C267885AC321DF30
:1026F0008CE411241FBECFEFD0E4DEBFCDBF12E0CB
:10270000A0E0B1E0EAE8F5EE01E00BBF02C00790FF
:102710000D92AA32B107D9F722E1AAE2B2E001C0D4
:102720001D92A536B207E1F713E1C8E7D3E104C073
:102730002197FE010E9411F0C737D107C9F70E9407
:1027400013E00C94B8F20C9400008F929F92AF9219
:10275000BF92CF92DF92EF92FF92CF93FC01C080A5
:10276000D180E280F38020E030E040E251E4C70114
:10277000B6010E9492E920E030E04AE754E40E946A
:1027800092E94B015C0120E030E0A901C701B601EC
:102790000E942CE920E030E040EA50E487FF04C0CA
:1027A00020E030E040EA50ECC501B4010E9435F071
:1027B00020E030E040E251E40E94B8F00E942AF1AB
:1027C0006B017C018BE2F7FE09C0F094E094D09499
:1027D000C094C11CD11CE11CF11C8DE280936207E6
:1027E000C701B60120E137E240E050E00E94F2EF7D
:1027F0008AE0882E912CA12CB12CCA01B901A50127
:1028000094010E94F2EF605D60936307C701B60117
:1028100028EE33E040E050E00E94F2EFCA01B90137
:10282000A50194010E94F2EF605D609364078EE25F
:1028300080936507C701B60124E630E040E050E030
:102840000E94F2EFCA01B901A50194010E94F2EFC2
:10285000605D60936607C701B601A50194010E94FF
:10286000F2EFC62FCA01B901A50194010E94F2EF4F
:10287000605D60936707C05DC093680782E697E07C
:10288000CF91FF90EF90DF90CF90BF90AF909F904F
:102890008F9008958F929F92AF92BF92CF92DF92C6
:1028A000EF92FF92FC01C080D180E280F38020E0B3
:1028B00030E040E251E4C701B6010E9492E920E015
:1028C00030E040E251E40E9492E94B015C0120E0DB
:1028D00030E0A901C701B6010E942CE920E030E0F8
:1028E00040EA50E487FF04C020E030E040EA50ECCA
:1028F000C501B4010E9435F020E030E040E251E42F
:102900000E94B8F00E942AF19B018BE237FF05C0BC
:1029100022273327261B370B8DE280936307C901DB
:1029200068EE73E00E94DEEFCB01EAE0F0E0BF0169
:102930000E94DEEF805D80936407C90164E670E069
:102940000E94DEEFCB01BF010E94DEEF805D80932D
:102950006507C901BF010E94DEEF282FCB01BF012F
:102960000E94DEEF805D809366078EE280936707AA
:10297000205D2093680783E697E0FF90EF90DF905B
:10298000CF90BF90AF909F908F9008959C0197FF3C
:1029900026C0EE27FF27E81BF90B2D398FEF3807EC
:1029A0000CF05DC08DE280936507CF0164E670E0B6
:1029B0000E94DEEFCB012AE030E0B9010E94DEEF99
:1029C000805D80936607CF01B9010E94DEEFCB01E5
:1029D000B9010E94DEEF805D809367072AC0283E20
:1029E00083E03807B4F1C90168EE73E00E94DEEFBE
:1029F000CB01EAE0F0E0BF010E94DEEF805D809352
:102A00006507C90164E670E00E94DEEFCB01BF01FB
:102A10000E94DEEF805D80936607C901BF010E94BE
:102A2000DEEFCB01BF010E94DEEF805D8093670780
:102A3000F901CF016AE070E00E94DEEF805D8093D3
:102A4000680785E697E008958DE237FDC5CF80E2FF
:102A5000C3CFF90180E2243631050CF0A4CF80E227
:102A60008093650780936607EA30F1056CF38DE289
:102A700037FF80E280936607CF016AE070E00E9432
:102A8000DEEF605D60936707D4CF9C0180E224365F
:102A9000310558F0C90164E670E00E94CAEFCB012D
:102AA0006AE070E00E94CAEF805D8093660780E272
:102AB0002A30310558F0EAE0F0E0C901BF010E9478
:102AC000CAEFCB01BF010E94CAEF805D8093670708
:102AD000C9016AE070E00E94CAEF805D80936807D8
:102AE00086E697E0089524E6829FC001112481586C
:102AF0009F4F6FEF70E00E94DEEF262F81E3643678
:102B000009F080E28093650790E22A3040F03AE0D5
:102B1000822F632F0E94B0EF0E94B0EF905D9093E0
:102B20006607822F6AE00E94B0EF905D909367077E
:102B300085E28093680785E697E00895FC01A0810F
:102B4000B1811C92A281B3818C918F5F8C930280A2
:102B5000F381E02D90818CE0989F800D1124E9EAAB
:102B6000FDE013AE84AF0895089560912401709143
:102B70002501072E000C880B990B0E9433E92AE0EF
:102B800037ED43E25CE30E9492E960935E0170934B
:102B90005F018093600190936101089580917507B2
:102BA000811104C080915A078093D9070895CF936B
:102BB000DF93EC01CB01BA010E9433E920E030E061
:102BC000A9010E9435F00E942AF179836883DF9180
:102BD000CF910895CF93DF93EC01CB01BA010E940E
:102BE00033E920E030E0A9010E9435F00E9431F184
:102BF00079836883DF91CF9108950E9433E920E0C3
:102C000030E0A9010E9435F00E9431F1CB010C9413
:102C10004515CF93DF93EC01CB01BA010E9433E954
:102C200029EC38EC48EC5EE30E94B8F020E030E09C
:102C300040E05FE30E9435F00E9431F16883DF914C
:102C4000CF9108950E9433E929EC38EC48EC5EE31B
:102C50000E94B8F020E030E040E05FE30E9435F0F1
:102C60000E9431F1862F0C9473158091260190916A
:102C700027010C946B74E091750786E0E802F0017F
:102C80001124E959FD4F80915A0790E09583848380
:102C90000895CF93DF93EC01CB01BA010E9433E991
:102CA00020E030E04AE754E40E94B8F020E030E051
:102CB000A9010E9435F0688379838A839B83DF9121
:102CC000CF910895CF93DF93EC01CB01BA010E941D
:102CD00033E920E030E040E251E40E94B8F020E027
:102CE00030E0A9010E9435F0688379838A839B8351
:102CF000DF91CF910895CF93DF93EC01CB01BA011F
:102D00000E9433E920E030E040E251E40E94B8F054
:102D100020E030E0A9010E9435F0688379838A833E
:102D20009B83DF91CF910895CF93DF93EC01CB018B
:102D3000BA010E9433E920E030E048EC52E40E94FE
:102D4000B8F020E030E0A9010E9435F06883798373
:102D50008A839B83DF91CF910895CF93DF93EC011A
:102D6000CB01BA010E9433E92AE037ED43E25DE38B
:102D70000E94B8F020E030E0A9010E9435F00E94E6
:102D800031F1688379838A839B83DF91CF910895A2
:102D9000CF93DF93EC01CB01BA010E9433E920E02D
:102DA00030E0A9010E9435F0688379838A839B8390
:102DB000DF91CF910895CF93DF93EC01CB01BA015E
:102DC0000E9433E920E030E0A9010E9435F06883D9
:102DD00079838A839B83DF91CF910895CF93DF938B
:102DE000EC01CB01BA010E9433E92AE037ED43E25E
:102DF0005DE30E94B8F020E030E0A9010E9435F0C8
:102E0000688379838A839B83DF91CF9108950F93A1
:102E10001F930E94D3CD0091E3021091E402209110
:102E2000E5023091E602601B710B820B930B97FD5C
:102E30000CC083B182FB882780F991E089274C9BE5
:102E40008260029B84608093E2028091E202817042
:102E50009091E20291FD82609091E102981749F011
:102E6000813009F148F0823079F0833091F080931D
:102E7000E1021F910F910895913079F09230B9F7E6
:102E80009091E00291500CC0992339F09330C1F336
:102E9000EECF9130A9F3923051F79091E0029F5F0D
:102EA0009093E002E4CF992359F3933001F7F5CFE3
:102EB000CF92DF92EF92FF92CF93C82F0E94D3CD93
:102EC0006B017C0124EA30E74DE75FE3609102018A
:102ED0007091030180910401909105010E942CE9F9
:102EE00087FD18C08AEF90E0A0E0B0E08C0D9D1D3A
:102EF000AE1DBF1D8093D4029093D502A093D6023D
:102F0000B093D702C0930601CF91FF90EF90DF906E
:102F1000CF90089580E090E0DC01E8CF0C94DFCD05
:102F20000C94DFCDCF93C82FCB010E94758580E62E
:102F300098E00E94758589E994E0CC2311F08EE930
:102F400094E00E9475858AE0CF910C946E850F9372
:102F50001F93CF93811113C0C42F8B010E94AA85A8
:102F600082E396E00E947585C8010E947585CC2396
:102F700031F08AE0CF911F910F910C946E85CF9123
:102F80001F910F910895CF93DF938091950D9091AC
:102F9000960D891B80958F7019F40E94C08CF5CF17
:102FA0008091950D8F5F8F70A091950D9BE4A99FE7
:102FB000D0011124FD01E651F84FEF0119929A95C5
:102FC000E9F798E09083A150B84F90E1E7E9FDE080
:102FD00001900D929A95E1F72091950D9091960DA3
:102FE000291303C094E69093920D8093950DDF9181
:102FF000CF910C949C84CF92DF92EF92FF920F932B
:103000001F93C12CD12C76018C012EE631E04AE6CB
:1030100051E066E671E082E691E00E9425C51F91CD
:103020000F91FF90EF90DF90CF90089580E090E0B7
:10303000A0EAB0E480936A0190936B01A0936C01C5
:10304000B0936D018DEC91E00E94FB178091A60278
:103050008130E9F1F4F4882329F185EC91E00E94B4
:10306000FB178DEC9CECACECBDE380936A01909374
:103070006B01A0936C01B0936D018DEC91E00E9407
:10308000FB178091A6028F5F84309CF58093A60287
:103090000895823049F1833001F780E090E0A0E7A5
:1030A000B1E419C080E090E0A0E7B1E48093620150
:1030B00090936301A0936401B093650180936601CE
:1030C00090936701A0936801B0936901C6CF80E037
:1030D00090E0A7E0B3E48093620190936301A09332
:1030E0006401B0936501B9CF80E090E0A7E0B3E45C
:1030F000E5CF1092A602089520E040E070E060E085
:103100008AEF98E10E948D7081E0809334021092E2
:10311000900710928F07089520E040E070E060E093
:1031200081EF9BE10C948D7021E020933402609339
:10313000020170930301809304019093050120E044
:1031400040E070E060E080915807909159070C943E
:103150008D706DEC7CEC8CEC9CE30C9494186DEC15
:103160007CEC8CEC9DE30C94941860E070E080E8BB
:103170009FE30C94941860E070E080E291E40C947A
:10318000941881E0809334028091790787708730AA
:1031900051F010927907109245028BE194E09093E0
:1031A000CF058093CE05809197028093A70280E09F
:1031B0000E94C98320E040E070E060E082EE9DE183
:1031C0000C948D700C94B9718091A7020E94C983F0
:1031D000109234020C94B971CF93DF93CDB7DEB760
:1031E00020E24F8158856E818D810E9486C9DF91D2
:1031F000CF910895CF92DF92EF92FF92CF93DF931A
:1032000000D000D0CDB7DEB780915307109253079E
:10321000882379F0109234020E94B9710F900F90B8
:103220000F900F90DF91CF91FF90EF90DF90CF90B4
:10323000089580916F0790917007A0917107B091E8
:1032400072070097A105B10569F010926F071092FF
:103250007007109271071092720721E020935101BC
:103260000E9415CE809151018823C1F2C090E207DF
:10327000D090E307E090E407F090E50760918F07B6
:1032800070919007072E000C880B990B0E9433E970
:10329000A70196010E9492E969837A838B839C83BC
:1032A000CE0101960E94A513BC018CED91E00E9415
:1032B00033768091E10D803408F0B0CF8091E30D3A
:1032C000843308F4ABCF83E00E945A741092E40D6B
:1032D0008EE38093E50D8EE494E00E94CD756AE361
:1032E00070E080E090E00E949C7460918B07709188
:1032F0008C07072E000C880B990B0E9433E9A7015D
:1033000096010E9492E969837A838B839C83CE0124
:1033100001960E94A5130E942F7680CFCF93DF9352
:1033200000D000D0CDB7DEB780915307109253077D
:10333000882359F0109234020E94B9710F900F90B7
:103340000F900F90DF91CF91089560916F0770916A
:103350007007809171079091720761157105810561
:10336000910561F10E9433E920910201309103013E
:1033700040910401509105010E9492E920916E0153
:1033800030916F0140917001509171010E9435F0B0
:1033900060936E0170936F0180937001909371013F
:1033A00083E00E94581781E08093510110926F07CB
:1033B000109270071092710710927207809151015C
:1033C000882309F4BBCF20E030E0A90160916E01B1
:1033D00070916F0180917001909171010E9435F0A0
:1033E0002091540730915507409156075091570747
:1033F0000E9434F069837A838B839C83CE0101968B
:103400000E944A14BC018AE194E20E94337696CF6E
:103410002F923F924F925F926F927F928F929F92E4
:10342000AF92BF92CF92DF92EF92FF920F931F93D2
:10343000CF93DF93CDB7DEB728970FB6F894DEBFF2
:103440000FBECDBF5C01062F80915307109253072A
:103450008823E9F0109234020E94B97128960FB6C1
:10346000F894DEBF0FBECDBFDF91CF911F910F91BA
:10347000FF90EF90DF90CF90BF90AF909F908F9094
:103480007F906F905F904F903F902F900895809124
:103490006F0790917007A0917107B09172078D83AB
:1034A0009E83AF83B887892B8A2B8B2B09F456C058
:1034B00080910A01882309F4A8C080910B01811131
:1034C000A4C0613009F48FC0623009F495C0C09087
:1034D0001801D0901901E0901A01F0901B01802E84
:1034E000912C6D817E818F8198850E9433E9209196
:1034F00002013091030140910401509105010E94A5
:1035000092E9880C991C880C991CD401AE59BE4FC5
:103510001D012D913D914D915C910E9435F02B0143
:103520003C018D819E81AF81B885B7FF80C020E0CE
:1035300030E543EC57ECC301B2010E942CE987FD52
:103540006CC0F401EE59FE4F408251826282738258
:10355000802F0E94581781E08093510110926F07CD
:1035600010927007109271071092720780915101AA
:10357000882309F473CFB4E00B9F80011124F80174
:10358000EE59FE4F20E030E0A90160817181828117
:1035900093810E9435F0F801EF5FFD4F208131816A
:1035A000428153810E9435F06B017C01C982DA822D
:1035B000EB82FC822DEC3CEC4CEC5DE36091020173
:1035C0007091030180910401909105010E94B8F16E
:1035D00087FD3DC0CE0101960E944A14BC01C50181
:1035E0000E9433763BCFC0901C01D0901D01E0902B
:1035F0001E01F0901F0173CFC0902001D0902101D7
:10360000E0902201F09023016ACFC12C30E5D32E47
:1036100033ECE32E37E4F32E62CF80E090E5A3ECA9
:10362000B7ECF10180839183A283B38391CFA7018B
:103630009601C301B2010E94B8F118160CF081CFB7
:10364000D101CD92DD92ED92FC92139781CF20E0D3
:1036500030E040E251E4C701B6010E9492E920E067
:1036600030E04AE754E40E9492E92B013C0120E05B
:1036700030E0A901C701B6010E942CE920E030E04A
:1036800040EA50E487FF04C020E030E040EA50EC1C
:10369000C301B2010E9435F020E030E040E251E485
:1036A0000E94B8F00E942AF16B017C01F7FC62C015
:1036B00020EA36E841E050E00E94F2EFCA01B90189
:1036C0002AE030E040E050E00E94F2EF605D60935D
:1036D0006207C701B60120E137E240E050E00E94F6
:1036E000F2EF8AE0482E512C612C712CCA01B901ED
:1036F000A30192010E94F2EF605D60936307C7012E
:10370000B60128EE33E040E050E00E94F2EFCA013B
:10371000B901A30192010E94F2EF605D609364071A
:103720008EE280936507C701B60124E630E040E0F1
:1037300050E00E94F2EFCA01B901A30192010E9478
:10374000F2EF605D60936607C701B601A3019201C5
:103750000E94F2EF162FCA01B901A30192010E9443
:10376000F2EF605D60936707105D1093680782E673
:1037700097E034CFF094E094D094C094C11CD11C55
:10378000E11CF11C6DE2A3CF62E083E294E20C94B1
:10379000081A61E08AE294E20C94081A60E081E37E
:1037A00094E20C94081A0E9433E920E030E048ECDF
:1037B00052E40E94B8F020E030E0A9010E9435F008
:1037C0000C94227064EC7BE182E00C9408DD69ECDF
:1037D0007BE181E00C9408DD6EEC7BE180E00C94F1
:1037E00008DD6EE879E183E00C9408DD8091FA0E43
:1037F0008823D1F081508093FA0EEEE6FDE0882315
:1038000051F08150990B2BE1289FF001299FF00D79
:103810001124E451F24F8BE1A3E5BDE001900D923C
:103820008A95E1F70E94DFD82091FA0E211105C098
:103830008091040F80628093040F81E090E0A0E00B
:10384000B0E0211103C080E090E0DC0180936F07BD
:1038500090937007A0937107B093720710926A0754
:1038600081E080936C0783E0809351010895AF92CB
:10387000BF92CF92DF92EF92FF920F931F93CF935D
:10388000DF93CDB7DEB7ADB6BEB68091A10764E9D0
:1038900077E0882311F061EA77E0FB0101900020D6
:1038A000E9F7CF01861B970B01962DB73EB7281B72
:1038B000390B0FB6F8943EBF0FBE2DBF8DB79EB724
:1038C00001967C0180E2EDB7FEB78183C7010196C6
:1038D0000E9489F282EAC82E83E0D82E0BED13E015
:1038E00022EE38E147EE5CE168E272E081EE93E0BF
:1038F0000E9431730FB6F894BEBE0FBEADBEDF910D
:10390000CF911F910F91FF90EF90DF90CF90BF90DC
:10391000AF900895CF92DF92EF92FF920F931F9393
:1039200082EAC82E83E0D82EF12CE12C09EA13E0BC
:1039300022EE38E147E35CE46AE673E08FE693E069
:103940000E9431731F910F91FF90EF90DF90CF9005
:103950000895CF92DF92EF92FF920F931F9382EA26
:10396000C82E83E0D82EF12CE12C01EB12E024EEDE
:1039700038E146E158E16DEB72E082EC92E00E94A2
:1039800031731F910F91FF90EF90DF90CF900895CA
:10399000CF92DF92EF92FF920F931F9382EAC82E8D
:1039A00083E0D82EF12CE12C04E312E030E020E09B
:1039B00043E05AE668E272E08FE292E00E943173DF
:1039C0001F910F91FF90EF90DF90CF90089584E9C1
:1039D00097E00E9454D20E94B1710C941BC667ED0F
:1039E00075E180EA95E40C94B2766AEE75E18DEFAC
:1039F00095E10C94B27669E076E182E296E10C946E
:103A0000B27669E476E181E09EE10C94B2766BE7F0
:103A100076E180E49EE10C94B27664E976E183ED90
:103A20009BE10C94B27662E676E18FE49EE10C9421
:103A3000B2766DEA76E18EE59EE10C94B2766BED9E
:103A400076E18DE19AE60C94B2766EEE76E18EE048
:103A50009AE60C94B27668EC76E18DE69EE10C94E1
:103A6000B2762F923F924F925F926F927F928F9297
:103A70009F92AF92BF92CF92DF92EF92FF920F93FD
:103A80001F93CF93DF93CDB7DEB729970FB6F89486
:103A9000DEBF0FBECDBF1C017987688769011A831D
:103AA0000983EB82BA01550F880B990B0E9433E909
:103AB00020E030E0A9010E9435F04B015C0120E0DC
:103AC00030E040E05FEC0E94B8F118162CF0812C39
:103AD000912CA12C2FECB22EC501B4010E942AF129
:103AE0002B013C01B601DD0C880B990B0E9433E9D8
:103AF00020E030E0A9010E9435F04B015C0120E09C
:103B000030E040E05FE40E942CE987FD05C0812C95
:103B1000912CA12C9FE4B92EE885F98560817181F3
:103B2000072E000C880B990B0E9433E920E030E04F
:103B3000A9010E9435F06B017C01C301B2010E9412
:103B400033E99B01AC01C701B6010E9434F00E9429
:103B500031F16C837D838E839F83C501B4010E9404
:103B60002AF17B018C01E418F50806091709FB818D
:103B7000FF9389809A808FEEA82E8CE1B82ECC809E
:103B8000DD80A301920168857985C1010E943D71A4
:103B90000F9029960FB6F894DEBF0FBECDBFDF9110
:103BA000CF911F910F91FF90EF90DF90CF90BF903A
:103BB000AF909F908F907F906F905F904F903F90CD
:103BC0002F90089580915101882331F041E067ECF6
:103BD00072E082E00E9429C9809145028770873097
:103BE00079F41092A60220E040E070E060E089EAFB
:103BF0009CE10E948D7081E080932A020C9416183B
:103C00000895CF92DF92EF92FF92CF93DF9300D08F
:103C100000D0CDB7DEB70E9433E920E030E04AE7BC
:103C200054E40E94B8F020E030E0A9010E9435F091
:103C30006B017C0120E030E0A9010E942CE92DEB12
:103C400037E346E055E387FF04C02DEB37E346E05A
:103C500055EBC701B6010E9435F069837A838B83E7
:103C60009C83CE0101960E944FCA0F900F900F9037
:103C70000F90DF91CF91FF90EF90DF90CF9008955C
:103C80000E9433E920E030E040E251E40E94B8F0C5
:103C900020E030E0A9010E9435F00C94276F0E94CB
:103CA00033E920E030E040E251E40E94B8F020E047
:103CB00030E0A9010E9435F00C94A66E0E9433E911
:103CC0002AE037ED43E25DE30E94B8F020E030E007
:103CD000A9010E9435F00C948D6E0E9433E920E01A
:103CE00030E0A9010E9435F00C945570BF92CF923C
:103CF000DF92EF92FF920F931F93CF93DF930E9477
:103D0000F9C9C0916A0785E0C82ECC0ED4E0DC1B4F
:103D100013E01C1B82E0F82EFC1A81E0E82EEC1A5E
:103D2000BC2EB194C11130C080916D078823B1F0D1
:103D300080915101882359F081E090916D07911194
:103D400080E024E046E152E06B2D0E9486C9CF5FFF
:103D5000CC11E8CF85E080936B070CC080915307AE
:103D600010925307882321F30E94B97180916C0748
:103D70008823F1F2DF91CF911F910F91FF90EF9087
:103D8000DF90CF90BF900895C130B9F580916D0755
:103D90008130F1F0809151018823C9F2DD24D39460
:103DA00080916D07813009F0D12C6091B10C709138
:103DB000B20C8091B30C9091B40C0E94276F00E07C
:103DC0009C014BE052E06E2D8D2D0E944E77BFCFAF
:103DD00080915307109253078823E1F20E945DCB34
:103DE00043E95CE661EB7CE08BE092E00E941ACC58
:103DF00080916C07882371F2BDCFC23009F07FC07B
:103E000080916D078230E1F080915101882309F49F
:103E10009ECFDD24D39480916D07823009F0D12CA0
:103E20006091B50C7091B60C8091B70C9091B80C64
:103E30000E94276F00E09C0140E052E06F2DC4CF4C
:103E400080915307109253078823F1F20E945DCBB3
:103E500041E95CE665EB7CE080E092E00E941ACCF0
:103E600080916C07882381F285CF80916D07833024
:103E7000E1F080915101882309F469CFDD24D394C6
:103E800080916D07833009F0D12C6091B90C70914D
:103E9000BA0C8091BB0C9091BC0C0E94276F00E083
:103EA0009C0145EF51E0612F8FCF80915307109215
:103EB00053078823F1F20E945DCB4FE85CE669EB83
:103EC0007CE085EF91E00E941ACC80916C078823FA
:103ED00081F250CF80915307109253078823C9F085
:103EE0000E945DCB4DE85CE66DEB7CE08AEE91E0F4
:103EF0000E941ACC80916C07882359F03BCFC330C5
:103F000009F4B3CFC43009F022CF80916D0784301B
:103F100009F380915101882309F419CFDD24D3944A
:103F200080916D07843009F0D12C6091BD0C7091A7
:103F3000BE0C8091BF0C9091C00C0E94276F00E0D6
:103F40009C014AEE51E06D2F3FCF61E0FC01808182
:103F50000E94AACC8FEF0C9441AD9F92AF92BF927A
:103F6000CF92DF92EF92FF920F931F93CF93DF9345
:103F70008C01C62FD22FB32EA42E952E60E0FC010B
:103F800080810E94AACC0E94D3CD6B017C01F8E510
:103F9000CF0EF2E0DF1EE11CF11C0E9454AD8F3FFA
:103FA00041F00E94D3CD6C197D098E099F0997FDC0
:103FB000F4CF8C2F80640E9441AD892D0E9441ADC9
:103FC0008A2D0E9441AD8B2D0E9441AD8D2F0E9404
:103FD00041AD87E8C11101C085E90E9441ADCC30F7
:103FE00011F40E9454ADC0E00E9454ADF8018383E7
:103FF00087FF04C0CF3F11F0CF5FF6CFDF91CF91A5
:104000001F910F91FF90EF90DF90CF90BF90AF90F6
:104010009F900895AF92BF92CF92DF92EF92FF925E
:104020000F931F93CF93DF93EC0159018C81833061
:1040300039F089E0440F551F661F771F8A95D1F725
:104040009A01AB0161E1CE010E94AD1F882391F07E
:1040500084E08983CE010E94A51F10E0812FDF91AB
:10406000CF911F910F91FF90EF90DF90CF90BF9075
:10407000AF9008950E94D3CD6B017C012CE2C20E5B
:1040800021E0D21EE11CF11C0E9454AD8B838F3FB6
:1040900061F40E94D3CD6C197D098E099F0997FDAB
:1040A000F3CF81E1898310E013C08E3FA9F485012D
:1040B00075018EEFF81A0E9454ADF80181938F01BB
:1040C000EE15FF05C1F70E9454AD0E9454AD11E0FA
:1040D000CE010E94A51FC2CF8FE0E4CF0F930FB790
:1040E0000F9300916E000B7F00936E0078940F93F6
:1040F0000BB70F930CB70F921F922F933F934F93D1
:104100005F936F937F938F939F93AF93BF93EF933F
:10411000FF9311240E94C928FF91EF91BF91AF91A5
:104120009F918F917F916F915F914F913F912F91CF
:104130001F900F900CBF0F910BBF0F910460F8946C
:1041400000936E000F910FBF0F91189580914E0153
:1041500090914F010F971816190614F490E080E023
:1041600090932A0D8093290D0E94DFCD10922B0D84
:1041700028981092A4021092A3021092A5022998E6
:1041800008951092D9070E94A6200C94B1718F92C5
:104190009F92AF92BF92CF92DF92EF92FF920F93D6
:1041A0001F93CF93DF93B8E3A0E06A2F70E0AB01D9
:1041B0004B0F511D55954795411119C0E5E4F2E1AA
:1041C00065917491072E000C880B990B0E9433E9BE
:1041D000DF91CF911F910F91FF90EF90DF90CF90E3
:1041E000BF90AF909F908F900895B42FE0CFA41709
:1041F00011F0B41303C0E1E2F3E1E2CF9A012150E0
:104200003109220F331F220F331FF901ED5BFD4EE1
:10421000E590F490F901E95BFD4EC591D4918E15BE
:104220009F051CF3A42FC817D9070CF4BECFF901C2
:10423000EB5BFD4E05911491F901E75BFD4EC590D6
:10424000D490BC016E197F09072E000C880B990BC6
:104250000E9433E94B015C01B601601B710B072E14
:10426000000C880B990B0E9433E99B01AC01C5013E
:10427000B4010E9492E94B015C01BE016E197F09F5
:10428000072E000C880B990B0E9433E99B01AC01AF
:10429000C501B4010E94B8F06B017C01B801110F97
:1042A000880B990B0E9433E99B01AC01C701B60151
:1042B0000E9435F08DCFCF93DF93C1E2DDE08A819C
:1042C0009B810E94C9B46C837D838E839F83CBE9DD
:1042D000D2E08A819B810E94C7206C837D838E837C
:1042E0009F83A89510929902DF91CF910895EF9244
:1042F000FF920F931F93CF93C82F7B018A01809168
:1043000052078130B1F40E94A685C7010E947585CD
:1043100085E498E00E947585C7FD21C06C2F0C2EA6
:10432000000C770B880B990B0E9419878AE00E947A
:104330006E850E94A62080917F03811115C081E0C7
:1043400080937F0380E88093520769E274E0CF3F57
:1043500011F06EE378E040E0C8010E94D28581E46C
:1043600098E00E947585E2CFCF911F910F91FF9049
:10437000EF9008952F923F924F925F926F927F92AB
:104380008F929F92AF92BF92CF92DF92EF92FF9265
:104390000F931F93CF93DF93CDB7DEB72F970FB651
:1043A000F894DEBF0FBECDBF80919902811119C074
:1043B0002F960FB6F894DEBF0FBECDBFDF91CF9121
:1043C0001F910F91FF90EF90DF90CF90BF90AF9033
:1043D0009F908F907F906F905F904F903F902F9025
:1043E00008950E945B210E94D3CD2B013C01609176
:1043F0004E0170914F01072E000C880B990B0E9403
:1044000033E99B01AC016091250D7091260D8091DF
:10441000270D9091280D0E94B8F118160CF42BC2AC
:104420006091290D70912A0D072E000C880B990BB5
:104430000E9433E96B017C0120918E0D30918F0D2C
:104440004091900D5091910D0E942CE98111B7C0BF
:1044500020918D0D29835981523009F4D2C15330F6
:1044600009F401C2513009F40EC2C090250DD0905C
:10447000260DE090270DF090280D60914C01709171
:104480004D01072E000C880B990B0E9433E9A70100
:1044900096010E942CE987FF11C060914E01709136
:1044A0004F01072E000C880B990B0E9433E9A701DE
:1044B00096010E94B8F118160CF499C060E0609360
:1044C0002B0D80911D0D90911E0DA0911F0DB0918F
:1044D000200D0097A105B10501F1A3019201281B50
:1044E000390B4A0B5B0BDA01C901B7FD16C06091AD
:1044F0001B0D70911C0D90E080E00E9431E9A70136
:1045000096010E94B8F118160CF0E8C143E858E093
:1045100062E978E080E00E94772180919503909194
:104520009603A0919703B0919803A3019201281BD1
:10453000390B4A0B5B0BDA01C901B7FD39CFD30147
:10454000C20188579C4EAF4FBF4F80939503909305
:104550009603A0939703B0939803C0909F02D090C6
:10456000A002E090A102F090A20220E030E0A901B8
:10457000C701B6010E94B8F187FD3FC120E030E0DD
:1045800042E053E4C701B6010E942CE918160CF46E
:1045900034C16091A3027091A402072E000C880B15
:1045A000990B0E9433E99B01AC01C701B6010E943F
:1045B0002CE987FDC2C180E08093A502F9CEC092AC
:1045C0008E0DD0928F0DE092900DF092910D31E012
:1045D000398320E030E0A901C701B6010E94B8F19B
:1045E00018160CF01982498140938D0D34CF6091DB
:1045F000290D70912A0D6115710509F4A0C1072ECE
:10460000000C880B990B0E9433E9A70196010E94C8
:1046100034F04B015C0120E030E040E251EC0E94BC
:104620002CE987FD8CC120E030E040E251E4C50177
:10463000B4010E94B8F118160CF495C1809194034E
:10464000811196C180918C0390918D03A0918E036E
:10465000B0918F0389839A83AB83BC8320919003AD
:104660003091910340919203509193032D833E83A7
:104670004F835887A7019601609180037091810351
:1046800080918203909183030E9434F02091340D35
:104690003091350D4091360D5091370D0E9492E9C1
:1046A00029813A814B815C810E9434F020ED3CEC01
:1046B0004CE45DE30E9492E929813A814B815C815F
:1046C0000E9435F069837A838B839C8360938C038B
:1046D00070938D0380938E0390938F038091300DA0
:1046E0009091310DA091320DB091330D89879A8749
:1046F000AB87BC872D813E814F815885C501B401B0
:104700000E9435F08B018F879E8720E030E0A90161
:104710000E942CE987FD37C129853A854B855C8548
:1047200060E070E08FE793E40E94B8F06D837D87CE
:104730001C0198014F855E850E942CE987FF04C00B
:104740000D811D852F863E86C801AF85BE8580936D
:10475000900390939103A0939203B09393032091BD
:104760002C0D30912D0D40912E0D50912F0DC50126
:10477000B4010E9492E94B015C0180928403909203
:104780008503A0928603B092870398014F855E85CA
:1047900069857A858B859C850E9492E99B01AC0195
:1047A000209388033093890340938A0350938B03AB
:1047B000C501B4010E9435F029813A814B815C81A9
:1047C0000E9435F020E030E0A9010E9435F04B0155
:1047D0005C0120E030E0A9010E942CE987FDB2C015
:1047E00020E030E04FE753E4C501B4010E94B8F186
:1047F00018160CF0B1C06FE7A6C01092A502299858
:10480000D7CDC090250DD090260DE090270DF090CB
:10481000280D80908E0D90908F0DA090900DB090EF
:10482000910D20E030E040E850E4C501B4010E9461
:1048300034F0A70196010E942CE918160CF03FC035
:104840000E94D3CDC090890DD0908A0DE0908B0D41
:10485000F0908C0D6C197D098E099F0997FD05CE8E
:1048600083E080938D0D43E658E063E778E080E0D5
:104870000E947721FACD41EA58E06EEA78E080E0C4
:104880000E947721CDCDC090250DD090260DE090CF
:10489000270DF090280D80908E0D90908F0DA09098
:1048A000900DB090910DA5019401C701B6010E9431
:1048B0002CE987FDE2CD82E080938D0DB2CF0E947E
:1048C000D3CD605C73468F4F9F4F6093890D70937B
:1048D0008A0D80938B0D90938C0DC7CDA090290DE0
:1048E000B0902A0DA114B104F9F0C701B6010E94DD
:1048F0002AF16E5F7F4F34E0A31AB1086A157B0579
:104900009CF470931C0D60931B0D0E94D3CD605ED0
:10491000714B8F4F9F4F60931D0D70931E0D8093B1
:104920001F0D9093200DF9CD10921D0D10921E0DAC
:1049300010921F0D1092200DF0CD8FE73DCE81E03B
:104940008093940360E0C0928003D0928103E09250
:104950008203F0928303B3CDC501B4010E942AF112
:1049600075956795F0CF81E0809394036FE7EBCF67
:10497000109294031D821E821F82188619821A8249
:104980001B821C8277CE00E010E01F861E86DCCEE4
:10499000CF92DF92EF92FF92CF93DF93EC01C8802A
:1049A000D980EA80FB8084E398E00E947585C70186
:1049B000B6010E941987CC80DD80EE80FF8084E9FB
:1049C00094E20E947585C701B6010E941987C884C8
:1049D000D984EA84FB8480E994E20E947585C7014A
:1049E000B6010E9419878AE0DF91CF91FF90EF9086
:1049F000DF90CF900C946E85BC01209161033091C3
:104A0000620340916103509162032417350731F42A
:104A100081E02617370709F080E008959A01F1CF69
:104A20000F930FB70F9300916E000F930B7F0093BE
:104A30006E0000916F000D7F00936F000F930BB716
:104A40000F930CB70F921F922F933F934F935F9347
:104A50006F937F938F939F93AF93BF93EF93FF9346
:104A600011240E946D2AFF91EF91BF91AF919F9108
:104A70008F917F916F915F914F913F912F911F90F7
:104A80000F900CBF0F910BBF0F910260F894009331
:104A90006F000F9100936E000F910FBF0F9118954B
:104AA0008091C00580FF23C0469A8FEF8093170343
:104AB0008091C005869580FF1DC043988FEF80933D
:104AC00018038091C0058695869580FF16C0409892
:104AD0008FEF809319038091C00586958695869502
:104AE00080FF0EC0159A8FEF80931A0308954698A1
:104AF00081E0DCCF439A81E0E2CF409A81E0E9CFC8
:104B0000159881E0F1CFAF92BF92CF92DF92EF92F2
:104B1000FF920F931F93CF93DF93CDE9DCE001EC7D
:104B200017E08DEAA82E8CE0B82EC12CD12C76018E
:104B3000C39469917991899199910E9431E9288969
:104B400039894A895B890E9492E90E9431F1F80112
:104B500061937193819391938F01C616D706E806EE
:104B6000F90610F46B017C01AC16BD0611F76FEF6E
:104B70007FEFCB01A70196010E9474EF2093D1072C
:104B80003093D2074093D3075093D407DF91CF914E
:104B90001F910F91FF90EF90DF90CF90BF90AF905B
:104BA00008950F931F93CF93DF9301EB1CE0CAEDA1
:104BB000D7E0F80121913191419151918F0160E04D
:104BC00070E080E89FE30E94B8F06993799389933D
:104BD0009993F7E0CA3EDF0761F70E94A1B5DF9124
:104BE000CF911F910F910C9483259091950D8091F9
:104BF000960D981306C080919A0C90919B0C892B6E
:104C000019F00E94C08CF1CF08959091950D80917C
:104C1000960D981308C080919A0C90919B0C892B4B
:104C200011F40C94DD840E94C08CEFCFCF93DF93FE
:104C300020919702222379F0EC010E94AF819B0121
:104C4000AC01688579858A859B850E9434F06887E8
:104C500079878A879B87DF91CF910895CF93DF93E0
:104C600020919702222379F0EC010E94AF819B01F1
:104C7000AC01688579858A859B850E9435F06887B7
:104C800079878A879B87DF91CF9108954F925F92B2
:104C90006F927F928F929F92AF92BF92CF92DF924C
:104CA000EF92FF920F931F93CF93DF93CDB7DEB7B1
:104CB0006A970FB6F894DEBF0FBECDBF9A8F898F6B
:104CC0005B018A01DC01D6966D917D918D919C915D
:104CD000D9970E9431E96B017C01F5012081318176
:104CE000428153810E9492E90E94A1F02B013C0174
:104CF000D8012D913D914D915C91C701B6010E9463
:104D000092E90E94A1F04B015C01C301B2010E9433
:104D100031F1698B7A8B8B8B9C8B683771058105A0
:104D2000910540F428E730E040E050E0298B3A8BD1
:104D30004B8B5C8BC501B4010E9431F16D877E877E
:104D40008F87988B683771058105910540F488E756
:104D500090E0A0E0B0E08D879E87AF87B88BE98DAB
:104D6000FA8DEE5BFF4F208131814281538129838F
:104D70003A834B835C83CA01B9010E9433E92B015A
:104D80003C0169897A898B899C890E9431E969870C
:104D90007A878B879C8720E030E0A901C301B201AC
:104DA0000E942CE9882309F43BC1A7019601C701A1
:104DB000B6010E9492E94B015C0129853A854B8539
:104DC0005C85CA01B9010E9492E99B01AC01C50151
:104DD000B4010E9434F04B015C01A3019201C301B4
:104DE000B2010E9435F09B01AC01C501B4010E94E3
:104DF000B8F00E94A1F00E9431F16D837E838F8311
:104E0000988769817A818B819C8190958095709536
:104E100061957F4F8F4F9F4F0E9433E94B015C019B
:104E20006D857E858F8598890E9431E969837A83B3
:104E30008B839C8320E030E0A901C501B4010E946E
:104E40002CE9882309F4F0C029813A814B815C81E7
:104E5000CA01B9010E9492E96D8B7E8B8F8B988F6E
:104E6000A7019601C701B6010E9492E99B01AC011E
:104E70006D897E898F89988D0E9434F06B017C0149
:104E8000A5019401C501B4010E9435F09B01AC015C
:104E9000C701B6010E94B8F00E9460F1A98DBA8DD9
:104EA00095968D909D90AD90BC90989775016401FA
:104EB0002D813E814F815885C21AD30AE40AF50A32
:104EC0000E9431F1C61AD70AE80AF90AF7FE6EC045
:104ED00020E030E0A901C301B2010E942CE988233F
:104EE00009F4A6C0C501B4010E9431E96B017C013F
:104EF000A3019201C301B2010E9435F09B01AC01F4
:104F0000C701B6010E9492E96B017C0129853A85AF
:104F10004B855C85CA01B9010E9492E99B01AC01F5
:104F2000C701B6010E9434F06B017C0129813A81EE
:104F30004B815C81CA01B9010E9492E99B01AC01DD
:104F4000C701B6010E9435F06B017C0120E030E022
:104F500040E850E4C301B2010E9492E99B01AC0118
:104F6000C701B6010E94B8F00E94A1F06B017C015C
:104F700020E030E0A9010E94B8F118161CF0C12C05
:104F8000D12C7601C701B6010E9431F16D837E8379
:104F90008F83988786169706A806B90620F48D8217
:104FA0009E82AF82B886C12CD12C76018D819E81E4
:104FB000AF81B885E98DFA8D81A792A7A3A7B4A781
:104FC000C80ED91EEA1EFB1EC5A6D6A6E7A6F0AAE5
:104FD00029893A894B895C8922AF33AF44AF55AFF9
:104FE000FE962D853E854F855889208331834283E7
:104FF00053836A960FB6F894DEBF0FBECDBFDF9124
:10500000CF911F910F91FF90EF90DF90CF90BF90C5
:10501000AF909F908F907F906F905F904F9008958A
:1050200060E070E0CB01E5CE60E070E0CB0134CF12
:1050300060E070E0CB0198CF90916F0081E091FD2E
:1050400002C080E0089590916F009D7F90936F0063
:105050000895CF93C82F0E941C2894E0C99F900107
:105060001124F901ED59FC4F21593C4FD9014D91C3
:105070005D916D917C91408351836283738391E054
:1050800090939802882319F0CF910C949C84CF912F
:105090000895CF92DF92EF92FF928091BF05811128
:1050A00005C080917A07882309F46EC08091F702C9
:1050B000359964C081608093F7028091F70232993C
:1050C0005FC082608093F7028091F7024D995AC0C9
:1050D00084608093F702C0905403C0FE10C080919A
:1050E000C00580FF0CC08091F70280FF08C080914E
:1050F000780781608093780780E00E942928D12C6E
:10510000F12CE12CD701C601B695A7959795879507
:1051100080FF11C08091C005869580FF0CC08091F2
:10512000F70281FF08C0809178078260809378073A
:1051300081E00E94292882E0F694E794D794C794EE
:105140008A95D1F7C0FE20C08091C00586958695CE
:1051500080FF1AC080917A078823B1F08091F7020E
:1051600082FF12C08091780784608093780782E084
:10517000FF90EF90DF90CF900C9429288E7F9BCFEB
:105180008D7FA0CF8B7FA5CFFF90EF90DF90CF904A
:1051900008950F931F93CF93DF9380912E018F3744
:1051A00008F451C08F5790912B0D90939D03992334
:1051B00009F445C0289A9091A50290939C039923E5
:1051C00009F43FC0299A20919A0230E0359527953D
:1051D00020939B03232B09F445C0139A8F5F809380
:1051E0002E0180919A0391E0892780939A0381117F
:1051F0000E94071780912D01C1E0C80F85300CF087
:10520000C0E0823009F4D7C07CF5882309F442C09D
:10521000813009F4C5C0C0932D010E9449288091B6
:105220009A0C90919B0C009729F0019790939B0CFE
:1052300080939A0CDF91CF911F910F910895289838
:10524000BACF2998C0CF90919D03891708F028986C
:1052500090919C03891708F0299890919B038917D6
:1052600008F4BCCF1398BACF843009F4BBC00CF457
:10527000B5C0853081F690919903911102C0809359
:10528000990380919903815080939903882319F29F
:10529000C5E0C1CF80912C018F5F80311CF48093D9
:1052A0002C01B9CF10922C0180919902811113C069
:1052B0008091210D9091220D9093240D8093230DC8
:1052C00080919B0290919C0290939E0280939D02FC
:1052D00081E0809399021092220D1092210D10927C
:1052E0009C0210929B020091230D1091240D80913D
:1052F000290D90912A0DD1E0181619062CF08091F5
:105300002B0D811101C0D0E080914A0190914B0199
:10531000081719073CF441EA58E06EEA78E080E0AB
:105320000E947721DD2371F080914801909149011D
:10533000801791073CF44EEB58E06BEC78E080E08E
:105340000E9477210091A3021091A40220919D0256
:1053500030919E028091BC059091BD0528173907B8
:105360003CF441EA58E06EEA78E08FEF0E94772142
:10537000101611060CF04FCF20919D0230919E0225
:105380008091460190914701821793070CF043CF1B
:105390004EEB58E06BEC78E08FEF0E9477213BCF2B
:1053A00010927B0081E480937C0080917A0080647D
:1053B00080937A0030CF80917A0086FD26C02091BC
:1053C0007800309179008091210D9091220D820F0B
:1053D000931F9093220D8093210D1DCF10927B007F
:1053E00080E4E1CF80917A0086FD11C020917800A1
:1053F0003091790080919B0290919C02820F931FC3
:1054000090939C0280939B0206CFC2E004CFC4E03D
:1054100002CF0E941C281092D5071092D607109236
:10542000D7071092D80781110C949C8408950F938C
:105430001F938091950D9091960D891B8F7009F4A3
:1054400049C09091920D992361F0833040F48FEF21
:10545000890F29F08093920D90E080E038C010927F
:10546000920D8091960D2BE4829FC00111248651EC
:10547000984FFC01208120FDEFCF4091D50750913E
:10548000D6076091D7077091D807E95BFF4F00817D
:10549000118122813381401B510B620B730B4093AE
:1054A000D5075093D6076093D7077093D8072091FC
:1054B000960D2F5F2F702093930D3091960D2091B4
:1054C000940D321304C02091930D2093940D1F91DD
:1054D0000F9108950E94092ABFCF2F923F924F92B9
:1054E0005F926F927F928F929F92AF92BF92CF9274
:1054F000DF92EF92FF920F931F93CF93DF9300D031
:1055000000D000D01F92CDB7DEB78FEF9FEF909302
:105510008900809388000AE00A83312C212C78943A
:1055200080915D0390915E03A0915F03B091600351
:10553000892B8A2B8B2B09F0DBC180919802882361
:10554000E1F0809161039091620310929802892B9F
:1055500009F4CEC1109262031092610310925403B9
:105560009091950D8091960D981709F4C1C1809185
:10557000960D8F5F8F708093960D8091610390914F
:105580006203892B09F4B4C14091590350915A0325
:1055900060915B0370915C03809155039091560379
:1055A000A0915703B09158030091470310E030E0F9
:1055B00020E0841B950BA60BB70B081719072A07C9
:1055C0003B0710F4D901C8018983840F951FA61FDA
:1055D000B71F8093590390935A03A0935B03B09332
:1055E0005C031F821E82E1E0C0901F03D090200365
:1055F000E0902103F090220380912F0390913003DB
:10560000A0913103B0913203C80ED91EEA1EFB1ED1
:10561000C0922F03D0923003E0923103F092320314
:10562000F7FC33C040911703042E000C550B660B9A
:10563000770B80916F0390917003A0917103B091EB
:105640007203840F951FA61FB71F80936F0390935B
:105650007003A0937103B093720380911B03909128
:105660001C03A0911D03B0911E03A7019601281BE6
:10567000390B4A0B5B0BDA01C90180932F0390931E
:105680003003A0933103B0933203009123031091B0
:1056900024032091250330912603809133039091B8
:1056A0003403A0913503B0913603080F191F2A1F48
:1056B0003B1F00933303109334032093350330933F
:1056C000360337FD33C040911803042E000C550BF0
:1056D000660B770B8091730390917403A09175030F
:1056E000B0917603840F951FA61FB71F8093730395
:1056F00090937403A0937503B093760380911B037A
:1057000090911C03A0911D03B0911E03B901A80143
:10571000481B590B6A0B7B0BDB01CA0180933303D7
:1057200090933403A0933503B0933603409127033D
:10573000509128036091290370912A0380913703C7
:1057400090913803A0913903B0913A03480F591F43
:105750006A1F7B1F409337035093380360933903CC
:1057600070933A0377FD33C080901903082C000C26
:105770009908AA08BB088091770390917803A091BB
:105780007903B0917A03880D991DAA1DBB1D8093E2
:10579000770390937803A0937903B0937A03809171
:1057A0001B0390911C03A0911D03B0911E032A01BD
:1057B0003B01481A590A6A0A7B0AD301C201809345
:1057C000370390933803A0933903B0933A03809042
:1057D0002B0390902C03A0902D03B0902E0380916A
:1057E0003B0390913C03A0913D03B0913E03880D93
:1057F000991DAA1DBB1D80933B0390933C03A0936E
:105800003D03B0933E03B7FD33C040901A03042C10
:10581000000C55086608770880907B0390907C0305
:10582000A0907D03B0907E03840C951CA61CB71C31
:1058300080927B0390927C03A0927D03B0927E03C2
:1058400080901B0390901C03A0901D03B0901E033A
:105850002C013D01481859086A087B085301420190
:1058600080923B0390923C03A0923D03B0923E0392
:10587000E1110DC0E0918400F09185004F016E8030
:105880007F8086189708E2E08E16910498F3F7FE61
:10589000479A37FF449A77FF419AB7FF149A40908E
:1058A0008400509085005F824E82A0908400B0906A
:1058B00085006E807F80A618B708E2E0AE16B104BE
:1058C000A0F3F7FE479837FF449877FF4198B7FF5A
:1058D0001498F981FF2331F04090840050908500A6
:1058E0005F824E82098101500983E0E001117CCE84
:1058F00080905A0190905B01A0905C01B0905D0196
:1059000081149104A104B10409F04AC080918D076B
:1059100090918E07009799F1E6B1E17017981816EB
:1059200019060CF0DFC0409A209184003091850068
:10593000419A4091840050918500421B530B70E0C6
:1059400060E0F3E0440F551F661F771FFA95D1F70B
:10595000403251056105710560F34198EE2309F469
:10596000C3C0409A181619060CF0C0C080918D076C
:1059700090918E07019790938E0780938D070E94D8
:10598000A284882309F4B8C080ED97E0A0E0B0E0DD
:1059900080935A0190935B01A0935C01B0935D01E9
:1059A00080915D0390915E03A0915F03B0916003CD
:1059B000892B8A2B8B2B09F050C4E0916103F09165
:1059C0006203309709F426C58091590390915A03D8
:1059D000A0915B03B0915C03409155035091560335
:1059E000609157037091580384179507A607B7076E
:1059F00008F486C01092620310926103109254035F
:105A00009091950D8091960D981709F403C580919A
:105A1000960D8F5F8F708093960D70EDC72E77E097
:105A2000D72EE12CF12C8091610390916203892B98
:105A300009F00BC40E94172A9093620380936103BC
:105A4000892B09F402C440906103509062035D8287
:105A50004C82D2018C9183FFB3C2F201858D968D69
:105A6000A78DB0A1418D528D638D748D05891689E6
:105A70002789308D00936F03109370032093710377
:105A800030937203409373035093740360937503D0
:105A9000709376038093770390937803A0937903B0
:105AA000B0937A0381A192A1A3A1B4A180937B03B7
:105AB00090937C03A0937D03B0937E0310926203C6
:105AC00010926103109254039091950D8091960D60
:105AD000981709F4AFCF8091960D8F5F8F708093E8
