:100000000C945B100C948C100C948C100C948C1031
:100010000C948C100C948C100C948C100C948C10F0
:100020000C948C100C948C100C948C100C948C10E0
:100030000C948C100C948C100C948C100C948C10D0
:100040000C948C100C94FC6F0C948C100C948C10F1
:100050000C948C100C948C100C9474A00C94D0B351
:100060000C948C100C94332D0C941F2D0C948C102C
:100070000C948C100C948C100C948C100C948C1090
:100080000C948C100C948C100C948C100C948C1080
:100090000C948C100C948C100C948C100C948C1070
:1000A0000C948C100C948C100C948C100C948C1060
:1000B0000C948C100C948C100C948C100C948C1050
:1000C0000C948C100C948C100C948C100C9469254E
:1000D0000C94292D0C948C100C948C100C948C1076
:1000E0000C948C10D829DD29E229EC29F6296F2AF5
:1000F000002A082A102A1A2A242A2E2A3D2A472AA8
:100100006F2A512A5B2A652A8C5DA95DBE5DD35D8D
:10011000E45DF55D065E175E305E495E5E5E6B5EB9
:10012000805E995EBA5E3BB33EB32DB331B335B357
:1001300075B342B346B34CB350B354B35AB35EB382
:1001400062B375B368B36CB370B30C94E45D0C9494
:10015000652A0C94BA5E0C944CB30C9435B30C9491
:10016000805E0C9470B30C945EB30C94472A0C948C
:10017000D35D0C942E2A0C94DD290C94512A0C94F6
:10018000F6290C94082A0C9450B30C946F2A0C9402
:100190002DB30C945AB30C94F55D0C943EB30C94AF
:1001A000D8290C944DBE0C9475B30C9442B30C94A6
:1001B000002A0C94102A0C9431B30C94BE5D0C945C
:1001C0006CB30C94242A0C94E2290C9454B30C9430
:1001D000A95D0C94EC290C946B5E0C94495E0C9414
:1001E0003BB30C945E5E0C94305E0C94175E0C94E2
:1001F00062B30C941A2A0C9468B30C943D2A0C94A4
:100200005B2A0C94995E0C9446B30C94065E0C9495
:100210008C5D0C942FBE4E414E494E495459494E67
:1002200046CDCCCC3D0AD7233C17B7D13877CC2B61
:10023000329595E6241FB14F0A000020410000C806
:100240004200401C4620BCBE4CCA1B0E5AAEC59D87
:100250007400407A10F35A00A0724E18090010A5DD
:10026000D4E80000E87648170000E40B54020000D0
:10027000CA9A3B000000E1F5050000809698000056
:100280000040420F000000A086010000001027007F
:10029000000000E803000000006400000000000A05
:1002A00000000000000100000000002C76D888DC6F
:1002B000674F0823DFC1DFAE59E1B1B796E5E3E44C
:1002C00053C63AE651997696E8E6C28426EB898CC5
:1002D0009B62ED407C6FFCEFBC9C9F40F2BAA56F27
:1002E000A5F490055A2AF75C936B6CF9676DC11BF6
:1002F000FCE0E40D47FEF520E6B500D0ED902E03BE
:1003000000943577050080841E080000204E0A0006
:100310000000C80C333333330F986E12831141EF52
:100320008D2114893BE65516CFFEE6DB18D1844BB0
:10033000381BF77C1D901DA4BBE424203284725E20
:10034000228100C9F124ECA1E53D27434F4D4D55D5
:100350004E49434154494F4E0044525952554E0064
:100360004552524F525300494E464F004543484F65
:1003700000203B2043757272656E74205A00203B4A
:1003800020456E6400203B205374617274004D65FB
:10039000736820706F696E74206F7574206F6620AB
:1003A00072616E67650A00456E642066696C65203F
:1003B0006C6973740A00426567696E2066696C65D2
:1003C000206C6973740A004E6F206D656469610A60
:1003D0000025697920256964202569682025696DD3
:1003E00020256973005072696E742074696D653AD6
:1003F00020006F66660044454255473A004D313152
:10040000322053687574646F776E004D313133203C
:1004100053004348414D4245525F54454D5045526B
:100420004154555245004241425953544550504958
:100430004E470041524353004D4F54494F4E5F4D7C
:100440004F44455300544845524D414C5F50524F24
:1004500054454354494F4E004C4F4E475F46494C1C
:10046000454E414D45004155544F5245504F525411
:100470005F53445F535441545553005344434152D6
:10048000440050524F4D50545F535550504F5254AA
:1004900000454D455247454E43595F5041525345E3
:1004A0005200434153455F4C494748545F425249CB
:1004B0004748544E45535300544F47474C455F4CB3
:1004C000494748545300534F4654574152455F5093
:1004D0004F574552004255494C445F5045524345A1
:1004E0004E54004C4556454C494E475F444154419B
:1004F000005A5F50524F42450052554E4F555400DE
:100500004155544F4C4556454C005052494E545F4E
:100510004A4F420050524F475245535300415554A1
:100520004F5245504F52545F54454D5000564F4C1A
:10053000554D455452494300454550524F4D004298
:10054000494E4152595F46494C455F5452414E53C2
:100550004645520053455249414C5F584F4E5F58F3
:100560004F4646004649524D574152455F4E414D18
:10057000453A4D61726C696E206D61726C696E2DC9
:10058000322E302E3820284E6F76203139203230EE
:1005900032302031393A32333A34382920534F55EA
:1005A0005243455F434F44455F55524C3A6874741B
:1005B00070733A2F2F6769746875622E636F6D2FA1
:1005C0004D61726C696E4669726D776172652F4D0F
:1005D00061726C696E2050524F544F434F4C5F56BE
:1005E000455253494F4E3A312E30204D41434849F0
:1005F0004E455F545950453A5A394D332045585469
:1006000052554445525F434F554E543A312055554B
:1006100049443A63656465326132662D3431613232
:100620002D343734382D396231322D633535633608
:10063000326633363766660A002F2F200052616E0D
:10064000646F6D204D69782000416363656C65724D
:100650006174696F6E00416363656C657261746992
:100660006F6E3A20500046523A0020466C6F773A3F
:1006700020004261627973746570205A0020643AE8
:100680000020693A0020703A00496E76616C696416
:100690002065787472756465720A004D34323120B9
:1006A000696E636F727265637420706172616D65EB
:1006B0007465722075736167650A00546F6F2066F8
:1006C00061722066726F6D207265666572656E6319
:1006D0006520706F696E740A00454550524F4D2079
:1006E0004F4B0A00506F7765722D6C6F73732072D9
:1006F00065636F7665727920004D383400446F6E03
:1007000065207072696E74696E672066696C650A2F
:10071000004D3737004D3331006C036703600359D8
:10072000034B034572726F722077726974696E674A
:1007300020746F20454550524F4D210A0021212041
:100740004B494C4C20636175736564206279207459
:100750006F6F206D75636820696E6163746976657B
:100760002074696D65202D2063757272656E74202A
:10077000636F6D6D616E643A20004D323930004D0B
:10078000343130004D313132004D3130380050724B
:10079000696E7465722073746F707065642064751F
:1007A0006520746F206572726F72732E20466978AF
:1007B00020746865206572726F7220616E642075A6
:1007C0007365204D39393920746F207265737461F7
:1007D00072742E202854656D70657261747572652F
:1007E0002069732072657365742E205365742069C7
:1007F00074206166746572207265737461727469C5
:100800006E67290A004E6F20436865636B73756DD0
:100810002077697468206C696E65206E756D6265FD
:10082000722C204C617374204C696E653A20006311
:100830006865636B73756D206D69736D6174636852
:100840002C204C617374204C696E653A20004C6911
:100850006E65204E756D626572206973206E6F74CF
:10086000204C617374204C696E65204E756D626515
:10087000722B312C204C617374204C696E653A20C8
:10088000004D31313000534420726561642065723F
:10089000726F720A00627573793A207061757365C0
:1008A0006420666F7220696E7075740A00627573D9
:1008B000793A2070617573656420666F7220757374
:1008C00065720A00627573793A2070726F6365739E
:1008D00073696E670A004D313030305300507269D1
:1008E0006E7465722068616C7465642E206B696C2F
:1008F0006C28292063616C6C6564210A006563685B
:100900006F3A004572726F723A004F46460A0046CF
:1009100061646520486569676874200042656420E9
:100920004C6576656C696E6720004661696C65642C
:1009300020746F20656E61626C6520426564204C96
:100940006576656C696E670A00496E76616C6964EC
:10095000206D6573682E0A0050726F62696E6720A1
:100960006D65736820706F696E7420002028445292
:100970005952554E2900473239204175746F204233
:100980006564204C6576656C696E67003F20284C75
:100990002C522C462C4229206F7574206F662062E1
:1009A0006F756E64732E0A003F2856296572626F58
:1009B0007365206C6576656C20696D706C6175730C
:1009C00069626C652028302D34292E0A004261644A
:1009D000205A2076616C75650A004E6F2062696C42
:1009E000696E65617220677269640A0020746F6FB6
:1009F000206C6F6E6720657874727573696F6E20F6
:100A000070726576656E7465640A0020627974653B
:100A1000733B20637263200053657474696E67735F
:100A20002053746F726564202800454550524F4D25
:100A3000206461746173697A65206572726F722EC9
:100A40000A002073746F7265642073657474696E34
:100A5000677320726574726965766564202800206A
:100A60002863616C63756C6174656429210A0020D8
:100A7000213D2000454550524F4D20435243206DAB
:100A800069736D61746368202D202873746F7265BB
:100A900064292000496E6465783A2000444947493A
:100AA000504F5453204C6F616465640A00444947B9
:100AB00049504F5453204C6F6164696E670A00209F
:100AC0004D61726C696E3D563832290A00454550B9
:100AD000524F4D2076657273696F6E206D69736D2C
:100AE000617463682028454550524F4D3D00457262
:100AF000723A204D415854454D50004D415854458F
:100B00004D50207472696767657265640045727242
:100B10003A204D494E54454D50004D494E54454D97
:100B2000502074726967676572656400202F002029
:100B300042403A0020403A007C3C3E5E2B3D3F2F35
:100B40005B5D3B2C2A225C0042696C696E656172B8
:100B5000204C6576656C696E6720477269643A0A55
:100B600000667265736800646F696E67004E6F7728
:100B700020002020506C616E6E657242756666655D
:100B80007242797465733A20002046726565204D83
:100B9000656D6F72793A2000436F6D70696C6564A2
:100BA0003A204E6F7620313920323032300A002020
:100BB0004C61737420557064617465643A203230FE
:100BC00032302D31312D3039207C20417574686FE1
:100BD000723A20285A4F4E45535441522C204861B6
:100BE0006C6C79290A006D61726C696E2D322E3041
:100BF0002E380A004D61726C696E0020536F667466
:100C0000776172652052657365740A0020576174BC
:100C10006368646F672052657365740A00204272CE
:100C20006F776E206F75742052657365740A0020AB
:100C300045787465726E616C2052657365740A0044
:100C4000506F77657255700A004D3234004D323363
:100C5000202573006175746F25632E670047323855
:100C60005859004D31303031006572726F72207703
:100C7000726974696E6720746F2066696C650A001A
:100C8000446F6E6520736176696E672066696C6576
:100C90002E0A004D32390020503A0020583A0065A3
:100CA0006E6473746F7073206869743A2000F0008A
:100CB0004A0110013B0130012C0140012701500184
:100CC000220170011D0190011801B0011301C00142
:100CD0000E01F0010901100204013002FF00600260
:100CE000FA009002F500C002F0000003EB004003A0
:100CF000E6008003E100D003DC002004D700E0041C
:100D0000D200C005CD004006C800D006C300800751
:100D1000BE00F008B9004009B400C009AF00B00A35
:100D2000AA00B00BA500D00CA000000E9B00C010C4
:100D300096005012910000148C00C0158700B01767
:100D40008200B0197D00D01B7800001E7300402087
:100D50006E0090226900F024640040275F00902913
:100D60005A00E02B5500102E500020304B0010325E
:100D70004600E033410090353C00103737007038B2
:100D80003200A0392D00B03A2800A03B2300603C7F
:100D90001E00103D1900903D1400103E0F00703EE3
:100DA0000A00C03E0500003F0000403FFBFF803FBF
:100DB000F6FFC03FF1FF286E6F2066696C65290061
:100DC00043757272656E742066696C653A200053D3
:100DD00044207072696E74696E6720627974652050
:100DE000004E6F74205344207072696E74696E6790
:100DF0000A0020573A0023646566696E6520444501
:100E00004641554C545F004B6420004B6920004B19
:100E1000702000504944204175746F74756E6520D0
:100E200066696E6973686564212050757420746802
:100E300065206C617374204B702C204B6920616EAF
:100E400064204B6420636F6E7374616E74732066EC
:100E5000726F6D2062656C6F7720696E746F2043CE
:100E60006F6E66696775726174696F6E2E680A00CD
:100E7000504944204175746F74756E6520666169D0
:100E80006C6564212074696D656F75740A000A20B1
:100E9000436C617373696320504944200A00204BFE
:100EA000643A2000204B693A2000204B703A200021
:100EB0002054753A2000204B753A2000206D61784F
:100EC0003A2000206D696E3A200020643A2000200C
:100ED000626961733A2000504944204175746F740F
:100EE000756E652073746172740A00504944204124
:100EF00075746F74756E65206661696C6564212018
:100F000054656D706572617475726520746F6F20C1
:100F1000686967680A00504944204175746F7475A8
:100F20006E65206661696C6564212042616420659C
:100F300078747275646572206E756D6265720A00F0
:100F400024F4D43050C38E20C2A24017828B70117B
:100F5000127A910D816CD90AA861E108C758660719
:100F6000615143061E4B5D05C145A7041A4111049A
:100F7000093D9803713931034036DB026533910234
:100F8000D4305402802E1D02632CEE01752AC50157
:100F9000B028A001102781018F2564012B244B016B
:100FA000E0223401AC211F018D200D01801FFC00C7
:100FB000841EED00971DDF00B81CD200E61BC600A2
:100FC000201BBC00641AB200B219A8000A19A000C4
:100FD0006A189900D117910040178B00B51684004C
:100FE00031167E00B31579003A157300C7146F00EF
:100FF00058146A00EE1366008813630025135E0020
:10100000C7125B006C12570015125400C111510039
:1010100070114F0021114B00D61049008D10470070
:101020004610440002104200C00F4000800F3E00F6
:10103000420F3C00060F3B00CB0E3800930E3700EA
:101040005C0E3500270E3400F30D3200C10D310067
:10105000900D3000600D2E00320D2D00050D2C007E
:10106000D90C2B00AE0C2900850C29005C0C270044
:10107000350C27000E0C2600E80B2400C40B2400BE
:10108000A00B23007D0B23005A0B2100390B2100FC
:10109000180B2000F80A1F00D90A1E00BB0A1E0008
:1010A0009D0A1D00800A1D00630A1C00470A1B00E0
:1010B0002C0A1B00110A1A00F7091A00DD09190091
:1010C000C4091900AB091900920917007B0918001F
:1010D000630917004C09160036091600200916008E
:1010E0000A091500F5081500E0081400CC081400E2
:1010F000B8081400A4081400900813007D0812001A
:101100006B0813005808120046081200340811003A
:10111000230811001208110001081100F007100047
:10112000E0071000D0071000C0071000B0070F0044
:10113000A107100091070E0083070F0074070F002E
:1011400065070E0057070E0049070E003B070D000C
:101150002E070E0020070D0013070D0006070D00D7
:10116000F9060C00ED060D00E0060C00D4060C009C
:10117000C8060C00BC060C00B0060C00A4060B0050
:1011800099060C008D060B0082060B0077060B00FB
:101190006C060B0061060A0057060B004C060A009D
:1011A00042060A0038060A002E060A0024060A0033
:1011B0001A060A001006090007060A00FD050900C4
:1011C000F4050900EB050900E2050900D90509004D
:1011D000D0050900C7050900BE050900B5050800CE
:1011E000AD050800A50509009C0508009405080048
:1011F0008C050800840508007C05080074050800BB
:101200006C050700650508005D0507005605080028
:101210004E05070047050700400508003805070090
:10122000310507002A050700230507001C050600F5
:10123000160507000F050700080506000205070050
:10124000FB040600F5040700EE040600E8040600AF
:10125000E2040700DB040600D5040600CF04060004
:10126000C9040600C3040600BD040600B704060056
:10127000B1040500AC040600A6040600A0040500A5
:101280009B04060095040500900406008A040500EE
:1012900085040500800406007A0405007504050035
:1012A000700405006B040500660405006104050078
:1012B0005C04050057040500520405004D040500B8
:1012C00048040500430405003E0404003A040500F8
:1012D00035040500300404002C0405002704040034
:1012E000230405001E0404001A040400160405006B
:1012F000110404000D0404000904050004040400A2
:1013000000040400FC030400F8030400F4030400D8
:10131000F0030400EC030400E8030400E403040009
:10132000E0030400DC030400D8030400D403040039
:10133000D0030400CC030400C8030300C50303006A
:1013400024F404D9201BC40C5C0E9804C4095F0269
:1013500065077101F405F900FB04B3004804870038
:10136000C10369005803550003034500BE023A005B
:101370008402310053022A002902250004022000C1
:10138000E4011C00C8011900AF0117009801140006
:1013900084011300710110006101100051010E0061
:1013A00043010D0036010B002B010B0020010B0047
:1013B000150109000C01090003010800FB000800E9
:1013C000F3000800EB000700E4000600DE00060062
:1013D000D8000600D2000600CC000500C7000500BA
:1013E000C2000500BD000400B9000400B5000400FF
:1013F000B1000400AD000400A9000400A500030032
:10140000A20003009F0004009B000300980003005B
:101410009500020093000300900003008D0002007D
:101420008B00030088000200860002008400030095
:10143000810002007F0002007D0002007B000200AC
:1014400079000200770001007600020074000200BB
:1014500072000100710002006F0002006D000100C7
:101460006C0002006A0001006900020067000100D0
:1014700066000100650001006400020062000100D6
:1014800061000100600001005F0002005D000100DA
:101490005C0001005B0001005A00010059000100DE
:1014A00058000100570001005600010055000100DE
:1014B00054000100530000005300010052000100DD
:1014C00051000100500001004F0001004E000000DB
:1014D0004E0001004D0001004C0001004B000000D7
:1014E0004B0001004A0001004900010048000000D3
:1014F00048000100470001004600000046000100CE
:1015000045000000450001004400010043000000C8
:1015100043000100420000004200010041000000C1
:1015200041000100400001003F0000003F000100B9
:101530003E0000003E0001003D0000003D000100B3
:101540003C0000003C0000003C0001003B000000AB
:101550003B0001003A0000003A00010039000000A1
:101560003900010038000000380000003800010098
:101570003700000037000100360000003600000090
:101580003600010035000000350000003500010084
:10159000340000003400000034000100330000007B
:1015A0003300000033000100320000003200000070
:1015B0003200010031000000310000003100010064
:1015C0003000000030000000300001002F0000005B
:1015D0002F0000002F0000002F0001002E0000004F
:1015E0002E0000002E0001002D0000002D00000044
:1015F0002D0000002D0001002C0000002C00000038
:101600002C0000002C0001002B0000002B0000002B
:101610002B0000002B0001002A0000002A0000001F
:101620002A0000002A000100290000002900000013
:101630002900000029000000290001002800000006
:1016400028000000280000002800000028000100F9
:1016500027000000270000002700000027000000EE
:1016600027000100260000002600000026000000E0
:1016700026000000260001002500000025000000D3
:1016800025000000250000002500000025000100C5
:1016900024000000240000002400000024000000BA
:1016A00024000100230000002300000023000000AC
:1016B000230000002300000023000000230001009D
:1016C0002200000022000000220000002200000092
:1016D0002200000022000100210000002100000083
:1016E0002100000021000000210000002100000076
:1016F0002100010020000000200000002000000068
:101700002000000020000000200000002000000059
:10171000200001001F0000001F0000001F0000004B
:101720001F0000001F0000001F0000001F0001003C
:101730001E0000001E0000001E0000001E00000031
:10174000A42C0000841E0000B0120000870A0000D4
:101750009E050000E90200007B010000BF000000C0
:101760002053697A653A200043616E6E6F74206F72
:1017700070656E2073756264697220005344206343
:10178000617264206F6B0A006F70656E526F6F74C8
:10179000206661696C65640A00766F6C756D652EF4
:1017A000696E6974206661696C65640A004E6F2019
:1017B000534420636172640A0046696C6520736556
:1017C0006C65637465640A0046696C65206F7065BA
:1017D0006E65643A2000454E4420535542524F55A1
:1017E00054494E450A002220706F73002220706118
:1017F00072656E743A2200535542524F5554494E09
:10180000452043414C4C207461726765743A220054
:1018100053756263616C6C204F766572666C6F778E
:10182000004578636565646564206D617820535573
:1018300042524F5554494E452064657074683A31A0
:101840000A0057726974696E6720746F2066696C4C
:10185000653A200044656C6574696F6E2066616945
:101860006C65642C2046696C653A200046696C659D
:101870002064656C657465643A006F70656E2066FF
:1018800061696C65642C2046696C653A2000000033
:10189000A0C0000020C1000000000000484200007D
:1018A0004842000080400202040000A0400000A066
:1018B000400000004000809D430000A0430000C89D
:1018C00043FFFFFF00009B4300009B430000C84311
:1018D0005761726E696E673A20486F6D696E672056
:1018E00042756D702044697669736F72203C2031B7
:1018F0000A00206C696D6974656420746F20002093
:101900004D617820004A65726B006F70656E0054FF
:101910005249474745524544007A5F70726F62658D
:10192000007A5F6D696E00795F6D696E00785F6D3A
:10193000696E005265706F7274696E6720656E64BF
:1019400073746F70207374617475730A00204D395D
:101950003220580020204D61783A200020204D6927
:101960006E3A2000536F667420656E6473746F70F6
:10197000733A2000252900257C004772616469655F
:101980006E74204D69782000526573756D65207204
:1019900065717569726573204C43442E0A004D329F
:1019A000342053256C642054256C64004739322E52
:1019B00039204525730047312046256400473932D8
:1019C0002E39205A2573004731205A3020463230B4
:1019D0003000473120582573205925732046333075
:1019E0003030004731204525642046323030004DEC
:1019F0003130362050256920532569004D3130396A
:101A000020532569004D31393020532569004D326E
:101A1000303020442573004732385230585900473F
:101A200039322E39204530205A300A47315A257331
:101A3000004D343230205330205A300020496E7629
:101A4000616C696420657874727564657220002029
:101A50005200454550524F4D20496E697469616C82
:101A6000697A65640A0048617264636F6465642022
:101A700044656661756C742053657474696E677330
:101A8000204C6F616465640A003B200020204D38C3
:101A900035312058005A2D50726F6265204F6666AE
:101AA0007365740020204D32303920530041757425
:101AB0006F2D526574726163743A20533D30207407
:101AC0006F2064697361626C652C203120746F2013
:101AD000696E7465727072657420452D6F6E6C79D5
:101AE000206D6F7665732061732072657472616317
:101AF000742F7265636F7665720020204D32303826
:101B00002053005265636F7665723A20533C6C65D2
:101B10006E6774683E20463C756E6974732F6D3E27
:101B20000020460020570020204D3230372053003F
:101B3000526574726163743A20533C6C656E6774CD
:101B4000683E20463C756E6974732F6D3E205A3C8A
:101B50006C6966743E0020204D34313320530050B0
:101B60006F7765722D4C6F7373205265636F766566
:101B700072793A0020204D333031205000504944D2
:101B80002073657474696E67733A00204A002020E0
:101B9000473239205720490020204D34323020531D
:101BA000004175746F20426564204C6576656C69F0
:101BB0006E673A0020204D323036205800486F6D55
:101BC00065206F66667365743A0020204D323035AB
:101BD000204200416476616E6365643A20423C6D48
:101BE000696E5F7365676D656E745F74696D655F5F
:101BF00075733E20533C6D696E5F66656564726106
:101C000074653E20543C6D696E5F74726176656CDC
:101C10005F66656564726174653E20583C6D6178ED
:101C20005F785F6A65726B3E20593C6D61785F79C1
:101C30005F6A65726B3E205A3C6D61785F7A5F6ABD
:101C400065726B3E20453C6D61785F655F6A6572C9
:101C50006B3E0020540020204D3230342050004193
:101C60006363656C65726174696F6E2028756E6957
:101C700074732F7332293A20503C7072696E745F0E
:101C8000616363656C3E20523C726574726163747B
:101C90005F616363656C3E20543C74726176656C71
:101CA0005F616363656C3E0020204D323031205807
:101CB000004D6178696D756D20416363656C657277
:101CC0006174696F6E2028756E6974732F73322981
:101CD0003A0020450020590020204D323033205852
:101CE000004D6178696D756D20666565647261741B
:101CF00065732028756E6974732F73293A005374C5
:101D00006570732070657220756E69743A002044A6
:101D10000020204D3230302053002044697361622E
:101D20006C65640A0046696C616D656E742073654C
:101D30007474696E67733A0020286D6D2900202045
:101D4000473231202020203B20556E697473206972
:101D50006E206D6D000000FA430000FA430000A001
:101D6000400000C8420000A0420000A0420000C89D
:101D7000430000C843B80B0000B80B00006400002B
:101D8000001027000020423A0020436F756E742037
:101D9000413A0042656400453100626564002C20D0
:101DA00073797374656D2073746F7070656421202E
:101DB0004865617465725F49443A20005448455251
:101DC0004D414C2052554E4157415900546865725F
:101DD0006D616C2052756E61776179004865617440
:101DE000696E67204661696C656400486561746965
:101DF0006E67206661696C656400202D20496E76EF
:101E0000616C6964206578747275646572206E75A2
:101E10006D62657220210A00001000AA0380004054
:101E20000100012C01B001220140021001F0020268
:101E3000018003F8004004F500E004ED009005E4A3
:101E4000003006DD00E006D7008007D1003008CC66
:101E500000D008C7007009C300100ABE00B00ABB5A
:101E600000500BB700900CB300D00DAA00B00FA526
:101E7000005010A000101496009016900010198CBD
:101E800000501A8500301C820070227800B0237543
:101E90000040256E0020276900A0296400502A5FB9
:101EA00000902B5A00D02C5500702D4F00E02E488A
:101EB000005031450030334100D0353900603637AD
:101EC0000010373300F0382D00A0392700803C1C6B
:101ED00000403D1700F03D1100703E0A00C03E0575
:101EE00000003F0000403FFBFF803FF6FFC03FF196
:101EF000FF4361703A003F5A206F7574206F66206F
:101F000072616E67652028003F59206F7574206FDD
:101F1000662072616E676520282D003F58206F751E
:101F200074206F662072616E676520282D005072E4
:101F30006F6265204F6666736574205800656E7128
:101F400075657565696E672022006F6B0052657359
:101F5000656E643A200020453A00205A3A00205924
:101F60003A0000002200250028002B002E0031003E
:101F7000340002010000050108010B0100002100EE
:101F8000240027002A002D0030003300010100004A
:101F9000040107010A0105050505070508080808E9
:101FA000020202020A0A08080404040401010101F1
:101FB00001010101030303030303030304070707EC
:101FC0000C0C0C0C0C0C0C0C020202020606060691
:101FD000060606060B0B0B0B0B0B0B0B010210205E
:101FE000200808102040102040800201020108044F
:101FF00002010102040810204080804020100804E3
:10200000020180040201804020100804020108043B
:10201000020101020408102040800102040810207F
:102020004080205A3A200020593A2000426564201E
:10203000583A200050726F62696E67204661696C81
:1020400065640A0000000A0B02090C0D0E08070364
:10205000040100000000000000000000000000007B
:102060000000000000000000000000000000000070
:10207000121110000000000000000000000000002D
:1020800000000000000000000000486F6D65202582
:10209000732573257320466972737400220A0055F4
:1020A0006E6B6E6F776E20636F6D6D616E643A203C
:1020B00022004DBE2FBE11241FBECFEFD1E2DEBFE6
:1020C000CDBF00E00CBF12E0A0E0B2E0ECEDFAE919
:1020D00001E00BBF02C007900D92A83EB107D9F7EF
:1020E00024E1A8EEB2E001C01D92AA38B207E1F7E0
:1020F00010E1CAE5D0E100E006C021970109802F78
:10210000FE010E94D0CAC935D10780E00807A9F7AF
:102110000E9497B60C945CCD0C9400002F923F92D5
:102120004F925F926F927F928F929F92AF92BF92E7
:10213000CF92DF92EF92FF920F931F93CF93DF9393
:10214000CDB7DEB7AB970FB6F894DEBF0FBECDBFED
:102150008BA72091F6022AA781E08093F602809156
:10216000BE0E8D3409F46CC4843511F40C943721FF
:10217000873411F00C948F218091BC0E9091BD0E8C
:102180008B31910509F463C1F4F488309105D1F1E4
:102190004CF497FD51C482309105A4F1049709F4E1
:1021A00012C14AC48B30910509F44CC185319105A7
:1021B00011F40C9491210A9709F03EC481E00E9429
:1021C000EF5E0C9491218A32910509F455C354F4C1
:1021D0008D31910509F4F4C10CF4E2C14E9709F474
:1021E0000DC22AC48B35910509F490C28C35910536
:1021F00009F491C28A35910509F01EC41092481362
:102200000C94912180915D0B813011F00C949121FF
:1022100019821A821B821C82CE0101965C01AEEBF0
:10222000EA2EADE0FA2E0CE412E0BBEDCB2EBEE0C0
:10223000DB2E912C88E5890D0E94D131F501819327
:102240005F01882311F10E94632F2B013C01892D2E
:102250000E94808F882351F0F801208131814281D2
:102260005381C301B2010E94D9CA09C0F60120817D
:10227000318142815381C301B2010E94D8CAF70162
:1022800060837183828393830AC0F8018081918186
:10229000A281B381F70180839183A283B383939456
:1022A000F4E0EF0EF11C0C5F1F4F24E0C20ED11CB6
:1022B00033E09312BFCF85E40E94D1318C83882311
:1022C00001F10E94632F6B017C0183E00E94808FEB
:1022D000882371F0209158023091590240915A029E
:1022E00050915B02C701B6010E94D9CA6B017C0103
:1022F000C092CA0DD092CB0DE092CC0DF092CD0DD4
:1023000010C08091580290915902A0915A02B09148
:102310005B028093CA0D9093CB0DA093CC0DB0932C
:10232000CD0D8091210E882381F08091671182FF6D
:102330000CC08C81882349F08981811103C08A8176
:10234000882319F080E00E9401B540E050E0BA0116
:1023500086E40E94546620E030E0A9010E945CCC33
:10236000181684F40E94632F20E030E040E752E426
:102370000E945CCB60937402709375028093760226
:10238000909377028091000E882311F40C94CC2155
:1023900085E40E949A2F882311F40C94CC2188E5BF
:1023A0000E949A2F81110C94CC2189E50E949A2FCA
:1023B00081110C94CC218AE50E949A2F81110C94F2
:1023C000CC210C949A2180E50E94D131882379F0A8
:1023D0008091E8029091E902009749F04AE050E0CC
:1023E00060E070E00E9457C26B017C0103C0C12C09
:1023F000D12C760183E50E94D131882361F00E94BF
:10240000632F20E030E04AE754E40E9469C40E9450
:10241000D5CB6B017C010E9492810E94C4B3C60E91
:10242000D71EE81EF91E0E94C4B3DC01CB018C1933
:102430009D09AE09BF09B7FD02C00C9491210E940D
:102440006626F1CF80E00E94EF5E0C9491210E94FD
:102450002CB681110C9491218CE0ECE7F2E0DE01C6
:10246000119601900D928A95E1F780E50E94D13195
:10247000882319F00E942B2F01C060E080E090E0DB
:10248000A8ECB2E48CA39DA3AEA3BFA380E090E030
:10249000A0EAB0E488A399A3AAA3BBA3613019F072
:1024A000623039F029C0BE01605E7F4FCE010996CF
:1024B00058C029853A854B855C856091540270919E
:1024C000550280915602909157020E94D9CA6B0121
:1024D0007C0120E030E048EC53E40E9403C487FD17
:1024E00006C0C12CD12CF8ECEF2EF3E4FF2ECC8EDD
:1024F000DD8EEE8EFF8E30C020E030E040E050E414
:102500006091540270915502809156029091570249
:102510000E94D9CA7B018C0120E030E048EC53E4F2
:102520000E945CCC181624F4E12CF12C08EC13E486
:10253000A984BA84CB84DC849701A801B501C601C3
:102540000E945CCC181614F475018601C701D801ED
:102550008C8F9D8FAE8FBF8FBE01605E7F4FCE018F
:102560004C960E943D8CE0905402F09055020091F0
:102570005602109157022091500230915102409121
:1025800052025091530269817A818B819C81FE01B4
:10259000B4966F010E947C8B0E94758D0C949121E2
:1025A000809143138770873011F00C94F72160E01D
:1025B0008FE40E94F93181110C9491210C94F72140
:1025C0000E94C4B36093CF0E7093D00E8093D10E4F
:1025D0009093D20E0E942CB681110C94912180917F
:1025E0007714882311F40C94642260E08FE40E9435
:1025F000F93181110C9491210C94642220912E13B5
:1026000030912F13409130135091311360914C024F
:1026100070914D0280914E0290914F020E94D9CA52
:10262000AB01BC0188E50E94546669837A838B8381
:102630009C83209132133091331340913413509185
:102640003513609150027091510280915202909125
:1026500053020E94D9CAAB01BC0189E50E945466AD
:102660006D837E838F839887BE016B5F7F4FCE0122
:1026700001960E947A2D882311F40C94912180E018
:102680000E9419620E945D8B61E085E40E94F9312D
:1026900001E021E0482FBE016B5F7F4FCE01019624
:1026A0000E94C8B06B017C019B01AC010E94DACC96
:1026B000811126C049815A816B817C818CE290E234
:1026C0000E94E72C4D815E816F81788587E290E2E0
:1026D0000E94E72CB701A60182E290E20E94E72C5B
:1026E0008091F210882311F08F3719F48AE00E944C
:1026F00093258091F210882319F08AE00E945124DA
:102700000E94448B0E94758D0C9491218FE08093E0
:1027100048130C9491218091BB0E882349F1893094
:1027200009F0A6C075ECA72E72E0B72EECE4EE2EF1
:10273000E2E0FE2ED12C00E010E0F50181915F0176
:102740000E94D131882369F00E94632FF7016083D2
:10275000718382839383133011F401E002C0DD247E
:10276000D3941F5FF4E0EF0EF11C143031F775C005
:1027700045EC242E42E0342E5DE7E52E53E1F52EA4
:102780002CE432E039A728A76BEDC62E6EE0D62EDA
:1027900000E010E0F10181911F010E94D1318823F6
:1027A00009F44AC00E94632F2B013C01133049F009
:1027B000F60120813181428153810E94D8CA2B01C8
:1027C0003C01E8A5F9A52081318142815381C301F3
:1027D000B2010E94D8CA4B015C012DEB37E346E8F9
:1027E00055EB0E945CCC87FD0AC02DEB37E346E831
:1027F00055E3C501B4010E9403C41816ECF413306C
:1028000051F4409258025092590260925A027092CA
:102810005B0201E011C0A5019401F70160817181A3
:10282000828193810E94D9CAF70160837183828378
:102830009383812F0E945A871F5FF4E0EF0EF11CF3
:1028400028A539A52C5F3F4F39A728A734E0C30E30
:10285000D11C143009F09ECF05C0DD2019F00E9474
:10286000738D06C0002321F088E592E00E942F8539
:102870000E94758D0C94912180915D0B813011F037
:102880000C94912189E40E94D131E82E882321F013
:102890000E945F2F082F01C000E08AE40E94D1311E
:1028A000F82E882321F00E945F2F182F01C010E01E
:1028B000EE2011F0043020F4FF2041F0143030F00D
:1028C0008EE893E00E949A250C94912180E1ECE43B
:1028D000F2E0AEEBBDE001900D928A95E1F7EE20BB
:1028E00019F1602F000F770B880B990B0E940AC417
:1028F0002091F80D3091F90D4091FA0D5091FB0D9A
:102900000E9469C4209178093091790940917A092F
:1029100050917B090E94D9CA6093BE0D7093BF0D80
:102920008093C00D9093C10DFF2019F1612F110FFD
:10293000770B880B990B0E940AC42091FC0D3091F3
:10294000FD0D4091FE0D5091FF0D0E9469C4209134
:102950007C0930917D0940917E0950917F090E9448
:10296000D9CA6093C20D7093C30D8093C40D909328
:10297000C50D60E080E50E94F9318823C1F1EE20A9
:10298000D1F020912E1330912F134091301350919C
:1029900031136091BE0D7091BF0D8091C00D90916B
:1029A000C10D0E94D8CA6093BE0D7093BF0D809375
:1029B000C00D9093C10DFF20D1F0209132133091C2
:1029C000331340913413509135136091C20D7091BF
:1029D000C30D8091C40D9091C50D0E94D8CA60931B
:1029E000C20D7093C30D8093C40D9093C50D40E04C
:1029F00050E0BA0186E40E9454666B017C0120E03D
:102A000030E0A9010E945CCC18164CF420E030E0C4
:102A100040E752E4C701B6010E945CCB03C060E00E
:102A200070E0CB0169837A838B839C83CE0101960E
:102A30000E945C8C0C9491210E941EB60C949121F2
:102A40008091BC0E9091BD0E8937910509F408C79D
:102A50000CF0D6C08235910509F416C50CF06CC097
:102A60008B31910509F4A2C254F58631910509F420
:102A700012C2B4F48231910509F414C52CF44197C3
:102A800009F4C4C10C9434218431910509F4D2C1F4
:102A9000459711F00C9434210E94ED7C0C94912107
:102AA0008831910509F416C20CF4FFC189319105F2
:102AB00009F44BC24A9709F46BC20C94342180325A
:102AC000910509F496C27CF48D31910509F47AC21E
:102AD0000CF470C28E31910509F47BC24F9709F452
:102AE000B1C20C9434218C34910509F461C34CF4C7
:102AF0008B34910511F00C9434210E94AF8E0C940C
:102B000091218D34910509F468C38135910511F047
:102B10000C9434210E94C2A00E94D38E0E94A281F4
:102B20000E940E2468EE73E080E090E00E94AE65A3
:102B30000E9411240C9491218D36910509F46BC3E8
:102B400044F58836910509F44CC384F48435910525
:102B500009F4A8C40CF49FC48535910509F4D8C4C0
:102B60008C35910509F4F7C40C9434218A3691050B
:102B700009F476C30CF453C38B36910509F494C35E
:102B80008C36910511F00C943421109225020C948E
:102B900091218237910509F47CC584F48F36910523
:102BA00009F4ACC30CF48BC38037910509F4FDC361
:102BB0008137910509F403C40C94342186379105BB
:102BC00009F4F0C55CF48337910509F469C58537CC
:102BD000910511F40C9491210C94342187379105BF
:102BE00009F43BC68837910511F00C94342181E03B
:102BF0008093C9098093C8090E94518E0C94912139
:102C00008D32E1E09E0711F40C945D1F0CF069C059
:102C10008B3C910509F48EC77CF5863A910509F441
:102C200055C6ACF48B39910509F408C434F48C38DA
:102C3000910509F4E4C30C943421833A910509F415
:102C400016C6843A910509F42EC60C9434218E3BA5
:102C5000910509F4F0C334F4873A910509F439C6B3
:102C60000C943421883C910509F4DEC6893C910519
:102C700009F41FC70C943421803D910509F4E8C77D
:102C800084F48D3C910509F47EC70CF472C78E3C28
:102C9000910509F47BC78F3C910509F495C70C9405
:102CA00034218C3D910511F40C947F1E74F4813D08
:102CB000910511F40C94721E833D910511F00C9452
:102CC00034210E94C0920C9491218D3D910511F404
:102CD0000C949E1E8232914011F40C94191F0C9496
:102CE0003421843F31E0930711F40C94B6200CF0AA
:102CF00043C08A39F1E09F0709F45EC314F58039B7
:102D000031E0930711F40C94DA1F4CF48F329140A8
:102D100011F00C9434210E946B660C94912181393E
:102D200021E0920711F40C94DD1F8239914011F0DB
:102D30000C94342180E00E949B7F0E94758D0C943E
:102D40009121843AE1E09E0711F40C94E31F3CF4D6
:102D50008D39914011F40C94F5200C943421853A6E
:102D600031E0930711F40C94E61F8C3A914011F472
:102D70000C9459200C9434218C30F2E09F0711F40C
:102D80000C94D920B4F4863F31E0930711F40C94ED
:102D9000BC2014F40C94B920873FF1E09F0711F494
:102DA0000C94BF20883F914011F40C94C8200C94DF
:102DB0003421873E33E0930711F40C94E920CCF4DE
:102DC0008335F3E09F0711F40C94E620803A93409A
:102DD00011F00C9434212091B90E3091BA0E9091DB
:102DE0006711926090936711C9010E941B7A0C943D
:102DF0009121883E33E0930711F40C940C21893E15
:102E0000934011F40C940F210C9434218091BF0E47
:102E100084FF02C00C9467228091C10E87FF02C01C
:102E20000C9467228091C20E837011F00C9467227B
:102E30000C9484228091671183FF25C086EB93E078
:102E40000E949A258091671183FF17C085E891E160
:102E50000E94EA538BE1E5E8F1E1DE011196019071
:102E60000D928A95E1F760E070E0CE0101960E9434
:102E7000197ECE0101960E94C43787EA93E00E9432
:102E80009A250C9491210E94E32587EC93E00E94FF
:102E90009A250C9491210E949B7980916711877FDC
:102EA0008062809367110C949121E091B90EF091AA
:102EB000BA0E8081882329F0803209F4108231967D
:102EC000F8CF60E08091B90E9091BA0E0E945A7AC4
:102ED0000C94912183E50E94D131882321F00E9436
:102EE0002B2F0E94406F84E50E94D1318823A9F0E6
:102EF0000E942B2F6B017C010E94948EC092D30DF7
:102F0000D092D40DE092D50DF092D60DCD28CE28DA
:102F1000CF2819F081E08093DB0D0E9400248823E4
:102F200011F40C9491210E94AA790E94AF8E8CEF2B
:102F300093E10E9451791092C30E1092C40E109228
:102F4000C50E1092C60E0C9491218091671182FFDC
:102F500003C08B7F809367118091210E882319F025
:102F600081E00E9401B58091DB0D813011F00C945D
:102F7000912182E08093DB0D0E94C4B36093D70D52
:102F80007093D80D8093D90D9093DA0D0C94912104
:102F90008091671183FD02C00C94912183E50E940A
:102FA000D13181110C948E220C9491210E947D6E5E
:102FB0000C9491218091B90E9091BA0E0E941B7AC7
:102FC0000C949121809167118E7F809367110C94EE
:102FD00091218091671183FD02C00C9491210E9480
:102FE00007B68091B90E9091BA0E0E94757C0C9430
:102FF00091218091671182FD0E94928180916711D9
:1030000083FD02C00C94912160E080E50E94F931BB
:10301000182F682F8091B90E9091BA0E0E945A7A9B
:1030200083E50E94D131882321F00E942B2F0E943A
:10303000406F0E94AA7911110C9491210E94AF8EC9
:103040000C9491210E94608E7B018C0120E831E577
:1030500041E050E00E9459CAC9016DE671E00E944A
:10306000BCCA4B015C01C801B70120E13EE040E071
:1030700050E00E9459CACA01B90128E130E040E09D
:1030800050E00E9459CA762E672EC62ED72E3CE3FA
:10309000232E312C412C512CC801B701A2019101E2
:1030A0000E9459CAF62EE72ECA01B901A201910168
:1030B0000E9459CACB018E010F5F1F4F81149104EA
:1030C00099F0EF92FF927F936F936F927F92BF92EE
:1030D000AF929F928F9281ED93E09F938F931F9376
:1030E0000F930E94D4C313C0A114B104B1F0EF92A6
:1030F000FF927F936F936F927F92BF92AF9285ED15
:1031000093E09F938F931F930F930E94D4C30FB6A6
:10311000F894DEBF0FBECDBF30C0CD2879F0EF925E
:10312000FF927F936F936F927F9289ED93E09F93CD
:103130008F931F930F930E94D4C3E9CF892B69F01B
:10314000EF92FF927F936F938DED93E09F938F9318
:103150001F930F930E94D4C3DACFEF92FF9281EEB8
:1031600093E09F938F931F930F930E94D4C30F906C
:103170000F900F900F900F900F900E94E325B801D1
:1031800085EE93E00E94BA258091F210882311F019
:103190008F3719F48AE00E9493258091F2108823DA
:1031A00011F40C9491218AE00E9451240C949121F5
:1031B0008091DB0D813011F00C94912182E080939D
:1031C000DB0D0E94C4B36093D70D7093D80D80932C
:1031D000D90D9093DA0D0C9491210E94D38E0C940A
:1031E00091218091471383FF02C00C94912183E5C4
:1031F0000E94D131882311F40C9491210E94632FF5
:103200000E94CECBCB010E94FD5661E080E00E947F
:10321000ACA00C9491210E94AC6C0C9491210E9462
:10322000268F182F87FD17C08AE49FE10E949A25F8
:10323000812F0E943E578091F210882311F08F3722
:1032400019F48AE00E9493258091F210882319F0E6
:103250008AE00E9451243AA53093F6020C94A223EE
:1032600060E080E50E94ED3181110C94912181E4B0
:103270000E949A2F882321F060915513062F02C0D7
:103280000FEF10E083E50E94D131882349F00E94BE
:103290002B2F8B016F3F710519F010F00FEF10E02D
:1032A000009355130C94912160E080E50E94ED316C
:1032B00081110C949121109255130C9491218EE45C
:1032C0000E94D131882311F40C949121E0915B0B81
:1032D000F0E0EE0FFF1FE953F14F008111810E94D2
:1032E0002B2F000F111F000F111FF801E855F34F8E
:1032F00060837183828393830C94912183E50E9480
:103300009A2F882331F060E083E50E94ED318093AD
:1033100047130E94E32586EF93E00E949A2580914F
:103320004713882309F43BC0A9E1EA2EA7E0FA2E4F
:1033300000E010E020E08091471390E0A0E0B0E0D2
:10334000002E04C0B695A795979587950A94D2F755
:1033500080FF1BC0DD24D394D20E222381F0809104
:10336000F210882311F08F3719F48CE20E94932514
:103370008091F210882319F08CE20E945124F70109
:10338000859194910E949A252D2D0F5F1F4F82E009
:10339000E80EF11C0530110571F60C94362382EF0E
:1033A00093E00E949A250C94362341E060E070E09F
:1033B0008DEF93E00E94E7250E94E023B2C783E5EA
:1033C0000E94D131882371F00E943B2F282F30E0DA
:1033D0002D3331051CF480930002A3C78CE3809346
:1033E00000029FC70E94E3254091000250E060E088
:1033F00070E08BE094E00E94EE650C94362380919F
:10340000471383FD8EC783E50E94D131882309F4D9
:1034100088C70E94632F0E94CECB6837710514F0D5
:1034200068E770E070935F1360935E1361E080E083
:103430000E94ACA076C70E94D36A73C783E50E943E
:10344000D131882309F46DC70E943B2F182F90E0DB
:10345000CD970CF01CE31093EE020E94C4B36B01F5
:103460007C01212F30E0A8EEB3E00E94ADCAC60E69
:10347000D71EE81EF91EC092EA02D092EB02E0923B
:10348000EC02F092ED024DC7809148138F7D806170
:103490008093481346C7809148138F7E8062809343
:1034A00048133FC783E50E94D1318823E9F00E9489
:1034B000C4B36093CF0E7093D00E8093D10E9093CF
:1034C000D20E0E94632F20E030E04AE754E40E94CD
:1034D00069C40E94D5CB609301027093020280936D
:1034E0000302909304021DC78091BF0E84FF02C0A7
:1034F0000C9493228091C10E87FF02C00C949322FA
:103500008091C20E837011F00C9493220C94C4220B
:1035100083E50E949A2F882309F403C70E94C4B34D
:103520006093CF0E7093D00E8093D10E9093D20EF5
:103530000E94632F20E030E04AE754E40E9469C40F
:103540000E94D5CB6093EF027093F0028093F1025A
:103550009093F202E6C60E94268F87FDE2C6909104
:10356000BF0E94FD04C09091C10E97FF0AC0E5EC18
:10357000CE2EE2E0DE2EFBE2EF2EF9E0FF2E10E091
:1035800009C09091C20E937091F7682F81E00E945C
:10359000A793C7C6F60181916F010E94D13188239C
:1035A00009F46DC0133009F063C00E94632F4B0112
:1035B0005C0120E030E040EA51E40E9403C487FF50
:1035C0004EC0A501940160914B0970914C09809106
:1035D0004D0990914E090E945CCB2B013C019B014F
:1035E000AC016091EA037091EB038091EC03909140
:1035F000ED030E9469C46093EA037093EB03809328
:10360000EC039093ED03A301920160915B0970912B
:103610005C0980915D0990915E090E9469C4609384
:103620005B0970935C0980935D0990935E096091DA
:10363000FA037091FB038091FC039091FD030E94BB
:1036400008C4A30192010E9469C40E94D5CB609373
:10365000FA037093FB038093FC039093FD03809225
:103660004B0990924C09A0924D09B0924E0907C0A7
:103670000E94632FF701648B758B868B978B1F5F7E
:10368000F4E0EF0EF11C143009F084CF0E946E813B
:1036900048C60E9412AF88E491E10E9415A641C677
:1036A00084E695E00E949A2560E084E595E00E941A
:1036B00095AA60E08FE395E00E9495AA61E088E317
:1036C00095E00E9495AA61E08DE295E00E9495AA9E
:1036D00061E08DE195E00E9495AA60E084E195E0CB
:1036E0000E9495AA61E08AE095E00E9495AA61E0B7
:1036F00080E095E00E9495AA60E089EF94E00E9446
:1037000095AA61E081EF94E00E9495AA61E083EEC2
:1037100094E00E9495AA60E085ED94E00E9495AA4D
:1037200060E086EC94E00E9495AA60E088EB94E06B
:103730000E9495AA60E082EA94E00E9495AA60E067
:1037400081E994E00E9495AA60E082E894E00E94FA
:1037500095AA61E08BE794E00E9495AA60E086E676
:1037600094E00E9495AA60E088E594E00E9495AA02
:1037700060E085E494E00E9495AA60E088E394E02C
:103780000E9495AA60E083E394E00E9495AA61E01C
:1037900086E294E00E9495AA60E082E194E00E94B3
:1037A00095AABFC50091B90E1091BA0E24E08FEF13
:1037B000F12C30E0215031F1F8019081492F4B7FFD
:1037C000413421F441814133E9F409C09035D1F409
:1037D000F801918190539A30A8F4892F08C0913450
:1037E00021F0953421F431E002C0FF24F394A801C4
:1037F0004E5F5F4F8A014F5F5F4FF80190819032BB
:10380000C9F3D8CFE090F210833058F4882321F028
:10381000813021F480E003C08FE701C082E0809313
:10382000F21031110E94E325FF2021F089E396E098
:103830000E949A258091F210882311F08F3719F495
:10384000C8010E94122D8091F210882319F0C8013E
:103850000E945C25E092F21064C50E94268E61C52C
:103860001092C9091092C8090E94518E5AC560E091
:1038700070E083E50E94DE318C01833091056CF4A9
:1038800060E070E080E50E94DE311127F801ED5024
:10389000FD4F80830E94945B44C541970CF441C561
:1038A0000E94485D3EC56FEF7FEF83E50E94DE31E9
:1038B00097FD07C0803191050CF033C50E94EB5C89
:1038C00030C5809148040E94EB5C2BC50E94BA91E0
:1038D00028C583E50E949A2F882321F00E944F2F4C
:1038E0008093491381E40E94D131882351F00E94D2
:1038F000632F60934A1370934B1380934C139093F0
:103900004D138AE50E94D131882351F00E94632F24
:1039100060934E1370934F138093501390935113F1
:103920000E94715C8DE396E00E949A258091491374
:103930000E94D26580914913882309F497C685E8CF
:1039400093E00E949A2540914A1350914B13609145
:103950004C1370914D138AE796E00E94E72C8EE796
:1039600093E00E949A2540914E1350914F1360911D
:103970005013709151138AE796E00E94E72C82E081
:103980000E947886AB01BC0181E793E00E94E72C9E
:103990006091521370E080E090E00E940AC420E041
:1039A00030E0A9010E94D9CA6B017C0160915313D8
:1039B00070E080E090E00E940AC4A70196010E9496
:1039C000D9CA6B017C016091541370E080E090E0F3
:1039D0000E940AC4A70196010E94D9CA4B015C014A
:1039E00072E5E72E73E1F72E03EF12E0F701619124
:1039F0007F0170E080E090E00E940AC420E030E0A7
:103A000048EC52E40E9469C4A50194010E945CCB79
:103A10000E9445CB0E94CECBF80161938F01F2E06A
:103A2000063F1F0719F722C60E94268F182F87FD11
:103A300078C400917C1384E40E94D131882309F476
:103A4000A6C50E94632F6B017C0120E030E0A90134
:103A50000E9403C4882339F124E01202F0011124EA
:103A6000E858FC4EC082D182E282F38220E030E04E
:103A7000A901609178137091791380917A139091D4
:103A80007B130E9403C481110CC080E090E0A0EE83
:103A9000BFE38093781390937913A0937A13B09334
:103AA0007B1301E074C580E080937C130E94EA815F
:103AB00038C40E94268F87FD34C455ECC52E52E0D1
:103AC000D52E6BE2E62E69E0F62E10E0F60181912C
:103AD0006F010E949A2F882331F10E94632F6C8F0F
:103AE0007D8F8E8F9F8F80E1E8E8F2E0DE011196F6
:103AF00001900D928A95E1F79E012F5F3F4F49E4B7
:103B000056E0612FCE014C960E9440806C8D7D8DD9
:103B10008E8D9F8D0E94D5CBF70160837183828348
:103B200093830E9427811F5FF4E0EF0EF11C143095
:103B300069F6F7C30E94268F87FDF3C345ECE42E98
:103B400042E0F42E0BE219E0F70181917F010E941F
:103B50009A2F882339F00E94632FF80164A375A37C
:103B600086A397A30C5F1F4FF9E00B331F0761F784
:103B7000D8C38091C00E87FD0FC58091C10E8E7095
:103B800009F00AC54FC50E94FD93CBC339E8E32E67
:103B900033E1F32E10E088E5810F0E949A2F8823ED
:103BA00051F00E94632FF7016083718382839383B6
:103BB000812F0E945A871F5FF4E0EF0EF11C133033
:103BC00051F70E94758DADC383E50E949A2F88231B
:103BD00051F00E94632F6093010E7093020E809348
:103BE000030E9093040E86E40E949A2F882381F09E
:103BF0000E94632F20E030E040E752E40E945CCB5B
:103C00006093050E7093060E8093070E9093080E36
:103C10008AE50E949A2F882351F00E94632F6093B7
:103C2000090E70930A0E80930B0E90930C0E87E58D
:103C30000E949A2F882309F474C30E94632F609313
:103C4000150E7093160E8093170E9093180E69C37D
:103C500083E50E949A2F882351F00E94632F60937E
:103C60000D0E70930E0E80930F0E9093100E86E43F
:103C70000E949A2F882381F00E94632F20E030E079
:103C800040E752E40E945CCB6093110E7093120ED9
:103C90008093130E9093140E82E50E949A2F88232E
:103CA00081F00E94632F20E030E040E752E40E9460
:103CB0005CCB60931D0E70931E0E80931F0E90932D
:103CC000200E87E50E949A2F882309F42AC30E94B8
:103CD000632F6093190E70931A0E80931B0E9093AE
:103CE0001C0E1FC383E50E949A2F882309F419C371
:103CF0000E944F2F8093000E1092D20D12C383E5C5
:103D00000E94D131882331F00E945F2F90934702A7
:103D1000809346028091BF0E9091C00EA091C10E7B
:103D2000B091C20E892B8A2B8B2B09F0FAC26091BD
:103D300046027091470286E696E067C00E94268F91
:103D4000F82E87FDEEC283E50E94D1310F2D0F2C96
:103D5000000C110B882361F10E945F2FF801EE0F18
:103D6000FF1FE65DFD4F91838083000F111F000F41
:103D7000111F9801265F3D4F7901BC01990F880BF7
:103D8000990B0E940AC42AE037ED43E25CE30E94EB
:103D900069C4F801E253F24F20813181428153819D
:103DA0000E9469C4F7016083718382839383B9C2DF
:103DB0000E94E3258091F210882311F08F3719F4C7
:103DC00085E40E9493258091F210882319F085E400
:103DD0000E9451248091F210882311F08F3721F432
:103DE00080E38F0D0E9493258091F210882321F0AB
:103DF00080E38F0D0E945124000F111FF801E65D32
:103E0000FD4F608171818AE696E00E94512C80917D
:103E1000F210882311F08F3719F485E20E94932560
:103E20008091F210882309F421C485E20E94512474
:103E30001DC48AE50E94D131811105C083E50E942D
:103E4000D131882331F10E94632F20E030E040E03F
:103E500050EC0E9403C487FD20C40E94632F20E021
:103E600030E040E050E40E945CCC18160CF410C422
:103E70000E94632F209147093091480940914909D8
:103E800050914A090E9469C40E94CECBCB010E9486
:103E900077AF8091C10E87FD05C48091C20E8370FB
:103EA00009F000C40E94E3256091D30E7091D40EF6
:103EB00082E796E00E94512CD9C360E085E40E941D
:103EC000ED31811170C080E50E949A2F882351F056
:103ED0000E94632F60936C1370936D1380936E1325
:103EE00090936F1389E40E949A2F882381F00E9497
:103EF000632F2CEA35EC47E25EE30E9469C46093CD
:103F0000701370937113809372139093731384E4FE
:103F10000E949A2F882381F00E94632F2CEA35ECAF
:103F200047E25EE30E945CCB609374137093751359
:103F300080937613909377130E94E32540916C133E
:103F400050916D1360916E1370916F1385E896E038
:103F50000E94E72C2CEA35EC47E25EE36091701397
:103F60007091711380917213909173130E945CCBC6
:103F7000AB01BC0181E896E00E94E72C2CEA35EC0D
:103F800047E25EE36091741370917513809176132C
:103F9000909177130E9469C4AB01BC018DE796E054
:103FA0000E94E72C63C30E94DF2589E896E00E9407
:103FB0009A25B7C10E949281B4C181E00E949B7F83
:103FC0000E94758DAEC10E94E82FABC16FEF7FEFED
:103FD00089E40E94DE31082F6FEF7FEF8AE40E94B0
:103FE000DE31182F8AE50E94D131811108C081E5A8
:103FF0000E94D131D82E882309F45AC301C0D12C94
:10400000C02E81E0800F853008F04CC0912E81E0F9
:10401000810F853008F046C00E94632F2B013C01C0
:10402000F02E07FDF12C07FF02C0F3E0CF2E812E0A
:1040300017FD812C17FF02C0E3E09E2ECF1408F479
:1040400070C1E82CF4E0FF9E500111249E1440F151
:104050000E2D10E0DD2071F0F501E00FF11FEE0FE5
:10406000FF1FEE0FFF1FEE5DF14F20813181428176
:10407000538103C020E030E0A9010A0D1B1D000F91
:10408000111F000F111F0E5D114FC301B2010E94DD
:10409000D9CAF8016083718382839383E394D6CF76
:1040A000F394CCCF0E94DF258EE893E00E949A25FE
:1040B00038C10E942CB6811134C10EE818E12CE4FD
:1040C00032E039A728A7CE0101961C0191ECC92E38
:1040D00098E1D92E7101F8016591759185919491BE
:1040E000E8A5F9A581909190A190B190F9A7E8A7D2
:1040F000A50194010E94D8CA2B013C01F7016083FD
:1041000071838283938320E030E040EA51EC0E9487
:104110005CCC87FD0AC020E030E040EA51E4C301F6
:10412000B2010E9403C418162CF4F60184911816EB
:104130000CF4C5C2F70181909190A190B1907F01DC
:1041400020E030E040EA51ECC501B4010E945CCCB3
:1041500087FDBFC220E030E040EA51E4C501B40170
:104160000E9403C418160CF0BBC2B3C20E94F74DE4
:10417000D8C00E942C9CD5C00E94EF9AD2C061E0AA
:1041800083E50E94F93191E089270E94429CC9C0D1
:1041900081E08093F30D0E94F0471092F30D882385
:1041A00009F4BFC00E94E32589ED96E00E949A259C
:1041B000B8C08091671182FF04C08064809367114A
:1041C000B0C083FFAEC00E9407B6ABC00E94BBA7C1
:1041D000A8C081E080935D0B60E083E50E94F93127
:1041E00081119FC00E94E1A69CC083E50E949A2F86
:1041F000882339F00E944F2F8093210E0E94B437FC
:1042000090C00E94E32584EE96E00E949A2580915A
:10421000210E0E94DB6585C00E94998F82C00E949A
:10422000608E6D3371058105910520F085E197E081
:104230000E9402AB81E197E00E9402AB0E94AC3782
:104240000E9413661091F2108FE78093F2108DEFA9
:1042500096E00E949A251093F21089EF96E09093D1
:10426000DA098093D9095DC00E941EB65AC0009138
:10427000BC0E1091BD0E0E94C4B36093CF0E70931C
:10428000D00E8093D10E9093D20E003108F441C02D
:104290000E94E3258091F210882311F08F3719F4E2
:1042A00084E50E9493258091F210882319F084E51B
:1042B0000E9451248091F210882311F08F3741F42D
:1042C000B8017727072E000C880B990B0E94122C3F
:1042D0008091F210882341F0B8017727072E000C57
:1042E000880B990B0E94C5248091F210882311F04D
:1042F0008F3719F480E20E9493258091F210882371
:1043000019F080E20E94512489E896E00E949A25E3
:1043100008C000934804802F0E94005C02C00E94E5
:104320001EB6FBA5F11102C00E94B2A62AA52093D9
:10433000F60208C28090CA0D9090CB0DA090CC0DD3
:10434000B090CD0D209158023091590240915A02FF
:1043500050915B02C501B4010E94D8CA6B017C0177
:1043600020E030E0A9010E945CCC87FFDEC12DEC8B
:104370003CEC4CEC5DEBC701B6010E9403C418167F
:104380005CF0C701B601905820E030E040E251E413
:104390000E9403C418161CF40E947A87C2CF11E051
:1043A00020E030E0A901C701B6010E945CCC1816DC
:1043B0000CF010E08091D20D8113EECF8092580264
:1043C00090925902A0925A02B0925B0288E592E064
:1043D0000E942F8520E030E0A901C701B6010E94AC
:1043E00003C4881F8827881F0E94EF5E9ACF0E940F
:1043F000928110922D02E090771480E00E94196261
:104400000E94C4B36093CF0E7093D00E8093D10EF0
:104410009093D20E0E945D8B81E08093C9090E9427
:10442000518E8AE50E949A2FF82E88E50E949A2FD5
:10443000182F89E50E949A2F181344C0F11611F025
:10444000012F04C001E011E0FF24F39482E50E94F3
:10445000D131882319F00E94632F04C060E070E01E
:1044600080E291E469837A838B839C8320E030E04F
:10447000A9010E9403C4882341F0111102C0002346
:1044800071F0CE0101960E9466B0112319F080E010
:104490000E9494BC002319F081E00E9494BCFF208C
:1044A00019F082E00E9494BC0E94738D8091C8092B
:1044B0008093C9098E2D0E9419620E94448B0E942C
:1044C000758D2FCF082FC2CF0E940E322ACF88E5DC
:1044D0000E949A2F81118A9889E50E949A2F811152
:1044E0005F988AE50E949A2F882329F0809108011D
:1044F00081708093060185E40E949A2F882309F435
:1045000010CF0E94DA230DCF8A985F98809108011E
:104510008170809306010E94DA2303CF0E942B2F23
:104520000E94406FFECE0E94928188E50E949A2FE1
:10453000882331F08A9A80912D138E7F80932D13DA
:1045400089E50E949A2F882331F05F9A80912D137C
:104550008D7F80932D138AE50E949A2F882359F02E
:1045600080910801809581708093060180912D13C0
:104570008B7F80932D1385E40E949A2F882309F462
:10458000D0CE0E94BB23CDCE0E94A281CACE602F86
:1045900083E50E94F93188CA83E50E94D1318823DE
:1045A00091F00E94632F60935F097093600980937C
:1045B0006109909362096093670970936809809319
:1045C000690990936A0980E50E94D131882351F0EE
:1045D0000E94632F60935F09709360098093610963
:1045E0009093620982E50E94D131882351F00E94A4
:1045F000632F6093630970936409809365099093B6
:10460000660984E50E94D131882309F48ACE0E948C
:10461000632F609367097093680980936909909389
:104620006A097FCE40915F095091600960916109EC
:104630007091620986E596E00E94E72C409163093B
:104640005091640960916509709166098FE49AE15F
:104650000E94E72C409167095091680960916909AF
:1046600070916A0983E59CE10E94E72C8091F21029
:10467000882311F08F3719F48AE00E9493258091E6
:10468000F210882309F44DCE8AE00E94512449CECD
:1046900060E070E080E090E4EDCB60E070E080E00E
:1046A00090ECE8CB82E50E949A2F8111FBCB39CEAA
:1046B0000E94DF258BE996E00E949A2532CEB7FA58
:1046C000B094B7F8B094F70180829182A282B3824D
:1046D00031CD0E94DF258BEB96E00E949A2521CEFA
:1046E0000C5F1F4FFFEFCF1ADF0A2AE938E12017CE
:1046F000310709F0F0CC89E8E82E83E1F82E10E0CC
:10470000F10181919191A191B1911F01F7018193E3
:104710009193A193B1937F01812F0E945A871F5FCC
:10472000133071F70E94758DFCCD2DEC3CEC4CECF8
:104730005DE3C701B6010E945CCC87FD2DCEC701A9
:10474000B60122CEAB960FB6F894DEBF0FBECDBF3A
:10475000DF91CF911F910F91FF90EF90DF90CF905D
:10476000BF90AF909F908F907F906F905F904F9091
:104770003F902F900895129A479A109A479A109A4C
:1047800008958A9A80912D138E7F80932D135F9ABE
:1047900080912D138D7F80932D138091080180953A
:1047A00081708093060180912D138B7F80932D1350
:1047B0000C94BB2312984798109847981098089526
:1047C0000E942285909123119093221190932111A0
:1047D0009093201194E690931F1120ED33E03093D5
:1047E0002A092093290981110E94916581E0809313
:1047F000640E0E9492818EEF0E94C38C0C94738D84
:104800009091671193FB882780F993FF06C081E0A0
:104810009091CC12911101C080E00895109255132F
:104820000895269A2E9808958F929F92AF92BF92E4
:10483000CF92DF92EF92FF920F93CF93DF931F926D
:10484000CDB7DEB75C016B017A014901F5018081CA
:1048500091810E9433CA8983002311F0F60180837D
:10486000BE016F5F7F4FC4010E94AFABF501808135
:104870009181019691838083FFEFCF1ADF0A81E057
:10488000E81AF10819F780E00F90DF91CF910F91AE
:10489000FF90EF90DF90CF90BF90AF909F908F9060
:1048A00008959091D00095FFFCCF8093D600089595
:1048B0008F929F92AF92BF92EF92FF920F931F93AE
:1048C000CF93DF93CDB7DEB7A0970FB6F894DEBFD6
:1048D0000FBECDBF611571058105910591F100E015
:1048E000842E912CA12CB12C102FEE24E394F12CCA
:1048F000EC0EFD1EE00EF11C07FDFA94A5019401DB
:104900000E9459CAF7016083B901CA010F5F61159E
:1049100071058105910541F71F3F31F1E1E0F0E0BC
:10492000EC0FFD1FE10FF11D17FDFA9580818A3014
:1049300010F097E301C090E3890F0E9451241150B9
:10494000EBCF80E3A0960FB6F894DEBF0FBECDBFCD
:10495000DF91CF911F910F91FF90EF90BF90AF909B
:104960009F908F900C945124A0960FB6F894DEBFC0
:104970000FBECDBFDF91CF911F910F91FF90EF90B0
:10498000BF90AF909F908F900895CF92DF92EF925B
:10499000FF926B017C0197FF0BC08DE20E945124B6
:1049A000F094E094D094C094C11CD11CE11CF11C83
:1049B0004AE0C701B601FF90EF90DF90CF900C94D2
:1049C00058248F929F92AF92BF92CF92DF92EF9234
:1049D000FF92CF936B017C01B42E20E030E0A9015F
:1049E0000E9403C487FF07C08DE20E945124F7FA9A
:1049F000F094F7F8F094C0E060E070E080E09FE3AE
:104A0000CB1541F02DEC3CEC4CEC5DE30E9469C40D
:104A1000CF5FF6CF9B01AC01C701B6010E94D9CA96
:104A20006B017C010E94D5CB4B015C014AE00E94E6
:104A30005824CC2389F1C501B4010E9408C49B010C
:104A4000AC01C701B6010E94D8CA6B017C018EE29D
:104A50000E94512420E030E040E251E4C701B60159
:104A60000E9469C44B015C010E94CECB6B01770FA1
:104A7000EE08FF08C701B6010E94C524C701B601B0
:104A80000E940AC49B01AC01C501B4010E94D8CAAE
:104A90006B017C01C150F1F6CF91FF90EF90DF9058
:104AA000CF90BF90AF909F908F9008958DE00E941F
:104AB00051248AE00C945124CF93DF93EC01899127
:104AC000882319F00E945124FACFDF91CF910C94E2
:104AD00056251F920F920FB60F9211240BB60F920C
:104AE0002F938F939F93EF93FF939091D6002091F4
:104AF000230CE091220C81E08E0F8F77281729F08C
:104B0000F0E0EE5DF34F9283E82FE093220CFF91EB
:104B1000EF919F918F912F910F900BBE0F900FBE31
:104B20000F901F9018959091C00095FFFCCF809337
:104B3000C60008950F931F93CF938C01F801C49181
:104B4000CC23A1F08091F210882311F08F3719F453
:104B50008C2F0E9493258091F210811103C00F5F6A
:104B60001F4FECCF8C2F0E945124F9CFCF911F9172
:104B70000F9108950F931F93CF93DF938B010E94A2
:104B80009A258091F210882311F08F3741F4C02FBD
:104B9000D12F8991882319F00E949325FACF809113
:104BA000F210882339F0E8018991882319F00E94D6
:104BB0005124FACFDF91CF911F910F91089583E097
:104BC00099E00C949A258DEF98E00C949A25C42FC7
:104BD0000E94C2A00E94DF258DED98E00E949A25D8
:104BE00089EE93E030E6019729F0232F2A95000003
:104BF000E9F7F9CFF89489EE93E038EE019729F0C0
:104C0000232F2A950000E9F7F9CF0E94C2A0CC23F8
:104C100019F00E94C12302C00E94BB230E941124EC
:104C2000A895FECF7F928F929F92AF92BF92CF9224
:104C3000DF92EF92FF920F931F93CF93DF931F9218
:104C4000CDB7DEB77C0159018B016B01C40ED51EB7
:104C50000C151D0559F1F70180809180F8017190C4
:104C60008F017982C4010E9433CA781691F0672DB2
:104C7000C4010E943BCAC4010E9433CA99818917AA
:104C800041F00E94E32583E297E00E949A2581E0AB
:104C90000EC0BE016F5F7F4FC5010E94AFABF70131
:104CA00080819181019691838083D2CF80E00F90A3
:104CB000DF91CF911F910F91FF90EF90DF90CF90F8
:104CC000BF90AF909F908F907F9008952F923F92CA
:104CD0004F925F926F927F928F929F92AF92BF920C
:104CE000CF92DF92EF92FF920F931F93CF93DF93B8
:104CF00000D01F921F92CDB7DEB780915C0B84303D
:104D000008F060C280915C0B843008F07FC1809114
:104D1000A00B9091A10B891B8F7741F48091220CFD
:104D20009091230C891B8F7709F470C12FEFA22E6D
:104D300022E0B22E3DEF832E32E0932E44EAC42EC1
:104D40004CE0D42E08EA1CE01D830C83E12CF12CEE
:104D50008E2D0E94896F97FD3CC18A3019F08D30ED
:104D600009F032C1F4011082F6018081918100E6E0
:104D70000E9DF0010F9DF00D1124E150FD4FE80F45
:104D8000F91F1082892B29F0F6011182108285010A
:104D900003C00E94DCA21DC1F8018191803211F490
:104DA0008F01FACF8E3409F066C00115110509F4A0
:104DB00062C061E878E0C8010E94BAC31C01892B77
:104DC00041F06EE470E0C80104960E9422CD009785
:104DD00009F4C8014AE050E060E070E001960E94EA
:104DE00029C12B013C01EC81FD8180819181A2814F
:104DF000B3810196A11DB11D481659066A067B06AE
:104E000031F0232821F46E2D8EE498E0FDC06AE293
:104E100070E0C8010E9451CD9C01009709F1982FC4
:104E2000901B312C992339F09150F801E90FF11DB5
:104E300080813826F7CF4AE050E060E070E0C90199
:104E400001960E9429C1232D30E040E050E0621716
:104E500073078407950741F06E2D8FE298E0D4C068
:104E60006E2D85E098E0D0C0EC81FD8140825182BA
:104E70006282738212C08091671180FF0EC063E965
:104E80007CE0C8010E94BAC3009709F4BAC0FC01D3
:104E9000838180538A3008F4B4C080915D0B8130E7
:104EA000E9F067E470E0C8010E9422CD0097B1F0FC
:104EB0004AE050E060E070E001960E9429C1623053
:104EC00071058105910550F47090F210E092F21096
:104ED0008EE897E00E949A257092F21069E877E0D8
:104EE000C8010E9481C3892B11F41092250264E845
:104EF00077E0C8010E9481C3892B31F441E060E072
:104F000070E08DEF93E0A2C16FE777E0C8010E94E7
:104F100081C3892B11F40E94E0236AE777E0C8017E
:104F20000E94BAC3892B09F449C06AE570E0C80140
:104F300004960E9422CD009709F440C08C010F5FB7
:104F40001F4F60E070E0C8010E94CDBF20E030E05C
:104F500040E050EC0E9403C487FD13C060E070E0A5
:104F6000C8010E94CDBF20E030E040E050E40E9444
:104F70005CCC18165CF060E070E0C8010E94CDBF08
:104F800009C060E070E080E090EC04C060E070E098
:104F900080E090E420914709309148094091490907
:104FA00050914A090E9469C40E94CECBCB010E9455
:104FB00077AFB70181E00E9442A70BC0A70161E073
:104FC000C5010E9472A705C09601A501B4010E9407
:104FD0004E6FFFEFEF1AFF0A00E6A00EB11C1FEFA5
:104FE000811A910A22E0C20ED11C0C811D810C5F36
:104FF0001F4F1D830C8312E0E116F10409F482CEE9
:10500000A7CE6E2D85E098E00E94B26F8091671167
:1050100082FFD8C01A82198211E040916311509129
:105020006411609165117091661180915F1190918A
:105030006011A0916111B0916211481759076A0778
:105040007B0708F410E000E680E1F82E99E6E92EEF
:1050500080915C0B843008F0B5C01111B3C0809111
:10506000D1129091D212A091D312B091D412809308
:10507000631190936411A0936511B093661141E0A0
:1050800050E0BE016D5F7F4F89EC92E10E94E6988F
:10509000019719F48B8190E002C08FEF9FEF409051
:1050A000631150906411609065117090661180904A
:1050B0005F1190906011A0906111B090621111E0A9
:1050C000481459046A047B0408F410E08F3F2FEF62
:1050D000920761F4481459046A047B0438F40E946E
:1050E000DF2586E898E00E949A25B2CF4091D80942
:1050F0008A3079F08D3069F0481459046A047B04D1
:1051000008F4A6C089819A81009719F001969A83C4
:1051100089831092BF0389819A81FC01049FE00D6D
:10512000F11D1124E552F64F1082892BC1F01A822D
:1051300019826FEF7FEF80E00E9442A78091631198
:1051400090916411A0916511B09166118093C30E86
:105150009093C40EA093C50EB093C60E02C00E94D9
:10516000DCA2481459046A047B0408F471CF0E943D
:10517000928189EC92E10E948C5280915E11882389
:10518000E1F0815080935E11E89EC001112462E03D
:105190008B5F924F0E945A7AE0915E1134E0E39F58
:1051A000F0011124EF5FF24F608171818281938160
:1051B0000E94406F0E94AA794BCF0E949B79F09287
:1051C0005D0B46CF0E94C4B36B017C014091EF029E
:1051D0005091F0026091F1027091F2024115510577
:1051E0006105710509F441C08091CF0E9091D00EF8
:1051F000A091D10EB091D20E840F951FA61FB71F9C
:1052000097018601081B190B2A0B3B0B37FD2DC09C
:105210000E94DF2560914513709146138DE397E05E
:105220000E94BA258091F210882309F414C28F37A6
:1052300009F411C28091F210882319F08AE00E94CB
:10524000512440E060E070E080E090E00E94E725BB
:10525000049FA00111244552564F9E012F5F3F4FDE
:105260006FEB73E00E944E6FF3CE8091010290913C
:105270000202A0910302B0910402892B8A2B8B2B8E
:1052800009F44DC09091221180912311981749F093
:10529000C092CF0ED092D00EE092D10EF092D20EEC
:1052A0003EC00E94C4B38090CF0E9090D00EA090CC
:1052B000D10EB090D20E0091010210910202209105
:1052C000030230910402080D191D2A1D3B1DDC014B
:1052D000CB01801B910BA20BB30BB7FDC0C180911A
:1052E000C40381111CC081E08093C4038A9A809119
:1052F0002D138E7F80932D135F9A80912D138D7FB8
:1053000080932D1380910801809581708093060110
:1053100080912D138B7F80932D130E94BB2380914E
:10532000C0039091C103A091C203B091C303A70130
:105330009601281B390B4A0B5B0B57FDE2C090917D
:10534000221180912311981751F0E09123113EE42E
:10535000E39FF0011124EE56FB4F008102C0009143
:105360005513002311F010E002C000E010E089E0C6
:105370000E94F3AE0115110511F460E004C00F3F67
:10538000110529F461E089E00E940CB3ADC0EDE4A1
:10539000F0E2E4918E2F90E0FC013197E231F105CB
:1053A00008F09DC08827EE58FF4F8F4F0C94D0CA4D
:1053B00084B5806884BD07BD97C084B5806284BD14
:1053C00008BD92C080918000806880938000109317
:1053D00089000093880088C080918000806280935B
:1053E000800010938B0000938A007EC08091800023
:1053F00088608093800010938D0000938C0074C0AF
:105400008091B00080688093B0000093B3006CC0BE
:105410008091B00080628093B0000093B40064C0BB
:105420008091900080688093900010939900009381
:1054300098005AC0809190008062809390001093F1
:105440009B0000939A0050C08091900088608093E8
:10545000900010939D0000939C0046C08091A00096
:1054600080688093A0008091A0008F7B8093A00033
:105470001093A9000093A80037C08091A00080621B
:105480008093A0001093AB000093AA002DC08091E0
:10549000A00088608093A0001093AD000093AC0042
:1054A00023C08091200180688093200110932901FE
:1054B0000093280119C0809120018062809320010F
:1054C00010932B0100932A010FC080912001886066
:1054D0008093200110932D0100932C0105C000380A
:1054E00011050CF04FCF49CF44E6C40ED11CE11C8E
:1054F000F11CC092C003D092C103E092C203F092AB
:10550000C3030E94DCA280915D0B882309F4E3C0F1
:1055100080910901817091E0982720910502291757
:10552000E1F12091671120622093671190930502A9
:1055300081110DC064EF71E080E090E00E94AE65E3
:105540000E94ED7C8091671183FD0AC026C00E94F5
:105550009B7980916711877F8062809367111DC05E
:105560000E943479882379F081E00E9407794AED1E
:1055700050E065E973E18AE691E10E94E6988AE6E7
:1055800091E10E948C520E94CA3781119DC00E94F5
:10559000AC370E94136610925C110E94C4B36B0179
:1055A0007C0180910002882359F18091F6028823C2
:1055B00039F14091C5035091C6036091C7037091C2
:1055C000C80397018601041B150B260B370B37FD0B
:1055D0002AC0833079F03CF4813094F00E94E325B6
:1055E00084EC98E00BC0843059F40E94E32585E9EF
:1055F00098E004C00E94E3258DEA98E00E949A2575
:105600002091000230E0A8EEB3E00E94ADCAC60EC1
:10561000D71EE81EF91EC092C503D092C603E092C1
:10562000C703F092C8038091EE02882309F453C0A7
:105630000E94C4B30091EA021091EB022091EC02A7
:105640003091ED02DC01CB01801B910BA20BB30B5F
:10565000B7FF08C040C08AE00E949325EBCD1092AE
:10566000C4035DCE0E94C4B36B017C012091EE02A5
:1056700030E0A8EEB3E00E94ADCAC60ED71EE81E09
:10568000F91EC092EA02D092EB02E092EC02F09294
:10569000ED021091F2108FE78093F21080E00E94EB
:1056A0003E578091F210882311F08F3719F48AE069
:1056B0000E9493258091F210882319F08AE00E94BD
:1056C00051241093F21007C086ED98E09093DA0908
:1056D0008093D90962CF0F900F900F900F900F9089
:1056E000DF91CF911F910F91FF90EF90DF90CF90BE
:1056F000BF90AF909F908F907F906F905F904F90F2
:105700003F902F9008958F929F92AF92BF92EF9209
:10571000FF920F931F93CF93DF93CDB7DEB7A09780
:105720000FB6F894DEBF0FBECDBF611571058105C0
:10573000910591F100E0842E912CA12CB12C102F19
:10574000EE24E394F12CEC0EFD1EE00EF11C07FD9F
:10575000FA94A50194010E9459CAF7016083B90126
:10576000CA010F5F611571058105910541F71F3F62
:1057700031F1E1E0F0E0EC0FFD1FE10FF11D17FD4D
:10578000FA9580818A3010F097E301C090E3890F89
:105790000E9493251150EBCF80E3A0960FB6F894AA
:1057A000DEBF0FBECDBFDF91CF911F910F91FF9054
:1057B000EF90BF90AF909F908F900C949325A09600
:1057C0000FB6F894DEBF0FBECDBFDF91CF911F9112
:1057D0000F91FF90EF90BF90AF909F908F900895A2
:1057E000CF93DF93EB010E949A258091F2108823DA
:1057F00011F08F3741F4CE01A0E0B0E04AE0BC01E7
:10580000CD010E94832B8091F210882341F0BE01CC
:1058100080E090E04AE0DF91CF910C945824DF9132
:10582000CF910895CF92DF92EF92FF926B017C01AE
:1058300097FF0BC08DE20E949325F094E094D094E2
:10584000C094C11CD11CE11CF11C4AE0C701B60187
:10585000FF90EF90DF90CF900C94832BCF92DF924C
:10586000EF92FF926A017B010E949A258091F210CB
:10587000882311F08F3721F4C701B6010E94122C42
:105880008091F210882341F0C701B601FF90EF909C
:10589000DF90CF900C94C524FF90EF90DF90CF90D5
:1058A0000895CF93DF93EB010E949A258091F21027
:1058B000882311F08F3739F4BE010D2E000C880BB0
:1058C000990B0E94122C8091F210882341F0BE01A6
:1058D000DD0F880B990BDF91CF910C94C524DF91DC
:1058E000CF9108958F929F92AF92BF92CF92DF9205
:1058F000EF92FF92CF936B017C01B42E20E030E059
:10590000A9010E9403C487FF07C08DE20E9493256E
:10591000F7FAF094F7F8F094C0E060E070E080E00F
:105920009FE3CB1541F02DEC3CEC4CEC5DE30E9489
:1059300069C4CF5FF6CF9B01AC01C701B6010E94DD
:10594000D9CA6B017C010E94D5CB4B015C014AE0B6
:105950000E94832BCC2389F1C501B4010E9408C4A5
:105960009B01AC01C701B6010E94D8CA6B017C0142
:105970008EE20E94932520E030E040E251E4C7012E
:10598000B6010E9469C44B015C010E94CECB6B0141
:10599000770FEE08FF08C701B6010E94122CC7015D
:1059A000B6010E940AC49B01AC01C501B4010E946A
:1059B000D8CA6B017C01C150F1F6CF91FF90EF90F6
:1059C000DF90CF90BF90AF909F908F900895CF922F
:1059D000DF92EF92FF926A017B010E949A258091EB
:1059E000F210882311F08F3729F442E0C701B60185
:1059F0000E94722C8091F210882349F042E0C70186
:105A0000B601FF90EF90DF90CF900C94E124FF90CF
:105A1000EF90DF90CF9008958DE00E9493258AE06B
:105A20000C949325CF93DF93EC018991882319F08F
:105A30000E949325FACFDF91CF910C940C2D1F92E9
:105A40000F920FB60F9211240F900FBE0F901F9060
:105A500018951F920F920FB60F9211240F900FBE40
:105A60000F901F9018951F920F920FB60F9211244E
:105A70000BB60F922F938F939F93EF93FF93909179
:105A8000C6002091A10BE091A00B81E08E0F8F77D3
:105A9000281729F0F0E0E056F44F9283E82FE093C6
:105AA000A00BFF91EF919F918F912F910F900BBEC3
:105AB0000F900FBE0F901F9018958EBD0DB407FE6E
:105AC000FDCF08958FEF8EBD0DB407FEFDCF8EB5CF
:105AD0000895909164009B7F90936400982F906A42
