:100000000C946B1D0C949C1D0C949C1D0C949C1DBD
:100010000C949C1D0C949C1D0C949C1D0C949C1D7C
:100020000C949C1D0C949C1D0C949C1D0C949C1D6C
:100030000C949C1D0C94DA710C949C1D0C949C1DCA
:100040000C949C1D0C9401570C949C1D0C949C1DAD
:100050000C949C1D0C949C1D0C94F1A40C94916B1D
:100060000C949C1D0C9433520C949C1D0C949C1D60
:100070000C949C1D0C949C1D0C949C1D0C949C1D1C
:100080000C949C1D0C949C1D0C949C1D0C949C1D0C
:100090000C949C1D0C949C1D0C949C1D0C949C1DFC
:1000A0000C949C1D0C949C1D0C949C1D0C949C1DEC
:1000B0000C949C1D0C949C1D0C949C1D0C949C1DDC
:1000C0000C949C1D0C949C1D0C949C1D0C949C1DCC
:1000D0000C949C1D0C949C1D0C949C1D0C949C1DBC
:1000E0000C949C1D5669596948694C69526990691C
:1000F0005D69616967696B696F69756979697D694E
:100100009069836987698B69AD6AB26AB76AC16AA7
:10011000CB6A446BD56ADD6AE56AEF6AF96A036BFC
:10012000126B1C6B446B266B306B3A6B08F24BF016
:1001300084F044F284F084F084F084F084F084F05D
:1001400084F084F084F084F084F084F084F084F00F
:1001500084F084F084F084F084F084F084F084F0FF
:1001600084F084F084F084F03EF284F084F084F033
:1001700084F084F084F084F084F017F284F084F04A
:1001800084F084F084F084F084F084F084F084F0CF
:100190005BF281F0084AD73B3BCE016E84BCBFFDC9
:1001A000C12F3D6C74319ABD56833DDA3D00C77F47
:1001B00011BED9E4BB4C3E916BAAAABE00000080E0
:1001C0003F05A84CCDB2D44EB93836A9020C50B96F
:1001D000918688083CA6AAAA2ABE000000803F009B
:1001E0000D942E0C0D94BA040D94A3190D94C60F02
:1001F0004E414E494E495459494E46CDCCCC3D0A0C
:10020000D7233C17B7D13877CC2B329595E6241FEE
:10021000B14F0A000020410000C84200401C4620A7
:10022000BCBE4CCA1B0E5AAEC59D74434F4D4D55B6
:100230004E49434154494F4E0044525952554E0085
:100240004552524F525300494E464F004543484F86
:100250000047322F47332062616420706172616D04
:1002600065746572730A005265706F736F2E2E2E5F
:1002700000205A3A200020593A2000426564205854
:100280003A2000526573756D69656E646F20696D03
:100290007072652E005A38535F4D33206C69737449
:1002A000612E004573706572616E646F206F7264B9
:1002B000656E65730053696E206D6F76696D696553
:1002C0006E746F00456E642066696C65206C69739E
:1002D000740A00426567696E2066696C65206C6906
:1002E00073740A004D313235005344207072696EC8
:1002F00074696E67206279746520004E6F742053B4
:1003000044207072696E74696E670A005072696E7B
:10031000742074696D653A200050726F746563745F
:1003200065642050696E0A00452569202573004CDC
:10033000024702400239022B026F666600444542C2
:1003400055473A0050617261646120646520656DB3
:10035000657267656E636961006F6B00506C6174F4
:1003600061666F726D612043616C69656E746500D2
:1003700020573A0043616C656E74616E646F205063
:100380006C61742E2E2E005A38535F4D332041700D
:10039000616761722E00454D455247454E43595F96
:1003A00050415253455200434153455F4C494748E1
:1003B000545F4252494748544E45535300544F47A7
:1003C000474C455F4C494748545300534F46545798
:1003D0004152455F504F574552004255494C445F8A
:1003E00050455243454E54004C4556454C494E47A6
:1003F0005F44415441005A5F50524F4245004155BD
:10040000544F4C4556454C005052494E545F4A4F4C
:10041000420050524F4752455353004155544F529A
:1004200045504F52545F54454D5000564F4C554D1A
:10043000455452494300454550524F4D0053455293
:1004400049414C5F584F4E5F584F4646004649520F
:100450004D574152455F4E414D453A4D61726C6971
:100460006E2042617365206F6E204D61726C696E03
:10047000312E312E3820284769746875622920533F
:100480004F555243455F434F44455F55524C3A6880
:10049000747470733A2F2F6769746875622E636F76
:1004A0006D2F7A6F6E657374617233642050524F92
:1004B000544F434F4C5F56455253494F4E3A312E9D
:1004C00030204D414348494E455F545950453A5AB2
:1004D00038535F4D332045585452554445525F437D
:1004E0004F554E543A3120555549443A303030300A
:1004F000303031302D303830382D303030332D30F1
:100500003030302D32303138303131303030310A06
:10051000002F2F20004D31343520533C696E646527
:10052000783E206F7574206F662072616E6765205B
:1005300028302D31290A0053657474696E67205480
:10054000726176656C20416363656C657261746984
:100550006F6E3A200053657474696E67205265743B
:100560007261637420416363656C65726174696F65
:100570006E3A200053657474696E67205072696E1C
:100580007420416363656C65726174696F6E3A20B3
:100590000053657474696E67205072696E742061CF
:1005A0006E642054726176656C20416363656C658E
:1005B000726174696F6E3A2000205A004475616C54
:1005C00020456E6473746F702041646A7573746D36
:1005D000656E7420286D6D293A2000205A0020593C
:1005E00000580020204D61783A2000205A00205900
:1005F00000580020204D696E3A2000456E63656EFC
:100600006465720041706167617200536F667420A7
:10061000656E6473746F70733A200000013637267C
:1006200003FF3C3D380EFF2E303E121313FF080926
:1006300006FFFF24221EFFFF2827162B2C2A084422
:100640000A06431A1C18FFFFFFFFFFFF20643A0051
:1006500020693A0020703A0043290A0061626C6503
:100660006420286D696E2074656D702000436F6C86
:10067000642065787472756465732061726520000A
:10068000426564204C6576656C696E672000466142
:10069000696C656420746F20656E61626C652042D0
:1006A0006564204C6576656C696E670A0042656416
:1006B000204C6576656C20436F7272656374696F58
:1006C0006E204D61747269783A003A2000207A5F9A
:1006D0006D696E3A20202D3230207A5F6D61783A54
:1006E000202032300A0050726F6265205A204F6617
:1006F00066736574004E6F2063617365206C696773
:1007000068740A00556E6B6E6F776E20636F6D6D47
:10071000616E643A20220020706F736974696F6E95
:10072000206F7574206F662072616E67652E0A00F7
:100730003F50726F626520000A0A426564204C6572
:1007400076656C20436F7272656374696F6E204DBD
:1007500061747269783A00202B000A436F727265E7
:100760006374656420426564204865696768742025
:1007700076732E2042656420546F706F6C6F6779BA
:100780003A0A00202B000A426564204865696768C0
:100790007420546F706F6772617068793A0A202014
:1007A000202B2D2D2D204241434B202D2D2B0A2077
:1007B00020207C20202020202020202020207C0A97
:1007C000204C207C20202020282B29202020207C29
:1007D00020520A2045207C2020202020202020207C
:1007E00020207C20490A2046207C20282D29204ECC
:1007F00020282B29207C20470A2054207C202020E0
:1008000020202020202020207C20480A2020207C1E
:1008100020202020282D29202020207C20540A2040
:1008200020207C20202020202020202020207C0A26
:100830002020204F2D2D2046524F4E54202D2D2B61
:100840000A2028302C30290A004D65616E206F6621
:100850002073616D706C656420706F696E74733A9B
:10086000200020643A200020623A200045716E206A
:10087000636F656666696369656E74733A20613A91
:100880002000202844525952554E29004732392021
:100890004175746F20426564204C6576656C696EA5
:1008A000670028422961636B00284629726F6E74C5
:1008B000002852296967687400284C29656674000D
:1008C0003F4E756D626572206F662070726F626553
:1008D00020706F696E747320697320696D706C612C
:1008E000757369626C65202832206D696E696D755B
:1008F0006D292E0A003F2856296572626F736520A4
:100900006C6576656C20697320696D706C617573B8
:1009100069626C652028302D34292E0A0025697300
:100920000025696D20256973002569682025696D9A
:100930002025697300256964202569682025696D73
:100940002025697300256979202569642025696857
:100950002025696D202569730050617261646120F2
:10096000646520656D657267656E636961004465E5
:1009700074656E696461005072696E74657220738B
:10098000746F707065642064756520746F20657283
:10099000726F72732E2046697820746865206572C4
:1009A000726F7220616E6420757365204D3939391C
:1009B00020746F20726573746172742E20285465E0
:1009C0006D706572617475726520697320726573EC
:1009D00065742E2053657420697420616674657295
:1009E0002072657374617274696E67290A004E6FB4
:1009F00020436865636B73756D2077697468206C3C
:100A0000696E65206E756D6265722C204C61737421
:100A1000204C696E653A2000636865636B73756D81
:100A2000206D69736D617463682C204C6173742050
:100A30004C696E653A20004C696E65204E756D629A
:100A40006572206973206E6F74204C617374204C42
:100A5000696E65204E756D6265722B312C204C617C
:100A60007374204C696E653A20004D313130004D71
:100A700033310053442072656164206572726F7275
:100A80000A00446F6E65207072696E74696E67202B
:100A900066696C650A00506F72206661766F722C11
:100AA000207265696E6963696500494D505245530E
:100AB0004F524120504152414441005072696E747E
:100AC00065722068616C7465642E206B696C6C289B
:100AD000292063616C6C6564210A00656E7175651F
:100AE0007565696E67202200000048420000484298
:100AF00000000040000000005761726E696E673AA6
:100B000020486F6D696E672042756D70204469766C
:100B100069736F72203C20310A000202040000A0B9
:100B2000400000A040000000400000B44300009BD3
:100B3000430080C943FFFFFF4D36303020486F74BB
:100B4000656E6420746F6F20636F6C6420746F2017
:100B50006368616E67652066696C616D656E740AB5
:100B60000024F4D43050C38E20C2A24017828B7070
:100B700011127A910D816CD90AA861E108C75866F3
:100B800007615143061E4B5D05C145A7041A41117B
:100B900004093D9803713931034036DB0265339116
:100BA00002D4305402802E1D02632CEE01752AC53A
:100BB00001B028A001102781018F2564012B244B4F
:100BC00001E0223401AC211F018D200D01801FFCAA
:100BD00000841EED00971DDF00B81CD200E61BC686
:100BE00000201BBC00641AB200B219A8000A19A0A8
:100BF000006A189900D117910040178B00B5168430
:100C00000031167E00B31579003A157300C7146FD2
:100C10000058146A00EE1366008813630025135E03
:100C200000C7125B006C12570015125400C111511D
:100C30000070114F0021114B00D61049008D104754
:100C4000004610440002104200C00F4000800F3EDA
:100C500000420F3C00060F3B00CB0E3800930E37CE
:100C6000005C0E3500270E3400F30D3200C10D314B
:100C700000900D3000600D2E00320D2D00050D2C62
:100C800000D90C2B00AE0C2900850C29005C0C2728
:100C900000350C27000E0C2600E80B2400C40B24A2
:100CA00000A00B23007D0B23005A0B2100390B21E0
:100CB00000180B2000F80A1F00D90A1E00BB0A1EEC
:100CC000009D0A1D00800A1D00630A1C00470A1BC4
:100CD000002C0A1B00110A1A00F7091A00DD091975
:100CE00000C4091900AB091900920917007B091803
:100CF00000630917004C0916003609160020091672
:100D0000000A091500F5081500E0081400CC0814C5
:100D100000B8081400A4081400900813007D0812FD
:100D2000006B08130058081200460812003408111E
:100D300000230811001208110001081100F007102B
:100D400000E0071000D0071000C0071000B0070F28
:100D500000A107100091070E0083070F0074070F12
:100D60000065070E0057070E0049070E003B070DF0
:100D7000002E070E0020070D0013070D0006070DBB
:100D800000F9060C00ED060D00E0060C00D4060C80
:100D900000C8060C00BC060C00B0060C00A4060B34
:100DA0000099060C008D060B0082060B0077060BDF
:100DB000006C060B0061060A0057060B004C060A81
:100DC0000042060A0038060A002E060A0024060A17
:100DD000001A060A001006090007060A00FD0509A8
:100DE00000F4050900EB050900E2050900D9050931
:100DF00000D0050900C7050900BE050900B50508B2
:100E000000AD050800A50509009C0508009405082B
:100E1000008C050800840508007C0508007405089E
:100E2000006C050700650508005D0507005605080C
:100E3000004E050700470507004005080038050774
:100E400000310507002A050700230507001C0506D9
:100E500000160507000F0507000805060002050734
:100E600000FB040600F5040700EE040600E8040693
:100E700000E2040700DB040600D5040600CF0406E8
:100E800000C9040600C3040600BD040600B704063A
:100E900000B1040500AC040600A6040600A0040589
:100EA000009B04060095040500900406008A0405D2
:100EB0000085040500800406007A04050075040519
:100EC00000700405006B040500660405006104055C
:100ED000005C04050057040500520405004D04059C
:100EE0000048040500430405003E0404003A0405DC
:100EF0000035040500300404002C04050027040418
:100F000000230405001E0404001A0404001604054E
:100F100000110404000D0404000904050004040485
:100F20000000040400FC030400F8030400F40304BC
:100F300000F0030400EC030400E8030400E40304ED
:100F400000E0030400DC030400D8030400D403041D
:100F500000D0030400CC030400C8030300C503034E
:100F60000024F404D9201BC40C5C0E9804C4095F4F
:100F70000265077101F405F900FB04B3004804871A
:100F800000C10369005803550003034500BE023A3F
:100F9000008402310053022A0029022500040220A5
:100FA00000E4011C00C8011900AF011700980114EA
:100FB0000084011300710110006101100051010E45
:100FC0000043010D0036010B002B010B0020010B2B
:100FD00000150109000C01090003010800FB0008CD
:100FE00000F3000800EB000700E4000600DE000646
:100FF00000D8000600D2000600CC000500C700059E
:1010000000C2000500BD000400B9000400B50004E2
:1010100000B1000400AD000400A9000400A5000315
:1010200000A20003009F0004009B0003009800033F
:10103000009500020093000300900003008D000261
:10104000008B000300880002008600020084000379
:1010500000810002007F0002007D0002007B000290
:10106000007900020077000100760002007400029F
:101070000072000100710002006F0002006D0001AB
:10108000006C0002006A00010069000200670001B4
:1010900000660001006500010064000200620001BA
:1010A0000061000100600001005F0002005D0001BE
:1010B000005C0001005B0001005A000100590001C2
:1010C00000580001005700010056000100550001C2
:1010D00000540001005300000053000100520001C1
:1010E0000051000100500001004F0001004E0000BF
:1010F000004E0001004D0001004C0001004B0000BB
:10110000004B0001004A00010049000100480000B6
:1011100000480001004700010046000000460001B1
:1011200000450000004500010044000100430000AC
:1011300000430001004200000042000100410000A5
:101140000041000100400001003F0000003F00019D
:10115000003E0000003E0001003D0000003D000197
:10116000003C0000003C0000003C0001003B00008F
:10117000003B0001003A0000003A00010039000085
:10118000003900010038000000380000003800017C
:101190000037000000370001003600000036000074
:1011A0000036000100350000003500000035000168
:1011B000003400000034000000340001003300005F
:1011C0000033000000330001003200000032000054
:1011D0000032000100310000003100000031000148
:1011E000003000000030000000300001002F00003F
:1011F000002F0000002F0000002F0001002E000033
:10120000002E0000002E0001002D0000002D000027
:10121000002D0000002D0001002C0000002C00001B
:10122000002C0000002C0001002B0000002B00000F
:10123000002B0000002B0001002A0000002A000003
:10124000002A0000002A00010029000000290000F7
:1012500000290000002900000029000100280000EA
:1012600000280000002800000028000000280001DD
:1012700000270000002700000027000000270000D2
:1012800000270001002600000026000000260000C4
:1012900000260000002600010025000000250000B7
:1012A00000250000002500000025000000250001A9
:1012B000002400000024000000240000002400009E
:1012C0000024000100230000002300000023000090
:1012D0000023000000230000002300000023000181
:1012E0000022000000220000002200000022000076
:1012F0000022000000220001002100000021000067
:101300000021000000210000002100000021000059
:10131000002100010020000000200000002000004B
:10132000002000000020000000200000002000003D
:1013300000200001001F0000001F0000001F00002F
:10134000001F0000001F0000001F0000001F000120
:10135000001E0000001E0000001E0000001E000015
:10136000004D383420582059205A2045004C696ED1
:10137000656172204C6576656C696E6700457874AE
:101380007275736F7265733A203300687474703AC3
:101390002F2F7777772E7A6F6E657374617233644F
:1013A0002E636F6D005A38535F4D33003230313940
:1013B0002D30342D33300042617365206F6E204D27
:1013C00061726C696E312E312E380056322E31002A
:1013D0004865617465722054657374696E67004D69
:1013E00031303420533236300A4D313430205331CD
:1013F00031350A4D3130362053300A004175746F53
:1014000020557020646F776E004D32303320583194
:1014100035302059313530205A31360A473020587E
:101420003331302059333130205A3430302046396E
:1014300036300A4730205830205930205A31302079
:10144000463936300A47302058333030205933304F
:1014500030205A34303020463936300A4730205850
:1014600030205930205A313020463936300A473042
:1014700020583331302059333130205A3430302025
:10148000463936300A4730205830205930205A31FA
:101490003020463936300A47302058333130205911
:1014A000333130205A34303020463936300A473014
:1014B000205830205930205A313020463936300AF1
:1014C000473020583331302059333130205A3430AE
:1014D0003020463936300A473020583020593020E5
:1014E0005A313020463936300A4732380A4D3230C8
:1014F0003320583135302059313030205A380A4D98
:1015000033303020533330303020503130303000E1
:101510004661737420746F20426F74746F6D004D58
:1015200032303320583135302059313530205A315E
:10153000360A4732382058300A4730205A30204681
:101540003936300A4D323033205831353020593158
:101550003030205A380A004661737420746F20546A
:101560006F70004D323033205831353020593135CD
:1015700030205A31360A4730205833313020593321
:101580003130205A34303020463936300A4D32302E
:101590003320583135302059313030205A380A0044
:1015A0004C6C6576617220616C206F726967656E44
:1015B000004732380045737461646973746963610C
:1015C0007320496D702E005465726D6973746F726B
:1015D000657300496E662E20436F6E74726F6C6186
:1015E000646F7200496E662E20496D707265736F6C
:1015F0007261004D656E75207072696E636970610D
:101600006C002020426F7175696C6C613A2000207B
:101610000041747261730054656D70204D696E698C
:101620006D61206573203135302E004572726F7206
:101630003A20616C2063616C656E7461720045785C
:101640007472756972206D617300526573756D698E
:101650007220696D702E004F50432E205245494E26
:101660004943494F3A002020426F7175696C6C61A3
:101670003A200063616D626961720064656C206686
:10168000696C616D656E746F004573706572616E33
:10169000646F20696E696369617200494D50522E12
:1016A0002050415553414441002020426F717569DB
:1016B0006C6C613A2000200066696C616D656E7427
:1016C0006F20657870756C7361646F004573706529
:1016D0007261646F20706F7200494D50522E20501D
:1016E000415553414441002020426F7175696C6C33
:1016F000613A2000200045737065726520706F723A
:10170000206661766F720043616C656E74616E6411
:101710006F20626F7175696C6C6100494D50522E7B
:101720002050415553414441002020426F7175695A
:101730006C6C613A2000200043616C656E746172CC
:10174000206C6120626F7175696C6C61004F707202
:10175000696D6120626F746F6E2070617261004903
:101760004D50522E205041555341444100202042BB
:101770006F7175696C6C613A2000706172612063F1
:101780006F6E74696E7561722E2E2E0079207072E4
:101790006573696F6E6520656C20626F746F6E0093
:1017A000496E73657274652066696C616D656E74EF
:1017B0006F00494D50522E20504155534144410035
:1017C0002020426F7175696C6C613A2000200043E3
:1017D00061726761722066696C616D656E746F001D
:1017E000457370657261646F20706F7200494D506F
:1017F000522E2050415553414441002020426F71E8
:1018000075696C6C613A20002000457874727569C6
:10181000722066696C616D656E746F0045737065EA
:101820007261646F20706F7200494D50522E2050CB
:101830004155534144410000060900FE070192034F
:1018400021207FFF07FF07FF0000000600000107BF
:10185000070602008080808080008003020206016B
:1018600005A0A00507070600005050F850F850509A
:101870000507070600002078A07028F0200507075C
:10188000060000C0C8102040981805070706000091
:101890006090A040A89068020303060104C0408045
:1018A00003070706010020408080804020030707CF
:1018B000060100804020202040800505050600012B
:1018C00020A870A8200505050600012020F820208A
:1018D0000203030602FFC04080050101060003F871
:1018E000020202060200C0C005050506000108103C
:1018F0002040800507070600007088888888887067
:1019000003070706010040C040404040E0050707CC
:10191000060000708808708080F805070706000040
:10192000F81020100808F0050707060000103050D6
:1019300090F81010050707060000F880F0080888E6
:1019400070050707060000708080F0888870050722
:1019500007060000F80810202020200507070600D1
:1019600000708888708888700507070600007088F6
:101970008878080870020505060200C0C000C0C0D3
:101980000206060602FFC0C000C04080040707062A
:10199000000010204080402010050303060002F8DC
:1019A00000F8040707060100804020102040800551
:1019B00007070600007088081020002005070706AA
:1019C000000070880868A8A8700507070600007066
:1019D0008888F8888888050707060000F08888F05E
:1019E0008888F0050707060000708880808088706E
:1019F000050707060000F08888888888F005070733
:101A0000060000F88080F08080F8050707060000D7
:101A1000F88080F0808080050707060000708880CD
:101A2000B8888870050707060000888888F88888C5
:101A3000880107070602008080808080808005077B
:101A40000706000038101010109060050707060008
:101A5000008890A0C0A0908805070706000080803D
:101A600080808080F805070706000088D8A888884D
:101A700088880507070600008888C8A89888880510
:101A800007070600007088888888887005070706A1
:101A90000000F08888F0808080050707060000704D
:101AA000888888A89068050707060000F08888F0F5
:101AB000A09088050707060000788080700808F06D
:101AC000050707060000F820202020202005070732
:101AD0000600008888888888887005070706000047
:101AE000888888888850200507070600008888882D
:101AF0008888A8500507070600008888502050886D
:101B000088050707060000888888502020200507E0
:101B100007060000F80810204080F80307070601B8
:101B200000E08080808080E005050506000180409F
:101B3000201008030707060100E02020202020E0F5
:101B4000050303060004205088050101060000F883
:101B50000202020602058040050505060000700825
:101B60007888780507070600008080B0C88888F06C
:101B700005050506000070808088700507070600CF
:101B800000080868988888780505050600007088B0
:101B9000F880700507070600003048E040404040EC
:101BA0000506060600FF7088887808700507070696
:101BB00000008080B0C8888888010707060200807E
:101BC0000080808080800308080601FF200020201C
:101BD0002020A040040707060000808090A0C0A03D
:101BE00090030707060100C04040404040E0050563
:101BF00005060000D0A8A8A8A8050505060000B0A5
:101C0000C8888888050505060000708888887005E2
:101C100006060600FFF08888F080800506060600AC
:101C2000FF788888780808050505060000B0C88098
:101C3000808005050506000070807008F004070725
:101C40000600004040E04040403005050506000029
:101C500088888898680505050600008888885020CF
:101C60000505050600008888A8A85005050506009A
:101C70000088502050880506060600FF888888786E
:101C80000870050505060000F8102040F803070756
:101C90000601002040408040402001070706020066
:101CA000808080808080800307070601008040409C
:101CB00020404080050202060002689000000006F5
:101CC000000000002100240027002A002D00300021
:101CD000330001010000040107010A010000220095
:101CE000250028002B002E003100340002010000E6
:101CF000050108010B010000200023002600290037
:101D00002C002F0032000001000003010601090130
:101D100005050505070508080808020202020A0A67
:101D20000808040404040101010101010101030385
:101D3000030303030303040707070C0C0C0C0C0C30
:101D40000C0C0202020206060606060606060B0B2D
:101D50000B0B0B0B0B0B010210202008081020406E
:101D6000102040800201020108040201010204085F
:101D700010204080804020100804020180040201ED
:101D80008040201008040201080402010102040836
:101D900010204080010204081020408000000A0B3F
:101DA00002090C0D0E0807030401000000000000EA
:101DB0000000000000000000000000000000000023
:101DC00000000000000000001211100000000000E0
:101DD0000000000000000000000000000000000003
:101DE00000000200000000000000000000000000F1
:101DF00000000000000000000000000000000000E3
:101E000000000000000000000000000000000000D2
:101E100000000000000000000000000000000000C2
:101E200000000007FF01FE070183FE0FF8FFF8071F
:101E3000007FC007FF83FF0F8187FE1FF8FFF80FA9
:101E400080FFE007FFC7038F818FFC3FF0FFF81F83
:101E5000C0E0E00003C6018FC18C00380007001FFE
:101E6000C0C060000786018CC18C00300007003DB7
:101E7000E0C060000F06018CE18C003800070038DC
:101E8000E0E0E0001E06018C618FFE3FF0070038A5
:101E9000E0FFC0003C06018C618FFE1FF807003098
:101EA00060FF80007806018C318FFC0FFC07007208
:101EB00070FC0000F006018C318E00001C070062EF
:101EC00030CE0001E006018C398C00000C07006761
:101ED00030C70003C006018C198C00000C07006796
:101EE00030C380078007038C198E00001C0700CFC9
:101EF00098C1C007FFC7FF8C0F8FFF1FFC0700CFE3
:101F000098C0F003FFC3FF0C0F87FF3FF80700DF07
:101F1000D8C07001FFC1FE0C0701FE3FF0070000B2
:101F200000000000000000000000000000000000B1
:101F300000000000000000000000000000000000A1
:101F40000000000000000000000000000000000091
:101F50000000000000000000000000000000000081
:101F60000000002020506C616E6E657242756666DE
:101F7000657242797465733A200020467265652067
:101F80004D656D6F72793A2000436F6D70696C65B5
:101F9000643A204D617920323920323031390A00DB
:101FA000207C20417574686F723A202848616C6CFF
:101FB00079405A4F4E4553544152290A003230312C
:101FC000392D30342D333000204C6173742055701E
:101FD00064617465643A200042617365206F6E200D
:101FE0004D61726C696E312E312E380A004D61726E
:101FF0006C696E0020536F6674776172652052655C
:102000007365740A00205761746368646F672052B7
:10201000657365740A002042726F776E206F757465
:102020002052657365740A002045787465726E618C
:102030006C2052657365740A00506F776572557035
:102040000A0073746172740A006572726F7220778D
:10205000726974696E6720746F2066696C650A0026
:10206000456E6473746F707320256320256320258B
:10207000632025630020503A00205A3A0020593A44
:102080000020583A00656E6473746F70732068693D
:10209000743A2000446F6E6520736176696E672024
:1020A00066696C652E0A004D32390025753A253077
:1020B000327500253032753A253032750025756449
:1020C00020253032753A25303275005A00590058B3
:1020D000004D616E75616C0052616E646F6D004CF5
:1020E000696E6561720009200000000000000000B8
:1020F00000000000007FFFE0000000000000000082
:10210000000000007000E00000000000000000007F
:1021100000000061F8600000000000000000000006
:10212000000041F820000000000000000000000056
:102130000040F0200000000000000000000000004F
:102140004060200000000000000000000000005877
:1021500001A0FFC003B807700EE0004081005C637F
:10216000A07F8003B807700EE0002040805EF7A0DB
:102170007F8001B0036006C0002040805EF7A07F32
:102180008001B0036006C0004081005C63A07F80D6
:1021900007BFFF7FFEF0008102005801A03F00074B
:1021A00080000000F001020400406020FFC007FF33
:1021B000FC1FFFF00102040040F020FFC007FFFEFB
:1021C0003FFFF00081020041F820FFC000000F78BF
:1021D00000000040810061F8603F000000077000CF
:1021E00000000000007000E01E000000036000001E
:1021F00001FFFF807FFFE00C0000000140000001B4
:10220000FFFF800000000000000000000000000050
:1022100000007FFFE0000000000000000000000060
:10222000007000E00000000000000000000000005E
:10223000630C600000000000000000000000004788
:102240000E200000000000000000000000004F0F02
:10225000200000000000000000000000005F0FA050
:102260000000000000000000000000005E07A0FF6A
:10227000C003B807700EE0004081004060207F80FE
:1022800003B807700EE00020408040F0207F8001FE
:10229000B0036006C00020408040F0207F8001B085
:1022A000036006C0004081004060207F8007BFFFC0
:1022B0007FFEF0008102005E07A03F000780000063
:1022C00000F0010204005F0FA0FFC007FFFC1FFF2A
:1022D000F0010204004F0F20FFC007FFFE3FFFF098
:1022E00000810200470E20FFC000000F78000000B0
:1022F000408100630C603F00000007700000000098
:1023000000007000E01E0000000360000001FFFFFD
:10231000807FFFE00C0000000140000001FFFF8013
:102320000000007061726120726573756D697200E2
:102330004573706572616E646F20696D702E00491F
:102340004D50522E2050415553414441005461722A
:102350006A657461207265746972616461005461B8
:10236000726A65746120636F6C6F636164610050B1
:10237000726F62696E67206661696C65640A0050FD
:10238000726F62696E67206661696C656400205ACD
:102390003A200020593A200042656420583A200033
:1023A000486F6D652025732573257320696E6963F9
:1023B0002E0020696E69632E0A005A0059005800E9
:1023C000486F6D65200057726974696E6720746F7D
:1023D0002066696C653A20006F70656E20666169E1
:1023E0006C65642C2046696C653A20006F70656EE0
:1023F000206661696C65642C2046696C653A200032
:1024000046696C652073656C65637465640A0020B9
:1024100053697A653A200046696C65206F70656E75
:1024200065643A20006F70656E206661696C656452
:102430002C2046696C653A20002066696C653A205C
:1024400000646F696E67006672657368004E6F772F
:102450002000454E4420535542524F5554494E4555
:102460000A002220706F73002220706172656E7402
:102470003A2200535542524F5554494E452043414C
:102480004C4C207461726765743A2200506172612D
:10249000646120646520656D657267656E6369615E
:1024A00000747279696E6720746F2063616C6C20B0
:1024B0007375622D67636F64652066696C65732050
:1024C0007769746820746F6F206D616E79206C6518
:1024D00076656C732E204D4158206C6576656C20B6
:1024E00069733A004578747275736F72004D6F7638
:1024F0006572205A004D6F7665722059004D6F76D7
:102500006572205800507265706172617200496E88
:10251000697469616C697A6520454550524F4D0078
:10252000436F6E74726F6C00526573746175726183
:1025300072206D656D6F72696100436172676172CF
:10254000206D656D6F72696100496E697469616CB7
:10255000697A6520454550524F4D00477561726458
:102560006172206D656D6F726961004D6F76696D86
:1025700069656E746F0054656D7065726174757213
:1025800061004D656E75207072696E636970616C73
:102590000050726563616C656E74617220414253D4
:1025A000436F6E6669670050726563616C656E7437
:1025B000617220504C41436F6E6669670050494418
:1025C0002D44005049442D44005049442D490050A9
:1025D00049442D49005049442D50005049442D5044
:1025E000002008204661637400200820466163745F
:1025F000002008204D6178002008204D61780020DF
:1026000008204D6178002008204D696E00200820C8
:102610004D696E002008204D696E00417061676150
:102620007200456E63656E6465720054656D706519
:10263000726174757261204175746F2E00436F6F03
:102640006C2046616E20537065656400436F6F6C4B
:102650002046616E2053706565640056656E74692E
:102660006C61646F720056656E74696C61646F7240
:102670000056656E74696C61646F7200506C6174B1
:1026800061666F726D6100506C617461666F726D2E
:102690006100506C617461666F726D6100426F71B0
:1026A00075696C6C6100426F7175696C6C61004298
:1026B0006F7175696C6C6100436F6E74726F6C0042
:1026C00047756172646172206D656D6F726961003A
:1026D000506C617461666F726D6100506C61746101
:1026E000666F726D6100506C617461666F726D61CE
:1026F00000426F7175696C6C6100426F7175696C35
:102700006C6100426F7175696C6C610056656E7426
:10271000696C61646F720056656E74696C61646F98
:10272000720056656E74696C61646F720054656DF9
:1027300070657261747572610020746F6F206C6FC8
:102740006E6720657874727573696F6E207072653C
:1027500076656E7465640A0020636F6C642065782A
:1027600074727573696F6E2070726576656E7465CC
:10277000640A001000AA038000400100012C01B08F
:1027800001220140021001F00202018003F8004022
:1027900004F500E004ED009005E4003006DD00E003
:1027A00006D7008007D1003008CC00D008C70070E1
:1027B00009C300100ABE00B00ABB00500BB700905E
:1027C0000CB300D00DAA00B00FA500F010A000308F
:1027D000129600D0129000F0158B00D0178500B033
:1027E000198000F01A7B00701D7500F01F6F0070DB
:1027F0002269004025640020275F00A0295A00902C
:102800002B5500102D4F00502E4800E03145003070
:10281000334100D03539006036370010373300F0CF
:10282000382D00A0392700803C1C00403D1700F0E7
:102830003D1100803E0900D03FE5FF4572726F7286
:102840003A2054656D70204D696E20506C617400A3
:102850004572726F723A2054656D70204D696E69D1
:102860006D61004D494E54454D5020747269676743
:1028700065726564004572726F723A2054656D70BE
:10288000204D617820506C6174004572726F723A0D
:102890002054656D70204D6178696D61004D41581F
:1028A00054454D50207472696767657265640020F5
:1028B0002F002042403A0020403A00205A3A00209F
:1028C000593A0020436F756E7420583A0020453AFB
:1028D00000205A3A0020593A00583A003A00436121
:1028E000703A0023646566696E6520204445464160
:1028F000554C545F4B64200023646566696E652007
:102900002044454641554C545F4B69200023646583
:1029100066696E65202044454641554C545F4B70B6
:102920002000504944204175746F74756E652066AF
:10293000696E6973686564212050757420746865D8
:10294000206C617374204B702C204B6920616E6485
:10295000204B6420636F6E7374616E7473206672B3
:102960006F6D2062656C6F7720696E746F20436FA6
:102970006E66696775726174696F6E2E680A0050C1
:102980004944204175746F74756E65206661696C89
:102990006564212074696D656F75740A00457272F3
:1029A0006F723A2074656D70657261747572610042
:1029B000546865726D616C2052756E617761790043
:1029C0004572726F723A20616C2063616C656E743F
:1029D00061720048656174696E67206661696C6543
:1029E0006400504944204175746F74756E652066AB
:1029F00061696C6564212054656D706572617475E0
:102A0000726520746F6F20686967680A00204B64E4
:102A10003A2000204B693A2000204B703A20000AEF
:102A200020436C617373696320504944200A00207D
:102A300054753A2000204B753A2000206D61783A99
:102A40002000206D696E3A200020643A2000206248
:102A50006961733A200050726563616C656E7461E0
:102A60007220414253506C617461666F726D6100F7
:102A700050726563616C656E7461722041425320CF
:102A8000456E640050726563616C656E746172209E
:102A900041425300507265706172617200417472FC
:102AA0006173004E65787420636F726E65720047C3
:102AB00032380A4732390050726563616C656E7452
:102AC0006172204142530050726563616C656E749F
:102AD000617220504C4100456E667269617200431C
:102AE000616D626961722066696C616D656E746F9B
:102AF000004E6976656C617220706C617461666FFE
:102B0000726D6100417061676172206D6F746F72E8
:102B10006573004D383400536574204D6978205238
:102B20006174696F004C6576656C20636F726E65C9
:102B30007273004F726967656E205A004732382001
:102B40005A004F726967656E205900473238205924
:102B5000004F726967656E20580047323820580070
:102B60004C6C6576617220616C206F726967656E6E
:102B700000473238004D6F76657220656A657300D4
:102B80004D656E75207072696E636970616C004D81
:102B90006F7665722058004D6F7665722059004D32
:102BA0006F766572205A004578747275736F720083
:102BB0004D6F76657220302E316D6D004D6F7665EC
:102BC0007220316D6D004D6F7665722031306D6D04
:102BD000004D6F76657220656A6573004578747282
:102BE00075736F72004D6F766572205A004D6F7667
:102BF00065722059004D6F766572205800290A00D1
:102C00002062797465733B2063726320005365749E
:102C100074696E67732053746F7265642028002096
:102C20002863616C63756C6174656429210A0020F6
:102C3000213D2000454550524F4D20435243206DC9
:102C400069736D61746368202D202873746F7265D9
:102C500064292000290A002062797465733B20638F
:102C6000726320002073746F7265642073657474DE
:102C7000696E677320726574726965766564202871
:102C800000204D61726C696E3D563530290A00286E
:102C9000454550524F4D3D00454550524F4D2076D1
:102CA000657273696F6E206D69736D6174636820FE
:102CB000004D6963726F7061736F205A004E6F72BE
:102CC0006D616C697A6520616E64204170706C7909
:102CD0003E3E0045332050726563656E7400453397
:102CE0002050726563656E740045322050726563D2
:102CF000656E740045322050726563656E740045E0
:102D0000312050726563656E7400453120507265E4
:102D100063656E7400416A75737461720045322098
:102D200050726563656E742073746F700045322055
:102D300050726563656E742073746F700045322045
:102D400050726563656E74207374617274004532ED
:102D50002050726563656E742073746172740041F3
:102D600075746F204D6978204D6F646500417574EE
:102D70006F204D6978204D6F646500416A757374EA
:102D80006172004D363030204230004175746F2042
:102D90004D6978204D6F64650043616D62696172B1
:102DA0002066696C616D656E746F004D6963726F4A
:102DB0007061736F205A00466C756A6F00466C75BF
:102DC0006A6F00466C756A6F0056656E74696C6157
:102DD000646F720056656E74696C61646F72005640
:102DE000656E74696C61646F7200506C61746166C9
:102DF0006F726D6100506C617461666F726D61001D
:102E0000506C617461666F726D6100536574204D22
:102E1000697820526174696F00426F7175696C6CDA
:102E20006100426F7175696C6C6100426F71756908
:102E30006C6C610056656C6F636964616400566513
:102E40006C6F63696461640056656C6F636964618B
:102E500064004D656E75207072696E636970616C97
:102E60000050726563616C656E74617220504C41F4
:102E700020456E640050726563616C656E746172AA
:102E800020504C41506C617461666F726D610050EE
:102E9000726563616C656E74617220504C410050C4
:102EA00072657061726172005061736F732F6D6D26
:102EB000004A65726B004163656C65726163696F9E
:102EC0006E0056656C6F63697479005A20454E44F4
:102ED00053544F502041646A005A20454E44535485
:102EE0004F502041646A0044657366617365205ADF
:102EF0000044657366617365205A005A204D696EFF
:102F000020506F732E005A204D696E20506F732E23
:102F10000059204D696E20506F732E0059204D6965
:102F20006E20506F732E0058204D696E20506F73C5
:102F30002E0058204D696E20506F732E00436F6E27
:102F400074726F6C0043616E6E6F7420656E746591
:102F500072207375626469723A2000022E2E004D51
:102F6000656E75207072696E636970616C000054E3
:102F70006F74616C20646520457874727573696F35
:102F80006E3A2000256C642E25696D0000496D7035
:102F9000726573696F6E206D6173206C6172676119
:102FA0003A2000005469656D706F20746F74616C15
:102FB00020646520696D702E3A2000436F6D706C3F
:102FC0006574616461733A2000436F6E74656F20AD
:102FD000646520696D70726573696F6E3A20005484
:102FE000656D7065726174757261206D6178696D6F
:102FF000613A203133300054656D706572617475CB
:103000007261206D696E696D613A203500544265C8
:10301000643A3130304B20312520626574612033B1
:103020003935300054656D70657261747572612058
:103030006D6178696D613A203237350054656D7085
:1030400065726174757261206D696E696D613A2097
:10305000350054303A203130304B20312520626524
:1030600074612033393530004675656E74652064AF
:103070006520706F6465723A2047656E657269639A
:103080000050726F746F636F6C6F3A20312E300096
:1030900042617564696F733A2031313532303000E6
:1030A0005A4F4E4553544152204C434431323836E6
:1030B00034005A4F4E4553544152205A5249425FB0
:1030C00056360053442063617264206F6B0A006FB0
:1030D00070656E526F6F74206661696C65640A007A
:1030E000766F6C756D652E696E6974206661696CAA
:1030F00065640A004572726F723A00534420696E2B
:103100006974206661696C0A0043616E6E6F742099
:103110006F70656E207375626469722000617574EA
:103120006F25692E6700526573656E643A20006FE3
:103130006B0020746F6F206C6F6E672065787472FF
:103140007573696F6E2070726576656E7465640A5A
:103150000020636F6C6420657874727573696F6E9C
:103160002070726576656E7465640A004D36303085
:103170000043617463682066696C616D656E7420DC
:1031800072756E206F7574210A00506172616461FE
:1031900020646520656D657267656E636961004BCB
:1031A000494C4C20636175736564206279204B49FA
:1031B0004C4C20627574746F6E2F70696E0A0050EB
:1031C000617261646120646520656D657267656E1A
:1031D000636961004B494C4C2063617573656420E1
:1031E000627920746F6F206D75636820696E61630A
:1031F000746976652074696D65202D20637572721F
:10320000656E7420636F6D6D616E643A200046696F
:103210006C616D656E7420696E73657274210A004D
:1032200043617463682066696C616D656E742072B9
:10323000756E206F7574210A0056656C2E207669B4
:10324000616A65206D696E0056656C2E2076696135
:103250006A65206D696E0056656C2E207669616A1C
:1032600065206D696E00566D696E00566D696E0061
:10327000566D696E00566D61784500566D617845F2
:1032800000566D61784500566D61785A00566D6143
:10329000785A00566D61785A00566D61785900561B
:1032A0006D61785900566D61785900566D61785896
:1032B00000566D61785800566D617858004D6F76F4
:1032C000696D69656E746F004163656C2E206D6178
:1032D0007845004163656C2E206D6178450041633F
:1032E000656C2E206D61785A004163656C2E206DEF
:1032F00061785A004163656C2E206D6178590041F8
:1033000063656C2E206D617859004163656C2E20D9
:103310006D617858004163656C2E206D61785800AE
:103320004163656C2E205669616A65004163656C76
:103330002E205669616A65004163656C2E207265B6
:10334000747261632E004163656C2E207265747225
:1033500061632E004163656C65726163696F6E0025
:103360004163656C65726163696F6E004D6F76696C
:103370006D69656E746F0056652D6A65726B0056D7
:10338000652D6A65726B0056652D6A65726B005615
:103390007A2D6A65726B00567A2D6A65726B0056DB
:1033A000792D6A65726B0056792D6A65726B0056CD
:1033B000792D6A65726B0056782D6A65726B0056BE
:1033C000782D6A65726B0056782D6A65726B004DB8
:1033D0006F76696D69656E746F0045207061736FFB
:1033E000732F6D6D0045207061736F732F6D6D00CD
:1033F0005A207061736F732F6D6D005A2070617366
:103400006F732F6D6D0059207061736F732F6D6D29
:103410000059207061736F732F6D6D0058207061BB
:10342000736F732F6D6D0058207061736F732F6D04
:103430006D004D6F76696D69656E746F007C3C3E02
:103440005E2B3D3F2F5B5D3B2C2A225C0048617266
:1034500064636F6465642044656661756C742053B1
:10346000657474696E6773204C6F616465640A00EB
:10347000D0070000900100006400000088130000E5
:10348000000016430000C84200000041000048420E
:103490000000A0420000A0420000C8430000A0427B
:1034A00020204D383531205A005A2D50726F6265F8
:1034B000204F666673657420286D6D293A0A0020D6
:1034C000440020490020204D333031205000504925
:1034D000442073657474696E67733A0A002046006D
:1034E00020420020480020204D3134352053004D2B
:1034F0006174657269616C206865617475702070B3
:103500006172616D65746572733A0A00205A002019
:10351000204D36363600456E6473746F70206164DA
:103520006A7573746D656E743A0A0020204D3432EA
:10353000302053004175746F20426564204C6576DD
:10354000656C696E673A0A00204500205A002059D0
:103550000020580020420020540020204D323035F9
:10356000205300416476616E6365643A20533C6D7C
:10357000696E5F66656564726174653E20543C6D7A
:10358000696E5F74726176656C5F666565647261B1
:1035900074653E20423C6D696E5F7365676D656E54
:1035A000745F74696D655F75733E20583C6D61781A
:1035B0005F78795F6A65726B3E205A3C6D61785F17
:1035C0007A5F6A65726B3E20453C6D61785F655F2E
:1035D0006A65726B3E0A0020540020520020204D84
:1035E000323034205000416363656C6572617469E8
:1035F0006F6E2028756E6974732F7332293A2050CC
:103600003C7072696E745F616363656C3E20523C0E
:10361000726574726163745F616363656C3E2054AC
:103620003C74726176656C5F616363656C3E0A0031
:10363000204500205A0020590020204D32303120F2
:1036400058004D6178696D756D20416363656C65E7
:10365000726174696F6E2028756E6974732F73328E
:10366000293A0A00204500205A0020590020204D08
:103670003230332058004D6178696D756D20666574
:10368000656472617465732028756E6974732F7335
:10369000293A0A00204500205A0020590020204DD8
:1036A000393220580053746570732070657220752C
:1036B0006E69743A0A0020204D3230302044300ABE
:1036C0000020204D32303020440020446973616274
:1036D0006C65640A0046696C616D656E7420736583
:1036E0007474696E67733A0020204D313439204379
:1036F000203B20556E69747320696E2043656C739E
:103700006975730A002020473231202020203B2099
:10371000556E69747320696E206D6D0A000006098C
:1037200000FE000000000001090008FE000005087E
:103730000806000040F0C888889878100508080638
:103740000000C0F88888888888F80505050600010B
:103750002030F830200508080600002070F82020EE
:103760002020E00509090600FF2070A8A8B8888875
:1037700070200509090600FFE080C0B0A8283028A5
:10378000280509090600FFF8A88888888888A8F80D
:10379000050A0A0600FE205050505088A8A88870DC
:1037A00003030306000340A04046696C652064657E
:1037B0006C657465643A0044656C6574696F6E206D
:1037C0006661696C65642C2046696C653A20006FFF
:1037D00070656E206661696C65642C2046696C6555
:1037E0003A20006D0046696C616D656E74207573DA
:1037F00065643A200053746174733A20002C204CA5
:103800006F6E67657374206A6F623A2000546F743C
:10381000616C2074696D653A200053746174733A69
:1038200020002C204661696C65643A20002C2046FB
:10383000696E69736865643A20005072696E7473CA
:103840003A200053746174733A200043616C656ED2
:1038500074616D69656E746F206C6973746F00209C
:10386000573A004525692025730066696C616D65CE
:103870006E743A20007A5F70726F62653A20007A47
:10388000325F6D696E3A20007A5F6D696E3A200092
:10389000795F6D696E3A2000785F6D696E3A20003D
:1038A0005265706F7274696E6720656E6473746FB1
:1038B00070207374617475730A004572726F7220A0
:1038C00077726974696E6720746F20454550524F56
:1038D0004D210A006563686F3A004D3234004D3265
:1038E000332025730006060606060000000000626D
:1038F00065640A002C2073797374656D2073746F8E
:103900007070656421204865617465725F49443A4E
:1039100020004572726F723A2074656D7065726135
:103920007475726100546865726D616C2052756EB9
:1039300061776179004572726F723A20616C206321
:10394000616C656E7461720048656174696E6720B0
:103950006661696C6564001000AA03800040010084
:10396000012C01B001220140021001F0020201808D
:1039700003F8004004F500E004ED009005E4003099
:1039800006DD00E006D7008007D1003008CC00D06B
:1039900008C7007009C300100ABE00B00ABB00507F
:1039A0000BB700900CB300D00DAA00B00FA50050CB
:1039B00010A000101496009016900010198C005062
:1039C0001A8500301C820070227800B023750040F8
:1039D000256E0020276900A0296400502A5F00900E
:1039E0002B5A00D02C5500702D4F00E02E4800506F
:1039F00031450030334100D0353900603637001092
:103A0000373300F0382D00A0392700803C1C0040DF
:103A10003D1700F03D1100803E0900D03FE5FF500A
:103A200072696E7420706175736564004D31323552
:103A300000004D323400496D70726573696F6E20FD
:103A400063616E63656C616461004E6F20686179CB
:103A5000207461726A657461205344004D656E750F
:103A600020646520534400446574656E6572206966
:103A70006D70726573696F6E005265616E75646119
:103A80007220696D70726573696F6E00496E662E83
:103A900020496D707265736F72610050617573615A
:103AA0007220696D70726573696F6E00436F6E741A
:103AB000726F6C00507265706172617200416A755C
:103AC0007374617200496E666F726D6163696F6EC7
:103AD0000000F400F60011241FBECFEFD1E2DEBFDC
:103AE000CDBF00E00CBF13E0A0E0B2E0E2E6F4E5F9
:103AF00002E00BBF02C007900D92AA3BB107D9F7B5
:103B000025E1AAEBB3E001C01D92A63BB207E1F7A5
:103B10001DE1CAE6DDE100E006C021970109802F22
:103B2000FE010F948E29C936D10780E00807A9F756
:103B30000F94A7100D94202A0C9400002F923F920E
:103B40004F925F926F927F928F929F92AF92BF92AD
:103B5000CF92DF92EF92FF920F931F93CF93DF9359
:103B6000CDB7DEB7C356D1090FB6F894DEBF0FBE8E
:103B7000CDBF8091B10F8D3409F4C0C6843511F4E6
:103B80000C944732873421F0E4EDF8E30C9487324B
:103B90002090AF0F3090B00F2BE12216310409F4C2
:103BA000B3C59CF444E02416310444F452E02516D5
:103BB0003104DCF537FE32C00C949F3284E02816C5
:103BC000310409F472C50C949F329EE12916310428
:103BD00009F4CFC57CF4BCE12B16310409F4C4C54B
:103BE000EDE12E16310411F00C949F320E94DF3764
:103BF0000C949F32FBE52F16310409F429C62CE5FD
:103C00002216310409F429C63AE52316310411F0CD
:103C10000C949F321092BE030C949F3280918502C7
:103C200081110C94A2320C949F32809185028823DA
:103C300011F40C949F320E946C3582E50E94564D1F
:103C4000882309F43EC10E94F44C4B015C0120E042
:103C500030E0A9010F941622882309F462C18091F3
:103C6000C70C9091C80CA091C90CB091CA0C88AB3C
:103C700099ABAAABBBAB2091CB0C3091CC0C409153
:103C8000CD0C5091CE0C2CAB3DAB4EAB5FAB8091CD
:103C9000550490915604A0915704B091580424966D
:103CA0008CAF9DAFAEAFBFAF249720915904309138
:103CB0005A0440915B0450915C0428AF39AF4AAF7D
:103CC0005BAF9C01AD0168A979A98AA99BA90F9452
:103CD000162281110DC028AD39AD4AAD5BAD6CA97E
:103CE0007DA98EA99FA90F941622882309F419C1D2
:103CF00011E032E02316310409F010E020E030E05A
:103D0000A901C501B4010F941622881F8827881FB6
:103D1000181759F080E090E0A0E8BFEB2C968CAF2C
:103D20009DAFAEAFBFAF2C970AC020E030E040E8B7
:103D30005FE32C962CAF3DAF4EAF5FAF2C9728A919
:103D400039A94AA95BA924966CAD7DAD8EAD9FAD16
:103D500024970F9492266CAF7DAF8EAF9FAF2CA9A6
:103D60003DA94EA95FA968AD79AD8AAD9BAD0F9411
:103D700092266B017C012CAD3DAD4EAD5FADCA010D
:103D8000B9010F947B222B013C01A7019601C701C9
:103D9000B6010F947B229B01AC01C301B2010F94C9
:103DA00093260F94FE2828966CAF7DAF8EAF9FAF01
:103DB000289720E030E040E05FE30F947B222B0166
:103DC0003C01A5019401C501B4010F947B224B0174
:103DD0005C01A3019201C301B2010F947B229B01FC
:103DE000AC01C501B4010F9492260F94FE282C96C5
:103DF0002CAD3DAD4EAD5FAD2C970F947B224B01AA
:103E00005C01C701B601905828962CAD3DAD4EAD72
:103E10005FAD28970F946F27A50194010F947B2223
:103E20006B017C0124962CAD3DAD4EAD5FAD24976A
:103E300068A979A98AA99BA90F94932620E030E06C
:103E400040E05FE30F947B229B01AC01C701B60108
:103E50000F94932628A939A94AA95BA90F94922601
:103E60006B017C0128AD39AD4AAD5BAD6CA97DA974
:103E70008EA99FA90F94932620E030E040E05FE3F5
:103E80000F947B222B013C0128962CAD3DAD4EAD0D
:103E90005FAD28976CAD7DAD8EAD9FAD0F946F2754
:103EA000A50194010F947B229B01AC01C301B201D7
:103EB0000F9493262CA93DA94EA95FA90F94922691
:103EC00014C089E40E94564D882329F00E94F44CC6
:103ED0006B017C0103C0C12CD12C76018AE40E94C5
:103EE000564D882309F10E94F44C24966CAF7DAFA7
:103EF0008EAF9FAF249720E030E0A901C701B60143
:103F00000F94162281111FC020E030E0A9012496F1
:103F10006CAD7DAD8EAD9FAD24970F9416228111AF
:103F200012C0E4EFF0E3ADC320E030E0A901C70127
:103F3000B6010F9416228823A1F324961CAE1DAE61
:103F40001EAE1FAE2497D701C601B05888AB99ABFF
:103F5000AAABBBAB24962CAD3DAD4EAD5FAD249767
:103F600050582CAB3DAB4EAB5FAB9C01AD01BC01DF
:103F7000CD010F947B224B015C012CA93DA94EA9D8
:103F80005FA9CA01B9010F947B229B01AC01C50155
:103F9000B4010F9493260F94FE286C966CAF7DAFFE
:103FA0008EAF9FAF6C978091C70C9091C80CA09179
:103FB000C90CB091CA0C88AF99AFAAAFBBAFA7012B
:103FC0009601BC01CD010F9493262C966CAF7DAF6A
:103FD0008EAF9FAF2C972091CB0C3091CC0C4091A1
:103FE000CD0C5091CE0C28962CAF3DAF4EAF5FAFAD
:103FF000289724962CAD3DAD4EAD5FAD2497289605
:104000006CAD7DAD8EAD9FAD28970F9493266096D5
:104010006CAF7DAF8EAF9FAF60978091550490914C
:104020005604A0915704B091580464968CAF9DAF8C
:10403000AEAFBFAF64972C962CAD3DAD4EAD5FAD2E
:104040002C97BC01CD010F9492266B017C0120912D
:10405000590430915A0440915B0450915C04689675
:104060002CAF3DAF4EAF5FAF689760962CAD3DADC6
:104070004EAD5FAD609768966CAD7DAD8EAD9FAD7A
:1040800068970F9492264B015C018091CF0C909120
:10409000D00CA091D10CB091D20CA0968CAF9DAF5A
:1040A000AEAFBFAFA0979C01AD0160915D04709170
:1040B0005E0480915F04909160040F9492266CAF2F
:1040C0007DAF8EAF9FAFA701960168A979A98AA994
:1040D0009BA90F947B222B013C01A50194016CA9A3
:1040E0007DA98EA99FA90F947B229B01AC01C301DE
:1040F000B2010F9493262B013C01A501940168A9FC
:1041000079A98AA99BA90F947B224B015C01A70185
:1041100096016CA97DA98EA99FA90F947B229B0172
:10412000AC01C501B4010F949226A30192010F9432
:1041300006276B017C0120E030E0A9010F941622D4
:1041400087FF0AC02BED3FE049EC50E4C701B60100
:104150000F9493266B017C0192E02916310451F4EF
:104160002BED3FE049EC50E4C701B6010F949226D5
:104170006B017C0120E030E0A901C701B6010F947A
:104180001622811126C064962CAD3DAD4EAD5FADBB
:10419000649768AD79AD8AAD9BAD0F9416228111FD
:1041A00018C068962CAD3DAD4EAD5FAD68972896B2
:1041B0006CAD7DAD8EAD9FAD28970F941622811109
:1041C00008C07BEDC72E7FE0D72E79ECE72E70E498
:1041D000F72EA70196016C966CAD7DAD8EAD9FADAF
:1041E0006C970F947B229B01AC010F947B224B01B7
:1041F0005C012CAD3DAD4EAD5FADCA01B9010F9470
:104200007B229B01AC01C501B4010F9493260F944E
:10421000FE284B015C012FE632E143E85AE30F949C
:10422000162287FD27C2C501B4010F9408280F94F8
:10423000DC2726967FAF6EAF2697DB01AB2B31F4E0
:10424000E1E0F0E02696FFAFEEAF26974090D30C6A
:104250005090D40C6090D50C7090D60C26962EAD54
:104260003FAD2697B90180E090E00F941A224B01F0
:104270005C019B01AC01C701B6010F946F2768AFC9
:1042800079AF8AAF9BAFA50194016CAD7DAD8EADCA
:104290009FAD0F946F276C966CAF7DAF8EAF9FAFC5
:1042A0006C97A30192016091610470916204809106
:1042B0006304909164040F949226A50194010F94D5
:1042C0006F27A4966CAF7DAF8EAF9FAFA49728AD3C
:1042D00039AD4AAD5BADCA01B9010F947B2220E034
:1042E00030E040E05FE30F947B229B01AC0160E093
:1042F00070E080E89FE30F94922664966CAF7DAFE8
:104300008EAF9FAF6497A0968CAD9DADAEADBFADA7
:10431000A09789879A87AB87BC874D865E866F8614
:10432000788A6091320270913302072E000C880B5C
:10433000990B0F941C22209112023091130240918C
:104340001402509115020F947B222AE037ED43E2CC
:104350005CE30F947B226CA77DA78EA79FA70E948A
:10436000856B9B01AC0128533F4F4F4F5F4F6896C1
:104370002CAF3DAF4EAF5FAF689748A859A86AA869
:104380007BA822242394312C39E13CAF26964EADF4
:104390005FAD26974215530509F432C10F94960874
:1043A0000E94856BDC01CB0168962CAD3DAD4EAD16
:1043B0005FAD6897821B930BA40BB50BB7FD11C0C3
:1043C0000E94856B9B01AC0128533F4F4F4F5F4FBD
:1043D00068962CAF3DAF4EAF5FAF689780E00E940C
:1043E0009BD53CAD31503CAF332309F441C02CA9DF
:1043F0003DA94EA95FA964966CAD7DAD8EAD9FAD14
:1044000064970F947B226B017C019201A30168AD3C
:1044100079AD8AAD9BAD0F947B22A70196010F94D5
:1044200093266B017C019201A30164966CAD7DAD76
:104430008EAD9FAD64970F947B224B015C012CA93C
:104440003DA94EA95FA968AD79AD8AAD9BAD0F942A
:104450007B229B01AC01C501B4010F9492262B0174
:104460003C01C601D7018CAB9DABAEABBFAB51C01D
:10447000B10180E090E00F941A2228AD39AD4AAD29
:104480005BAD0F947B224B015C010F946C276B0199
:104490007C01C501B4010F94F4284B015C01A70114
:1044A000960168A979A98AA99BA90F947B222B015F
:1044B0003C0124962CAD3DAD4EAD5FAD2497C501BA
:1044C000B4010F947B22A30192010F9493262B0138
:1044D0003C01A501940168A979A98AA99BA90F9417
:1044E0007B224B015C0124962CAD3DAD4EAD5FAD02
:1044F0002497C701B6010F947B229B01AC01C50133
:10450000B4010F9492266CAB7DAB8EAB9FAB49E1AF
:104510004CAF9201A3012C966CAD7DAD8EAD9FADDD
:104520002C970F94932669837A838B839C832CA981
:104530003DA94EA95FA960966CAD7DAD8EAD9FADD6
:1045400060970F9493266D837E838F8398876C96F4
:104550002CAD3DAD4EAD5FAD6C9769857A858B8591
:104560009C850F94932669877A878B879C87A4966E
:104570002CAD3DAD4EAD5FADA4976D857E858F852D
:1045800098890F9493266D877E878F87988B80916B
:104590002B02882321F0CE0101960E948654898146
:1045A0009A81AB81BC8188A399A3AAA3BBA38D8167
:1045B0009E81AF81B8858CA39DA3AEA3BFA389853F
:1045C0009A85AB85BC8588A799A7AAA7BBA7CE016A
:1045D00080960E944D4EE12C8E01045D1F4F9E017E
:1045E000235F3F4FAE01485D5F4FBE016C5D7F4F63
:1045F000CE0180960E948EA05FEF251A350AC6CEA6
:104600008091550490915604A0915704B09158049C
:1046100088A399A3AAA3BBA38091590490915A049B
:10462000A0915B04B0915C048CA39DA3AEA3BFA337
:1046300080915D0490915E04A0915F04B09160044C
:1046400088A799A7AAA7BBA7CE0180960E944D4E26
:10465000E12C8E01045D1F4F21E634E0AE01485D80
:104660005F4FBE016C5D7F4FCE0180960E948EA091
:104670000E945F4E0E94694E0C949F320E94934E9E
:10468000F80184918F010F5F1F4F8111F7CFE1E592
:10469000F2E084918F010F5F1F4F882311F40C9477
:1046A0009F320E94934EF801F4CF80E50E94564D50
:1046B000882329F00E94B44C6B017C0103C0C12CFB
:1046C000D12C760183E50E94564D882361F00E942B
:1046D000F44C20E030E04AE754E40F947B220F943E
:1046E000DC276B017C010F941F0C80914202811129
:1046F00005C060E087E692E00E94B871C701B6018C
:104700000E9445350C949F320E94F78381110C94CE
:104710009F3280E090E0A0EFB1EC89839A83AB8375
:10472000BC8380E090E0A0E2B1E48D839E83AF8300
:10473000B88780E090E0A0EAB1E489879A87AB87E8
:10474000BC8780E50E94564D882319F00E94C44C16
:1047500001C060E068A3BE016F5F7F4FCE0180960D
:104760000E9452FC0C949F3280E00E94EE450C9413
:104770009F32C090C70CD090C80CE090C90CF0904C
:10478000CA0C88E50E94564D811109C020E030E036
:1047900040EF51E4C701B6010F94932602C00E9476
:1047A000F44C68A379A38AA39BA3C090CB0CD090B0
:1047B000CC0CE090CD0CF090CE0C89E50E94564DCB
:1047C000811108C020E030E0A901C701B6010F94B3
:1047D000932602C00E94F44C6B017C0169837A83AA
:1047E0008B839C8388A099A0AAA0BBA02FE632E16E
:1047F00043E85AEBC501B4010F94B92887FF02C002
:104800000C949F3221E230E04BE953E4C501B4013E
:104810000F941622181614F40C949F322FE632E1EE
:1048200043E85AEBC701B6010F94B92887FF02C0CD
:104830000C949F3221E230E04BE953E4C701B6010A
:104840000F941622181614F40C949F320C94A6326E
:1048500081E08093BE030C949F320F941F0C4BE9B0
:10486000242E42E0342E57ECE52E5CE0F52E00E0DD
:10487000D12C10E0D1018D911D010E94564D88234D
:1048800059F10E94F44C2B013C01F7012081318148
:10489000428153810F9492264B015C012DEB37E34B
:1048A00046E855EB0F94B92887FD0AC02DEB37E396
:1048B00046E855E3C501B4010F941622181664F4B6
:1048C000133011F401E002C0DD24D394D7014D92DE
:1048D0005D926D927C9213971F5FB4E0EB0EF11C1A
:1048E000143041F6DD2019F00E946D4C03C0011117
:1048F0000E94B9830E9411AE0C949F328091AF0F39
:104900009091B00F8537910509F4B4C70CF0FDC044
:104910008B34910509F461C40CF075C086319105A2
:1049200009F40CC30CF041C08530910509F49EC216
:104930005CF48330910509F491C20CF093C20297A4
:1049400008F408C20C949F328231910509F466C6BE
:1049500004F5419711F00C949F3260E085EB92E0F2
:104960000E94B8715F988A989FB7F8948091080167
:104970008E7F809308019FBF1298479810989FB729
:10498000F89480910B018F7780930B019FBF0C945B
:104990009F328431910509F4DAC1459711F00C94E6
:1049A0009F320E94F5D40C949F328B31910509F40B
:1049B00017C37CF48831910509F4DCC20CF4C4C23D
:1049C0008931910509F4F0C24A9709F4FBC20C94AD
:1049D0009F328F31910509F494C364F48C319105B1
:1049E00009F43BC34E9711F00C949F320E9452F78A
:1049F0000C949F328032910509F439C38A9709F4E7
:104A0000ACC30C949F328936910509F4E0C40CF0D4
:104A100048C08235910509F4FAC554F58D349105E5
:104A200009F4E3C30CF4DDC38E34910509F4E1C34A
:104A30008135910511F00C949F320E9492A70F943A
:104A40001F0C0E947ED91092A3141092A21468EE3B
:104A500073E080E090E00E94A8700F941F0C0E9409
:104A6000EF4B60E087E893E00E94B8710C949F32AE
:104A70008535910509F407C654F48335910509F489
:104A8000C9C58435910509F4C9C50C949F328C358C
:104A9000910509F411C68836910509F4AEC30C944A
:104AA0009F328E36910509F4E8C39CF48B3691054C
:104AB00009F40AC50CF4E3C48C36910509F463C407
:104AC0008D36910511F00C949F320E946AF30C947C
:104AD0009F328237910509F477C66CF48F369105C1
:104AE00009F4DEC38037910511F00C949F3284E401
:104AF00093E00E9447568337910509F425C1843716
:104B0000910509F4F3C40C949F328232E1E09E07D0
:104B100011F40C9406300CF07FC0893A910509F429
:104B2000B7C79CF58D37910509F4F8C4ACF4873705
:104B3000910509F4E6C60CF4A5C68837910509F479
:104B4000E3C68937910511F00C949F3210925C11E5
:104B500010925B110C949F328B39910509F44CC46F
:104B600054F48C38910509F416C48139910509F47F
:104B7000D1C60C949F32833A910509F443C7843A15
:104B8000910509F462C70C949F328C3C910511F495
:104B90000C94112E0CF5883C910509F4C2C734F42D
:104BA0008E3B910509F44FC40C949F32893C9105CA
:104BB00011F40C94DD2D8B3C910511F00C949F3277
:104BC0006BE9E62E62E0F62E00E810E170E9C72EF0
:104BD00070E1D72E0C94022E8C3D910511F40C94AB
:104BE0008C2F74F48D3C910511F40C947B2E833D35
:104BF000910511F00C949F32E4EDF8E30C940F2F23
:104C00008D3D910511F40C94992F823E910511F47C
:104C10000C94DC2F0C949F32833C21E0920709F422
:104C200030C10CF046C0833641E0940709F488C0D7
:104C3000ECF48D32A1E09A0711F40C943A303CF474
:104C40008C32914011F40C9411300C949F328E32BE
:104C5000F1E09F0711F40C94D8308F32914011F09D
:104C60000C949F320E946DA90C949F32823931E0DE
:104C7000930711F40C942F3184F4803951E0950797
:104C800011F40C942C318139914011F00C949F3225
:104C900081E00E9437370C949F328A39B1E09B073C
:104CA00009F475C3843A914011F40C9432310C9498
:104CB0009F32873FF1E09F0711F40C94B831E4F480
:104CC000843F31E0930711F40C94B23134F4843C06
:104CD000914009F4DCC00C949F32853FA1E09A0713
:104CE00011F40C94B531863F914011F00C949F3231
:104CF0000E94AFEA0C949F328335E3E09E07E1F017
:104D00007CF4883522E0920711F40C9419328A3928
:104D1000924011F00C949F32ECEBF5E00C94E62EEF
:104D2000803A43E0940709F4DFC1873E934011F4D1
:104D30000C9432320C949F32E4EDF8E30C94C731BA
:104D4000E4EFF0E30C941F32EDE4F4E042C5E3ED50
:104D5000F2E0B4C0A090AD0FB090AE0F80E50E941D
:104D6000564D882359F00E94B44C6B017C0111E030
:104D7000672B682B692B31F410E004C010E0C12CC4
:104D8000D12C760183E50E94564D8823F1F00E94D4
:104D9000F44C20E030E04AE754E40F947B220F9477
:104DA000DC276B017C01111112C0672B682B692B6A
:104DB00071F4A114B10459F0D5018C91882339F014
:104DC00061E0C5010E94897F07C0112391F360E073
:104DD00083EA92E00E94B87181E080939D0C0F9469
:104DE0001F0C0E94694EC114D104E104F104E1F0EA
:104DF00080913B1090913C10A0913D10B0913E10DD
:104E0000C80ED91EEA1EFB1E0E94856BDC01CB0179
:104E10008C199D09AE09BF09B7FF1CC080919D0C7C
:104E200081110C94FB3216C080919D0C882321F0D7
:104E300080E00E949BD5F8CF80917B1190917C11EE
:104E400060E0029719F485E992E002C083E892E0FD
:104E50000E94B87110929D0C0C949F320E94615474
:104E60000C949F320E9461540C949F320F941F0C3B
:104E70002C9868EE73E080E090E00E9445350C9439
:104E80009F321092410D1092400D0C949F3283E599
:104E90000E94564D811103C010923C0207C00E942F
:104EA000D44C8823C9F381E080933C0281E090E0F8
:104EB0009093410D8093400D0C949F3284918F010B
:104EC0000F5F1F4F882321F00E94934EF801F6CF09
:104ED000109256141092551487ED91E10E948AE5C4
:104EE0008BE1E7EDF1E1DE01159601900D928A95D7
:104EF000E1F78091D5119091D6119C838B838DEE33
:104F000092E09A83898340E050E0BE016F5F7F4F5B
:104F100082E693E00E94D4D1CE0101960E943F56D2
:104F2000E4ECF2E084918F010F5F1F4F882311F4AE
:104F30000C949F320E94934EF801F4CF1092A61168
:104F40001092A7110C949F32E091AD0FF091AE0F2B
:104F50008081882329F0803209F410823196F8CFBD
:104F600040E061E08091AD0F9091AE0F0E9491877B
:104F70000C949F3219821A821B821C8218A219A2D9
:104F80001AA21BA280916504882341F040E0BE0173
:104F90006F5F7F4FCE0180960E9451530E94C2D115
:104FA0000E945D830C949F321092A6110E949584FA
:104FB00084EE92E09093CE108093CD100E940E4C20
:104FC0000C949F328091A711882311F40C949F3286
:104FD00083E50E94564D81110C9400330C949F324E
:104FE0008091A711811103C0EBEFF2E02AC0E9EE36
:104FF000F2E084918F010F5F1F4F882321F00E9400
:10500000934EF801F6CF60914C1470914D1480913D
:105010004E1490914F144AE00E943D518FE20E943D
:10502000934E609148147091491480914A14909164
:105030004B144AE00E943D518AE00E94934E0C942A
:105040009F3284918F010F5F1F4F882311F40C94BE
:105050009F320E94934EF801F4CF40E060E08091CF
:10506000AD0F9091AE0F0E9491870C949F3280916A
:10507000A61181110F941F0C8091A711882311F4A0
:105080000C949F3280E50E94564D882319F00E94AF
:10509000E54C03C080E50E94274D182F482F61E0A2
:1050A0008091AD0F9091AE0F0E94918783E50E9491
:1050B000564D882381F00E94C44CAB01BC01409343
:1050C0004C1450934D1460934E1470934F148BE90D
:1050D00093E10F94A7020E94C2D111110C949F3248
:1050E0000E945D830C949F328091AD0F9091AE0F22
:1050F00021E02093A51140E060E00E9491870C948C
:105100009F328BE791E10F94AA0B68A379A38AA33E
:105110009BA3BE016F5F7F4FCE0180960E94624DC0
:1051200060E0CE0101960E94897FE4EDF8E384916E
:105130008F010F5F1F4F882321F00E94934EF801CB
:10514000F6CFBE016F5F7F4F8CE093E00E94AA5FB5
:105150008AE00E94934E0C949F3283E50E94564D44
:10516000882311F40C949F320E94D44CE82E80E5E1
:105170000E94564D882341F00E94C44C8B0177FF5A
:1051800002C00C949F3202C00DE010E0802FEBE1D2
:10519000F6E09491891303C0E4EFF0E30AC031967E
:1051A000B6E0EC34FB07A9F70C9411330E94934E40
:1051B000F80184918F010F5F1F4F8111F7CFE9E153
:1051C000F3E084918F010F5F1F4F882311F40C943B
:1051D0009F320E94934EF801F4CF0E945D830C949D
:1051E0009F320E9495840C949F320F9405050C9475
:1051F0009F320E9427F50C949F321092450D8091AA
:10520000680D83FF02C00C949F3283E50E94564DC7
:10521000882379F10E94F44C0F94D7277093A1143E
:105220006093A01480E00E9446A70E94F44C209155
:105230004A0A30914B0A40914C0A50914D0A0F9402
:10524000B9281816B4F481E293E09F938F9380916C
:10525000450D90E001969F938F9388E293E09F9392
:105260008F931F920F94D7040FB6F894DEBF0FBE32
:10527000CDBF0E94D59E0C949F328EE40E94564D65
:10528000882311F40C949F320E94C44C6093E90C63
:105290007093EA0C8093EB0C9093EC0C0C949F327F
:1052A00083E50E94274D882359F083E50E94564DDF
:1052B000882319F00E94D44C01C080E08093680DCF
:1052C000E4EDF8E384918F010F5F1F4F811103C05C
:1052D000EDE3F3E004C00E94934EF801F3CF849114
:1052E0008F010F5F1F4F882321F00E94934EF8011A
:1052F000F6CF8091680D811103C0E9E3F3E034C07B
:105300003FE2C32E33E0D32EE12CF12C20E080913C
:10531000680D90E00E2C02C0959587950A94E2F7EF
:1053200080FF17C0BB24B394B20E222319F08CE285
:105330000E94934EF60185919491FC0184918F0116
:105340000F5F1F4F882321F00E94934EF801F6CF84
:105350002B2DFFEFEF1AFF0A32E0C30ED11C45E000
:10536000E416F104A1F60AC084918F010F5F1F4F6C
:10537000882321F00E94934EF801F6CF8AE00E9424
:10538000934E0C949F32109286020C949F320E948E
:1053900033A90C949F328091680D83FF02C00C9456
:1053A0009F3283E50E94564D882311F40C949F325E
:1053B0000E94F44C0F94D7276338710514F062E80B
:1053C00070E07093A5146093A4140C949F32109213
:1053D000450DE9E5F3E084918F010F5F1F4F8823AE
:1053E00021F00E94934EF801F6CF0E946EA48AE04D
:1053F0000E94934E0C94013583E50E94564D8823FC
:1054000011F40C949F320E94D44C182F8D3308F065
:105410001CE3109338100E94856B6B017C01212FD7
:1054200030E0A8EEB3E00F948326C60ED71EE81E28
:10543000F91EC0923410D0923510E0923610F092DE
:1054400037100C949F328091680D83FF02C00C943A
:105450009F3260E084E793E00E94B87183E50E9488
:10546000564D21968FAF219781110C94273382E5F9
:105470000E94564D81110C9427330C949F3280E585
:105480000E94564D811108C083E50E94564D81113E
:1054900009C03FEF20E00AC00E94D44C81110C9457
:1054A0009F32F2CF0E94C44C362F272F832F922F8A
:1054B0008F3F910519F010F08FEF90E09093A314B7
:1054C0008093A2140C949F3280E50E94564D811166
:1054D00006C01092A3141092A2140C949F320E9442
:1054E000C44C672B11F00C949F32F3CF83E50E94DC
:1054F000564D882329F00E94C44C362F272F02C016
:105500003FEF20E0832F922F8F3F910519F010F08D
:105510008FEF90E0809322020C949F328CE40E94E3
:10552000274D882319F00E94F44C04C060E070E01D
:1055300080E890EC6CA77DA78EA79FA780E090E005
:10554000A0EFB1EC89839A83AB83BC8380E090E0C9
:10555000A0E2B1E48D839E83AF83B88780E090E0C2
:10556000A0EAB1E489879A87AB87BC8788E50E9467
:10557000564D882379F088E50E94564D882319F00E
:105580000E94F44C03C060E070E0CB0169837A8331
:105590008B839C8389E50E94564D882379F089E5A9
:1055A0000E94564D882319F00E94F44C03C060E01D
:1055B00070E0CB016D837E838F8398878AE50E949C
:1055C000564D882379F08AE50E94564D882319F0BC
:1055D0000E94F44C03C060E070E0CB0169877A87D9
:1055E0008B879C8718A219A21AA21BA2809165041E
:1055F0008111A5C700E020E0AE01405E5F4FBE0113
:105600006F5F7F4FCE018C960E94635298C71092B5
:10561000BD0395C781E08093BD0391C783E50E94D8
:10562000564D882399F00E94F44C20E030E04AE780
:1056300054E40F947B220F94DC2760933D02709317
:105640003E0280933F029093400279C788E50E9412
:10565000274D81110C94713489E50E94274D8111E9
:105660000C9471348AE50E94274D81110C94713499
:1056700085E40E94274D81110C9471340F941F0C06
:105680000E947ED95CC783E50E94274D882309F4D8
:1056900056C70E94F44C20E030E04AE754E40F94EF
:1056A0007B220F94DC2760933F107093401080930F
:1056B00041109093421043C79BE9C92E92E0D92E26
:1056C00027EDE22E2CE0F22E10E0D6018D916D0137
:1056D0000E94274D882309F46DC0133009F063C080
:1056E0000E94F44C4B015C0120E030E040EA51E4C0
:1056F0000F94162287FF4EC0A50194016091E30C20
:105700007091E40C8091E50C9091E60C0F946F275A
:105710002B013C019B01AC016091B8107091B91054
:105720008091BA109091BB100F947B226093B810B7
:105730007093B9108093BA109093BB10A30192019B
:1057400060918C1070918D1080918E1090918F10BF
:105750000F947B2260938C1070938D1080938E1029
:1057600090938F106091230D7091240D8091250DE1
:105770009091260D0F941A22A30192010F947B227F
:105780000F94DC276093230D7093240D8093250DD7
:105790009093260D8092E30C9092E40CA092E50C7D
:1057A000B092E60C07C00E94F44CF701608371834D
:1057B000828393831F5FF4E0EF0EF11C143009F035
:1057C00084CF0E9423A0BBC60F941F0C0E9411AE71
:1057D000B6C684918F010F5F1F4F882321F00E946E
:1057E000934EF801F6CF60E08DE394E00E94DAADCD
:1057F00061E086E394E00E94DAAD61E08BE294E040
:105800000E94DAAD61E08BE194E00E94DAAD60E0E5
:1058100082E194E00E94DAAD61E088E094E00E94C9
:10582000DAAD61E08EEF93E00E94DAAD61E086EFE1
:1058300093E00E94DAAD61E088EE93E00E94DAAD79
:1058400060E08AED93E00E94DAAD60E08BEC93E0DB
:105850000E94DAAD60E08DEB93E00E94DAAD60E08B
:1058600087EA93E00E94DAAD60E086E993E00E9467
:10587000DAAD65C660E08091AD0F9091AE0F0E94E9
:10588000897F5DC685E40E94564D882319F00E94E9
:10589000E54C03C085E40E94274D882361F0E4EDC8
:1058A000F8E384918F010F5F1F4F882321F00E943E
:1058B000934EF801F6CF81E40E94564D882319F0EB
:1058C0000E94E54C03C081E40E94274D882361F0CB
:1058D000E1E1F5E084918F010F5F1F4F882321F0F4
:1058E0000E94934EF801F6CF0091AD0F1091AE0FCC
:1058F000D8018D918D01882309F440CD0E94934EEB
:10590000F7CF0E9415FE1BC681E080935C11809347
:105910005B1115C683E50E94564D882319F00E943D
:10592000C44C02C060E070E08B0111270230110509
:10593000D4F0E4EFF0E384918F010F5F1F4F8111EA
:1059400003C0E5E1F5E004C00E94934EF801F3CFF7
:1059500084918F010F5F1F4F882309F4F0C50E94C7
:10596000934EF801F5CF88E40E94564D8823A9F0A4
:105970000E94C44C663971053CF06530B1E07B078C
:105980002CF064E071E002C066E970E0F801EE0F0F
:10599000FF1FE250F34F7183608386E40E94564DEF
:1059A0008823A9F00E94C44CF801EE0FFF1FEE5FA0
:1059B000F24F718360836F3F710519F014F06FEF40
:1059C00070E077FF02C060E070E07183608382E482
:1059D0000E94564D882309F4B2C50E94C44C65301C
:1059E000710534F0643771052CF063E770E002C094
:1059F00065E070E0000F111FF801E650F34F71836E
:105A000060839DC583E50E94564D882341F00E9426
:105A1000C44C8B01633071050CF091C502C000E0ED
:105A200010E080E50E94564D882319F00E94C44C76
:105A300001C060E0F801E559F54F608302301105BF
:105A400009F07DC50E94B8A77AC583E50E94564D2E
:105A5000882341F00E94C44C8B01603171050CF029
:105A60006EC502C000E010E00E94B8A7B801660F42
:105A7000771F600F711FFB01E958F54F8091740A81
:105A800080838091750A81838091760A828357C5CD
:105A900083E50E94564D811103C0E12CF12C08C012
:105AA00083E50E94564D8823C1F30E94C44C7B01BC
:105AB0008DE60E94564D882349F08DE60E94564D92
:105AC000882339F00E94C44C8B0105C00AE010E025
:105AD00002C000E010E08DE40E94564D882341F0A2
