:100000000C944C120C9476120C9476120C9476127A
:100010000C9476120C9476120C9476120C94761240
:100020000C9476120C9476120C9476120C94761230
:100030000C9476120C94577F0C9476120C947612D2
:100040000C9476120C94909D0C9435660C94761258
:100050000C9411380C9476120C9476120C9476123F
:100060000C9476120C9476120C9476120C947612F0
:100070000C9476120C9476120C9476120C947612E0
:100080000C9476120C9476120C947612DC25E125F1
:10009000E625F0251E261E26FA2502260A26142607
:1000A00031553A5544554D55565571557E558755E0
:1000B0005F55685598659B658E659265B265B265BA
:1000C0009F65A365A965AD65159E199E289E2C9E0A
:1000D0003B9E469EFF9D4E414E494E495459494EC6
:1000E00046CDCCCC3D0AD7233C17B7D13877CC2BA3
:1000F000329595E6241FB14F0A000020410000C848
:100100004200401C4620BCBE4CCA1B0E5AAEC59DC8
:1001100074434F4D4D554E49434154494F4E004451
:10012000525952554E004552524F525300494E4675
:100130004F004543484F0020746F6F206C6F6E670F
:1001400020657874727573696F6E2070726576655C
:100150006E7465640A0020636F6C64206578747245
:100160007573696F6E2070726576656E7465640A6A
:1001700000536C6565702E2E2E00526573756D6987
:100180006E67207072696E74004133204D656C7A21
:10019000692072656164792E00436C69636B207419
:1001A0006F20726573756D652E2E2E004E6F206D5B
:1001B0006F76652E00456E642066696C65206C69FB
:1001C00073740A00426567696E2066696C65206C0D
:1001D0006973740A004D31323500534420707269DE
:1001E0006E74696E67206279746520004E6F7420AA
:1001F0005344207072696E74696E670A0046696CB8
:10020000652064656C657465643A0044656C65746A
:10021000696F6E206661696C65642C2046696C6547
:100220003A20006F70656E206661696C65642C20F1
:1002300046696C653A20002569730025696D2025A3
:100240006973002569682025696D2025697300257B
:100250006964202569682025696D2025697300255A
:10026000697920256964202569682025696D202524
:100270006973005072696E742074696D653A20006C
:1002800050726F7465637465642050696E0A00452E
:1002900025692025730032012D0126011F0111015E
:1002A0006F66660044454255473A004B494C4C4501
:1002B000442E20006F6B0048656174696E6720648E
:1002C0006F6E652E0020573A004525692025730082
:1002D00042656420646F6E652E0020573A004265C7
:1002E000642048656174696E672E004133204D6556
:1002F0006C7A69204F66662E00454D455247454E43
:1003000043595F50415253455200434153455F4C5E
:10031000494748545F4252494748544E4553530059
:10032000544F47474C455F4C494748545300534F3F
:100330004654574152455F504F5745520042554928
:100340004C445F50455243454E54004C4556454C35
:10035000494E475F44415441005A5F50524F424515
:10036000004155544F4C4556454C005052494E544F
:100370005F4A4F420050524F475245535300415538
:10038000544F5245504F52545F54454D5000564FB4
:100390004C554D455452494300454550524F4D0030
:1003A00053455249414C5F584F4E5F584F464600A7
:1003B0004649524D574152455F4E414D453A4D6178
:1003C000726C696E2042617365206F6E204D6172A0
:1003D0006C696E312E312E38202847697468756239
:1003E0002920534F555243455F434F44455F555273
:1003F0004C3A68747470733A2F2F67697468756229
:100400002E636F6D2F7A6F6E657374617233642023
:1004100050524F544F434F4C5F56455253494F4EE5
:100420003A312E30204D414348494E455F54595092
:10043000453A4133204D656C7A69204558545255F0
:100440004445525F434F554E543A31205555494427
:100450003A30303030303031302D303830382D3087
:100460003030332D303030302D3230313830313182
:10047000303030310A002F2F200066696C616D65C5
:100480006E743A20007A5F6D696E3A2000795F6D74
:10049000696E3A2000785F6D696E3A20005265708F
:1004A0006F7274696E6720656E6473746F70207309
:1004B00074617475730A004D31343520533C696E94
:1004C0006465783E206F7574206F662072616E6778
:1004D000652028302D31290A0053657474696E67D0
:1004E0002054726176656C20416363656C6572614E
:1004F00074696F6E3A200053657474696E67205298
:1005000065747261637420416363656C65726174C4
:10051000696F6E3A200053657474696E672050727B
:10052000696E7420416363656C65726174696F6E96
:100530003A200053657474696E67205072696E7456
:1005400020616E642054726176656C20416363653E
:100550006C65726174696F6E3A2000205A002059F0
:1005600000580020204D61783A2000205A00205980
:1005700000580020204D696E3A20004F6E20004F39
:10058000666600536F667420656E6473746F707373
:100590003A200000010F150E12FF16170E13FF036D
:1005A000021A14FFFFFF0C04FFFFFF01000EFFFF04
:1005B0000CFF0DFFFFFFFFFFFFFFFF20643A00204D
:1005C000693A0020703A0043290A0061626C656450
:1005D00020286D696E2074656D702000436F6C6417
:1005E0002065787472756465732061726520004FB0
:1005F000666673657473206170706C69656400452C
:1006000072723A20546F6F206661722100546F6FCE
:10061000206661722066726F6D2072656665726514
:100620006E636520706F696E740A004E6F2063619F
:100630007365206C696768740A0041637469766544
:100640002045787472756465723A2000556E6B6E41
:100650006F776E20636F6D6D616E643A2022004C7F
:10066000696E65204E756D626572206973206E6FCC
:1006700074204C617374204C696E65204E756D62F8
:1006800065722B312C204C617374204C696E653A75
:1006900020004B494C4C45442E200053544F5050A1
:1006A00045442E20005072696E7465722073746F19
:1006B000707065642064756520746F206572726F58
:1006C00072732E2046697820746865206572726F97
:1006D0007220616E6420757365204D39393920743C
:1006E0006F20726573746172742E202854656D706A
:1006F00065726174757265206973207265736574C3
:100700002E205365742069742061667465722072AE
:10071000657374617274696E67290A004E6F2043B5
:100720006865636B73756D2077697468206C696E9A
:1007300065206E756D6265722C204C617374204C5F
:10074000696E653A2000636865636B73756D206D33
:1007500069736D617463682C204C617374204C69FB
:100760006E653A20004D313130004D333100534435
:100770002072656164206572726F720A00446F6E48
:1007800065207072696E74696E672066696C650AAF
:100790000020496E76616C696420657874727564B6
:1007A00065722000000020C2000000000000000070
:1007B0000000664300005C4300006643205A3A0094
:1007C00020593A0020436F756E7420583A00204536
:1007D0003A00205A3A0020593A00583A003A004369
:1007E00061703A0023646566696E65202044454661
:1007F00041554C545F4B64200023646566696E6507
:10080000202044454641554C545F4B6920002364E9
:100810006566696E65202044454641554C545F4BE2
:10082000702000504944204175746F74756E6520C6
:1008300066696E69736865642120507574207468F8
:1008400065206C617374204B702C204B6920616EA5
:1008500064204B6420636F6E7374616E74732066E2
:10086000726F6D2062656C6F7720696E746F2043C4
:100870006F6E66696775726174696F6E2E680A00C3
:10088000504944204175746F74756E6520666169C6
:100890006C6564212074696D656F75740A00544835
:1008A00045524D414C2052554E41574159005468D4
:1008B00065726D616C2052756E6177617900486573
:1008C0006174696E67206661696C65640048656182
:1008D00074696E67206661696C65640050494420E4
:1008E0004175746F74756E65206661696C6564210D
:1008F0002054656D706572617475726520746F6FD8
:1009000020686967680A00204B643A2000204B6920
:100910003A2000204B703A20000A20436C61737328
:10092000696320504944200A002054753A20002071
:100930004B753A2000206D61783A2000206D696E79
:100940003A200020643A200020626961733A200056
:100950004572726F722077726974696E6720746F66
:1009600020454550524F4D210A00290A0020627946
:100970007465733B20637263200053657474696E01
:1009800067732053746F72656420280020286361A8
:100990006C63756C6174656429210A0020213D2017
:1009A00000454550524F4D20435243206D69736DB1
:1009B00061746368202D202873746F726564292028
:1009C00000290A002062797465733B2063726320FA
:1009D000002073746F7265642073657474696E6748
:1009E0007320726574726965766564202800204DF5
:1009F00061726C696E3D563437290A0028454550AE
:100A0000524F4D3D00454550524F4D207665727313
:100A1000696F6E206D69736D617463682000486151
:100A20007264636F6465642044656661756C7420EC
:100A300053657474696E6773204C6F616465640AF2
:100A400000D00700002003000064000000881300AD
:100A500000000016430000164300008040000048DC
:100A6000420000A0420000A0420000C8430000AACB
:100A700042486F6D65202573257325732066697262
:100A80007374002066697273740A005A0059005822
:100A900000486F6D65200053442063617264206FCD
:100AA0006B0A006F70656E526F6F74206661696CBF
:100AB00065640A00766F6C756D652E696E697420C9
:100AC0006661696C65640A00534420696E6974202C
:100AD0006661696C0A006175746F25692E67004D47
:100AE0003234004D32332025730057726974696EB9
:100AF0006720746F2066696C653A20006F70656EC0
:100B0000206661696C65642C2046696C653A20003A
:100B10006F70656E206661696C65642C2046696C37
:100B2000653A200046696C652073656C6563746581
:100B3000640A002053697A653A200046696C652092
:100B40006F70656E65643A20006F70656E20666137
:100B5000696C65642C2046696C653A2000206669E2
:100B60006C653A2000646F696E6700667265736831
:100B7000004E6F772000454E4420535542524F554A
:100B800054494E450A002220706F73002220706184
:100B900072656E743A2200535542524F5554494E75
:100BA000452043414C4C207461726765743A2200C1
:100BB0004B494C4C45442E2000747279696E672075
:100BC000746F2063616C6C207375622D67636F6452
:100BD000652066696C6573207769746820746F6F2F
:100BE000206D616E79206C6576656C732E204D41A9
:100BF00058206C6576656C2069733A004572726F97
:100C0000723A0020204E6F7A7A6C653A2000426179
:100C1000636B004D696E696D756D2054656D702054
:100C20006973203137302E0048656174696E672022
:100C30006661696C65640045787472756465206DE1
:100C40006F726500526573756D65207072696E74A0
:100C500000524553554D45204F5054494F4E533A3D
:100C60000020204E6F7A7A6C653A20006368616ECE
:100C70006765006F66207468652066696C616D65E4
:100C80006E74005761697420666F722073746172AC
:100C900074005052494E5420504155534544002051
:100CA000204E6F7A7A6C653A200066696C616D65DA
:100CB0006E7420756E6C6F61640057616974206694
:100CC0006F72005052494E542050415553454400D4
:100CD00020204E6F7A7A6C653A2000506C65617303
:100CE0006520776169742E2E2E0048656174696EE7
:100CF00067206E6F7A7A6C65005052494E542050CE
:100D000041555345440020204E6F7A7A6C653A2055
:100D10000068656174206E6F7A7A6C652E0050727F
:100D200065737320627574746F6E20746F00505217
:100D3000494E54205041555345440020204E6F7A6F
:100D40007A6C653A2000746F20636F6E74696E75FB
:100D5000652E2E2E00616E642070726573732062A2
:100D60007574746F6E00496E736572742066696C79
:100D7000616D656E74005052494E54205041555378
:100D800045440020204E6F7A7A6C653A20006669EF
:100D90006C616D656E74206C6F616400576169747D
:100DA00020666F72005052494E54205041555345B1
:100DB000440020204E6F7A7A6C653A200066696C98
:100DC000616D656E74206578747275646500576135
:100DD000697420666F72005052494E54205041553C
:100DE00053454400746F20726573756D65005761DB
:100DF000697420666F72207072696E740050524977
:100E00004E54205041555345440050726568656109
:100E10007420504C4120456E6400507265686561D5
:100E20007420504C412042656400507265686561D1
:100E30007420504C410050726570617265005072B0
:100E400065686561742041425320456E64005072AC
:100E500065686561742041425320426564005072A8
:100E6000656865617420414253005072657061721B
:100E700065004261636B004E65787420636F726E2B
:100E80006572004D343238005072656865617420B7
:100E9000504C4100436F6F6C646F776E0043686124
:100EA0006E67652066696C616D656E740050726571
:100EB00068656174204142530044697361626C65E6
:100EC000207374657070657273004D38340053651B
:100ED0007420686F6D65206F666673657473004C6F
:100EE0006576656C20636F726E6572730041757410
:100EF0006F20686F6D6500473238004D6F76652052
:100F000061786973004D61696E004D6F7665205898
:100F1000004D6F76652059004D6F7665205A00456B
:100F200078747275646572004D6F766520302E316D
:100F30006D6D004D6F766520316D6D004D6F76657E
:100F40002031306D6D004D6F7665206178697300DA
:100F50004578747275646572004D6F7665205A002D
:100F60004D6F76652059004D6F7665205800000062
:100F70000000250028002B000000000023002600B0
:100F8000290004040404040404040202020202020C
:100F9000030303030303010204081020408001023D
:100FA00004081020010204081020000000080002BC
:100FB00001000003040700000000000000004B498E
:100FC0004C4C45442E2000202D20496E76616C69E2
:100FD00064206578747275646572206E756D6265E3
:100FE0007220210A00001C1F11111F0000000619A9
:100FF0001803130C00040E1F041C000000000E1345
:1010000015110E00001C10181705060500040A0A29
:101010000A0A11110E0C12120C00000000001F151C
:1010200011151F00002D2D2D2D2D2D2D2D007C5A3D
:101030004F4E45535441527C002D2D2D2D2D2D2DDD
:101040002D00687474703A2F2F7777772E7A6F6E31
:10105000657374617233642E636F6D0042617365F2
:10106000206F6E204D61726C696E312E312E38000A
:1010700042617365206F6E204D61726C696E312E16
:10108000312E3800002020506C616E6E6572427502
:101090006666657242797465733A2000204672650F
:1010A00065204D656D6F72793A2000436F6D7069F0
:1010B0006C65643A204A756C203331203230313807
:1010C0000A00207C20417574686F723A20284861BC
:1010D0006C6C79405A4F4E4553544152290A0032A4
:1010E0003031382D30372D323000204C6173742070
:1010F000557064617465643A200042617365206FC5
:101100006E204D61726C696E312E312E380A004DA1
:1011100061726C696E0020536F667477617265202E
:1011200052657365740A00205761746368646F6761
:101130002052657365740A002042726F776E206FCB
:1011400075742052657365740A0020457874657261
:101150006E616C2052657365740A00506F7765721A
:1011600055700A0073746172740A006572726F724E
:101170002077726974696E6720746F2066696C6588
:101180000A00456E6473746F7073202563202563B5
:1011900020256320256300205A3A0020593A002078
:1011A000583A00656E6473746F7073206869743A9E
:1011B0002000446F6E6520736176696E67206669F2
:1011C0006C652E0A004D323900526573656E643AC3
:1011D00020006F6B004D363030004B494C4C45447D
:1011E0002E20004B494C4C2063617573656420626E
:1011F0007920746F6F206D75636820696E61637408
:101200006976652074696D65202D2063757272653D
:101210006E7420636F6D6D616E643A2000506C6572
:10122000617365207265736574005052494E544570
:10123000522048414C544544005072696E746572A6
:101240002068616C7465642E206B696C6C282920A1
:1012500063616C6C6564210A00656E717565756506
:10126000696E67202200000020C20000000000001C
:10127000000000004842000048420000004000001A
:1012800000005761726E696E673A20486F6D696E33
:10129000672042756D702044697669736F72203CD7
:1012A00020310A000202040000A0400000A040001B
:1012B0000000400000874300005C4300006643FFDD
:1012C000FFFF4D36303020486F74656E6420746FB8
:1012D0006F20636F6C6420746F206368616E676554
:1012E0002066696C616D656E740A00A00F001003C2
:1012F000A00F001002A00F0010012C01F401086CD7
:10130000079808053A026603076E0A360B047E0446
:10131000AA050600000000010204040000001C1CD5
:101320000C04040402010000000000040810000086
:1013300000000000000000240027002A007C3C3E42
:101340005E2B3D3F2F5B5D3B2C2A225C0045787471
:101350007275646572004D6F7665205A004D6F7628
:10136000652059004D6F7665205800507265706198
:10137000726500496E697469616C697A65204545DA
:1013800050524F4D00436F6E74726F6C0052657314
:10139000746F7265206661696C7361666500496E81
:1013A000697469616C697A6520454550524F4D00FA
:1013B0004C6F61642073657474696E677300537455
:1013C0006F72652073657474696E6773004D6F7416
:1013D000696F6E0054656D70657261747572650039
:1013E0004D61696E005072656865617420414253B9
:1013F00020636F6E66005072656865617420504CA2
:101400004120636F6E66005049442D4400504944AA
:101410002D44005049442D49005049442D49005065
:1014200049442D50005049442D500046616E2073B0
:10143000706565640046616E207370656564004286
:10144000656400426564004E6F7A7A6C65004E6F89
:101450007A7A6C6500436F6E74726F6C0053746FB0
:1014600072652073657474696E6773004265640009
:10147000426564004E6F7A7A6C65004E6F7A7A6CC2
:10148000650046616E2073706565640046616E207C
:1014900073706565640054656D7065726174757212
:1014A000650024F4D43050C38E20C2A24017828B32
:1014B0007011127A910D816CD90AA861E108C758A0
:1014C0006607615143061E4B5D05C145A7041A41DD
:1014D0001104093D9803713931034036DB0265334D
:1014E0009102D4305402802E1D02632CEE01752A25
:1014F000C501B028A001102781018F2564012B248C
:101500004B01E0223401AC211F018D200D01801F11
:10151000FC00841EED00971DDF00B81CD200E61B06
:10152000C600201BBC00641AB200B219A8000A1938
:10153000A0006A189900D117910040178B00B516CA
:10154000840031167E00B31579003A157300C71474
:101550006F0058146A00EE136600881363002513A9
:101560005E00C7125B006C12570015125400C111C7
:10157000510070114F0021114B00D61049008D1001
:1015800047004610440002104200C00F4000800F88
:101590003E00420F3C00060F3B00CB0E3800930E7E
:1015A00037005C0E3500270E3400F30D3200C10DFC
:1015B0003100900D3000600D2E00320D2D00050D14
:1015C0002C00D90C2B00AE0C2900850C29005C0CDA
:1015D0002700350C27000E0C2600E80B2400C40B56
:1015E0002400A00B23007D0B23005A0B2100390B94
:1015F0002100180B2000F80A1F00D90A1E00BB0AA0
:101600001E009D0A1D00800A1D00630A1C00470A77
:101610001B002C0A1B00110A1A00F7091A00DD0929
:101620001900C4091900AB091900920917007B09B8
:101630001800630917004C09160036091600200926
:1016400016000A091500F5081500E0081400CC087A
:101650001400B8081400A4081400900813007D08B2
:1016600012006B08130058081200460812003408D4
:101670001100230811001208110001081100F007E1
:101680001000E0071000D0071000C0071000B007DE
:101690000F00A107100091070E0083070F007407C9
:1016A0000F0065070E0057070E0049070E003B07A5
:1016B0000D002E070E0020070D0013070D00060772
:1016C0000D00F9060C00ED060D00E0060C00D40636
:1016D0000C00C8060C00BC060C00B0060C00A406EA
:1016E0000B0099060C008D060B0082060B00770696
:1016F0000B006C060B0061060A0057060B004C0637
:101700000A0042060A0038060A002E060A002406CD
:101710000A001A060A001006090007060A00FD055D
:101720000900F4050900EB050900E2050900D905E7
:101730000900D0050900C7050900BE050900B50567
:101740000800AD050800A50509009C0508009405E2
:1017500008008C050800840508007C050800740555
:1017600008006C050700650508005D0507005605C3
:1017700008004E050700470507004005080038052A
:101780000700310507002A050700230507001C058F
:101790000600160507000F050700080506000205EC
:1017A0000700FB040600F5040700EE040600E80449
:1017B0000600E2040700DB040600D5040600CF049F
:1017C0000600C9040600C3040600BD040600B704F1
:1017D0000600B1040500AC040600A6040600A0043F
:1017E00005009B04060095040500900406008A0489
:1017F000050085040500800406007A0405007504D0
:101800000500700405006B04050066040500610412
:1018100005005C04050057040500520405004D0452
:10182000050048040500430405003E0404003A0492
:10183000050035040500300404002C0405002704CD
:101840000400230405001E0404001A040400160406
:101850000500110404000D0404000904050004043B
:10186000040000040400FC030400F8030400F40373
:101870000400F0030400EC030400E8030400E403A4
:101880000400E0030400DC030400D8030400D403D4
:101890000400D0030400CC030400C8030300C50304
:1018A000030024F404D9201BC40C5C0E9804C40962
:1018B0005F0265077101F405F900FB04B3004804F9
:1018C0008700C10369005803550003034500BE02A9
:1018D0003A008402310053022A0029022500040242
:1018E0002000E4011C00C8011900AF011700980195
:1018F00014008401130071011000610110005101F6
:101900000E0043010D0036010B002B010B002001DE
:101910000B00150109000C01090003010800FB0080
:101920000800F3000800EB000700E4000600DE00FA
:101930000600D8000600D2000600CC000500C70053
:101940000500C2000500BD000400B9000400B50098
:101950000400B1000400AD000400A9000400A500CB
:101960000300A20003009F0004009B0003009800F6
:1019700003009500020093000300900003008D0017
:1019800002008B0003008800020086000200840031
:101990000300810002007F0002007D0002007B0046
:1019A0000200790002007700010076000200740056
:1019B000020072000100710002006F0002006D0061
:1019C00001006C0002006A0001006900020067006B
:1019D0000100660001006500010064000200620071
:1019E000010061000100600001005F0002005D0075
:1019F00001005C0001005B0001005A000100590079
:101A00000100580001005700010056000100550078
:101A10000100540001005300000053000100520077
:101A2000010051000100500001004F0001004E0074
:101A300000004E0001004D0001004C0001004B0071
:101A400000004B0001004A0001004900010048006D
:101A50000000480001004700010046000000460069
:101A60000100450000004500010044000100430062
:101A7000000043000100420000004200010041005C
:101A8000000041000100400001003F0000003F0055
:101A900001003E0000003E0001003D0000003D004E
:101AA00001003C0000003C0000003C0001003B0045
:101AB00000003B0001003A0000003A00010039003C
:101AC0000000390001003800000038000000380034
:101AD000010037000000370001003600000036002A
:101AE0000000360001003500000035000000350020
:101AF0000100340000003400000034000100330015
:101B0000000033000000330001003200000032000A
:101B100000003200010031000000310000003100FF
:101B200001003000000030000000300001002F00F4
:101B300000002F0000002F0000002F0001002E00E9
:101B400000002E0000002E0001002D0000002D00DE
:101B500000002D0000002D0001002C0000002C00D2
:101B600000002C0000002C0001002B0000002B00C6
:101B700000002B0000002B0001002A0000002A00BA
:101B800000002A0000002A000100290000002900AE
:101B900000002900000029000000290001002800A1
:101BA0000000280000002800000028000000280095
:101BB0000100270000002700000027000000270088
:101BC000000027000100260000002600000026007B
:101BD000000026000000260001002500000025006E
:101BE0000000250000002500000025000000250061
:101BF0000100240000002400000024000000240054
:101C00000000240001002300000023000000230046
:101C10000000230000002300000023000000230038
:101C2000010022000000220000002200000022002B
:101C3000000022000000220001002100000021001D
:101C40000000210000002100000021000000210010
:101C50000000210001002000000020000000200002
:101C600000002000000020000000200000002000F4
:101C70000000200001001F0000001F0000001F00E6
:101C800000001F0000001F0000001F0000001F00D8
:101C900001001E0000001E0000001E0000001E00CB
:101CA00000004D383420582059205A2045005665F0
:101CB0002D6A65726B0056652D6A65726B005665FC
:101CC0002D6A65726B00567A2D6A65726B00567AC2
:101CD0002D6A65726B0056792D6A65726B005679B4
:101CE0002D6A65726B0056792D6A65726B005678A5
:101CF0002D6A65726B0056782D6A65726B00567896
:101D00002D6A65726B004D6F74696F6E0045737458
:101D10006570732F6D6D004573746570732F6D6DF5
:101D2000005A73746570732F6D6D005A737465700B
:101D3000732F6D6D005973746570732F6D6D00593D
:101D400073746570732F6D6D005873746570732FA5
:101D50006D6D005873746570732F6D6D004D6F74E9
:101D6000696F6E0053746570732F6D6D004A6572F4
:101D70006B00416363656C65726174696F6E0056D8
:101D8000656C6F6369747900436F6E74726F6C0079
:101D900043616E6E6F7420656E7465722073756238
:101DA0006469723A2000052E2E0004526566726541
:101DB0007368004D61696E005072696E74207061C5
:101DC00075736564004D31323500004D323400507A
:101DD00072696E742061626F72746564004D323195
:101DE000004E6F2053442063617264004368616E4B
:101DF00067652053442063617264004D32310050A6
:101E000072696E742066726F6D2053440053746F54
:101E100070207072696E7400526573756D65207004
:101E200072696E7400496E69742E20534420636198
:101E30007264005061757365207072696E7400433E
:101E40006F6E74726F6C00507265706172650054D1
:101E5000756E6500496E666F2073637265656E000E
:101E60004261627973746570205A004D36303020BB
:101E70004230004368616E67652066696C616D651C
:101E80006E74004261627973746570205A00466C0A
:101E90006F7700466C6F770046616E2073706565E2
:101EA000640046616E20737065656400426564007D
:101EB000426564004E6F7A7A6C65004E6F7A7A6C78
:101EC00065005370656564005370656564004D611D
:101ED000696E0043616E6E6F74206F70656E207363
:101EE000756264697220006563686F3A0054484502
:101EF000524D414C2052554E41574159005468654E
:101F0000726D616C2052756E617761790025753A4A
:101F10002530327500253032753A25303275002D66
:101F20002D2D005344005A00590058001000C902DA
:101F300010012C014001220170011801B0010E01B5
:101F4000F00104015002FA00B002F0003003E60094
:101F5000D003DC009004D2007005C800A006BE00CB
:101F60000008B400B009AA00D00BA000600E9600D3
:101F700060118C000015820020197800C01D6E00D1
:101F8000A0226400B0275A00902C50000031460077
:101F9000E0343C0010383200903A2800603C1E00CB
:101FA000A03D1400803E0A00203F00004572723AB6
:101FB000204D494E54454D502042454400457272D3
:101FC0003A204D494E54454D50004D494E54454DD3
:101FD0005020747269676765726564004572723A71
:101FE000204D415854454D502042454400457272A1
:101FF0003A204D415854454D50004D415854454D9F
:10200000502074726967676572656400202F002034
:1020100042403A0020403A0020746F6F206C6F6E8F
:102020006720657874727573696F6E20707265765B
:10203000656E7465640A0020636F6C642065787453
:10204000727573696F6E2070726576656E74656403
:102050000A0020440020490020204D333031205018
:10206000005049442073657474696E67733A0A00BE
:1020700020460020420020480020204D31343520E9
:1020800053004D6174657269616C20686561747597
:102090007020706172616D65746572733A0A002018
:1020A0005A0020590020204D323036205800486F09
:1020B0006D65206F66667365743A0A0020450020DE
:1020C0005A002059002058002042002054002020AF
:1020D0004D323035205300416476616E6365643A59
:1020E00020533C6D696E5F66656564726174653E20
:1020F00020543C6D696E5F74726176656C5F6665D5
:102100006564726174653E20423C6D696E5F736503
:10211000676D656E745F74696D655F75733E205899
:102120003C6D61785F78795F6A65726B3E205A3CDE
:102130006D61785F7A5F6A65726B3E20453C6D61C8
:10214000785F655F6A65726B3E0A0020540020521A
:102150000020204D323034205000416363656C65AF
:10216000726174696F6E2028756E6974732F733293
:10217000293A20503C7072696E745F616363656CCC
:102180003E20523C726574726163745F6163636583
:102190006C3E20543C74726176656C5F616363656C
:1021A0006C3E0A00204500205A0020590020204D96
:1021B0003230312058004D6178696D756D20416372
:1021C00063656C65726174696F6E2028756E6974E1
:1021D000732F7332293A0A00204500205A002059F3
:1021E0000020204D3230332058004D6178696D75E4
:1021F0006D206665656472617465732028756E690B
:1022000074732F73293A0A00204500205A00205980
:102210000020204D393220580053746570732070AF
:10222000657220756E69743A0A0020204D32303094
:102230002044300A0020204D323030204400204419
:10224000697361626C65640A0046696C616D656EF4
:10225000742073657474696E67733A0020204D3181
:1022600034392043203B20556E69747320696E20F9
:1022700043656C736975730A002020473231202052
:1022800020203B20556E69747320696E206D6D0AA5
:10229000005654726176206D696E005654726176F4
:1022A000206D696E005654726176206D696E00561D
:1022B0006D696E00566D696E00566D696E00566DE3
:1022C0006178204500566D6178204500566D617833
:1022D000204500566D6178205A00566D6178205A6D
:1022E00000566D6178205A00566D6178205900566D
:1022F0006D6178205900566D6178205900566D61E6
:1023000078205800566D6178205800566D6178200D
:1023100058004D6F74696F6E00416D617820450003
:10232000416D6178204500416D6178205A00416D12
:102330006178205A00416D6178205900416D6178C3
:10234000205900416D6178205800416D6178205816
:1023500000412D74726176656C00412D7472617656
:10236000656C00412D7265747261637400412D7259
:1023700065747261637400416363656C00416363FB
:10238000656C004D6F74696F6E006265640A002CA5
:102390002073797374656D2073746F707065642138
:1023A000204865617465725F49443A200048656160
:1023B00074696E67206661696C6564004865617464
:1023C000696E67206661696C6564001000AA03800D
:1023D00000400100012C01B001220140021001F077
:1023E0000202018003F8004004F500E004ED0090D3
:1023F00005E4003006DD00E006D7008007D100309C
:1024000008CC00D008C7007009C300100ABE00B095
:102410000ABB00500BB700900CB300D00DAA00B05F
:102420000FA5005010A000101496009016900010F8
:10243000198C00501A8500301C820070227800B080
:1024400023750040256E0020276900A029640050F4
:102450002A5F00902B5A00D02C5500702D4F00E0C1
:102460002E48005031450030334100D035390060EE
:1024700036370010373300F0382D00A039270080A0
:102480003C1C00403D1700F03D1100803E0900D08B
:102490003FE5FF0041C773C611241FBECFEFD0E454
:1024A000DEBFCDBF12E0A0E0B1E0EAE1FEEA01E06C
:1024B0000BBF02C007900D92AE37B107D9F721E1EB
:1024C000AEE7B2E001C01D92A537B207E1F712E115
:1024D000CBE4D2E104C02197FE010E946BD6CA343E
:1024E000D107C9F70E94CFC10C9400D70C9400000B
:1024F0002F923F924F925F926F927F928F929F9214
:10250000AF92BF92CF92DF92EF92FF920F931F9301
:10251000CF93DF93CDB7DEB7C555D1090FB6F89489
:10252000DEBF0FBECDBF80915A118D3409F4CDC2EC
:10253000843511F40C944525873411F00C948725CB
:1025400080915811909159118B31910509F413C262
:1025500064F497FF02C00C94A1258230910574F1B8
:10256000049709F4C1C10C94A1258A35910509F499
:1025700032C24CF44C9711F00C94A12580E00E94DB
:1025800042370C94A1258B35910509F428C28C356E
:10259000910511F00C94A1250E94F0B7A3E72A2E13
:1025A000A1E03A2EBCEBCB2EB7E0DB2EE12CF12CD8
:1025B00000E010E028961FAE289752C2809170016B
:1025C000882311F40C94A12513E7812E11E0912E9C
:1025D00008ECC02E07E0D02E8BE1E82E83E0F82E29
:1025E00098E4A92E90E1B92E00E010E0D4018D917D
:1025F0004D010E94112D882371F10E94DE2CF801FB
:10260000E657FD4F2081211104C020918E02222324
:1026100031F0F701208131814281538103C020E0F4
:1026200030E0A9010E941CD40330110559F0D501F6
:102630002D913D914D915C912B013C01C301B20163
:102640000E941BD4462F572FBC01F60140835183B3
:10265000628373830AC0F70180819181A281B38173
:10266000F60180839183A283B3830F5F1F4FF4E051
:10267000CF0ED11C24E0E20EF11C34E0A30EB11CFD
:102680000430110509F0B2CF86E40E94402D882362
:10269000C9F00E94DE2C20E030E0A9010E949FD505
:1026A000181684F40E94DE2C20E030E040E752E46B
:1026B0000E949FD4609300017093010180930201F6
:1026C0009093030180911201882309F45AC0C090AD
:1026D0000601D0900701E0900801F0900901A701E0
:1026E00096016091C8077091C9078091CA079091BF
:1026F000CB070E949FD5181644F4C092C807D09209
:10270000C907E092CA07F092CB07C0900A01D090A7
:102710000B01E0900C01F0900D01A7019601609172
:10272000CC077091CD078091CE079091CF070E9482
:102730009FD5181644F4C092CC07D092CD07E092F2
:10274000CE07F092CF07C0900E01D0900F01E0901D
:102750001001F0901101A70196016091D0077091CE
:10276000D1078091D2079091D3070E949FD5181668
:1027700044F4C092D007D092D107E092D207F092F1
:10278000D3070E94FC2D8091530D83FD86C0C0901D
:10279000D407D090D507E090D607F090D7072091C6
:1027A0002703309128034091290350912A03C70140
:1027B000B6010E94EBCF882309F46FC00E94C86164
:1027C000882301F1C0922703D0922803E0922903C5
:1027D000F0922A03E7EEFEE184918F010F5F1F4F15
:1027E000882321F00E94072EF801F6CFE6E5F1E0FC
:1027F00084918F010F5F1F4F882321F00E94072EC5
:10280000F801F6CFC090D407D090D507E090D60756
:10281000F090D70720912703309128034091290396
:1028200050912A03C701B6010E941BD49F77E09103
:102830005F0544E0E49FF0011124EA5DFE4F208132
:102840003181428153810E9451D020E030E04AE73B
:1028500054E40E949FD5181604F5C0922703D09225
:102860002803E0922903F0922A03E7EEFEE1849127
:102870008F010F5F1F4F882321F00E94072EF80160
:10288000F6CFE7E3F1E084918F010F5F1F4F8823BC
:1028900021F00E94072EF801F6CF60912C01709173
:1028A0002D01072E000C880B990B0E94F2CF20916E
:1028B00000013091010140910201509103010E94F9
:1028C00051D02AE037ED43E25CE30E9451D00E94F0
:1028D000382B80E1E8ECF7E0ABE1B3E001900D923A
:1028E0008A95E1F70C94A12580E50E94402D88236C
:1028F00029F00E949A2C6B017C0103C0C12CD12CC1
:10290000760183E50E94402D882361F00E94DE2C31
:1029100020E030E04AE754E40E9451D00E9418D5EC
:102920006B017C010E94F0B780912F01811105C0DD
:1029300060E081E791E00E948F6B0E94FC2D809106
:10294000B4079091B507A091B607B091B707C80E2C
:10295000D91EEA1EFB1E0E942966DC01CB018C19E0
:102960009D09AE09BF09B7FD02C00C94A12580E006
:102970000E945162F0CF0E94804A81110C94A125DF
:1029800080E090E0A0EFB1EC89839A83AB83BC83B5
:1029900080E090E0A0E2B1E48D839E83AF83B887AE
:1029A00080E090E0A0EAB1E489879A87AB87BC8792
:1029B00080E50E94402D882319F00E94AA2C01C0B6
:1029C00060E068A3BE016F5F7F4FCE0180960E94DA
:1029D00047BB0C94A12510928E020C94A12581E096
:1029E00080938E020C94A1250E94DE2C4B015C0189
:1029F0000330110559F0F701E85BFF4E208131816A
:102A0000428153810E941BD44B015C01F701E55EBA
:102A1000FC4F2081318142815381C501B4010E9464
:102A20001BD42B013C012DEB37E346E855EB0E940C
:102A30009FD587FD1DC02DEB37E346E855E3C30165
:102A4000B2010E94EBCF18169CF00F5F1F4FB4E04D
:102A5000CB0ED11CE4E0EE0EF11C0430110559F14F
:102A6000D1018D911D010E94402D882371F3BCCFAF
:102A70000330110569F48092270390922803A092F5
:102A80002903B0922A03B1E02896BFAF2897DDCF83
:102A9000A3019201F60160817181828193810E947C
:102AA0001CD4D6016D937D938D939C931397C8018D
:102AB0000E945E2BCACF2896FFAD2897F1110E9485
:102AC0005E4B0E9465360C94A1258091581190911F
:102AD00059118237910511F40C94D01D0CF0D1C01E
:102AE0008B34910509F45EC50CF066C08831910500
:102AF00009F49DC2ACF58231910509F47FC7BCF49D
:102B000097FF02C00C94A125823091050CF4ABC153
:102B1000419711F00C94A12560E08CEA91E00E94AD
:102B20008F6B5E985E9815985E980C94A125853100
:102B3000910509F461C23CF4449711F00C94A1256D
:102B4000E4ECF1E016C28631910509F459C24797C9
:102B500011F00C94A125E0915611F09157115AC231
:102B60008C31910509F4CBC2A4F48A31910509F4A2
:102B70007CC20CF088C21092B10D0E949C4B85ED76
:102B800091E09093500580934F050E94BC2B0C94CC
:102B9000A1258F31910509F41FC42CF44E9709F437
:102BA000B8C20C94A1258032910509F4C9C38A9753
:102BB00009F4B8C40C94A1258836910509F4FEC423
:102BC0000CF040C08235910509F40FC714F58D341F
:102BD000910509F4EFC40CF4E9C48135910511F0B5
:102BE0000C94A1250E9441B50E94F0B70E94F061AB
:102BF00010922B1110922A1168EE73E080E090E0A1
:102C00000E94966A60E08BEE92E00E948F6B0C94BB
:102C1000A1258435910509F4F1C60CF4EAC6853581
:102C2000910509F422C78C35910511F00C94A1256A
:102C300043E7C42E41E0D42E5BE2E52E53E0F52EAF
:102C400010E02EC78C36910509F483C53CF48A3612
:102C5000910509F419C60CF49CC53BC68E36910546
:102C600009F4F3C40CF4D6C58F36910509F400C5F8
:102C70008037910511F00C94A1258BEA92E00E9417
:102C8000FA61833D910511F40C94DF200CF06FC0C4
:102C90008139910511F40C94FB1E44F58737910599
:102CA00011F40C946E1E84F48537910511F40C9484
:102CB000271E14F00C942F1E8337910511F00C94ED
:102CC000A125E0EBF3E072C78937910511F40C946C
:102CD000F61E14F40C94F01E8D37910509F40BC602
:102CE0008C38910509F439C50C94A125893C9105CE
:102CF00011F40C94B81F7CF48E3B910509F4A8C51F
:102D0000883C910511F40C94721F8B39910511F0D8
:102D10000C94A12558C58C3C910511F40C94EE1F20
:102D200084F48B3C910511F00C94A125F1EBEF2E6E
:102D3000F0E1FF2E03E711E0A4E0DA2ED00E0C94B0
:102D4000DF1F8D3C910511F40C9458208E3C9105A9
:102D500011F00C94A12573E7C72E71E0D72EECE794
:102D6000EE2EE5E0FE2E00E010E00C94CD20803940
:102D700021E0920711F40C943C23ACF5823241E03F
:102D8000940711F40C943C228CF48D3D910511F4C0
:102D90000C94CC21823E910511F40C9413228C3DAD
:102DA000910511F00C94A1250C94BF218E32A1E065
:102DB0009A0711F40C94E5223CF48D32914011F401
:102DC0000C9447220C94A1258F32F1E09F0711F457
:102DD0000C9439238336914011F00C94A125ECEF2B
:102DE000FBE00C941925863F31E0930711F40C9415
:102DF0000124FCF48C3A51E0950711F40C943F2324
:102E00004CF48A39914011F00C94A1250E945C2D5C
:102E10000C94A125843FE1E09E0711F40C94FE235D
:102E2000853F914011F00C94A1250E944E3A0C94DC
:102E3000A125883522E0920711F40C9410243CF46B
:102E4000873F914011F40C9404240C94A125803AFE
:102E500053E0950709F4B3C2873E934011F40C94F4
:102E600030250C94A125A0905611B090571180E503
:102E70000E94402D882359F00E949A2C6B017C01FE
:102E800011E0672B682B692B31F410E004C010E0CF
:102E9000C12CD12C760183E50E94402D8823F1F0CE
:102EA0000E94DE2C20E030E04AE754E40E9451D03A
:102EB0000E9418D56B017C01111112C0672B682B81
:102EC000692B71F4A114B10459F0F50180818823B4
:102ED00039F061E0C5010E94B06B07C0112391F386
:102EE00060E089E991E00E948F6B81E08093FA07AE
:102EF0000E94F0B70E94FC2DC114D104E104F1043A
:102F0000F1F08091B4079091B507A091B607B09108
:102F1000B707C80ED91EEA1EFB1E0E942966DC01F7
:102F2000CB018C199D09AE09BF09B7FF1EC0809166
:102F3000FA078823D1F080E00E945162EECF8091A1
:102F4000FA07882321F080E00E945162F8CF809137
:102F5000A10D9091A20D60E0029719F489E891E02B
:102F600002C08AE791E00E948F6B1092FA070C94DE
:102F7000A12584918F010F5F1F4F882321F00E94AC
:102F8000072EF801F6CF109237101092361040E05D
:102F900050E0BA0182EE9DE00E94F4708BE1E2EE17
:102FA000FDE0DE01159601900D928A95E1F7809182
:102FB000E00D9091E10D9C838B8383ED91E09A83EA
:102FC000898340E050E0BE016F5F7F4F8AE792E067
:102FD0000E948D94CE0101960E94E861E5EBF1E03C
:102FE00084918F010F5F1F4F882311F40C94A1254A
:102FF0000E94072EF801F4CF0E94F7480C94A125F7
:103000001092B10D1092B20D0C94A125803209F4EA
:103010001082319680818111F9CF40E061E080918A
:103020005611909157110E94AB450C94A12519821D
:103030001A821B821C8218A219A21AA21BA28091BA
:10304000D807882339F0BE016F5F7F4FCE0180968D
:103050000E941D648091B20D882319F081E0809355
:10306000B10D0E941E4B0C94A1258091B20D8823B6
:1030700011F40C94A12583E50E94402D81110C943C
:10308000A4250C94A1258091B20D882351F1EAED7D
:10309000F1E084918F010F5F1F4F882321F00E9480
:1030A000072EF801F6CF60912D1070912E108091AF
:1030B0002F10909130104AE00E94AB308FE20E94B6
:1030C000072E6091291070912A1080912B109091F9
:1030D0002C104AE00E94AB308AE00E94072E0C942C
:1030E000A125ECEEF1E084918F010F5F1F4F882343
:1030F00011F40C94A1250E94072EF801F4CF40E0B2
:1031000060E080915611909157110E94AB450C944C
:10311000A1258091B20D882311F40C94A1258CE790
:103120009FE00E94B1708CE79FE00E94517710925F
:10313000B00D1092AF0DE0905611F09057118091A4
:10314000B20D882311F40C94A1250E94C9921D820E
:1031500018861C821B8283ED91E09A8389838EED11
:103160009DE09093FE0D8093FD0DD7018C918F32E1
:1031700009F067C06FE270E0C7010E94BDD68C0104
:103180000F5F1F4FFE0131964F010115110509F424
:103190005EC06FE270E0C8010E94BDD66C0100976E
:1031A00009F456C00817190708F052C05C01A01AAC
:1031B000B10AA501B801CE0180960E94E6D6E0E2F0
:1031C000F0E0EC0FFD1FEA0DFB1D10828E01005E8A
:1031D0001F4FD8018D918D01882319F00E94072E71
:1031E000F8CF8AE00E94072E6091FD0D7091FE0DD0
:1031F0006115710511F06C5F7F4F21E0AE01405EFB
:103200005F4FCE0105960E945A77811112C0BE0110
:10321000605E7F4F83E292E00E94B3868EE20E945E
:10322000072E8AE00E94072EC4010E94E8610C94D8
:10323000A1259092FE0D8092FD0D86010F5F1F4F1C
:10324000A4CF8FEF9DE09093FE0D8093FD0D87013D
:103250006091FD0D7091FE0D6115710511F06C5FAF
:103260007F4F18A21BA222E0A801CE0180960E94E7
:103270005A77811102C0F12C1EC0CE0180960E94A7
:1032800037928823C1F36CA57DA58EA59FA541E04B
:103290000E94FE6E882379F3E8A9B0E2EB9FF0016B
:1032A0001124EC5BFC4F309731F385EE80831BA239
:1032B0000E94BE6EF82ECE0180960E944D2DFF20FA
:1032C00009F1EDEFF1E084917F012FEFE21AF20AAC
:1032D000882321F00E94072EF701F5CFD8018D91A8
:1032E0008D01882319F00E94072EF8CF8AE00E94F2
:1032F000072E10922D1010922E1010922F10109257
:10330000301018C0EBE0F2E084917F01BFEFEB1AC0
:10331000FB0A882321F00E94072EF701F5CFF80160
:1033200081918F01882319F00E94072EF8CF8EE239
:103330000E94072ECE0101960E94E8610C94A125FF
:103340008091B10D81110E94F0B78091B20D882358
:1033500011F40C94A12580E50E94402D882319F0DA
:103360000E94CE2C03C080E50E94112D182F482FFB
:1033700061E080915611909157110E94AB4583E511
:103380000E94402D882381F00E94AA2CAB01BC0131
:1033900040932D1050932E1060932F107093301087
:1033A0008CE79FE00E94F4708091B20D882319F0A1
:1033B00081E08093B10D11110C94A12552CE809122
:1033C00056119091571121E02093B00D40E060E03C
:1033D0000E94AB450C94A1250E945794FCE3CF2E8C
:1033E000D12CE12CF12CA70196010E94DFD3762E7F
:1033F000672ECA01B901A70196010E94DFD36B01B4
:103400007C01CA01B90128E130E040E050E00E94AF
:10341000DFD34B015C01C9016DE671E00E9424D647
:103420008E010F5F1F4F6115710599F06F927F92AA
:10343000DF92CF929F928F929F938F937F936F9300
:103440008FE592E09F938F931F930F930E9482CFFB
:1034500012C00097B1F06F927F92DF92CF929F924D
:103460008F929F938F938FE492E09F938F931F93FC
:103470000F930E9482CF0FB6F894DEBF0FBECDBF70
:1034800036C081149104A104B10479F06F927F9247
:10349000DF92CF929F928F9283E492E09F938F93DB
:1034A0001F930F930E9482CFE6CFC114D104E10491
:1034B000F10469F06F927F92DF92CF928BE392E0FA
:1034C0009F938F931F930F930E9482CFD4CF6F92BD
:1034D0007F9287E392E09F938F931F930F930E94B5
:1034E00082CF0F900F900F900F900F900F9060E091
:1034F000C8010E94B06BE7EEFEE184917F01BFEF4F
:10350000EB1AFB0A882321F00E94072EF701F5CF62
:10351000B80183E792E00E94B3868AE00E94072EFA
:103520000C94A12583E50E94402D882311F40C946E
:10353000A1250E94BA2CD82E80E50E94402D882318
:1035400011F40C94A1250E94AA2CC62EE62EF72E6B
:10355000F7FE02C00C94A125E3E9F5E088E28E0FA6
:103560009491C91629F031968E13FACF0C94B52593
:10357000ECEFFBE084918F010F5F1F4F882321F058
:103580000E94072EF801F6CFE0E8F2E084918F0167
:103590000F5F1F4F882311F40C94A1250E94072E62
:1035A000F801F4CF0E941E4B0C94A1250E949C4B65
:1035B0000C94A1250E94F1920C94A12588E690E03C
:1035C0000E94133181110C94A1258091530D83FF2A
:1035D00002C00C94A12583E50E94402D882311F49C
:1035E0000C94A1250E94DE2C0E9411D57093291104
:1035F0006093281180E00E94F6B40E94DE2C209196
:1036000060053091610540916205509163050E940B
:103610009FD5181614F00C94A1258AEF91E09F9382
:103620008F938091871090E001969F938F938FE8FE
:1036300092E09F938F931F920E94D4920FB6F894BA
:10364000DEBF0FBECDBF0C94A1258EE40E94402D9D
:10365000882311F40C94A1250E94AA2C60934003A6
:103660007093410380934203909343030C94A125EC
:1036700083E50E94112D882359F083E50E94402D97
:10368000882319F00E94BA2C01C080E08093530D6A
:10369000E7EEFEE184918F010F5F1F4F882321F039
:1036A0000E94072EF801F6CFE4EAF2E084918F0140
:1036B0000F5F1F4F882321F00E94072EF801F6CFDD
:1036C0008091530D8823A1F1E6E9CE2EE2E0DE2EB3
:1036D000E12CF12C20E08091530D90E00E2C02C0E3
:1036E000959587950A94E2F780FF17C0BB24B394A1
:1036F000B20E222319F08CE20E94072EF6012591CA
:103700003491F901849189010F5F1F4F882321F0C3
:103710000E94072E9801F5CF2B2DFFEFEF1AFF0A1D
:1037200032E0C30ED11C45E0E416F104A1F60CC052
:10373000E0EAF2E084918F010F5F1F4F882321F0B0
:103740000E94072EF801F6CF8AE00E94072E0C9403
:10375000A125109225010C94A1258091530D83FF82
:1037600002C00C94A12583E50E94402D882311F40A
:103770000C94A1250E94DE2C0E9411D5633871059E
:1037800014F062E870E070932D1160932C110C948A
:10379000A12589E690E00E94133181110C949629AD
:1037A000E4EBF2E084918F010F5F1F4F882321F03B
:1037B0000E94072EF801F6CF0E94049D8AE00E9425
:1037C000072E0C94962983E50E94402D882311F43E
:1037D0000C94A1250E94BA2C182F8D3308F01CE3FD
:1037E0001093B1070E9429666B017C01212F30E004
:1037F000A8EEB3E00E940CD4C60ED71EE81EF91E38
:10380000C092AD07D092AE07E092AF07F092B0073A
:103810000C94A1258DE690E00E94133181110C9447
:10382000A1258091530D83FF02C00C94A12583E54F
:103830000E94402D2E968FAF2E9781110C94312629
:1038400082E50E94402D81110C9431260C94A12513
:103850008091530D83FF02C00C94A12560E08EED92
:1038600092E00E948F6B83E50E94402D2E968FAFD1
:103870002E9781110C94B62782E50E94402D81116C
:103880000C94B6270C94A12580E50E94402D81114F
:1038900008C083E50E94402D811109C03FEF20E060
:1038A0000AC00E94BA2C81110C94A125F2CF0E946B
:1038B000AA2C362F272F832F922F8F3F910519F097
:1038C00010F08FEF90E090932B1180932A110C94BD
:1038D000A12580E50E94402D811106C010922B1178
:1038E00010922A110C94A1250E94AA2C672B11F08A
:1038F0000C94A125F3CF8CE40E94112D882319F09C
:103900000E94DE2C04C060E070E080E890EC6BAFB9
:103910007CAF8DAF9EAF80E090E0A0EFB1EC8983EB
:103920009A83AB83BC8380E090E0A0E2B1E48D8316
:103930009E83AF83B88780E090E0A0EAB1E48987F6
:103940009A87AB87BC8788E50E94402D882379F051
:1039500088E50E94402D882319F00E94DE2C03C0C8
:1039600060E070E0CB0169837A838B839C8389E577
:103970000E94402D882379F089E50E94402D8823FC
:1039800019F00E94DE2C03C060E070E0CB016D8373
:103990007E838F8398878AE50E94402D882379F063
:1039A0008AE50E94402D882319F00E94DE2C03C076
:1039B00060E070E0CB0169877A878B879C8718A2CB
:1039C00019A21AA21BA28091D80781110C94A125DB
:1039D00020E0AE01405E5F4FBE016F5F7F4FCE01C2
:1039E000CB960E944D630C94A12510928D020C94ED
:1039F000A12581E080938D020C94A12583E50E948E
:103A0000402D8823A1F00E94DE2C20E030E04AE720
:103A100054E40E9451D00E9418D56093190170930C
:103A20001A0180931B0190931C010C94A12588E539
:103A30000E94112D81110C94152989E50E94112DE8
:103A400081110C9415298AE50E94112D81110C9485
:103A5000152985E40E94112D81110C9415290E94CD
:103A6000F0B70E94F0610C94A12583E50E94112D0E
:103A7000882311F40C94A1250E94DE2C20E030E074
:103A80004AE754E40E9451D00E9418D56093B807C9
:103A90007093B9078093BA079093BB070C94A12544
:103AA000D6018D916D010E94112D882309F46DC0FE
:103AB000133009F063C00E94DE2C4B015C0120E052
:103AC00030E040EA51E40E94EBCF87FF4EC0A501F1
:103AD000940160913703709138038091390390917C
:103AE0003A030E949FD42B013C019B01AC016091E1
:103AF000440D7091450D8091460D9091470D0E94A7
:103B000051D06093440D7093450D8093460D909372
:103B1000470DA30192016091BD107091BE1080917C
:103B2000BF109091C0100E9451D06093BD1070934F
:103B3000BE108093BF109093C01060916B11709174
:103B40006C1180916D1190916E110E94F0CFA301C4
:103B500092010E9451D00E9418D560936B1170930E
:103B60006C1180936D1190936E1180923703909237
:103B70003803A0923903B0923A0307C00E94DE2CAA
:103B8000F70160837183828393831F5FF4E0EF0EFC
:103B9000F11C143009F084CF0E9429BF0C94A12598
:103BA0000E94F0B70E9465360C94A12584918F0184
:103BB0000F5F1F4F882321F00E94072EF801F6CFD8
:103BC00060E080EA93E00E94AC3561E089E993E02F
:103BD0000E94AC3561E08EE893E00E94AC3561E074
:103BE0008EE793E00E94AC3560E085E793E00E94A9
:103BF000AC3561E08BE693E00E94AC3560E081E695
:103C000093E00E94AC3560E089E593E00E94AC351A
:103C100060E08BE493E00E94AC3560E08DE393E0DC
:103C20000E94AC3560E08EE293E00E94AC3560E02B
:103C300080E293E00E94AC3560E08AE093E00E946D
:103C4000AC3560E089EF92E00E94AC357AC760E065
:103C500080915611909157110E94B06B72C785E404
:103C60000E94402D882319F00E94CE2C03C085E4C9
:103C70000E94112D882361F0E7EEFEE184918F010F
:103C80000F5F1F4F882321F00E94072EF801F6CF07
:103C900081E40E94402D882319F00E94CE2C03C09D
:103CA00081E40E94112D882361F0E6E7F4E084911D
:103CB0008F010F5F1F4F882321F00E94072EF8010C
:103CC000F6CF0091561110915711D8018D918D01A9
:103CD000882309F439CD0E94072EF7CFEDE9F4E0EF
:103CE00084918F010F5F1F4F882321F00E94072EC0
:103CF000F801F6CFE5E9F4E084918F010F5F1F4FE3
:103D0000882321F00E94072EF801F6CF329B03C0D2
:103D100007EE11E002C00CEE11E0F80181918F0175
:103D2000882319F00E94072EF8CF8AE00E94072E00
:103D3000EDE8F4E084918F010F5F1F4F882321F09D
:103D40000E94072EF801F6CF339B03C007EE11E067
:103D500002C00CEE11E0D8018D918D01882319F07D
:103D60000E94072EF8CF8AE00E94072EE5E8F4E0D3
:103D700084918F010F5F1F4F882321F00E94072E2F
:103D8000F801F6CF349B03C007EE11E002C00CEE41
:103D900011E0F80181918F01882319F00E94072E0C
:103DA000F8CF8AE00E94072EEAE7F4E084918F01C1
:103DB0000F5F1F4F882321F00E94072EF801F6CFD6
:103DC000049903C007EE11E002C00CEE11E0D80127
:103DD0008D918D01882309F4B7CC0E94072EF7CF6F
:103DE00081E08093A00D80939F0DABC61092A00D33
:103DF00010929F0DA6C683E50E94402D882319F0DE
:103E00000E94AA2C02C060E070E08B0111270230F2
:103E10001105CCF0ECEFFBE084918F010F5F1F4F99
:103E2000882321F00E94072EF801F6CFE7EBF4E09B
:103E300084918F010F5F1F4F882309F482C60E946F
:103E4000072EF801F5CF88E40E94402D8823A9F0C1
:103E50000E94AA2C6A3A71053CF06530B1E07B07FC
:103E60002CF064E071E002C06AEA70E0F801EE0F45
:103E7000FF1FE05DF74F7183608386E40E94402D51
:103E80008823A9F00E94AA2CF801EE0FFF1FEC5C1A
:103E9000F74F718360836F3F710519F014F06FEF76
:103EA00070E077FF02C060E070E07183608382E4BD
:103EB0000E94402D882309F444C60E94AA2C653034
:103EC000710534F0643771052CF063E770E002C0CF
:103ED00065E070E0000F111FF801E45DF74F71839A
:103EE00060832FC688EC90E00E941331811129C6AF
:103EF00084E40E94112D8823C1F10E94DE2C11E080
:103F000020E030E0A9010E94EBCF811101C010E058
:103F100010939B10112349F10E94DE2CE091871031
:103F200024E0E29FF0011124E456FF4E6083718388
:103F30008283938320E030E0A90160919C1070910E
:103F40009D1080919E1090919F100E94EBCF811147
:103F50000CC080E090E0A0EEBFE380939C109093B3
:103F60009D10A0939E10B0939F100E945CABE9C57A
:103F7000B1ECEB2EB0E1FB2E03E711E084E0D82E8C
:103F8000D00ED8018D918D010E94112D882349F00A
:103F90000E94DE2C0E9418D5F70160837183828312
:103FA0009383F4E0EF0EF11CD012EBCF0E94FCBD26
:103FB000C8C5F4E0EF0EF11CD01609F4C2C5D80153
:103FC0008D918D010E94112D882399F30E94DE2C82
:103FD000F7016083718382839383EBCF83E50E9433
:103FE000112D8823D9F00E94DE2CAB01BC01409337
:103FF000D9105093DA106093DB107093DC1040936B
:10400000D1105093D2106093D3107093D41083E3E7
:1040100095E00E947D868AE00E94072E80E50E943E
:10402000112D882399F00E94DE2CAB01BC01409336
:10403000D9105093DA106093DB107093DC1086E196
:1040400095E00E947D868AE00E94072E82E50E940C
:10405000112D882399F00E94DE2CAB01BC01409306
:10406000D5105093D6106093D7107093D81087EF67
:1040700094E00E947D868AE00E94072E84E50E94DB
:10408000112D882309F45DC50E94DE2CAB01BC0113
:104090004093D1105093D2106093D3107093D410EA
:1040A00089ED94E00E947D868AE00E94072E49C532
:1040B00083E50E94112D882351F00E94DE2C60932D
:1040C000AD107093AE108093AF109093B01084E554
:1040D0000E94112D882351F00E94DE2C6093A910BC
:1040E0007093AA108093AB109093AC1082E40E945E
:1040F000112D882351F00E949A2C6093A010709388
:10410000A1108093A2109093A31088E50E94112D16
:10411000882351F00E94DE2C6093380D7093390D86
:1041200080933A0D90933B0D89E50E94112D8823D1
:1041300051F00E94DE2C60933C0D70933D0D8093F6
:104140003E0D90933F0D8AE50E94112D882351F07A
:104150000E94DE2C6093400D7093410D8093420DC0
:104160009093430D85E40E94112D882309F4E9C43E
:104170000E94DE2C6093440D7093450D8093460D94
:104180009093470DDEC40F5F1F4FF4E0EF0EF11C5C
:104190000330110511F40C946115D6018D916D0158
:1041A0000E94112D882379F30E94DE2CF701608391
:1041B000718382839383C8010E945E2BE4CFE7EE74
:1041C000FEE184918F010F5F1F4F882321F00E9431
:1041D000072EF801F6CF83E50E94112D882321F0E8
:1041E0000E94CE2C80931201E3E8F5E084918F01C8
:1041F0000F5F1F4F882321F00E94072EF801F6CF92
:1042000080911201811103C0EFE7F5E002C0EBE7F6
:10421000F5E084918F010F5F1F4F882321F00E94EA
:10422000072EF801F6CFE3E7F5E084918F010F5FE9
:104230001F4F882321F00E94072EF801F6CF20910E
:1042400048103091491040914A1050914B106091A4
:104250007E0270917F0280918002909181020E9483
:104260001CD4AB01BC0181E795E00E947D862091C2
:104270004C1030914D1040914E1050914F10609164
:1042800082027091830280918402909185020E9443
:104290001CD4AB01BC018EE695E00E947D86209186
:1042A0005010309151104091521050915310609124
:1042B00086027091870280918802909189020E9403
:1042C0001CD4AB01BC018BE695E00E947D86E3E641
:1042D000F5E084918F010F5F1F4F882321F00E942A
:1042E000072EF801F6CF20914810309149104091E7
:1042F0004A1050914B106091060170910701809116
:104300000801909109010E941CD4AB01BC0181E617
:1043100095E00E947D8620914C1030914D10409187
:104320004E1050914F1060910A0170910B018091D5
:104330000C0190910D010E941CD4AB01BC018EE5D3
:1043400095E00E947D86209150103091511040914F
:1043500052105091531060910E0170910F01809195
:104360001001909111010E941CD4AB01BC018BE59E
:1043700095E00E947D868AE00E94072EE2C383E5D5
:104380000E94402D882309F4DCC30E94AA2C70935C
:104390002D0160932C01D5C38DED90E00E94133167
:1043A0008111CFC383E50E94402D882309F4C9C33E
:1043B0000091871010E00E94AA2C000F111FF80135
:1043C000E65DFE4F718360838091871090E08C01E1
:1043D000000F111F000F111F98012A5D3E4F790138
:1043E000880F991FFC01E65DFE4F60817181072EE9
:1043F000000C880B990B0E94F2CF2AE037ED43E2C4
:104400005CE30E9451D0F801EC5AF24F20813181D7
:10441000428153810E9451D0D7016D937D938D933A
:104420009C9313978EC380E50E94112D882309F475
:1044300088C30E94AA2C6B017C0183E50E94402D59
:10444000882321F00E94AA2C8B0102C00FEF1FEFDE
:10445000C8010196039708F074C3D7FC72C39C2D62
:10446000E3E9F5E088E28E0F2491921709F469C31D
:1044700031968E13F9CF31C78AE50E94402D811104
:10448000F0C683E50E94402D8111EBC65AC385E436
:104490000E94402D811110C080E50E94112D8823BB
:1044A00091F00E94DE2C6093200870932108809385
:1044B00022089093230807C00E94BA2C882361F336
:1044C000ECEFFBE071C089E40E94112D882381F09C
:1044D0000E94DE2C2CEA35EC47E25EE30E9451D0CC
:1044E000609328087093290880932A0890932B08DA
:1044F00084E40E94112D882381F00E94DE2C2CEA96
:1045000035EC47E25EE30E949FD4609324087093E9
:1045100025088093260890932708E7EEFEE1849112
:104520008F010F5F1F4F882321F00E94072EF80193
:10453000F6CF409120085091210860912208709197
:10454000230883EC95E00E947D862CEA35EC47E257
:104550005EE3609128087091290880912A08909163
:104560002B080E949FD4AB01BC018FEB95E00E9409
:1045700060862CEA35EC47E25EE360912408709196
:10458000250880912608909127080E9451D0AB0100
:10459000BC018BEB95E00E9460868AE00E94072EAA
:1045A000D0C20E94072EF80184918F010F5F1F4F28
:1045B0008111F7CF05E012E0F80181918F01882386
:1045C00009F4C2C80E94072EF7CF83E50E94112D7F
:1045D000182F882371F00E94DE2C0E9411D5709351
:1045E00005016093040121E0672B09F020E020938E
:1045F000640580E50E94112D882359F02091040163
:1046000030910501232B11F00E94CE2C809364057C
:1046100098C2111196C2E7EEFEE184918F010F5FFF
:104620001F4F882321F00E94072EF801F6CF8091BA
:104630006405811103C066EF71E002C069EE71E0AC
:104640008CED95E00E94B3866091040170910501A4
:104650008BEC95E00E949A86E7ECF5E084918F015F
:104660000F5F1F4F882309F46CC20E94072EF801C8
:10467000F5CF0E94713165C20E94F0B762C20E94FC
:10468000804A81115EC236E6832E32E1932E2BE101
:1046900033E029963FAF2EAF2997AE014F5F5F4FB2
:1046A0005A010FEB12E11A0153E0500F2A965FAF47
:1046B0002A97F40165917591859194912996AEADF3
:1046C000BFAD2997CD90DD90ED90FD902996BFAFBD
:1046D000AEAF2997A70196010E941BD42B013C0184
:1046E00020E030E040EA51EC0E949FD587FD10C0E9
:1046F00020E030E040EA51E4C301B2010E94EBCF78
:10470000181634F0F10140825182628273820EC029
:10471000F80184911816B4F7F7FAF094F7F8F094CA
:10472000D101CD92DD92ED92FC921397D101CD9003
:10473000DD90ED90FD901D0120E030E040EA51EC6D
:10474000C701B6010E949FD587FF03C0ECEFFBE0D5
:104750000BC020E030E040EA51E4C701B6010E94FE
:10476000EBCF1816FCF4F2CF84918F010F5F1F4F2F
:10477000882321F00E94072EF801F6CFEDE0F6E045
:1047800084918F010F5F1F4F882321F00E94072E15
:10479000F801F6CF61E08FEF95E00E948F6B0E94E9
:1047A0000397CFC1B4E08B0E911C0F5F1F4F2A9669
:1047B000EFAD2A97E0137DCF2CE7E22E25E0F22E15
:1047C00000E010E0F50181919191A191B1915F011B
:1047D000F70181939193A193B1937F01C8010E9446
:1047E0005E2B0F5F1F4F0330110561F70E94653686
:1047F00060E08FEE95E00E948F6BA3C10E94303F76
:10480000A0C10E943D399DC183E50E94112D8823DE
:1048100021F00E94CE2C91E089270E94C1AB91C16A
:1048200080E090E0A0EFB1EC89839A83AB83BC83F6
:1048300080E090E0A0E2B1E48D839E83AF83B887EF
:1048400080E090E0A0EAB1E489879A87AB87BC87D3
:104850000E94804A882319F081E00E94423785E453
:104860000E94112D882319F00E94DE2C04C060E004
:1048700070E080E890EC27966CAF7DAF8EAF9FAF75
:1048800027978AE50E94402D882379F08AE50E94C7
:10489000402D882319F00E94DE2C03C060E070E0F8
:1048A000CB0169877A878B879C8788E50E94402D9A
:1048B000882379F088E50E94402D882319F00E9412
:1048C000DE2C03C060E070E0CB0169837A838B83C8
:1048D0009C8389E50E94402D882379F089E50E9418
:1048E000402D882319F00E94DE2C03C060E070E0A8
:1048F000CB016D837E838F83988785E50E94112D80
:10490000882319F00E94DE2C04C060E070E088E487
:1049100092EC23966CAF7DAF8EAF9FAF23978CE464
:104920000E94112D882319F00E94DE2C04C060E043
:1049300070E084E392E46BAF7CAF8DAF9EAF82E416
:104940000E94402D81110E94AA2C0091A10D10916E
:10495000A20D8091D807811165C021E0AE01415CB4
:104960005F4FBE016F5F7F4FCE018D5B9F4F0E94F7
:104970004D63882309F456C081E08093FA07FF2431
:10498000F3948091FA078823D1F18091610D8823F7
:1049900091F188E090E00E9428558091FA078823E1
:1049A00021F081E00E945162F8CF1092E71010923E
:1049B000E8101092E9101092EA101092610D0E9416
:1049C000F6B40E94F22982E090E00E9428550E94ED
:1049D0002966DC01CB0180549B42AE4FBF4F8093D0
:1049E000E7109093E810A093E910B093EA101092AA
:1049F000610DF092FA0781E00E945162C2CF80E01F
:104A000090E0A8E4B2E488A399A3AAA3BBA38091F1
:104A1000D807882339F0BE01605E7F4FCE01CB9668
:104A20000E941D640130110509F08BC00E941E4BCD
:104A300088C084918F010F5F1F4F882321F00E944F
:104A4000072EF801F6CFEBE2F6E084918F010F5FBD
:104A50001F4F882309F475C00E94072EF801F5CF77
:104A600081E0809370011092630D83E50E94402DD8
:104A7000882319F00E94CE2C03C083E50E94112DDB
:104A800081115FC00E9428655CC0F0905811FF2022
:104A900029F1E7EEFEE184918F010F5F1F4F88231C
:104AA00021F00E94072EF801F6CF84E50E94072E20
:104AB0006F2D70E080E090E04AE00E94AB3080E231
:104AC0000E94072E05E012E0D8018D918D01882308
:104AD00011F40C94A41B0E94072EF6CF10925F05D0
:104AE000E7EEFEE184918F010F5F1F4F882321F0D5
:104AF0000E94072EF801F6CF60915F0570E08AE30F
:104B000096E00E949A868AE00E94072E1AC0E7EE7D
:104B1000FEE184918F010F5F1F4F882321F00E94D7
:104B2000072EF801F6CF6091B2077091B3078CE4BD
:104B300096E00E94B38682E20E94072E8AE00E94DD
:104B4000072E0E940965F2C30E94AA2CAB01BC018A
:104B500040932D1050932E1060932F1070933010AF
:104B60008CE79FE00E94F470ECCF61E08C2D0E94F6
:104B7000B3656D2D8C2D0E94275E0D2D10E061E038
:104B80008C2D0E94B3650115110509F45AC00F3F21
:104B9000110509F458C0F701FF27E655F04FE491DD
:104BA0004E2F50E0FA013197EA30F10508F046C087
:104BB000EA5BFF4F0C946BD684B5806884BDD7BC8C
:104BC00046C084B5806284BDD8BC41C0809180005D
:104BD000806880938000109389000093880037C01C
:104BE0008091800080628093800010938B000093FE
:104BF0008A002DC08091B00080688093B000D09270
:104C0000B30025C08091B00080628093B000D09244
:104C1000B4001DC080919000806880939000109334
:104C200099000093980013C0809190008062809357
:104C3000900010939B0000939A0009C00038110562
:104C400014F460E001C061E08C2D0E94275EE4E076
:104C5000EE16F10409F075CF10932B1100932A1171
:104C600070CF0E94DE2C0E9411D5709329116093A1
:104C7000281180E00E94F6B46091281170912911EA
:104C8000072E000C880B990B0E94F2CF2091600533
:104C90003091610540916205509163050E949FD556
:104CA0001816B4F48AEF91E09F938F938091871048
:104CB00090E001969F938F9389EC92E09F938F935E
:104CC0001F920E94D4920FB6F894DEBF0FBECDBFE4
:104CD00081E0809325012D961CAE1DAE1EAE1FAE49
:104CE0002D9762961CAE1DAE1EAE1FAE6297289623
:104CF0001FAE289763961FAE63979CE364969FAFA1
:104D00006497ACE16596AFAF6597B6E46696BFAFC2
:104D10006697C12CD12C60E8E62E7FEBF72E812C14
:104D2000912C54016091281170912911072E000CCB
:104D3000880B990B0E94F2CF162F072F782E692E21
:104D4000262F372F482F592FB601C7010E94EBCFCE
:104D5000882331F120916005309161054091620511
:104D600050916305612F702F872D962D0E94EBCFF8
:104D7000881F8827881F28968FAF28972E96EFAD1B
:104D80002E97EE2389F0882379F0809125018823DE
:104D900009F4D7CE60E087EB92E00E948F6BD1CE12
:104DA0001C2D0D2D7E2C6F2C0E9429666B017C0121
:104DB000DC01CB0162962CAD3DAD4EAD5FAD62978F
:104DC000821B930BA40BB50BB7FD3DC0D701C601E9
:104DD00088519C4FAF4FBF4F62968CAF9DAFAEAF27
:104DE000BFAF62970E94049DE5ECF2E084912F0131
:104DF0009FEF491A590A882321F00E94072EF201D9
:104E0000F5CF81149104A104B104B9F0D501C40116
:104E1000805F984DAF4FBF4FBC01CD016C197D092C
:104E20008E099F0928EE33E040E050E00E94DFD376
:104E3000CA01B9010E94553103C08FE30E94072EB9
:104E40008AE00E94072E80E00E9451620E94FC2DA1
:104E50002090600530906105409062055090630598
:104E60009101A201612F702F872D962D0E941BD4D6
:104E70009F7781149104A104B10449F420E030E04B
:104E800040E85FE30E94EBCF87FF0BC008C020E043
:104E900030E040E450E40E949FD5181614F4460117
:104EA00057012896AFAD2897AA2309F443C02D9641
:104EB0002CAD3DAD4EAD5FAD2D97211531054105B2
:104EC000510541F0D701C601821B930BA40BB50B12
:104ED000B7FD30C09101A20163966FAD63976496F0
:104EE0007FAD649765968FAD659766969FAD669723
:104EF0000E941BD420E030E040EC5FE30E94EBCF47
:104F000087FD43CFD701C601805A9541AF4FBF4FB0
:104F10002D968CAF9DAFAEAFBFAF2D9763962FAEE2
:104F2000639764963FAE649765964FAE65976696B5
:104F30005FAE669780912501882309F426CF8114FE
:104F40009104A104B10429F4C12ED02EE72CF62C33
:104F5000E9CE90E1C91A97E2D90AE108F108C81828
:104F6000D908EA08FB08F7FE10CFEECF0E94DE2C2E
:104F70000E9411D56338710514F062E870E07093F7
:104F80002D1160932C1181E08093250180915F05A4
:104F9000809387102D961CAE1DAE1EAE1FAE2D97B2
:104FA00062961CAE1DAE1EAE1FAE629728961FAE57
:104FB000289763961FAE6397BCE36496BFAF649770
:104FC000ECE16596EFAF6597F6E46696FFAF6697FE
:104FD000C12CD12C80E8E82E9FEBF92E812C912C4E
:104FE000540160912C1170912D11072E000C880B2B
:104FF000990B0E94F2CF162F072F782E692E262F9D
:10500000372F482F592FB601C7010E94EBCF8823B5
:1050100031F120914410309145104091461050914B
:105020004710612F702F872D962D0E94EBCF881F80
:105030008827881F28968FAF28972E96AFAD2E977A
:10504000AA2389F0882379F080912501882309F427
:1050500078CD60E080ED92E00E948F6B72CD1C2DC8
:105060000D2D7E2C6F2C0E9429666B017C01DC01CA
:10507000CB0162962CAD3DAD4EAD5FAD6297821B0C
:10508000930BA40BB50BB7FD3DC0D701C6018851EA
:105090009C4FAF4FBF4F62968CAF9DAFAEAFBFAFCF
:1050A00062970E94049DEAEDF2E084912F019FEF48
:1050B000491A590A882321F00E94072EF201F5CFE0
:1050C00081149104A104B104B9F0D501C401805F39
:1050D000984DAF4FBF4FBC01CD016C197D098E09B2
:1050E0009F0928EE33E040E050E00E94DFD3CA0180
:1050F000B9010E94553103C08FE30E94072E8AE058
:105100000E94072E80E00E9451620E94FC2D209098
:105110004410309045104090461050904710910137
:10512000A201612F702F872D962D0E941BD49F778F
:1051300081149104A104B10449F420E030E040E876
:105140005FE30E94EBCF87FF0BC008C020E030E098
:1051500040E450E40E949FD5181614F4460157010C
:105160002896AFAD2897AA2309F443C02D962CADFD
:105170003DAD4EAD5FAD2D97211531054105510572
:1051800041F0D701C601821B930BA40BB50BB7FDF1
:1051900030C09101A20163966FAD639764967FADB5
:1051A000649765968FAD659766969FAD66970E94EA
:1051B0001BD420E030E040EC5FE30E94EBCF87FDA2
:1051C00043CFD701C601805A9541AF4FBF4F2D96AF
:1051D0008CAF9DAFAEAFBFAF2D9763962FAE6397E9
:1051E00064963FAE649765964FAE659766965FAEE0
:1051F000669780912501882309F426CF81149104B4
:10520000A104B10429F4C12ED02EE72CF62CE9CE4E
:1052100090E1C91A97E2D90AE108F108C818D9083B
:10522000EA08FB08F7FE10CFEECF0E94F0B788E542
:105230000E94112D882319F05E9A1092770589E556
:105240000E94112D882319F05E9A109278058AE544
:105250000E94112D882309F474CC159A10927905B7
:1052600070CC0E94DE2C20E030E040E050EC0E9448
:10527000EBCF87FD12C00E94DE2C20E030E040E042
:1052800050E40E949FD518161CF00E94DE2C09C025
:1052900060E070E080E090E404C060E070E080E0F6
:1052A00090EC2091330330913403409135035091B9
:1052B0003603E0917905EE2309F443CC0091510DBA
:1052C0001091520D0E9451D00E9411D5600F711F94
:1052D0007093520D6093510D34CC0E94F0B7BC2CEA
:1052E00060E08C2D0E94B3650F3FBFEF1B0759F4A0
:1052F0008C2D0E94FE5D31E020E0892B09F030E02A
:10530000032F122F05C00130110569F000E010E0F5
:105310008B2D0E94FE5D8017910709F412CC80E06E
:105320000E945162F5CF01E010E0F2CFCB5ADF4F7F
:105330000FB6F894DEBF0FBECDBFDF91CF911F91A6
:105340000F91FF90EF90DF90CF90BF90AF909F9024
:105350008F907F906F905F904F903F902F90089527
:1053600090914C0DE92FF0E0E857FA4F80839F5F52
:10537000943018F490934C0D02C010924C0D809113
:105380002A078F5F80932A0708958FB7F89490912A
:10539000AC072091AB07291759F0E92FF0E0E55D44
:1053A000F84F208130E09F5F9F779093AC0702C059
:1053B0002FEF3FEF8FBFC9010895EF920F931F9317
:1053C000E0905F0500E011E027E233E043E253E0C4
:1053D0006FE173E08BE193E00E9455BF1F910F9145
:1053E000EF900895CF92DF92EF92FF92CF9381E0FA
:1053F00080932501C1E080912501882309F444C0F0
:10540000CC2309F441C080E00E94516260912811D0
:1054100070912911C0E06115710569F3072E000C28
:10542000880B990B0E94F2CF9B01AC016091600543
:105430007091610580916205909163050E941BD473
:105440006B017C0120E030E0A9010E949FD5181675
:105450005CF020E030E040E450ECC701B6010E946F
:10546000EBCF87FFC8CF0BC020E030E040E450E432
:10547000C701B6010E949FD518160CF0BCCF89E079
:1054800090E00E942855B6CFCF91FF90EF90DF902B
:10549000CF9008952F923F924F925F926F927F929A
:1054A0008F929F92AF92BF92CF92DF92EF92FF9234
:1054B0000F931F93CF93DF9300D000D0CDB7DEB70B
:1054C0001C017A8369835C834B838901809000018E
:1054D00090900101A0900201B0900301F901C080F9
:1054E000D180E280F38020E030E0A901C701B6015D
:1054F0000E94EBCF811106C0EAE7F2E1C590D5909A
:10550000E590F490EB81FC812081318142815381CF
:1055100060912303709124038091250390912603C9
:105520000E94EBCF87FF18C0C0920001D09201010A
:10553000E0920201F0920301EB81FC818081918174
:10554000A281B3818093230390932403A093250326
:10555000B09326030E94DD29F801408051806280CB
:10556000738020E030E0A901C301B2010E94EBCFBB
:10557000811106C0412C512C88EC682E82E4782ED3
:105580004092000150920101609202017092030169
:10559000F10180819181A281B38180931B0390935B
:1055A0001C03A0931D03B0931E03E981FA8180813F
:1055B0009181A281B38180931F0390932003A093D4
:1055C0002103B09322030E94DD29EB81FC8120811D
:1055D0003181428153816091230370912403809132
:1055E0002503909126030E949FD51816C4F4C092FB
:1055F0000001D0920101E0920201F0920301EB81DF
:10560000FC8180819181A281B38180932303909357
:105610002403A0932503B09326030E94DD290E9452
:10562000F0B78092000190920101A0920201B09225
:1056300003010F900F900F900F90DF91CF911F916A
:105640000F91FF90EF90DF90CF90BF90AF909F9021
:105650008F907F906F905F904F903F902F90089524
:105660009B01AC016FE173E08BE193E00C944A2A5B
:10567000EF920F931F93CF93DF9300D000D0CDB75D
:10568000DEB769837A838B839C83E0905F058E010C
:105690000F5F1F4F24ED37E040ED57E06CEC77E0F3
:1056A00088EC97E00E9455BF0F900F900F900F90DD
:1056B000DF91CF911F910F91EF9008950F931F935A
:1056C000CF93DF93EC01CC0FDD1FCC0FDD1F8E01DC
:1056D000085B1F4EFE01E458FA4FDE01A454B84F98
:1056E0002D913D914D915C91608171818281938179
:1056F0000E941CD4F8016083718382839383FE012E
:10570000EC55F84F85919591A591B491FE01E25821
:10571000FD4F80839183A283B383FE01E055F84F50
:1057200085919591A591B491CA5FDE4F8883998345
:10573000AA83BB83DF91CF911F910F910895CF93DF
:10574000FC0180818B33A9F080912A07843088F492
:10575000C62FBF0180914C0D20E6829FC00111240D
:1057600087559A4F0E94D1D68C2F0E94B02981E094
:1057700001C080E0CF910895DF92EF92FF920F93E6
:105780001F93CF93DF93CDB7DEB76E970FB6F89424
:10579000DEBF0FBECDBF60914F0570915005611502
:1057A000710509F14DE150E0CE0101967C010E94A6
:1057B00059CF1E8EF7018F010E191F09D190DD20E0
:1057C00019F09AE0D912F7CFF701E00FF11F10821C
:1057D00060E0C7010E949F2B882329F0C7010E9427
:1057E000A761811109C081E020914F0530915005DA
:1057F000232BA1F480E012C0DD2049F00F5F1F4F82
:1058000080914F0590915005080F191F02C000E0CC
:1058100010E01093500500934F05E5CF6E960FB63C
:10582000F894DEBF0FBECDBFDF91CF911F910F91D6
:10583000FF90EF90DF90089527E233E043E253E0DA
:105840006FE173E08BE193E00C9466BE8F929F92C0
:10585000BF92CF92DF92EF92FF920F931F93CF935D
:10586000DF93CDB7DEB728970FB6F894DEBF0FBE33
:10587000CDBFB02EC12ED22EF32E8C01000F111FE2
:10588000000F111FC801855E9C4F4C01FC01108266
:105890001182128213824D835E836F8378870E9408
:1058A0001C2C4D815E816F817885F401408351838A
:1058B00062837383E0905F0520E030E0A9016B2DE7
:1058C0007C2D8D2D9F2D0E94EBCF811108C0F801FA
:1058D000EE58FD4E85919591A591B49104C08B2D04
:1058E0009C2DAD2DBF2D89839A83AB83BC838E0104
:1058F0000F5F1F4F27E233E043E253E06FE173E0B5
:105900008BE193E00E9455BF0E94F0B71092A8056A
:1059100028960FB6F894DEBF0FBECDBFDF91CF91B2
:105920001F910F91FF90EF90DF90CF90BF909F90CD
:105930008F90089580918F0290919002009731F09E
:105940004AE050E060E070E00C9400CE60E070E06F
:10595000CB01089580918F0290919002009731F0D1
:105960004AE050E060E070E00C94D5CC60E070E07C
:10597000CB0108950E94AA2C97FD0CC00E94AA2C6E
:105980006F3F71058105910509F034F40E94AA2C3E
:10599000862F089580E008958FEF089580918F02FB
:1059A00090919002892B39F00E94BA2C91E08111DC
:1059B00003C090E001C091E0892F08950F931F93D9
:1059C000CF9380918F02909190020097F1F0FC01AB
:1059D0008F01C1912C2F2F7D89F0C53411F0C53670
:1059E000B9F7F801108260E070E00E9466CBF80120
:1059F000C083562F472F382F292F0BC060E070E04F
:105A0000CF911F910F910C9466CB50E040E030E0B5
:105A100020E0652F742F832F922FCF911F910F912C
:105A2000089581548A3150F5482F50E0FA0193E0EF
:105A3000F595E7959A95E1F7EE5AFE4E208130E014
:105A40008770B90102C0759567958A95E2F760FF86
:105A500015C0FA01E85CFE4E2081222339F08091C6
:105A6000B2079091B307820F911D02C080E090E0D1
:105A70009093900280938F0281E0089580E00895D2
:105A80000E94112D882341F081E020918F023091F6
:105A90009002232B09F480E00895FC012381211159
:105AA0000C945177089520919D0D90919E0D81E069
:105AB000291301C080E0089588E893E19093E610EF
:105AC0008093E51080916F008D7F80936F000E941E
:105AD000532D882359F00E94532D8823C1F38091C0
