:100000000C94801C0C94B11C0C94B11C0C94B11C6D
:100010000C94B11C0C94B11C0C94B11C0C94B11C2C
:100020000C94B11C0C94B11C0C94B11C0C94B11C1C
:100030000C94B11C0D94DC010C94B11C0C94B11CFB
:100040000C94B11C0C9446250C94B11C0C94B11C5E
:100050000C94B11C0C94B11C0C94B1480D94B405D3
:100060000C94B11C0C94E5D90C94B11C0C94B11CEB
:100070000C94B11C0C94B11C0C94B11C0C94B11CCC
:100080000C94B11C0C94B11C0C94B11C0C94B11CBC
:100090000C94B11C0C94B11C0C94B11C0C94B11CAC
:1000A0000C94B11C0C94B11C0C94B11C0C94B11C9C
:1000B0000C94B11C0C94B11C0C94B11C0C94B11C8C
:1000C0000C94B11C0C94B11C0C94B11C0C94B11C7C
:1000D0000C94B11C0C94B11C0C94B11C0C94B11C6C
:1000E0000C94B11C084AD73B3BCE016E84BCBFFDCB
:1000F000C12F3D6C74319ABD56833DDA3D00C77FF8
:1001000011BED9E4BB4C3E916BAAAABE0000008090
:100110003F05A84CCDB2D44EB93836A9020C50B91F
:10012000918688083CA6AAAA2ABE000000803F004B
:100130000D9453030D9426030D945B1A0D94EE0257
:100140000D9414030D9402030D943D1A0D940C03A9
:100150000D94E9020D9471030D94F8020D947B0344
:100160000D941C030D9430030D943A030D94E10299
:100170000D945D030D9449030D9467034E414E4960
:100180004E495459494E46CDCCCC3D0AD7233C1755
:10019000B7D13877CC2B329595E6241FB14F0A00A2
:1001A0000020410000C84200401C4620BCBE4CCA92
:1001B0001B0E5AAEC59D7430012C01400127015021
:1001C00001220170011D0190011801B0011301C04D
:1001D000010E01F0010901100204013002FF00606C
:1001E00002FA009002F500C002F0000003EB0040AC
:1001F00003E6008003E100D003DC002004D700E028
:1002000004D200C005CD004006C800D006C300805F
:1002100007BE00F008B9004009B400C009AF00B043
:100220000AAA00B00BA500D00CA000000E9B00C0D5
:100230001096005012910000148C00C0158700B079
:10024000178200B0197D00D01B7800001E7300409B
:10025000206E0090226900F024640040275F009027
:10026000295A00E02B5500102E500020304B001072
:10027000324600E033410090353C001037370070C3
:10028000383200A0392D00B03A2800A03B2300608E
:100290003C1E00103D1900903D1400103E0F0070F0
:1002A0003E0A00C03E0500003F0000403FFBFF80CB
:1002B0003FF6FFC03FF1FF526573656E643A200060
:1002C0006F6B0020746F6F206C6F6E6720657874A1
:1002D000727573696F6E2070726576656E74656491
:1002E0000A004D3630300043617463682066696CE3
:1002F000616D656E742072756E206F7574210A00D1
:100300004B494C4C45442E20004B494C4C206361DA
:1003100075736564206279204B494C4C206275747A
:10032000746F6E2F70696E0A004B494C4C45442E19
:1003300020004B494C4C20636175736564206279E1
:1003400020746F6F206D75636820696E61637469D6
:1003500076652074696D65202D2063757272656EF7
:100360007420636F6D6D616E643A200046696C6144
:100370006D656E7420696E202D330046696C616D69
:10038000656E7420696E202D2033210A004E6F7433
:100390002043617463682046696C616D656E7420EA
:1003A0002D2033004E6F74204361746368204669CA
:1003B0006C616D656E74202D20330A0046696C6196
:1003C0006D656E7420696E202D320046696C616D1A
:1003D000656E7420696E202D2032210A004E6F74E4
:1003E0002043617463682046696C616D656E74209A
:1003F0002D2032004E6F742043617463682046697B
:100400006C616D656E74202D20320A0046696C6146
:100410006D656E7420696E0046696C616D656E7401
:1004200020696E210A004E6F742043617463682056
:1004300046696C616D656E740A004E6F742043618D
:100440007463682046696C616D656E740046696C02
:10045000616D656E742052756E206F7574202D204D
:10046000330046696C616D656E742052756E206F45
:100470007574202D20320046696C616D656E7420A4
:1004800052756E206F757400506C656173652072D3
:1004900065736574005052494E5445522048414C92
:1004A000544544005072696E7465722068616C74C2
:1004B00065642E206B696C6C28292063616C6C6507
:1004C00064210A00000020C200000000000000C1FA
:1004D00000004842000048420000004000000000C8
:1004E0005761726E696E673A20486F6D696E67205A
:1004F00042756D702044697669736F72203C2031BB
:100500000A000202040000A0400000A04000000019
:10051000400000B44300009B430000CC43FFFFFFBA
:100520007C3C3E5E2B3D3F2F5B5D3B2C2A225C00DA
:100530004572726F722077726974696E6720746F8A
:1005400020454550524F4D210A00290A002062796A
:100550007465733B20637263200053657474696E25
:1005600067732053746F72656420280020286361CC
:100570006C63756C6174656429210A0020213D203B
:1005800000454550524F4D20435243206D69736DD5
:1005900061746368202D202873746F72656429204C
:1005A00000290A002062797465733B20637263201E
:1005B000002073746F7265642073657474696E676C
:1005C0007320726574726965766564202800204D19
:1005D00061726C696E3D563533290A0028454550D5
:1005E000524F4D3D00454550524F4D207665727338
:1005F000696F6E206D69736D617463682000486176
:100600007264636F6465642044656661756C742010
:1006100053657474696E6773204C6F616465640A16
:1006200000900100009001000064000000881300A9
:1006300000000016430000C84200000041000048CE
:10064000420000A0420000A0420000C8430000A0F9
:1006500042205A0020590020204D323131205800CC
:100660004D696E20506F732041646A3A0A00202061
:100670004D383531205A005A2D50726F6265204F27
:10068000666673657420286D6D293A0A0020204D36
:100690003230392053004175746F2D526574726188
:1006A00063743A20533D3020746F20646973616233
:1006B0006C652C203120746F20696E7465727072C5
:1006C000657420452D6F6E6C79206D6F7665732093
:1006D000617320726574726163742F7265636F76E3
:1006E00065720A0020460020570020204D32303825
:1006F0002053005265636F7665723A20533C6C65F7
:100700006E6774683E20463C756E6974732F6D3E4B
:100710000A00205A0020460020570020204D323089
:1007200037205300526574726163743A20533C6CF5
:10073000656E6774683E20463C756E6974732F6DF4
:100740003E205A3C6C6966743E0A002044002049F1
:100750000020204D33303120500050494420736533
:100760007474696E67733A0A0020460020420020C4
:10077000480020204D3134352053004D617465729E
:1007800069616C2068656174757020706172616D5B
:1007900065746572733A0A00205A0020204D36367F
:1007A0003600456E6473746F702061646A7573748B
:1007B0006D656E743A0A0020204D343230205300AB
:1007C0004175746F20426564204C6576656C696E76
:1007D000673A0A00204500205A002059002058009E
:1007E00020420020540020204D323035205300415B
:1007F0006476616E6365643A20533C6D696E5F6632
:10080000656564726174653E20543C6D696E5F7409
:10081000726176656C5F66656564726174653E20C1
:10082000423C6D696E5F7365676D656E745F746978
:100830006D655F75733E20583C6D61785F78795FB8
:100840006A65726B3E205A3C6D61785F7A5F6A65BB
:10085000726B3E20453C6D61785F655F6A65726BC7
:100860003E0A0020540020520020204D3230342017
:100870005000416363656C65726174696F6E202816
:10088000756E6974732F7332293A20503C70726907
:100890006E745F616363656C3E20523C7265747276
:1008A0006163745F616363656C3E20543C74726184
:1008B00076656C5F616363656C3E0A0020450020CD
:1008C0005A0020590020204D3230312058004D610F
:1008D00078696D756D20416363656C6572617469DB
:1008E0006F6E2028756E6974732F7332293A0A006F
:1008F000204500205A0020590020204D323033205E
:1009000058004D6178696D756D206665656472612A
:100910007465732028756E6974732F73293A0A0001
:10092000204500205A0020590020204D39322058FF
:100930000053746570732070657220756E69743A27
:100940000A0020204D3230302044300A0020204D53
:100950003230302044002044697361626C65640A5F
:100960000046696C616D656E742073657474696EA0
:1009700067733A0020204D3134392043203B205505
:100980006E69747320696E2043656C736975730AB0
:10099000002020473231202020203B20556E6974F2
:1009A0007320696E206D6D0A0066696C616D656EFD
:1009B000743A20007A5F70726F62653A20007A3272
:1009C0005F6D696E3A20007A5F6D696E3A2000793A
:1009D0005F6D696E3A2000785F6D696E3A20005253
:1009E00065706F7274696E6720656E6473746F7082
:1009F000207374617475730A0020746F6F206C6FBC
:100A00006E6720657874727573696F6E2070726599
:100A100076656E7465640A0024F4D43050C38E2069
:100A2000C2A24017828B7011127A910D816CD90A83
:100A3000A861E108C7586607615143061E4B5D0572
:100A4000C145A7041A411104093D980371393103C6
:100A50004036DB0265339102D4305402802E1D02F1
:100A6000632CEE01752AC501B028A0011027810171
:100A70008F2564012B244B01E0223401AC211F019E
:100A80008D200D01801FFC00841EED00971DDF00EE
:100A9000B81CD200E61BC600201BBC00641AB200C2
:100AA000B219A8000A19A0006A189900D11791007C
:100AB00040178B00B516840031167E00B3157900FF
:100AC0003A157300C7146F0058146A00EE136600DD
:100AD0008813630025135E00C7125B006C12570079
:100AE00015125400C111510070114F0021114B001B
:100AF000D61049008D1047004610440002104200F5
:100B0000C00F4000800F3E00420F3C00060F3B002C
:100B1000CB0E3800930E37005C0E3500270E3400E4
:100B2000F30D3200C10D3100900D3000600D2E002C
:100B3000320D2D00050D2C00D90C2B00AE0C290018
:100B4000850C29005C0C2700350C27000E0C2600B4
:100B5000E80B2400C40B2400A00B23007D0B230012
:100B60005A0B2100390B2100180B2000F80A1F0036
:100B7000D90A1E00BB0A1E009D0A1D00800A1D0026
:100B8000630A1C00470A1B002C0A1B00110A1A00EA
:100B9000F7091A00DD091900C4091900AB09190089
:100BA000920917007B091800630917004C09160009
:100BB00036091600200916000A091500F508150067
:100BC000E0081400CC081400B8081400A4081400AD
:100BD000900813007D0812006B08130058081200DB
:100BE00046081200340811002308110012081100F1
:100BF00001081100F0071000E0071000D0071000F6
:100C0000C0071000B0070F00A107100091070E00E9
:100C100083070F0074070F0065070E0057070E00CB
:100C200049070E003B070D002E070E0020070D00A0
:100C300013070D0006070D00F9060C00ED060D0068
:100C4000E0060C00D4060C00C8060C00BC060C0024
:100C5000B0060C00A4060B0099060C008D060B00D4
:100C600082060B0077060B006C060B0061060A007B
:100C700057060B004C060A0042060A0038060A0016
:100C80002E060A0024060A001A060A0010060900A9
:100C900007060A00FD050900F4050900EB05090037
:100CA000E2050900D9050900D0050900C7050900BA
:100CB000BE050900B5050800AD050800A505090039
:100CC0009C050800940508008C05080084050800B0
:100CD0007C050800740508006C0507006505080020
:100CE0005D050700560508004E050700470507008B
:100CF0004005080038050700310507002A050700F0
:100D0000230507001C050600160507000F05070050
:100D10000805060002050700FB040600F5040700AD
:100D2000EE040600E8040600E2040700DB04060007
:100D3000D5040600CF040600C9040600C30406005B
:100D4000BD040600B7040600B1040500AC040600AB
:100D5000A6040600A00405009B04060095040500F7
:100D6000900406008A04050085040500800406003E
:100D70007A04050075040500700405006B04050085
:100D800066040500610405005C04050057040500C5
:100D9000520405004D040500480405004304050005
:100DA0003E0404003A040500350405003004040044
:100DB0002C04050027040400230405001E0404007D
:100DC0001A04040016040500110404000D040400B4
:100DD000090405000404040000040400FC030400EA
:100DE000F8030400F4030400F0030400EC0304001F
:100DF000E8030400E4030400E0030400DC0304004F
:100E0000D8030400D4030400D0030400CC0304007E
:100E1000C8030300C503030024F404D9201BC40C39
:100E20005C0E9804C4095F0265077101F405F900BE
:100E3000FB04B30048048700C10369005803550050
:100E400003034500BE023A008402310053022A0027
:100E50002902250004022000E4011C00C801190039
:100E6000AF011700980114008401130071011000F4
:100E70006101100051010E0043010D0036010B000D
:100E80002B010B0020010B00150109000C010900CA
:100E900003010800FB000800F3000800EB00070056
:100EA000E4000600DE000600D8000600D2000600BE
:100EB000CC000500C7000500C2000500BD0004000D
:100EC000B9000400B5000400B1000400AD00040046
:100ED000A9000400A5000300A20003009F00040075
:100EE0009B0003009800030095000200930003009C
:100EF000900003008D0002008B00030088000200B8
:100F00008600020084000300810002007F000200CE
:100F10007D0002007B0002007900020077000100E2
:100F200076000200740002007200010071000200ED
:100F30006F0002006D0001006C0002006A000100F9
:100F40006900020067000100660001006500010001
:100F50006400020062000100610001006000010005
:100F60005F0002005D0001005C0001005B00010009
:100F70005A0001005900010058000100570001000B
:100F8000560001005500010054000100530000000C
:100F90005300010052000100510001005000010007
:100FA0004F0001004E0000004E0001004D00010006
:100FB0004C0001004B0000004B0001004A00010002
:100FC00049000100480000004800010047000100FE
:100FD00046000000460001004500000045000100F9
:100FE00044000100430000004300010042000000F3
:100FF00042000100410000004100010040000100EA
:101000003F0000003F0001003E0000003E000100E4
:101010003D0000003D0001003C0000003C000000DD
:101020003C0001003B0000003B0001003A000000D2
:101030003A000100390000003900010038000000CA
:1010400038000000380001003700000037000100C0
:1010500036000000360000003600010035000000B8
:1010600035000000350001003400000034000000AD
:1010700034000100330000003300000033000100A1
:101080003200000032000000320001003100000098
:10109000310000003100010030000000300000008D
:1010A000300001002F0000002F0000002F00000082
:1010B0002F0001002E0000002E0000002E00010075
:1010C0002D0000002D0000002D0000002D0001006B
:1010D0002C0000002C0000002C0000002C0001005F
:1010E0002B0000002B0000002B0000002B00010053
:1010F0002A0000002A0000002A0000002A00010047
:10110000290000002900000029000000290000003B
:10111000290001002800000028000000280000002D
:101120002800000028000100270000002700000020
:101130002700000027000000270001002600000013
:101140002600000026000000260000002600010006
:1011500025000000250000002500000025000000FB
:1011600025000000250001002400000024000000EC
:1011700024000000240000002400010023000000DF
:1011800023000000230000002300000023000000D3
:1011900023000000230001002200000022000000C4
:1011A00022000000220000002200000022000100B6
:1011B00021000000210000002100000021000000AB
:1011C000210000002100000021000100200000009B
:1011D000200000002000000020000000200000008F
:1011E0002000000020000000200001001F0000007F
:1011F0001F0000001F0000001F0000001F00000073
:101200001F0000001F0001001E0000001E00000063
:101210001E0000001E0000004D38342058205920C8
:101220005A2045000606060606000000000062651A
:10123000640A002C2073797374656D2073746F7069
:1012400070656421204865617465725F49443A2085
:1012500000544845524D414C2052554E415741593A
:1012600000546865726D616C2052756E61776179AA
:101270000048656174696E67206661696C65640029
:1012800048656174696E67206661696C6564001009
:1012900000AA038000400100012C01B0012201409E
:1012A000021001F00202018003F8004004F500E0A2
:1012B00004ED009005E4003006DD00E006D7008074
:1012C00007D1003008CC00D008C7007009C3001057
:1012D0000ABE00B00ABB00500BB700900CB300D0A0
:1012E0000DAA00B00FA5005010A000101496009099
:1012F00016900010198C00501A8500301C82007066
:10130000227800B023750040256E0020276900A0D8
:10131000296400502A5F00902B5A00D02C55007091
:101320002D4F00E02E48005031450030334100D0B1
:101330003539006036370010373300F0382D00A003
:10134000392700803C1C00403D1700F03D11008013
:101350003E0900D03FE5FF4572723A204D494E5498
:10136000454D5020424544004572723A204D494E49
:1013700054454D50004D494E54454D5020747269AE
:10138000676765726564004572723A204D41585432
:10139000454D5020424544004572723A204D415817
:1013A00054454D50004D415854454D50207472697C
:1013B00067676572656400202F002042403A002074
:1013C000403A0025753A2530327500253032753A9D
:1013D000253032750025756420253032753A253068
:1013E0003275005A00590058004D616E75616C00ED
:1013F00052616E646F6D004C696E65617200092008
:10140000000000000000000000000000007FFFE07E
:101410000000000000000000000000007000E0007C
:10142000000000000000000000000061F860000003
:101430000000000000000000000041F82000000053
:1014400000000000000000000040F020000000004C
:1014500000000000000000004060200000000000CC
:10146000000000000000005801A0FFC003B8077092
:101470000EE0004081005C63A07F8003B807700E1F
:10148000E0002040805EF7A07F8001B0036006C0CE
:10149000002040805EF7A07F8001B0036006C0009E
:1014A0004081005C63A07F8007BFFF7FFEF000816A
:1014B00002005801A03F000780000000F001020474
:1014C00000406020FFC007FFFC1FFFF00102040086
:1014D00040F020FFC007FFFE3FFFF0008102004107
:1014E000F820FFC000000F7800000040810061F884
:1014F000603F00000007700000000000007000E086
:101500001E0000000360000001FFFF807FFFE00C71
:101510000000000140000001FFFF8000000000000B
:10152000000000000000000000007FFFE00000005D
:101530000000000000000000007000E0000000005B
:101540000000000000000000630C600000000000CC
:1015500000000000000000470E2000000000000016
:101560000000000000004F0F2000000000000000FD
:1015700000000000005F0FA000000000000000005D
:10158000000000005E07A0FFC003B807700EE00077
:101590004081004060207F8003B807700EE000208B
:1015A000408040F0207F8001B0036006C0002040F2
:1015B0008040F0207F8001B0036006C000408100C1
:1015C0004060207F8007BFFF7FFEF0008102005E49
:1015D00007A03F000780000000F0010204005F0F39
:1015E000A0FFC007FFFC1FFFF0010204004F0F2007
:1015F000FFC007FFFE3FFFF000810200470E20FF03
:10160000C000000F78000000408100630C603F00C4
:10161000000007700000000000007000E01E0000E5
:10162000000360000001FFFF807FFFE00C0000006E
:101630000140000001FFFF800000005072696E74DD
:1016400020706175736564004D31323500004D3294
:1016500034005072696E742061626F727465640048
:10166000506F77657220446F776E004D3831004EB1
:101670006F2053442063617264005072696E74205D
:1016800066726F6D2053440053746F7020707269DE
:101690006E7400526573756D65207072696E7400AA
:1016A00041626F7574205072696E7465720050618A
:1016B000757365207072696E7400436F6E74726F1B
:1016C0006C00507265706172650054756E650049FA
:1016D0006E666F2073637265656E00426162797336
:1016E000746570205A004E6F726D616C697A652066
:1016F000616E64204170706C793E3E00453320502D
:10170000726563656E740045332050726563656E63
:10171000740045322050726563656E740045322056
:1017200050726563656E7400453120507265636563
:101730006E740045312050726563656E7400547597
:101740006E6500455854323A455854330045585454
:10175000323A4558543300456E64206F6620455830
:101760005431252500456E64206F6620455854315C
:101770002525005374617274206F662045585431DA
:101780002525005374617274206F662045585431CA
:101790002525004175746F204D6978204D6F646573
:1017A000004175746F204D6978204D6F6465005459
:1017B000756E65004D363030204230004368616EF2
:1017C00067652066696C616D656E7400426162795F
:1017D00073746570205A00466C6F7700466C6F77A3
:1017E0000046616E2073706565640046616E20730B
:1017F000706565640042656400426564004175740B
:101800006F204D6978204D6F646500536574204DDD
:10181000697820526174696F004E6F7A7A6C650046
:101820004E6F7A7A6C65005370656564005370651D
:101830006564004D61696E00507265686561742071
:10184000504C4120456E640050726568656174209B
:10185000504C412042656400507265686561742097
:10186000504C41005072657061726500507265683D
:101870006561742041425320456E64005072656872
:10188000656174204142532042656400507265686E
:101890006561742041425300507265706172650049
:1018A0004261636B004E65787420636F726E65727F
:1018B000004732380A4732390050726568656174F2
:1018C00020414253005072656865617420504C415C
:1018D00000436F6F6C646F776E004368616E67657D
:1018E0002066696C616D656E7400426564204C65AC
:1018F00076656C696E670044697361626C6520731C
:1019000074657070657273004D38340053657420CF
:101910004D697820526174696F004C6576656C2062
:10192000636F726E65727300486F6D65205A004771
:101930003238205A00486F6D6520590047323820F0
:101940005900486F6D6520580047323820580041D3
:1019500075746F20686F6D6500473238004D6F7683
:10196000652061786973004D61696E004D6F766521
:101970002058004D6F76652059004D6F7665205ACE
:10198000004578747275646572004D6F766520301D
:101990002E316D6D004D6F766520316D6D004D6F90
:1019A00076652031306D6D004D6F76652061786908
:1019B00073004578747275646572004D6F766520AA
:1019C0005A004D6F76652059004D6F76652058009E
:1019D0004578747275646572004D6F7665205A00A3
:1019E0004D6F76652059004D6F7665205800507216
:1019F000657061726500496E697469616C697A65C8
:101A000020454550524F4D00436F6E74726F6C000D
:101A1000526573746F7265206661696C7361666587
:101A2000004C6F61642073657474696E677300495C
:101A30006E697469616C697A6520454550524F4DF5
:101A40000053746F72652073657474696E677300F8
:101A500052657472616374004D6F74696F6E0054E7
:101A6000656D7065726174757265004D61696E00B7
:101A7000507265686561742041425320636F6E66E1
:101A8000005072656865617420504C4120636F6E30
:101A900066005049442D44005049442D44005049AB
:101AA000442D49005049442D49005049442D5000CF
:101AB0005049442D500020082046616374002008DE
:101AC0002046616374002008204D617800200820C2
:101AD0004D6178002008204D696E002008204D6976
:101AE0006E004F6666004F6E20004175746F74651E
:101AF0006D7000436F6F6C2046616E20537065659A
:101B00006400436F6F6C2046616E2053706565649E
:101B10000046616E2073706565640046616E2073D7
:101B2000706565640042656400426564004E6F7ACA
:101B30007A6C65004E6F7A7A6C6500436F6E7472D2
:101B40006F6C0053746F72652073657474696E678F
:101B5000730042656400426564004E6F7A7A6C657A
:101B6000004E6F7A7A6C650046616E207370656511
:101B7000640046616E2073706565640054656D7025
:101B800065726174757265005654726176206D6974
:101B90006E005654726176206D696E00566D696EE6
:101BA00000566D696E00566D6178204500566D6176
:101BB00078204500566D6178205A00566D61782076
:101BC0005A00566D6178205900566D617820590091
:101BD000566D6178205800566D61782058004D6F21
:101BE00074696F6E00416D6178204500416D6178C8
:101BF000204500416D6178205A00416D6178205A7E
:101C000000416D6178205900416D61782059004193
:101C10006D6178205800416D6178205800412D7425
:101C2000726176656C00412D74726176656C00415D
:101C30002D7265747261637400412D7265747261F6
:101C4000637400416363656C00416363656C004DC0
:101C50006F74696F6E0056652D6A65726B0056650C
:101C60002D6A65726B00567A2D6A65726B00567A22
:101C70002D6A65726B0056792D6A65726B00567914
:101C80002D6A65726B0056782D6A65726B00567806
:101C90002D6A65726B004D6F74696F6E00457374C9
:101CA0006570732F6D6D004573746570732F6D6D66
:101CB000005A73746570732F6D6D005A737465707C
:101CC000732F6D6D005973746570732F6D6D0059AE
:101CD00073746570732F6D6D005873746570732F16
:101CE0006D6D005873746570732F6D6D004D6F745A
:101CF000696F6E0053746570732F6D6D004A657265
:101D00006B00416363656C65726174696F6E005648
:101D1000656C6F63697479005A20454E4453544F83
:101D2000502041646A005A20454E4453544F50207D
:101D300041646A005A2050726F6265204F66667374
:101D40006574005A2050726F6265204F6666736535
:101D50007400484F4D455F5A5F6F66667365740047
:101D6000484F4D455F5A5F6F666673657400484F14
:101D70004D455F595F6F666673657400484F4D450A
:101D80005F595F6F666673657400484F4D455F58D5
:101D90005F6F666673657400484F4D455F585F6FAF
:101DA000666673657400436F6E74726F6C00556E77
:101DB000526574205600556E526574205600556E5B
:101DC000526574206D6D00556E526574206D6D0006
:101DD000486F70206D6D00486F70206D6D0052650A
:101DE000747261637420205600526574726163746A
:101DF0002020560052657472616374206D6D00522C
:101E0000657472616374206D6D004F6666004F6E7D
:101E100020004175746F526574722E00436F6E74AA
:101E2000726F6C0043616E6E6F7420656E746572C4
:101E3000207375626469723A2000022E2E004D6193
:101E4000696E0000457874727564656420746F74FF
:101E5000616C3A2000256C642E25696D00004C6F82
:101E60006E67657374206A6F622074696D653A20CD
:101E70000000546F74616C207072696E7420746914
:101E80006D653A2000436F6D706C657465643A202F
:101E9000005072696E7420436F756E743A20004D65
:101EA00061782054656D703A20313330004D696E91
:101EB0002054656D703A203500544265643A3130E3
:101EC000304B203125206265746120333935300074
:101ED0004D61782054656D703A20323735004D6978
:101EE0006E2054656D703A20350054303A20313000
:101EF000304B203125206265746120333935300044
:101F00005053553A2047656E657269630050726F91
:101F1000746F636F6C3A20312E3000426175643A01
:101F200020313135323030005A4F4E4553544152F2
:101F3000204C43443132383634005A4F4E455354C6
:101F40004152205A5249425F5636004C696E6561D3
:101F500072204C6576656C696E67004578747275A1
:101F6000646572733A203300687474703A2F2F7767
:101F700077772E7A6F6E657374617233642E636F38
:101F80006D005A38535F4D3300323032302D3034CB
:101F90002D30350042617365206F6E204D61726C8B
:101FA000696E312E312E380056332E30004865616F
:101FB0007465722054657374696E67004D313034F6
:101FC00020533236300A4D31343020533131350A06
:101FD0004D3130362053300A004175746F205570F2
:101FE00020646F776E004D32303320583135302009
:101FF00059313530205A31360A4730205833313084
:102000002059333130205A34303020463936300AA6
:102010004730205830205930205A31302046393648
:10202000300A473020583330302059333030205A6E
:1020300034303020463936300A4730205830205965
:1020400030205A313020463936300A473020583354
:1020500031302059333130205A343030204639362F
:10206000300A4730205830205930205A313020462D
:102070003936300A47302058333130205933313027
:10208000205A34303020463936300A473020583014
:10209000205930205A313020463936300A47302016
:1020A000583331302059333130205A3430302046C3
:1020B0003936300A4730205830205930205A3130D4
:1020C00020463936300A4732380A4D3230332058EC
:1020D0003135302059313030205A380A4D333030C4
:1020E000205333303030205031303030004661736F
:1020F0007420746F20426F74746F6D004D323033F2
:1021000020583135302059313530205A31360A4780
:1021100032382058300A4730205A3020463936307D
:102120000A4D32303320583135302059313030208B
:102130005A380A004661737420746F20546F70001F
:102140004D32303320583135302059313530205A16
:1021500031360A473020583331302059333130205E
:102160005A34303020463936300A4D323033205818
:102170003135302059313030205A380A00417574D9
:102180006F20686F6D6500473238005072696E7459
:10219000657220537461747300546865726D69735D
:1021A000746F727300426F61726420496E666F00D3
:1021B0005072696E74657220496E666F004D616978
:1021C0006E0045787472756465206D6F726500529B
:1021D0006573756D65207072696E74005245535554
:1021E0004D45204F5054494F4E533A0020204E6FDA
:1021F0007A7A6C653A20006368616E6765006F6685
:10220000207468652066696C616D656E7400576145
:10221000697420666F722073746172740050524941
:102220004E54205041555345440020204E6F7A7A39
:102230006C653A2000200066696C616D656E7420E3
:10224000756E6C6F6164005761697420666F72000F
:102250005052494E54205041555345440020204E81
:102260006F7A7A6C653A20002000506C6561736566
:1022700020776169742E2E2E0048656174696E673F
:10228000206E6F7A7A6C65005052494E542050414E
:10229000555345440020204E6F7A7A6C653A2000F1
:1022A000200068656174206E6F7A7A6C652E00502C
:1022B0007265737320627574746F6E20746F005052
:1022C00052494E54205041555345440020204E6FF2
:1022D0007A7A6C653A2000746F20636F6E74696E51
:1022E00075652E2E2E00616E6420707265737320EA
:1022F000627574746F6E00496E73657274206669DE
:102300006C616D656E74005052494E5420504155B9
:102310005345440020204E6F7A7A6C653A200020A5
:102320000066696C616D656E74206C6F6164005746
:1023300061697420666F72005052494E54205041BA
:10234000555345440020204E6F7A7A6C653A200040
:10235000200066696C616D656E74206578747275B5
:102360006465005761697420666F72005052494E6F
:10237000542050415553454400746F207265737565
:102380006D65005761697420666F72207072696EA6
:1023900074005052494E5420504155534544004317
:1023A0004F4D4D554E49434154494F4E00445259AB
:1023B00052554E004552524F525300494E464F001F
:1023C0004543484F002569730025696D20256973D1
:1023D000002569682025696D2025697300256964D9
:1023E000202569682025696D202569730025697994
:1023F00020256964202569682025696D2025697379
:10240000004B494C4C45442E200053544F505045EE
:10241000442E20005072696E7465722073746F7060
:102420007065642064756520746F206572726F72C8
:10243000732E2046697820746865206572726F7209
:1024400020616E6420757365204D39393920746FB1
:1024500020726573746172742E202854656D7065E6
:102460007261747572652069732072657365742E6C
:1024700020536574206974206166746572207265EA
:102480007374617274696E67290A004E6F20436825
:1024900065636B73756D2077697468206C696E6510
:1024A000206E756D6265722C204C617374204C69CE
:1024B0006E653A2000636865636B73756D206D69A6
:1024C000736D617463682C204C617374204C696E69
:1024D000653A20004C696E65204E756D626572200C
:1024E0006973206E6F74204C617374204C696E6543
:1024F000204E756D6265722B312C204C61737420F7
:102500004C696E653A20004D313130004D33310059
:1025100053442072656164206572726F720A0044D0
:102520006F6E65207072696E74696E672066696C83
:10253000650A0020706F736974696F6E206F75741F
:10254000206F662072616E67652E0A003F50726FC1
:10255000626520000A0A426564204C6576656C203D
:10256000436F7272656374696F6E204D6174726936
:10257000783A00202B000A436F72726563746564B9
:1025800020426564204865696768742076732E2050
:1025900042656420546F706F6C6F67793A0A00204F
:1025A0002B000A4265642048656967687420546F8F
:1025B000706F6772617068793A0A2020202B2D2D88
:1025C0002D204241434B202D2D2B0A2020207C2002
:1025D000202020202020202020207C0A204C207C2D
:1025E00020202020282B29202020207C20520A2057
:1025F00045207C20202020202020202020207C20FE
:10260000490A2046207C20282D29204E20282B29CD
:10261000207C20470A2054207C20202020202020BD
:10262000202020207C20480A2020207C20202020E0
:10263000282D29202020207C20540A2020207C20A6
:10264000202020202020202020207C0A2020204F15
:102650002D2D2046524F4E54202D2D2B0A20283050
:102660002C30290A004D65616E206F662073616D04
:10267000706C656420706F696E74733A200020641A
:102680003A200020623A200045716E20636F656633
:1026900066696369656E74733A20613A2000202888
:1026A00044525952554E2900473239204175746FB2
:1026B00020426564204C6576656C696E670028422F
:1026C0002961636B00284629726F6E7400285229B5
:1026D0006967687400284C29656674003F4E756D03
:1026E000626572206F662070726F626520706F691C
:1026F0006E747320697320696D706C6175736962A3
:102700006C65202832206D696E696D756D292E0A01
:10271000003F2856296572626F7365206C65766587
:102720006C20697320696D706C61757369626C658A
:102730002028302D34292E0A0044656C6574696F99
:102740006E206661696C65642C2046696C653A2070
:102750000046696C652064656C657465643A006F59
:1027600070656E206661696C65642C2046696C65D5
:102770003A20006D0046696C616D656E742075735A
:1027800065643A200053746174733A20002C204C25
:102790006F6E67657374206A6F623A2000546F74BD
:1027A000616C2074696D653A200053746174733AEA
:1027B00020002C204661696C65643A20002C20467C
:1027C000696E69736865643A20005072696E74734B
:1027D0003A200053746174733A200048656174694B
:1027E0006E6720646F6E652E0020573A004525699C
:1027F0002025730042656420646F6E652E002057AB
:102800003A004265642048656174696E672E002055
:102810005A3A0020593A0020436F756E7420583A96
:102820000020453A00205A3A0020593A00583A0010
:102830003A004361703A0023646566696E65202042
:1028400044454641554C545F4B6420002364656603
:10285000696E65202044454641554C545F4B6920C4
:102860000023646566696E65202044454641554CE9
:10287000545F4B702000504944204175746F74754B
:102880006E652066696E6973686564212050757491
:1028900020746865206C617374204B702C204B6928
:1028A00020616E64204B6420636F6E7374616E747C
:1028B000732066726F6D2062656C6F7720696E742D
:1028C0006F20436F6E66696775726174696F6E2EF3
:1028D000680A00504944204175746F74756E652014
:1028E0006661696C6564212074696D656F75740A31
:1028F00000544845524D414C2052554E4157415984
:1029000000546865726D616C2052756E61776179F3
:102910000048656174696E67206661696C65640072
:1029200048656174696E67206661696C6564005012
:102930004944204175746F74756E65206661696CD9
:102940006564212054656D706572617475726520CF
:10295000746F6F20686967680A00204B643A200032
:10296000204B693A2000204B703A20000A20436C2B
:10297000617373696320504944200A002054753AFA
:102980002000204B753A2000206D61783A2000200D
:102990006D696E3A200020643A20002062696173FC
:1029A0003A200047322F4733206261642070617201
:1029B000616D65746572730A00536C6565702E2EC7
:1029C0002E00205A3A200020593A20004265642007
:1029D000583A2000526573756D696E672070726990
:1029E0006E74005A38535F4D332072656164792EDE
:1029F00000436C69636B20746F20726573756D653D
:102A00002E2E2E004E6F206D6F76652E00456E6463
:102A10002066696C65206C6973740A004265676999
:102A20006E2066696C65206C6973740A004D3132E2
:102A300035005344207072696E74696E6720627944
:102A4000746520004E6F74205344207072696E7458
:102A5000696E670A005072696E742074696D653A18
:102A6000200050726F7465637465642050696E0A4B
:102A700000452569202573006F666600C023BB23CF
:102A8000B423AD239F2344454255473A004B494C5C
:102A90004C45442E20006F6B005A38535F4D332055
:102AA0004F66662E00454D455247454E43595F508F
:102AB000415253455200434153455F4C49474854A6
:102AC0005F4252494748544E45535300544F47477D
:102AD0004C455F4C494748545300534F4654574167
:102AE00052455F504F574552004255494C445F5044
:102AF000455243454E54004C4556454C494E475F60
:102B000044415441005A5F50524F42450041555490
:102B10004F4C4556454C005052494E545F4A4F4227
:102B20000050524F4752455353004155544F524560
:102B3000504F52545F54454D5000564F4C554D45E3
:102B40005452494300454550524F4D005345524958
:102B5000414C5F584F4E5F584F4646004649524DD4
:102B6000574152455F4E414D453A4D61726C696E19
:102B70002042617365206F6E204D61726C696E3109
:102B80002E312E3820284769746875622920534FEA
:102B9000555243455F434F44455F55524C3A687424
:102BA0007470733A2F2F6769746875622E636F6D46
:102BB0002F7A6F6E657374617233642050524F5474
:102BC0004F434F4C5F56455253494F4E3A312E308A
:102BD000204D414348494E455F545950453A5A3873
:102BE000535F4D332045585452554445525F434F2F
:102BF000554E543A3120555549443A3030303030F2
:102C00003031302D303830382D303030332D3030B9
:102C100030302D32303138303131303030310A00FF
:102C20002F2F20004D31343520533C696E64657878
:102C30003E206F7574206F662072616E6765202874
:102C4000302D31290A0053657474696E67205472FF
:102C50006176656C20416363656C65726174696F50
:102C60006E3A200053657474696E67205265747201
:102C700061637420416363656C65726174696F6E32
:102C80003A200053657474696E67205072696E74DF
:102C900020416363656C65726174696F6E3A2000F0
:102CA00053657474696E67205072696E7420616E2A
:102CB000642054726176656C20416363656C657253
:102CC0006174696F6E3A2000205A004475616C206F
:102CD000456E6473746F702041646A7573746D65BA
:102CE0006E7420286D6D293A2000205A002059006A
:102CF000580020204D61783A2000205A00205900C9
:102D0000580020204D696E3A20004F6E20004F661B
:102D10006600536F667420656E6473746F70733AE7
:102D20002000000136372603FF3C3D380EFF2E30D1
:102D30003E121313FF080906FFFF24221EFFFF287F
:102D400027162B2C2A08440A06431A1C18FFFFFFDB
:102D5000FFFFFF20643A0020693A0020703A0042E9
:102D60006564204C6576656C696E67200046616914
:102D70006C656420746F20656E61626C65204265CD
:102D800064204C6576656C696E670A004265642054
:102D90004C6576656C20436F7272656374696F6E03
:102DA000204D61747269783A003A2000207A5F6D94
:102DB000696E3A20202D3230207A5F6D61783A209A
:102DC0002032300A0050726F6265205A204F6666CA
:102DD000736574004E6F2063617365206C6967686A
:102DE000740A00556E6B6E6F776E20636F6D6D6148
:102DF0006E643A202200436172642072656D6F76C2
:102E00006564004361726420696E73657274656401
:102E10000000002100240027002A002D003000338C
:102E20000001010000040107010A01000022002541
:102E30000028002B002E00310034000201000005A4
:102E40000108010B01000020002300260029002CAE
:102E5000002F0032000001000003010601090105F6
:102E6000050505070508080808020202020A0A0803
:102E70000804040404010101010101010103030329
:102E80000303030303040707070C0C0C0C0C0C0CC6
:102E90000C0202020206060606060606060B0B0BCD
:102EA0000B0B0B0B0B010210202008081020401008
:102EB00020408002010201080402010102040810FE
:102EC000204080804020100804020180040201801C
:102ED0004020100804020108040201010204081045
:102EE000204080010204081020408000000A0B02EC
:102EF000090C0D0E0807030401000000000000008B
:102F000000000000000000000000000000000000C1
:102F1000000000000000001211100000000000007E
:102F200000000000000000000000000000000000A1
:102F3000000200000000000000000000000000008F
:102F40000000000000000000000000000000000081
:102F50000000000000000000000000000000000071
:102F60000000000000000000000000000000000061
:102F7000000007FF01FE070183FE0FF8FFF80700BE
:102F80007FC007FF83FF0F8187FE1FF8FFF80F80C8
:102F9000FFE007FFC7038F818FFC3FF0FFF81FC0E2
:102FA000E0E00003C6018FC18C00380007001FC09D
:102FB000C060000786018CC18C00300007003DE036
:102FC000C060000F06018CE18C003800070038E07B
:102FD000E0E0001E06018C618FFE3FF0070038E044
:102FE000FFC0003C06018C618FFE1FF807003060B7
:102FF000FF80007806018C318FFC0FFC0700727097
:10300000FC0000F006018C318E00001C07006230CD
:10301000CE0001E006018C398C00000C07006730FF
:10302000C70003C006018C198C00000C0700673034
:10303000C380078007038C198E00001C0700CF98FF
:10304000C1C007FFC7FF8C0F8FFF1FFC0700CF9881
:10305000C0F003FFC3FF0C0F87FF3FF80700DFD866
:10306000C07001FFC1FE0C0701FE3FF00700000029
:103070000000000000000000000000000000000050
:103080000000000000000000000000000000000040
:103090000000000000000000000000000000000030
:1030A0000000000000000000000000000000000020
:1030B00000002020506C616E6E6572427566666518
:1030C0007242797465733A20002046726565204D1E
:1030D000656D6F72793A2000436F6D70696C65643D
:1030E0003A204D617920323520323032300A0020CA
:1030F0007C20417574686F723A202848616C6C7945
:10310000405A4F4E4553544152290A003230323012
:103110002D30342D303500204C617374205570648F
:10312000617465643A200042617365206F6E204DC2
:1031300061726C696E312E312E380A004D61726CED
:10314000696E0020536F66747761726520526573F3
:1031500065740A00205761746368646F6720526564
:103160007365740A002042726F776E206F75742049
:1031700052657365740A002045787465726E616CDF
:103180002052657365740A00506F77657255700A36
:103190000073746172740A006572726F72207772C4
:1031A0006974696E6720746F2066696C650A0045F2
:1031B0006E6473746F70732025632025632025630C
:1031C0002025630020503A00205A3A0020593A0046
:1031D00020583A00656E6473746F70732068697468
:1031E0003A2000446F6E6520736176696E672066D1
:1031F000696C652E0A004D32390050726F62696E3B
:1032000067206661696C65640A0050726F62696E5E
:1032100067206661696C656400205A3A2000205975
:103220003A200042656420583A2000486F6D6520BE
:10323000257325732573206669727374002066698F
:103240007273740A005A0059005800486F6D652067
:103250000057726974696E6720746F2066696C65C7
:103260003A20006F70656E206661696C65642C2081
:1032700046696C653A20006F70656E206661696C06
:1032800065642C2046696C653A200046696C6520AF
:1032900073656C65637465640A002053697A653AE6
:1032A000200046696C65206F70656E65643A200089
:1032B0006F70656E206661696C65642C2046696C70
:1032C000653A20002066696C653A2000646F696E7B
:1032D00067006672657368004E6F772000454E4444
:1032E00020535542524F5554494E450A00222070F2
:1032F0006F73002220706172656E743A220053551C
:1033000042524F5554494E452043414C4C20746124
:10331000726765743A22004B494C4C45442E20009C
:10332000747279696E6720746F2063616C6C2073AE
:1033300075622D67636F64652066696C65732077BD
:1033400069746820746F6F206D616E79206C65768A
:10335000656C732E204D4158206C6576656C206934
:10336000733A0053442063617264206F6B0A006FEC
:1033700070656E526F6F74206661696C65640A00D7
:10338000766F6C756D652E696E6974206661696C07
:1033900065640A004572726F723A00534420696E88
:1033A0006974206661696C0A0043616E6E6F7420F7
:1033B0006F70656E20737562646972200061757448
:1033C0006F25692E67004D3234004D32332025734E
:1033D00000656E7175657565696E672022006563AD
:1033E000686F3A0000060900FE0701920321207F62
:1033F000FF07FF07FF0000000600000107070602A5
:103400000080808080800080030202060105A0A069
:103410000507070600005050F850F8505005070700
:103420000600002078A07028F0200507070600009D
:10343000C0C810204098180507070600006090A03B
:1034400040A89068020303060104C04080030707F8
:10345000060100204080808040200307070601000D
:103460008040202020408005050506000120A8702E
:10347000A8200505050600012020F82020020303EE
:103480000602FFC04080050101060003F8020202A7
:10349000060200C0C0050505060001081020408096
:1034A000050707060000708888888888700307076A
:1034B00006010040C040404040E00507070600000C
:1034C000708808708080F8050707060000F8102053
:1034D000100808F005070706000010305090F8109B
:1034E00010050707060000F880F008088870050737
:1034F00007060000708080F08888700507070600C6
:1035000000F808102020202005070706000070881A
:10351000887088887005070706000070888878081A
:103520000870020505060200C0C000C0C002060601
:103530000602FFC0C000C04080040707060000105C
:10354000204080402010050303060002F800F80424
:10355000070706010080402010204080050707066D
:103560000000708808102000200507070600007082
:10357000880868A8A870050707060000708888F802
:10358000888888050707060000F08888F08888F09A
:10359000050707060000708880808088700507078F
:1035A000060000F08888888888F005070706000074
:1035B000F88080F08080F8050707060000F880801A
:1035C000F0808080050707060000708880B8888832
:1035D00070050707060000888888F8888888010732
:1035E0000706020080808080808080050707060033
:1035F0000038101010109060050707060000889032
:10360000A0C0A09088050707060000808080808009
:1036100080F805070706000088D8A88888888805EC
:1036200007070600008888C8A89888880507070645
:10363000000070888888888870050707060000F0F9
:103640008888F080808005070706000070888888D9
:10365000A89068050707060000F08888F0A0908809
:10366000050707060000788080700808F005070746
:10367000060000F820202020202005070706000073
:1036800088888888888870050707060000888888E9
:10369000888850200507070600008888888888A841
:1036A00050050707060000888850205088880507C5
:1036B000070600008888885020202005070706009C
:1036C00000F80810204080F8030707060100E0809A
:1036D00080808080E00505050600018040201008FC
:1036E000030707060100E02020202020E005030357
:1036F000060004205088050101060000F8020202BD
:1037000006020580400505050600007008788878E7
:103710000507070600008080B0C88888F005050509
:103720000600007080808870050707060000080802
:1037300068988888780505050600007088F880700C
:103740000507070600003048E040404040050606F7
:103750000600FF708888780870050707060000805B
:1037600080B0C88888880107070602008000808032
:103770008080800308080601FF200020202020A070
:1037800040040707060000808090A0C0A0900307B7
:1037900007060100C04040404040E0050505060026
:1037A00000D0A8A8A8A8050505060000B0C888880C
:1037B00088050505060000708888887005060606DD
:1037C00000FFF08888F080800506060600FF7888F4
:1037D00088780808050505060000B0C880808005C7
:1037E000050506000070807008F004070706000059
:1037F0004040E040404030050505060000888888CC
:10380000986805050506000088888850200505058C
:103810000600008888A8A850050505060000885005
:103820002050880506060600FF88888878087005FD
:103830000505060000F8102040F803070706010000
:103840002040408040402001070706020080808021
:1038500080808080030707060100804040204040B0
:1038600080050202060002689000000006000000C9
:10387000060900FE000000000001090008FE00002B
:1038800005080806000040F0C888889878100508E8
:1038900008060000C0F88888888888F805050506AD
:1038A00000012030F830200508080600002070F8DC
:1038B00020202020E00509090600FF2070A8A8B8F4
:1038C000888870200509090600FFE080C0B0A8289C
:1038D0003028280509090600FFF8A8888888888804
:1038E000A8F8050A0A0600FE205050505088A8A8E3
:1038F000887003030306000340A040009C00A4005E
:1039000011241FBECFEFD1E2DEBFCDBF00E00CBF60
:1039100013E0A0E0B2E0EAEAFDE502E00BBF02C07E
:1039200007900D92A03BB107D9F723E1A0EBB3E0DC
:1039300001C01D92AE30B207E1F71CE1CFE7DCE138
:1039400000E006C021970109802FFE010F94362E5A
:10395000CE37D10780E00807A9F70F94E61B0D9436
:10396000C42E0C940000880F991F880F991FFC012A
:10397000E857F54F40815181628173818E5A954F8E
:10398000FC014083518362837383E091A804F0912A
:10399000A90482899389A489B589809301089093A9
:1039A0000208A0930308B09304088FEF9FEF909351
:1039B000AB048093AA040895CF93DF932FB7F894B4
:1039C000AC01440F551F440F551FFA01E857F54F3E
:1039D00060817181828193812FBFEA01CE5BD54FD7
:1039E0000F94D826288139814A815B810F9437272B
:1039F000DF91CF910895AF92BF92CF92DF92EF9275
:103A0000FF920F931F93CF93DF93E090A804F09061
:103A1000A904F70182819381A481B5811816190642
:103A20001A061B0654F58091340580FF26C080914C
:103A3000FF04909100052CB122952695277031E066
:103A40002327422F417050E08E7F842B952B90933B
:103A500000058093FF0420912708309128082170E9
:103A6000332782239323892B41F080915E0A816062
:103A700080935E0A90E080E076DFF701868197818F
:103A8000A085B185181619061A061B068CF58091BB
:103A9000340581FF2DC02091FF04309100059091E5
:103AA0000301969581E0982790FBAA24A0F8B12CF9
:103AB000882799278A199B0982279327827099273B
:103AC00082279327909300058093FF042091270875
:103AD000309128082270332782239323892B41F0C9
:103AE00080915E0A826080935E0A81E090E03BDF15
:103AF000F70182859385A485B585181619061A06DF
:103B00001B060CF08DC08091340582FF89C0209186
:103B1000FF043091000599B196959695969541E0F0
:103B2000942790FBCC24C0F8D12C882799278C1996
:103B30009D09822793278470992728273927309356
:103B400000052093FF048FB186958695869584277E
:103B50008170C82FF0E0DF2F882799278C1B9D0BE1
:103B600082279327882798708227932790930005B0
:103B70008093FF042091270830912808BC0162231C
:103B80007323AB015695479556954795417052E082
:103B900073FF50E0452BC1F050915E0A5460509382
:103BA0005E0A50912908552311F0433069F4F7015A
:103BB00042895389648975894093010850930208AA
:103BC000609303087093040840913D0A442341F137
:103BD00049B14695469551E04527042F017010E004
:103BE00011950195110908271927087011278027B9
:103BF0009127909300058093FF0428703327822338
:103C00009323892B69F080915E0A886080935E0A15
:103C100082E090E0A8DE80915E0A886080935E0A70
:103C20008091FF04909100059093280880932708C5
:103C3000DF91CF911F910F91FF90EF90DF90CF9088
:103C4000BF90AF9008953F924F925F926F927F9294
:103C50008F929F92AF92BF92CF92DF92EF92FF929C
:103C60000F931F93CF93DF93EC01162FDCAC5BAC6B
:103C70005C0124E0A20EB11CE98DFA8DC5011995F5
:103C8000982EE884F984C7010F942208082F8885AC
:103C900099850F942508782E88248A94013011F490
:103CA0008FE0882E888599850F941808082F8885BD
:103CB00099850F941408C82E888599850F941C083F
:103CC000113670F0009761F0E80EF91E01E6C1169A
:103CD000B8F41C8A1F8A188E1D8A1E8A80E05BC079
:103CE000888599850F941F08113430F0009721F0D2
:103CF000E80EF91E01E4EBCF81E1E80EF11CE7CFFD
:103D0000C01638F3872D90E0F70124912F3F39F446
:103D1000FFEFEF1AFF0AC016E1F20F5FF5CF1013A5
:103D200068C0888599850F94220897012F5F3F4FBF
:103D3000F701882319F0823009F044C084918F8BF9
:103D4000F9012491288FF7013396E491EC8BF70168
:103D50003496E491ED8BF7013596E491EE8BE11406
:103D6000F10409F4BBCF888599850F942508782E36
:103D7000CF88388C8D89580E1D2D13198E89181BEC
:103D8000190D032D2C2D412F652DC5010F942E08E3
:103D9000811138C08C899BAD890F8BAF81E090E099
:103DA000DF91CF911F910F91FF90EF90DF90CF9017
:103DB000BF90AF909F908F907F906F905F904F904B
:103DC0003F9008958491982F9F7092509E8B82957A
:103DD0008F708D8BF9012491822F8F70888F22959F
:103DE0002F702F8BF7013296E491E295EF70EC8BF8
:103DF000B6CF3296E491E821E80FF92FF11DEE0ECF
:103E0000FF1E89CFE70CF11C07E00C0D0695069507
:103E10000695310E4E01F0E28F0E911C602E712C32
:103E2000131509F4B7CF452C670112C0F601849130
:103E30006E817F8148A219A31BA28AA394014BE340
:103E4000C5010F943106FFEFCF1ADF0A28E0420EBA
:103E50008C2D8E19801750F3E60CF71C1F5FE0CFF6
:103E60004F925F926F927F92AF92BF92CF92DF920A
:103E7000EF92FF920F931F93CF93DF938C01EB018F
:103E8000FC0143A854A865A876A8ABA8BCA8CDA8F7
:103E9000DEA89501A601C301B2010F94D22687FFC7
:103EA0003FC0A3019201C301B2010F9437272B0138
:103EB0003C01F801FF966081718182819381905865
:103EC0009B01AC010F943B2BF80123AD34AD45AD04
:103ED00056AD0F9437279B01AC01C301B2010F947B
:103EE0003A2B0F94A62D7B018C019B01AC01B501EF
:103EF000C6010F94D22687FF02C075018601970183
:103F0000A801B501C6010F94D226882349F0C70144
:103F1000D8018BAB9CABADABBEAB88818160888395
:103F2000DF91CF911F910F91FF90EF90DF90CF9095
:103F3000BF90AF907F906F905F904F9008954F9299
:103F40005F926F927F928F929F92AF92BF92CF9229
:103F5000DF92EF92FF92CF93DF93CDB7DEB76A97F0
:103F60000FB6F894DEBF0FBECDBF9A8F898F5B016D
:103F70004A01FC01ED5BFF4F608171818281938179
:103F80000F94D6266B017C01D5012D913D914D9169
:103F90005C910F9437270F94012C0F94842C3B01D4
:103FA0005C01F4012081318142815381C701B60156
:103FB0000F9437270F94012C0F94842C6D827E82EE
:103FC000AF82B8862D813E814F81588528373105D3
:103FD0004105510540F428E730E040E050E02D83F2
:103FE0003E834F83588769837A838B839C8389813F
:103FF0009A81AB81BC8188379105A105B10540F458
:1040000028E730E040E050E029833A834B835C832B
:10401000E98DFA8DE15BFF4F80819181A281B381AF
:104020008D879E87AF87B88BBC01CD010F94D826B2
:1040300069877A878B879C876D817E818F81988540
:104040000F94D626698B7A8B8B8B9C8B20E030E08B
:10405000A90169857A858B859C850F94D226882352
:1040600009F437C1A7019601C701B6010F9437279C
:104070004B015C0129893A894B895C89CA01B901E4
:104080000F9437279B01AC01C501B4010F943A2B63
:104090004B015C0129853A854B855C85CA01B901D4
:1040A0000F943B2B9B01AC01C501B4010F94172C5D
:1040B0000F94012C0F947F2C2B013C016D857E8584
:1040C0008F85988990958095709561957F4F8F4FDA
:1040D0009F4F0F94D8264B015C0169817A818B81B7
:1040E0009C810F94D6266D877E878F87988B20E0E2
:1040F00030E0A901C501B4010F94D226882309F448
:10410000ECC02D853E854F855889CA01B9010F94B1
:1041100037276D8B7E8B8F8B988FA7019601C701F8
:10412000B6010F9437279B01AC016D897E898F8979
:10413000988D0F943A2B6B017C01A5019401C50168
:10414000B4010F943B2B9B01AC01C701B6010F9446
:10415000172C0F94B02CA98DBA8D52968D909D90EE
:10416000AD90BC90559775016401C418D508E60858
:10417000F7080F947F2CC61AD70AE80AF90AF7FE47
:1041800067C020E030E0A90169857A858B859C8530
:104190000F94D226882309F4A4C0C501B4010F945A
:1041A000D6266B017C0129853A854B855C85CA0141
:1041B000B9010F943B2B9B01AC01C701B6010F94D1
:1041C00037276B017C0129893A894B895C89CA01AF
:1041D000B9010F9437279B01AC01C701B6010F94B9
:1041E0003A2B6B017C012D853E854F855889CA018C
:1041F000B9010F9437279B01AC01C701B6010F9499
:104200003B2B6B017C0120E030E040E850E4698505
:104210007A858B859C850F9437279B01AC01C7015C
:10422000B6010F94172C0F94012C0F947F2C2B01A7
:104230003C0177FE03C0412C512C32014814590433
:104240006A047B0410F024013501C12CD12C7601C5
:104250008FB7F894E98DFA8D908193FD24C0DF012A
:1042600042A253A264A275A2C40CD51CE61CF71C82
:10427000C6A2D7A2E0A6F1A6E95BFF4F2D813E8141
:104280004F8158852083318342835383AD01455B41
:104290005F4FDA0129813A814B815C812D933D93F7
:1042A0004D935C9313978FBF6A960FB6F894DEBF59
:1042B0000FBECDBFDF91CF91FF90EF90DF90CF90F9
:1042C000BF90AF909F908F907F906F905F904F9036
:1042D000089560E070E0CB01EBCE60E070E0CB01D0
:1042E00038CF60E070E0CB019ECFAF92BF92CF920B
:1042F000DF92EF92FF920F931F93CF93DF931F9262
:10430000CDB7DEB76C018B0159018091FE0481119C
:104310001BC07B01E40EF51EF601808191810F9494
:10432000972A8983F80181938F01BE016F5F7F4FC8
:10433000C5010E94F6FCF60180819181019691836E
:104340008083E016F10641F70F90DF91CF911F9126
:104350000F91FF90EF90DF90CF90BF90AF900895B6
:104360007F928F929F92AF92BF92CF92DF92EF9205
:10437000FF920F931F93CF93DF931F92CDB7DEB7BA
:10438000E091FE04E11138C059017C018B016B0101
:10439000C40ED51E0C151D0579F1F70180809180A2
:1043A000F80171908F017982C4010F94972A7816D1
:1043B00091F1672DC4010F94C02AC4010F94972A6C
:1043C0009981891741F10EED13E3F80184910F5F94
:1043D0001F4F81110BC000E315E0F80184910F5FBE
:1043E0001F4F882331F00E94D2C0F7CF0E94D2C065
:1043F000ECCF81E08093FE040F90DF91CF911F916D
:104400000F91FF90EF90DF90CF90BF90AF909F9073
:104410008F907F900895BE016F5F7F4FC5010E940E
:10442000F6FCF70180819181019691838083B2CF60
:104430002FB7F894909102019E7F909302012FBFB5
:104440000000000087FDBBC01198000000002FB7DE
:10445000F894909102019160909302012FBF0000A7
:1044600000002FB7F894909102019E7F9093020173
:104470002FBF0000000086FDAEC0119800000000B4
:104480002FB7F894909102019160909302012FBF91
:10449000000000002FB7F894909102019E7F909346
:1044A00002012FBF0000000085FD93C0119800009D
:1044B00000002FB7F894909102019160909302014F
:1044C0002FBF000000002FB7F894909102019E7F4B
:1044D000909302012FBF0000000084FD78C0119866
:1044E000000000002FB7F894909102019160909322
:1044F00002012FBF000000002FB7F8949091020135
:104500009E7F909302012FBF0000000083FD5DC0DD
:104510001198000000002FB7F8949091020191606B
:10452000909302012FBF000000002FB7F8949091E4
:1045300002019E7F909302012FBF0000000082FDC8
:1045400042C01198000000002FB7F894909102012A
:104550009160909302012FBF000000002FB7F894E4
:10456000909102019E7F909302012FBF00000000F6
:1045700081FD27C01198000000009FB7F89480913A
:1045800002018160809302019FBF000000009FB77D
:10459000F894809102018E7F809302019FBF0000FA
:1045A00000001198000000009FB7F894809102016C
:1045B0008160809302019FBF000000000895119A5E
:1045C00044CF119AD8CF119ABDCF119AA2CF119A88
:1045D00087CF119A6CCF119A51CF4F925F926F9201
:1045E0007F92AF92BF92CF92DF92EF92FF920F93A2
:1045F0001F93CF93DF9324E030E041E050E0D901F6
:10460000A954BE4FFD0165917491861797070CF070
:1046100066C041505109440F551F440F551FEA0110
:10462000C754DE4FFE010591149149545E4FFA01C3
:1046300065917491F901E754FE4FE590F490FE0105
:10464000C590D490FD01C591D491FA01A590B49084
:10465000861B970BBC01990F880B990B0F94D826DA
:104660002B013C01B7016C197D09072E000C880B4A
:10467000990B0F94D8269B01AC01C301B2010F9492
:1046800037276B017C01BE016A197B09072E000CDC
:10469000880B990B0F94D8269B01AC01C701B6017A
:1046A0000F94172C6B017C01B801110F880B990B2B
:1046B0000F94D8269B01AC01C701B6010F943B2B88
:1046C000DF91CF911F910F91FF90EF90DF90CF90EE
:1046D000BF90AF907F906F905F904F9008954F5F25
:1046E0005F4F2C5F3F4F211561E0360709F087CF00
:1046F000E5EBF2E065917491072E000C880B990BA5
:104700000F94D826DDCF10925C081092560E1092AE
:10471000550E0F948C031092760A1092750A0F941E
:1047200017041092560E1092550E0F948C0310928F
:10473000B5042C989FB7F894E2E0F1E080818F7E79
:1047400080839FBF1092760A1092750A10923F08DC
:104750009FB7F89480818F7D80839FBF08954F928B
:104760005F926F927F92AF92BF92CF92DF92EF9261
:10477000FF920F931F93CF93DF9324E030E041E04B
:1047800050E0D901A157BD4EFD0165917491861786
:1047900097070CF066C041505109440F551F440F54
:1047A000551FEA01CF56DD4EFE0105911491415788
:1047B0005D4EFA0165917491F901EF56FD4EE59059
:1047C000F490FE01C590D490FD01C591D491FA01F9
:1047D000A590B490861B970BBC01990F880B990B81
:1047E0000F94D8262B013C01B7016C197D09072EC7
:1047F000000C880B990B0F94D8269B01AC01C301C8
:10480000B2010F9437276B017C01BE016A197B0945
:10481000072E000C880B990B0F94D8269B01AC0136
:10482000C701B6010F94172C6B017C01B801110F61
:10483000880B990B0F94D8269B01AC01C701B601D8
:104840000F943B2BDF91CF911F910F91FF90EF9031
:10485000DF90CF90BF90AF907F906F905F904F9020
:1048600008954F5F5F4F2C5F3F4F283C310509F0A3
:1048700088CFE5E5F3E165917491072E000C880B74
:10488000990B0F94D826DECF80912C0890912D089B
:10489000A4DE6093570E7093580E8093590E909338
:1048A0005A0E80912A0890912B0859DF6093400896
:1048B000709341088093420890934308A8958FB75E
:1048C000F8941092B4048FBF0895AF92BF92CF9224
:1048D000DF92EF92FF920F931F93CF93DF9320E02D
:1048E00030E040E752E46091570E7091580E80918D
:1048F000590E90915A0E0F94612DC0E0181644F491
:10490000E9E2F2E1E491C1E001C0CC0FEA95EAF7F7
:1049100010E000E0A12CD0E0CC24C394D12CF8010D
:10492000EC5DFD4EE490F801E75DFD4EF490E7FC90
:1049300024C08A2D90E00F2C02C0959587950A948B
:10494000E2F780FD1AC0CE010F2C02C09595879525
:104950000A94E2F7B0902B0280FFB12C6B2D8E2DC4
:104960000F94AE016B2D70E08E2D0F94AB02C6013B
:1049700001C0880FFA94EAF7A82A0F5F1F4F05308D
:10498000110569F6DF91CF911F910F91FF90EF9084
:10499000DF90CF90BF90AF9008950F931F93CF9368
:1049A000DF93EC01888199810197E9F40F948003EA
:1049B0000E811F8128853985601B710B820B930B3B
:1049C00028EE33E040E050E00F94DD2A6A817B81DD
:1049D0008C819D81620F731F841F951FDF91CF9182
:1049E0001F910F9108956A857B858C859D85E0CF09
:1049F0008091340580FF2EC0899A8FEF8093090241
:104A00008091340581FF29C08F9A8FEF80930A022D
:104A1000809134059FB782FF23C0F89480910B01E9
:104A20008D7F80930B019FBF16988FEF80930B02B1
:104A30008091340583FF1EC0439AA29A9FB7F894D1
:104A400080910B01806280930B019FBF8FEF809359
:104A50000C020895899881E0D1CF8F9881E0D6CF5C
:104A6000F89480910B01826080930B019FBF169A8E
:104A700081E0DCCF4398A2989FB7F89480910B0116
:104A80008F7D80930B019FBF81E0E1CF1F920F923A
:104A90000FB60F9211240BB60F92BF92CF92DF92F6
:104AA000EF92FF920F931F932F933F934F935F9338
:104AB0006F937F938F939F93AF93BF93EF93FF93E6
:104AC000CF93DF9300D01F92CDB7DEB780916E00F9
:104AD0008B7F80936E0080916F008D7F80936F003D
:104AE0007894C090FD07D090FE07E090FF07F0900B
:104AF0000008C114D104E104F10441F08091E60EF4
:104B000081115BC080913D0A811157C08091AA0438
:104B10009091AB04009709F0B4C08091A8049091E3
:104B2000A904892B09F0BDC20E9472BE882309F432
:104B3000FDC0E091E40EC090E209D090E309E0905E
:104B4000E409F090E5090E2F10E029E5E29FF0015D
:104B50001124EB5CFA4F9F012B5A3F4FD9014D9125
:104B60005D916D917C91D701C601841B950BA60BBD
:104B7000B70B8093E2099093E309A093E409B09303
:104B8000E509808188608083F093A904E093A804FC
:104B900026A580913405281709F4DAC0209334053E
:104BA00089E5809FF001819FF00D1124EB5CFA4FA5
:104BB0008181809307021CDFD5C00E94FB1CD701B6
:104BC000C60109EBC0160BE0D006E104F10420F0A9
:104BD00088EB9BE0A0E0B0E0C81AD90AEA0AFB0A19
:104BE000C092FD07D092FE07E092FF07F092000806
:104BF00090938900809388002091880030918900EB
:104C0000809184009091850040962817390748F4D8
:104C100080918400909185004096909389008093C4
:104C20008800F89480913E08882309F481C7809118
:104C30006E008B7F80936E0080916F008260809306
:104C40006F000F900F900F900F90DF91CF91FF9119
:104C5000EF91BF91AF919F918F917F916F915F91F4
:104C60004F913F912F911F910F91FF90EF90DF9007
:104C7000CF90BF900F900BBE0F900FBE0F901F9064
:104C8000189597FF35C08091A8049091A904892BAD
:104C900051F00E9472BE882331F08091E40E8F5F44
:104CA00087708093E40E0E9472BE8823E1F0E09149
:104CB000E40E19E5E19FF0011124EB5CFA4F8081CD
:104CC00084FF11C00E9472BE882331F08091E40EEF
:104CD0008F5F87708093E40E1092A9041092A8044D
:104CE00088EC90E09ACF1092AB041092AA04F4CF13
:104CF0000E9472BE882331F08091E40E8F5F87702E
:104D00008093E40E8091AA049091AB040197909354
:104D1000AB048093AA04892BF9F688E192E1909381
:104D2000CA0C8093C90C0E94BABAD6CF8FB7F89438
:104D30001092E2091092E3091092E4091092E50939
:104D40008FBF1092A9041092A80480ED97E065CF60
:104D5000318180910702082E000C990B3817190633
:104D600009F01CCF109230051092310510923205D7
:104D70001092330589E5809FF001819FF00D112489
:104D8000E858FA4F808191818134BCE99B0708F093
:104D900041C08132EEE49E0708F43FC096958795A6
:104DA0009695879524E020932F058C0100521109D8
:104DB0001A830983011528E0120708F440C0E12F87
:104DC000FF27EE0FFF1FEE0FFF1FCF01885E914FF1
:104DD000FC01329645915491AA27059F9001049FAA
:104DE000210D3A1F06942A1F3A1F1124FC018591B8
:104DF0009491821B930B8436910508F049C002E11F
:104E000013E0D8018D918D01882309F43BC00E94E5
:104E1000D2C0F7CF80E49CE9C1CF8131F7E29F0790
:104E200020F09695879522E0BECF21E020932F05B4
:104E30008032910508F0B9CF80E290E0B6CF898149
:104E40009A81969587958C7F885E954FFC01259178
:104E50003491FC0132964591549169817A81677051
:104E60007727649FC001659F900D749F900D11245A
:104E7000A3E096958795AA95E1F7A901481B590BE0
:104E8000CA01B9CF89819A810E9431F984E690E004
:104E900090932E0580932D0580912F0580932C05EE
:104EA000E091A804F091A904E95BFF4F8081918112
:104EB00090932B0580932A058134BCE99B0708F069
:104EC00041C08132EEE49E0708F43FC09695879575
:104ED0009695879524E020932F058C0100521109A7
:104EE0001A830983011528E0120708F440C0E12F56
:104EF000FF27EE0FFF1FEE0FFF1FCF01885E914FC0
:104F0000FC01329645915491AA27059F9001049F78
:104F1000210D3A1F06942A1F3A1F1124FC01859186
:104F20009491821B930B8436910508F049C002E1ED
:104F300013E0D8018D918D01882309F43BC00E94B4
:104F4000D2C0F7CF80E49CE9C1CF8131F7E29F075F
:104F500020F09695879522E0BECF21E020932F0583
:104F60008032910508F0B9CF80E290E0B6CF898118
:104F70009A81969587958C7F885E954FFC01259147
:104F80003491FC0132964591549169817A81677020
:104F90007727649FC001659F900D749F900D112429
:104FA00043E0969587954A95E1F7A901481B590B6F
:104FB000CA01B9CF89819A810E9431F984E690E0D3
:104FC000AC0170E060E040932605509327056093A4
:104FD0002805709329059093890080938800E091BB
:104FE000A804F091A90482899389A489B589B6950A
:104FF000A79597958795B095A095909581959F4F8A
:10500000AF4FBF4F8093220590932305A0932405B3
:10501000B093250580931E0590931F05A09320054E
:10502000B093210580931A0590931B05A0931C054E
:10503000B0931D058093160590931705A09318054E
:10504000B0931905BF016A5E7F4F2AE035E0AF01DA
:105050004E5D5F4FFB0181919191A191B191BF0193
:105060000097A105B10581F0B695A795979587950D
:10507000B095A095909581959F4FAF4FBF4FF90187
:1050800080839183A283B3832C5F3F4F46175707DA
:1050900009F710920108109202081092030810926A
:1050A00004088091E60E811103C080913D0A8111B0
:1050B0000E94FB1C20912F05E091A804F091A90407
:1050C000222309F438C382819381A481B581409160
:1050D0001605509117056091180570911905840FF8
:1050E000951FA61FB71F8093160590931705A093D1
:1050F0001805B0931905181619061A061B060CF4A4
:10510000889AE091A804F091A90486819781A085EE
:10511000B18540911A0550911B0560911C05709155
:105120001D05840F951FA61FB71F80931A05909326
:105130001B05A0931C05B0931D05181619061A0629
:105140001B060CF48E9AE091A804F091A9048285C4
:105150009385A485B58540911E0550911F056091EA
:10516000200570912105840F951FA61FB71F8093FE
:105170001E0590931F05A0932005B09321051816D6
:1051800019061A061B0644F580912908882309F49C
:10519000AAC28091270882FF04C080910B0287FD7C
:1051A0000CC080912608811108C09FB7F8948091A7
:1051B0000B01886080930B019FBF8091270890911D
:1051C000280893FF04C080910B0287FD05C08091E1
:1051D0002508811101C0149AE091A804F091A90456
:1051E0008091220590912305A0912405B091250579
:1051F0004685578560897189840F951FA61FB71F43
:105200008093220590932305A0932405B093250550
:105210000AE015E0B80150E040E0A091A804B09188
:10522000A904CA01880F991F880F991FA80FB91FD9
:1052300056968D919D910D90BC91A02D0097A10542
:10524000B105C9F0FB01C080D180E280F3808C0DF4
:105250009D1DAE1DBF1D80839183A283B38318164D
:1052600019061A061B063CF4413009F445C24230C7
:1052700009F444C2419A4F5F5F4F6C5F7F4F4330E8
:10528000510559F68091160590911705A0911805C2
:10529000B0911905181619061A061B068CF56091AF
:1052A000A8047091A904FB01428953896489758916
:1052B000841B950BA60BB70B8093160590931705CF
:1052C000A0931805B0931905909109024091880A9E
:1052D0005091890A60918A0A70918B0A892F990FDF
:1052E000990BAA0BBB0B840F951FA61FB71F8093AA
:1052F000880A9093890AA0938A0AB0938B0A8898A7
:1053000080911A0590911B05A0911C05B0911D0577
:10531000181619061A061B068CF56091A8047091E0
:10532000A904FB014289538964897589841B950B03
:10533000A60BB70B80931A0590931B05A0931C0531
:10534000B0931D0590910A0240918C0A50918D0AEC
:1053500060918E0A70918F0A892F990F990BAA0B71
:10536000BB0B840F951FA61FB71F80938C0A9093C9
:105370008D0AA0938E0AB0938F0A8E9880911E0595
:1053800090911F05A0912005B091210518161906CE
:105390001A061B060CF058C06091A8047091A9046D
:1053A000FB014289538964897589841B950BA60B7F
:1053B000B70B80931E0590931F05A0932005B09313
:1053C000210590910B024091900A5091910A6091B1
:1053D000920A7091930A892F990F990BAA0BBB0B14
:1053E000840F951FA61FB71F8093900A9093910A70
:1053F000A093920AB093930A80912908882309F414
:1054000086C18091270882FF04C080910B0287FD2E
:105410000CC080912608811108C09FB7F894809134
:105420000B01877F80930B019FBF8091270890918C
:10543000280893FF04C080910B0287FD05C080916E
:105440002508811101C014988091220590912305AF
:10545000A0912405B0912505181619061A061B06F9
:1054600084F56091A8047091A904FB0142895389D5
:1054700064897589841B950BA60BB70B8093220555
:1054800090932305A0932405B093250590910C02D9
:105490004091940A5091950A6091960A7091970AEA
:1054A000892F990F990BAA0BBB0B840F951FA61F71
:1054B000B71F8093940A9093950AA093960AB0938D
:1054C000970A50E040E06091A8047091A904DA01C5
:1054D000AA0FBB1FAA0FBB1FA60FB71F56968D9111
:1054E0009D910D90BC91A02D892B8A2B8B2BF9F0CF
:1054F000F80180819181A281B381181619061A06DC
:105500001B06ACF4FB01C288D388E488F5888C19AB
:105510009D09AE09BF09F80180839183A283B383FB
:10552000413009F4FDC0423009F4FCC041984F5F9E
:105530005F4F0C5F1F4F4330510529F680910108E2
:1055400090910208A0910308B09104080196A11D52
:10555000B11D8093010890930208A0930308B093B3
:1055600004082150E091A804F091A90442895389CC
:105570006489758984179507A607B70708F49CCD39
:10558000BB24B394E091A804F091A9048091010890
:1055900090910208A0910308B091040842A153A180
:1055A00064A175A1481759076A077B0708F46CC105
:1055B0004091260550912705609128057091290595
:1055C00002A513A524A535A5AA27419FB12D529F59
:1055D000C001629F900D619F800D911D429FB00D93
:1055E000811D9A1F519FB00D811D9A1F609FB00DA4
:1055F000811D9A1F509FB10D8A1F9A1FB6958A1F51
:105600009A1F349F800D911D359F900D11249A8310
:105610008983DF01A95BBF4F8D919C9109811A811C
:10562000800F911F90932B0580932A05ED5BFF4F10
:105630004081518162817381B0E0A0E04817590731
:105640006A077B0720F450932B0540932A0580912D
:105650002A0590912B0581341CE9910708F06DC053
:1056600081322EE4920708F46BC096958795969543
:10567000879524E020932F058C01005211091A838D
:105680000983011528E0120708F46CC0E12FFF27F9
:10569000EE0FFF1FEE0FFF1FCF01885E914FFC0141
:1056A000329625913491AA27039FA001029F410DB4
:1056B0005A1F06944A1F5A1F1124FC012591349148
:1056C000241B350B2436310508F073C0F2E1EF2EB0
:1056D000F3E0FF2ED7018D917D01882309F463C08B
:1056E0000E94D2C0F7CF9FB7F89480910B018860D9
:1056F00080930B019FBF6FCDA19ABDCD9FB7F8944A
:1057000080910B01806480930B019FBFB4CD9FB744
:10571000F89480910B01877F80930B019FBF93CEFC
:10572000A19805CF9FB7F89480910B018F7B809350
:105730000B019FBFFCCEB12C25CF80E49CE995CF17
:10574000813137E2930720F09695879522E092CF3A
:1057500021E020932F058032910508F08DCF80E263
:1057600090E08ACF89819A81969587958C7F885E13
:10577000954FFC0125913491FC013296459154914D
:1057800069817A8167707727649FC001659F900D5A
:10579000749F900D1124B3E096958795BA95E1F723
:1057A000281B390B8FCF89819A810E9431F924E619
:1057B00030E08091E60E811105C080913D0A88237A
:1057C00009F460C0C901293BBBE03B07C0F068EBAE
:1057D0007BE00F940F2E883EE3E09E0708F04FC059
:1057E0008854944FA901481B590B70E060E0409326
:1057F000FD075093FE076093FF0770930008909396
:105800008900809388008091260590912705A091BA
:105810002805B0912905820F931FA11DB11D80930A
:10582000260590932705A0932805B093290520917C
:105830008800309189008091840090918500409685
:105840002817390748F4809184009091850040968C
:105850009093890080938800BB2009F4E2C91092DC
:10586000A9041092A8040E9472BE882309F4D9C921
:105870008091E40E8F5F87708093E40ED2C988EB2D
:105880009BE0B0CFC901BBCF809101089091020885
:10589000A0910308B091040846A157A160A571A585
:1058A000481759076A077B0708F00DC1409130057A
:1058B00050913105609132057091330502A513A511
:1058C00024A535A5AA27419FB12D529F7001629F43
:1058D000F00C619FE00CF11C429FB00DE11CFA1E20
:1058E000519FB00DE11CFA1E609FB00DE11CFA1E25
:1058F000509FB10DEA1EFA1EB695EA1EFA1E349F9D
:10590000E00CF11C359FF00C112480912A05909138
:105910002B05E55BFF4F4081518162817381E81661
:10592000F90650F48E199F096C01F12CE12CC41674
:10593000D506E606F70608F4CA0181341CE991078A
:1059400008F043C081322EE4920708F441C09695D6
:1059500087959695879524E020932F058C0100521A
:1059600011091A830983011528E0120708F442C0BF
:10597000E12FFF27EE0FFF1FEE0FFF1FCF01885E05
:10598000914FFC01329625913491AA27039FA001E3
:10599000029F410D5A1F06944A1F5A1F1124FC01F1
:1059A00025913491241B350B2436310508F049C06C
:1059B00082E1E82E83E0F82ED7018D917D018823C6
:1059C00009F439C00E94D2C0F7CF80E49CE9BFCF70
:1059D000813137E2930720F09695879522E0BCCF7E
:1059E00021E020932F058032910508F0B7CF80E2A7
:1059F00090E0B4CF89819A81969587958C7F885E57
:105A0000954FFC0125913491FC01329645915491BA
:105A100069817A8167707727649FC001659F900DC7
:105A2000749F900D112443E0969587954A95E1F770
:105A3000281B390BB9CF89819A810E9431F924E65C
:105A400030E08091E60E811104C080913D0A8823E8
:105A5000C1F1C901293BBBE03B07B8F068EB7BE033
:105A60000F940F2E883EE3E09E0740F58854944F34
:105A7000A901481B590B70E060E04093FD0750936B
:105A8000FE076093FF07709300089093890080934E
:105A900088008091300590913105A0913205B09138
:105AA0003305820F931FA11DB11D80933005909384
:105AB0003105A0933205B0933305B9CE88EB9BE056
:105AC000D7CFC901E2CF20912D0530912E058091CD
:105AD000E60E811104C080913D0A8823E9F0293B3C
