:100000000C94FE180C9428190C9428190C94281997
:100010000C9428190C9428190C9428190C9428195C
:100020000C9428190C9428190C9428190C9428194C
:100030000C9428190C9426560C9428190C94281901
:100040000C9428190C9424AE0C94C6C20C94281954
:100050000C947F3F0C9428190C9428190C9428199F
:100060000C9428190C9428190C9428190C9428190C
:100070000C9428190C9428190C9428190C942819FC
:100080000C9428190C9428190C942819252E2A2E22
:100090002F2E392E672E432E4B2E532E5D2E2549A3
:1000A0002E49384941494A49654972497B49534972
:1000B0005C49735D765D695D6D5D8D5D7A5D7E5DCC
:1000C000845D885D4E414E494E495459494E46CD56
:1000D000CCCC3D0AD7233C17B7D13877CC2B3295FF
:1000E00095E6241FB14F0A000020410000C84200DD
:1000F000401C4620BCBE4CCA1B0E5AAEC59D744364
:100100004F4D4D554E49434154494F4E004452596D
:1001100052554E004552524F525300494E464F00E1
:100120004543484F0020746F6F206C6F6E672065E9
:100130007874727573696F6E2070726576656E740F
:1001400065640A0020636F6C64206578747275734F
:10015000696F6E2070726576656E7465640A005210
:1001600065706F732E2E2E0052657072692E20649A
:1001700065206C27696D70722E005A35532070729D
:100180006574652E00417474656E2E206465206C64
:10019000277574696C2E004D6F74657572732062DB
:1001A0006C6F717565732E00456E642066696C65B1
:1001B000206C6973740A00426567696E2066696C19
:1001C00065206C6973740A004D3132350053442048
:1001D0007072696E74696E67206279746520004E72
:1001E0006F74205344207072696E74696E670A00E0
:1001F00046696C652064656C657465643A004465A5
:100200006C6574696F6E206661696C65642C20464C
:10021000696C653A20006F70656E206661696C6577
:10022000642C2046696C653A20005072696E742017
:1002300074696D653A200050726F7465637465640B
:100240002050696E0A006D0046696C616D656E74C0
:1002500020757365643A200053746174733A20000A
:100260002C204C6F6E67657374206A6F623A2000B1
:10027000546F74616C2074696D653A200053746129
:1002800074733A20002C204661696C65643A200042
:100290002C2046696E69736865643A200050726963
:1002A0006E74733A200053746174733A20004525CC
:1002B000692025730020011B0114010D01FF006F4F
:1002C00066660044454255473A004D4F52542E0051
:1002D00043686175666665207465726D696E6565F3
:1002E0000020573A00452569202573004368617551
:1002F000666665206C6974207465726D696E6565EB
:100300000020573A004C697420656E20636861755F
:100310006666652E2E00454D455247454E43595F52
:1003200050415253455200434153455F4C49474861
:10033000545F4252494748544E45535300544F4727
:10034000474C455F4C494748545300534F46545718
:100350004152455F504F574552004255494C445F0A
:1003600050455243454E54004C4556454C494E4726
:100370005F44415441005A5F50524F42450041553D
:10038000544F4C4556454C005052494E545F4A4FCD
:10039000420050524F4752455353004155544F521B
:1003A00045504F52545F54454D5000564F4C554D9B
:1003B000455452494300454550524F4D0053455214
:1003C00049414C5F584F4E5F584F46460046495290
:1003D0004D574152455F4E414D453A4D61726C69F2
:1003E0006E2042617365206F6E204D61726C696E84
:1003F000312E312E382028476974687562292053C0
:100400004F555243455F434F44455F55524C3A6800
:10041000747470733A2F2F6769746875622E636FF6
:100420006D2F7A6F6E657374617233642050524F12
:10043000544F434F4C5F56455253494F4E3A312E1D
:1004400030204D414348494E455F545950453A5A32
:1004500035532045585452554445525F434F554EED
:10046000543A3120555549443A30303030303031EB
:10047000302D303830382D303030332D3030303072
:100480002D32303138303131303030310A002F2FB9
:10049000200066696C616D656E743A20007A5F6D4C
:1004A000696E3A2000795F6D696E3A2000785F6D61
:1004B000696E3A20005265706F7274696E672065CC
:1004C0006E6473746F70207374617475730A004D79
:1004D00031343520533C696E6465783E206F757405
:1004E000206F662072616E67652028302D31290AE1
:1004F0000053657474696E672054726176656C2070
:10050000416363656C65726174696F6E3A20005374
:10051000657474696E6720526574726163742041FA
:100520006363656C65726174696F6E3A2000536530
:100530007474696E67205072696E742041636365DC
:100540006C65726174696F6E3A20005365747469EA
:100550006E67205072696E7420616E6420547261FF
:1005600076656C20416363656C65726174696F6E5A
:100570003A2000205A00205900580020204D617870
:100580003A2000205A00205900580020204D696E62
:100590003A20004D617263686500417272657400B3
:1005A000536F667420656E6473746F70733A2000C5
:1005B000000117161815FF14131812FF1110180D4B
:1005C000FFFFFF011CFFFFFF1B1A18FFFF011800B0
:1005D000FF19FFFFFFFFFFFF20643A0020693A0088
:1005E00020703A0043290A0061626C656420286D1E
:1005F000696E2074656D702000436F6C64206578AF
:100600007472756465732061726520002364656689
:10061000696E65202044454641554C545F4B64202B
:100620000023646566696E65202044454641554C4B
:10063000545F4B69200023646566696E6520204421
:10064000454641554C545F4B702000504944204171
:1006500075746F74756E652066696E69736865641C
:10066000212050757420746865206C617374204B70
:10067000702C204B6920616E64204B6420636F6E88
:100680007374616E74732066726F6D2062656C6F37
:100690007720696E746F20436F6E6669677572614B
:1006A00074696F6E2E680A00504944204175746F5A
:1006B00074756E65206661696C6564212074696D6E
:1006C000656F75740A00454D42414C4C454D454E91
:1006D0005420544845524D2E00546865726D616C2B
:1006E0002052756E6177617900457272657572206E
:1006F0006465206368617566666500486561746954
:100700006E67206661696C656400504944204175DC
:10071000746F74756E65206661696C656421205420
:10072000656D706572617475726520746F6F206895
:100730006967680A00204B643A2000204B693A2020
:1007400000204B703A20000A20436C617373696388
:1007500020504944200A002054753A2000204B754F
:100760003A2000206D61783A2000206D696E3A20B1
:100770000020643A200020626961733A20004E6FC5
:100780002063617365206C696768740A0041637453
:100790006976652045787472756465723A200055F3
:1007A0006E6B6E6F776E20636F6D6D616E643A2055
:1007B00022002569730025696D202569730025696C
:1007C000682025696D2025697300256964202569E5
:1007D000682025696D2025697300256979202569C0
:1007E00064202569682025696D20256973004C699E
:1007F0006E65204E756D626572206973206E6F7430
:10080000204C617374204C696E65204E756D626575
:10081000722B312C204C617374204C696E653A2028
:10082000004D4F52542E0053544F5050652E0050DF
:1008300072696E7465722073746F70706564206481
:10084000756520746F206572726F72732E20466911
:100850007820746865206572726F7220616E642002
:10086000757365204D39393920746F207265737442
:100870006172742E202854656D7065726174757292
:10088000652069732072657365742E20536574202A
:100890006974206166746572207265737461727424
:1008A000696E67290A004E6F20436865636B737534
:1008B0006D2077697468206C696E65206E756D6255
:1008C00065722C204C617374204C696E653A20006F
:1008D000636865636B73756D206D69736D617463B7
:1008E000682C204C617374204C696E653A20004D71
:1008F000313130004D333100534420726561642042
:100900006572726F720A00446F6E65207072696E54
:1009100074696E672066696C650A006F6B005A35F2
:10092000532041727265742E00205A3A0020593AC1
:100930000020436F756E7420583A0020453A00201D
:100940005A3A0020593A00583A003A004361703A46
:1009500000706F75722072657072656E64726500EA
:10096000617474656E746520696D70726573736906
:100970006F6E005052494E5420504155534544002B
:1009800000060900FE0701920321207FFF07FF07F1
:10099000FF000000060000010707060200808080BB
:1009A00080800080030202060105A0A0050707065B
:1009B00000005050F850F85050050707060000207E
:1009C00078A07028F020050707060000C0C8102096
:1009D0004098180507070600006090A040A890689E
:1009E000020303060104C04080030707060100203C
:1009F00040808080402003070706010080402020BF
:100A000020408005050506000120A870A8200505E6
:100A1000050600012020F820200203030602FFC083
:100A20004080050101060003F8020202060200C030
:100A3000C0050505060001081020408005070706CF
:100A400000007088888888887003070706010040C6
:100A5000C040404040E0050707060000708808706D
:100A60008080F8050707060000F81020100808F03D
:100A700005070706000010305090F8101005070712
:100A8000060000F880F008088870050707060000D7
:100A9000708080F0888870050707060000F808104D
:100AA00020202020050707060000708888708888AD
:100AB000700507070600007088887808087002052E
:100AC00005060200C0C000C0C00206060602FFC044
:100AD000C000C0408004070706000010204080408E
:100AE0002010050303060002F800F80407070601BA
:100AF0000080402010204080050707060000708815
:100B0000081020002005070706000070880868A864
:100B1000A870050707060000708888F8888888058F
:100B20000707060000F08888F08888F005070706A8
:100B3000000070888080808870050707060000F03C
:100B40008888888888F0050707060000F88080F00C
:100B50008080F8050707060000F88080F08080801C
:100B6000050707060000708880B8888870050707A9
:100B7000060000888888F888888801070706020030
:100B80008080808080808005070706000038101074
:100B9000101090600507070600008890A0C0A09084
:100BA00088050707060000808080808080F80507A0
:100BB0000706000088D8A8888888880507070600E7
:100BC000008888C8A89888880507070600007088EC
:100BD0008888888870050707060000F08888F080FC
:100BE000808005070706000070888888A89068053F
:100BF0000707060000F08888F0A090880507070620
:100C00000000788080700808F0050707060000F8EB
:100C100020202020202005070706000088888888DB
:100C20008888700507070600008888888888502013
:100C30000507070600008888888888A850050707E8
:100C400006000088885020508888050707060000A5
:100C500088888850202020050707060000F8081023
:100C6000204080F8030707060100E0808080808034
:100C7000E00505050600018040201008030707066F
:100C80000100E02020202020E005030306000420CE
:100C90005088050101060000F802020206020580E4
:100CA00040050505060000700878887805070706E6
:100CB00000008080B0C88888F00505050600007037
:100CC00080808870050707060000080868988888F3
:100CD000780505050600007088F88070050707068E
:100CE00000003048E0404040400506060600FF7026
:100CF00088887808700507070600008080B0C888DB
:100D000088880107070602008000808080808003B9
:100D100008080601FF200020202020A0400407072B
:100D2000060000808090A0C0A09003070706010085
:100D3000C04040404040E0050505060000D0A8A89E
:100D4000A8A8050505060000B0C88888880505051F
:100D500006000070888888700506060600FFF08887
:100D600088F080800506060600FF788888780808E5
:100D7000050505060000B0C8808080050505060051
:100D80000070807008F00407070600004040E04053
:100D900040403005050506000088888898680505EC
:100DA0000506000088888850200505050600008893
:100DB00088A8A85005050506000088502050880521
:100DC00006060600FF888888780870050505060075
:100DD00000F8102040F8030707060100204040807B
:100DE00040402001070706020080808080808080CC
:100DF00003070706010080404020404080050202B2
:100E000006000268900000000600005072656368EA
:100E10006175666661676520504C412066696E6940
:100E20000050726563682E20504C41206C6974003C
:100E300050726563686175666661676520504C41F4
:100E4000005072657061726572005072656368610E
:100E5000756666616765204142532066696E690068
:100E600050726563686175666661676520414253CB
:100E70000050726563682E20414253206C697400F3
:100E80005072657061726572005265746F757200A0
:100E90004E65787420636F726E6572005072656380
:100EA000686175666661676520504C4100526566F1
:100EB000726F69646972004368616E67657220666B
:100EC000696C616D656E740050726563686175660A
:100ED00066616765204142530041727265746572B4
:100EE000206D6F7465757273004D3834004C6576F3
:100EF000656C20636F726E657273004F726967690B
:100F00006E65205A204175746F2E00473238205A82
:100F1000004F726967696E652059204175746F2EA4
:100F2000004732382059004F726967696E65205852
:100F3000204175746F2E004732382058004F726977
:100F400067696E65206175746F2E00473238004402
:100F500065706C6163657220756E20617865004D07
:100F6000656E75207072696E636970616C004465AE
:100F7000706C2E2058004465706C2E20590044651A
:100F8000706C2E205A004578747275646572004446
:100F900065706C2E20302E316D6D004465706C2EA6
:100FA00020316D6D004465706C2E2031306D6D0008
:100FB0004465706C6163657220756E2061786500B0
:100FC0004578747275646572004465706C2E205AA1
:100FD000004465706C2E2059004465706C2E2058BA
:100FE0000024F4D43050C38E20C2A24017828B70EC
:100FF00011127A910D816CD90AA861E108C758666F
:1010000007615143061E4B5D05C145A7041A4111F6
:1010100004093D9803713931034036DB0265339191
:1010200002D4305402802E1D02632CEE01752AC5B5
:1010300001B028A001102781018F2564012B244BCA
:1010400001E0223401AC211F018D200D01801FFC25
:1010500000841EED00971DDF00B81CD200E61BC601
:1010600000201BBC00641AB200B219A8000A19A023
:10107000006A189900D117910040178B00B51684AB
:101080000031167E00B31579003A157300C7146F4E
:101090000058146A00EE1366008813630025135E7F
:1010A00000C7125B006C12570015125400C1115199
:1010B0000070114F0021114B00D61049008D1047D0
:1010C000004610440002104200C00F4000800F3E56
:1010D00000420F3C00060F3B00CB0E3800930E374A
:1010E000005C0E3500270E3400F30D3200C10D31C7
:1010F00000900D3000600D2E00320D2D00050D2CDE
:1011000000D90C2B00AE0C2900850C29005C0C27A3
:1011100000350C27000E0C2600E80B2400C40B241D
:1011200000A00B23007D0B23005A0B2100390B215B
:1011300000180B2000F80A1F00D90A1E00BB0A1E67
:10114000009D0A1D00800A1D00630A1C00470A1B3F
:10115000002C0A1B00110A1A00F7091A00DD0919F0
:1011600000C4091900AB091900920917007B09187E
:1011700000630917004C09160036091600200916ED
:10118000000A091500F5081500E0081400CC081441
:1011900000B8081400A4081400900813007D081279
:1011A000006B08130058081200460812003408119A
:1011B00000230811001208110001081100F00710A7
:1011C00000E0071000D0071000C0071000B0070FA4
:1011D00000A107100091070E0083070F0074070F8E
:1011E0000065070E0057070E0049070E003B070D6C
:1011F000002E070E0020070D0013070D0006070D37
:1012000000F9060C00ED060D00E0060C00D4060CFB
:1012100000C8060C00BC060C00B0060C00A4060BAF
:101220000099060C008D060B0082060B0077060B5A
:10123000006C060B0061060A0057060B004C060AFC
:101240000042060A0038060A002E060A0024060A92
:10125000001A060A001006090007060A00FD050923
:1012600000F4050900EB050900E2050900D90509AC
:1012700000D0050900C7050900BE050900B505082D
:1012800000AD050800A50509009C050800940508A7
:10129000008C050800840508007C0508007405081A
:1012A000006C050700650508005D05070056050888
:1012B000004E0507004705070040050800380507F0
:1012C00000310507002A050700230507001C050655
:1012D00000160507000F05070008050600020507B0
:1012E00000FB040600F5040700EE040600E804060F
:1012F00000E2040700DB040600D5040600CF040664
:1013000000C9040600C3040600BD040600B70406B5
:1013100000B1040500AC040600A6040600A0040504
:10132000009B04060095040500900406008A04054D
:101330000085040500800406007A04050075040594
:1013400000700405006B04050066040500610405D7
:10135000005C04050057040500520405004D040517
:101360000048040500430405003E0404003A040557
:101370000035040500300404002C04050027040493
:1013800000230405001E0404001A040400160405CA
:1013900000110404000D0404000904050004040401
:1013A0000000040400FC030400F8030400F4030438
:1013B00000F0030400EC030400E8030400E4030469
:1013C00000E0030400DC030400D8030400D4030499
:1013D00000D0030400CC030400C8030300C50303CA
:1013E0000024F404D9201BC40C5C0E9804C4095FCB
:1013F0000265077101F405F900FB04B30048048796
:1014000000C10369005803550003034500BE023ABA
:10141000008402310053022A002902250004022020
:1014200000E4011C00C8011900AF01170098011465
:101430000084011300710110006101100051010EC0
:101440000043010D0036010B002B010B0020010BA6
:1014500000150109000C01090003010800FB000848
:1014600000F3000800EB000700E4000600DE0006C1
:1014700000D8000600D2000600CC000500C7000519
:1014800000C2000500BD000400B9000400B500045E
:1014900000B1000400AD000400A9000400A5000391
:1014A00000A20003009F0004009B000300980003BB
:1014B000009500020093000300900003008D0002DD
:1014C000008B0003008800020086000200840003F5
:1014D00000810002007F0002007D0002007B00020C
:1014E000007900020077000100760002007400021B
:1014F0000072000100710002006F0002006D000127
:10150000006C0002006A000100690002006700012F
:101510000066000100650001006400020062000135
:101520000061000100600001005F0002005D000139
:10153000005C0001005B0001005A0001005900013D
:10154000005800010057000100560001005500013D
:10155000005400010053000000530001005200013C
:101560000051000100500001004F0001004E00003A
:10157000004E0001004D0001004C0001004B000036
:10158000004B0001004A0001004900010048000032
:10159000004800010047000100460000004600012D
:1015A0000045000000450001004400010043000028
:1015B0000043000100420000004200010041000021
:1015C0000041000100400001003F0000003F000119
:1015D000003E0000003E0001003D0000003D000113
:1015E000003C0000003C0000003C0001003B00000B
:1015F000003B0001003A0000003A00010039000001
:1016000000390001003800000038000000380001F7
:1016100000370000003700010036000000360000EF
:1016200000360001003500000035000000350001E3
:1016300000340000003400000034000100330000DA
:1016400000330000003300010032000000320000CF
:1016500000320001003100000031000000310001C3
:10166000003000000030000000300001002F0000BA
:10167000002F0000002F0000002F0001002E0000AE
:10168000002E0000002E0001002D0000002D0000A3
:10169000002D0000002D0001002C0000002C000097
:1016A000002C0000002C0001002B0000002B00008B
:1016B000002B0000002B0001002A0000002A00007F
:1016C000002A0000002A0001002900000029000073
:1016D0000029000000290000002900010028000066
:1016E0000028000000280000002800000028000159
:1016F000002700000027000000270000002700004E
:10170000002700010026000000260000002600003F
:101710000026000000260001002500000025000032
:101720000025000000250000002500000025000124
:101730000024000000240000002400000024000019
:10174000002400010023000000230000002300000B
:1017500000230000002300000023000000230001FC
:1017600000220000002200000022000000220000F1
:1017700000220000002200010021000000210000E2
:1017800000210000002100000021000000210000D5
:1017900000210001002000000020000000200000C7
:1017A00000200000002000000020000000200000B9
:1017B00000200001001F0000001F0000001F0000AB
:1017C000001F0000001F0000001F0000001F00019C
:1017D000001E0000001E0000001E0000001E000091
:1017E000006265640A002C2073797374656D207340
:1017F000746F7070656421204865617465725F491B
:10180000443A2000457272657572206465206368F1
:1018100061756666650048656174696E672066611A
:10182000696C6564001000AA038000400100012C6F
:1018300001B001220140021001F00202018003F810
:10184000004004F500E004ED009005E4003006DD02
:1018500000E006D7008007D1003008CC00D008C7D0
:10186000007009C300100ABE00B00ABB00500BB7DD
:1018700000900CB300D00DAA00B00FA5005010A02E
:1018800000101496009016900010198C00501A85C4
:1018900000301C820070227800B023750040256E55
:1018A0000020276900A0296400502A5F00902B5A6D
:1018B00000D02C5500702D4F00E02E4800503145CF
:1018C0000030334100D035390060363700103733EF
:1018D00000F0382D00A0392700803C1C00403D1747
:1018E00000F03D1100803E0900D03FE5FF000021DF
:1018F00000240027002A0000002200250028002BD9
:10190000000000200023002600290002020202023B
:101910000202020404040404040404030303030392
:101920000303030101010101010101010204081087
:1019300020408001020408102040800102040810A9
:1019400020408080402010080402010000000102B5
:101950000000000000000004030706000000000073
:1019600000000000000000000000004D4F52542E07
:1019700000202D20496E76616C6964206578747250
:1019800075646572206E756D62657220210A0000B3
:101990000000000000000000000000000000000047
:1019A0000000000000000000000000000000000037
:1019B0000000000000000000000000000000000027
:1019C0000000000000000000000000000000000710
:1019D000FF01FE070183FE0FF8FFF807007FC00735
:1019E000FF83FF0F8187FE1FF8FFF80F80FFE007DE
:1019F000FFC7038F818FFC3FF0FFF81FC0E0E000BE
:101A000003C6018FC18C00380007001FC0C06000F2
:101A10000786018CC18C00300007003DE0C06000EB
:101A20000F06018CE18C003800070038E0E0E00090
:101A30001E06018C618FFE3FF0070038E0FFC000FA
:101A40003C06018C618FFE1FF807003060FF8000AC
:101A50007806018C318FFC0FFC07007270FC0000CF
:101A6000F006018C318E00001C07006230CE0001B0
:101A7000E006018C398C00000C07006730C70003BA
:101A8000C006018C198C00000C07006730C380076A
:101A90008007038C198E00001C0700CF98C1C00777
:101AA000FFC7FF8C0F8FFF1FFC0700CF98C0F0030C
:101AB000FFC3FF0C0F87FF3FF80700DFD8C070019E
:101AC000FFC1FE0C0701FE3FF00700000000000010
:101AD0000000000000000000000000000000000006
:101AE00000000000000000000000000000000000F6
:101AF00000000000000000000000000000000000E6
:101B000000000000000000000000000000000020B5
:101B100020506C616E6E65724275666665724279C0
:101B20007465733A20002046726565204D656D6FBF
:101B300072793A2000436F6D70696C65643A204D8C
:101B4000617920333120323031390A00207C204144
:101B50007574686F723A202848616C6C79405A4FEE
:101B60004E4553544152290A00323031392D303517
:101B70002D313000204C61737420557064617465A0
:101B8000643A200042617365206F6E204D61726C73
:101B9000696E312E312E380A004D61726C696E000B
:101BA00020536F6674776172652052657365740A9D
:101BB00000205761746368646F67205265736574B1
:101BC0000A002042726F776E206F75742052657321
:101BD00065740A002045787465726E616C205265E8
:101BE0007365740A00506F77657255700A007374DC
:101BF0006172740A006572726F722077726974691B
:101C00006E6720746F2066696C650A0042757465A2
:101C1000657320256320256320256320256300202C
:101C20005A3A0020593A0020583A00656E6473749D
:101C30006F7073206869743A2000446F6E6520737A
:101C40006176696E672066696C652E0A004D3239CF
:101C500000457874727564657572733A2031006856
:101C60007474703A2F2F7777772E7A6F6E6573744E
:101C7000617233642E636F6D005A35530032303118
:101C8000392D30352D31300042617365206F6E2063
:101C90004D61726C696E312E312E380056322E3104
:101CA000004865617465722054657374696E6700DD
:101CB0004D31303420533236300A4D3134302053D8
:101CC0003131350A4D3130362053300A00417574B8
:101CD0006F20557020646F776E004D32303320587E
:101CE0003135302059313530205A31360A473020CD
:101CF000583232302059323230205A323330204676
:101D00003936300A4730205830205930205A313087
:101D100020463936300A4730205833303020593386
:101D20003030205A34303020463936300A4730209F
:101D30005830205930205A313020463936300A4741
:101D40003020583232302059323230205A3233303B
:101D500020463936300A4730205830205930205A32
:101D6000313020463936300A473020583232302060
:101D700059323230205A32333020463936300A4711
:101D800030205830205930205A31302046393630F2
:101D90000A473020583232302059323230205A32FD
:101DA000333020463936300A4730205830205930F9
:101DB000205A313020463936300A4732380A4D32FF
:101DC000303320583135302059313030205A380ADC
:101DD0004D333030205333303030205031303030BC
:101DE000004661737420746F20426F74746F6D00CD
:101DF0004D32303320583135302059313530205A6A
:101E000031360A4732382058300A4730205A3020BD
:101E1000463936300A4D323033205831353020596A
:101E2000313030205A380A004661737420746F20B4
:101E3000546F70004D3230332058313530205931D5
:101E40003530205A31360A47302058323230205946
:101E5000323230205A32333020463936300A4D3251
:101E6000303320583135302059313030205A380A3B
:101E7000004F726967696E65206175746F2E004747
:101E800032380053746174732E20696D7072696DFD
:101E9000616E746500546865726D6973746F7273F6
:101EA00000496E666F7320636172746500496E66E7
:101EB0006F7320696D7072696D616E7465004D6538
:101EC0006E75207072696E636970616C00202042CB
:101ED0007573653A200020005265746F7572004C6E
:101EE000612074656D702E206D696E696D756D2051
:101EF000657374203135302E00457272657572201D
:101F000064652063686175666665002B206578747A
:101F1000727573696F6E0052657072656E6472657A
:101F200020696D70722E00524553554D45204F501B
:101F300054494F4E533A002020427573653A2000B1
:101F40006368616E6765720064752066696C616DB7
:101F5000656E7400417474656E74652044656D61CE
:101F60007272616765005052494E5420504155537A
:101F70004544002020427573653A200020006465C6
:101F8000636861726765722066696C616D656E7405
:101F900000617474656E7465206465005052494E2A
:101FA0005420504155534544002020427573653AF2
:101FB0002000200050617469656E74657A20535664
:101FC000502E2E2E004275736520656E2063686169
:101FD00075666665005052494E5420504155534530
:101FE00044002020427573653A2000200050722082
:101FF0006368617566666572206C612062757365E1
:102000000050726573736572206C6520626F757421
:102010006F6E2E2E2E005052494E54205041555373
:102020004544002020427573653A2000706F757238
:1020300020636F6E74696E7565722E2E2E00657446
:10204000206170702E20626F75746F6E00696E7300
:10205000657265722066696C616D656E74005052C0
:10206000494E542050415553454400202042757339
:10207000653A200020006368617267656D656E7463
:102080002066696C616D656E7400617474656E7450
:1020900065206465005052494E54205041555345C7
:1020A00044002020427573653A2000200065787452
:1020B000727573696F6E2066696C616D656E740010
:1020C000617474656E7465206465005052494E54A5
:1020D0002050415553454400457061732F6D6D008C
:1020E000457061732F6D6D005A7061732F6D6D00B7
:1020F0005A7061732F6D6D00597061732F6D6D0093
:10210000597061732F6D6D00587061732F6D6D0084
:10211000587061732F6D6D004D6F7576656D656ECE
:1021200074005061732F6D6D004A65726B004163DE
:1021300063656C65726174696F6E0056656C6F6380
:10214000697465005A204D696E20506F732E005AD5
:10215000204D696E20506F732E0059204D696E20FE
:10216000506F732E0059204D696E20506F732E00F2
:1021700058204D696E20506F732E0058204D696EA7
:1021800020506F732E00436F6E74726F6C65720017
:1021900043616E6E6F7420656E7465722073756234
:1021A0006469723A2000022E2E0001416374756149
:1021B0006C69736572004D656E75207072696E632F
:1021C0006970616C0000546F74616C2066696C61A9
:1021D0006D656E743A2000256C642E25696D0000D3
:1021E000496D70722E206C61202B206C6F6E6775AC
:1021F000653A20000054707320696D70722E20744F
:102200006F74616C3A20005465726D696E65657318
:102210003A20004E62726520696D70726573736951
:102220006F6E733A200054656D70204D61783A20CE
:102230003133300054656D70204D696E3A203500A1
:10224000544265643A3130304B2031252062657448
:102250006120333935300054656D70204D61783A16
:10226000203237350054656D70204D696E3A203547
:102270000054303A203130304B20312520626574D3
:1022800061203339353000416C696D656E7461745D
:10229000696F6E3A2047656E657269630050726FB0
:1022A000746F636F6C653A20312E30004261756443
:1022B0003A20313135323030005A4F4E4553544177
:1022C000525F4C43443132383634005A4D494256FD
:1022D0003220285A4F4E4553544152290020746FE2
:1022E0006F206C6F6E6720657874727573696F6E9E
:1022F0002070726576656E7465640A0020636F6C89
:102300006420657874727573696F6E20707265767B
:10231000656E7465640A0025753A253032750025AE
:102320003032753A253032750025756420253032FB
:10233000753A25303275005A0059005800092000BE
:102340000000000000000000000000007FFFE0002F
:1023500000000000000000000000007000E000002D
:102360000000000000000000000061F860000000B4
:1023700000000000000000000041F8200000000004
:10238000000000000000000040F0200000000000FD
:10239000000000000000004060200000000000007D
:1023A0000000000000005801A07F80000000000035
:1023B00000004104005C63A0FFC0000000000000BA
:1023C000002082005EF7A0FFC000000000000000B7
:1023D0002082005EF7A0FFC0000000000000004166
:1023E00004005C63A07F8000000000000000820801
:1023F000005801A07F8000000000000001041000D0
:10240000406020FFC00000000000000104100040F8
:10241000F020FFC00000000000000082080041F82A
:1024200020FFC00000000000000041040061F860CF
:102430003F00000000000000000000007000E01EEF
:102440000000000000000001FFFF807FFFE00C00A3
:1024500000000000000001FFFF80000000000000FD
:102460000000000000000000007FFFE0000000000E
:1024700000000000000000007000E000000000000C
:1024800000000000000000630C600000000000007D
:10249000000000000000470E2000000000000000C7
:1024A00000000000004F0F200000000000000000AE
:1024B000000000005F0FA00000000000000000000E
:1024C0000000005E07A07F800000000000000041C7
:1024D0000400406020FFC0000000000000002082D7
:1024E0000040F020FFC0000000000000002082003B
:1024F00040F020FFC0000000000000004104004048
:1025000060207F80000000000000008208005E075D
:10251000A07F80000000000000010410005F0FA0F9
:10252000FFC0000000000000010410004F0F20FF5A
:10253000C000000000000000820800470E20FFC01D
:1025400000000000000000410400630C603F000038
:102550000000000000000000007000E01E0000000D
:102560000000000001FFFF807FFFE00C0000000082
:1025700000000001FFFF8000000000060900FE00CF
:102580000000000001090008FE0000050808060020
:102590000040F0C88888987810050808060000C038
:1025A000F88888888888F80505050600012030F835
:1025B00030200508080600002070F820202020E0C8
:1025C0000509090600FF2070A8A8B88888702005B2
:1025D00009090600FFE080C0B0A8283028280509B6
:1025E000090600FFF8A88888888888A8F8050A0ADC
:1025F0000600FE205050505088A8A888700303039E
:1026000006000340A04052615A2E20535650004904
:102610004D50522E2053544F505065450050726912
:102620006E7465722068616C7465642E206B696CD1
:102630006C28292063616C6C6564210A00656E71E9
:1026400075657565696E67202200000048420000CC
:10265000484200000040000000005761726E696E41
:10266000673A20486F6D696E672042756D7020442F
:10267000697669736F72203C20310A0002020400FF
:1026800000A0400000A0400000004000007A43008D
:10269000005C4300006843FFFFFF4D3630302048A8
:1026A0006F74656E6420746F6F20636F6C64207448
:1026B0006F206368616E67652066696C616D656E29
:1026C000740A007C3C3E5E2B3D3F2F5B5D3B2C2A19
:1026D000225C004572726F722077726974696E674E
:1026E00020746F20454550524F4D210A00457874A3
:1026F0007275646572004465706C2E205A004465E2
:10270000706C2E2059004465706C2E205800507259
:1027100065706172657200496E697469616C697394
:10272000657220454550524F4D00436F6E74726F75
:102730006C657200526573746175726572206465B0
:102740006661757473004C69726520636F6E6669AB
:102750006700496E697469616C69736572204545EB
:1027600050524F4D0053617576657220636F6E66EF
:102770006967004D6F7576656D656E740054656DA3
:102780007065726174757265004D656E752070724A
:10279000696E636970616C005265676C2E2070729F
:1027A0006563682E20414253005265676C2E20708D
:1027B000726563682E20504C41005049442D4400FE
:1027C0005049442D44005049442D49005049442D5E
:1027D00049005049442D50005049442D500056693D
:1027E00074657373652076656E74696C2E00566926
:1027F00074657373652076656E74696C2E004C6920
:1028000074004C697400427573650042757365000D
:10281000436F6E74726F6C6572005361757665728A
:1028200020636F6E666967004C6974004C697400C0
:1028300042757365004275736500566974657373FC
:10284000652076656E74696C2E00566974657373C5
:10285000652076656E74696C2E0054656D706572C6
:10286000617475726500290A002062797465733B92
:1028700020637263200053657474696E677320531C
:10288000746F726564202800202863616C63756C26
:102890006174656429210A0020213D2000454550CE
:1028A000524F4D20435243206D69736D61746368CC
:1028B000202D202873746F726564292000290A0076
:1028C0002062797465733B20637263200020737407
:1028D0006F7265642073657474696E6773207265C6
:1028E00074726965766564202800204D61726C6998
:1028F0006E3D563530290A0028454550524F4D3D12
:1029000000454550524F4D2076657273696F6E20B9
:102910006D69736D61746368200053442063617254
:1029200064206F6B0A006F70656E526F6F74206663
:1029300061696C65640A00766F6C756D652E696EF1
:102940006974206661696C65640A00534420696E8D
:102950006974206661696C0A006175746F25692E5F
:1029600067004D3234004D323320257300577269B1
:1029700074696E6720746F2066696C653A20006F19
:1029800070656E206661696C65642C2046696C65B3
:102990003A20006F70656E206661696C65642C205A
:1029A00046696C653A200046696C652073656C6504
:1029B000637465640A002053697A653A20004669A9
:1029C0006C65206F70656E65643A20006F70656E8F
:1029D000206661696C65642C2046696C653A20004C
:1029E0002066696C653A2000646F696E67006672E4
:1029F000657368004E6F772000454E442053554262
:102A0000524F5554494E450A002220706F730022E0
:102A100020706172656E743A2200535542524F55D0
:102A200054494E452043414C4C2074617267657493
:102A30003A22004D4F52542E00747279696E67200D
:102A4000746F2063616C6C207375622D67636F64B3
:102A5000652066696C6573207769746820746F6F90
:102A6000206D616E79206C6576656C732E204D410A
:102A700058206C6576656C2069733A004572726FF8
:102A8000723A001000AA038000400100012C01B03E
:102A900001220140021001F00202018003F800400F
:102AA00004F500E004ED009005E4003006DD00E0F0
:102AB00006D7008007D1003008CC00D008C70070CE
:102AC00009C300100ABE00B00ABB00500BB700904B
:102AD0000CB300D00DAA00B00FA500F010A000307C
:102AE000129600D0129000F0158B00D0178500B020
:102AF000198000F01A7B00701D7500F01F6F0070C8
:102B00002269004025640020275F00A0295A009018
:102B10002B5500102D4F00502E4800E0314500305D
:102B2000334100D03539006036370010373300F0BC
:102B3000382D00A0392700803C1C00403D1700F0D4
:102B40003D1100803E0900D03FE5FF4572723A20FA
:102B500054454D502E204D494E204C49540045724D
:102B6000723A2054454D502E204D494E004D494E4D
:102B700054454D50207472696767657265640045FD
:102B800072723A2054454D502E204D4158204C49E8
:102B900054004572723A2054454D502E204D4158F4
:102BA000004D415854454D502074726967676572F5
:102BB000656400202F002042403A0020403A00483F
:102BC000617264636F6465642044656661756C74EA
:102BD0002053657474696E6773204C6F616465641B
:102BE0000A00D007000020030000640000008813E2
:102BF0000000000016430000C84200000041000031
:102C000048420000A0420000A0420000C84300006B
:102C1000A04220440020490020204D333031205074
:102C2000005049442073657474696E67733A0A00F2
:102C300020460020420020480020204D313435201D
:102C400053004D6174657269616C206865617475CB
:102C50007020706172616D65746572733A0A00204C
:102C60004500205A002059002058002042002054DE
:102C70000020204D323035205300416476616E6370
:102C800065643A20533C6D696E5F66656564726188
:102C900074653E20543C6D696E5F74726176656C3C
:102CA0005F66656564726174653E20423C6D696E65
:102CB0005F7365676D656E745F74696D655F75736D
:102CC0003E20583C6D61785F78795F6A65726B3E33
:102CD000205A3C6D61785F7A5F6A65726B3E204571
:102CE0003C6D61785F655F6A65726B3E0A002054D7
:102CF0000020520020204D323034205000416363C8
:102D0000656C65726174696F6E2028756E69747385
:102D10002F7332293A20503C7072696E745F616380
:102D200063656C3E20523C726574726163745F61CE
:102D30006363656C3E20543C74726176656C5F61C0
:102D40006363656C3E0A00204500205A002059004C
:102D500020204D3230312058004D6178696D756DFD
:102D600020416363656C65726174696F6E202875BC
:102D70006E6974732F7332293A0A00204500205A75
:102D80000020590020204D3230332058004D61780A
:102D9000696D756D20666565647261746573202860
:102DA000756E6974732F73293A0A00204500205A02
:102DB0000020590020204D3932205800537465708E
:102DC000732070657220756E69743A0A0020204D78
:102DD0003230302044300A0020204D323030204440
:102DE000002044697361626C65640A0046696C6125
:102DF0006D656E742073657474696E67733A002034
:102E0000204D3134392043203B20556E69747320A6
:102E1000696E2043656C736975730A002020473220
:102E200031202020203B20556E69747320696E206C
:102E30006D6D0A0043616E6E6F74206F70656E2059
:102E400073756264697220006563686F3A00454D6E
:102E500042414C4C454D454E5420544845524D2E10
:102E600000546865726D616C2052756E617761798E
:102E700000496D70722E20656E207061757365005B
:102E80004D31323500004D323400496D70722E20C4
:102E9000416E6E756C656500496E69742E206C61BB
:102EA000206361727465205344004D3231005061DB
:102EB00073206465206361727465004368616E67A6
:102EC0006572206465206361727465004D32310063
:102ED000496D70722E2064657075697320534400CB
:102EE0004172726574657220696D70722E00496E50
:102EF000666F7320696D7072696D616E74650052E2
:102F0000657072656E64726520696D70722E00491D
:102F10006E746572726F6D70726520696D70722E5D
:102F200000436F6E74726F6C6572005072657061F1
:102F3000726572005265676C6572005375727665D2
:102F4000696C6C6572004261627973746570205AB5
:102F5000004D363030204230004368616E67657244
:102F60002066696C616D656E74004261627973748C
:102F70006570205A00466C757800466C757800566E
:102F80006974657373652076656E74696C2E00567E
:102F90006974657373652076656E74696C2E004C78
:102FA0006974004C697400427573650042757365FD
:102FB00000205669746573736500205669746573E3
:102FC0007365004D656E75207072696E636970611E
:102FD0006C00566465706C206D696E005664657097
:102FE0006C206D696E00566465706C206D696E00B2
:102FF000566D696E00566D696E00566D696E0056AD
:103000006D61784500566D61784500566D61784573
:1030100000566D61785A00566D61785A00566D61A0
:10302000785A00566D61785900566D61785900568E
:103030006D61785900566D61785800566D61785809
:1030400000566D617858004D6F7576656D656E74CC
:1030500000416D6178204500416D61782045004157
:103060006D6178205A00416D6178205A00416D6190
:1030700078205900416D6178205900416D617820B8
:103080005800416D6178205800412D4465706C2EC8
:1030900000412D4465706C2E00412D726574726183
:1030A000637400412D7265747261637400416363DF
:1030B000656C65726174696F6E00416363656C6510
:1030C000726174696F6E004D6F7576656D656E74B3
:1030D0000056652D6A65726B0056652D6A65726BC8
:1030E0000056652D6A65726B00567A2D6A65726BA3
:1030F00000567A2D6A65726B0056792D6A65726B7F
:103100000056792D6A65726B0056792D6A65726B6F
:103110000056782D6A65726B0056782D6A65726B61
:103120000056782D6A65726B004D6F7576656D651A
:103130006E74004F726967696E652025732573256B
:1031400073205072656D69657200205072656D69FB
:1031500065720A005A00590058004F726967696E1B
:10316000652000526573656E643A20006F6B004DF8
:103170003630300043617463682066696C616D6548
:103180006E742072756E206F7574210A004D4F5257
:10319000542E004B494C4C2063617573656420626A
:1031A0007920746F6F206D75636820696E61637438
:1031B0006976652074696D65202D2063757272656E
:1031C0006E7420636F6D6D616E643A200046696CA9
:1031D000616D656E7420696E73657274210A0043B7
:1031E000617463682066696C616D656E74207275C8
:1031F0006E206F7574210A00A4DE83DE11241FBEC9
:10320000CFEFD0E4DEBFCDBF12E0A0E0B1E0E4EA52
:10321000FDED01E00BBF02C007900D92A438B1078D
:10322000D9F722E1A4E8B2E001C01D92A83DB2079F
:10323000E1F718E1CDEFD8E104C02197FE010E942B
:1032400035EECC3FD107C9F70E946EDA0C94C5EE7B
:103250000C9400002F923F924F925F926F927F9258
:103260008F929F92AF92BF92CF92DF92EF92FF9296
:103270000F931F93CF93DF93CDB7DEB7C258D10919
:103280000FB6F894DEBF0FBECDBF809111128D3402
:1032900009F496C2843511F40C948E2D873411F004
:1032A0000C94D02D80910F12909110128B319105BA
:1032B00009F407C264F497FF02C00C94EA2D82302F
:1032C000910554F1049709F4CDC10C94EA2D8A3587
:1032D000910509F426C24CF44C9711F00C94EA2D98
:1032E00080E00E94B03E0C94EA2D8B35910509F4E4
:1032F0001CC28C35910511F00C94EA2D0E94EA5500
:1033000093E8292E91E0392E2CECE22E21E1F22EC9
:1033100000E0D12C10E033C280910E01882311F41B
:103320000C94EA2D37E8C32E3AE0D32E4CECE42E71
:1033300041E1F42E54E8A52E52E0B52E03E811E049
:1033400064E0962E900ED8018D918D010E94D436A6
:103350008823D9F00E94A136F5012081211104C0F3
:1033600020918802222331F0D7012D913D914D917A
:103370005C9103C020E030E0A9010E94E6EBF60179
:1033800060837183828393830AC0F7018081918176
:10339000A281B381F60180839183A283B383F4E099
:1033A000CF0ED11C24E0E20EF11C3FEFA31AB30AAA
:1033B0009012C9CF86E40E9403378823C9F00E9487
:1033C000A13620E030E0A9010E9469ED181684F4CE
:1033D0000E94A13620E030E040E752E40E9469EC10
:1033E00060930001709301018093020190930301A7
:1033F00080913A1083FD2AC06091930A7091940ADB
:103400008091950A9091960A2091D8113091D91106
:103410004091DA115091DB11E0919D0DEE23B1F056
:103420000E94E5EB9B01AC0160918F0D7091900DB6
:103430008091910D9091920D0E94E6EB60938F0D1B
:103440007093900D8093910D9093920D809108014F
:10345000882309F454C020E030E04CE553E4609147
:10346000870A7091880A8091890A90918A0A0E943D
:1034700069ED181664F480E090E0ACE5B3E4809365
:10348000870A9093880AA093890AB0938A0A20E059
:1034900030E04CE553E460918B0A70918C0A809186
:1034A0008D0A90918E0A0E9469ED181664F480E0EE
:1034B00090E0ACE5B3E480938B0A90938C0AA093E0
:1034C0008D0AB0938E0A20E030E046E653E4609126
:1034D0008F0A7091900A8091910A9091920A0E94AD
:1034E00069ED181664F480E090E0A6E6B3E48093FA
:1034F0008F0A9093900AA093910AB093920A0E9427
:10350000A93980913A1083FD86C0C090930AD0906B
:10351000940AE090950AF090960A2091D811309183
:10352000D9114091DA115091DB11C701B6010E9407
:1035300083E7882309F46FC00E94DD88882301F1A6
:10354000C092D811D092D911E092DA11F092DB1129
:10355000E8E4FEE284918F010F5F1F4F882321F082
:103560000E94ED39F801F6CFE4E4F1E084918F0197
:103570000F5F1F4F882321F00E94ED39F801F6CF2D
:10358000C090930AD090940AE090950AF090960A21
:103590002091D8113091D9114091DA115091DB115D
:1035A000C701B6010E94E5EB9F77E091330344E049
:1035B000E49FF0011124E959FE4F208131814281BD
:1035C00053810E94E9E720E030E04AE754E40E949A
:1035D00069ED181604F5C092D811D092D911E09275
:1035E000DA11F092DB11E8E4FEE284918F010F5FC3
:1035F0001F4F882321F00E94ED39F801F6CFE5E254
:10360000F1E084918F010F5F1F4F882321F00E940A
:10361000ED39F801F6CF60916D0170916E01072EC2
:10362000000C880B990B0E948AE7209100013091D1
:10363000010140910201509103010E94E9E72AE053
:1036400037ED43E25CE30E94E9E70E943C3580E10C
:10365000E7E8FAE0ACECB1E101900D928A95E1F770
:103660000C94EA2D80E50E940337882329F00E94FC
:103670005D366B017C0103C0C12CD12C760183E542
:103680000E940337882361F00E94A13620E030E0D9
:103690004AE754E40E94E9E70E94E2EC6B017C01F6
:1036A0000E94EA5580912301811105C060E08FE5F9
:1036B00091E00E94EF45C701B6010E94B4390C9415
:1036C000EA2D0E94DED181110C94EA2D80E090E079
:1036D000A0E2B1EC89839A83AB83BC8380E090E065
:1036E000A0E2B1E48D839E83AF83B88780E090E051
:1036F000A0EAB1E489879A87AB87BC8780E50E94FE
:103700000337882319F00E946D3601C060E068A37A
:10371000BE016F5F7F4FCE0180960E946CB20C9409
:10372000EA2D109288020C94EA2D81E080938802A1
:103730000C94EA2D0E94A1362B013C01F701208157
:103740003181428153810E94E5EB4B015C012DEBFD
:1037500037E346E855EB0E9469ED87FD18C02DEB75
:1037600037E346E855E3C501B4010E9483E7181624
:1037700074F01F5FB4E0EB0EF11C1430A9F0D1011E
:103780008D911D010E940337882399F3D3CF133005
:1037900019F0DD24D39401C001E0D7014D925D9270
:1037A0006D927C921397E5CFDD2019F00E94DF35F2
:1037B00003C001110E94D9D20E94E23D0C94EA2D6F
:1037C00080910F12909110128F36910509F479C6ED
:1037D0000CF0E2C08032910509F45BC40CF081C0AA
:1037E0008531910509F4C0C2A4F58430910509F42E
:1037F00052C284F497FF02C00C94EA2D82309105E6
:103800000CF4C3C1039711F00C94EA2D0E94BF87FA
:103810000C94EA2D8131910509F458C27CF4059786
:1038200011F00C94EA2D0E94EA55289868EE73E096
:1038300080E090E00E94B4390C94EA2D8231910529
:1038400009F428C7449711F00C94EA2DE7EBF1E056
:1038500048C28A31910509F4C5C2F4F48731910553
:1038600009F48CC20CF484C28831910509F49CC21D
:10387000499711F00C94EA2D1092A00D85E79DE078
:103880000E948A5588EC91E09093E10C8093E00CC3
:103890000E947F350C94EA2D8C31910509F4ECC21D
:1038A0000CF4AEC28E31910509F4F0C24F9711F0BD
:1038B0000C94EA2D85E79DE00E945D5568A379A3ED
:1038C0008AA39BA3BE016F5F7F4FCE0180960E94AB
:1038D0003A3860E0CE0101960E941046E8E4FEE22C
:1038E00024C48435910509F4D5C64CF58D34910571
:1038F00009F47BC45CF48B34910509F46CC40CF0BE
:103900006EC48A9709F427C40C94EA2D8135910579
:1039100009F4B8C634F48E34910509F46AC40C94E1
:10392000EA2D8235910509F4B1C68335910511F070
:103930000C94EA2D81E0809387020C94EA2D8A365C
:10394000910509F472C6C4F48C35910509F4C1C619
:1039500034F48535910509F4A1C60C94EA2D883616
:10396000910509F457C58936910511F00C94EA2D9B
:103970000E94F4390C9485338C36910509F412C6F3
:103980000CF478C68D36910509F418C68E3691056B
:1039900009F484C50C94EA2D833D910511F40C942F
:1039A000E8260CF073C08D37910509F467C66CF5F5
:1039B0008537910509F470C78CF48237910509F4B5
:1039C00011C78337910509F413C78037910511F0AA
:1039D0000C94EA2D8AEC92E00E94C38A8737910505
:1039E00011F40C9494240CF460C78837910511F4F9
:1039F0000C9416258937910511F00C94EA2D10923C
:103A0000740D1092730D0C94EA2D883C910511F4FD
:103A10000C949725CCF48139910511F40C941D2553
:103A20004CF48C38910511F00C94EA2D0E94E63785
:103A30000C94EA2D8B39910509F4BCC58E3B910598
:103A400009F4D7C50C94EA2D8B3C910511F40C9424
:103A5000F52584F4893C910511F00C94EA2D6AE671
:103A6000E62E61E1F62E03E811E074E0D72ED00EC9
:103A70000C94DC258C3C910511F40C9413268D3CA0
:103A8000910511F40C947D260C94EA2D8A39E1E01D
:103A90009E0709F48BC5C4F58D3221E0920711F41D
:103AA0000C94EF27CCF48D3D910511F40C94732701
:103AB0003CF48C3D910511F40C9466270C94EA2D8E
:103AC000823E910511F40C94B8278232914011F492
:103AD0000C94E2270C94EA2D8F3251E0950711F4F3
:103AE0000C94E12814F40C948D288336B1E09B07E4
:103AF00011F40C94602D8039914011F00C94EA2D52
:103B00000E94EA550C94EA2D863FF1E09F0711F4DC
:103B10000C94482C04F5843C31E0930709F4BFC0B1
:103B20005CF4833C914011F00C94EA2D1092EB0C64
:103B30001092EA0C0C94EA2D843FA1E09A0711F44C
:103B40000C94452C853F914011F00C94EA2D0E9475
:103B5000429B0C94EA2D8835E2E09E0711F40C9408
:103B6000572C3CF4873F914011F40C944B2C0C944F
:103B7000EA2D803A33E0930709F4CAC2873E9340A6
:103B800011F40C94792D0C94EA2DA0900D12B090A4
:103B90000E1280E50E940337882359F00E945D369B
:103BA0006B017C0111E0672B682B692B31F410E06D
:103BB00004C010E0C12CD12C760183E50E940337AC
:103BC0008823F1F00E94A13620E030E04AE754E477
:103BD0000E94E9E70E94E2EC6B017C01111112C026
:103BE000672B682B692B71F4A114B10459F0D5012E
:103BF0008C91882339F061E0C5010E94104607C00E
:103C0000112391F360E085E891E00E94EF4581E0A7
:103C1000809319030E94EA550E94A939C114D10466
:103C2000E104F104F1F080919B1290919C12A0911B
:103C30009D12B0919E12C80ED91EEA1EFB1E0E9454
:103C4000BAC2DC01CB018C199D09AE09BF09B7FFCF
:103C50001EC0809119038823D1F080E00E94BDD45A
:103C6000EECF80911903882321F080E00E94BDD41B
:103C7000F8CF8091750D9091760D60E0029719F460
:103C80008AE791E002C088E691E00E94EF45109239
:103C900019030C94EA2D0E94BF870C94EA2D83E54A
:103CA0000E940337811103C01092200107C00E94B7
:103CB0007D368823C9F381E08093200181E090E084
:103CC0009093EB0C8093EA0C0C94EA2D60E087E96A
:103CD00091E00E94EF4517981798179817980C9441
:103CE000EA2D84918F010F5F1F4F882321F00E94DE
:103CF000ED39F801F6CF109226101092251040E011
:103D000050E0BA0181ED9DE00E949C8E8BE1E1EDD7
:103D1000FDE0DE01159601900D928A95E1F7809104
:103D2000CF0D9091D00D9C838B8387ED91E09A838A
:103D3000898340E050E0BE016F5F7F4F8BE792E0E8
:103D40000E943EBBCE0101960E94BB8AE8EAF1E0E8
:103D500084918F010F5F1F4F882311F40C94EA2D7B
:103D60000E94ED39F801F4CF0E9425AA0C94EA2DA7
:103D70001092A00D1092A10D0C94EA2DE0910D125D
:103D8000F0910E128081882329F0803209F410828C
:103D90003196F8CF40E061E080910D1290910E12C3
:103DA0000E94E4A60C94EA2D19821A821B821C82BE
:103DB00018A219A21AA21BA28091970A882339F08F
:103DC000BE016F5F7F4FCE0180960E94CF898091A8
:103DD000A10D882319F081E08093A00D0E947CD270
:103DE0000C94EA2D8091A10D882311F40C94EA2DF6
:103DF00083E50E94033781110C94ED2D0C94EA2D7C
:103E00008091A10D882351F1EDECF1E084918F01B7
:103E10000F5F1F4F882321F00E94ED39F801F6CF84
:103E200060911C1070911D1080911E1090911F10B8
:103E30004AE00E94A53C8FE20E94ED396091181083
:103E40007091191080911A1090911B104AE00E94F5
:103E5000A53C8AE00E94ED390C94EA2DEFEDF1E0EB
:103E600084918F010F5F1F4F882311F40C94EA2D6A
:103E70000E94ED39F801F4CF40E060E080910D122E
:103E800090910E120E94E4A60C94EA2D8091A10D4F
:103E9000882311F40C94EA2D8BE69FE00E94698E32
:103EA0008BE69FE00E94068410929F0D10929E0D5B
:103EB000E0900D12F0900E128091A10D882311F464
:103EC0000C94EA2D0E94BEB8FE0131966F01CF011D
:103ED0000E946C8C8DEC9DE09093ED0D8093EC0D29
:103EE000D7018C918F3209F060C06FE270E0C7019A
:103EF0000E9482EE8C010F5F1F4F09F45CC06FE2DD
:103F000070E0C8010E9482EE5C01009709F454C081
:103F10000817190708F050C04C01801A910AA40133
:103F2000B801CE0180960E94ABEEE0E2F0E0EC0F2B
:103F3000FD1FE80DF91D10828E01005E1F4FF80174
:103F400081918F01882319F00E94ED39F8CF8AE022
:103F50000E94ED396091EC0D7091ED0D61157105C8
:103F600011F06C5F7F4F21E0AE01405E5F4FCE01EC
:103F700005960E940F84811112C0BE01605E7F4FC2
:103F800086E192E00E94197B8EE20E94ED398AE080
:103F90000E94ED39C6010E94BB8A0C94EA2DD09292
:103FA000ED0DC092EC0D8501A6CF8EEE9DE09093B5
:103FB000ED0D8093EC0D87016091EC0D7091ED0D8E
:103FC0006115710511F06C5F7F4F18A21BA222E0F2
:103FD000A801CE0180960E940F84811102C0F12CAD
:103FE00014C0CE0180960E942CB88823C1F361E0F2
:103FF000CE0180960E940185009789F325EEDC01B1
:104000002C931BA20E94768CF82ECE0180960E94E3
:10401000FA38FF2009F1E0EFF1E084917F01BFEF72
:10402000EB1AFB0A882321F00E94ED39F701F5CF46
:10403000F80181918F01882319F00E94ED39F8CFA2
:104040008AE00E94ED3910921C1010921D101092FF
:104050001E1010921F1018C0EEEFF1E084917F0146
:104060002FEFE21AF20A882321F00E94ED39F701BE
:10407000F5CFD8018D918D01882319F00E94ED397B
:10408000F8CF8EE20E94ED39C6010E94BB8A0C94E3
:10409000EA2D8091A00D81110E94EA558091A10D19
:1040A000882311F40C94EA2D80E50E9403378823BD
:1040B00019F00E94913603C080E50E94D436182F73
:1040C000482F61E080910D1290910E120E94E4A69B
:1040D00083E50E940337882381F00E946D36AB018F
:1040E000BC0140931C1050931D1060931E107093E0
:1040F0001F108BE69FE00E949C8E8091A10D88236B
:1041000019F081E08093A00D11110C94EA2D66CE78
:1041100080910D1290910E1221E020939F0D40E0AE
:1041200060E00E94E4A60C94EA2D84918F010F5F59
:104130001F4F882321F00E94ED39F801F6CFBE0110
:104140006F5F7F4F8AE292E00E94197B8AE00E94B3
:10415000ED390C94EA2D83E50E940337882311F48E
:104160000C94EA2D0E947D36D82E80E50E940337FC
:10417000882311F40C94EA2D0E946D36C62EE62E8B
:10418000F72EF7FE02C00C94EA2DE0EBF5E088E292
:104190008E0F9491C91629F031968E13FACF0C9494
:1041A000FE2DECE7FAE284918F010F5F1F4F882309
:1041B00021F00E94ED39F801F6CFE7E3F2E08491B7
:1041C0008F010F5F1F4F882311F40C94EA2D0E947A
:1041D000ED39F801F4CF0E947CD20C94EA2D85E7EA
:1041E0009DE00E948A550C94EA2D0E94E6B80C943A
:1041F000EA2D83E50E940337882359F00E946D362B
:104200006E34710531F485E79DE00E944E7B0C947D
:10421000EA2D18A219A21AA21BA2E6EAF2E08491E2
:104220008F010F5F1F4F882321F00E94ED39F801A5
:10423000F6CFEDE9F2E084918F010F5F1F4F8823E5
:1042400021F00E94ED39F801F6CF6091830D709155
:10425000840D80E090E04AE00E94A53CE0E9F2E0B5
:1042600084918F010F5F1F4F882321F00E94ED3949
:10427000F801F6CF6091850D7091860D80E090E099
:104280004AE00E94A53CE5E8F2E084918F010F5FCF
:104290001F4F882321F00E94ED39F801F6CF60917D
:1042A000830D7091840D8091850D9091860D681B12
:1042B000790B8091750D9091760D019721E030E09A
:1042C000029710F020E030E0621B730B80E090E07A
:1042D0004AE00E94A53C8AE00E94ED39EDE7F2E059
:1042E00084918F010F5F1F4F882321F00E94ED39C9
:1042F000F801F6CF8091870D9091880DA091890DDE
:10430000B0918A0D88A399A3AAA3BBA3BE016F5F36
:104310007F4FCE0180960E943A38E0E7F2E0849128
:104320008F010F5F1F4F811105C0FE0131967F0184
:104330008F0104C00E94ED39F801F1CFD8018D91B1
:104340008D01882319F00E94ED39F8CF80918B0DF3
:1043500090918C0DA0918D0DB0918E0D88A399A395
:10436000AAA3BBA3BE016F5F7F4FCE0180960E94C0
:104370003A38E0E6F2E084918F010F5F1F4F882307
:1043800021F00E94ED39F801F6CFF70181917F010C
:10439000882319F00E94ED39F8CF8AE00E94ED39A8
:1043A000E8E5F2E084918F010F5F1F4F882321F031
:1043B0000E94ED39F801F6CFE8E4F2E084918F0134
:1043C0000F5F1F4F882321F00E94ED39F801F6CFCF
:1043D00020E030E04AE754E460918F0D7091900D39
:1043E0008091910D9091920D0E9469EC42E00E94A3
:1043F0006D3DE6E4F2E084918F010F5F1F4F88234B
:1044000021F00E94ED39F801F6CF8AE00E94ED39E3
:104410000C94EA2D809133038093EF0C80913A1035
:1044200083FF02C00C94EA2D83E50E9403378823A2
:1044300011F40C94EA2D0E94A1360E94DBEC7093DB
:10444000AD116093AC1180E00E940AB00E94A136C9
:104450002091340330913503409136035091370356
:104460000E9469ED181614F00C94EA2D8EEF91E07D
:104470009F938F938091EF0C90E001969F938F9381
:104480008EEA92E09F938F931F920E94C9B80FB655
:10449000F894DEBF0FBECDBF0C94EA2D8EE40E94CF
:1044A0000337882311F40C94EA2D0E946D36609333
:1044B000D10A7093D20A8093D30A9093D40A0C94B1
:1044C000EA2D83E50E94D436882359F083E50E94C3
:1044D0000337882319F00E947D3601C080E0809365
:1044E0003A10E8E4FEE284918F010F5F1F4F8823AA
:1044F00021F00E94ED39F801F6CFE3ECF2E084916F
:104500008F010F5F1F4F882321F00E94ED39F801C2
:10451000F6CF80913A108823A1F185EBC82E82E076
:10452000D82EE12CF12C20E080913A1090E00E2C56
:1045300002C0959587950A94E2F780FF17C0BB24C7
:10454000B394B20E222319F08CE20E94ED39F601E9
:1045500025913491F901849189010F5F1F4F8823C0
:1045600021F00E94ED399801F5CF2B2DFFEFEF1AC6
:10457000FF0A32E0C30ED11C45E0E416F104A1F6B7
:104580000CC0EFEBF2E084918F010F5F1F4F882387
:1045900021F00E94ED39F801F6CF8AE00E94ED3952
:1045A0000C94EA2D109266010C94EA2D0E940939B0
:1045B0000C94EA2D0E940C380C94EA2D8091330360
:1045C0008093EF0C80913A1083FF02C00C94EA2D87
:1045D00083E50E94033760968FAF609781110C943A
:1045E0007A2E82E50E94033781110C947A2E0C9466
:1045F000EA2D80913A1083FF02C00C94EA2D60E00E
:1046000085E093E00E94EF4583E50E9403376096C2
:104610008FAF609781110C94FC2F82E50E940337C5
:1046200081110C94FC2F0C94EA2D80E50E94033735
:10463000811108C083E50E940337811109C03FEF53
:1046400020E00AC00E947D3681110C94EA2DF2CF41
:104650000E946D36362F272F832F922F8F3F910583
:1046600019F010F08FEF90E09093AF118093AE119E
:104670000C94EA2D0E94FD370C94EA2D0E9410370D
:104680000C94EA2D0E94E1330C94EA2D10928702DB
:104690000C94EA2D0E949A370C94EA2D83E50E942F
:1046A000D436882311F40C94EA2D0E94A13620E020
:1046B00030E04AE754E40E94E9E70E94E2EC6093AC
:1046C0009F127093A0128093A1129093A2120C9447
:1046D000EA2D13E8C12E11E0D12E0CEDE02E01E100
:1046E000F02E10E0D6018D916D010E94D436882302
:1046F00009F46DC0133009F063C00E94A1364B016C
:104700005C0120E030E040EA51E40E9483E787FF4B
:104710004EC0A50194016091E8117091E91180915A
:10472000EA119091EB110E9469EC2B013C019B0175
:10473000AC016091921170919311809194119091BC
:1047400095110E94E9E76093921170939311809301
:10475000941190939511A30192016091661170914B
:10476000671180916811909169110E94E9E7609347
:10477000661170936711809368119093691160912D
:104780003F0A7091400A8091410A9091420A0E942A
:1047900088E7A30192010E94E9E70E94E2EC60939E
:1047A0003F0A7093400A8093410A9093420A809294
:1047B000E8119092E911A092EA11B092EB1107C0B2
:1047C0000E94A136F70160837183828393831F5F08
:1047D000F4E0EF0EF11C143009F084CF0E94917CBC
:1047E0000C94EA2D0E94EA550E94E23D0C94EA2DB9
:1047F000EDECF3E084918F010F5F1F4F882321F0D0
:104800000E94ED39F801F6CF60E08DEB93E00E9455
:10481000293D61E086EB93E00E94293D61E08BEA4F
:1048200093E00E94293D61E08BE993E00E94293DDD
:1048300060E082E993E00E94293D61E088E893E02E
:104840000E94293D60E08EE793E00E94293D60E0F0
:1048500086E793E00E94293D60E088E693E00E94AD
:10486000293D60E08AE593E00E94293D60E08BE409
:1048700093E00E94293D60E08DE393E00E94293D92
:1048800060E087E293E00E94293D60E086E193E0EA
:104890000E94293D0C94EA2D60E080910D129091C8
:1048A0000E120E9410460C94EA2D85E40E940337F4
:1048B000882319F00E94913603C085E40E94D43603
:1048C000882361F0E8E4FEE284918F010F5F1F4FBF
:1048D000882321F00E94ED39F801F6CF81E40E948F
:1048E0000337882319F00E94913603C081E40E94A7
:1048F000D436882361F0EEE8F4E084918F010F5FF5
:104900001F4F882321F00E94ED39F801F6CF009166
:104910000D1210910E12D8018D918D01882309F48A
:104920003CCE0E94ED39F7CFE5EBF4E084918F01A6
:104930000F5F1F4F882321F00E94ED39F801F6CF59
:10494000EDEAF4E084918F010F5F1F4F882321F07F
:104950000E94ED39F801F6CF359B03C00BEE11E054
:1049600002C000EF11E0F80181918F01882319F056
:104970000E94ED39F8CF8AE00E94ED39E5EAF4E0D3
:1049800084918F010F5F1F4F882321F00E94ED3922
:10499000F801F6CF329B03C00BEE11E002C000EF2E
:1049A00011E0D8018D918D01882319F00E94ED3915
:1049B000F8CF8AE00E94ED39EDE9F4E084918F01AF
:1049C0000F5F1F4F882321F00E94ED39F801F6CFC9
:1049D0004D9B03C00BEE11E002C000EF11E0F801A7
:1049E00081918F01882319F00E94ED39F8CF8AE078
:1049F0000E94ED39E2E9F4E084918F010F5F1F4FCF
:104A0000882321F00E94ED39F801F6CF069B03C000
:104A10000BEE11E002C000EF11E0D8018D918D0185
:104A2000882309F4BACD0E94ED39F7CF81E0809355
:104A3000740D8093730D0C94EA2D83E50E94033767
:104A4000882319F00E946D3602C060E070E08B018F
:104A5000112702301105D4F0ECE7FAE284918F01BE
:104A60000F5F1F4F882321F00E94ED39F801F6CF28
:104A7000EFECF4E084918F010F5F1F4F882311F456
:104A80000C94EA2D0E94ED39F801F4CF88E40E94DD
:104A900003378823A9F00E946D36663971053CF012
:104AA0006530B1E07B072CF064E071E002C066E99C
:104AB00070E0F801EE0FFF1FE754F54F718360833C
:104AC00086E40E9403378823A9F00E946D36F8011E
:104AD000EE0FFF1FE354F54F718360836F3F710545
:104AE00019F014F06FEF70E077FF02C060E070E043
:104AF0007183608382E40E940337882311F40C944D
:104B0000EA2D0E946D366530710534F06437710509
:104B10002CF063E770E002C065E070E0000F111F49
:104B2000F801EB54F54F718360830C94EA2D80916A
:104B300033038093EF0C84E40E94D4368823C1F1C0
:104B40000E94A13611E020E030E0A9010E9483E735
:104B5000811101C010E010932A0A112349F10E942B
:104B6000A136E091EF0C24E0E29FF0011124E55D15
:104B7000F54F608371838283938320E030E0A90145
:104B800060912B0A70912C0A80912D0A90912E0A27
:104B90000E9483E781110CC080E090E0A0EEBFE3AB
:104BA00080932B0A90932C0AA0932D0AB0932E0A7F
:104BB0000E94E77D0C94EA2DD8018D918D010E9411
:104BC000D436882349F00E94A1360E94E2ECF70116
:104BD0006083718382839383F4E0EF0EF11CD01223
:104BE000EBCF0E94647B0C94EA2D4AE5E42E41E170
:104BF000F42E03E811E054E0D52ED00ED8018D91AB
:104C00008D010E94D436882339F00E94A136F70125
:104C10006083718382839383F4E0EF0EF11CD012E2
:104C2000EDCF0C94EA2D83E50E94D4368823D9F089
:104C30000E94A136AB01BC014093821150938311B5
:104C4000609384117093851140937A1150937B1176
:104C500060937C1170937D118BE495E00E94E37A60
:104C60008AE00E94ED3980E50E94D436882399F0CD
:104C70000E94A136AB01BC01409382115093831175
:104C800060938411709385118EE295E00E94E37A1F
:104C90008AE00E94ED3982E50E94D436882399F09B
:104CA0000E94A136AB01BC0140937E1150937F114D
:104CB00060938011709381118FE095E00E94E37AF8
:104CC0008AE00E94ED3984E50E94D436882309F4F5
:104CD00081C70E94A136AB01BC0140937A11509369
:104CE0007B1160937C1170937D1181EF94E00E94A1
:104CF000E37A8AE00E94ED396DC783E50E94D436DD
:104D0000882351F00E94A136609356117093571179
:104D1000809358119093591184E50E94D4368823CA
:104D200051F00E94A13660935211709353118093F9
:104D300054119093551182E40E94D436882351F087
:104D40000E945D3660932F0A7093300A8093310A77
:104D50009093320A88E50E94D436882351F00E944D
:104D6000A136609386117093871180938811909378
:104D7000891189E50E94D436882351F00E94A1361A
:104D800060938A1170938B1180938C1190938D1185
:104D90008AE50E94D436882351F00E94A1366093A0
:104DA0008E1170938F11809390119093911185E4DF
:104DB0000E94D436882309F40DC70E94A13660935F
:104DC000921170939311809394119093951102C74F
:104DD000E8E4FEE284918F010F5F1F4F882321F0EA
:104DE0000E94ED39F801F6CF83E50E94D43688237E
:104DF00021F00E94913680930801E0EAF5E0849169
:104E00008F010F5F1F4F882321F00E94ED39F801B9
:104E1000F6CF80910801811103C0EAE9F5E002C0F4
:104E2000E3E9F5E084918F010F5F1F4F882321F0A4
:104E30000E94ED39F801F6CFEBE8F5E084918F019F
:104E40000F5F1F4F882321F00E94ED39F801F6CF44
:104E500040E050E0BA0189E895E00E94E37A40E042
:104E600050E0BA0186E895E00E94E37A40E050E025
:104E700060E070EC83E895E00E94E37AEBE7F5E010
:104E800084918F010F5F1F4F882321F00E94ED391D
:104E9000F801F6CF40E050E06CE573E489E795E077
:104EA0000E94E37A40E050E06CE573E486E795E029
:104EB0000E94E37A40E050E066E673E483E795E021
:104EC0000E94E37A8AE00E94ED3984C683E50E945D
:104ED0000337882309F47EC60E946D3670936E01F5
:104EE00060936D0177C6809133038093EF0C83E567
:104EF0000E940337882309F46DC60091EF0C10E07F
:104F00000E946D36000F111FF801E559FE4F7183A5
:104F100060838091EF0C90E08C01000F111F000F57
:104F2000111F980129593E4F7901880F991FFC01E3
:104F3000E559FE4F60817181072E000C880B990B9B
:104F40000E948AE72AE037ED43E25CE30E94E9E74A
:104F5000F801E55CFF4E20813181428153810E943E
:104F6000E9E7D7016D937D938D939C93139732C698
:104F700080E50E94D436882309F42CC60E946D3641
:104F80006B017C0183E50E940337882321F00E9496
:104F90006D368B0102C00FEF1FEFC801019603971A
:104FA00008F018C6D7FC16C69C2DE0EBF5E088E2A9
:104FB0008E0F2491921709F40DC631968E13F9CFF6
:104FC0000C945C338AE50E94033781110C945B31A9
:104FD00083E50E94033781110C945B31FBC585E4A6
:104FE0000E940337811110C080E50E94D4368823C7
:104FF00091F00E94A1366093A90A7093AA0A809347
:10500000AB0A9093AC0A07C00E947D36882361F3F7
:10501000ECE7FAE271C089E40E94D436882381F07B
:105020000E94A1362CEA35EC47E25EE30E94E9E7F4
:105030006093B10A7093B20A8093B30A9093B40A52
:1050400084E40E94D436882381F00E94A1362CEAA1
:1050500035EC47E25EE30E9469EC6093AD0A709321
:10506000AE0A8093AF0A9093B00AE8E4FEE284911E
:105070008F010F5F1F4F882321F00E94ED39F80147
:10508000F6CF4091A90A5091AA0A6091AB0A70919B
:10509000AC0A80EE95E00E94E37A2CEA35EC47E218
:1050A0005EE36091B10A7091B20A8091B30A909167
:1050B000B40A0E9469ECAB01BC018CED95E00E9442
:1050C0001A5D2CEA35EC47E25EE36091AD0A70911F
:1050D000AE0A8091AF0A9091B00A0E94E9E7AB0155
:1050E000BC0188ED95E00E941A5D8AE00E94ED39CE
:1050F00071C50E94ED39F80184918F010F5F1F4F38
:105100008111F7CF0CE012E0F80181918F01882323
:1051100009F443CA0E94ED39F7CF83E50E94D436E3
:10512000182F882371F00E94A1360E94DBEC709347
:1051300007016093060121E0672B09F020E020932E
:10514000380380E50E94D436882359F02091060167
:1051500030910701232B11F00E9491368093380380
:1051600039C5111137C5E8E4FEE284918F010F5F64
:105170001F4F882321F00E94ED39F801F6CF80916E
:105180003803811103C06AEF71E002C06DEE71E077
:1051900089EF95E00E94197B6091060170910701EB
:1051A00088EE95E00E94007BE4EEF5E084918F01AB
:1051B0000F5F1F4F882309F40DC50E94ED39F801D8
:1051C000F5CF85E40E940337882321F00E946D36D5
:1051D0007B0102C0E12CF12C83E40E940337882379
:1051E00031F00E946D36A9966FAFA99704C025E0F3
:1051F000A9962FAFA99785E50E940337882319F058
:105200000E94913603C085E50E94D436E5968FAFA3
:10521000E597F7FC07C0812C912CB6E1AB2EB3E4E7
:10522000BB2E06C0812C912CACE8AA2EA2E4BA2E8B
:1052300083E50E940337882321F00E94A1364B01A9
:105240005C01E114F10411F41092EF0C0E94BAC257
:105250002B013C01E11003C00DE112E00BC000E3A3
:1052600012E0D8018D918D01882309F496C90E941E
:10527000ED39F7CFF80181918F01882319F00E9451
:10528000ED39F8CFC501B4010E94DBEC072E000C0C
:10529000880B990B0E948AE760966FAF60976196C2
:1052A0007FAF619765968FAF659766969FAF66975C
:1052B000A301920120543B424E4F5F4FC358DF4F32
:1052C000288339834A835B83CD57D0408AE00E948C
:1052D000ED390E9455B08FE78093ED0C81E080930B
:1052E0006601E0964CAE5DAE6EAE7FAEE097E9969D
:1052F0004CAE5DAE6EAE7FAEE997AC961FAEAC978E
:10530000ED961CAE1DAE1EAE1FAEED9769961FAE9C
:10531000699730E46A963FAF6A974CE16B964FAF5E
:105320006B9756E46C965FAF6C976D961FAE6D975A
:105330006E961FAE6E976F961FAE6F97A0961FAEBC
:10534000A097A8961CAE1DAE1EAE1FAEA897A49641
:105350001CAE1DAE1EAE1FAEA497C12CD12C760183
:10536000FFE78F2E912CA12CB12C8FE790E0A0E0CD
:10537000B0E02F968CAF9DAFAEAFBFAF2F97E49646
:105380001CAE1DAE1EAE1FAEE49791E0AB969FAF74
:10539000AB9768961FAE1EAE689710E0212C312C9B
:1053A00000E0A996AFADA9970A2E000CBB0BAA96F8
:1053B000BFAFAEAFAA9780916601882309F402C1FE
:1053C0000E94BAC22B966CAF7DAF8EAF9FAF2B976A
:1053D0008091E80C882309F4D1C00E9474B0109128
:1053E0003403209035033090360300913703212F8A
:1053F000322D432D502F6D966FAD6D976E967FAD0C
:105400006E976F968FAD6F97A0969FADA0970E94F5
:1054100083E787FF0CC06D961FAF6D976E962FAE1A
:105420006E976F963FAE6F97A0960FAFA097212F04
:10543000322D432D502F69966FAD69976A967FADD7
:105440006A976B968FAD6B976C969FAD6C970E9429
:1054500069ED181664F469961FAF69976A962FAEC6
:105460006A976B963FAE6B976C960FAF6C97AB9647
:10547000BFADAB9760962FAD609761963FAD6197DA
:1054800065964FAD659766965FAD6697612F722DF5
:10549000832D902FBB2309F455C00E9469ED181687
:1054A0000CF06CC02B964CAD5DAD6EAD7FAD2B9707
:1054B0004419550966097709DB01CA0188589341E7
:1054C000A109B109B7FD5AC02F968CAD9DADAEAD07
:1054D000BFAD2F9788199909AA09BB09B595A7955A
:1054E000979587958093ED0CE4964CAF5DAF6EAFCA
:1054F0007FAFE4976096EFAD60976D96EFAF6D97D5
:105500006196FFAD61976E96FFAF6E9765962FAD72
:1055100065976F962FAF6F9766963FAD6697A0968B
:105520003FAFA0972B968CAD9DADAEADBFAD2B9789
:10553000E0968CAF9DAFAEAFBFAFE097AB961FAE1E
:10554000AB971CC00E9483E787FF18C02B968CADD9
:105550009DADAEADBFAD2B97E0962CAD3DAD4EAD44
:105560005FADE097821B930BA40BB50BAC01BD01A3
:10557000485853416109710977FFD9C620E030E0EE
:1055800040EA51E460966FAD609761967FAD619798
:1055900065968FAD659766969FAD66970E94E6EB20
:1055A0009B01AC01612F722D832D902F0E9469ED1C
:1055B00018167CF4EAE0F7E084918F010F5F1F4F2B
:1055C000811103C00E9455B005C30E94ED39F80156
:1055D000F3CF2B968CAD9DADAEADBFAD2B97E996BD
:1055E0002CAD3DAD4EAD5FADE997821B930BA40B87
:1055F000B50BB7FDABC00E9498AD8AE00E94ED39B3
:105600002B968CAD9DADAEADBFAD2B978053984F13
:10561000AF4FBF4FE9968CAF9DAFAEAFBFAFE9972D
:10562000AC969FADAC9791116EC0ED962CAD3DAD93
:105630004EAD5FADED97612F722D832D902F0E949F
:1056400069ED18160CF046C020E030E040E051E46F
:1056500060966FAD609761967FAD619765968FADEF
:10566000659766969FAD66970E94E5EB9B01AC013E
:10567000A1E0AC96AFAFAC97612F722D832D902F28
:105680000E9469ED18161CF0AC961FAEAC9720E096
:1056900030E040E050E4612F722D832D902F0E9466
:1056A000E6EBED966CAF7DAF8EAF9FAFED972B968F
:1056B0002CAD3DAD4EAD5FAD2B9720543B424E4FD0
:1056C0005F4FC358DF4F288339834A835B83CD57AD
:1056D000D0403CC02B968CAD9DADAEADBFAD2B97F1
:1056E000C358DF4F288139814A815B81CD57D04033
:1056F000821B930BA40BB50BB7FD28C049EE56E0F7
:105700006BEF76E020C020E030E040EA51E46096A4
:105710006FAD609761967FAD619765968FAD659728
:1057200066969FAD66970E94E5EB9B01AC01612FE9
:10573000722D832D902F0E9483E787FF07C046ECD0
:1057400056E069ED76E080E00E94D7532B968CAD51
:105750009DADAEADBFAD2B97880F991FAA1FBB1F84
:10576000E0962CAD3DAD4EAD5FADE097821B930B47
:10577000A40BB50B84199509A609B70981389F4474
:10578000A241B10568F0E8EAF6E084918F010F5F6D
:105790001F4F882309F416CF0E94ED39F801F5CF89
:1057A00068964EAD5FAD6897AA968EAD9FADAA97ED
:1057B000841795070CF066C0EBE4F6E084918F0146
:1057C0000F5F1F4F882321F00E94ED39F801F6CFBB
:1057D000B701A60186E396E00E94E37A8AE00E9480
:1057E000ED39A4964CAD5DAD6EAD7FADA49781E271
:1057F00096E00E94E37A8AE00E94ED39A8964CADCB
:105800005DAD6EAD7FADA8978CE096E00E94E37A27
:105810008AE00E94ED39E5969FADE597992309F45A
:10582000D9C1C092A90AD092AA0AE092AB0AF0921A
:10583000AC0A2CEA35EC47E25EE3A4966CAD7DAD94
:105840008EAD9FADA4970E94E9E76093B10A709373
:10585000B20A8093B30A9093B40A2CEA35EC47E27B
:105860005EE3A8966CAD7DAD8EAD9FADA8970E940E
:1058700069EC6093AD0A7093AE0A8093AF0A90937F
:10588000B00AA8C10E94234696CD0E9451A0A2C191
:105890000E94F6B69FC183E50E94D436882321F08A
:1058A0000E94913691E089270E94AFB393C180E0B6
:1058B00090E0A0E2B1EC89839A83AB83BC8380E063
:1058C00090E0A0E2B1E48D839E83AF83B88780E04F
:1058D00090E0A0EAB1E489879A87AB87BC870E94F1
:1058E000DED1882319F081E00E94B03E85E40E9459
:1058F000D436882319F00E94A13604C060E070E01D
:1059000080E890EC27966CAF7DAF8EAF9FAF279766
:105910008AE50E940337882379F08AE50E940337DD
:10592000882319F00E94A13603C060E070E0CB012B
:1059300069877A878B879C8788E50E94033788234D
:1059400079F088E50E940337882319F00E94A13678
:1059500003C060E070E0CB0169837A838B839C8312
:1059600089E50E940337882379F089E50E9403378F
:10597000882319F00E94A13603C060E070E0CB01DB
:105980006D837E838F83988785E50E94D436882334
:1059900019F00E94A13604C060E070E086E993EC43
:1059A00023966CAF7DAF8EAF9FAF23978CE40E94A0
:1059B000D436882319F00E94A13604C060E070E05C
:1059C00087E893E46BAF7CAF8DAF9EAF82E40E941B
:1059D000033781110E946D360091750D1091760D7F
:1059E0008091970A811165C021E0AE01415C5F4F53
:1059F000BE016F5F7F4FCE018D5B9F4F0E94FD8880
:105A0000882309F456C081E080931903FF24F3949E
:105A1000809119038823D1F180910A0D882391F197
:105A200088E090E00E941C4980911903882321F0AE
:105A300081E00E94BDD4F8CF10921A0810921B0882
:105A400010921C0810921D0810920A0D0E940AB0B4
:105A50000E94F63382E090E00E941C490E94BAC284
:105A6000DC01CB0180549B42AE4FBF4F80931A089C
:105A700090931B08A0931C08B0931D0810920A0D68
:105A8000F092190381E00E94BDD4C2CF80E090E083
:105A9000A8E4B2E488A399A3AAA3BBA38091970A20
:105AA000882339F0BE01605E7F4FCE01CB960E9405
:105AB000CF890130110509F08DC00E947CD28AC0C7
:105AC000ECE7FAE284918F010F5F1F4F882321F0EA
:105AD0000E94ED39F801F6CFEEE7F7E084918F01EF
