:100000000C948C180C94BD180C94BD180C94BD184D
:100010000C94BD180C94BD180C94BD180C94BD180C
:100020000C94BD180C94BD180C94BD180C94BD18FC
:100030000C94BD180C94BD180C94BD180C94BD18EC
:100040000C94BD180C9427B50C94BD180C94BD18D5
:100050000C94BD180C94BD180C940FAE0C945EE17A
:100060000C94BD180C946A570C94BD180C94BD18D0
:100070000C94BD180C94BD180C94BD180C94BD18AC
:100080000C94BD180C94BD180C94BD180C94BD189C
:100090000C94BD180C94BD180C94BD180C94BD188C
:1000A0000C94BD180C94BD180C94BD180C94BD187C
:1000B0000C94BD180C94BD180C94BD180C94BD186C
:1000C0000C94BD180C94BD180C94BD180C94BD185C
:1000D0000C94BD180C94BD180C94BD180C94BD184C
:1000E0000C94BD18084AD73B3BCE016E84BCBFFDC3
:1000F000C12F3D6C74319ABD56833DDA3D00C77FF8
:1001000011BED9E4BB4C3E916BAAAABE0000008090
:100110003F05A84CCDB2D44EB93836A9020C50B91F
:10012000918688083CA6AAAA2ABE000000803F0744
:10013000634236B79BD8A71A39685618AEBAAB5582
:100140008C1D3CB7CC5763BD6DEDFD753EF6177247
:1001500031BF000000803F08000000BE9224491219
:100160003EABAAAA2ABECDCCCC4C3E00000080BE3D
:10017000ABAAAAAA3E00000000BF000000803F001A
:1001800000000000084178D3BB4387D1133D190E0E
:100190003CC3BD4282AD2B3E68EC8276BED98FE176
:1001A000A93E4C80EFFFBE01C4FF7F3F000000006E
:1001B00000000D9401000D941F004E414E494E4920
:1001C0005459494E46CDCCCC3D0AD7233C17B7D124
:1001D0003877CC2B329595E6241FB14F0A000020CA
:1001E000410000C84200401C4620BCBE4CCA1B0E49
:1001F0005AAEC59D74434F4D4D554E4943415449E8
:100200004F4E0044525952554E004552524F525390
:1002100000494E464F004543484F005061726164AB
:100220006120646520656D657267656E6369610054
:10023000446574656E696461005072696E746572BC
:100240002073746F707065642064756520746F200E
:100250006572726F72732E2046697820746865200B
:100260006572726F7220616E6420757365204D39FE
:10027000393920746F20726573746172742E20286E
:1002800054656D7065726174757265206973207252
:10029000657365742E2053657420697420616674DB
:1002A00065722072657374617274696E67290A00E1
:1002B0004E6F20436865636B73756D207769746852
:1002C000206C696E65206E756D6265722C204C61C4
:1002D0007374204C696E653A2000636865636B73C4
:1002E000756D206D69736D617463682C204C61734A
:1002F00074204C696E653A20004C696E65204E751D
:100300006D626572206973206E6F74204C61737426
:10031000204C696E65204E756D6265722B312C2004
:100320004C617374204C696E653A20004D31313058
:10033000004D333100534420726561642065727250
:100340006F720A00446F6E65207072696E74696E18
:10035000672066696C650A0020496E76616C696485
:10036000206578747275646572200020706F7369FF
:1003700074696F6E206F7574206F662072616E678E
:10038000652E0A003F50726F626520000A0A4265BE
:1003900064204C6576656C20436F72726563746986
:1003A0006F6E204D61747269783A00202B000A4309
:1003B0006F72726563746564204265642048656984
:1003C0006768742076732E2042656420546F706FC6
:1003D0006C6F67793A0A00202B000A426564204856
:1003E000656967687420546F706F677261706879AF
:1003F0003A0A2020202B2D2D2D204241434B202D29
:100400002D2B0A2020207C2020202020202020208E
:1004100020207C0A204C207C20202020282B2920F2
:100420002020207C20520A2045207C2020202020D3
:100430002020202020207C20490A2046207C2028C3
:100440002D29204E20282B29207C20470A205420AB
:100450007C20202020202020202020207C20480AD2
:100460002020207C20202020282D29202020207CB6
:1004700020540A2020207C20202020202020202002
:1004800020207C0A2020204F2D2D2046524F4E54F4
:10049000202D2D2B0A2028302C30290A004D656193
:1004A0006E206F662073616D706C656420706F697B
:1004B0006E74733A200020643A200020623A2000D3
:1004C00045716E20636F656666696369656E7473F6
:1004D0003A20613A2000202844525952554E2900B2
:1004E000473239204175746F20426564204C65762F
:1004F000656C696E670028422961636B0028462994
:10050000726F6E74002852296967687400284C293C
:10051000656674003F4E756D626572206F6620706F
:10052000726F626520706F696E74732069732069E1
:100530006D706C61757369626C65202832206D691D
:100540006E696D756D292E0A003F28562965726205
:100550006F7365206C6576656C20697320696D70BA
:100560006C61757369626C652028302D34292E0A00
:100570000044656C6574696F6E206661696C6564C2
:100580002C2046696C653A200046696C65206465DC
:100590006C657465643A006F70656E206661696CA5
:1005A00065642C2046696C653A200043616C656E79
:1005B00074616D69656E746F206C6973746F00206F
:1005C000573A0045256920257300205A3A002059E2
:1005D0003A0020436F756E7420583A0020453A0067
:1005E000205A3A0020593A00583A003A00436170C4
:1005F0003A0023646566696E65202044454641558E
:100600004C545F4B64200023646566696E6520204E
:1006100044454641554C545F4B6920002364656650
:10062000696E65202044454641554C545F4B70200F
:1006300000504944204175746F74756E6520666979
:100640006E69736865642120507574207468652034
:100650006C617374204B702C204B6920616E642098
:100660004B6420636F6E7374616E74732066726F77
:100670006D2062656C6F7720696E746F20436F6EBA
:1006800066696775726174696F6E2E680A005049F9
:1006900044204175746F74756E65206661696C6580
:1006A00064212074696D656F75740A004572726FFC
:1006B000723A2074656D7065726174757261005470
:1006C0006865726D616C2052756E61776179004565
:1006D00072726F723A20616C2063616C656E746136
:1006E000720048656174696E67206661696C656453
:1006F00000504944204175746F74756E65206661C1
:10070000696C6564212054656D70657261747572E1
:100710006520746F6F20686967680A00204B643A2F
:100720002000204B693A2000204B703A20000A201C
:10073000436C617373696320504944200A0020545C
:10074000753A2000204B753A2000206D61783A20E0
:1007500000206D696E3A200020643A200020626912
:1007600061733A200020595A3A200020585A3A2002
:1007700000536B657720466163746F722058593A55
:1007800020006D696E5F736B65775F666163746F80
:10079000723A20202D31206D61785F736B65775F31
:1007A000666163746F723A2020310A0020746F6FA3
:1007B000206C6F6E6720657874727573696F6E2038
:1007C00070726576656E7465640A0047322F473330
:1007D0002062616420706172616D65746572730A74
:1007E000005265706F736F2E2E2E00205A3A200033
:1007F00020593A200042656420583A20005265731F
:10080000756D69656E646F20696D7072652E00513B
:1008100052325F4B4E4F42206C697374612E00451B
:1008200073706572616E646F206F7264656E65735C
:100830000053696E206D6F76696D69656E746F0027
:10084000456E642066696C65206C6973740A0042A9
:100850006567696E2066696C65206C6973740A004F
:100860004D313235005344207072696E74696E6781
:10087000206279746520004E6F742053442070729A
:10088000696E74696E670A002569730025696D20B9
:10089000256973002569682025696D202569730025
:1008A000256964202569682025696D202569730004
:1008B00025697920256964202569682025696D20CE
:1008C000256973005072696E742074696D653A20F1
:1008D0000050726F7465637465642050696E0A001D
:1008E000452569202573006F666600160211020A0D
:1008F000020302F50144454255473A0050617261D6
:10090000646120646520656D657267656E63696109
:10091000006F6B00506C617461666F726D61204393
:10092000616C69656E74650020573A0043616C65BF
:100930006E74616E646F20506C61742E2E2E0051A7
:1009400052325F4B4E4F42204170616761722E0000
:10095000454D455247454E43595F504152534552CC
:1009600000434153455F4C494748545F4252494711
:1009700048544E45535300544F47474C455F4C49EC
:100980004748545300534F4654574152455F504FC8
:10099000574552004255494C445F50455243454EDD
:1009A00054004C4556454C494E475F444154410024
:1009B0005A5F50524F4245004155544F4C455645A1
:1009C0004C005052494E545F4A4F420050524F47DC
:1009D00052455353004155544F5245504F52545F66
:1009E00054454D5000564F4C554D455452494300C7
:1009F000454550524F4D0053455249414C5F584F69
:100A00004E5F584F4646004649524D574152455F4A
:100A10004E414D453A4D61726C696E20426173657D
:100A2000206F6E204D61726C696E312E312E382030
:100A3000284769746875622920534F555243455FB2
:100A4000434F44455F55524C3A68747470733A2F63
:100A50002F6769746875622E636F6D2F7A6F6E658C
:100A60007374617233642050524F544F434F4C5F44
:100A700056455253494F4E3A312E30204D4143484E
:100A8000494E455F545950453A5152325F4B4E4F93
:100A9000422045585452554445525F434F554E5499
:100AA0003A3220555549443A3030303030303130C8
:100AB0002D303830382D303030332D303030302D2F
:100AC00032303138303131303030310A002F2F2080
:100AD000004D31343520533C696E6465783E206F9B
:100AE0007574206F662072616E67652028302D3125
:100AF000290A0053657474696E67205472617665C3
:100B00006C20416363656C65726174696F6E3A2035
:100B10000053657474696E67205265747261637402
:100B200020416363656C65726174696F6E3A200081
:100B300053657474696E67205072696E74204163E6
:100B400063656C65726174696F6E3A2000536574F9
:100B500074696E67205072696E7420616E642054EF
:100B6000726176656C20416363656C65726174695E
:100B70006F6E3A2000205A00205900580020204D66
:100B800061783A2000205A00205900580020204D5A
:100B9000696E3A2000456E63656E6465720041704F
:100BA0006167617200536F667420656E6473746F61
:100BB00070733A2000486F74656E64206F666673C8
:100BC0006574733A00000136372603FF3C3D380E4A
:100BD000FF2E303E12FF130C080906FFFF1A1C18E7
:100BE000FFFF24221EFFFF08440A0643070645FFB5
:100BF000FFFFFFFFFF20643A0020693A0020703AAF
:100C000000426564204C6576656C696E672000461D
:100C100061696C656420746F20656E61626C65202B
:100C2000426564204C6576656C696E670A004265B2
:100C300064204C6576656C20436F727265637469DD
:100C40006F6E204D61747269783A003A2000207A04
:100C50005F6D696E3A20202D3230207A5F6D6178A9
:100C60003A202032300A0050726F6265205A204FBD
:100C70006666736574004E6F2063617365206C69EE
:100C80006768740A00556E6B6E6F776E20636F6DC8
:100C90006D616E643A202200526573656E643A207D
:100CA000006F6B004D36303000436174636820661E
:100CB000696C616D656E742072756E206F7574213C
:100CC0000A0050617261646120646520656D65721F
:100CD00067656E636961004B494C4C2063617573B5
:100CE0006564206279204B494C4C20627574746FA6
:100CF0006E2F70696E0A00506172616461206465D4
:100D000020656D657267656E636961004B494C4C87
:100D10002063617573656420627920746F6F206D44
:100D200075636820696E6163746976652074696DA6
:100D300065202D2063757272656E7420636F6D6D12
:100D4000616E643A2000506F72206661766F722C7B
:100D5000207265696E6963696500494D505245535B
:100D60004F524120504152414441005072696E74CB
:100D700065722068616C7465642E206B696C6C28E8
:100D8000292063616C6C6564210A00000020C100A9
:100D900000A0C000000000000048420000484200DF
:100DA000000040000000005761726E696E673A20D3
:100DB000486F6D696E672042756D70204469766971
:100DC000736F72203C20310A000202040000A04030
:100DD0000000A0400000004000007043000061439C
:100DE00000007043FFFFFF4163746976652045781A
:100DF0007472756465723A20007C3C3E5E2B3D3F08
:100E00002F5B5D3B2C2A225C004572726F7220774B
:100E1000726974696E6720746F20454550524F4D5A
:100E2000210A00290A002062797465733B206372ED
:100E300063200053657474696E67732053746F7216
:100E40006564202800202863616C63756C6174659B
:100E50006429210A0020213D2000454550524F4D74
:100E600020435243206D69736D61746368202D20A7
:100E70002873746F726564292000290A0020627942
:100E80007465733B2063726320002073746F726516
:100E9000642073657474696E677320726574726917
:100EA00065766564202800204D61726C696E3D5640
:100EB0003535290A0028454550524F4D3D004545DE
:100EC00050524F4D2076657273696F6E206D697355
:100ED0006D617463682000F0004A0110013B01302D
:100EE000012C01400127015001220170011D0190D8
:100EF000011801B0011301C0010E01F00109011038
:100F00000204013002FF006002FA009002F500C006
:100F100002F0000003EB004003E6008003E100D094
:100F200003DC002004D700E004D200C005CD00405F
:100F300006C800D006C3008007BE00F008B9004014
:100F400009B400C009AF00B00AAA00B00BA500D0D8
:100F50000CA000000E9B00C01096005012910000E3
:100F6000148C00C0158700B0178200B0197D00D026
:100F70001B7800001E730040206E0090226900F074
:100F800024640040275F0090295A00E02B55001090
:100F90002E500020304B0010324600E033410090CC
:100FA000353C001037370070383200A0392D00B0C2
:100FB0003A2800A03B2300603C1E00103D19009021
:100FC0003D1400103E0F00703E0A00C03E050000B8
:100FD0003F0000403FFBFF803FF6FFC03FF1FF486E
:100FE000617264636F6465642044656661756C74E6
:100FF0002053657474696E6773204C6F6164656417
:101000000A00D007000020030000640000008813DD
:101010000000000016430000C8420000004100002C
:1010200048420000A0420000A0420000C843000067
:10103000AA42205A0020590020204D323131205838
:10104000004D696E20506F732041646A3A0A002097
:101050004B00204A0020204D383532204900536B88
:10106000657720466163746F723A200A0020204D34
:10107000383531205A005A2D50726F6265204F6604
:101080006673657420286D6D293A0A00204400209B
:10109000490020204D3330312050002044002049A9
:1010A0000020500020204D3330312045005049446D
:1010B0002073657474696E67733A0A0020460020D5
:1010C000420020480020204D3134352053004D612E
:1010D00074657269616C20686561747570207061F7
:1010E00072616D65746572733A0A0020204D343266
:1010F000302053004175746F20426564204C657642
:10110000656C696E673A0A0020590020580020205B
:101110004D323138205400486F74656E64206F661C
:1011200066736574733A0A00204500205A002059FE
:101130000020580020420020540020204D3230353D
:10114000205300416476616E6365643A20533C6DC0
:10115000696E5F66656564726174653E20543C6DBE
:10116000696E5F74726176656C5F666565647261F5
:1011700074653E20423C6D696E5F7365676D656E98
:10118000745F74696D655F75733E20583C6D61785E
:101190005F78795F6A65726B3E205A3C6D61785F5B
:1011A0007A5F6A65726B3E20453C6D61785F655F72
:1011B0006A65726B3E0A0020540020520020204DC8
:1011C000323034205000416363656C65726174692C
:1011D0006F6E2028756E6974732F7332293A205010
:1011E0003C7072696E745F616363656C3E20523C53
:1011F000726574726163745F616363656C3E2054F1
:101200003C74726176656C5F616363656C3E0A0075
:10121000204500205A0020590020204D3230312036
:1012200058004D6178696D756D20416363656C652B
:10123000726174696F6E2028756E6974732F7332D2
:10124000293A0A00204500205A0020590020204D4C
:101250003230332058004D6178696D756D206665B8
:10126000656472617465732028756E6974732F7379
:10127000293A0A00204500205A0020590020204D1C
:101280003932205800537465707320706572207570
:101290006E69743A0A0020204D3230302044300A02
:1012A0000020204D32303020543120440020204D89
:1012B0003230302044002044697361626C65640AF6
:1012C0000046696C616D656E742073657474696E37
:1012D00067733A0020204D3134392043203B20559C
:1012E0006E69747320696E2043656C736975730A47
:1012F000006D6D0A00696E636865730A00203B200B
:10130000556E69747320696E200020204732006694
:10131000696C616D656E743A20007A5F70726F62FD
:10132000653A20007A5F6D696E3A2000795F6D69D9
:101330006E3A2000785F6D696E3A20005265706FDA
:101340007274696E6720656E6473746F7020737455
:10135000617475730A0020746F6F206C6F6E672064
:10136000657874727573696F6E2070726576656EDC
:101370007465640A0024F4D43050C38E20C2A240A5
:1013800017828B7011127A910D816CD90AA861E1D4
:1013900008C7586607615143061E4B5D05C145A746
:1013A000041A411104093D9803713931034036DBB9
:1013B0000265339102D4305402802E1D02632CEE5C
:1013C00001752AC501B028A001102781018F25646D
:1013D000012B244B01E0223401AC211F018D200D93
:1013E00001801FFC00841EED00971DDF00B81CD299
:1013F00000E61BC600201BBC00641AB200B219A88C
:10140000000A19A0006A189900D117910040178BA3
:1014100000B516840031167E00B31579003A1573B5
:1014200000C7146F0058146A00EE13660088136337
:101430000025135E00C7125B006C12570015125492
:1014400000C111510070114F0021114B00D61049FD
:10145000008D1047004610440002104200C00F40AB
:1014600000800F3E00420F3C00060F3B00CB0E38C1
:1014700000930E37005C0E3500270E3400F30D325A
:1014800000C10D3100900D3000600D2E00320D2D89
:1014900000050D2C00D90C2B00AE0C2900850C2961
:1014A000005C0C2700350C27000E0C2600E80B24EE
:1014B00000C40B2400A00B23007D0B23005A0B213A
:1014C00000390B2100180B2000F80A1F00D90A1E52
:1014D00000BB0A1E009D0A1D00800A1D00630A1C35
:1014E00000470A1B002C0A1B00110A1A00F7091AF0
:1014F00000DD091900C4091900AB09190092091788
:10150000007B091800630917004C091600360916FC
:1015100000200916000A091500F5081500E0081456
:1015200000CC081400B8081400A408140090081394
:10153000007D0812006B08130058081200460812BC
:1015400000340811002308110012081100010811CD
:1015500000F0071000E0071000D0071000C00710CF
:1015600000B0070F00A107100091070E0083070FBE
:101570000074070F0065070E0057070E0049070E9D
:10158000003B070D002E070E0020070D0013070D6E
:101590000006070D00F9060C00ED060D00E0060C34
:1015A00000D4060C00C8060C00BC060C00B0060CEB
:1015B00000A4060B0099060C008D060B0082060B9A
:1015C0000077060B006C060B0061060A0057060B3D
:1015D000004C060A0042060A0038060A002E060AD7
:1015E0000024060A001A060A001006090007060A67
:1015F00000FD050900F4050900EB050900E20509F5
:1016000000D9050900D0050900C7050900BE050974
:1016100000B5050800AD050800A50509009C0508F2
:1016200000940508008C050800840508007C050866
:1016300000740508006C050700650508005D0507D6
:1016400000560508004E050700470507004005083D
:101650000038050700310507002A050700230507A4
:10166000001C050600160507000F05070008050603
:101670000002050700FB040600F5040700EE04065F
:1016800000E8040600E2040700DB040600D50406B7
:1016900000CF040600C9040600C3040600BD04060A
:1016A00000B7040600B1040500AC040600A6040659
:1016B00000A00405009B04060095040500900406A4
:1016C000008A04050085040500800406007A0405EC
:1016D0000075040500700405006B04050066040530
:1016E00000610405005C0405005704050052040570
:1016F000004D04050048040500430405003E0404B1
:10170000003A04050035040500300404002C0405EB
:101710000027040400230405001E0404001A040426
:101720000016040500110404000D0404000904055A
:10173000000404040000040400FC030400F8030493
:1017400000F4030400F0030400EC030400E80304C5
:1017500000E4030400E0030400DC030400D80304F5
:1017600000D4030400D0030400CC030400C8030326
:1017700000C503030024F404D9201BC40C5C0E989C
:1017800004C4095F0265077101F405F900FB04B3A5
:101790000048048700C1036900580355000303454E
:1017A00000BE023A008402310053022A00290225B9
:1017B0000004022000E4011C00C8011900AF011759
:1017C00000980114008401130071011000610110E0
:1017D0000051010E0043010D0036010B002B010BDF
:1017E0000020010B00150109000C0109000301088C
:1017F00000FB000800F3000800EB000700E400060F
:1018000000DE000600D8000600D2000600CC00056D
:1018100000C7000500C2000500BD000400B90004B7
:1018200000B5000400B1000400AD000400A90004EC
:1018300000A5000300A20003009F0004009B00031A
:10184000009800030095000200930003009000033D
:10185000008D0002008B0003008800020086000259
:101860000084000300810002007F0002007D00026E
:10187000007B000200790002007700010076000280
:10188000007400020072000100710002006F00028B
:10189000006D0001006C0002006A00010069000296
:1018A000006700010066000100650001006400029D
:1018B000006200010061000100600001005F0002A1
:1018C000005D0001005C0001005B0001005A0001A6
:1018D00000590001005800010057000100560001A6
:1018E00000550001005400010053000000530001A6
:1018F000005200010051000100500001004F0001A2
:10190000004E0000004E0001004D0001004C00019F
:10191000004B0000004B0001004A0001004900019B
:101920000048000000480001004700010046000098
:101930000046000100450000004500010044000190
:10194000004300000043000100420000004200018B
:10195000004100000041000100400001003F000084
:10196000003F0001003E0000003E0001003D00007D
:10197000003D0001003C0000003C0000003C000174
:10198000003B0000003B0001003A0000003A00016B
:101990000039000000390001003800000038000064
:1019A0000038000100370000003700010036000059
:1019B0000036000000360001003500000035000050
:1019C0000035000100340000003400000034000144
:1019D000003300000033000000330001003200003B
:1019E0000032000000320001003100000031000030
:1019F0000031000100300000003000000030000124
:101A0000002F0000002F0000002F0000002F000119
:101A1000002E0000002E0000002E0001002D00000E
:101A2000002D0000002D0000002D0001002C000002
:101A3000002C0000002C0000002C0001002B0000F6
:101A4000002B0000002B0000002B0001002A0000EA
:101A5000002A0000002A0000002A000100290000DE
:101A600000290000002900000029000000290001D1
:101A700000280000002800000028000000280000C6
:101A800000280001002700000027000000270000B8
:101A900000270000002700010026000000260000AB
:101AA000002600000026000000260001002500009E
:101AB0000025000000250000002500000025000092
:101AC0000025000100240000002400000024000084
:101AD0000024000000240001002300000023000077
:101AE000002300000023000000230000002300006A
:101AF000002300010022000000220000002200005C
:101B0000002200000022000000220001002100004D
:101B10000021000000210000002100000021000041
:101B20000021000000210001002000000020000032
:101B30000020000000200000002000000020000025
:101B40000020000000200001001F0000001F000016
:101B5000001F0000001F0000001F0000001F000009
:101B6000001F0001001E0000001E0000001E0000FB
:101B7000001E0000004D383420582059205A2045BE
:101B800000060606060600000000006265640A0002
:101B90002C2073797374656D2073746F7070656435
:101BA00021204865617465725F49443A200045729E
:101BB000726F723A2074656D7065726174757261CE
:101BC00000546865726D616C2052756E6177617941
:101BD000004572726F723A20616C2063616C656EB1
:101BE0007461720048656174696E67206661696C32
:101BF0006564001000AA038000400100012C01B0C0
:101C000001220140021001F00202018003F80040AD
:101C100004F500E004ED009005E4003006DD00E08E
:101C200006D7008007D1003008CC00D008C700706C
:101C300009C300100ABE00B00ABB00500BB70090E9
:101C40000CB300D00DAA00B00FA5005010A00010DA
:101C50001496009016900010198C00501A850030D0
:101C60001C820070227800B023750040256E002091
:101C7000276900A0296400502A5F00902B5A00D0E9
:101C80002C5500702D4F00E02E480050314500309B
:101C9000334100D03539006036370010373300F05B
:101CA000382D00A0392700803C1C00403D1700F073
:101CB0003D1100803E0900D03FE5FF4572726F7212
:101CC0003A2054656D70204D696E20506C6174002F
:101CD0004572726F723A2054656D70204D696E695D
:101CE0006D61004D494E54454D50207472696767CF
:101CF00065726564004572726F723A2054656D704A
:101D0000204D617820506C6174004572726F723A98
:101D10002054656D70204D6178696D61004D4158AA
:101D200054454D5020747269676765726564002080
:101D30002F002040002042403A0020403A00257504
:101D40003A2530327500253032753A25303275002B
:101D50002D2D2D005344005A005072696E7420706E
:101D60006175736564004D31323500004D323400C9
:101D7000496D70726573696F6E2063616E63656C27
:101D8000616461004E6F20686179207461726A65D8
:101D90007461205344004D656E7520646520534482
:101DA00000446574656E657220696D707265736953
:101DB0006F6E005265616E7564617220696D70723C
:101DC0006573696F6E00496E662E20496D7072658D
:101DD000736F72610050617573617220696D70720A
:101DE0006573696F6E00436F6E74726F6C00507232
:101DF00065706172617200416A7573746172004945
:101E00006E666F726D6163696F6E004D6963726FAC
:101E10007061736F205A004D3630302042300043DD
:101E2000616D626961722066696C616D656E746F67
:101E3000004D6963726F7061736F205A00466C7554
:101E40006A6F203200466C756A6F203200466C75EE
:101E50006A6F203100466C756A6F203100466C75E0
:101E60006A6F00466C756A6F0056656E74696C61C6
:101E7000646F720056656E74696C61646F720050B5
:101E80006C617461666F726D6100506C6174616643
:101E90006F726D6100426F7175696C6C6120320008
:101EA000426F7175696C6C61203200426F717569A7
:101EB0006C6C61203100426F7175696C6C6120310E
:101EC0000056656C6F63696461640056656C6F638E
:101ED00069646164004D656E75207072696E636936
:101EE00070616C0050726563616C656E7461722024
:101EF000504C41546F646F0050726563616C656E45
:101F000074617220504C4120456E6420453200506F
:101F1000726563616C656E74617220504C41203251
:101F20000050726563616C656E74617220504C4143
:101F300020456E642045310050726563616C656EAA
:101F400074617220504C41506C617461666F726DA7
:101F5000610050726563616C656E74617220504CF3
:101F6000412031005072657061726172005072657B
:101F700063616C656E74617220414253546F646F8B
:101F80000050726563616C656E74617220414253EA
:101F900020456E642045320050726563616C656E49
:101FA0007461722041425320320050726563616C4B
:101FB000656E7461722041425320456E6420453144
:101FC0000050726563616C656E74617220414253AA
:101FD000506C617461666F726D610050726563610F
:101FE0006C656E74617220414253203100507265FD
:101FF0007061726172004174726173004E65787431
:1020000020636F726E6572004732380A47323900BA
:1020100050726563616C656E746172204142530059
:1020200050726563616C656E74617220504C410042
:10203000456E66726961720043616D62696172200A
:1020400066696C616D656E746F004E6976656C6172
:102050007220706C617461666F726D6100417061B5
:10206000676172206D6F746F726573004D38340054
:102070004C6576656C20636F726E657273004F728B
:102080006967656E205A00473238205A004F7269DE
:1020900067656E2059004732382059004F726967D2
:1020A000656E2058004732382058004C6C657661C8
:1020B0007220616C206F726967656E00473238006C
:1020C0004D6F76657220656A6573004D656E75208B
:1020D0007072696E636970616C004D6F7665722015
:1020E00058004D6F7665722059004D6F76657220ED
:1020F0005A004578747275736F7232004578747245
:1021000075736F7231004D6F76657220302E316DB0
:102110006D004D6F76657220316D6D004D6F766587
:10212000722031306D6D004D6F76657220656A6585
:1021300073004578747275736F72004D6F766572B7
:10214000205A004D6F7665722059004D6F7665728A
:102150002058004578747275736F72320045787438
:102160007275736F7231004578747275736F720097
:102170004D6F766572205A004D6F7665722059005A
:102180004D6F766572205800507265706172617291
:1021900000496E697469616C697A652045455052E1
:1021A0004F4D00436F6E74726F6C005265737461B3
:1021B00075726172206D656D6F7269610043617245
:1021C000676172206D656D6F72696100496E697437
:1021D00069616C697A6520454550524F4D004775DD
:1021E0006172646172206D656D6F726961004D6F1F
:1021F00076696D69656E746F0054656D70657261A6
:1022000074757261004D656E75207072696E6369D8
:1022100070616C0050726563616C656E74617220F0
:10222000414253436F6E6669670050726563616C2B
:10223000656E74617220504C41436F6E6669670031
:102240005049442D44005049442D44005049442DE8
:1022500049005049442D49005049442D50005049EF
:10226000442D500020022046616374002002204665
:10227000616374002002204D6178002002204D61CE
:1022800078002002204D696E002002204D696E000A
:1022900041706167617200456E63656E64657200CE
:1022A00054656D7065726174757261204175746FEB
:1022B0002E00436F6F6C2046616E2053706565641D
:1022C00000436F6F6C2046616E205370656564003B
:1022D00056656E74696C61646F720056656E7469E0
:1022E0006C61646F7200506C617461666F726D61D5
:1022F00000506C617461666F726D6100426F717540
:10230000696C6C61203200426F7175696C6C612080
:102310003200426F7175696C6C61203100426F71DF
:1023200075696C6C61203100436F6E74726F6C0064
:1023300047756172646172206D656D6F72696100CD
:10234000506C617461666F726D6100506C61746194
:10235000666F726D6100426F7175696C6C610042ED
:102360006F7175696C6C610056656E74696C61643F
:102370006F720056656E74696C61646F72005465AB
:102380006D70657261747572610056656C2E207691
:1023900069616A65206D696E0056656C2E207669EC
:1023A000616A65206D696E00566D696E00566D69D3
:1023B0006E00566D61784500566D61784500566D2A
:1023C00061785A00566D61785A00566D61785900EF
:1023D000566D61785900566D61785800566D617878
:1023E00058004D6F76696D69656E746F0041636565
:1023F0006C2E206D617845004163656C2E206D6107
:102400007845004163656C2E206D61785A00416308
:10241000656C2E206D61785A004163656C2E206DCD
:10242000617859004163656C2E206D6178590041D7
:1024300063656C2E206D617858004163656C2E20B9
:102440006D617858004163656C2E205669616A653C
:10245000004163656C2E205669616A6500416365C1
:102460006C2E207265747261632E004163656C2E60
:10247000207265747261632E004163656C657261E0
:1024800063696F6E004163656C65726163696F6E4D
:10249000004D6F76696D69656E746F0056652D6AC3
:1024A00065726B0056652D6A65726B00567A2D6AEF
:1024B00065726B00567A2D6A65726B0056792D6ACB
:1024C00065726B0056792D6A65726B0056782D6ABD
:1024D00065726B0056782D6A65726B004D6F766978
:1024E0006D69656E746F0045207061736F732F6D39
:1024F0006D0045207061736F732F6D6D005A2070F1
:1025000061736F732F6D6D005A207061736F732F3D
:102510006D6D0059207061736F732F6D6D005920C0
:102520007061736F732F6D6D0058207061736F73DE
:102530002F6D6D0058207061736F732F6D6D004D9E
:102540006F76696D69656E746F005061736F732F7C
:102550006D6D004A65726B004163656C6572616305
:10256000696F6E0056656C6F6369747900446573BA
:1025700066617365205A2050726F6265004465730E
:1025800066617365205A2050726F626500484F4D36
:10259000455F5A5F6F666673657400484F4D455FCF
:1025A0005A5F6F666673657400484F4D455F595FAB
:1025B0006F666673657400484F4D455F595F6F667F
:1025C0006673657400484F4D455F585F6F6666736C
:1025D000657400484F4D455F585F6F66667365745C
:1025E00000436F6E74726F6C0043616E6E6F742087
:1025F000656E746572207375626469723A200005B5
:102600002E2E004D656E75207072696E6369706163
:102610006C0054656D7065726174757261206D61D6
:1026200078696D613A203133300054656D706572A0
:102630006174757261206D696E696D613A20350053
:10264000544265643A3130304B2031252062657444
:102650006120333935300054656D70657261747571
:102660007261206D6178696D613A203237350054AE
:10267000656D7065726174757261206D696E696DEA
:10268000613A20350054313A203130304B20312529
:10269000206265746120333935300054656D706592
:1026A000726174757261206D6178696D613A203272
:1026B00037350054656D7065726174757261206D97
:1026C000696E696D613A20350054303A20313030FE
:1026D0004B20312520626574612033393530004646
:1026E00075656E746520646520706F6465723A204C
:1026F00047656E657269630050726F746F636F6CCB
:102700006F3A20312E300042617564696F733A2050
:10271000313135323030004C4344203230303400D7
:102720005A4F4E4553544152205A52494256350051
:102730004C696E656172204C6576656C696E6700E8
:102740004578747275736F7265733A2032006874DD
:1027500074703A2F2F7777772E7A6F6E6573746166
:102760007233642E636F6D005152325F4B4E4F4295
:1027700000323032302D30372D32330042617365F4
:10278000206F6E204D61726C696E312E312E3800D3
:1027900056332E312E3000486561746572205465C1
:1027A0007374696E67004D31303420533236300A0D
:1027B0004D31343020533131350A4D3130362053CC
:1027C000300A004175746F20557020646F776E0079
:1027D0004D32303320583135302059313530205A80
:1027E00031360A47302058323230205932323020C8
:1027F0005A32343020463936300A4730205830209B
:102800005930205A313020463936300A4730205866
:102810003330302059333030205A3430302046396C
:1028200036300A4730205830205930205A31302075
:10283000463936300A473020583232302059323249
:1028400030205A32343020463936300A473020584A
:1028500030205930205A313020463936300A47303E
:1028600020583232302059323230205A323430201F
:10287000463936300A4730205830205930205A31F6
:102880003020463936300A4730205832323020590D
:10289000323230205A32343020463936300A47300E
:1028A000205830205930205A313020463936300AED
:1028B0004732380A4D3230332058313530205931C3
:1028C0003030205A380A4D333030205333303030D6
:1028D000205031303030004661737420746F2042D4
:1028E0006F74746F6D004D323033205831353020A5
:1028F00059313530205A31360A4732382058300A9B
:102900004730205A3020463936300A4D3230332095
:10291000583135302059313030205A380A0046615C
:10292000737420746F20546F70004D323033205810
:102930003135302059313530205A31360A47302070
:10294000583232302059323230205A323430204618
:102950003936300A4D323033205831353020593134
:102960003030205A380A004C6C6576617220616CF8
:10297000206F726967656E00473238005465726D6A
:102980006973746F72657300496E662E20436F6EB3
:1029900074726F6C61646F7200496E662E20496DAF
:1029A000707265736F7261004D656E75207072692B
:1029B0006E636970616C0045787472756972206D20
:1029C000617300526573756D697220696D702E00B8
:1029D0004F50432E205245494E4943494F3A00201B
:1029E00020426F7175696C6C613A200063616D62A1
:1029F0006961720064656C2066696C616D656E74F6
:102A00006F004573706572616E646F20696E6963F3
:102A100069617200494D50522E2050415553414436
:102A200041002020426F7175696C6C613A2000662C
:102A3000696C616D656E746F20657870756C73611B
:102A4000646F00457370657261646F20706F72000F
:102A5000494D50522E2050415553414441002020B1
:102A6000426F7175696C6C613A20004573706572D4
:102A70006520706F72206661766F720043616C65CD
:102A80006E74616E646F20626F7175696C6C610049
:102A9000494D50522E205041555341444100202071
:102AA000426F7175696C6C613A200043616C656EB0
:102AB000746172206C6120626F7175696C6C610069
:102AC0004F7072696D6120626F746F6E20706172F9
:102AD0006100494D50522E20504155534144410010
:102AE0002020426F7175696C6C613A2000706172D0
:102AF0006120636F6E74696E7561722E2E2E00797F
:102B00002070726573696F6E6520656C20626F74EA
:102B10006F6E00496E73657274652066696C616DD5
:102B2000656E746F00494D50522E205041555341EF
:102B30004441002020426F7175696C6C613A20003D
:102B40004361726761722066696C616D656E746F56
:102B500000457370657261646F20706F7200494D3B
:102B600050522E2050415553414441002020426F85
:102B70007175696C6C613A20004578747275697280
:102B80002066696C616D656E746F00457370657267
:102B900061646F20706F7200494D50522E20504179
:102BA0005553414441007061726120726573756DC7
:102BB0006972004573706572616E646F20696D7033
:102BC0002E00494D50522E20504155534144410052
:102BD0005461726A657461207265746972616461BE
:102BE000005461726A65746120636F6C6F63616425
:102BF0006100001C1F11111F0000000619180313AB
:102C00000C00040E1F041C000000000E1315110E12
:102C100000001C10181705060500040A0A0A0A110C
:102C2000110E0C12120C00000000001F1511151FD0
:102C3000000000002100240027002A002D003000A1
:102C4000330001010000040107010A010000220015
:102C5000250028002B002E00310034000201000066
:102C6000050108010B0100002000230026002900B7
:102C70002C002F00320000010000030106010901B1
:102C800005050505070508080808020202020A0AE8
:102C90000808040404040101010101010101030306
:102CA000030303030303040707070C0C0C0C0C0CB1
:102CB0000C0C0202020206060606060606060B0BAE
:102CC0000B0B0B0B0B0B01021020200808102040EF
:102CD00010204080020102010804020101020408E0
:102CE000102040808040201008040201800402016E
:102CF00080402010080402010804020101020408B7
:102D000010204080010204081020408000000A0BBF
:102D100002090C0D0E08070304010000000000006A
:102D200000000000000000000000000000000000A3
:102D30000000000000000000121110000000000060
:102D40000000000000000000000000000000000083
:102D5000000000000000010204040000001C1C0C24
:102D60000404040201000000000004081000000038
:102D700000002D2D2D2D2D2D2D2D007C5A4F4E4533
:102D8000535441527C002D2D2D2D2D2D2D2D0068BD
:102D90007474703A2F2F7777772E7A6F6E6573740D
:102DA000617233642E636F6D0042617365206F6ED4
:102DB000204D61726C696E312E312E380042617384
:102DC00065206F6E204D61726C696E312E312E3828
:102DD0000000473231002020506C616E6E657242F7
:102DE000756666657242797465733A200020467292
:102DF0006565204D656D6F72793A2000436F6D7087
:102E0000696C65643A205365702032342032303268
:102E1000300A00207C20417574686F723A2028487F
:102E2000616C6C79405A4F4E4553544152290A0007
:102E3000323032302D30372D323300204C617374F4
:102E400020557064617465643A20004261736520A6
:102E50006F6E204D61726C696E312E312E380A0012
:102E60004D61726C696E0020536F66747761726594
:102E70002052657365740A00205761746368646F3B
:102E8000672052657365740A002042726F776E2066
:102E90006F75742052657365740A002045787465F7
:102EA000726E616C2052657365740A00506F7765AD
:102EB0007255700A0073746172740A006572726FE1
:102EC000722077726974696E6720746F2066696C0E
:102ED000650A00456E6473746F7073202563202546
:102EE000632025632025630020503A00205A3A00D1
:102EF00020593A0020583A00656E6473746F7073FD
:102F0000206869743A2000446F6E652073617669A9
:102F10006E672066696C652E0A004D32390050726A
:102F20006F62696E67206661696C65640A00507241
:102F30006F62696E67206661696C656400205A3A49
:102F4000200020593A200042656420583A20004869
:102F50006F6D652025732573257320696E69632E57
:102F60000020696E69632E0A005A00590058004813
:102F70006F6D65200057726974696E6720746F20E9
:102F800066696C653A20006F70656E206661696CD9
:102F900065642C2046696C653A20006F70656E2070
:102FA0006661696C65642C2046696C653A20004650
:102FB000696C652073656C65637465640A002053F1
:102FC000697A653A200046696C65206F70656E65A8
:102FD000643A20006F70656E206661696C65642CD0
:102FE0002046696C653A20002066696C653A2000CD
:102FF000646F696E67006672657368004E6F772054
:1030000000454E4420535542524F5554494E450AAF
:10301000002220706F73002220706172656E743A16
:103020002200535542524F5554494E452043414C7E
:103030004C207461726765743A2200506172616459
:103040006120646520656D657267656E6369610006
:10305000747279696E6720746F2063616C6C207381
:1030600075622D67636F64652066696C6573207790
:1030700069746820746F6F206D616E79206C65765D
:10308000656C732E204D4158206C6576656C206907
:10309000733A0053442063617264206F6B0A006FBF
:1030A00070656E526F6F74206661696C65640A00AA
:1030B000766F6C756D652E696E6974206661696CDA
:1030C00065640A004572726F723A00534420696E5B
:1030D0006974206661696C0A0043616E6E6F7420CA
:1030E0006F70656E2073756264697220006175741B
:1030F0006F25692E67004D3234004D323320257321
:1031000000656E7175657565696E6720220065637F
:10311000686F3A00DB00D90011241FBECFEFD1E267
:10312000DEBFCDBF00E00CBF13E0A0E0B2E0EEEFE9
:10313000F9E202E00BBF02C007900D92AA3AB10774
:10314000D9F721E1AAEAB3E001C01D92A731B20785
:10315000E1F718E1CBE8D8E100E006C021970109CA
:10316000802FFE010F946114CA38D10780E0080750
:10317000A9F70F9466010D94EE140C9400008CE0F6
:10318000EDEDF4E0ACEBB9E001900D928A95E1F73A
:103190000895CF93DF93EC0120E030E04CE553E459
:1031A000688179818A819B810F944512181644F4B5
:1031B00080E090E0ACE5B3E488839983AA83BB8385
:1031C00020E030E04CE553E46C817D818E819F816D
:1031D0000F944512181644F480E090E0ACE5B3E497
:1031E0008C839D83AE83BF8320E030E040E753E4CF
:1031F000688579858A859B850F944512181644F455
:1032000080E090E0A0E7B3E488879987AA87BB872E
:10321000DF91CF910895129A479A08955F9AE3E655
:10322000F9E010828A9A11829FB7F894A8E0B1E081
:103230008C9181608C939FBF1282EDCF089590E0B6
:1032400080E0089580E1ECEBF9E0AAEEB4E00190B3
:103250000D928A95E1F7089580E1EAEEF4E0ACEB97
:10326000B9E001900D928A95E1F708958FB7F8942F
:103270009091C7042091C604291769F0E92FF0E066
:10328000EA5BFB4F208130E09F5F9F779093C704FC
:103290008FBFC90108952FEF3FEFFACFAF92BF92D2
:1032A000CF92DF92EF92FF920F931F93CF93DF9312
:1032B0001F92CDB7DEB76C018B01590180910C05CF
:1032C00081111BC07B01E40EF51EF6018081918106
:1032D0000F94BE0F8983F80181938F01BE016F5F48
:1032E0007F4FC5010E9492DBF6018081918101969A
:1032F00091838083E016F10641F70F90DF91CF9123
:103300001F910F91FF90EF90DF90CF90BF90AF9003
:1033100008950F931F93CF93DF93EC010E9497E0E2
:103320000E811F812885398501151105210531057B
:1033300079F52C85222339F1EA8521502C8721E06B
:103340002E0F2A873D85231301C01A86F0E031969F
:10335000EE0FFF1FEE0FFF1FEC0FFD1F0285138501
:10336000248535850A831B832C833D83600F711F61
:10337000811D911D6E837F83888799878C819D81B4
:10338000892B09F0409ADF91CF911F910F910895F9
:10339000601B710B820B930B97FDF5CF40981E823B
:1033A0001F8218861986EFCFCF93DF9390E080E0DD
:1033B0000E94B2B4CDEDD4E0688379838A839B8385
:1033C00081E090E00E94B2B46C837D838E839F8302
:1033D00082E090E00E94B2B4688779878A879B87F1
:1033E000DF91CF910895CF92DF92EF92FF921F93DA
:1033F000CF93DF9300D01F92CDB7DEB7182F66238F
:1034000051F010921D041092190410921A04109297
:103410001B0410921C040E9497E0AB01BC01809138
:10342000190490911A04A0911B04B0911C046A0124
:103430007B01C81AD90AEA0AFB0AD701C601B7FDFF
:1034400037C017FD41C080911D04212F012E000CB3
:10345000330B2C5F3F4FE82F082E000CFF0B2E176D
:103460003F0734F1811784F180E991E0A0E0B0E0FA
:10347000840F951FA61FB71F8093190490931A04F9
:10348000A0931B04B0931C0480ED97E09C838B8376
:103490008CE291E09A838983BE016D5F7F4FCE01FC
:1034A00001960E9482DA80911D048F5F80931D0433
:1034B0000F900F900F900F90DF91CF911F91FF9081
:1034C000EF90DF90CF90089584EC99E0A0E0B0E019
:1034D000CFCFEF920F931F93CF93DF93CDB7DEB78C
:1034E00060970FB6F894DEBF0FBECDBF6D877E87A5
:1034F0008F87988BE090F007EAEEF4E08085918565
:10350000A285B385448155816681778100811181CF
:103510002281338109831A832B833C834D835E830D
:103520006F83788789879A87AB87BC87AE01475FAF
:103530005F4FBE016B5F7F4FCE0101960E9427C790
:103540008E01035F1F4F26EF34E0AE01475F5F4FF0
:10355000BE016B5F7F4FCE0101960E94BABF60969D
:103560000FB6F894DEBF0FBECDBFDF91CF911F9194
:103570000F91EF900895CF92DF92EF92FF92CF9349
:10358000DF936A017B01CCEBD9E0E091F00724E006
:10359000E29FF0011124EF5EFD4F208131814281D5
:1035A0005381FC0160817181828193810F94FB10B2
:1035B0002C853D854E855F850F941F106C877D8718
:1035C0008E879F873FDEC701B60183DFDF91CF91F2
:1035D000FF90EF90DF90CF900C94D1B4EF920F93C7
:1035E0001F93CF93DF93CDB7DEB72C970FB6F89428
:1035F000DEBF0FBECDBFE090F007ECEBF9E08085B9
:103600009185A285B385448155816681778100814A
:1036100011812281338109831A832B833C834D835B
:103620005E836F83788789879A87AB87BC87AE0173
:10363000475F5F4FBE016B5F7F4FCE0101960E94D7
:1036400027C70FE312E028EC39E0AE01475F5F4F78
:10365000BE016B5F7F4FCE0101960E94BABF2C96D0
:103660000FB6F894DEBF0FBECDBFDF91CF911F9193
:103670000F91EF9008958091AA039091AB0300976A
:1036800031F04AE050E070E060E00D942E0960E017
:1036900070E0CB010895EFDF97FD0AC0ECDF6F3FCC
:1036A00071058105910509F02CF4E5DF862F089559
:1036B00080E008958FEF08958091AA039091AB0365
:1036C000892B39F0E8DF91E0811101C090E0892F6A
:1036D000089591E0FCCF019719F583E393E3ABECF8
:1036E000B1E48093290590932A05A0932B05B0930C
:1036F0002C056091290570912A0580912B059091E8
:103700002C0520E030E040E450E40F9480126093F8
:103710002505709326058093270590932805089525
:1037200080E090E0A0E8BFE3DCCF8091AA03909115
:10373000AB03009731F04AE050E070E060E00D9498
:10374000590A60E070E0CB010895FC0120E03EE200
:10375000DB014D91BD01403249F0283011F4308336
:103760003196DB0111974C91408331962F5F2B30BE
:1037700079F71082089561E0FC0180810C946CDD82
:103780008EBD0DB407FEFDCF08958FEF8EBD0DB435
:1037900007FEFDCF8EB508958F929F92AF92BF9294
:1037A000EF92FF920F931F93CF937C01C62F490195
:1037B0005A01FC019281892F806A86958CBD90FD0B
:1037C00003C081E0963009F480E08DBD60E0F70130
:1037D00080810E946CDD8CE291E00E94A3E08C2F3E
:1037E0008064CEDF08E110E0D501C401002E04C0E2
:1037F000B695A795979587950A94D2F7C1DF08509B
:103800001109083FFFEF1F0779F785E9CC2321F065
:1038100087E8C83009F08FEFB3DFCC3009F4B5DFAB
:10382000C0E0B3DFF701838387FF04C0CF3F11F00F
:10383000CF5FF7CFCF911F910F91FF90EF90BF9087
:10384000AF909F908F9008950F931F93CF93DF9326
:10385000EC0189018C81833039F089E0440F551FD8
:10386000661F771F8A95D1F79A01AB0168E1CE01F7
:1038700093DF882319F086E0898335C08EEF8EBDF3
:10388000F801C8019E5F0DB407FEFDCF20812EBD5B
:103890000DB407FEFDCF21812EBD3296E817F90742
:1038A00091F70DB407FEFDCF8FEF6ADF8FEF68DF72
:1038B0006CDF8B838F71853091F488E592E00E94F4
:1038C000A3E0182F87E11123B9F220E030E0A9012D
:1038D0006DE0CE0161DF882351F086E1CDCF83E139
:1038E0008983CE0148DFCE0146DF10E005C04DDF01
:1038F0008111F3CFCE013FDF812FDF91CF911F9157
:103900000F910895CF938091EA0BC1E0882399F03D
:103910004091E20B5091E30B6091E40B7091E50B49
:1039200022EE39E08091EB0B9091EC0B8DDFC82FEC
:10393000811104C0C0E08C2FCF9108954091E60B17
:103940005091E70B6091E80B7091E90B411551051F
:103950006105710589F022EE39E08091EB0B9091C1
:10396000EC0B72DF882331F31092E60B1092E70B19
:103970001092E80B1092E90B1092EA0BDCCFEF9259
:10398000FF920F931F93CF93DF93EC0179018C810A
:10399000833039F089E0440F551F661F771F8A95E1
:1039A000D1F79A01AB0161E1CE01F6DE882331F057
:1039B00084E08983CE01DFDE80E034C00E9497E09E
:1039C0008B01E3DE8B838F3F71F40E9497E0601BD5
:1039D000710B6D327140A8F381E18983CE01CBDE9A
:1039E0008FEFCEDEE9CF8E3F11F08FE0F6CF8FEF75
:1039F0008EBDF701D701A150BE4F0DB407FEFDCF1C
:103A00009EB591938EBDAE17BF07B9F70DB407FEF3
:103A1000FDCF8EB58C93B9DEB8DECE01ACDE8FEF74
:103A2000AFDE81E0DF91CF911F910F91FF90EF907A
:103A30000895CF92DF92EF92FF92CF936B017C01BA
:103A4000C42F8091E20B9091E30BA091E40BB09115
:103A5000E50B8C159D05AE05BF05F1F053DF811117
:103A600008C0C0E08C2FCF91FF90EF90DF90CF90F7
:103A7000089522EE39E0B701A6018091EB0B9091F9
:103A8000EC0B7DDF882369F3C092E20BD092E30B4D
:103A9000E092E40BF092E50BCC2321F081E08093DF
:103AA000EA0BE0CFC1E0DECF4F925F926F927F9240
:103AB0008F929F92AF92BF92CF92DF92EF92FF923E
:103AC0000F931F93CF93DF93EC01423051056105B3
:103AD000710590F480E0DF91CF911F910F91FF90DD
:103AE000EF90DF90CF90BF90AF909F908F907F909E
:103AF0006F905F904F90089589859A85AB85BC85BE
:103B00000196A11DB11D84179507A607B70710F3ED
:103B10008F898031C1F5852E962EA72EBB248B89E7
:103B20009C89AD89BE89880E991EAA1EBB1E2801DC
:103B300039016A017B0141E0C501B4017ADF8823C4
:103B400049F29F89903181F5DD24EE24FF24F601AE
:103B5000EE0FFF1FEE51F64F118300839A899230CA
:103B600008F4B9CF4D815E816F817885840E951EF2
:103B7000A61EB71E8092E60B9092E70BA092E80B70
:103B8000B092E90BA8CF803209F0A4CF8B899C8931
:103B9000AD89BE894A015B01E7E0B694A79497948A
:103BA0008794EA95D1F7BFCFE894C7F8DD24EE24D7
:103BB000FF24F601EE0FFF1FEE0FFF1FEE51F64F31
:103BC0004082518262827382C9CFCF92DF92EF929C
:103BD000FF920F931F93CF93DF93FC018185928512
:103BE000A385B4850196A11DB11D84179507A6076D
:103BF000B70750F480E0DF91CF911F910F91FF90B4
:103C0000EF90DF90CF90089587898031A9F5BB2789
:103C1000A72F962F852FC388D488E588F6888C0D2A
:103C20009D1DAE1DBF1DE9016A017B018F01409101
:103C3000E20B5091E30B6091E40B7091E50B84175C
:103C40009507A607B70749F5F8018789803161F51F
:103C5000B701A601552766277727440F551F4E51F8
:103C6000564FFA0180819181B0E0A0E0888399836A
:103C7000AA83BB8381E0BFCF803209F0BBCFC3886A
:103C8000D488E588F688DB01CA01C7E0B695A79518
:103C900097958795CA95D1F7C2CF40E0BC01CD0179
:103CA000C8DE8111D1CFA6CFB701A6014F77552726
:103CB00066277727440F551F440F551F4E51564F07
:103CC000FA0180819181A281B381BF70CFCF4F92E1
:103CD0005F926F927F92AF92BF92CF92DF92EF92FC
:103CE000FF920F931F93CF93DF9300D01F92CDB716
:103CF000DEB78C0149835A836B837C835901C12CC5
:103D0000D12C7601412C82E0582E612C712C4981F6
:103D10005A816B817C819E012F5F3F4FC80155DF27
:103D2000882319F1F8018585A301920104C0220FAF
:103D3000331F441F551F8A95D2F7DA01C901C80EF7
:103D4000D91EEA1EFB1E49815A816B817C818789BD
:103D50008031F1F481E0483F5F4F61057105B8F2B1
:103D6000F501C082D182E282F3820F900F900F9012
:103D70000F90DF91CF911F910F91FF90EF90DF9007
:103D8000CF90BF90AF907F906F905F904F900895CD
:103D900081E0483F5F4F6F4F7F4008F4B8CFE0CFDE
:103DA0000F931F93CF93DF93FC012381222331F0E4
:103DB00080E0DF91CF911F910F9108958B01EC016D
:103DC000FB018789803139F582E08B831D8A1E8A49
:103DD0001F8A188E808D918DB0E0A0E025E0880FBD
:103DE000991FAA1FBB1F2A95D1F7898B9A8BAB8B82
:103DF000BC8B1A8F098F81E08983188619861A86F1
:103E00001B861C821D821E821F82188A1C861D86AC
:103E10001E861F86CECF803259F683E08B83428D7B
:103E2000538D648D758D4D8B5E8B6F8B788F9E015E
:103E30002F5E3F4FC8014BDF8111DBCFB9CF8F928F
:103E40009F92AF92BF92CF92DF92EF92FF920F9329
:103E50001F93CF93DF93EC018B8181110EC080E023
:103E6000DF91CF911F910F91FF90EF90DF90CF9056
:103E7000BF90AF909F908F90089509891A892B89E0
:103E80003C89041715072607370748F34A015B01E9
:103E9000823031F488869986AA86BB8681E0E0CF9D
:103EA00081149104A104B10449F4188619861A8674
:103EB0001B861C821D821E821F82F0CF08851985F9
:103EC0002A853B85E98DFA8D858590E00996B901B3
:103ED000A8014150510961097109082E04C0769565
:103EE0006795579547950A94D2F775016401E1E00B
:103EF000CE1AD108E108F10804C0F694E794D794EB
:103F0000C7948A95D2F7C416D506E606F70620F0C0
:103F1000012B022B032B09F58D899E89AF89B88D62
:103F20008C839D83AE83BF838E010C5F1F4FC114B2
:103F3000D104E104F10409F4ADCF4C815D816E81BF
:103F40007F819801898D9A8D40DE91E0C91AD10850
:103F5000E108F1088111EBCF82CFC41AD50AE60A35
:103F6000F70AE2CF40E050E0BA0169CF3F924F92AA
:103F70005F926F927F928F929F92AF92BF92CF92F9
:103F8000DF92EF92FF920F931F93CF93DF93CDB702
:103F9000DEB72C970FB6F894DEBF0FBECDBF5C0125
:103FA000DC0159968D909C90F40181859285A385C2
:103FB000B4859C01AD012F5F3F4F4F4F5F4F298765
:103FC0003A874B875C87D50114964D905D906D9034
:103FD0007C901797411451046104710409F458C08E
:103FE000BFEF4B1A5B0A6B0A7B0A312C730162012B
:103FF0001D821E821F821886F40181859285A38509
:10400000B4852D813E814F815885281739074A078D
:104010005B0708F054C089859A85AB85BC858C15F3
:104020009D05AE05BF0550F482E0C82ED12CE12CD1
:10403000F12C92E0492E512C612C712C9E012F5FA6
:104040003F4FB701A601C401C0DD8823C1F18981BA
:104050009A81AB81BC81892B8A2B8B2B01F12601A4
:1040600037019FEF491A590A690A790A2D813E8161
:104070004F8158852F5F3F4F4F4F5F4F2D833E83BA
:104080004F8358873FEFC31AD30AE30AF30AB4CF2A
:10409000408051806280738033243394A7CFC4144E
:1040A000D504E604F70411F70FEF1FEF2FEF3FE001
:1040B000B701A601C401F8DC782E81111AC0712C59
:1040C000872D2C960FB6F894DEBF0FBECDBFDF91C3
:1040D000CF911F910F91FF90EF90DF90CF90BF9005
:1040E000AF909F908F907F906F905F904F903F9098
:1040F0000895F50144815581668177814115510507
:104100006105710531F097018601C401CDDC88237A
:10411000B1F2D5011496CD92DD92ED92FC921797F3
:10412000332051F0D701C6010196A11DB11DF40144
:1041300080839183A283B383F50185899689A789BA
:10414000B08D892B8A2B8B2B09F0BACFC58AD68AE2
:10415000E78AF08E818180688183B2CFCF93DF932D
:10416000EC01462F41706C857D858E859F8561DCD5
:10417000882351F0888920E2829FC00111248E514A
:10418000964FDF91CF91089590E080E0FACFCF93E2
:10419000DF93EC018B81882339F1898187FF21C06E
:1041A00061E0CE01DBDFFC01892BF1F08081853EEF
:1041B000D9F08B81823040F489899A89AB89BC8996
:1041C000848F958FA68FB78F8D899E89938F828FCD
:1041D0008D899E89AF89B88DB58BA48B89818F77A6
:1041E0008983DF91CF918ECB81E0888380E0DF915E
:1041F000CF9108952F923F924F925F926F927F924C
:104200008F929F92AF92BF92CF92DF92EF92FF92E6
:104210000F931F93CF93DF9300D01F92CDB7DEB7DC
:104220008C014B011A01DC0113968C91139781309C
:1042300009F0C7C011968C9181FFC3C082FDAEC04A
:104240006101D80118964D915D916D917C911B97FC
:10425000C114D10409F414C159968D919C915A97B7
:10426000FC0174802FEF270D2A013B0139E0769481
:104270006794579447943A95D1F7722E74207A0137
:10428000F1E0FF2271101FC0E114F104E1F4149673
:104290004D915D916D917C91179741155105610587
:1042A000710509F094C055968D919D910D90BC912A
:1042B000A02D0097A105B10509F0A1C0C80156DEE7
:1042C000882309F47EC080E092E08E199F09560190
:1042D0008C159D0508F45C01D80159964D915C91AF
:1042E0005A9714968D919D910D90BC91A02D029797
:1042F000A109B109FA01258504C0880F991FAA1FD9
:10430000BB1F2A95D2F74685578560897189840F2E
:10431000951FA61FB71F9C01AD01270D311D411D23
:10432000511D29013A01A11432E0B30609F075C00C
:104330008091E20B9091E30BA091E40BB091E50B1F
:10434000481659066A067B0669F41092EA0B8FEF4D
:104350009FEFDC018093E20B9093E30BA093E40BBF
:10436000B093E50B9401B301A2018091EB0B909106
:10437000EC0B6ADA882329F1F80180859185A28502
:10438000B3858A0D9B1DA11DB11D80879187A287D2
:10439000B3878A0C9B1CCA18DB0853CFF8014189EC
:1043A00052896389748980859185A285B385481770
:1043B00059076A077B0709F443CFC80140DD811123
:1043C0003FCF81E0D8018C938FEF9FEF6FC09E01AC
:1043D0002F5F3F4FFADB8823A1F389819A81AB815C
:1043E000BC81F801218D328DF9012789203169F4D2
:1043F000883FFFEF9F07A105B10508F05FCFF801E7
:1044000084839583A683B7835ECF883F2FEF92077F
:10441000A2072FE0B20798F351CFE114F10449F558
:10442000D80118964D915D916D917C911B97519695
:104430008D919D910D90BC91A02D481759076A0749
:104440007B07B8F05FDA882309F4BBCF81E0809363
:10445000EA0B4092E20B5092E30B6092E40B7092F5
:10446000E50BA501B401C7018E51964F0F9484143A
:1044700083CF41E0C301B201DCDA8111F2CFA1CFD9
:10448000F80181899289A389B48984179507A607C1
:10449000B70738F48181418B528B638B748B8068B2
:1044A0008183F801818183FD18C0C1010F900F90B5
:1044B0000F900F90DF91CF911F910F91FF90EF9090
:1044C000DF90CF90BF90AF909F908F907F906F9034
:1044D0005F904F903F902F900895C80158DE811152
:1044E000E4CF6FCFCF93DF931F92CDB7DEB7698351
:1044F00041E050E0BE016F5F7F4F04967BDE0F907E
:10450000DF91CF910895CF93DF93EC0140DE1B82C2
:10451000DF91CF910895FC0123812111F4CF0895FB
:10452000CF93DF93EB01FC012381211104C080E0D4
:10453000DF91CF9108952250223028F48FE28883B2
:10454000198281E0F5CF60E009DE009781F3DC019C
:1045500060E080E09EE22D91203299F0883031F4C5
:104560009E01260F311DF90190836F5F9E01260F7A
:10457000311DAD0141505109FA014081F9014083DB
:104580006F5F8F5F8B3039F7FE01E60FF11D1082F0
:10459000D8CF0F931F93CF93DF938B01EA01DB01F9
:1045A0006D917C910496BCDFD801ED91FC9111973F
:1045B00088819081992349F08D38A0F43196ED934C
:1045C000FC9388818F5F8883EFCF8D3858F48FE21A
:1045D0008083F80180819181019691838083888115
:1045E0008F5F8883DF91CF911F910F9108952F9254
:1045F0003F924F925F926F927F928F929F92AF9273
:10460000BF92CF92DF92EF92FF920F931F93CF93BF
:10461000DF9300D01F92CDB7DEB79C838B834B0115
:104620007A01DC0113968C91811119C08FEF9FEFF5
:104630000F900F900F900F90DF91CF911F910F91DE
:10464000FF90EF90DF90CF90BF90AF909F908F90B2
:104650007F906F905F904F903F902F900895EB81E7
:10466000FC81818180FFE2CF01891289238934890D
:104670004085518562857385C701B0E0A0E02801BF
:104680003901441A550A660A770A481659066A0615
:104690007B0618F47801E41AF50A67018B819C8186
:1046A00004969A838983612C32E0732EC114D1045D
:1046B00009F4B4C0AB81BC8118964D915D916D91A8
:1046C0007C911B975A01B1E0BB22EB81FC81818D6B
:1046D000928D1A012B0129E0569447943794279420
:1046E0002A95D1F72381223089F5DC015A966D9104
:1046F0007D918D919C915D97620D731D841D951D1B
:1047000083010A191B09C016D10608F48601011598
:10471000B2E01B0771F42091E20B3091E30B409162
:10472000E40B5091E50B621773078407950709F0B6
:1047300057C040E07ED9882309F478CFB5016E5187
:10474000764FA801C4010F94841455C0FC01148154
:1047500011501221A114B10481F411110EC0452B86
:10476000462B472B79F5EB81FC8185899689A789B2
:10477000B08D84839583A683B783AB81BC81599622
:10478000ED91FC915A9714966D917D918D919C912C
:1047900017976250710981099109258504C0660F38
:1047A000771F881F991F2A95D2F72685378540895C
:1047B0005189620F731F841F951F610F711D811D29
:1047C000911D9ECFAB81BC8114964D915D916D91F1
:1047D0007C91179729813A81F8D98111CECF26CFC4
:1047E0009401AB01BC018091EB0B9091EC0BC7D80D
:1047F000882309F41BCF800E911EEB81FC818085FC
:104800009185A285B385800F911FA11DB11D808761
:104810009187A287B387C01AD10A48CFC70108CFB2
:10482000DF92EF92FF920F931F93CF93DF938C0150
:10483000EB017A018DE0D82E40E250E0BE01C801C4
:10484000D6DE8032910571F021E0892B09F420E059
:10485000822F8195DF91CF911F910F91FF90EF9063
:10486000DF90089528812223C1F1253E29F32E32BD
:1048700019F3E114F10439F13B853F733F3019F529
:104880004A8D5B8D452BF9F42F713FEF320F353098
:10489000D0F42150330BD29EC001D39E900D112431
:1048A000D701A80FB91FFE0120E0AD01253078F433
:1048B00031813D932F5F32962D30C1F7288126FF3D
:1048C00002C0FA0115862B8523FDB6CFC3CF2B304E
:1048D00010F43481EECF3681ECCF80E0BBCF4F9225
:1048E0005F926F927F92AF92BF92CF92DF92EF92E0
:1048F000FF920F931F93CF93DF931F92CDB7DEB735
:104900008C017B015A01C22EDB0159968D919C913D
:10491000F801928F818FCB0125DB712CF701808507
:104920009185A285B38541895289638974898417E9
:104930009507A607B70708F051C055E0B695A795AB
:10494000979587955A95D1F7F82FFF70DF2ED701ED
:1049500013968C91823010F480E0D9C041E050E091
:10496000BE016F5F7F4FC70142DE0197A9F7F701D4
:1049700080859185A285B3854F96A11DB11D808745
:104980009187A287B387F0E2DF9EB00111246E51B8
:10499000764F6115710501F3DB018C91882341F09D
:1049A000853E09F04BC0772029F077247394B6CF69
:1049B00071100EC08091E20B9091E30BA091E40B7B
:1049C000B091E50BF80184879587A687B787D08AD1
:1049D000DB018C918111E9CF772473948C2D827443
:1049E000823409F0B9CF772009F4A1C0F801D0884A
:1049F00061E0C801B3DB009709F4AECF20E2DC012F
:104A00001D922A95E9F72BE0F501DC0101900D924A
:104A10002A95E1F721E238E2FC01318B208B40E05E
:104A200058E057874687338B228B318F208F578BE7
:104A3000468B0E94821C811109C08ECF4BE050E052
:104A4000C5010F947714892B09F068CFF0E2DF9E3F
:104A5000D00111249D012E51364FF90183858171BA
:104A600021F08C2D827109F0FAC0F801818D928DB0
:104A70004091E20B5091E30B6091E40B7091E50BD8
:104A80004487558766877787D08AFD01EE51F64FB8
:104A900044885588712C612C320155244424D80156
:104AA00055964D925D926D927C925897428D538DA2
:104AB00070E060E0442955296629772955964D9381
:104AC0005D936D937C935897D9011B962C91287117
:104AD00009F0B8C0848D958DA68DB78DF801818BB6
:104AE000928BA38BB48B81E083838C2D8F70F80124
:104AF000818314821582168217821086118612868F
:104B0000138681E0C4FE03C0C8010E94AAD90F9099
:104B1000DF91CF911F910F91FF90EF90DF90CF9099
:104B2000BF90AF907F906F905F904F900895D701A6
:104B300013968C911397823009F40ECF51968D9174
:104B40009D910D90BC91A02D803E9F4FAF41B1052E
:104B500008F002CFC7010ADA882309F4FDCE0E94CB
:104B6000821C882309F4F8CED7015996ED91FC9167
:104B70005A9714964D905D906D907C901797B2E087
:104B80004B1A510861087108858504C0440C551CF6
:104B9000661C771C8A95D2F786859785A089B1898E
:104BA000480E591E6A1E7B1E81E08093EA0B4092DC
:104BB000E20B5092E30B6092E40B7092E50BE2EE95
:104BC000F9E080E092E0DF019C011D92215030402D
:104BD000E1F7DD24D394D7015996ED91FC918481BE
:104BE000D81698F422EE39E0B301A2014D0D511D03
:104BF000611D711D8091EB0B9091EC0B0E94241CA8
:104C0000882309F4A9CED394E6CF258580E092E0ED
:104C1000A0E0B0E004C0880F991FAA1FBB1F2A950F
:104C2000D2F7F7014189528963897489840F951FEE
:104C3000A61FB71F818B928BA38BB48B82EE99E05A
:104C4000D12CDCCE203159F498012F5E3F4F3FD854
:104C5000882329F084E0D80113968C9346CFD8019D
:104C600013961C9279CE2F923F924F925F926F9241
:104C70007F928F929F92AF92BF92CF92DF92EF92EC
:104C8000FF920F931F93CF93DF93CDB7DEB7C3543B
:104C9000D1090FB6F894DEBF0FBECDBF4C015B014A
:104CA0006A01222E19821C821C8E1F8E61157105CD
:104CB00011F510E0CE014C962EDCCE0101962BDCD6
:104CC000812FCD5BDF4F0FB6F894DEBF0FBECDBF97
:104CD000DF91CF911F910F91FF90EF90DF90CF90D8
:104CE000BF90AF909F908F907F906F905F904F900C
:104CF0003F902F900895FC0183818111DACFFA0152
:104D000080818F32A9F18B01CE0101967C013C019B
:104D100080E2382E2E019CE1490E511C2396EFAE05
:104D200023972496FFAE249722963FAE2297219692
:104D30003FAE21973FAE3EAE3DAE3CAE3BAE3AAE4F
:104D400039AE38AE3FAA960190E047E0D9018D9187
:104D5000882309F447C08F3209F444C0282F8E32CB
:104D600001F54A3009F4A5CF98E04AE09D01EECF65
:104D7000FB01838182508B01823058F0618D728DEE
:104D8000CE014C960DD88E01045E1F4F882309F486
:104D900090CFC6016C010196F60120812F32D1F32C
:104DA000B3CFE9EFFDE03491332321F03196831343
:104DB000FACF7FCF491708F47CCF813208F479CF3E
:104DC0008F3709F476CF3FE9380F3A3110F420EEEF
:104DD000280FE7E3F0E0EC0FFD1FE90FF11D208342
:104DE0009F5FC4CF8FA9803209F463CF6901F901B5
:104DF00080812F5F3F4F8F32C9F38823F1F021E08C
:104E0000AE01495C5F4FB801C70169DD882309F431
:104E100050CF0A151B0511F0C80175DB942D852DA7
:104E20006E147F0431F023969FAD239724968FADA7
:104E300024978701E92EF82E77CF222DAE01495C09
:104E40005F4FB801C4014BDD182F34CF29EF32E09A
:104E5000FC013183208304965ECB2F923F924F92C8
:104E60005F926F927F928F929F92AF92BF92CF92FA
:104E7000DF92EF92FF920F931F93CF93DF9300D0B7
:104E80001F92CDB7DEB79A8389831B018A013C83C9
:104E90002B8340903F0250904002609041027090FE
:104EA0004202F901E080F1809280838020E030E0CE
:104EB000A901B701892D982D0F94090C811109C002
:104EC000EFE9FDE085919591A591B4917C019A2E31
:104ED0008B2EF80120813181428153816091C40978
:104EE0007091C5098091C6099091C7090F94090C6A
:104EF00087FF1AC0C701A92DB82D80933F02909358
:104F00004002A0934102B0934202F8018081918156
:104F1000A281B3818093C4099093C509A093C60967
:104F2000B093C7090E94EE1AEB81FC81A080B1808A
:104F3000C280D38020E030E0A901C601B5010F9402
:104F4000090C811108C0A0903B02B0903C02C090B7
:104F50003D02D0903E02A0923F02B0924002C09229
:104F60004102D0924202E981FA8180819181A2813D
:104F7000B3818093BC099093BD09A093BE09B093FF
:104F8000BF09F10180819181A281B3818093C00921
:104F90009093C109A093C209B093C3090E94EE1A6D
:104FA000F80120813181428153816091C40970915F
:104FB000C5098091C6099091C7090F94451218162A
:104FC000D4F4C701A92DB82D80933F0290934002DD
:104FD000A0934102B0934202F80180819181A281A5
:104FE000B3818093C4099093C509A093C609B09377
:104FF000C7090E94EE1A0E94D1B440923F0250921B
:10500000400260924102709242020F900F900F9006
:105010000F90DF91CF911F910F91FF90EF90DF9054
:10502000CF90BF90AF909F908F907F906F905F9048
:105030004F903F902F9008959B01AC0160EC79E078
:105040008CEB99E00ACFCF92DF92EF92FF921F9301
:10505000CF93DF93CDB7DEB72C970FB6F894DEBFB2
:105060000FBECDBF90916709981709F469C0182F3A
:1050700080E090E0A0E2B1E48D839E83AF83B887A7
:10508000C090A509D090A609E090A709F090A809C2
:1050900020E030E0A901C701B6010F94090C87FF99
:1050A0000CC0A701960160E070E080E291E40F94EB
:1050B0001E106D837E838F8398872D813E814F8163
:1050C00058856091C4097091C5098091C609909175
:1050D000C7090F94090C87FF0AC019821A821B8224
:1050E0001C82BE016F5F7F4FCE010596A5DF8091C8
:1050F000BC099091BD09A091BE09B091BF098987F3
:105100009A87AB87BC878091C0099091C109A09113
:10511000C209B091C3098D839E83AF83B88719827A
:105120001A821B821C829E012F5F3F4F44EC59E084
:10513000BE016B5F7F4FCE0109968FDE109367092A
:1051400080E02C960FB6F894DEBF0FBECDBFDF9186
:10515000CF911F91FF90EF90DF90CF9008959091A5
:105160006F0DE92FF0E0E859F64F80839F5F943090
:1051700040F490936F0D8091700D8F5F8093700D50
:10518000089510926F0DF7CFDF92EF92FF920F9379
:105190001F93CF93DF93CDB7DEB76E970FB6F8941A
:1051A000DEBF0FBECDBF6091ED0B7091EE0B6115B0
:1051B000710569F14DE150E08E010F5F1F4FC8018D
:1051C0000F94790B1E8EF8017F01E01AF10AD1903D
:1051D000DD2019F08AE0D812F7CFF801EE0DFF1D9F
:1051E0001082C8010E9467D8882389F090E080E08F
:1051F000DD2049F08FEFE81AF80A8091ED0B9091CD
:10520000EE0B8E0D9F1D9093EE0B8093ED0B81E0C6
:105210002091ED0B3091EE0B232B09F480E06E967C
:105220000FB6F894DEBF0FBECDBFDF91CF911F91B7
:105230000F91FF90EF90DF9008950F931F93CF93FE
:10524000DF93CDB7DEB72C970FB6F894DEBF0FBE55
:10525000CDBFECEBF9E080859185A285B3854481D3
:105260005581668177810081118122813381098393
:105270001A832B833C834D835E836F837887898772
:105280009A87AB87BC87AE01475F5F4FBE016B5FFC
:105290007F4FCE0101960E9427C728EC39E0AE016E
:1052A000475F5F4FBE016B5F7F4FCE0101960E944B
:1052B0008BBE2C960FB6F894DEBF0FBECDBFDF912C
:1052C000CF911F910F9108954F925F926F927F92AD
:1052D0008F929F92BF92CF92DF92EF92FF920F93A5
:1052E0001F93CF93DF93CDB7DEB760970FB6F894D7
:1052F000DEBF0FBECDBF2A013B016801F22EB32EE7
:105300008C01000F111F000F111FC8018454964F0C
:105310004C01FC0110821182128213828EDFF40193
:105320004082518262827382E090F00720E030E098
:10533000A901B6018F2D9B2D0F94090C81110AC074
:10534000F801E956F24F85919591A591B4916C01C0
:10535000FA2EBB2EC601AF2DBB2D8D879E87AF8742
:10536000B88B8091C4099091C509A091C609B091EC
:10537000C7094091C0095091C1096091C20970915B
:10538000C3090091BC091091BD092091BE0930915B
:10539000BF0909831A832B833C834D835E836F830C
:1053A000788789879A87AB87BC87AE01475F5F4F55
:1053B000BE016B5F7F4FCE0101960E9427C78E0111
:1053C000035F1F4F28EC39E0AE01475F5F4FBE011E
:1053D0006B5F7F4FCE0101960E94BABF0E94D1B48D
:1053E0001092880960960FB6F894DEBF0FBECDBF4D
:1053F000DF91CF911F910F91FF90EF90DF90CF90B1
:10540000BF909F908F907F906F905F904F90089586
:105410009091D307981791F08093D307811109C019
:105420000E94D4198DED94E00E9459C50E94BF18C6
:1054300004CF8CEB99E00E9459C5FACF089580E023
:10544000E7DFEBE8FDE080E090E0A0E8BFE38083E9
:105450009183A283B38314821582168217821086E9
:105460001186128613861486158616861786808BFB
:10547000918BA28BB38B148A158A168A178A108E89
:10548000118E128E138E148E158E168E178E80A38B
:1054900091A3A2A3B3A308951F93CF93DF9300D04A
:1054A00000D01F921F92CDB7DEB76D837E838F83AE
:1054B0009887CA01B90120E030E040E752E40F9438
:1054C000FB1069837A838B839C83BE016F5F7F4F60
:1054D000CE010596B1DD10918809109288090E94CD
:1054E000D4198DED94E00E9459C58091E504909106
:1054F000E604A091E704B091E8048093C409909376
:10550000C509A093C609B093C70997DE81E013FDD2
:1055100080E028960FB6F894DEBF0FBECDBFDF91B6
:10552000CF911F9108950F931F93CF938091AA035A
:105530009091AB030097E9F0FC018F01C1912C2FF2
:105540002F7D81F0C53411F0C536B9F7F80110820E
:1055500070E060E00F94D907F801C083CF911F91EC
:105560000F91089570E060E0CF911F910F910D941D
:10557000D90760E070E0CB01F1CFCF93DF93EC016E
:10558000D2DF239789F420912D05222369F0209101
:1055900025053091260540912705509128050F9447
:1055A0006E0CDF91CF9108952091290530912A0545
:1055B00040912B0550912C05F2CFB5DF20912905A4
:1055C00030912A0540912B0550912C050D946E0CBD
:1055D00008952FEB280F2A3168F5422F50E0FA0189
:1055E00083E0F595E7958A95E1F7E35CFB4F9081C1
:1055F000892F90E0277002C0959587952A95E2F74C
:1056000080FD02C0817008954D5D5B4FFA0180817D
:10561000882369F02091D3043091D404820F932F12
:10562000911D9093AB038093AA0381E0089590E0CD
:1056300080E0F7CF80E00895CCDF882341F081E05F
:105640002091AA033091AB03232B09F480E0089545
:10565000CF92DF92EF92FF920F931F93CF93DF933E
:1056600081EBC82E82E0D82E9AEEE92E94E0F92E36
:105670000CEB19E0D0E0C0E0F60181916F01A9DFE9
:10568000882309F449C0CE0178DFFE01E25EFB4FBA
:105690002081211104C0209122042223C9F1F801A4
:1056A00020813181428153810F941F10F701608363
:1056B0007183828393832196F4E0EF0EF11C0C5FDB
:1056C0001F4FC430D105C1F686E4B6DF8823B9F098
:1056D00074DF20E030E0A9010F94451218167CF425
:1056E0006CDF20E030E040E752E40F94FB10609361
:1056F0003F02709340028093410290934202DF91F7
:10570000CF911F910F91FF90EF90DF90CF90089570
:1057100020E030E0A901C8CFF80180819181A28109
:10572000B381F70180839183A283B383C4CF209197
:10573000D30D9091D40D81E0291301C080E008952C
:1057400088E893E19093C2078093C10780916F002E
:105750008D7F80936F00EBDF882351F0E8DF882393
:10576000D1F38091D40D8F5F87708093D40DF3CFE8
:105770001092C0071092BF0780916F0082608093E3
:105780006F008FB7F89410924D0910924E09109245
:105790004F09109250098FBF0E94D1B40E94D419B2
:1057A0008DED94E00E9459C50E94BF1846CDAC0112
:1057B000485F5F4FBC016C5F7F4F0C9427C70E940E
:1057C00097E06093D5047093D6048093D7049093A8
:1057D000D80408958091150490911604A09117049F
:1057E000B091180480933F0290934002A09341022D
:1057F000B0934202809113049091140490931E027E
:1058000080931D02DCCF80913F0290914002A091D5
:105810004102B09142028093150490931604A09324
:105820001704B093180480911D0290911E0290936A
:1058300014048093130484E690E090931E028093F6
:105840001D02BDCF9091C00095FFFCCF8093C60094
:1058500008957F928F929F92AF92BF92CF92DF92E4
:10586000EF92FF920F931F93CF93DF931F92CDB7C9
:10587000DEB7E0910C05E11136C059017C018B01C6
:105880006B01C40ED51E0C151D0569F1F701808052
:105890009180F80171908F017982C4010F94BE0F3D
:1058A000781681F1672DC4010F94C60FC4010F94BF
:1058B000BE0F9981891731F10EE011E3F80184914F
:1058C0000F5F1F4F81110AC009E01EE0F8018491AB
:1058D0000F5F1F4F882321F0B5DFF8CFB3DFEECF86
:1058E00081E080930C050F90DF91CF911F910F9174
:1058F000FF90EF90DF90CF90BF90AF909F908F90F0
:105900007F900895BE016F5F7F4FC5010E9492DBBB
:10591000F70180819181019691838083B4CF8F922A
:105920009F92AF92BF92CF92DF92EF92FF920F932E
:105930001F93CF93DF93CDB7DEB7C056D1090FB613
:10594000F894DEBF0FBECDBF1D861E861F86188A47
:105950008091010390910203A0910303B09104038D
:10596000898B9A8BAB8BBC8B2D961FAE1EAE2D9761
:1059700084E690E02F969FAF8EAF2F9710920C0584
:105980009E01255B3F4F44E050E0BE016F5E7F4FBC
:10599000CE01835B9F4F5DDF2F968EAD9FAD2F971E
:1059A00002962F969FAF8EAF2F972D961FAE1EAEED
:1059B0002D9781E068968FAF68979E01255B3F4FDA
:1059C00041E050E0BE01695A7F4FCE01835B9F4F9B
:1059D00040DF9E01255B3F4F40E150E06CEC79E0F9
:1059E000CE01835B9F4F35DF9E01255B3F4F40E13A
:1059F00050E068E178E0CE01835B9F4F2ADF9E0193
:105A0000255B3F4F40E150E068E278E0CE01835BE8
:105A10009F4F1FDF9E01255B3F4F44E050E060E455
:105A200078E0CE01835B9F4F14DF9E01255B3F4FE3
:105A300044E050E06CE378E0CE01835B9F4F09DFE8
:105A40009E01255B3F4F44E050E068E378E0CE01E3
:105A5000835B9F4FFEDE9E01255B3F4F44E050E09D
:105A600064E178E0CE01835B9F4FF3DE9E01255B0E
:105A70003F4F44E050E060E178E0CE01835B9F4F10
:105A8000E8DE9E01255B3F4F44E050E062E475E0B4
:105A9000CE01835B9F4FDDDE9E01255B3F4F40E1E2
:105AA00050E064E478E0CE01835B9F4FD2DEBE011C
:105AB0006F5F7F4F8CE0FB0111928A95E9F79E01A1
:105AC000255B3F4F4CE050E0CE01835B9F4FC1DE32
:105AD0009E01255B3F4F44E050E061E175E0CE015F
