:100000000C9461230C9492230C9492230C949223CD
:100010000C9492230C9492230C9492230C9492238C
:100020000C9492230C9492230C9492230C9492237C
:100030000C9492230C9437940C9492230C94922356
:100040000C9492230C94449D0C9492230C94922330
:100050000C9492230C9492230C94E2640C94EEAED4
:100060000C9492230C9446470C9492230C94922364
:100070000C9492230C9492230C9492230C9492232C
:100080000C9492230C9492230C9492230C9492231C
:100090000C9492230C9492230C9492230C9492230C
:1000A0000C9492230C9492230C9492230C949223FC
:1000B0000C9492230C9492230C9492230C949223EC
:1000C0000C9492230C9492230C9492230C949223DC
:1000D0000C9492230C9492230C9492230C949223CC
:1000E0000C9492239E65A365CD65D265B265BE650D
:1000F00088653EAD41AD30AD34AD3AAD78AD45AD7E
:1001000049AD4FAD53AD57AD5DAD61AD65AD78ADAA
:100110006BAD6FAD73AD0AAE0FAE14AE1EAE28AEB2
:10012000A1AE32AE3AAE42AE4CAE56AE60AE6FAE9F
:1001300079AEA1AE83AE8DAE97AE0301FD00FB009C
:100140000101FB00FB00FB00FB00FB00FB00FB00D0
:10015000FB00FB00FB00FB00FB00FB00FB00FB00C7
:10016000FB00FB00FB00FB00FB00FB00FB00FB00B7
:10017000FB00FB00FB000701FB00FB00FB00FB009A
:10018000FB00FB00FB00FB000D01FB00FB00FB0084
:10019000FB00FB00FB00FB00FB00FB00FB00F90089
:1001A0000901084AD73B3BCE016E84BCBFFDC12F7D
:1001B0003D6C74319ABD56833DDA3D00C77F11BE58
:1001C000D9E4BB4C3E916BAAAABE000000803F055B
:1001D000A84CCDB2D44EB93836A9020C50B991868C
:1001E00088083CA6AAAA2ABE000000803F000D9401
:1001F000D71A0D94C3100D94EC0E0D94B30E0D94FC
:1002000088230D94AC100D9470100D94410E0D9434
:10021000A6100D94E90E0D94A0060D947F104E418A
:100220004E494E495459494E46CDCCCC3D0AD72370
:100230003C17B7D13877CC2B329595E6241FB14FB8
:100240000A000020410000C84200401C4620BCBEFD
:100250004CCA1B0E5AAEC59D74434F4D4D554E4969
:10026000434154494F4E0044525952554E00455255
:10027000524F525300494E464F004543484F0047A6
:10028000322F47332062616420706172616D657442
:100290006572730A00D0A1D0BFD0BBD18FD187D0F7
:1002A000BAD0B02E2E2E00205A3A200020593A20E3
:1002B0000042656420583A2000D092D196D0B4D044
:1002C000BDD0BED0B2D0BBD0B5D0BDD0BDD18F20B7
:1002D000D0B4D180D183D0BAD183005A38535F5281
:1002E0003220D0B3D0BED182D0BED0B2D0B8D0B937
:1002F0002E00D09ED187D196D0BAD183D0B2D0B0C3
:10030000D0BDD0BDD18F20D0B4D196D0B92E2E2E55
:1003100000D09DD0B5D0BCD0B0D19420D180D183B5
:10032000D185D1832E00456E642066696C65206C92
:100330006973740A00426567696E2066696C65209E
:100340006C6973740A004D31323500534420707269
:10035000696E74696E67206279746520004E6F74EF
:10036000205344207072696E74696E670A0050727F
:10037000696E742074696D653A200050726F7465FF
:10038000637465642050696E0A00452569202573F1
:10039000007A0275026E02670259026F66660044B7
:1003A000454255473A00D09FD095D0A0D095D0A0D7
:1003B000D092D090D09DD09E2E20006F6B00D0A107
:1003C000D182D196D0BB20D0BDD0B0D0B3D180D116
:1003D00096D182D0B8D0B92E0020573A00D09DD007
:1003E000B0D0B3D180D196D0B2D0B0D0BDD0BDD135
:1003F0008F20D181D182D0BED0BBD1832E005A387C
:10040000535F523220D092D0B8D0BCD0BA2E202E1A
:1004100000454D455247454E43595F504152534563
:100420005200434153455F4C494748545F4252494B
:100430004748544E45535300544F47474C455F4C33
:10044000494748545300534F4654574152455F5013
:100450004F574552004255494C445F504552434521
:100460004E54004C4556454C494E475F444154411B
:10047000005A5F50524F4245004155544F4C45562B
:10048000454C005052494E545F4A4F420050524F23
:100490004752455353004155544F5245504F5254C3
:1004A0005F54454D5000564F4C554D4554524943AD
:1004B00000454550524F4D0053455249414C5F58FD
:1004C0004F4E5F584F4646004649524D57415245A0
:1004D0005F4E414D453A4D61726C696E20426173C9
:1004E00065206F6E204D61726C696E312E312E3831
:1004F00020284769746875622920534F5552434537
:100500005F434F44455F55524C3A68747470733A78
:100510002F2F6769746875622E636F6D2F7A6F6E07
:10052000657374617233642050524F544F434F4C83
:100530005F56455253494F4E3A312E30204D41437C
:1005400048494E455F545950453A5A38535F5232E4
:100550002045585452554445525F434F554E543AE6
:100560003220555549443A30303030303031302D1A
:10057000303830382D303030332D303030302D326F
:10058000303138303131303030310A002F2F2000F7
:100590004D31343520533C696E6465783E206F756B
:1005A00074206F662072616E67652028302D3129B6
:1005B0000A0053657474696E672054726176656CC5
:1005C00020416363656C65726174696F6E3A2000E7
:1005D00053657474696E6720526574726163742028
:1005E000416363656C65726174696F6E3A20005394
:1005F000657474696E67205072696E74204163631C
:10060000656C65726174696F6E3A2000536574742D
:10061000696E67205072696E7420616E6420547236
:100620006176656C20416363656C65726174696FA6
:100630006E3A2000205A004475616C20456E647348
:10064000746F702041646A7573746D656E742028D0
:100650006D6D293A2000205A0020590058002020B2
:100660004D61783A2000205A00205900580020207F
:100670004D696E3A2000D0A3D0B2D196D0BCD0BA8A
:100680002E00D092D0B8D0BCD0BA2E2000536F66C6
:100690007420656E6473746F70733A2000486F74D1
:1006A000656E64206F6666736574733A0000013688
:1006B000372603FF3C3D380EFF2E303E121313FF4A
:1006C000080906FFFF24221EFFFF282716FFFF0848
:1006D000440A06430706451A1C18FFFFFFFFFFFFE9
:1006E00020643A0020693A0020703A0043290A0049
:1006F00061626C656420286D696E2074656D702080
:1007000000436F6C64206578747275646573206152
:1007100072652000426564204C6576656C696E6781
:1007200020004661696C656420746F20656E6162AB
:100730006C6520426564204C6576656C696E670A5D
:1007400000426564204C6576656C20436F7272656B
:100750006374696F6E204D61747269783A003A2053
:1007600000207A5F6D696E3A20202D3230207A5F4A
:100770006D61783A202032300A0050726F62652035
:100780005A204F6666736574004E6F20636173650F
:10079000206C696768740A00556E6B6E6F776E2007
:1007A000636F6D6D616E643A2022002569730025C8
:1007B000696D20256973002569682025696D2025EC
:1007C000697300256964202569682025696D2025E5
:1007D00069730025697920256964202569682025C9
:1007E000696D2025697300D09FD095D0A0D095D099
:1007F000A0D092D090D09DD09E2E2000D097D0A394
:10080000D09FD098D09DD095D09DD09E2E200050C6
:1008100072696E7465722073746F707065642064A1
:10082000756520746F206572726F72732E20466931
:100830007820746865206572726F7220616E642022
:10084000757365204D39393920746F207265737462
:100850006172742E202854656D70657261747572B2
:10086000652069732072657365742E20536574204A
:100870006974206166746572207265737461727444
:10088000696E67290A004E6F20436865636B737554
:100890006D2077697468206C696E65206E756D6275
:1008A00065722C204C617374204C696E653A20008F
:1008B000636865636B73756D206D69736D617463D7
:1008C000682C204C617374204C696E653A20004C92
:1008D000696E65204E756D626572206973206E6F5A
:1008E00074204C617374204C696E65204E756D6286
:1008F00065722B312C204C617374204C696E653A03
:1009000020004D313130004D3331005344207265A9
:100910006164206572726F720A00446F6E652070A8
:1009200072696E74696E672066696C650A00204999
:100930006E76616C69642065787472756465722086
:100940000020706F736974696F6E206F7574206F0B
:10095000662072616E67652E0A003F50726F626595
:1009600020000A0A426564204C6576656C20436F5E
:100970007272656374696F6E204D61747269783A42
:1009800000202B000A436F72726563746564204215
:100990006564204865696768742076732E20426517
:1009A0006420546F706F6C6F67793A0A00202B00D7
:1009B0000A4265642048656967687420546F706FE7
:1009C0006772617068793A0A2020202B2D2D2D2026
:1009D0004241434B202D2D2B0A2020207C2020201B
:1009E00020202020202020207C0A204C207C202039
:1009F0002020282B29202020207C20520A2045203E
:100A00007C20202020202020202020207C20490A1B
:100A10002046207C20282D29204E20282B29207C90
:100A200020470A2054207C20202020202020202025
:100A300020207C20480A2020207C20202020282DD7
:100A400029202020207C20540A2020207C202020C7
:100A500020202020202020207C0A2020204F2D2D07
:100A60002046524F4E54202D2D2B0A2028302C305A
:100A7000290A004D65616E206F662073616D706C90
:100A8000656420706F696E74733A200020643A20A8
:100A90000020623A200045716E20636F65666669CA
:100AA0006369656E74733A20613A200020284452CD
:100AB0005952554E2900473239204175746F2042F2
:100AC0006564204C6576656C696E67002842296113
:100AD000636B00284629726F6E740028522969677B
:100AE000687400284C29656674003F4E756D626518
:100AF00072206F662070726F626520706F696E740D
:100B00007320697320696D706C61757369626C65BF
:100B1000202832206D696E696D756D292E0A003F9F
:100B20002856296572626F7365206C6576656C2046
:100B3000697320696D706C61757369626C652028DA
:100B4000302D34292E0A00526573656E643A2000F8
:100B50006F6B0020746F6F206C6F6E672065787408
:100B6000727573696F6E2070726576656E746564F8
:100B70000A0020636F6C6420657874727573696F06
:100B80006E2070726576656E7465640A004D36304D
:100B9000300043617463682066696C616D656E74D2
:100BA0002072756E206F7574210A00D09FD095D089
:100BB000A0D095D0A0D092D090D09DD09E2E2000D5
:100BC0004B494C4C20636175736564206279204BFE
:100BD000494C4C20627574746F6E2F70696E0A00F8
:100BE000D09FD095D0A0D095D0A0D092D090D09DBD
:100BF000D09E2E20004B494C4C2063617573656478
:100C000020627920746F6F206D75636820696E6152
:100C100063746976652074696D65202D2063757233
:100C200072656E7420636F6D6D616E643A2000466C
:100C3000696C616D656E7420696E73657274210AEA
:100C40000043617463682066696C616D656E742031
:100C500072756E206F7574210A00D09FD0B5D18057
:100C6000D0B5D0B7D0B0D0B2D0B0D0BDD182D0B096
:100C7000D0B6D182D0B500D09FD0A0D098D09DD092
:100C8000A2D095D0A020D097D0A3D09FD098D09DAF
:100C9000D095D09DD09E005072696E7465722068A8
:100CA000616C7465642E206B696C6C28292063610B
:100CB0006C6C6564210A00656E7175657565696E99
:100CC0006720220000004842000048420000004027
:100CD000000000005761726E696E673A20486F6DC0
:100CE000696E672042756D702044697669736F7212
:100CF000203C20310A000202040000A0400000A0B5
:100D000040000000400000B44300009B430080C945
:100D100043FFFFFF1000AA038000400100012C01E7
:100D2000B001220140021001F00202018003F8002C
:100D30004004F500E004ED009005E4003006DD001D
:100D4000E006D7008007D1003008CC00D008C700EB
:100D50007009C300100ABE00B00ABB00500BB700F8
:100D6000900CB300D00DAA00B00FA500F010A000A9
:100D700030129600D0129000F0158B00D01785002D
:100D8000B0198000F01A7B00701D7500F01F6F0015
:100D9000702269004025640020275F00A0295A00C6
:100DA000902B5500102D4F00502E4800E03145008B
:100DB00030334100D035390060363700103733000A
:100DC000F0382D00A0392700803C1C00403D170062
:100DD000F03D1100803E0900D03FE5FF4572723AB8
:100DE000204D494E54454D502042454400457272B5
:100DF0003A204D494E54454D50004D494E54454DB5
:100E00005020747269676765726564004572723A52
:100E1000204D415854454D50204245440045727282
:100E20003A204D415854454D50004D415854454D80
:100E3000502074726967676572656400202F002016
:100E400040002042403A0020403A004C696E656103
:100E500072204C6576656C696E6700D095D0BAD10A
:100E600081D182D180D183D0B4D0B5D180D0B83AED
:100E7000203200687474703A2F2F7777772E7A6F4C
:100E80006E657374617233642E636F6D005A3853EC
:100E90005F523200323031392D30352D313600423B
:100EA000617365206F6E204D61726C696E312E31F9
:100EB0002E380056312E300048656174657220541A
:100EC000657374696E67004D3130342053323630AB
:100ED0000A4D31343020533131350A4D313036200E
:100EE00053300A004175746F20557020646F776E1F
:100EF000004D3230332058313530205931353020D3
:100F00005A31360A47302058333130205933313086
:100F1000205A34303020463936300A473020583095
:100F2000205930205A313020463936300A47302097
:100F3000583330302059333030205A343030204646
:100F40003936300A4730205830205930205A313055
:100F500020463936300A4730205833313020593353
:100F60003130205A34303020463936300A4730206C
:100F70005830205930205A313020463936300A470F
:100F80003020583331302059333130205A3430300A
:100F900020463936300A4730205830205930205A00
:100FA000313020463936300A47302058333130202E
:100FB00059333130205A34303020463936300A47E0
:100FC00030205830205930205A31302046393630C0
:100FD0000A4732380A4D32303320583135302059E3
:100FE000313030205A380A4D3330302053333030CE
:100FF00030205031303030004661737420746F20DF
:10100000426F74746F6D004D32303320583135307B
:101010002059313530205A31360A4732382058307D
:101020000A4730205A3020463936300A4D323033A4
:1010300020583135302059313030205A380A004696
:1010400061737420746F20546F70004D3230332000
:10105000583135302059313530205A31360A473031
:1010600020583331302059333130205A3430302039
:10107000463936300A4D3230332058313530205918
:10108000313030205A380A00D090D0B2D182D0BE50
:1010900020D0BFD0B0D180D0BAD183D0B2D0B0D020
:1010A000BDD0BDD18F0047323800D0A1D182D0B0A1
:1010B000D182D0B8D181D182D0B8D0BAD0B000D04E
:1010C000A2D0B5D180D0BCD196D181D182D0BED1B1
:1010D00080D0B800D09FD180D0BE20D0BFD0BBD0B0
:1010E000B0D182D18300D086D0BDD184D0BED18092
:1010F000D0BCD0B0D186D196D18F00D09CD0B5D005
:10110000BDD18E0020204E6F7A7A6C653A20002087
:10111000004261636B004D696E696D756D205465A9
:101120006D70206973203135302E00D09DD0B5D040
:10113000B2D0B4D0B0D0BBD0B8D0B920D0BDD0B030
:10114000D0B3D180D196D0B200D095D0BAD181D1D0
:1011500082D180D183D0B4D183D0B2D0B0D182D06B
:10116000B800D092D196D0B4D0BDD0BED0B2D0B855
:10117000D182D0B820D0B4D180D183D0BA0052452A
:1011800053554D45204F5054494F4E533A0020205F
:101190004E6F7A7A6C653A2000D0B2D0BED0BBD008
:1011A000BED0BAD0BDD0B000D0BFD0BED187D0B0F5
:1011B000D182D0BED0BA20D0B7D0B0D0BCD196D0DA
:1011C000BDD0B800D097D0B0D187D0B5D0BAD0B00C
:1011D000D0B9D182D0B520D0BDD0B0005052494E48
:1011E00054205041555345440020204E6F7A7A6C6C
:1011F000653A20002000D0B2D0B8D0B2D196D0B499
:1012000020D0B2D0BED0BBD0BED0BAD0BDD0B000FE
:10121000D097D0B0D187D0B5D0BAD0B0D0B9D18224
:10122000D0B520D0BDD0B0005052494E54205041CE
:10123000555345440020204E6F7A7A6C653A200061
:101240002000506C6561736520776169742E2E2EC5
:101250000048656174696E67206E6F7A7A6C65000C
:101260005052494E54205041555345440020204E81
:101270006F7A7A6C653A2000200068656174206E90
:101280006F7A7A6C652E0050726573732062757484
:10129000746F6E20746F005052494E542050415567
:1012A0005345440020204E6F7A7A6C653A2000D076
:1012B000BFD180D0BED0B4D0BED0B2D0B6D0B5D021
:1012C000BDD0BDD18F2E2E2E00D182D0B020D0BD6A
:1012D000D0B0D182D0B8D181D0BDD196D182D18CBD
:1012E00020D0B4D0BBD18F00D092D181D182D0B0E8
:1012F000D0B2D182D0B520D0B2D0BED0BBD0BED07B
:10130000BAD0BDD0BE005052494E54205041555322
:1013100045440020204E6F7A7A6C653A2000200008
:10132000D0B2D0B2D196D0B420D0B2D0BED0BBD043
:10133000BED0BAD0BDD0B000D097D0B0D187D0B594
:10134000D0BAD0B0D0B9D182D0B520D0BDD0B00005
:101350005052494E54205041555345440020204E90
:101360006F7A7A6C653A2000D0B2D0BED0BBD0BEC6
:10137000D0BAD0BDD0B000D0B5D0BAD181D182D151
:1013800080D183D0B7D196D18E00D097D0B0D187FD
:10139000D0B5D0BAD0B0D0B9D182D0B520D0BDD0E0
:1013A000B0005052494E54205041555345440025F9
:1013B000753A2530327500253032753A2530327550
:1013C0000025756420253032753A25303275005A73
:1013D0000059005800092000000000000000000033
:1013E000000000007FFFE00000000000000000009F
:1013F0000000007000E0000000000000000000009D
:10140000000061F860000000000000000000000023
:101410000041F82000000000000000000000000073
:1014200040F020000000000000000000000000402C
:1014300060200000000000000000000000005801D3
:10144000A07F80003FC0000000004104005C63A05A
:10145000FBC00079E0000000002082005EF7A0F3EE
:10146000C00076E0000000002082005EF7A0EBC024
:10147000007EE0000000004104005C63A07B80006F
:101480003DC0000000008208005801A07B80003BA6
:10149000C000000001041000406020FBC00077E0A5
:1014A0000000000104100040F020FBC00070E000CC
:1014B00000000082080041F820FFC0007FE000002B
:1014C000000041040061F8603F00001F8000000040
:1014D000000000007000E01E00000F00000000018E
:1014E000FFFF807FFFE00C0000060000000001FF0E
:1014F000FF8000000000000000000000000000006D
:10150000007FFFE00000000000000000000000007D
:101510007000E00000000000000000000000006318
:101520000C60000000000000000000000000470EFA
:10153000200000000000000000000000004F0F200D
:101540000000000000000000000000005F0FA0008D
:1015500000000000000000000000005E07A07F8087
:10156000003FC000000000410400406020FBC000BC
:1015700079E00000000020820040F020F3C00076F7
:10158000E00000000020820040F020EBC0007EE080
:10159000000000004104004060207B80003DC0004E
:1015A0000000008208005E07A07B80003BC00000B6
:1015B00000010410005F0FA0FBC00077E0000000F6
:1015C000010410004F0F20FBC00070E0000000007D
:1015D000820800470E20FFC0007FE00000000041AD
:1015E0000400630C603F00001F800000000000004A
:1015F000007000E01E00000F0000000001FFFF80EF
:101600007FFFE00C0000060000000001FFFF8000EB
:1016100000005072696E7420706175736564004DCE
:1016200031323500004D323400D094D180D183D096
:10163000BA20D181D0BAD0B0D181D0BED0B2D0B092
:10164000D0BDD0BE00D092D196D0B4D181D183D1BB
:1016500082D0BDD18F20534420D0BAD0B0D180D118
:10166000822E00D094D180D183D0BAD183D0B2D091
:10167000B0D182D0B820D0B720534400D0A1D0BA86
:10168000D0B0D181D183D0B2D0B0D182D0B820D067
:10169000B4D180D183D0BA00D092D196D0B4D0BD8D
:1016A000D0BED0B2D0B8D182D0B820D0B4D180D101
:1016B00083D0BA00D09FD180D0BE20D0BFD180D0FF
:1016C000B8D0BDD182D0B5D18000D09FD180D0B864
:1016D000D0B7D183D0BFD0B8D0BDD0B8D182D0B828
:1016E00020D0B4D180D183D0BA00D09DD0B0D0BBAF
:1016F000D0B0D188D182D183D0B2D0B0D0BDD0BD4E
:10170000D18F00D09FD196D0B4D0B3D0BED182D1EA
:1017100083D0B2D0B0D182D0B800D09FD196D0B40F
:10172000D0BBD0B0D188D182D183D0B2D0B0D0BD1F
:10173000D0BDD18F00D086D0BDD184D0BED180D0D5
:10174000BCD0B0D186D196D18F00205A3A00205912
:101750003A0020436F756E7420583A0020453A00D5
:10176000205A3A0020593A00583A003A0043617032
:101770003A0023646566696E6520204445464155FC
:101780004C545F4B64200023646566696E652020BD
:1017900044454641554C545F4B69200023646566BF
:1017A000696E65202044454641554C545F4B70207E
:1017B00000504944204175746F74756E65206669E8
:1017C0006E697368656421205075742074686520A3
:1017D0006C617374204B702C204B6920616E642007
:1017E0004B6420636F6E7374616E74732066726FE6
:1017F0006D2062656C6F7720696E746F20436F6E29
:1018000066696775726174696F6E2E680A00504967
:1018100044204175746F74756E65206661696C65EE
:1018200064212074696D656F75740A00D097D0913A
:10183000D086D09920D0A2D095D09CD09FD095D0E2
:10184000A0D090D0A2D0A3D0A0D098005468657248
:101850006D616C2052756E6177617900D09DD0B555
:10186000D0B2D0B4D0B0D0BBD0B8D0B920D0BDD0D9
:10187000B0D0B3D180D196D0B20048656174696EA2
:1018800067206661696C6564005049442041757445
:101890006F74756E65206661696C6564212054659E
:1018A0006D706572617475726520746F6F20686900
:1018B00067680A00204B643A2000204B693A2000F8
:1018C000204B703A20000A20436C617373696320D7
:1018D000504944200A002054753A2000204B753AA4
:1018E0002000206D61783A2000206D696E3A20005A
:1018F00020643A200020626961733A2000416374D9
:101900006976652045787472756465723A20004D79
:1019100036303020486F74656E6420746F6F2063BA
:101920006F6C6420746F206368616E676520666900
:101930006C616D656E740A0020746F6F206C6F6E41
:101940006720657874727573696F6E207072657642
:10195000656E7465640A0020636F6C64206578743A
:10196000727573696F6E2070726576656E746564EA
:101970000A00000020002300260029002C002F0070
:1019800032000001000003010601090105050505FB
:10199000070508080808020202020A0A08080404E7
:1019A0000404010101010101010103030303030315
:1019B0000303040707070C0C0C0C0C0C0C0C0202A4
:1019C000020206060606060606060B0B0B0B0B0BA1
:1019D0000B0B01021020200808102040102040802E
:1019E00002010201080402010102040810204080E3
:1019F0008040201008040201800402018040201071
:101A000008040201080402010102040810204080B9
:101A1000010204081020408000000A0B02090C0D8E
:101A20000E08070304010000000000000000000091
:101A300000000000000000000000000000000000A6
:101A40000000000012111000000000000000000063
:101A50000000000000000000000000000000020084
:101A60000000000000000000000000000000000076
:101A70000000000000000000000000000000000066
:101A80000000000000000000000000000000000056
:101A9000000000000000000000000000000000073F
:101AA000FF01FE070183FE0FF8FFF807007FC00764
:101AB000FF83FF0F8187FE1FF8FFF80F80FFE0070D
:101AC000FFC7038F818FFC3FF0FFF81FC0E0E000ED
:101AD00003C6018FC18C00380007001FC0C0600022
:101AE0000786018CC18C00300007003DE0C060001B
:101AF0000F06018CE18C003800070038E0E0E000C0
:101B00001E06018C618FFE3FF0070038E0FFC00029
:101B10003C06018C618FFE1FF807003060FF8000DB
:101B20007806018C318FFC0FFC07007270FC0000FE
:101B3000F006018C318E00001C07006230CE0001DF
:101B4000E006018C398C00000C07006730C70003E9
:101B5000C006018C198C00000C07006730C3800799
:101B60008007038C198E00001C0700CF98C1C007A6
:101B7000FFC7FF8C0F8FFF1FFC0700CF98C0F0033B
:101B8000FFC3FF0C0F87FF3FF80700DFD8C07001CD
:101B9000FFC1FE0C0701FE3FF0070000000000003F
:101BA0000000000000000000000000000000000035
:101BB0000000000000000000000000000000000025
:101BC0000000000000000000000000000000000015
:101BD00000000000000000000000000000000020E5
:101BE00020506C616E6E65724275666665724279F0
:101BF0007465733A20002046726565204D656D6FEF
:101C000072793A2000436F6D70696C65643A204DBB
:101C1000617920323920323031390A00207C20416C
:101C20007574686F723A202848616C6C79405A4F1D
:101C30004E4553544152290A00323031392D303546
:101C40002D313600204C61737420557064617465C9
:101C5000643A200042617365206F6E204D61726CA2
:101C6000696E312E312E380A004D61726C696E003A
:101C700020536F6674776172652052657365740ACC
:101C800000205761746368646F67205265736574E0
:101C90000A002042726F776E206F75742052657350
:101CA00065740A002045787465726E616C20526517
:101CB0007365740A00506F77657255700A0073740B
:101CC0006172740A006572726F722077726974694A
:101CD0006E6720746F2066696C650A00D09AD19691
:101CE000D0BDD186D0B5D0B2D0B8D0BA202563202F
:101CF00025632025632025630020503A00205A3AAE
:101D00000020593A0020583A00656E6473746F7071
:101D100073206869743A2000446F6E6520736176A1
:101D2000696E672066696C652E0A004D3239004283
:101D300061636B004E65787420636F726E6572002C
:101D40004732380A47323900D09DD0B0D0B3D18065
:101D5000D196D0B22041425300D09DD0B0D0B3D163
:101D600080D196D0B220504C4100D09ED185D0BEBB
:101D7000D0BBD0BED0B4D0B6D0B5D0BDD0BDD18F41
:101D800000D097D0BCD196D0BDD0B020D0B2D0BEBC
:101D9000D0BBD0BED0BAD0BDD0B000D09DD196D0EF
:101DA000B2D0B5D0BBD18ED0B2D0B0D0BDD0BDD125
:101DB0008F20D181D182D0BED0BBD18300D092D030
:101DC000B8D0BCD0BA2E20D0B4D0B2D0B8D0B3D115
:101DD00083D0BDD0B8004D3834004C6576656C209A
:101DE000636F726E65727300D09FD0B0D180D0BA2D
:101DF000D183D0B2D0B0D0BDD0BDD18F205A004752
:101E00003238205A00D09FD0B0D180D0BAD183D000
:101E1000B2D0B0D0BDD0BDD18F20590047323820CC
:101E20005900D09FD0B0D180D0BAD183D0B2D0B039
:101E3000D0BDD0BDD18F205800473238205800D0B7
:101E400090D0B2D182D0BE20D0BFD0B0D180D0BA95
:101E5000D183D0B2D0B0D0BDD0BDD18F0047323801
:101E600000D0A0D183D18520D0BFD0BE20D0BED19C
:101E700081D18FD0BC00D09CD0B5D0BDD18E00D048
:101E8000A0D183D18520D0BFD0BE205800D0A0D112
:101E900083D18520D0BFD0BE205900D0A0D183D11E
:101EA0008520D0BFD0BE205A00D095D0BAD181D1E4
:101EB00082D180D183D0B4D0B5D1803200D095D03A
:101EC000BAD181D182D180D183D0B4D0B5D1803183
:101ED00000D0A0D183D18520D0BFD0BE20302E31FC
:101EE0006D6D00D0A0D183D18520D0BFD0BE203170
:101EF0006D6D00D0A0D183D18520D0BFD0BE203160
:101F0000306D6D00D0A0D183D18520D0BFD0BE2050
:101F1000D0BED181D18FD0BC00D095D0BAD181D1E3
:101F200082D180D183D0B4D0B5D18000D0A0D1836C
:101F3000D18520D0BFD0BE205A00D0A0D183D1857A
:101F400020D0BFD0BE205900D0A0D183D18520D0D1
:101F5000BFD0BE205800D095D0BAD181D182D180D7
:101F6000D183D0B4D0B5D1803200D095D0BAD18150
:101F7000D182D180D183D0B4D0B5D1803100D09579
:101F8000D0BAD181D182D180D183D0B4D0B5D18023
:101F900000D0A0D183D18520D0BFD0BE205A00D0A0
:101FA000A0D183D18520D0BFD0BE205900D0A0D1F0
:101FB00083D18520D0BFD0BE205800D09FD196D0ED
:101FC000B4D0B3D0BED182D183D0B2D0B0D182D080
:101FD000B80024F4D43050C38E20C2A24017828BA4
:101FE0007011127A910D816CD90AA861E108C75865
:101FF0006607615143061E4B5D05C145A7041A41A2
:102000001104093D9803713931034036DB02653311
:102010009102D4305402802E1D02632CEE01752AE9
:10202000C501B028A001102781018F2564012B2450
:102030004B01E0223401AC211F018D200D01801FD6
:10204000FC00841EED00971DDF00B81CD200E61BCB
:10205000C600201BBC00641AB200B219A8000A19FD
:10206000A0006A189900D117910040178B00B5168F
:10207000840031167E00B31579003A157300C71439
:102080006F0058146A00EE1366008813630025136E
:102090005E00C7125B006C12570015125400C1118C
:1020A000510070114F0021114B00D61049008D10C6
:1020B00047004610440002104200C00F4000800F4D
:1020C0003E00420F3C00060F3B00CB0E3800930E43
:1020D00037005C0E3500270E3400F30D3200C10DC1
:1020E0003100900D3000600D2E00320D2D00050DD9
:1020F0002C00D90C2B00AE0C2900850C29005C0C9F
:102100002700350C27000E0C2600E80B2400C40B1A
:102110002400A00B23007D0B23005A0B2100390B58
:102120002100180B2000F80A1F00D90A1E00BB0A64
:102130001E009D0A1D00800A1D00630A1C00470A3C
:102140001B002C0A1B00110A1A00F7091A00DD09EE
:102150001900C4091900AB091900920917007B097D
:102160001800630917004C091600360916002009EB
:1021700016000A091500F5081500E0081400CC083F
:102180001400B8081400A4081400900813007D0877
:1021900012006B0813005808120046081200340899
:1021A0001100230811001208110001081100F007A6
:1021B0001000E0071000D0071000C0071000B007A3
:1021C0000F00A107100091070E0083070F0074078E
:1021D0000F0065070E0057070E0049070E003B076A
:1021E0000D002E070E0020070D0013070D00060737
:1021F0000D00F9060C00ED060D00E0060C00D406FB
:102200000C00C8060C00BC060C00B0060C00A406AE
:102210000B0099060C008D060B0082060B0077065A
:102220000B006C060B0061060A0057060B004C06FB
:102230000A0042060A0038060A002E060A00240692
:102240000A001A060A001006090007060A00FD0522
:102250000900F4050900EB050900E2050900D905AC
:102260000900D0050900C7050900BE050900B5052C
:102270000800AD050800A50509009C0508009405A7
:1022800008008C050800840508007C05080074051A
:1022900008006C050700650508005D050700560588
:1022A00008004E05070047050700400508003805EF
:1022B0000700310507002A050700230507001C0554
:1022C0000600160507000F050700080506000205B1
:1022D0000700FB040600F5040700EE040600E8040E
:1022E0000600E2040700DB040600D5040600CF0464
:1022F0000600C9040600C3040600BD040600B704B6
:102300000600B1040500AC040600A6040600A00403
:1023100005009B04060095040500900406008A044D
:10232000050085040500800406007A040500750494
:102330000500700405006B040500660405006104D7
:1023400005005C04050057040500520405004D0417
:10235000050048040500430405003E0404003A0457
:10236000050035040500300404002C040500270492
:102370000400230405001E0404001A0404001604CB
:102380000500110404000D04040009040500040400
:10239000040000040400FC030400F8030400F40338
:1023A0000400F0030400EC030400E8030400E40369
:1023B0000400E0030400DC030400D8030400D40399
:1023C0000400D0030400CC030400C8030300C503C9
:1023D000030024F404D9201BC40C5C0E9804C40927
:1023E0005F0265077101F405F900FB04B3004804BE
:1023F0008700C10369005803550003034500BE026E
:102400003A008402310053022A0029022500040206
:102410002000E4011C00C8011900AF011700980159
:1024200014008401130071011000610110005101BA
:102430000E0043010D0036010B002B010B002001A3
:102440000B00150109000C01090003010800FB0045
:102450000800F3000800EB000700E4000600DE00BF
:102460000600D8000600D2000600CC000500C70018
:102470000500C2000500BD000400B9000400B5005D
:102480000400B1000400AD000400A9000400A50090
:102490000300A20003009F0004009B0003009800BB
:1024A00003009500020093000300900003008D00DC
:1024B00002008B00030088000200860002008400F6
:1024C0000300810002007F0002007D0002007B000B
:1024D000020079000200770001007600020074001B
:1024E000020072000100710002006F0002006D0026
:1024F00001006C0002006A00010069000200670030
:102500000100660001006500010064000200620035
:10251000010061000100600001005F0002005D0039
:1025200001005C0001005B0001005A00010059003D
:10253000010058000100570001005600010055003D
:10254000010054000100530000005300010052003C
:10255000010051000100500001004F0001004E0039
:1025600000004E0001004D0001004C0001004B0036
:1025700000004B0001004A00010049000100480032
:10258000000048000100470001004600000046002E
:102590000100450000004500010044000100430027
:1025A0000000430001004200000042000100410021
:1025B000000041000100400001003F0000003F001A
:1025C00001003E0000003E0001003D0000003D0013
:1025D00001003C0000003C0000003C0001003B000A
:1025E00000003B0001003A0000003A000100390001
:1025F00000003900010038000000380000003800F9
:1026000001003700000037000100360000003600EE
:1026100000003600010035000000350000003500E4
:1026200001003400000034000000340001003300D9
:1026300000003300000033000100320000003200CF
:1026400000003200010031000000310000003100C4
:1026500001003000000030000000300001002F00B9
:1026600000002F0000002F0000002F0001002E00AE
:1026700000002E0000002E0001002D0000002D00A3
:1026800000002D0000002D0001002C0000002C0097
:1026900000002C0000002C0001002B0000002B008B
:1026A00000002B0000002B0001002A0000002A007F
:1026B00000002A0000002A00010029000000290073
:1026C0000000290000002900000029000100280066
:1026D000000028000000280000002800000028005A
:1026E000010027000000270000002700000027004D
:1026F0000000270001002600000026000000260040
:102700000000260000002600010025000000250032
:102710000000250000002500000025000000250025
:102720000100240000002400000024000000240018
:10273000000024000100230000002300000023000B
:1027400000002300000023000000230000002300FD
:1027500001002200000022000000220000002200F0
:1027600000002200000022000100210000002100E2
:1027700000002100000021000000210000002100D5
:1027800000002100010020000000200000002000C7
:1027900000002000000020000000200000002000B9
:1027A0000000200001001F0000001F0000001F00AB
:1027B00000001F0000001F0000001F0000001F009D
:1027C00001001E0000001E0000001E0000001E0090
:1027D00000004D383420582059205A2045005072AE
:1027E0006F62696E67206661696C65640A00507289
:1027F0006F62696E67206661696C656400205A3A91
:10280000200020593A200042656420583A2000D028
:1028100094D196D0BC2025732573257320D0BFD0CA
:10282000B5D180D188D0B8D0B90020D0BFD0B5D133
:1028300080D188D0B8D0B90A005A0059005800D0C9
:1028400094D196D0BC200057726974696E67207469
:102850006F2066696C653A20006F70656E20666156
:10286000696C65642C2046696C653A20006F706560
:102870006E206661696C65642C2046696C653A203F
:102880000046696C652073656C65637465640A0055
:102890002053697A653A200046696C65206F70653F
:1028A0006E65643A20006F70656E206661696C65C4
:1028B000642C2046696C653A20002066696C653A94
:1028C0002000646F696E67006672657368004E6F02
:1028D000772000454E4420535542524F5554494E9F
:1028E000450A002220706F73002220706172656EAD
:1028F000743A2200535542524F5554494E45204395
:10290000414C4C207461726765743A2200D09FD0AC
:1029100095D0A0D095D0A0D092D090D09DD09E2E12
:102920002000747279696E6720746F2063616C6C2B
:10293000207375622D67636F64652066696C6573CB
:10294000207769746820746F6F206D616E79206CD8
:102950006576656C732E204D4158206C6576656CEC
:102960002069733A0000060900FE07019103202048
:10297000FFFF08FF07FF0000000600000107070631
:10298000020080808080800080030202060105A092
:10299000A00507070600005050F850F850500507F2
:1029A000070600002078A07028F020050707060021
:1029B00000C0C81020409818050707060000609066
:1029C000A040A89068020303060104C040800307EA
:1029D0000706010020408080804020030707060191
:1029E000008040202020408005050506000120A829
:1029F00070A8200505050600012020F8202002030C
:102A0000030602FFC04080050101060003F8020230
:102A100002060200C0C0050505060001081020409E
:102A200080050707060000708898A8C8887003070B
:102A30000706010040C040404040E005070706008F
:102A400000708808708080F8050707060000F810FD
:102A500020100808F005070706000010305090F815
:102A60001010050707060000F880F00808887005B8
:102A70000707060000304080F088887005070706C9
:102A80000000F8081020202020050707060000702D
:102A90008888708888700507070600007088887825
:102AA000081060020505060200C0C000C0C0020692
:102AB000060602FFC0C000C04080040707060000F1
:102AC00010204080402010050303060002F800F8A3
:102AD00004070706010080402010204080050707FA
:102AE0000600007088081020002005060606000079
:102AF00070880868A870050707060000708888F8C5
:102B0000888888050707060000F08888F08888F024
:102B10000507070600007088808080887005070719
:102B2000060000E09088888890E00507070600000E
:102B3000F88080F08080F8050707060000F88080A4
:102B4000F0808080050707060000708880B88888BC
:102B500070050707060000888888F88888880107BC
:102B600007060200808080808080800507070600BD
:102B700000381010101090600507070600008890BC
:102B8000A0C0A09088050707060000808080808094
:102B900080F805070706000088D8A8888888880577
:102BA00007070600008888C8A898888805070706D0
:102BB000000070888888888870050707060000F084
:102BC0008888F08080800507070600007088888864
:102BD000A89068050707060000F08888F0A0908894
:102BE000050707060000788080700808F0050707D1
:102BF000060000F8202020202020050707060000FE
:102C00008888888888887005070706000088888873
:102C1000888850200507070600008888888888A8CB
:102C2000500507070600008888502050888805074F
:102C30000706000088888850202020050707060026
:102C400000F80810204080F8030707060100E08024
:102C500080808080E0050505060001804020100886
:102C6000030707060100E02020202020E0050303E1
:102C7000060004205088050101060000F802020247
:102C80000602058040050505060000700878887872
:102C90000507070600008080B0C88888F005050594
:102CA000060000708080887005070706000008088D
:102CB00068988888780505050600007088F8807097
:102CC0000507070600003048E04040404005060682
:102CD0000600FF70888878087005070706000080E6
:102CE00080B0C888888801070706020080008080BD
:102CF0008080800308080601FF200020202020A0FB
:102D000040040707060000808090A0C0A090030741
:102D100007060100C04040404040E00505050600B0
:102D200000D0A8A8A8A8050505060000B0C8888896
:102D30008805050506000070888888700506060667
:102D400000FFF08888F080800506060600FF78887E
:102D500088780808050505060000B0C88080800551
:102D6000050506000070807008F0050707060000E2
:102D70004040E0404048300505050600008888884E
:102D80009868050505060000888888502005050517
:102D90000600008888A8A850050505060000885090
:102DA0002050880506060600FF8888887808700588
:102DB0000505060000F8102040F80307070601008B
:102DC00020404080404020010707060200808080AC
:102DD000808080800307070601008040402040403B
:102DE0008005020206000368900000000600000053
:102DF00000000600000000000600000000000600C1
:102E000000000000060000000000060000000000B6
:102E100006000000000006000000000006000000A0
:102E20000000060000000000060000000000060090
:102E30000000000006000000000006000000000086
:102E40000600000000000600000000000600000070
:102E50000000060000000000060000000000060060
:102E60000000000006000000000006000000000056
:102E70000600000000000600000000000600000040
:102E80000000060000000000060000000000060030
:102E90000000000006000000000006000000000026
:102EA000060000000000060000000000060000050B
:102EB000080806000040F88080F08080F8050808C7
:102EC00006000050F88080F08080F80507070600B3
:102ED00000E04040704848700508080600001020D7
:102EE000F88880808080050707060000304880E071
:102EF00080483005070706000070888070088870D9
:102F0000030707060100E04040404040E003080896
:102F1000060100A000E040404040E0050707060031
:102F20000038101010109060050707060000A0A0E0
:102F3000A0B8A8A8B8050707060000A0A0A0F8A898
:102F4000A8B8040707060000E04070505050500534
:102F5000080806000010208890A0E0908805080866
:102F600006000040208898A8C8888805090906003E
:102F7000FF5020888888502020200508080600FF80
:102F8000888888888888F8200507070600007088E8
:102F900088F8888888050707060000F88080F08890
:102FA00088F0050707060000F08888F08888F0059B
:102FB0000707060000F888808080808005080806E2
:102FC00000FF782828284888F888050707060000A9
:102FD000F88080F08080F8050707060000A8A8A800
:102FE00070A8A8A8050707060000F00808700808E0
:102FF000F0050707060000888898A8C88888050893
:103000000806000050208898A8A8C8880507070669
:1030100000008890A0C0A0908805070706000078EF
:1030200028282828A84805070706000088D8A88867
:10303000888888050707060000888888F8888888B7
:1030400005070706000070888888888870050707CC
:10305000060000F888888888888805070706000029
:10306000F08888F08080800507070600007088805F
:1030700080808870050707060000F82020202020A7
:103080002005070706000088888850204080050733
:10309000070600002070A8A8A870200507070600F2
:1030A00000888850205088880508080600FF888816
:1030B00088888888F80805070706000088888898A7
:1030C000680808050707060000A8A8A8A8A8A8F887
:1030D0000508080600FFA8A8A8A8A8A8F8080507DA
:1030E00007060000C040407048487005070706000A
:1030F00000888888C8A8A8C805070706000080803F
:1031000080F08888F00507070600007088083808F6
:10311000887005070706000090A8A8E8A8A89005F1
:10312000070706000078888878284888050505067E
:10313000000070087888780507070600001860808E
:10314000F0888870040505060000E090E090E00536
:103150000505060000F8888080800506060600FF49
:1031600078284888F8880505050600007088F880EA
:1031700070050505060000A8A870A8A805050506A5
:103180000000F0083008F00505050600008898A842
:10319000C88805070706000050208898A8C888043A
:1031A000050506000090A0C0A090050505060000DA
:1031B000F82828A84805050506000088D8A88888AA
:1031C0000505050600008888F888880505050600BD
:1031D000007088888870050505060000F8888888D2
:1031E000880506060600FFF08888F0808005050542
:1031F0000600007080808870050505060000F82034
:103200002020200506060600FF88888878087005BB
:1032100006060600002070A8A87020050505060017
:103220000088502050880506060600FF8888888898
:10323000F8080505050600008888F8080805050552
:10324000060000A8A8A8A8F80506060600FFA8A87A
:10325000A8A8F808050505060000C04070487005DC
:1032600005050600008888C8A8C8030505060100F2
:103270008080C0A0C00505050600007088388870F1
:1032800005050506000090A8E8A8900505050600BC
:10329000007888782848050808060000402000705B
:1032A00088F8807005070706000050007088F880D5
:1032B000700509090600FF40E04040784848481082
:1032C000050808060000102000F8888080800505A9
:1032D000050600007088608870050505060000700E
:1032E000807008F00107070602008000808080805F
:1032F00080030707060100A000404040404003084B
:10330000080601FF200020202020A040050505061A
:103310000000A0A0B8A8B8050505060000A0A0F808
:10332000A8B805060606000040E0407848480408B2
:103330000806000010200090A0C0A0900508080614
:1033400000004020008898A8C8880509090600FFE9
:103350005020008888887808700506060600FF88D7
:10336000888888F82000002100240027002A002DEA
:10337000003000330001010000040107010A0100D0
:10338000002200250028002B002E0031003400020E
:10339000010000050108010B01D0B4D180D183D018
:1033A000BAD18300D0B2D196D0B4D0BDD0BED0B205
:1033B000D0BBD0B5D0BDD0BDD18F00D097D0B0D1CB
:1033C00087D0B5D0BAD0B0D0B9D182D0B520D0BDD9
:1033D000D0B0005052494E542050415553454400FE
:1033E000D09AD0B0D180D182D0BAD0B020D0B2D0D3
:1033F000B8D0B4D0B0D0BBD0B5D0BDD0B000D09A8A
:10340000D0B0D180D182D0BAD0B020D0B2D181D1C9
:1034100082D0B0D0B2D0BBD0B5D0BDD0B000D09C9F
:10342000D196D0BAD180D0BED0BAD180D0BED0BAD9
:10343000205A004D36303020423000D097D0BCD1D9
:1034400096D0BDD0B020D0B2D0BED0BBD0BED0BA06
:10345000D0BDD0B000D09CD196D0BAD180D0BED053
:10346000BAD180D0BED0BA205A00D09FD0BED1826F
:10347000D196D0BA203200D09FD0BED182D196D082
:10348000BA203200D09FD0BED182D196D0BA20329D
:1034900000D09FD0BED182D196D0BA203100D09F2B
:1034A000D0BED182D196D0BA203100D09FD0BED12B
:1034B00082D196D0BA203100D09FD0BED182D19691
:1034C000D0BA00D09FD0BED182D196D0BA00D09FC2
:1034D000D0BED182D196D0BA00D09ED185D0BED0F8
:1034E000BBD0BED0B4D0B62E00D09ED185D0BED039
:1034F000BBD0BED0B4D0B62E00D09ED185D0BED029
:10350000BBD0BED0B4D0B62E00D0A1D182D196D03F
:10351000BB00D0A1D182D196D0BB00D0A1D182D1A5
:1035200096D0BB00D0A1D0BED0BFD0BBD0BE203281
:1035300000D0A1D0BED0BFD0BBD0BE203200D0A121
:10354000D0BED0BFD0BBD0BE203200D0A1D0BED024
:10355000BFD0BBD0BE203100D0A1D0BED0BFD0BB29
:10356000D0BE203100D0A1D0BED0BFD0BBD0BE20B5
:103570003100D0A8D0B2D0B8D0B4D0BAD196D181D1
:10358000D182D18C00D0A8D0B2D0B8D0B4D0BAD12A
:1035900096D181D182D18C00D0A8D0B2D0B8D0B48D
:1035A000D0BAD196D181D182D18C00D09CD0B5D067
:1035B000BDD18E00D09DD0B0D0B3D180D196D0B245
:1035C00020504C4120D092D181D0B500D09DD0B0B8
:1035D000D0B3D180D196D0B220504C4120456E64FA
:1035E00020453200D09DD0B0D0B3D180D196D0B29A
:1035F00020504C41203200D09DD0B0D0B3D180D1EA
:1036000096D0B220504C4120456E6420453100D008
:103610009DD0B0D0B3D180D196D0B220504C4120B3
:10362000D0A1D182D196D0BB00D09DD0B0D0B3D1A3
:1036300080D196D0B220504C41203100D09FD196FD
:10364000D0B4D0B3D0BED182D183D0B2D0B0D182E9
:10365000D0B800D09DD0B0D0B3D180D196D0B22018
:1036600041425320D092D181D0B500D09DD0B0D06E
:10367000B3D180D196D0B22041425320456E642010
:10368000453200D09DD0B0D0B3D180D196D0B220F9
:10369000414253203200D09DD0B0D0B3D180D196DA
:1036A000D0B22041425320456E6420453100D09D68
:1036B000D0B0D0B3D180D196D0B22041425320D0E7
:1036C000A1D182D196D0BB00D09DD0B0D0B3D18053
:1036D000D196D0B220414253203100D09FD196D014
:1036E000B4D0B3D0BED182D183D0B2D0B0D182D049
:1036F000B800290A002062797465733B2063726305
:10370000200053657474696E67732053746F72651B
:1037100064202800202863616C63756C61746564A3
:1037200029210A0020213D2000454550524F4D20BF
:10373000435243206D69736D61746368202D2028A6
:1037400073746F726564292000290A0020627974FD
:1037500065733B2063726320002073746F7265642D
:103760002073657474696E6773207265747269651D
:10377000766564202800204D61726C696E3D563577
:1037800030290A0028454550524F4D3D00454550CF
:10379000524F4D2076657273696F6E206D69736D3F
:1037A00061746368200048617264636F64656420BB
:1037B00044656661756C742053657474696E6773D3
:1037C000204C6F616465640A00D00700009001001E
:1037D000006400000088130000000016430000C8C9
:1037E0004200000041000048420000A0420000A04A
:1037F000420000C8430000A04220204D383531204F
:103800005A005A2D50726F6265204F666673657458
:1038100020286D6D293A0A0020440020490020200C
:103820004D3330312050002044002049002050000A
:1038300020204D33303120450050494420736574B9
:1038400074696E67733A0A002046002042002048DF
:103850000020204D3134352053004D61746572696C
:10386000616C2068656174757020706172616D654E
:10387000746572733A0A00205A0020204D3636369D
:1038800000456E6473746F702061646A7573746D43
:10389000656E743A0A0020204D34323020530041C6
:1038A00075746F20426564204C6576656C696E673F
:1038B0003A0A0020590020580020204D323138208B
:1038C0005400486F74656E64206F66667365747328
:1038D0003A0A00204500205A0020590020580020B4
:1038E000420020540020204D3230352053004164E6
:1038F00076616E6365643A20533C6D696E5F666500
:103900006564726174653E20543C6D696E5F7472CB
:103910006176656C5F66656564726174653E2042C0
:103920003C6D696E5F7365676D656E745F74696D1C
:10393000655F75733E20583C6D61785F78795F6A8A
:1039400065726B3E205A3C6D61785F7A5F6A657282
:103950006B3E20453C6D61785F655F6A65726B3ECA
:103960000A0020540020520020204D3230342050D4
:1039700000416363656C65726174696F6E202875C0
:103980006E6974732F7332293A20503C7072696EDD
:10399000745F616363656C3E20523C726574726152
:1039A00063745F616363656C3E20543C747261763E
:1039B000656C5F616363656C3E0A00204500205AB8
:1039C0000020590020204D3230312058004D6178C0
:1039D000696D756D20416363656C65726174696FB3
:1039E0006E2028756E6974732F7332293A0A00208D
:1039F0004500205A0020590020204D3230332058F5
:103A0000004D6178696D756D2066656564726174DD
:103A100065732028756E6974732F73293A0A002024
:103A20004500205A0020590020204D3932205800EE
:103A300053746570732070657220756E69743A0AEC
:103A40000020204D3230302044300A0020204D32FA
:103A5000303020543120440020204D32303020447A
:103A6000002044697361626C65640A0046696C6198
:103A70006D656E742073657474696E67733A0020A7
:103A8000204D3134392043203B20556E697473201A
:103A9000696E2043656C736975730A002020473294
:103AA00031202020203B20556E69747320696E20E0
:103AB0006D6D0A00D09AD180D0BED0BAD196D0B266
:103AC0002FD0BCD0BC00D0A0D0B8D0B2D0BED0BA1D
:103AD00000416363656C65726174696F6E00566561
:103AE0006C6F63697479005A20454E4453544F50AB
:103AF0002041646A005A20454E4453544F5020419F
:103B0000646A00D097D0BCD196D189D0B5D0BDD051
:103B1000BDD18F205A00D097D0BCD196D189D0B5D5
:103B2000D0BDD0BDD18F205A005A204D696E205093
:103B30006F732E005A204D696E20506F732E0059FE
:103B4000204D696E20506F732E0059204D696E20F4
:103B5000506F732E0058204D696E20506F732E00E9
:103B600058204D696E20506F732E00D09DD0B0D07C
:103B7000BBD0B0D188D182D183D0B2D0B0D0BDD0AB
:103B8000BDD18F0043616E6E6F7420656E74657277
:103B9000207375626469723A2000022E2E00D09C58
:103BA000D0B5D0BDD18E0000D095D0BAD181D18210
:103BB000D180D183D0B4D0BED0B2D0B0D0BDD0BE31
:103BC0003A2000256C642E25696D0000D09DD0B090
:103BD000D0B9D0B4D0BED0B2D188D0B8D0B920D16D
:103BE00087D0B0D1813A200000D092D0B5D181D118
:103BF0008C20D187D0B0D18120D0B4D180D183D0D6
:103C0000BAD1833A2000D097D0B0D0B2D0B5D1800D
:103C1000D188D0B5D0BDD0BE3A2000D09A2DD18168
:103C2000D182D18C20D0B4D180D183D0BAD196D0DA
:103C3000B23A2000D09CD0B0D0BAD18120D0A2D04E
:103C4000B5D0BCD0BF2E3A2031333000D09CD196B5
:103C5000D0BD20D0A2D0B5D0BCD0BF2E3A203500E8
:103C6000544265643A3130304B203125206265740E
:103C700061203339353000D09CD0B0D0BAD181200A
:103C8000D0A2D0B5D0BCD0BF2E3A2032373500D02C
:103C90009CD196D0BD20D0A2D0B5D0BCD0BF2E3AFA
:103CA00020350054313A203130304B20312520620C
:103CB000657461203339353000D09CD0B0D0BAD192
:103CC0008120D0A2D0B5D0BCD0BF2E3A203237351B
:103CD00000D09CD196D0BD20D0A2D0B5D0BCD0BF52
:103CE0002E3A20350054303A203130304B203125E7
:103CF0002062657461203339353000D094D0B6D05D
:103D0000B5D180D0B5D0BBD0BE20D0B6D0B8D0B25F
:103D10002E3A2047656E6572696300D09FD180D0CE
:103D2000BED182D0BED0BAD0BED0BB3A20312E3068
:103D300000D0B1D196D1822FD1813A2031313532A4
:103D40003030005A4F4E4553544152204C43443179
:103D500032383634005A4F4E4553544152205A524D
:103D600049425F563600496E697469616C697A65CB
:103D700020454550524F4D00D09DD0B0D0BBD0B063
:103D8000D188D182D183D0B2D0B0D0BDD0BDD18FB7
:103D900000D092D196D0B4D0BDD0BED0B2D0B8D1E0
:103DA00082D0B820D0B1D0B0D0B7D0BED0B2D196EA
:103DB00000D097D187D0B8D182D0B0D182D0B820EE
:103DC000D0B720D09FD097D09F00496E69746961A9
:103DD0006C697A6520454550524F4D00D097D0B15F
:103DE000D0B5D180D0B5D0B3D182D0B820D0B22058
:103DF000D09FD097D09F00D0A0D183D18500D0A2F2
:103E0000D0B5D0BCD0BFD0B5D180D0B0D182D18315
:103E1000D180D0B000D09CD0B5D0BDD18E00D09D87
:103E2000D0B0D0B3D180D196D0B22041425320D06F
:103E3000BDD0B0D0BB2E00D09DD0B0D0B3D180D1FA
:103E400096D0B220504C4120D0BDD0B0D0BB2E0077
:103E50005049442D44005049442D44005049442DBC
:103E600049005049442D49005049442D50005049C3
:103E7000442D5000200820D0A4D0B0D0BAD1820068
:103E8000200820D0A4D0B0D0BAD18200200820D001
:103E90009CD0B0D0BAD18100200820D09CD0B0D026
:103EA000BAD18100200820D09CD0B0D0BAD18100F6
:103EB000200820D09CD196D0BD00200820D09CD1D5
:103EC00096D0BD00200820D09CD196D0BD00D092C5
:103ED000D0B8D0BCD0BA2E2000D0A3D0B2D196D0CA
:103EE000BCD0BA2E00D090D0B2D182D0BED182D078
:103EF000B5D0BCD0BFD0B5D1802E00436F6F6C2041
:103F000046616E20537065656400436F6F6C204698
:103F1000616E20537065656400D09ED185D0BED09F
:103F2000BBD0BED0B4D0B62E00D09ED185D0BED0EE
:103F3000BBD0BED0B4D0B62E00D09ED185D0BED0DE
:103F4000BBD0BED0B4D0B62E00D0A1D182D196D0F5
:103F5000BB00D0A1D182D196D0BB00D0A1D182D15B
:103F600096D0BB00D0A1D0BED0BFD0BBD0BE203237
:103F700000D0A1D0BED0BFD0BBD0BE203200D0A1D7
:103F8000D0BED0BFD0BBD0BE203200D0A1D0BED0DA
:103F9000BFD0BBD0BE203100D0A1D0BED0BFD0BBDF
:103FA000D0BE203100D0A1D0BED0BFD0BBD0BE206B
:103FB0003100D09DD0B0D0BBD0B0D188D182D183D8
:103FC000D0B2D0B0D0BDD0BDD18F00D097D0B1D0BD
:103FD000B5D180D0B5D0B3D182D0B820D0B220D066
:103FE0009FD097D09F00D0A1D182D196D0BB00D0D6
:103FF000A1D182D196D0BB00D0A1D182D196D0BB25
:1040000000D0A1D0BED0BFD0BBD0BE00D0A1D0BE0A
:10401000D0BFD0BBD0BE00D0A1D0BED0BFD0BBD00F
:10402000BE00D09ED185D0BED0BBD0BED0B4D0B65D
:104030002E00D09ED185D0BED0BBD0BED0B4D0B6DD
:104040002E00D09ED185D0BED0BBD0BED0B4D0B6CD
:104050002E00D0A2D0B5D0BCD0BFD0B5D180D0B0CA
:10406000D182D183D180D0B0005344206361726487
:10407000206F6B0A006F70656E526F6F74206661FF
:10408000696C65640A00766F6C756D652E696E6982
:1040900074206661696C65640A004572726F723AD9
:1040A00000534420696E6974206661696C0A00439C
:1040B000616E6E6F74206F70656E207375626469D7
:1040C0007220006175746F25692E670056D180D10A
:1040D00083D185D18320D0BCD196D0BD0056D1806C
:1040E000D183D185D18320D0BCD196D0BD0056D10B
:1040F00080D183D185D18320D0BCD196D0BD00564C
:10410000D0BCD196D0BD0056D0BCD196D0BD005603
:10411000D0BCD196D0BD0056D0BCD0B0D0BAD181E1
:10412000450056D0BCD0B0D0BAD181450056D0BCE5
:10413000D0B0D0BAD181450056D0BCD0B0D0BAD121
:10414000815A0056D0BCD0B0D0BAD1815A0056D0D6
:10415000BCD0B0D0BAD1815A0056D0BCD0B0D0BA01
:10416000D181590056D0BCD0B0D0BAD181590056B7
:10417000D0BCD0B0D0BAD181590056D0BCD0B0D0CC
:10418000BAD181580056D0BCD0B0D0BAD181580035
:1041900056D0BCD0B0D0BAD1815800D0A0D183D1F4
:1041A000850041D0BCD0B0D0BAD18120450041D0EB
:1041B000BCD0B0D0BAD18120450041D0BCD0B0D065
:1041C000BAD181205A0041D0BCD0B0D0BAD1812020
:1041D0005A0041D0BCD0B0D0BAD18120590041D0D2
:1041E000BCD0B0D0BAD18120590041D0BCD0B0D021
:1041F000BAD18120580041D0BCD0B0D0BAD18120F2
:104200005800412DD180D183D185D18300412DD15A
:1042100080D183D185D18300412DD0B2D182D18F7D
:10422000D0B3D183D0B22E00412DD0B2D182D18F64
:10423000D0B3D183D0B22E00D09FD180D0B8D1815D
:10424000D0BA2E00D09FD180D0B8D181D0BA2E0064
:10425000D0A0D183D1850056652DD180D0B8D0B201
:10426000D0BED0BA0056652DD180D0B8D0B2D0BE65
:10427000D0BA0056652DD180D0B8D0B2D0BED0BA59
:1042800000567A2DD180D0B8D0B2D0BED0BA005668
:104290007A2DD180D0B8D0B2D0BED0BA0056792D08
:1042A000D180D0B8D0B2D0BED0BA0056792DD1804E
:1042B000D0B8D0B2D0BED0BA0056792DD180D0B807
:1042C000D0B2D0BED0BA0056782DD180D0B8D0B2FE
:1042D000D0BED0BA0056782DD180D0B8D0B2D0BEE2
:1042E000D0BA0056782DD180D0B8D0B2D0BED0BAD6
:1042F00000D0A0D183D1850045D0BAD180D0BED026
:10430000BAD196D0B22FD0BCD0BC0045D0BAD180A3
:10431000D0BED0BAD196D0B22FD0BCD0BC005AD02B
:10432000BAD180D0BED0BAD196D0B22FD0BCD0BC3A
:10433000005AD0BAD180D0BED0BAD196D0B22FD048
:10434000BCD0BC0059D0BAD180D0BED0BAD196D0A2
:10435000B22FD0BCD0BC0059D0BAD180D0BED0BA18
:10436000D196D0B22FD0BCD0BC0058D0BAD180D01A
:10437000BED0BAD196D0B22FD0BCD0BC0058D0BAE3
:10438000D180D0BED0BAD196D0B22FD0BCD0BC0094
:10439000D0A0D183D185007C3C3E5E2B3D3F2F5B7E
:1043A0005D3B2C2A225C0046696C652064656C6567
:1043B0007465643A0044656C6574696F6E2066616B
:1043C000696C65642C2046696C653A20006F7065E5
:1043D0006E206661696C65642C2046696C653A20C4
:1043E000006D0046696C616D656E7420757365645F
:1043F0003A200053746174733A20002C204C6F6E85
:1044000067657374206A6F623A2000546F74616C40
:104410002074696D653A200053746174733A20000A
:104420002C204661696C65643A20002C2046696E38
:1044300069736865643A20005072696E74733A203B
:104440000053746174733A2000D09DD0B0D0B3D1C2
:1044500080D196D182D0BE2E0020573A00452569E2
:10446000202573004572726F722077726974696ECD
:104470006720746F20454550524F4D210A006563F7
:10448000686F3A004D3234004D3233202573006698
:10449000696C616D656E743A20007A5F70726F624C
:1044A000653A20007A325F6D696E3A20007A5F6D5E
:1044B000696E3A2000795F6D696E3A2000785F6D11
:1044C000696E3A20005265706F7274696E6720657C
:1044D0006E6473746F70207374617475730A000670
:1044E0000606060600000000006265640A002C2033
:1044F00073797374656D2073746F707065642120B7
:104500004865617465725F49443A2000D097D09144
:10451000D086D09920D0A2D095D09CD09FD095D0D5
:10452000A0D090D0A2D0A3D0A0D09800546865723B
:104530006D616C2052756E6177617900D09DD0B548
:10454000D0B2D0B4D0B0D0BBD0B8D0B920D0BDD0CC
:10455000B0D0B3D180D196D0B20048656174696E95
:1045600067206661696C6564001000AA03800040E2
:104570000100012C01B001220140021001F00202F1
:10458000018003F8004004F500E004ED009005E42C
:10459000003006DD00E006D7008007D1003008CCEF
:1045A00000D008C7007009C300100ABE00B00ABBE3
:1045B00000500BB700900CB300D00DAA00B00FA5AF
:1045C000005010A000101496009016900010198C46
:1045D00000501A8500301C820070227800B02375CC
:1045E0000040256E0020276900A0296400502A5F42
:1045F00000902B5A00D02C5500702D4F00E02E4813
:10460000005031450030334100D035390060363735
:104610000010373300F0382D00A0392700803C1CF3
:1046200000403D1700F03D1100803E0900D03FE5FD
:10463000FF00060900FE000000000001090008FE5E
:10464000000005080806000040F0C8888898781027
:10465000050808060000C0F88888888888F80505DD
:10466000050600012030F83020050808060000206B
:1046700070F820202020E00509090600FF2070A81E
:10468000A8B8888870200509090600FFE080C0B03E
:10469000A8283028280509090600FFF8A888888876
:1046A0008888A8F8050A0A0600FE20505050508855
:1046B000A8A8887003030306000340A04000FF0081
:1046C000F70011241FBECFEFD1E2DEBFCDBF00E067
:1046D0000CBF13E0A0E0B2E0EAE5F8E602E00BBFB1
:1046E00002C007900D92AE3DB107D9F725E1AEEDBE
:1046F000B3E001C01D92A332B207E1F713E2C0E6B6
:10470000D3E200E006C021970109802FFE010F943B
:104710008433CF35D10780E00807A9F70F94481BF1
:104720000D941C340C9400002F923F924F925F9294
:104730006F927F928F929F92AF92BF92CF92DF92B1
:10474000EF92FF920F931F93CF93DF93CDB7DEB716
:10475000C356D1090FB6F894DEBF0FBECDBF80910E
:104760008D048D3409F4C2C6843511F40C943238AA
:10477000873421F0EEE7F4E40C94643820908B0445
:1047800030908C042BE12216310409F4B5C59CF459
:1047900044E02416310444F452E025163104DCF5DB
:1047A00037FE32C00C947C3884E02816310409F4BA
:1047B00074C50C947C389EE12916310409F4D1C5E6
:1047C0007CF4BCE12B16310409F4C6C5EDE12E16CC
:1047D000310411F00C947C380E942E4A0C947C38E1
:1047E000FBE52F16310409F42BC62CE52216310403
:1047F00009F42BC63AE52316310411F00C947C38E9
:104800001092E2030C947C3880918E0281110C94FA
:104810007F380C947C3880918E02882311F40C949C
:104820007C380E94BC4782E50E940D42882309F42F
:104830003EC10E94AB414B015C0120E030E0A90188
:104840000F94122C882309F462C18091C70C9091B7
:10485000C80CA091C90CB091CA0C88AB99ABAAAB9B
:10486000BBAB2091CB0C3091CC0C4091CD0C509136
:10487000CE0C2CAB3DAB4EAB5FAB8091B8059091AD
:10488000B905A091BA05B091BB0524968CAF9DAF38
:10489000AEAFBFAF24972091BC053091BD054091CC
:1048A000BE055091BF0528AF39AF4AAF5BAF9C0141
:1048B000AD0168A979A98AA99BA90F94122C81112D
:1048C0000DC028AD39AD4AAD5BAD6CA97DA98EA9EF
:1048D0009FA90F94122C882309F419C111E032E02A
:1048E0002316310409F010E020E030E0A901C501F1
:1048F000B4010F94122C881F8827881F181759F0AD
:1049000080E090E0A0E8BFEB2C968CAF9DAFAEAFFF
:10491000BFAF2C970AC020E030E040E85FE32C9660
:104920002CAF3DAF4EAF5FAF2C9728A939A94AA94C
:104930005BA924966CAD7DAD8EAD9FAD24970F9491
:104940006C306CAF7DAF8EAF9FAF2CA93DA94EA947
:104950005FA968AD79AD8AAD9BAD0F946C306B01EA
:104960007C012CAD3DAD4EAD5FADCA01B9010F94D8
:10497000772C2B013C01A7019601C701B6010F94CA
:10498000772C9B01AC01C301B2010F946D300F94E1
:10499000D83228966CAF7DAF8EAF9FAF289720E0BE
:1049A00030E040E05FE30F94772C2B013C01A50140
:1049B0009401C501B4010F94772C4B015C01A30154
:1049C0009201C301B2010F94772C9B01AC01C50188
:1049D000B4010F946C300F94D8322C962CAD3DADB1
:1049E0004EAD5FAD2C970F94772C4B015C01C70146
:1049F000B601905828962CAD3DAD4EAD5FAD2897D1
:104A00000F944931A50194010F94772C6B017C011F
:104A100024962CAD3DAD4EAD5FAD249768A979A924
:104A20008AA99BA90F946D3020E030E040E05FE35D
:104A30000F94772C9B01AC01C701B6010F946D3028
:104A400028A939A94AA95BA90F946C306B017C0194
:104A500028AD39AD4AAD5BAD6CA97DA98EA99FA9E2
:104A60000F946D3020E030E040E05FE30F94772C4E
:104A70002B013C0128962CAD3DAD4EAD5FAD289786
:104A80006CAD7DAD8EAD9FAD0F944931A501940104
:104A90000F94772C9B01AC01C301B2010F946D30D0
:104AA0002CA93DA94EA95FA90F946C3014C089E4CC
:104AB0000E940D42882329F00E94AB416B017C01CA
:104AC00003C0C12CD12C76018AE40E940D428823B8
:104AD00009F10E94AB4124966CAF7DAF8EAF9FAFC2
:104AE000249720E030E0A901C701B6010F94122CF1
:104AF00081111FC020E030E0A90124966CAD7DAD8E
:104B00008EAD9FAD24970F94122C811112C0EAE94B
:104B1000F0E4AFC320E030E0A901C701B6010F9473
:104B2000122C8823A1F324961CAE1DAE1EAE1FAE20
:104B30002497D701C601B05888AB99ABAAABBBABE1
:104B400024962CAD3DAD4EAD5FAD249750582CABA7
:104B50003DAB4EAB5FAB9C01AD01BC01CD010F94F1
:104B6000772C4B015C012CA93DA94EA95FA9CA0174
:104B7000B9010F94772C9B01AC01C501B4010F94CE
:104B80006D300F94D8326C966CAF7DAF8EAF9FAF07
:104B90006C978091C70C9091C80CA091C90CB091F2
:104BA000CA0C88AF99AFAAAFBBAFA7019601BC01F1
:104BB000CD010F946D302C966CAF7DAF8EAF9FAF53
:104BC0002C972091CB0C3091CC0C4091CD0C509176
:104BD000CE0C28962CAF3DAF4EAF5FAF28972496F2
:104BE0002CAD3DAD4EAD5FAD249728966CAD7DAD3F
:104BF0008EAD9FAD28970F946D3060966CAF7DAFF2
:104C00008EAF9FAF60978091B8059091B905A09144
:104C1000BA05B091BB0564968CAF9DAFAEAFBFAF88
:104C200064972C962CAD3DAD4EAD5FAD2C97BC017D
:104C3000CD010F946C306B017C012091BC0530914B
:104C4000BD054091BE055091BF0568962CAF3DAFA4
:104C50004EAF5FAF689760962CAD3DAD4EAD5FAD8A
:104C6000609768966CAD7DAD8EAD9FAD68970F94E3
:104C70006C304B015C018091CF0C9091D00CA091D5
:104C8000D10CB091D20CA0968CAF9DAFAEAFBFAFA0
:104C9000A0979C01AD016091C0057091C105809104
:104CA000C2059091C3050F946C306CAF7DAF8EAF91
:104CB0009FAFA701960168A979A98AA99BA90F941A
:104CC000772C2B013C01A50194016CA97DA98EA92B
:104CD0009FA90F94772C9B01AC01C301B2010F94E3
:104CE0006D302B013C01A501940168A979A98AA91D
:104CF0009BA90F94772C4B015C01A70196016CA92D
:104D00007DA98EA99FA90F94772C9B01AC01C501A9
:104D1000B4010F946C30A30192010F94E0306B0149
:104D20007C0120E030E0A9010F94122C87FF0AC01B
:104D30002BED3FE049EC50E4C701B6010F946D3014
:104D40006B017C0192E02916310451F42BED3FE018
:104D500049EC50E4C701B6010F946C306B017C0143
:104D600020E030E0A901C701B6010F94122C811197
:104D700026C064962CAD3DAD4EAD5FAD649768AD79
:104D800079AD8AAD9BAD0F94122C811118C0689635
:104D90002CAD3DAD4EAD5FAD689728966CAD7DAD49
:104DA0008EAD9FAD28970F94122C811108C07BED1A
:104DB000C72E7FE0D72E79ECE72E70E4F72EA701FF
:104DC00096016C966CAD7DAD8EAD9FAD6C970F94DA
:104DD000772C9B01AC010F94772C4B015C012CAD1F
:104DE0003DAD4EAD5FADCA01B9010F94772C9B016B
:104DF000AC01C501B4010F946D300F94D8324B0152
:104E00005C012FE632E143E85AE30F94122C87FD50
:104E100029C2C501B4010F94E2310F94B631269630
:104E20007FAF6EAF2697DB01AB2B31F4E1E0F0E012
:104E30002696FFAFEEAF26974090D30C5090D40C3F
:104E40006090D50C7090D60C26962EAD3FAD26976F
:104E5000B90180E090E00F94162C4B015C019B019E
:104E6000AC01C701B6010F94493168AF79AF8AAF81
:104E70009BAFA50194016CAD7DAD8EAD9FAD0F9440
:104E800049316C966CAF7DAF8EAF9FAF6C97A3012D
:104E900092016091C4057091C5058091C6059091FD
:104EA000C7050F946C30A50194010F944931A49665
:104EB0006CAF7DAF8EAF9FAFA49728AD39AD4AAD33
:104EC0005BADCA01B9010F94772C20E030E040E0DF
:104ED0005FE30F94772C9B01AC0160E070E080E809
:104EE0009FE30F946C3064966CAF7DAF8EAF9FAF35
:104EF0006497A0968CAD9DADAEADBFADA0978987F0
:104F00009A87AB87BC874D865E866F86788A60916C
:104F1000330270913402072E000C880B990B0F940A
:104F2000182C20911F0230912002409121025091B3
:104F300022020F94772C2AE037ED43E25CE30F94D2
:104F4000772C6CA77DA78EA79FA70E94E2AE9B013E
:104F5000AC0128533F4F4F4F5F4F68962CAF3DAF8A
:104F60004EAF5FAF689748A859A86AA87BA82224CB
:104F70002394312C39E13CAF26964EAD5FAD269798
:104F80004215530509F433C10F9465130E94E2AE34
:104F9000DC01CB0168962CAD3DAD4EAD5FAD6897A1
:104FA000821B930BA40BB50BB7FD11C00E94E2AEA0
:104FB0009B01AC0128533F4F4F4F5F4F68962CAF7A
:104FC0003DAF4EAF5FAF689780E00E94F05A3CADB6
:104FD00031503CAF332309F441C02CA93DA94EA95F
:104FE0005FA964966CAD7DAD8EAD9FAD64970F9457
:104FF000772C6B017C019201A30168AD79AD8AAD7C
:105000009BAD0F94772CA70196010F946D306B0127
:105010007C019201A30164966CAD7DAD8EAD9FAD18
:1050200064970F94772C4B015C012CA93DA94EA9E4
:105030005FA968AD79AD8AAD9BAD0F94772C9B01CC
:10504000AC01C501B4010F946C302B013C01C601C9
:10505000D7018CAB9DABAEABBFAB51C0B10180E013
:1050600090E00F94162C28AD39AD4AAD5BAD0F948E
:10507000772C4B015C010F9446316B017C01C5011B
:10508000B4010F94CE324B015C01A701960168A9CF
:1050900079A98AA99BA90F94772C2B013C0124960E
:1050A0002CAD3DAD4EAD5FAD2497C501B4010F945D
:1050B000772CA30192010F946D302B013C01A501C7
:1050C000940168A979A98AA99BA90F94772C4B010F
:1050D0005C0124962CAD3DAD4EAD5FAD2497C7016C
:1050E000B6010F94772C9B01AC01C501B4010F945C
:1050F0006C306CAB7DAB8EAB9FAB49E14CAF92019A
:10510000A3012C966CAD7DAD8EAD9FAD2C970F9409
:105110006D3069837A838B839C832CA93DA94EA92A
:105120005FA960966CAD7DAD8EAD9FAD60970F941D
:105130006D306D837E838F8398876C962CAD3DADEB
:105140004EAD5FAD6C9769857A858B859C850F9494
:105150006D3069877A878B879C87A4962CAD3DAD8F
:105160004EAD5FADA4976D857E858F8598890F9430
:105170006D306D877E878F87988B80911902882389
:1051800021F0CE0101960E944782E090B10789810B
:105190009A81AB81BC8188A399A3AAA3BBA38D816B
:1051A0009E81AF81B8858CA39DA3AEA3BFA3898543
:1051B0009A85AB85BC8588A799A7AAA7BBA7CE016E
:1051C00080960E9427438E01045D1F4F9E01235F3E
:1051D0003F4FAE01485D5F4FBE016C5D7F4FCE011A
:1051E00080960E94CA915FEF251A350AC5CEE090DD
:1051F000B1078091B8059091B905A091BA05B09119
:10520000BB0588A399A3AAA3BBA38091BC059091D9
:10521000BD05A091BE05B091BF058CA39DA3AEA313
:10522000BFA38091C0059091C105A091C205B09126
:10523000C30588A799A7AAA7BBA7CE0180960E94FD
:1052400027438E01045D1F4F24EC35E0AE01485D1D
:105250005F4FBE016C5D7F4FCE0180960E94CA9168
:105260000E9439430E9443430C947C380E946D4352
:10527000F80184918F010F5F1F4F8111F7CFEFE786
:10528000F2E084918F010F5F1F4F882311F40C947B
:105290007C380E946D43F801F4CF80E50E940D42F6
:1052A000882329F00E946B416B017C0103C0C12C53
:1052B000D12C760183E50E940D42882361F00E9483
:1052C000AB4120E030E04AE754E40F94772C0F9490
:1052D000B6316B017C010F94621780914B028111F2
:1052E00005C060E085E992E00E94F5B4C701B6010F
:1052F0000E9496470C947C380E94F6A681110C946B
:105300007C3880E090E0A0EFB1EC89839A83AB8396
:10531000BC8380E090E0A0E2B1E48D839E83AF8304
:10532000B88780E090E0A0EAB1E489879A87AB87EC
:10533000BC8780E50E940D42882319F00E947B41C2
:1053400001C060E068A3BE016F5F7F4FCE01809611
:105350000F94BB0B0C947C3880E00E943C580C945A
:105360007C38C090C70CD090C80CE090C90CF0906D
:10537000CA0C88E50E940D42811109C020E030E08E
:1053800040EF51E4C701B6010F946D3002C00E9496
:10539000AB4168A379A38AA39BA3C090CB0CD09008
:1053A000CC0CE090CD0CF090CE0C89E50E940D4223
:1053B000811108C020E030E0A901C701B6010F94B7
:1053C0006D3002C00E94AB416B017C0169837A831E
:1053D0008B839C8388A099A0AAA0BBA02FE632E172
:1053E00043E85AEBC501B4010F94933287FF02C022
:1053F0000C947C3821E230E04BE953E4C501B40160
:105400000F94122C181614F40C947C382FE632E109
:1054100043E85AEBC701B6010F94933287FF02C0ED
:105420000C947C3821E230E04BE953E4C701B6012B
:105430000F94122C181614F40C947C380C948438A5
:1054400081E08093E2030C947C380F9462174FE95B
:10545000242E42E0342E57ECE52E5CE0F52E00E0E1
:10546000D12C10E0D1018D911D010E940D428823A5
:1054700059F10E94AB412B013C01F70120813181A0
:10548000428153810F946C304B015C012DEB37E36B
:1054900046E855EB0F94933287FD0AC02DEB37E3B6
:1054A00046E855E3C501B4010F94122C181664F4B4
:1054B000133011F401E002C0DD24D394D7014D92E2
:1054C0005D926D927C9213971F5FB4E0EB0EF11C1E
:1054D000143041F6DD2019F00E94244103C001116F
:1054E0000E94B8A60E94327F0C947C3880918B0475
:1054F00090918C048437910509F40BC60CF0F3C02D
:105500008B34910509F448C40CF06CC086319105C8
:1055100009F4F3C2CCF58530910509F486C25CF438
:105520008330910509F479C20CF07BC2029708F42C
:10553000F0C10C947C388231910509F4B7C6C4F4EB
:10554000419711F00C947C3860E081E193E00E9477
:10555000F5B45F988A989FB7F894809108018E7F80
:10556000809308019FBF1298479810980C947C383C
:105570008431910509F4CAC1459711F00C947C3827
:105580000E944BEC0C947C388B31910509F407C3D5
:105590007CF48831910509F4CCC20CF4B4C2893191
:1055A000910509F4E0C24A9709F4EBC20C947C38E7
:1055B0008F31910509F484C364F48C31910509F4A9
:1055C0002BC34E9711F00C947C380E949DFF0C94D5
:1055D0007C388032910509F429C38A9709F49CC369
:1055E0000C947C388836910509F4E6C30CF048C069
:1055F0008235910509F453C654F58D34910509F4AB
:10560000D3C30CF4CDC38E34910509F4D1C38135D5
:10561000910511F00C947C380F946A110F94621765
:105620000E94725A109279051092780568EE73E024
:1056300080E090E00E9405B40F9462170E94A6409B
:1056400060E08EEF93E00E94F5B40C947C388435D2
:10565000910509F42BC60CF425C68535910509F48E
:105660005AC68C35910511F00C947C381FE9C12E77
:1056700012E0D12E07EDE02E0CE0F02E10E064C613
:105680008D36910509F4F0C49CF48A36910509F42D
:105690000BC50CF4A8C48B36910509F42AC58C36C9
:1056A000910511F00C947C3810920D020C947C380A
:1056B0008037910509F473C454F48E36910509F4CA
:1056C000CBC38F36910509F4DAC30C947C3882374A
:1056D000910509F4B9C68337910511F00C947C3813
:1056E000E8ECF4E0B6C68232E1E09E0711F40C94D7
:1056F000EF350CF06FC08E3B910509F4B9C484F509
:105700008937910509F440C7B4F48637910509F447
:10571000F9C60CF4EFC68737910509F432C788370C
:10572000910511F00C947C3881E080937410809383
:1057300073100C947C388C38910509F438C434F417
:105740008D37910509F4FCC40C947C38813991059E
:1057500009F41FC78B39910509F45FC40C947C3898
:105760008D3C910511F40C945434BCF4893C9105A2
:1057700009F4F3C734F4883C910509F482C70C940A
:105780007C388B3C910511F40C94CC338C3C910506
:1057900011F40C94EA330C947C388C3D910511F48F
:1057A0000C9471355CF4833D910509F4ABC08A3DDE
:1057B000910511F40C9465350C947C388D3D910560
:1057C00011F40C947E35823E910511F40C94C5358C
:1057D0000C947C38833C21E0920709F431C10CF031
:1057E00046C0833641E0940709F488C0ECF48D325A
:1057F000A1E09A0711F40C9423363CF48C329140CA
:1058000011F40C94FA350C947C388E32F1E09F0739
:1058100011F40C94C1368F32914011F00C947C3805
:105820000E94737A0C947C38823931E0930711F42A
:105830000C94183784F4803951E0950711F40C94D6
:1058400015378139914011F00C947C3881E00E9429
:1058500087490C947C388A39B1E09B0709F4A3C3CB
:10586000843A914011F40C941C370C947C38873F97
:10587000F1E09F0711F40C94A337E4F4843F31E086
:10588000930711F40C949D3734F4843C914009F44F
:10589000DDC00C947C38853FA1E09A0711F40C948C
:1058A000A037863F914011F00C947C380E9468D05C
:1058B0000C947C388335E3E09E07E1F07CF4883576
:1058C00022E0920711F40C9404388A39924011F0C6
:1058D0000C947C38E7E3F6E00C94BF34803A43E064
:1058E000940709F4E0C1873E934011F40C941D38ED
:1058F0000C947C38EEE7F4E40C94B237EAE9F0E477
:105900000C940A38EEE7F4E40C94E834E5E3F3E0B1
:10591000B4C0A0908904B0908A0480E50E940D4232
:10592000882359F00E946B416B017C0111E0672BC9
:10593000682B692B31F410E004C010E0C12CD12C8D
:10594000760183E50E940D428823F1F00E94AB416D
:1059500020E030E04AE754E40F94772C0F94B631FE
:105960006B017C01111112C0672B682B692B71F43C
:10597000A114B10459F0D5018C91882339F061E06C
:10598000C5010E9414B507C0112391F360E082EFB6
:1059900092E00E94F5B481E08093100D0F9462179D
:1059A0000E944343C114D104E104F104E1F0809169
:1059B000170590911805A0911905B0911A05C80E08
:1059C000D91EEA1EFB1E0E94E2AEDC01CB018C193F
:1059D0009D09AE09BF09B7FF1CC08091100D811150
:1059E0000C94DB3816C08091100D882321F080E0E4
:1059F0000E94F05AF8CF809193109091941060E03B
:105A0000029719F48BED92E002C089EB92E00E94BC
:105A1000F5B41092100D0C947C380E9434820C94D2
:105A20007C380E9434820C947C380F9462172C9836
:105A300068EE73E080E090E00E9496470C947C381A
:105A400010926105109260050C947C3883E50E94E9
:105A50000D42811103C01092000207C00E948B41C9
:105A60008823C9F381E08093000281E090E0909365
:105A70006105809360050C947C3884918F010F5FE1
:105A80001F4F882321F00E946D43F801F6CF10923A
:105A90006E1310926D138FEE90E10E9451F68BE120
:105AA000EFEEF0E1DE01159601900D928A95E1F797
:105AB0008091ED109091EE109C838B838FEF92E09C
:105AC0009A83898340E050E0BE016F5F7F4F89E396
:105AD00093E00E942AE9CE0101960E94675AE6E20D
