:100000000C9419200C944A200C944A200C944A20F9
:100010000C944A200C944A200C944A200C944A20B8
:100020000C944A200C944A200C944A200C944A20A8
:100030000C944A200C94EF900C944A200C944A2083
:100040000C944A200C94FC990C944A200C944A205D
:100050000C944A200C944A200C949A610C94A6AB00
:100060000C944A200C94FE430C944A200C944A2091
:100070000C944A200C944A200C944A200C944A2058
:100080000C944A200C944A200C944A200C944A2048
:100090000C944A200C944A200C944A200C944A2038
:1000A0000C944A200C944A200C944A200C944A2028
:1000B0000C944A200C944A200C944A200C944A2018
:1000C0000C944A200C944A200C944A200C944A2008
:1000D0000C944A200C944A200C944A200C944A20F8
:1000E0000C944A2056625B6285628A626A6276621A
:1000F0004062F6A9F9A9E8A9ECA9F2A930AAFDA9DC
:1001000001AA07AA0BAA0FAA15AA19AA1DAA30AA02
:1001100023AA27AA2BAAC2AAC7AACCAAD6AAE0AA0F
:1001200059ABEAAAF2AAFAAA04AB0EAB18AB27ABFA
:1001300031AB59AB3BAB45AB4FAB0301FD00FB0013
:100140000101FB00FB00FB00FB00FB00FB00FB00D0
:10015000FB00FB00FB00FB00FB00FB00FB00FB00C7
:10016000FB00FB00FB00FB00FB00FB00FB00FB00B7
:10017000FB00FB00FB000701FB00FB00FB00FB009A
:10018000FB00FB00FB00FB000D01FB00FB00FB0084
:10019000FB00FB00FB00FB00FB00FB00FB00F90089
:1001A0000901084AD73B3BCE016E84BCBFFDC12F7D
:1001B0003D6C74319ABD56833DDA3D00C77F11BE58
:1001C000D9E4BB4C3E916BAAAABE000000803F055B
:1001D000A84CCDB2D44EB93836A9020C50B991868C
:1001E00088083CA6AAAA2ABE000000803F000D9401
:1001F0008F170D947B0D0D94A40B0D946B0B0D9428
:1002000040200D94640D0D94280D0D94F90A0D9461
:100210005E0D0D94A10B0D9458030D94370D4E41B6
:100220004E494E495459494E46CDCCCC3D0AD72370
:100230003C17B7D13877CC2B329595E6241FB14FB8
:100240000A000020410000C84200401C4620BCBEFD
:100250004CCA1B0E5AAEC59D74434F4D4D554E4969
:10026000434154494F4E0044525952554E00455255
:10027000524F525300494E464F004543484F0047A6
:10028000322F47332062616420706172616D657442
:100290006572730A00536F7370656E73696F6E6574
:1002A0002E2E2E00205A3A200020593A2000426576
:1002B0006420583A200052697072656E6469205358
:1002C00074616D7061005A38535F52322070726FE2
:1002D0006E746F2E005072656D6920746173746F57
:1002E0002E2E004E657373756E204D6F76696D65A9
:1002F0006E746F00456E642066696C65206C69736E
:10030000740A00426567696E2066696C65206C69D5
:1003100073740A004D313235005344207072696E97
:1003200074696E67206279746520004E6F74205383
:1003300044207072696E74696E670A005072696E4B
:10034000742074696D653A200050726F746563742F
:1003500065642050696E0A00452569202573007A7E
:100360000275026E02670259026F666600444542DA
:1003700055473A0055434349534F2E20006F6B00B9
:1003800050696174746F2050726F6E746F002057E3
:100390003A00526973632E2050696174746F2E2E77
:1003A000005A38535F5232204F66662E00454D4545
:1003B0005247454E43595F504152534552004341C5
:1003C00053455F4C494748545F4252494748544E51
:1003D00045535300544F47474C455F4C4947485499
:1003E0005300534F4654574152455F504F57455263
:1003F000004255494C445F50455243454E54004CD1
:100400004556454C494E475F44415441005A5F5060
:10041000524F4245004155544F4C4556454C0050B3
:1004200052494E545F4A4F420050524F4752455333
:1004300053004155544F5245504F52545F54454D0F
:100440005000564F4C554D45545249430045455078
:10045000524F4D0053455249414C5F584F4E5F58E3
:100460004F4646004649524D574152455F4E414D19
:10047000453A4D61726C696E2042617365206F6E02
:10048000204D61726C696E312E312E3820284769FB
:10049000746875622920534F555243455F434F445A
:1004A000455F55524C3A68747470733A2F2F6769E0
:1004B000746875622E636F6D2F7A6F6E65737461E9
:1004C0007233642050524F544F434F4C5F56455245
:1004D00053494F4E3A312E30204D414348494E4505
:1004E0005F545950453A5A38535F52322045585458
:1004F00052554445525F434F554E543A322055555C
:1005000049443A30303030303031302D30383038A6
:100510002D303030332D303030302D3230313830D6
:100520003131303030310A002F2F20004D31343539
:1005300020533C696E6465783E206F7574206F6649
:100540002072616E67652028302D31290A005365BD
:100550007474696E672054726176656C20416363C0
:10056000656C65726174696F6E3A200053657474CE
:10057000696E6720526574726163742041636365BC
:100580006C65726174696F6E3A20005365747469AA
:100590006E67205072696E7420416363656C65728A
:1005A0006174696F6E3A200053657474696E6720D8
:1005B0005072696E7420616E642054726176656C4D
:1005C00020416363656C65726174696F6E3A2000E7
:1005D000205A004475616C20456E6473746F7020FE
:1005E00041646A7573746D656E7420286D6D293A67
:1005F0002000205A00205900580020204D61783AF0
:100600002000205A00205900580020204D696E3AE1
:1006100020004F6E20004F666600536F66742065A1
:100620006E6473746F70733A2000486F74656E6403
:10063000206F6666736574733A00000136372603CF
:10064000FF3C3D380EFF2E303E121313FF08090603
:10065000FFFF24221EFFFF282716FFFF08440A067B
:10066000430706451A1C18FFFFFFFFFFFF20643AEF
:100670000020693A0020703A0043290A0061626C48
:10068000656420286D696E2074656D702000436F6D
:100690006C6420657874727564657320617265207E
:1006A00000426564204C6576656C696E6720004683
:1006B00061696C656420746F20656E61626C652091
:1006C000426564204C6576656C696E670A00426518
:1006D00064204C6576656C20436F72726563746943
:1006E0006F6E204D61747269783A003A2000207A6A
:1006F0005F6D696E3A20202D3230207A5F6D61780F
:100700003A202032300A0050726F6265205A204F22
:100710006666736574004E6F2063617365206C6953
:100720006768740A00556E6B6E6F776E20636F6D2D
:100730006D616E643A2022002569730025696D2081
:10074000256973002569682025696D202569730076
:10075000256964202569682025696D202569730055
:1007600025697920256964202569682025696D201F
:100770002569730055434349534F2E20004152527F
:1007800045535441544F2E20005072696E74657267
:100790002073746F707065642064756520746F20B9
:1007A0006572726F72732E204669782074686520B6
:1007B0006572726F7220616E6420757365204D39A9
:1007C000393920746F20726573746172742E202819
:1007D00054656D70657261747572652069732072FD
:1007E000657365742E205365742069742061667486
:1007F00065722072657374617274696E67290A008C
:100800004E6F20436865636B73756D2077697468FC
:10081000206C696E65206E756D6265722C204C616E
:100820007374204C696E653A2000636865636B736E
:10083000756D206D69736D617463682C204C6173F4
:1008400074204C696E653A20004C696E65204E75C7
:100850006D626572206973206E6F74204C617374D1
:10086000204C696E65204E756D6265722B312C20AF
:100870004C617374204C696E653A20004D31313003
:10088000004D3331005344207265616420657272FB
:100890006F720A00446F6E65207072696E74696EC3
:1008A000672066696C650A0020496E76616C696430
:1008B000206578747275646572200020706F7369AA
:1008C00074696F6E206F7574206F662072616E6739
:1008D000652E0A003F50726F626520000A0A426569
:1008E00064204C6576656C20436F72726563746931
:1008F0006F6E204D61747269783A00202B000A43B4
:100900006F7272656374656420426564204865692E
:100910006768742076732E2042656420546F706F70
:100920006C6F67793A0A00202B000A426564204800
:10093000656967687420546F706F67726170687959
:100940003A0A2020202B2D2D2D204241434B202DD3
:100950002D2B0A2020207C20202020202020202039
:1009600020207C0A204C207C20202020282B29209D
:100970002020207C20520A2045207C20202020207E
:100980002020202020207C20490A2046207C20286E
:100990002D29204E20282B29207C20470A20542056
:1009A0007C20202020202020202020207C20480A7D
:1009B0002020207C20202020282D29202020207C61
:1009C00020540A2020207C202020202020202020AD
:1009D00020207C0A2020204F2D2D2046524F4E549F
:1009E000202D2D2B0A2028302C30290A004D65613E
:1009F0006E206F662073616D706C656420706F6926
:100A00006E74733A200020643A200020623A20007D
:100A100045716E20636F656666696369656E7473A0
:100A20003A20613A2000202844525952554E29005C
:100A3000473239204175746F20426564204C6576D9
:100A4000656C696E670028422961636B002846293E
:100A5000726F6E74002852296967687400284C29E7
:100A6000656674003F4E756D626572206F6620701A
:100A7000726F626520706F696E747320697320698C
:100A80006D706C61757369626C65202832206D69C8
:100A90006E696D756D292E0A003F285629657262B0
:100AA0006F7365206C6576656C20697320696D7065
:100AB0006C61757369626C652028302D34292E0AAB
:100AC00000526573656E643A20006F6B0020746F8E
:100AD0006F206C6F6E6720657874727573696F6EC6
:100AE0002070726576656E7465640A0020636F6CB1
:100AF0006420657874727573696F6E2070726576A4
:100B0000656E7465640A004D36303000436174636D
:100B1000682066696C616D656E742072756E206FF9
:100B20007574210A0055434349534F2E20004B4909
:100B30004C4C20636175736564206279204B494C8D
:100B40004C20627574746F6E2F70696E0A00554385
:100B50004349534F2E20004B494C4C206361757321
:100B6000656420627920746F6F206D7563682069F9
:100B70006E6163746976652074696D65202D2063EC
:100B8000757272656E7420636F6D6D616E643A206C
:100B90000046696C616D656E7420696E7365727470
:100BA000210A0043617463682066696C616D656E3B
:100BB000742072756E206F7574210A005269617617
:100BC000766961726520707265676F005354414D9C
:100BD00050414E5445204645524D415441005072BB
:100BE000696E7465722068616C7465642E206B692F
:100BF0006C6C28292063616C6C6564210A00656E49
:100C00007175657565696E672022000000484200B5
:100C100000484200000040000000005761726E6909
:100C20006E673A20486F6D696E672042756D70205F
:100C300044697669736F72203C20310A0002020415
:100C40000000A0400000A040000000400000B443AD
:100C500000009B430080C943FFFFFF1000AA0380F0
:100C600000400100012C01B001220140021001F0FE
:100C70000202018003F8004004F500E004ED00905A
:100C800005E4003006DD00E006D7008007D1003023
:100C900008CC00D008C7007009C300100ABE00B01D
:100CA0000ABB00500BB700900CB300D00DAA00B0E7
:100CB0000FA500F010A00030129600D0129000F0A6
:100CC000158B00D0178500B0198000F01A7B0070DA
:100CD0001D7500F01F6F0070226900402564002020
:100CE000275F00A0295A00902B5500102D4F00506F
:100CF0002E4800E031450030334100D035390060E6
:100D000036370010373300F0382D00A03927008027
:100D10003C1C00403D1700F03D1100803E0900D012
:100D20003FE5FF4572723A2054454D50204D494EE3
:100D3000494D412050494154544F004572723A2068
:100D400054454D50204D494E494D41004D494E545A
:100D5000454D50207472696767657265640045721D
:100D6000723A2054454D50204D415353494D412036
:100D700050494154544F004572723A2054454D50E9
:100D8000204D415353494D41004D415854454D501C
:100D90002074726967676572656400202F002040C7
:100DA000002042403A0020403A004C6976656C2EA3
:100DB000204C696E65617265004573747275736F5E
:100DC00072693A203200687474703A2F2F777777FF
:100DD0002E7A6F6E657374617233642E636F6D006B
:100DE0005A38535F523200323031392D30352D317F
:100DF000360042617365206F6E204D61726C696EC2
:100E0000312E312E380056312E3000486561746520
:100E1000722054657374696E67004D31303420530D
:100E20003236300A4D31343020533131350A4D31AC
:100E300030362053300A004175746F20557020649D
:100E40006F776E004D3230332058313530205931B4
:100E50003530205A31360A47302058333130205946
:100E6000333130205A34303020463936300A47305A
:100E7000205830205930205A313020463936300A37
:100E8000473020583330302059333030205A3430F6
:100E90003020463936300A4730205830205930202B
:100EA0005A313020463936300A47302058333130F5
:100EB0002059333130205A34303020463936300A08
:100EC0004730205830205930205A313020463936AA
:100ED000300A473020583331302059333130205ACE
:100EE00034303020463936300A47302058302059C7
:100EF00030205A313020463936300A4730205833B6
:100F000031302059333130205A3430302046393690
:100F1000300A4730205830205930205A313020468E
:100F20003936300A4732380A4D323033205831359D
:100F3000302059313030205A380A4D333030205368
:100F400033303030205031303030004661737420FF
:100F5000746F20426F74746F6D004D3230332058BF
:100F60003135302059313530205A31360A47323840
:100F70002058300A4730205A3020463936300A4D42
:100F800032303320583135302059313030205A3802
:100F90000A004661737420746F20546F70004D32E4
:100FA000303320583135302059313530205A3136E0
:100FB0000A473020583331302059333130205A34E9
:100FC000303020463936300A4D32303320583135F2
:100FD000302059313030205A380A004175746F2062
:100FE000486F6D65004732380053746174697374DB
:100FF00069636865005465726D6973746F72690026
:10100000496E666F2E2073636865646100496E6681
:101010006F2E207374616D70616E7465004D656E26
:1010200075207072696E636970616C65002020556F
:1010300067656C6C6F3A20002000496E64696574C6
:10104000726F0054656D70206D696E696D6120C3AB
:10105000A8203135302E0052697363616C642E20F4
:1010600046616C6C69746F004573747275646920B5
:10107000616E636F72610052697072656E6469209F
:101080007374616D7061004F505A494F4E493A0078
:1010900020205567656C6C6F3A2000646920666992
:1010A0006C616D656E746F0064656C2063616D6268
:1010B000696F00417474656E64657265206176764F
:1010C000696F005354414D504120494E20504155C5
:1010D00053410020205567656C6C6F3A20006465B1
:1010E0006C2066696C616D656E746F006C2765734A
:1010F00070756C73696F6E6500417474656E6465BC
:101100007265005354414D504120494E2050415585
:1011100053410020205567656C6C6F3A2000200019
:10112000417474656E646572652E2E2E005269736B
:1011300063616C642E207567656C6C6F005354415D
:101140004D504120494E20504155534100202055DB
:1011500067656C6C6F3A2000200072697363616C84
:1011600064207567656C6C6F2E005072656D692028
:10117000706572005354414D504120494E205041FA
:101180005553410020205567656C6C6F3A20007004
:1011900072656D692070657220636F6E7400666998
:1011A0006C616D656E746F206500496E7365726960
:1011B00073636920696C005354414D504120494E7E
:1011C0002050415553410020205567656C6C6F3AA3
:1011D000200064656C2066696C616D656E746F00DB
:1011E000696C206361726963616D656E746F004143
:1011F0007474656E64657265005354414D504120AE
:10120000494E2050415553410020205567656C6C74
:101210006F3A200064656C2066696C616D656E7460
:101220006F006C27657374727573696F6E6500412A
:101230007474656E64657265005354414D5041206D
:10124000494E2050415553410025753A253032759D
:1012500000253032753A2530327500257564202519
:101260003032753A25303275005A0059005800095D
:1012700020000000000000000000000000007FFFD0
:10128000E00000000000000000000000007000E02E
:1012900000000000000000000000000061F8600095
:1012A000000000000000000000000041F8200000E5
:1012B0000000000000000000000040F020000000DE
:1012C000000000000000000000406020000000005E
:1012D00000000000000000005801A07F80003FC017
:1012E000000000004104005C63A0FBC00079E00046
:1012F0000000002082005EF7A0F3C00076E000004E
:1013000000002082005EF7A0EBC0007EE00000003D
:10131000004104005C63A07B80003DC00000000031
:101320008208005801A07B80003BC000000001043F
:101330001000406020FBC00077E0000000010410B6
:101340000040F020FBC00070E000000000820800B8
:1013500041F820FFC0007FE0000000004104006170
:10136000F8603F00001F80000000000000007000D7
:10137000E01E00000F0000000001FFFF807FFFE083
:101380000C0000060000000001FFFF8000000000CC
:1013900000000000000000000000007FFFE00000EF
:1013A000000000000000000000007000E0000000ED
:1013B000000000000000000000630C60000000005E
:1013C0000000000000000000470E200000000000A8
:1013D000000000000000004F0F200000000000008F
:1013E0000000000000005F0FA000000000000000EF
:1013F00000000000005E07A07F80003FC0000000EA
:1014000000410400406020FBC00079E000000000C3
:1014100020820040F020F3C00076E00000000020B1
:10142000820040F020EBC0007EE00000000041049C
:10143000004060207B80003DC0000000008208006A
:101440005E07A07B80003BC0000000010410005F2D
:101450000FA0FBC00077E0000000010410004F0F58
:1014600020FBC00070E000000000820800470E2052
:10147000FFC0007FE000000000410400630C603FFB
:1014800000001F80000000000000007000E01E004F
:10149000000F0000000001FFFF807FFFE00C000054
:1014A000060000000001FFFF800000005374616D22
:1014B000706120736F7370657361004D3132350058
:1014C000004D3234005374616D706120616E6E7531
:1014D0006C6C617461005344206E6F6E2070726595
:1014E00073656E7465005374616D70612064612072
:1014F00053440041727265737461207374616D703E
:10150000610052697072656E6469207374616D70F8
:101510006100526967756172646F207374616D70E8
:10152000616E746500506175736100436F6E747213
:101530006F6C6C6F0050726570617261005265670C
:101540006F6C610047756172646100205A3A002037
:10155000593A0020436F756E7420583A0020453A7E
:1015600000205A3A0020593A00583A003A004361A4
:10157000703A0023646566696E65202044454641E3
:10158000554C545F4B64200023646566696E65208A
:101590002044454641554C545F4B69200023646507
:1015A00066696E65202044454641554C545F4B703A
:1015B0002000504944204175746F74756E65206633
:1015C000696E69736865642120507574207468655C
:1015D000206C617374204B702C204B6920616E6409
:1015E000204B6420636F6E7374616E747320667237
:1015F0006F6D2062656C6F7720696E746F20436F2A
:101600006E66696775726174696F6E2E680A005044
:101610004944204175746F74756E65206661696C0C
:101620006564212074696D656F75740A0054454DB9
:10163000502046554F524920434F4E54524F4C4C28
:101640004F00546865726D616C2052756E617761F0
:10165000790052697363616C642E2046616C6C6919
:10166000746F0048656174696E67206661696C65B6
:101670006400504944204175746F74756E6520662E
:1016800061696C6564212054656D70657261747563
:10169000726520746F6F20686967680A00204B6468
:1016A0003A2000204B693A2000204B703A20000A73
:1016B00020436C617373696320504944200A002001
:1016C00054753A2000204B753A2000206D61783A1D
:1016D0002000206D696E3A200020643A20002062CC
:1016E0006961733A200041637469766520457874B6
:1016F00072756465723A20004D36303020486F7440
:10170000656E6420746F6F20636F6C6420746F204B
:101710006368616E67652066696C616D656E740AE9
:101720000020746F6F206C6F6E672065787472751F
:1017300073696F6E2070726576656E7465640A00F9
:1017400020636F6C6420657874727573696F6E20A6
:1017500070726576656E7465640A0000002000236F
:1017600000260029002C002F003200000100000399
:101770000106010901050505050705080808080215
:101780000202020A0A08080404040401010101011A
:101790000101010303030303030303040707070C09
:1017A0000C0C0C0C0C0C0C020202020606060606BF
:1017B0000606060B0B0B0B0B0B0B0B01021020206C
:1017C0000808102040102040800201020108040295
:1017D000010102040810204080804020100804020B
:1017E0000180040201804020100804020108040264
:1017F000010102040810204080010204081020406A
:101800008000000A0B02090C0D0E080703040100FA
:1018100000000000000000000000000000000000C8
:101820000000000000000000000000000012111085
:1018300000000000000000000000000000000000A8
:101840000000000000000002000000000000000096
:101850000000000000000000000000000000000088
:101860000000000000000000000000000000000078
:101870000000000000000000000000000000000068
:10188000000000000000000007FF01FE070183FECA
:101890000FF8FFF807007FC007FF83FF0F8187FE67
:1018A0001FF8FFF80F80FFE007FFC7038F818FFC51
:1018B0003FF0FFF81FC0E0E00003C6018FC18C00BD
:1018C000380007001FC0C060000786018CC18C0073
:1018D000300007003DE0C060000F06018CE18C0085
:1018E0003800070038E0E0E0001E06018C618FFE42
:1018F0003FF0070038E0FFC0003C06018C618FFE1E
:101900001FF807003060FF80007806018C318FFCE3
:101910000FFC07007270FC0000F006018C318E0095
:10192000001C07006230CE0001E006018C398C00FB
:10193000000C07006730C70003C006018C198C003B
:10194000000C07006730C380078007038C198E00E6
:10195000001C0700CF98C1C007FFC7FF8C0F8FFF87
:101960001FFC0700CF98C0F003FFC3FF0C0F87FFD9
:101970003FF80700DFD8C07001FFC1FE0C0701FE71
:101980003FF0070000000000000000000000000021
:101990000000000000000000000000000000000047
:1019A0000000000000000000000000000000000037
:1019B0000000000000000000000000000000000027
:1019C00000000000000000002020506C616E6E6579
:1019D0007242756666657242797465733A200020BA
:1019E00046726565204D656D6F72793A2000436FD0
:1019F0006D70696C65643A204D617920323920320E
:101A00003031390A00207C20417574686F723A20A9
:101A10002848616C6C79405A4F4E455354415229C5
:101A20000A00323031392D30352D313600204C61ED
:101A3000737420557064617465643A200042617368
:101A400065206F6E204D61726C696E312E312E38BB
:101A50000A004D61726C696E0020536F6674776185
:101A600072652052657365740A002057617463685B
:101A7000646F672052657365740A002042726F7745
:101A80006E206F75742052657365740A0020457866
:101A90007465726E616C2052657365740A00506FD4
:101AA00077657255700A0073746172740A0065720A
:101AB000726F722077726974696E6720746F206626
:101AC000696C650A00456E6473746F70202563202D
:101AD00025632025632025630020503A00205A3AD0
:101AE0000020593A0020583A00656E6473746F7094
:101AF00073206869743A2000446F6E6520736176C4
:101B0000696E672066696C652E0A004D323900499E
:101B10006E64696574726F004E65787420636F72CD
:101B20006E6572004732380A47323900507265726A
:101B3000697363616C646120414253005072657245
:101B4000697363616C646120504C41005261666648
:101B500072656464610043616D6269612066696CED
:101B6000616D656E746F004C6976656C6C61207098
:101B700069616E6F004469736162696C69746120A8
:101B80004D6F746F7269004D3834004C6576656C2A
:101B900020636F726E65727300486F6D65206173AC
:101BA0007365205A00473238205A00486F6D65200F
:101BB00061737365205900473238205900486F6DB2
:101BC0006520617373652058004732382058004102
:101BD00075746F20486F6D6500473238004D756F22
:101BE00076692041737365004D656E75207072696A
:101BF0006E636970616C65004D756F766920580081
:101C00004D756F76692059004D756F7669205A00C1
:101C10004573747275736F726532004573747275B3
:101C2000736F726531004D756F766920646920307D
:101C30002E316D6D004D756F76692064692020200E
:101C4000316D6D004D756F766920646920203130EB
:101C50006D6D004D756F7669204173736500457336
:101C6000747275736F7265004D756F7669205A00D6
:101C70004D756F76692059004D756F766920580053
:101C80004573747275736F72653200457374727543
:101C9000736F726531004573747275736F7265008E
:101CA0004D756F7669205A004D756F766920590021
:101CB0004D756F76692058005072657061726100D1
:101CC00024F4D43050C38E20C2A24017828B7011EE
:101CD000127A910D816CD90AA861E108C75866078C
:101CE000615143061E4B5D05C145A7041A4111040D
:101CF000093D9803713931034036DB0265339102A7
:101D0000D4305402802E1D02632CEE01752AC501C9
:101D1000B028A001102781018F2564012B244B01DD
:101D2000E0223401AC211F018D200D01801FFC0039
:101D3000841EED00971DDF00B81CD200E61BC60014
:101D4000201BBC00641AB200B219A8000A19A00036
:101D50006A189900D117910040178B00B5168400BE
:101D600031167E00B31579003A157300C7146F0061
:101D700058146A00EE1366008813630025135E0092
:101D8000C7125B006C12570015125400C1115100AC
:101D900070114F0021114B00D61049008D104700E3
:101DA0004610440002104200C00F4000800F3E0069
:101DB000420F3C00060F3B00CB0E3800930E37005D
:101DC0005C0E3500270E3400F30D3200C10D3100DA
:101DD000900D3000600D2E00320D2D00050D2C00F1
:101DE000D90C2B00AE0C2900850C29005C0C2700B7
:101DF000350C27000E0C2600E80B2400C40B240031
:101E0000A00B23007D0B23005A0B2100390B21006E
:101E1000180B2000F80A1F00D90A1E00BB0A1E007A
:101E20009D0A1D00800A1D00630A1C00470A1B0052
:101E30002C0A1B00110A1A00F7091A00DD09190003
:101E4000C4091900AB091900920917007B09180091
:101E5000630917004C091600360916002009160000
:101E60000A091500F5081500E0081400CC08140054
:101E7000B8081400A4081400900813007D0812008C
:101E80006B081300580812004608120034081100AD
:101E9000230811001208110001081100F0071000BA
:101EA000E0071000D0071000C0071000B0070F00B7
:101EB000A107100091070E0083070F0074070F00A1
:101EC00065070E0057070E0049070E003B070D007F
:101ED0002E070E0020070D0013070D0006070D004A
:101EE000F9060C00ED060D00E0060C00D4060C000F
:101EF000C8060C00BC060C00B0060C00A4060B00C3
:101F000099060C008D060B0082060B0077060B006D
:101F10006C060B0061060A0057060B004C060A000F
:101F200042060A0038060A002E060A0024060A00A5
:101F30001A060A001006090007060A00FD05090036
:101F4000F4050900EB050900E2050900D9050900BF
:101F5000D0050900C7050900BE050900B505080040
:101F6000AD050800A50509009C05080094050800BA
:101F70008C050800840508007C050800740508002D
:101F80006C050700650508005D050700560508009B
:101F90004E05070047050700400508003805070003
:101FA000310507002A050700230507001C05060068
:101FB000160507000F0507000805060002050700C3
:101FC000FB040600F5040700EE040600E804060022
:101FD000E2040700DB040600D5040600CF04060077
:101FE000C9040600C3040600BD040600B7040600C9
:101FF000B1040500AC040600A6040600A004050018
:102000009B04060095040500900406008A04050060
:1020100085040500800406007A04050075040500A7
:10202000700405006B0405006604050061040500EA
:102030005C04050057040500520405004D0405002A
:1020400048040500430405003E0404003A0405006A
:1020500035040500300404002C04050027040400A6
:10206000230405001E0404001A04040016040500DD
:10207000110404000D040400090405000404040014
:1020800000040400FC030400F8030400F40304004B
:10209000F0030400EC030400E8030400E40304007C
:1020A000E0030400DC030400D8030400D4030400AC
:1020B000D0030400CC030400C8030300C5030300DD
:1020C00024F404D9201BC40C5C0E9804C4095F02DC
:1020D00065077101F405F900FB04B30048048700AB
:1020E000C10369005803550003034500BE023A00CE
:1020F0008402310053022A00290225000402200034
:10210000E4011C00C8011900AF0117009801140078
:1021100084011300710110006101100051010E00D3
:1021200043010D0036010B002B010B0020010B00B9
:10213000150109000C01090003010800FB0008005B
:10214000F3000800EB000700E4000600DE000600D4
:10215000D8000600D2000600CC000500C70005002C
:10216000C2000500BD000400B9000400B500040071
:10217000B1000400AD000400A9000400A5000300A4
:10218000A20003009F0004009B00030098000300CE
:102190009500020093000300900003008D000200F0
:1021A0008B00030088000200860002008400030008
:1021B000810002007F0002007D0002007B0002001F
:1021C000790002007700010076000200740002002E
:1021D00072000100710002006F0002006D0001003A
:1021E0006C0002006A000100690002006700010043
:1021F0006600010065000100640002006200010049
:1022000061000100600001005F0002005D0001004C
:102210005C0001005B0001005A0001005900010050
:102220005800010057000100560001005500010050
:10223000540001005300000053000100520001004F
:1022400051000100500001004F0001004E0000004D
:102250004E0001004D0001004C0001004B00000049
:102260004B0001004A000100490001004800000045
:102270004800010047000100460000004600010040
:10228000450000004500010044000100430000003B
:102290004300010042000000420001004100000034
:1022A00041000100400001003F0000003F0001002C
:1022B0003E0000003E0001003D0000003D00010026
:1022C0003C0000003C0000003C0001003B0000001E
:1022D0003B0001003A0000003A0001003900000014
:1022E000390001003800000038000000380001000B
:1022F0003700000037000100360000003600000003
:1023000036000100350000003500000035000100F6
:1023100034000000340000003400010033000000ED
:1023200033000000330001003200000032000000E2
:1023300032000100310000003100000031000100D6
:102340003000000030000000300001002F000000CD
:102350002F0000002F0000002F0001002E000000C1
:102360002E0000002E0001002D0000002D000000B6
:102370002D0000002D0001002C0000002C000000AA
:102380002C0000002C0001002B0000002B0000009E
:102390002B0000002B0001002A0000002A00000092
:1023A0002A0000002A000100290000002900000086
:1023B0002900000029000000290001002800000079
:1023C000280000002800000028000000280001006C
:1023D0002700000027000000270000002700000061
:1023E0002700010026000000260000002600000053
:1023F0002600000026000100250000002500000046
:102400002500000025000000250000002500010037
:10241000240000002400000024000000240000002C
:10242000240001002300000023000000230000001E
:10243000230000002300000023000000230001000F
:102440002200000022000000220000002200000004
:1024500022000000220001002100000021000000F5
:1024600021000000210000002100000021000000E8
:1024700021000100200000002000000020000000DA
:1024800020000000200000002000000020000000CC
:10249000200001001F0000001F0000001F000000BE
:1024A0001F0000001F0000001F0000001F000100AF
:1024B0001E0000001E0000001E0000001E000000A4
:1024C0004D383420582059205A20450050726F62F0
:1024D000696E67206661696C65640A0050726F629C
:1024E000696E67206661696C656400205A3A200055
:1024F00020593A200042656420583A2000486F6D08
:102500006520257325732573207072696D61002025
:102510007072696D610A005A0059005800486F6D69
:1025200065200057726974696E6720746F20666950
:102530006C653A20006F70656E206661696C656439
:102540002C2046696C653A20006F70656E206661CC
:10255000696C65642C2046696C653A200046696C9C
:10256000652073656C65637465640A002053697A3D
:10257000653A200046696C65206F70656E65643A47
:1025800020006F70656E206661696C65642C204662
:10259000696C653A20002066696C653A2000646FBA
:1025A000696E67006672657368004E6F772000453C
:1025B0004E4420535542524F5554494E450A00222D
:1025C00020706F73002220706172656E743A220071
:1025D000535542524F5554494E452043414C4C208F
:1025E0007461726765743A220055434349534F2E14
:1025F0002000747279696E6720746F2063616C6C5F
:10260000207375622D67636F64652066696C6573FE
:10261000207769746820746F6F206D616E79206C0B
:102620006576656C732E204D4158206C6576656C1F
:102630002069733A0000060900FE07019203212079
:10264000FFFF08FF07FF0000000600000107070664
:10265000020080808080800080030202060105A0C5
:10266000A00507070600005050F850F85050050725
:10267000070600002078A07028F020050707060054
:1026800000C0C81020409818050707060000609099
:10269000A040A89068020303060104C0408003071D
:1026A00007060100204080808040200307070601C4
:1026B000008040202020408005050506000120A85C
:1026C00070A8200505050600012020F8202002033F
:1026D000030602FFC04080050101060003F8020264
:1026E00002060200C0C005050506000108102040D2
:1026F00080050707060000708888888888700307AF
:102700000706010040C040404040E00507070600C2
:1027100000708808708080F8050707060000F81030
:1027200020100808F005070706000010305090F848
:102730001010050707060000F880F00808887005EB
:102740000707060000708080F0888870050707067C
:102750000000F80810202020200507070600007060
:102760008888708888700507070600007088887858
:10277000080870020505060200C0C000C0C00206BD
:10278000060602FFC0C000C0408004070706000024
:1027900010204080402010050303060002F800F8D6
:1027A000040707060100804020102040800507072D
:1027B00006000070880810200020050707060000AA
:1027C00070880868A8A87005070706000070888848
:1027D000F8888888050707060000F08888F0888850
:1027E000F005070706000070888080808870050764
:1027F00007060000F08888888888F005070706002B
:1028000000F88080F08080F8050707060000F88057
:1028100080F0808080050707060000708880B888F7
:102820008870050707060000888888F8888888016E
:1028300007070602008080808080808005070706E9
:10284000000038101010109060050707060000887F
:1028500090A0C0A0908805070706000080808080B7
:102860008080F805070706000088D8A8888888882F
:102870000507070600008888C8A898888805070704
:1028800006000070888888888870050707060000A1
:10289000F08888F08080800507070600007088882F
:1028A00088A89068050707060000F08888F0A090C7
:1028B00088050707060000788080700808F0050783
:1028C00007060000F820202020202005070706002A
:1028D000008888888888887005070706000088882F
:1028E000888888502005070706000088888888881F
:1028F000A8500507070600008888502050888805E2
:102900000707060000888888502020200507070652
:102910000000F80810204080F8030707060100E0D7
:102920008080808080E00505050600018040201041
:1029300008030707060100E02020202020E005030F
:1029400003060004205088050101060000F8020279
:10295000020602058040050505060000700878881B
:10296000780507070600008080B0C88888F0050554
:1029700005060000708080887005070706000008C3
:102980000868988888780505050600007088F88032
:10299000700507070600003048E04040404005064B
:1029A000060600FF70888878087005070706000093
:1029B0008080B0C8888888010707060200800080F0
:1029C000808080800308080601FF2000202020204E
:1029D000A040040707060000808090A0C0A09003DC
:1029E0000707060100C04040404040E005050506DD
:1029F0000000D0A8A8A8A8050505060000B0C88852
:102A00008888050505060000708888887005060618
:102A10000600FFF08888F080800506060600FF7833
:102A20008888780808050505060000B0C880808001
:102A300005050506000070807008F0040707060011
:102A4000004040E040404030050505060000888811
:102A500088986805050506000088888850200505C7
:102A6000050600008888A8A850050505060000880E
:102A7000502050880506060600FF88888878087070
:102A8000050505060000F8102040F80307070601B9
:102A9000002040408040402001070706020080805F
:102AA000808080808003070706010080404020402E
:102AB0004080050202060002689000000006000047
:102AC00000000006000000000006000000000006F4
:102AD00000000000000600000000000600000000EA
:102AE00000060000000000060000000000060000D4
:102AF00000000006000000000006000000000006C4
:102B000000000000000600000000000600000000B9
:102B100000060000000000060000000000060000A3
:102B20000000000600000000000600000000000693
:102B30000000000000060000000000060000000089
:102B40000006000000000006000000000006000073
:102B50000000000600000000000600000000000663
:102B60000000000000060000000000060000000059
:102B70000006000000000006000000000006000043
:102B800000000006000001070706020080008080A8
:102B90008080800507070600002070A8A0A870208C
:102BA000050707060000304040E04050A805050535
:102BB00006000088705070880507070600008850DE
:102BC00020F820F82001070706020080808000809E
:102BD0008080050808060000304820505020906092
:102BE000030101060107A0050707060000F888B8E1
:102BF000B8B888F8050707060001700878887800DB
:102C0000F80505050600012850A050280503030615
:102C10000001F808080202020602064080050707C4
:102C2000060000F888A88898A8F8050101060006A3
:102C3000F80404040600036090906005070706008E
:102C4000002020F8202000F804050506000360900D
:102C50002040F0030505060003E020E020E002022A
:102C60000206020640800508080600FF888888885A
:102C700098E880800507070600007898987818186B
:102C800018020202060202C0C00202020602FF404F
:102C90008003050506000340C04040E00507070625
:102CA0000001708888887000F8050505060001A0FD
:102CB000502850A00507070600008890A858B808BB
:102CC000080507070600008890B8489820380508CE
:102CD00008060000C040C048D838080805070706A5
:102CE0000000200020408088700508080600004091
:102CF00020007088F8888805080806000010200069
:102D00007088F88888050808060000205000708840
:102D1000F888880508080600006890007088F88820
:102D2000880508080600005000708888F888880523
:102D300008080600002050207088F88888050707DA
:102D40000600003860A0B8E0A0B80508080600FF3B
:102D50007088808088702060050808060000402088
:102D600000F880F080F8050808060000081000F858
:102D700080F080F8050808060000205000F880F078
:102D800080F80507070600005000F880F080F8037F
:102D90000808060100804000E0404040E0030808C9
:102DA000060100204000E0404040E0030808060122
:102DB0000040A000E0404040E0030707060100A0FB
:102DC00000E0404040E0050707060000704848E882
:102DD00048487005080806000068900088C8A89850
:102DE00088050808060000402070888888887005DB
:102DF0000808060000102070888888887005080878
:102E000006000020500070888888700508080600B9
:102E100000689000708888887005080806000050D7
:102E20000070888888887005050506000188502094
:102E300050880508080600FF1070A8A8A8A87040D0
:102E400005080806000040208888888888700508E2
:102E50000806000010208888888888700508080601
:102E60000000205000888888887005080806000047
:102E7000500088888888887005080806000010209F
:102E80008850202020200509090600FFC040704816
:102E900048704040E00408080601FF609090A09050
:102EA00090E080050808060000402000700878883F
:102EB000780508080600001020007008788878055A
:102EC0000808060000205000700878887805080877
:102ED00006000068900070087888780507070600EB
:102EE0000050007008788878050808060000205017
:102EF000207008788878050606060000D02878A09B
:102F0000A8500506060600FF70808870206005083E
:102F1000080600004020007088F880700508080648
:102F200000001020007088F8807005080806000076
:102F30002050007088F880700507070600005000D8
:102F40007088F8807003080806010080400040C0C7
:102F50004040E003080806010020400040C0404017
:102F6000E003080806010040A00040C04040E00324
:102F70000707060100A00040C04040E00507070623
:102F80000000A040A01078887005080806000068BE
:102F90009000B0C888888805080806000040200016
:102FA0007088888870050808060000102000708866
:102FB00088887005080806000020500070888888FE
:102FC0007005080806000068900070888888700501
:102FD0000707060000500070888888700505050600
:102FE00000012000F800200507070600FF1070A868
:102FF000A8A87040050808060000402000888888BE
:1030000098680508080600001020008888889868DD
:103010000508080600002050008888889868050781
:10302000070600005000888888986805090906008E
:10303000FF102000888888F808700407070601FF41
:10304000C04060506040E00508080600FF5000885E
:10305000888878087000002100240027002A002DAD
:10306000003000330001010000040107010A0100E3
:10307000002200250028002B002E00310034000221
:10308000010000050108010B0164656C6C6120738F
:1030900074616D7061006C6120726970726573613A
:1030A00000417474656E64657265005354414D50FF
:1030B0004120494E20504155534100534420436123
:1030C00072642072696D6F737361005344204361B1
:1030D000726420696E73657269746100426162791D
:1030E00073746570205A004D3630302042300043F2
:1030F000616D6269612066696C616D656E746F00F7
:103100004261627973746570205A00466C757373FE
:103110006F203200466C7573736F203200466C75F9
:1031200073736F203200466C7573736F20310046E5
:103130006C7573736F203100466C7573736F20313B
:1031400000466C7573736F00466C7573736F004641
:103150006C7573736F0056656C6F636974C3A020E0
:1031600076656E746F6C610056656C6F636974C3CD
:10317000A02076656E746F6C610056656C6F636934
:1031800074C3A02076656E746F6C610050696174C1
:10319000746F0050696174746F0050696174746F6A
:1031A000005567656C6C6F2032005567656C6C6FFD
:1031B0002032005567656C6C6F2032005567656C76
:1031C0006C6F2031005567656C6C6F20310055675E
:1031D000656C6C6F20310056656C6F636974C3A0B9
:1031E0000056656C6F636974C3A00056656C6F63AD
:1031F0006974C3A0004D656E75207072696E636955
:1032000070616C6500507265726973632E504C4139
:1032100020547574746F00507265726973632E5018
:103220004C41205567656C6C6F20453200507265CB
:10323000726973632E504C4120320050726572697E
:1032400073632E504C41205567656C6C6F2045317F
:1032500000507265726973632E504C412050696151
:1032600074746F00507265726973632E504C412004
:1032700031005072657061726100507265726973DD
:10328000632E41425320547574746F0050726572FE
:103290006973632E414253205567656C6C6F2045FE
:1032A0003200507265726973632E414253203200BE
:1032B000507265726973632E414253205567656C85
:1032C0006C6F20453100507265726973632E414204
:1032D000532050696174746F005072657269736332
:1032E0002E41425320310050726570617261002995
:1032F0000A002062797465733B2063726320005377
:10330000657474696E67732053746F7265642028E6
:1033100000202863616C63756C6174656429210AFF
:103320000020213D2000454550524F4D204352433F
:10333000206D69736D61746368202D202873746F2C
:10334000726564292000290A002062797465733B44
:103350002063726320002073746F7265642073654C
:103360007474696E677320726574726965766564DA
:10337000202800204D61726C696E3D563530290A57
:103380000028454550524F4D3D00454550524F4D48
:103390002076657273696F6E206D69736D617463F9
:1033A00068200048617264636F64656420446566E8
:1033B00061756C742053657474696E6773204C6F0B
:1033C000616465640A00D007000090010000640099
:1033D000000088130000000016430000C8420000EF
:1033E0000041000048420000A0420000A04200004E
:1033F000C8430000A04220204D383531205A005AE1
:103400002D50726F6265204F666673657420286D5B
:103410006D293A0A0020440020490020204D333015
:103420003120500020440020490020500020204D31
:103430003330312045005049442073657474696EFF
:1034400067733A0A002046002042002048002020EE
:103450004D3134352053004D6174657269616C20C3
:1034600068656174757020706172616D65746572F4
:10347000733A0A00205A0020204D36363600456E39
:103480006473746F702061646A7573746D656E74B3
:103490003A0A0020204D3432302053004175746FB9
:1034A00020426564204C6576656C696E673A0A0057
:1034B00020590020580020204D3231382054004837
:1034C0006F74656E64206F6666736574733A0A0084
:1034D000204500205A00205900205800204200209A
:1034E000540020204D323035205300416476616E07
:1034F0006365643A20533C6D696E5F66656564720E
:103500006174653E20543C6D696E5F7472617665CE
:103510006C5F66656564726174653E20423C6D69EE
:103520006E5F7365676D656E745F74696D655F75F9
:10353000733E20583C6D61785F78795F6A65726B85
:103540003E205A3C6D61785F7A5F6A65726B3E20FF
:10355000453C6D61785F655F6A65726B3E0A00206D
:10356000540020520020204D32303420500041635E
:1035700063656C65726174696F6E2028756E69741D
:10358000732F7332293A20503C7072696E745F61F8
:103590006363656C3E20523C726574726163745F54
:1035A000616363656C3E20543C74726176656C5F48
:1035B000616363656C3E0A00204500205A00205973
:1035C0000020204D3230312058004D6178696D75F2
:1035D0006D20416363656C65726174696F6E20284C
:1035E000756E6974732F7332293A0A0020450020E2
:1035F0005A0020590020204D3230332058004D61B0
:1036000078696D756D206665656472617465732097
:1036100028756E6974732F73293A0A0020450020BB
:103620005A0020590020204D39322058005374652B
:1036300070732070657220756E69743A0A002020DC
:103640004D3230302044300A0020204D32303020BE
:10365000543120440020204D32303020440020449A
:10366000697361626C65640A0046696C616D656EC0
:10367000742073657474696E67733A0020204D314D
:1036800034392043203B20556E69747320696E20C5
:1036900043656C736975730A00202047323120201E
:1036A00020203B20556E69747320696E206D6D0A71
:1036B0000050617373692F6D6D004A65726B004134
:1036C0006363656C6572617A696F6E650056656CDF
:1036D0006F636974C3A0005A20454E4453544F5041
:1036E0002041646A005A20454E4453544F502041B3
:1036F000646A005A204F6666736574005A204F66EC
:1037000066736574005A204D696E20506F732E00E9
:103710005A204D696E20506F732E0059204D696EEE
:1037200020506F732E0059204D696E20506F732EFC
:103730000058204D696E20506F732E0058204D693F
:103740006E20506F732E00436F6E74726F6C6C6FCF
:103750000043616E6E6F7420656E746572207375C0
:10376000626469723A2000022E2E004D656E75204B
:103770007072696E636970616C650000546F74618A
:103780006C65206573747275736F3A2000256C64E4
:103790002E25696D00004C61766F726F207069C3D1
:1037A000B9206C756E676F3A20000054656D706FBC
:1037B00020746F74616C653A2000436F6D706C65A6
:1037C000746174693A2000436F6E7461742E2073C3
:1037D00074616D70613A200054656D70206D617880
:1037E0003A203133300054656D70206D696E3A2097
:1037F0003500544265643A3130304B203125206227
:1038000065746120333935300054656D70206D6109
:10381000783A203237350054656D70206D696E3A04
:1038200020350054313A203130304B203125206290
:1038300065746120333935300054656D70206D61D9
:10384000783A203237350054656D70206D696E3AD4
:1038500020350054303A203130304B203125206261
:10386000657461203339353000416C696D656E7463
:1038700061746F72653A2047656E657269630050C6
:10388000726F746F636F6C6C6F3A20312E30004230
:103890006175643A20313135323030005A4F4E452F
:1038A00053544152204C43443132383634005A4F3D
:1038B0004E4553544152205A5249425F56360049B0
:1038C0006E697A69616C697A7A6120454550524F18
:1038D0004D00436F6E74726F6C6C6F005269707242
:1038E000697374696E6120696D702E00436172693D
:1038F0006361206461206D656D6F72696100496E5E
:10390000697A69616C697A7A6120454550524F4DF8
:103910000053616C766120696E206D656D6F726910
:1039200061004D6F76696D656E746F0054656D70E2
:1039300065726174757261004D656E752070726993
:103940006E636970616C6500507265726973632E95
:1039500041425320636F6E660050726572697363F3
:103960002E504C4120636F6E66005049442D440038
:103970005049442D44005049442D49005049442D9C
:1039800049005049442D50005049442D5000082012
:1039900046616374000820466163740008204D612D
:1039A000780008204D61780008204D6178000820DB
:1039B0004D696E0008204D696E0008204D696E004B
:1039C0004F6666004F6E20004175746F74656D70B0
:1039D00000436F6F6C2046616E2053706565640014
:1039E000436F6F6C2046616E2053706565640056AE
:1039F000656C6F636974C3A02076656E746F6C61CB
:103A00000056656C6F636974C3A02076656E746F31
:103A10006C610056656C6F636974C3A02076656E37
:103A2000746F6C610050696174746F0050696174E7
:103A3000746F0050696174746F005567656C6C6FCA
:103A40002032005567656C6C6F2032005567656CDD
:103A50006C6F2032005567656C6C6F2031005567C4
:103A6000656C6C6F2031005567656C6C6F203100A0
:103A7000436F6E74726F6C6C6F0053616C76612073
:103A8000696E206D656D6F72696100506961747453
:103A90006F0050696174746F0050696174746F00D5
:103AA0005567656C6C6F005567656C6C6F0055678A
:103AB000656C6C6F0056656C6F636974C3A020768B
:103AC000656E746F6C610056656C6F636974C3A03A
:103AD0002076656E746F6C610056656C6F636974F7
:103AE000C3A02076656E746F6C610054656D70655F
:103AF0007261747572610053442063617264206F57
:103B00006B0A006F70656E526F6F74206661696C2E
:103B100065640A00766F6C756D652E696E69742038
:103B20006661696C65640A004572726F723A00538F
:103B30004420696E6974206661696C0A0043616E95
:103B40006E6F74206F70656E207375626469722089
:103B5000006175746F25692E670056547261762076
:103B60006D696E005654726176206D696E00565410
:103B7000726176206D696E00566D696E00566D69D2
:103B80006E00566D696E00566D6178204500566D69
:103B90006178204500566D6178204500566D61784A
:103BA000205A00566D6178205A00566D6178205A6F
:103BB00000566D6178205900566D61782059005685
:103BC0006D6178205900566D6178205800566D61FE
:103BD00078205800566D61782058004D6F76696DD9
:103BE000656E746F00416D6178204500416D6178AC
:103BF000204500416D6178205A00416D6178205A5E
:103C000000416D6178205900416D61782059004173
:103C10006D6178205800416D6178205800412D5326
:103C2000706F7374616D656E746F00412D53706FAA
:103C30007374616D656E746F00412D72657472618D
:103C4000637400412D726574726163740041636333
:103C5000656C00416363656C004D6F76696D656EE0
:103C6000746F0056652D6A65726B0056652D6A6526
:103C7000726B0056652D6A65726B00567A2D6A6507
:103C8000726B00567A2D6A65726B0056792D6A65E3
:103C9000726B0056792D6A65726B0056792D6A65D4
:103CA000726B0056782D6A65726B0056782D6A65C6
:103CB000726B0056782D6A65726B004D6F76696D78
:103CC000656E746F004570617373692F6D6D00458B
:103CD00070617373692F6D6D005A70617373692F12
:103CE0006D6D005A70617373692F6D6D005970614D
:103CF0007373692F6D6D005970617373692F6D6DEA
:103D0000005870617373692F6D6D00587061737323
:103D1000692F6D6D004D6F76696D656E746F007CF7
:103D20003C3E5E2B3D3F2F5B5D3B2C2A225C0046D8
:103D3000696C652064656C657465643A0044656C03
:103D40006574696F6E206661696C65642C204669D4
:103D50006C653A20006F70656E206661696C656401
:103D60002C2046696C653A20006D0046696C616DD7
:103D7000656E7420757365643A20005374617473C2
:103D80003A20002C204C6F6E67657374206A6F6256
:103D90003A2000546F74616C2074696D653A20009C
:103DA00053746174733A20002C204661696C656419
:103DB0003A20002C2046696E69736865643A2000D9
:103DC0005072696E74733A200053746174733A20B0
:103DD00000526973632E20636F6D706C657461743B
:103DE0006F0020573A0045256920257300457272FF
:103DF0006F722077726974696E6720746F20454511
:103E000050524F4D210A006563686F3A004D3234BD
:103E1000004D32332025730066696C616D656E74E8
:103E20003A20007A5F70726F62653A20007A325FE2
:103E30006D696E3A20007A5F6D696E3A2000795F95
:103E40006D696E3A2000785F6D696E3A20005265A8
:103E5000706F7274696E6720656E6473746F702022
:103E60007374617475730A00060606060600000086
:103E700000006265640A002C2073797374656D20FC
:103E800073746F7070656421204865617465725F3A
:103E900049443A200054454D502046554F52492040
:103EA000434F4E54524F4C4C4F00546865726D61F5
:103EB0006C2052756E617761790052697363616C31
:103EC000642E2046616C6C69746F0048656174698A
:103ED0006E67206661696C6564001000AA0380004B
:103EE000400100012C01B001220140021001F0024A
:103EF00002018003F8004004F500E004ED009005A5
:103F0000E4003006DD00E006D7008007D10030086D
:103F1000CC00D008C7007009C300100ABE00B00A68
:103F2000BB00500BB700900CB300D00DAA00B00F2F
:103F3000A5005010A00010149600901690001019C3
:103F40008C00501A8500301C820070227800B0234B
:103F5000750040256E0020276900A0296400502AC2
:103F60005F00902B5A00D02C5500702D4F00E02E92
:103F700048005031450030334100D03539006036BB
:103F8000370010373300F0382D00A0392700803C6F
:103F90001C00403D1700F03D1100803E0900D03F5D
:103FA000E5FF00060900FE0000000000010900080E
:103FB000FE000005080806000040F0C888889878D0
:103FC00010050808060000C0F88888888888F80569
:103FD00005050600012030F830200508080600001D
:103FE0002070F820202020E00509090600FF20703D
:103FF000A8A8B8888870200509090600FFE080C0DD
:10400000B0A8283028280509090600FFF8A88888E4
:10401000888888A8F8050A0A0600FE2050505050EB
:1040200088A8A8887003030306000340A040FF008F
:10403000F70011241FBECFEFD1E2DEBFCDBF00E0FD
:104040000CBF13E0A0E0B2E0EAECF1E602E00BBF47
:1040500002C007900D92A63CB107D9F725E1A6EC66
:10406000B3E001C01D92AB30B207E1F710E2C8E146
:10407000D0E200E006C021970109802FFE010F94D5
:104080003C30C731D10780E00807A9F70F9400182A
:104090000D94D4300C9400002F923F924F925F9277
:1040A0006F927F928F929F92AF92BF92CF92DF9248
:1040B000EF92FF920F931F93CF93DF93CDB7DEB7AD
:1040C000C356D1090FB6F894DEBF0FBECDBF8091A5
:1040D00075048D3409F4C2C6843511F40C94EA34A5
:1040E000873421F0E7E0FEE30C941C352090730444
:1040F000309074042BE12216310409F4B5C59CF408
:1041000044E02416310444F452E025163104DCF571
:1041100037FE32C00C94343584E02816310409F49B
:1041200074C50C9434359EE12916310409F4D1C5C7
:104130007CF4BCE12B16310409F4C6C5EDE12E1662
:10414000310411F00C9434350E94E6460C94343559
:10415000FBE52F16310409F42BC62CE52216310499
:1041600009F42BC63AE52316310411F00C943435CA
:104170001092CA030C94343580918E0281110C94F4
:1041800037350C94343580918E02882311F40C94C9
:1041900034350E94744482E50E94C53E882309F4A8
:1041A0003EC10E94633E4B015C0120E030E0A9016A
:1041B0000F94CA28882309F462C18091AF0C9091B2
:1041C000B00CA091B10CB091B20C88AB99ABAAAB7A
:1041D000BBAB2091B30C3091B40C4091B50C509115
:1041E000B60C2CAB3DAB4EAB5FAB8091A005909174
:1041F000A105A091A205B091A30524968CAF9DAF17
:10420000AEAFBFAF24972091A4053091A505409192
:10421000A6055091A70528AF39AF4AAF5BAF9C0107
:10422000AD0168A979A98AA99BA90F94CA2881110F
:104230000DC028AD39AD4AAD5BAD6CA97DA98EA985
:104240009FA90F94CA28882309F419C111E032E00C
:104250002316310409F010E020E030E0A901C50187
:10426000B4010F94CA28881F8827881F181759F08F
:1042700080E090E0A0E8BFEB2C968CAF9DAFAEAF96
:10428000BFAF2C970AC020E030E040E85FE32C96F7
:104290002CAF3DAF4EAF5FAF2C9728A939A94AA9E3
:1042A0005BA924966CAD7DAD8EAD9FAD24970F9428
:1042B000242D6CAF7DAF8EAF9FAF2CA93DA94EA929
:1042C0005FA968AD79AD8AAD9BAD0F94242D6B01CC
:1042D0007C012CAD3DAD4EAD5FADCA01B9010F946F
:1042E0002F292B013C01A7019601C701B6010F94AC
:1042F0002F299B01AC01C301B2010F94252D0F940E
:10430000902F28966CAF7DAF8EAF9FAF289720E09F
:1043100030E040E05FE30F942F292B013C01A50121
:104320009401C501B4010F942F294B015C01A30135
:104330009201C301B2010F942F299B01AC01C50169
:10434000B4010F94242D0F94902F2C962CAD3DADDD
:104350004EAD5FAD2C970F942F294B015C01C70127
:10436000B601905828962CAD3DAD4EAD5FAD289767
:104370000F94012EA50194010F942F296B017C014C
:1043800024962CAD3DAD4EAD5FAD249768A979A9BB
:104390008AA99BA90F94252D20E030E040E05FE33F
:1043A0000F942F299B01AC01C701B6010F94252D55
:1043B00028A939A94AA95BA90F94242D6B017C0176
:1043C00028AD39AD4AAD5BAD6CA97DA98EA99FA979
:1043D0000F94252D20E030E040E05FE30F942F297B
:1043E0002B013C0128962CAD3DAD4EAD5FAD28971D
:1043F0006CAD7DAD8EAD9FAD0F94012EA5019401E6
:104400000F942F299B01AC01C301B2010F94252DFC
:104410002CA93DA94EA95FA90F94242D14C089E4AD
:104420000E94C53E882329F00E94633E6B017C01F7
:1044300003C0C12CD12C76018AE40E94C53E88239A
:1044400009F10E94633E24966CAF7DAF8EAF9FAFA3
:10445000249720E030E0A901C701B6010F94CA28D3
:1044600081111FC020E030E0A90124966CAD7DAD24
:104470008EAD9FAD24970F94CA28811112C0E8E237
:10448000FBE3AFC320E030E0A901C701B6010F9400
:10449000CA288823A1F324961CAE1DAE1EAE1FAE03
:1044A0002497D701C601B05888AB99ABAAABBBAB78
:1044B00024962CAD3DAD4EAD5FAD249750582CAB3E
:1044C0003DAB4EAB5FAB9C01AD01BC01CD010F9488
:1044D0002F294B015C012CA93DA94EA95FA9CA0156
:1044E000B9010F942F299B01AC01C501B4010F94B0
:1044F000252D0F94902F6C966CAF7DAF8EAF9FAF34
:104500006C978091AF0C9091B00CA091B10CB091D0
:10451000B20C88AF99AFAAAFBBAFA7019601BC019F
:10452000CD010F94252D2C966CAF7DAF8EAF9FAF34
:104530002C972091B30C3091B40C4091B50C509154
:10454000B60C28962CAF3DAF4EAF5FAF28972496A0
:104550002CAD3DAD4EAD5FAD249728966CAD7DADD5
:104560008EAD9FAD28970F94252D60966CAF7DAFD3
:104570008EAF9FAF60978091A0059091A105A0910B
:10458000A205B091A30564968CAF9DAFAEAFBFAF4F
:1045900064972C962CAD3DAD4EAD5FAD2C97BC0114
:1045A000CD010F94242D6B017C012091A405309145
:1045B000A5054091A6055091A70568962CAF3DAF83
:1045C0004EAF5FAF689760962CAD3DAD4EAD5FAD21
:1045D000609768966CAD7DAD8EAD9FAD68970F947A
:1045E000242D4B015C018091B70C9091B80CA091E7
:1045F000B90CB091BA0CA0968CAF9DAFAEAFBFAF67
:10460000A0979C01AD016091A8057091A9058091CA
:10461000AA059091AB050F94242D6CAF7DAF8EAFA2
:104620009FAFA701960168A979A98AA99BA90F94B0
:104630002F292B013C01A50194016CA97DA98EA90C
:104640009FA90F942F299B01AC01C301B2010F94C4
:10465000252D2B013C01A501940168A979A98AA9FE
:104660009BA90F942F294B015C01A70196016CA90E
:104670007DA98EA99FA90F942F299B01AC01C5018B
:10468000B4010F94242DA30192010F94982D6B0176
:104690007C0120E030E0A9010F94CA2887FF0AC0FE
:1046A0002BED3FE049EC50E4C701B6010F94252DF6
:1046B0006B017C0192E02916310451F42BED3FE0AF
:1046C00049EC50E4C701B6010F94242D6B017C0125
:1046D00020E030E0A901C701B6010F94CA2881117A
:1046E00026C064962CAD3DAD4EAD5FAD649768AD10
:1046F00079AD8AAD9BAD0F94CA28811118C0689618
:104700002CAD3DAD4EAD5FAD689728966CAD7DADDF
:104710008EAD9FAD28970F94CA28811108C07BEDFC
:10472000C72E7FE0D72E79ECE72E70E4F72EA70195
:1047300096016C966CAD7DAD8EAD9FAD6C970F9470
:104740002F299B01AC010F942F294B015C012CAD4B
:104750003DAD4EAD5FADCA01B9010F942F299B014C
:10476000AC01C501B4010F94252D0F94902F4B017E
:104770005C012FE632E143E85AE30F94CA2887FD33
:1047800029C2C501B4010F949A2E0F946E2E26965D
:104790007FAF6EAF2697DB01AB2B31F4E1E0F0E0A9
:1047A0002696FFAFEEAF26974090BB0C5090BC0C06
:1047B0006090BD0C7090BE0C26962EAD3FAD269736
:1047C000B90180E090E00F94CE284B015C019B0181
:1047D000AC01C701B6010F94012E68AF79AF8AAF63
:1047E0009BAFA50194016CAD7DAD8EAD9FAD0F94D7
:1047F000012E6C966CAF7DAF8EAF9FAF6C97A3010F
:1048000092016091AC057091AD058091AE059091DB
:10481000AF050F94242DA50194010F94012EA496A9
:104820006CAF7DAF8EAF9FAFA49728AD39AD4AADC9
:104830005BADCA01B9010F942F2920E030E040E0C0
:104840005FE30F942F299B01AC0160E070E080E8EA
:104850009FE30F94242D64966CAF7DAF8EAF9FAF16
:104860006497A0968CAD9DADAEADBFADA097898786
:104870009A87AB87BC874D865E866F86788A609103
:10488000330270913402072E000C880B990B0F94A1
:10489000D02820911F023091200240912102509196
:1048A00022020F942F292AE037ED43E25CE30F94B4
:1048B0002F296CA77DA78EA79FA70E949AAB9B016B
:1048C000AC0128533F4F4F4F5F4F68962CAF3DAF21
:1048D0004EAF5FAF689748A859A86AA87BA8222462
:1048E0002394312C39E13CAF26964EAD5FAD26972F
:1048F0004215530509F433C10F941D100E949AAB61
:10490000DC01CB0168962CAD3DAD4EAD5FAD689737
:10491000821B930BA40BB50BB7FD11C00E949AAB81
:104920009B01AC0128533F4F4F4F5F4F68962CAF10
:104930003DAF4EAF5FAF689780E00E94A8573CAD97
:1049400031503CAF332309F441C02CA93DA94EA9F5
:104950005FA964966CAD7DAD8EAD9FAD64970F94ED
:104960002F296B017C019201A30168AD79AD8AAD5D
:104970009BAD0F942F29A70196010F94252D6B0154
:104980007C019201A30164966CAD7DAD8EAD9FADAF
:1049900064970F942F294B015C012CA93DA94EA9C6
:1049A0005FA968AD79AD8AAD9BAD0F942F299B01AE
:1049B000AC01C501B4010F94242D2B013C01C601AB
:1049C000D7018CAB9DABAEABBFAB51C0B10180E0AA
:1049D00090E00F94CE2828AD39AD4AAD5BAD0F9471
:1049E0002F294B015C010F94FE2D6B017C01C50149
:1049F000B4010F94862F4B015C01A701960168A9B1
:104A000079A98AA99BA90F942F292B013C012496EF
:104A10002CAD3DAD4EAD5FAD2497C501B4010F94F3
:104A20002F29A30192010F94252D2B013C01A501F3
:104A3000940168A979A98AA99BA90F942F294B01F0
:104A40005C0124962CAD3DAD4EAD5FAD2497C70102
:104A5000B6010F942F299B01AC01C501B4010F943D
:104A6000242D6CAB7DAB8EAB9FAB49E14CAF92017B
:104A7000A3012C966CAD7DAD8EAD9FAD2C970F94A0
:104A8000252D69837A838B839C832CA93DA94EA90C
:104A90005FA960966CAD7DAD8EAD9FAD60970F94B4
:104AA000252D6D837E838F8398876C962CAD3DADCD
:104AB0004EAD5FAD6C9769857A858B859C850F942B
:104AC000252D69877A878B879C87A4962CAD3DAD71
:104AD0004EAD5FADA4976D857E858F8598890F94C7
:104AE000252D6D877E878F87988B8091190288236B
:104AF00021F0CE0101960E94FF7EE0909907898106
:104B00009A81AB81BC8188A399A3AAA3BBA38D8101
:104B10009E81AF81B8858CA39DA3AEA3BFA38985D9
:104B20009A85AB85BC8588A799A7AAA7BBA7CE0104
:104B300080960E94DF3F8E01045D1F4F9E01235F20
:104B40003F4FAE01485D5F4FBE016C5D7F4FCE01B0
:104B500080960E94828E5FEF251A350AC5CEE090BE
:104B600099078091A0059091A105A091A205B0910F
:104B7000A30588A399A3AAA3BBA38091A4059091A0
:104B8000A505A091A605B091A7058CA39DA3AEA3F2
:104B9000BFA38091A8059091A905A091AA05B09105
:104BA000AB0588A799A7AAA7BBA7CE0180960E94AC
:104BB000DF3F8E01045D1F4F2CEA35E0AE01485DFA
:104BC0005F4FBE016C5D7F4FCE0180960E94828E4A
:104BD0000E94F13F0E94FB3F0C9434350E94254017
:104BE000F80184918F010F5F1F4F8111F7CFEFE71D
:104BF000F2E084918F010F5F1F4F882311F40C9412
:104C000034350E942540F801F4CF80E50E94C53E6E
:104C1000882329F00E94233E6B017C0103C0C12C34
:104C2000D12C760183E50E94C53E882361F00E9465
:104C3000633E20E030E04AE754E40F942F290F94BC
:104C40006E2E6B017C010F941A1480914B0281111E
:104C500005C060E085E992E00E94ADB1C701B601F0
:104C60000E944E440C9434350E94AEA381110C94E2
:104C7000343580E090E0A0EFB1EC89839A83AB8378
:104C8000BC8380E090E0A0E2B1E48D839E83AF839B
:104C9000B88780E090E0A0EAB1E489879A87AB8783
:104CA000BC8780E50E94C53E882319F00E94333EF0
:104CB00001C060E068A3BE016F5F7F4FCE018096A8
:104CC0000F9473080C94343580E00E94F4540C94D3
:104CD0003435C090AF0CD090B00CE090B10CF09097
:104CE000B20C88E50E94C53E811109C020E030E089
:104CF00040EF51E4C701B6010F94252D02C00E9478
:104D0000633E68A379A38AA39BA3C090B30CD09001
:104D1000B40CE090B50CF090B60C89E50E94C53E4D
:104D2000811108C020E030E0A901C701B6010F944D
:104D3000252D02C00E94633E6B017C0169837A834A
:104D40008B839C8388A099A0AAA0BBA02FE632E108
:104D500043E85AEBC501B4010F944B2F87FF02C003
:104D60000C94343521E230E04BE953E4C501B40141
:104D70000F94CA28181614F40C9434352FE632E137
:104D800043E85AEBC701B6010F944B2F87FF02C0CF
:104D90000C94343521E230E04BE953E4C701B6010D
:104DA0000F94CA28181614F40C9434350C943C351E
:104DB00081E08093CA030C9434350F941A144FE9A0
:104DC000242E42E0342E5FEAE52E5CE0F52E00E072
:104DD000D12C10E0D1018D911D010E94C53E882388
:104DE00059F10E94633E2B013C01F7012081318182
:104DF000428153810F94242D4B015C012DEB37E34D
:104E000046E855EB0F944B2F87FD0AC02DEB37E397
:104E100046E855E3C501B4010F94CA28181664F496
:104E2000133011F401E002C0DD24D394D7014D9278
:104E30005D926D927C9213971F5FB4E0EB0EF11CB4
:104E4000143041F6DD2019F00E94DC3D03C0011151
:104E50000E9470A30E94EA7B0C9434358091730405
:104E6000909174048437910509F40BC60CF0F3C0DB
:104E70008B34910509F448C40CF06CC0863191055F
:104E800009F4F3C2CCF58530910509F486C25CF4CF
:104E90008330910509F479C20CF07BC2029708F4C3
:104EA000F0C10C9434358231910509F4B7C6C4F4CD
:104EB000419711F00C94343560E083EE92E00E944B
:104EC000ADB15F988A989FB7F894809108018E7F62
:104ED000809308019FBF1298479810980C9434351E
:104EE0008431910509F4CAC1459711F00C94343509
:104EF0000E9403E90C9434358B31910509F407C302
:104F00007CF48831910509F4CCC20CF4B4C2893127
:104F1000910509F4E0C24A9709F4EBC20C943435C8
:104F20008F31910509F484C364F48C31910509F43F
:104F30002BC34E9711F00C9434350E9455FC0C9401
:104F400034358032910509F429C38A9709F49CC34A
:104F50000C9434358836910509F4E6C30CF048C04A
:104F60008235910509F453C654F58D34910509F441
:104F7000D3C30CF4CDC38E34910509F4D1C381356C
:104F8000910511F00C9434350F94220E0F941A14DD
:104F90000E942A57109261051092600568EE73E036
:104FA00080E090E00E94BDB00F941A140E945E3D14
:104FB00060E081EA93E00E94ADB10C943435843511
:104FC000910509F42BC60CF425C68535910509F425
:104FD0005AC68C35910511F00C9434351FE9C12E59
:104FE00012E0D12E0FEBE02E0CE0F02E10E064C6A4
:104FF0008D36910509F4F0C49CF48A36910509F4C4
:105000000BC50CF4A8C48B36910509F42AC58C365F
:10501000910511F00C94343510920D020C94343536
:105020008037910509F473C454F48E36910509F460
:10503000CBC38F36910509F4DAC30C94343582372B
:10504000910509F4B9C68337910511F00C943435F4
:10505000E4E6F4E0B6C68232E1E09E0711F40C9477
:10506000A7320CF06FC08E3B910509F4B9C484F5EA
:105070008937910509F440C7B4F48637910509F4DE
:10508000F9C60CF4EFC68737910509F432C78837A3
:10509000910511F00C94343581E080935C1080937D
:1050A0005B100C9434358C38910509F438C434F411
:1050B0008D37910509F4FCC40C9434358139910580
:1050C00009F41FC78B39910509F45FC40C9434357A
:1050D0008D3C910511F40C940C31BCF4893C910584
:1050E00009F4F3C734F4883C910509F482C70C94A1
:1050F00034358B3C910511F40C9484308C3C910533
:1051000011F40C94A2300C9434358C3D910511F4BB
:105110000C9429325CF4833D910509F4ABC08A3DBF
:10512000910511F40C941D320C9434358D3D91058C
:1051300011F40C943632823E910511F40C947D32B8
:105140000C943435833C21E0920709F431C10CF012
:1051500046C0833641E0940709F488C0ECF48D32F0
:10516000A1E09A0711F40C94DB323CF48C329140AC
:1051700011F40C94B2320C9434358E32F1E09F0766
:1051800011F40C9479338F32914011F00C94343532
:105190000E942B770C943435823931E0930711F457
:1051A0000C94D03384F4803951E0950711F40C94B9
:1051B000CD338139914011F00C94343581E00E9457
:1051C0003F460C9434358A39B1E09B0709F4A3C3F8
:1051D000843A914011F40C94D4330C943435873FC5
:1051E000F1E09F0711F40C945B34E4F4843F31E068
:1051F000930711F40C94553434F4843C914009F431
:10520000DDC00C943435853FA1E09A0711F40C946D
:105210005834863F914011F00C9434350E9420CDD3
:105220000C9434358335E3E09E07E1F07CF4883557
:1052300022E0920711F40C94BC348A39924011F0A8
:105240000C943435E3EDF5E00C947731803A43E08B
:10525000940709F4E0C1873E934011F40C94D534CF
:105260000C943435E7E0FEE30C946A34E8E2FBE3A7
:105270000C94C234E7E0FEE30C94A031E3E0F3E0E9
:10528000B4C0A0907104B090720480E50E94C53E45
:10529000882359F00E94233E6B017C0111E0672BAB
:1052A000682B692B31F410E004C010E0C12CD12C24
:1052B000760183E50E94C53E8823F1F00E94633E9B
:1052C00020E030E04AE754E40F942F290F946E2E2B
:1052D0006B017C01111112C0672B682B692B71F4D3
:1052E000A114B10459F0D5018C91882339F061E003
:1052F000C5010E94CCB107C0112391F360E085ED98
:1053000092E00E94ADB181E08093F80C0F941A14E2
:105310000E94FB3FC114D104E104F104E1F080914B
:10532000FF0490910005A0910105B0910205C80EFF
:10533000D91EEA1EFB1E0E949AABDC01CB018C1920
:105340009D09AE09BF09B7FF1CC08091F80C8111FF
:105350000C94933516C08091F80C882321F080E0DE
:105360000E94A857F8CF80917B1090917C1060E04C
:10537000029719F486EC92E002C086EB92E00E945C
:10538000ADB11092F80C0C9434350E94EC7E0C9464
:1053900034350E94EC7E0C9434350F941A142C98FA
:1053A00068EE73E080E090E00E944E440C94343547
:1053B00010924905109248050C94343583E50E94FB
:1053C000C53E811103C01092000207C00E94433EF7
:1053D0008823C9F381E08093000281E090E09093FC
:1053E0004905809348050C94343584918F010F5FF3
:1053F0001F4F882321F00E942540F801F6CF10921C
:1054000056131092551387ED90E10E9409F38BE13A
:10541000E7EDF0E1DE01159601900D928A95E1F736
:105420008091D5109091D6109C838B838FEF92E062
:105430009A83898340E050E0BE016F5F7F4F8AEA24
:1054400093E00E94E2E5CE0101960E941F57E4EF2F
:10545000F2E084918F010F5F1F4F882311F40C94A9
:1054600034350E942540F801F4CF1092A610109216
:10547000A7100C943435E0917104F091720480818E
:10548000882329F0803209F410823196F8CF40E069
:1054900061E080917104909172040E9443A70C9482
:1054A000343519821A821B821C8218A219A21AA2F0
:1054B0001BA28091B005882341F040E0BE016F5FE0
:1054C0007F4FCE0180960E94C97D0E94D0E50E9448
:1054D00014A30C9434351092A6100E944CA484E1BD
:1054E00093E09093CE0F8093CD0F0E947D3D0C945E
:1054F00034358091A710882311F40C94343583E55A
:105500000E94C53E81110C9498350C9434358091DD
:10551000A710811103C0EBE2F3E02AC0E9E1F3E058
:1055200084918F010F5F1F4F882321F00E94254037
:10553000F801F6CF60914C1370914D1380914E138A
:1055400090914F134AE00E94CC428FE20E94254086
:10555000609148137091491380914A1390914B13B5
:105560004AE00E94CC428AE00E9425400C943435E7
:1055700084918F010F5F1F4F882311F40C943435F1
:105580000E942540F801F4CF40E060E08091710472
:10559000909172040E9443A70C9434358091A61018
:1055A00081110F941A148091A710882311F40C9480
:1055B000343580E50E94C53E882319F00E94543E90
:1055C00003C080E50E94963E182F482F61E080912D
:1055D0007104909172040E9443A783E50E94C53E26
:1055E000882381F00E94333EAB01BC0140934C13F1
:1055F00050934D1360934E1370934F138BE992E1C8
:105600000F9445010E94D0E511110C9434350E948D
:1056100014A30C943435809171049091720421E0AC
:105620002093A51040E060E00E9443A70C9434351D
:105630008BE790E10F94A51368A379A38AA39BA39A
:10564000BE016F5F7F4FCE0180960E94D13E60E029
:10565000CE0101960E94CCB1E7E0FEE384918F0178
:105660000F5F1F4F882321F00E942540F801F6CFDD
:10567000BE016F5F7F4F8CE393E00E94F3A18AE04D
:105680000E9425400C94343583E50E94C53E882352
:1056900011F40C9434350E94433EE82E80E50E94BC
:1056A000C53E882341F00E94333E8B0177FF02C044
:1056B0000C94343502C00DE010E0802FEAE3F6E0F0
:1056C0009491891303C0E8E2FBE30AC03196B6E087
:1056D000ED36FB07A9F70C94A9350E942540F80187
:1056E00084918F010F5F1F4F8111F7CFE9E4F3E041
:1056F00084918F010F5F1F4F882311F40C94343570
:105700000E942540F801F4CF0E9414A30C94343574
:105710000E944CA40C9434350F94A3030C9434359C
:105720000E9417FA0C94343588E690E00E943743C3
:1057300081110C9434358091120D83FF02C00C94BA
:10574000343583E50E94C53E8823D1F10E94633E33
:10575000F0904E050F2D10E0000F111F095A124F47
:105760000F94692EF801718360838F2D0F94CB0DF8
:105770000E94633E00914E0510E0F801EE0FFF1FFE
:10578000EE0FFF1FE059FA4F208131814281538192
:105790000F944B2F1816A4F48BE293E09F938F93F2
:1057A0000F5F1F4F1F930F9388E593E09F938F9395
:1057B0001F920F9475030FB6F894DEBF0FBECDBFD6
:1057C0000E947EA20C9434358EE40E94C53E88234C
:1057D00011F40C9434350E94333E6093D10C7093D5
:1057E000D20C8093D30C9093D40C0C94343583E575
:1057F0000E94963E882359F083E50E94C53E882387
:1058000019F00E94433E01C080E08093120DE7E052
:10581000FEE384918F010F5F1F4F811103C0EDE6FE
:10582000F3E004C00E942540F801F3CF84918F017A
:105830000F5F1F4F882321F00E942540F801F6CF0B
:105840008091120D811103C0E9E6F3E034C08FE5C9
:10585000C82E83E0D82EE12CF12C20E08091120D8F
:1058600090E00E2C02C0959587950A94E2F780FF90
:1058700017C0BB24B394B20E222319F08CE20E940D
:105880002540F60185919491FC0184918F010F5F71
:105890001F4F882321F00E942540F801F6CF2B2DC1
:1058A0003FEFE31AF30A42E0C40ED11C55E0E516BF
:1058B000F104A1F627C084918F010F5F1F4F882349
:1058C00009F10E942540F801F6CF03E21DE080E2D5
:1058D0000E942540D8016D917D918D919D918D0102
:1058E00042E00E948D438CE20E942540F8016481D1
:1058F00075818681978142E00E948D43FDE00B32E5
:105900001F0729F78AE00E9425400C94343584E76C
:1059100093E00E943B570E94F2760C9434358091BC
:10592000120D83FF02C00C94343583E50E94C53EFE
:10593000882311F40C9434350E94633E0F94692E31
:105940006338710514F062E870E07093560D60934F
:10595000550D0C94343589E690E00E94374381114F
:105960000C94D537EDE7F3E084918F010F5F1F4F63
:10597000882321F00E942540F801F6CF0E94B760ED
:105980008AE00E9425400C94D53783E50E94C53EED
:10599000882311F40C9434350E94433E182F8D3324
:1059A00008F01CE31093FC040E949AAB6B017C018D
:1059B000212F30E0A8EEB3E00F94152DC60ED71EB0
:1059C000E81EF91EC092F804D092F904E092FA049D
:1059D000F092FB040C9434350E942DF80C9434356D
:1059E0008091120D83FF02C00C94343560E082E98F
:1059F00093E00E94ADB183E50E94C53E21968FAF32
:105A0000219781110C94BF3582E50E94C53E81111A
:105A10000C94BF350C94343580E50E94C53E81114D
:105A200008C083E50E94C53E811109C03FEF20E018
:105A30000AC00E94433E81110C943435F2CF0E947B
:105A4000333E362F272F832F922F8F3F910519F04A
:105A500010F08FEF90E090936105809360050C94B7
:105A6000343580E50E94C53E811105C01092610564
:105A700010926005F9C70E94333E672B09F0F4C706
:105A8000F5CF83E50E94C53E882329F00E94333E6E
:105A9000362F272F02C03FEF20E0832F922F8F3F1A
:105AA000910519F010F08FEF90E080934902DCC768
:105AB0008CE40E94963E882319F00E94633E04C045
:105AC00060E070E080E890EC6CA77DA78EA79FA7B0
:105AD00080E090E0A0EFB1EC89839A83AB83BC8334
