:100000000C946E1E0C949F1E0C949F1E0C949F1EAD
:100010000C949F1E0C949F1E0C949F1E0C949F1E6C
:100020000C949F1E0C949F1E0C949F1E0C949F1E5C
:100030000C949F1E0C94199F0C949F1E0C949F1E51
:100040000C949F1E0C94BFA00C949F1E0C949F1E9A
:100050000C949F1E0C949F1E0C948F8E0C94CF9E1C
:100060000C949F1E0C94F8540C94EE540C949F1E08
:100070000C949F1E0C949F1E0C949F1E0C949F1E0C
:100080000C949F1E0C949F1E0C949F1E0C949F1EFC
:100090000C949F1E0C949F1E0C949F1E0C949F1EEC
:1000A0000C949F1E0C949F1E0C949F1E0C949F1EDC
:1000B0000C949F1E0C949F1E0C949F1E0C949F1ECC
:1000C0000C949F1E0C949F1E0C949F1E0C949F1EBC
:1000D0000C949F1E0C949F1E0C949F1E0C949F1EAC
:1000E0000C949F1E8969F0672968C5692968296889
:1000F0002968296829682968296829682968296878
:100100002968296829682968296829682968296867
:100110002968296829682968296829682968296857
:10012000BF692968296829682968296829682968B0
:1001300029689869296829682968296829682968C7
:100140002968296829682968DC692668F8DF05E0DC
:100150001AE027E044E059E066E077E088E0A1E0BB
:10016000BAE0D3E0ECE009E126E1110279012902CD
:100170000B016301E3018902AF01B901E5007501DB
:10018000F901A302DF01E3017D01CB019F01D7014A
:10019000E9007B02B3010D018D016302A1014D0253
:1001A00057011D02270141014D018D0151029901A5
:1001B00057025301130209027B0101016901650223
:1001C00093011F0191025D02BD010D9445060C943F
:1001D0008B8B0D94CA090C94FDE10C9484970C94BC
:1001E000B0330C94CB970C947D670C9429680C94D5
:1001F00097970C94B5F50C94BD960C947F980D943C
:1002000029150D94FD160C94C8400C946C9E0C940A
:1002100066E00C94EF960D9426060D94E3090D9478
:100220002E000C9403F20C94F1CE0C9425980C94AF
:1002300086480C9487960D9404000C9413980D94A2
:1002400006170D9476000C94D9870C94E9D30D947D
:100250001B0A0C9472970C949BF30C9416F80D9453
:100260003A000C9448960C94349A0C940D980C9483
:100270003F550D9428000D940E000C941AE00C9438
:10028000F63F0D942A0A0C94CBD40D9445040C949B
:10029000759E0C9479880C9489960D94340A0C946C
:1002A00064980C9409E10D9414170C94F5970D942F
:1002B000070A0C9407D30C9451460C9466480C948E
:1002C00076410D9412050D942C060C94DFCE0C94FF
:1002D000B0970D9400170C9408970C9447970C94C2
:1002E00005E00C94F0670C94783E0D9449060C944C
:1002F0006A480D9433060D94F7160D945D060C9420
:100300008B980C94BF690D940A020C94FEFF0C9418
:1003100098690C9485D10C9417880D945C0A0C9400
:10032000F3CE0C947A670D940F170C94B0890C944B
:100330007E480D94480A0C9480670C949A880D941A
:1003400065060D94F5090C94E3970C9420430C94E6
:10035000F8870C9434970C9404860C94CE990D94E1
:100360003B060C94C5690D94D9090C9472480C9401
:10037000E2F10D9441060D940F020D940C170C94AC
:10038000CB9B0C94E9970C94ECF10C9488E00C94C2
:10039000F8DF0C947A480D9461060C945B570C942A
:1003A000BAE00D94EF320C94E8CE0C94F5CE0D9497
:1003B000C5090C94D1870C948E480D9400020D94BD
:1003C00057060C941F9E0D946A060D9405020C941A
:1003D000D4970C94D24B0C94B1330C94D2990C94C6
:1003E000353F0C94D83E0C94FFFF0C9400D00D9434
:1003F00015150D944F060C94F34A0C94A4960C9486
:100400008A480C9437BB0C942B980C9401980C944C
:10041000788B0D94FA160C94F64A0C94EF970C9482
:10042000AA560D9430060D94F4160C9477E00C94B3
:10043000E2E90C9444E00C94ECE00D94110A0C9465
:10044000BCCE0C94DCF10C9460970C9476960C94D2
:10045000F94A0D9422060C9427E00C943D3F0C942D
:1004600055980C945F960C94D3E00C945D9E0C947C
:1004700082480C9476480C948D990C9489690D945B
:1004800009000C9426E10C94DC690C9461570D94DE
:1004900034000C9407980C94B73E0D94FD090C940D
:1004A00079490D943E0A0C94BC970C94B93E0D9476
:1004B000520A0C94C3F30C9459570D9409170C94D9
:1004C00059E00C948D8B0D94ED090D9403170C9449
:1004D000898B0D9454020C94B4330C9421970C9492
:1004E00046980C94B2870D94D1320C94A1E00C94F0
:1004F00006D00C9473980D94CF090C9426680C9434
:1005000019980C94D6960C94453F0C9425590C944C
:100510001F980D9437060C945F570C94FB970C941E
:100520005D570D9421170D94E90D0C94F4D40C949F
:100530006E480C94A9450C94BAF30C9405CF0C9416
:10054000BCF40C94878B0D9453060C942C3F0C94A4
:10055000E2F60C949F9E0C94D0F10C9437984E4187
:100560004E494E495459494E46CDCCCC3D0AD7232D
:100570003C17B7D13877CC2B329595E6241FB14F75
:100580000A000020410000C84200401C4620BCBEBA
:100590004CCA1B0E5AAEC59D7400407A10F35A0027
:1005A000A0724E18090010A5D4E80000E87648179C
:1005B0000000E40B54020000CA9A3B000000E1F581
:1005C00005000080969800000040420F000000A047
:1005D0008601000000102700000000E80300000072
:1005E000006400000000000A00000000000100009C
:1005F0000000002C76D888DC674F0823DFC1DFAE0F
:1006000059E1B1B796E5E3E453C63AE651997696D7
:10061000E8E6C28426EB898C9B62ED407C6FFCEFA0
:10062000BC9C9F40F2BAA56FA5F490055A2AF75CCE
:10063000936B6CF9676DC11BFCE0E40D47FEF52080
:10064000E6B500D0ED902E03009435770500808448
:100650001E080000204E0A000000C80C333333335C
:100660000F986E12831141EF8D2114893BE65516C8
:10067000CFFEE6DB18D1844B381BF77C1D901DA400
:10068000BBE424203284725E228100C9F124ECA1F3
:10069000E53D27434F4D4D554E49434154494F4E3B
:1006A0000044525952554E004552524F5253004940
:1006B0004E464F004543484F00536F7370656E734D
:1006C000696F6E652E2E2E004D65736820706F6900
:1006D0006E742063616E6E6F742062652072657344
:1006E0006F6C7665640A005072656D692074617381
:1006F000746F2E2E004E657373756E204D6F766984
:100700006D656E746F00456E642066696C65206C63
:100710006973740A00426567696E2066696C6520BA
:100720006C6973740A00286E6F2066696C65290015
:1007300043757272656E742066696C653A20005369
:1007400044207072696E74696E67206279746520E6
:10075000004E6F74205344207072696E74696E6726
:100760000A002569792025696420256968202569A2
:100770006D20256973005072696E742074696D650F
:100780003A2000496E76616C69642050696E204D94
:100790006F64650A005261666672656464616D65C6
:1007A0006E746F2E2E0052697363616C64616D65A7
:1007B0006E746F2E2E2E0045202553006F66660046
:1007C00044454255473A004D3131322053687574E3
:1007D000646F776E004D3131332053005A394D33F9
:1007E000204F46462E004348414D4245525F5445F6
:1007F0004D5045524154555245004D4F54494F4E6E
:100800005F4D4F44455300544845524D414C5F5055
:10081000524F54454354494F4E004155544F524551
:10082000504F52545F53445F5354415455530050FA
:10083000524F4D50545F535550504F525400454DF8
:10084000455247454E43595F50415253455200432C
:100850004153455F4C494748545F425249474854C9
:100860004E45535300544F47474C455F4C4947480A
:10087000545300534F4654574152455F504F5745CC
:1008800052004255494C445F50455243454E540036
:100890004C4556454C494E475F44415441005A5FD0
:1008A00050524F4245004155544F4C4556454C001F
:1008B0005052494E545F4A4F420050524F475245A2
:1008C0005353004155544F5245504F52545F544575
:1008D0004D5000564F4C554D4554524943004249E6
:1008E0004E4152595F46494C455F5452414E534622
:1008F00045520053455249414C5F584F4E5F584F47
:100900004646004649524D574152455F4E414D457E
:100910003A4D61726C696E20322E302E352E3420A5
:10092000284769744875622920534F555243455FE3
:10093000434F44455F55524C3A68747470733A2F74
:100940002F6769746875622E636F6D2F4D61726CCD
:10095000696E4669726D776172652F4D61726C695F
:100960006E2050524F544F434F4C5F56455253499F
:100970004F4E3A312E30204D414348494E455F5449
:100980005950453A5A394D332045585452554445EB
:10099000525F434F554E543A3120555549443A63BE
:1009A000656465326132662D343161322D343734FD
:1009B000382D396231322D63353563363266333640
:1009C0003766660A002F2F20004D31343520533C06
:1009D000696E6465783E206F7574206F6620726161
:1009E0006E67652028302D31290A00206C696D69F9
:1009F00074656420746F2000204D6178200041638D
:100A000063656C65726174696F6E00416363656CE8
:100A100065726174696F6E3A2050003F4A206F75AD
:100A200074206F662072616E67652028302E303129
:100A300020746F20302E33290A0046523A00204697
:100A40006C6F773A200050726F7465637465642030
:100A500050696E0A00496E76616C6964206578742D
:100A600072756465720A0020643A0020693A0020B9
:100A7000703A0046696C616D656E742072756E6FB8
:100A800075742064697374616E636520286D6D29C7
:100A90003A200046696C616D656E742072756E6FE8
:100AA000757420004D34323120696E636F72726547
:100AB000637420706172616D657465722075736115
:100AC00067650A004F6666736574206170706C69B3
:100AD0006361746F004572723A20546F6F206661D3
:100AE000722100546F6F206661722066726F6D20F4
:100AF0007265666572656E636520706F696E740AF3
:100B000000454550524F4D204F4B0A00506F7765BE
:100B1000722D6C6F7373207265636F7665727920C6
:100B200000446F6E65207072696E74696E6720662E
:100B3000696C650A004D3737004D333100B406AF9C
:100B400006A806A106930652616666722E20706999
:100B50006174746F2E2E2E00526973632E2070699B
:100B60006174746F2E2E2E0023646566696E652095
:100B700044454641554C545F004B6420004B69206E
:100B8000004B702000504944204175746F74756E9D
:100B9000652066696E6973686564212050757420EC
:100BA000746865206C617374204B702C204B692035
:100BB000616E64204B6420636F6E7374616E747336
:100BC0002066726F6D2062656C6F7720696E746F3E
:100BD00020436F6E66696775726174696F6E2E6807
:100BE0000A00504944204175746F74756E65206623
:100BF00061696C6564212074696D656F75740A00A4
:100C00000A20436C617373696320504944200A00D1
:100C1000204B643A2000204B693A2000204B703A68
:100C200020002054753A2000204B753A2000206D9A
:100C300061783A2000206D696E3A200020643A20E5
:100C40000020626961733A20005049442041757464
:100C50006F74756E652073746172740A0050494434
:100C6000204175746F74756E65206661696C65648A
:100C7000212054656D706572617475726520746FA2
:100C80006F20686967680A00504944204175746F95
:100C900074756E65206661696C65642120426164CB
:100CA000206578747275646572206E756D62657208
:100CB0000A005049442044656275672000457272FD
:100CC0003A207574663820666F6E74206E6F7420DB
:100CD000696E697469616C697A65642E00000C0D37
:100CE00000FE07022603BC01FFFE0AFE08FE0508FF
:100CF0000806000040F0C8888898781005080806A3
:100D00000000C0F88888888888F805050506000175
:100D10002030F830200508080600002070F8202058
:100D20002020E00509090600FF2070A8A8B88888DF
:100D30007020050606060001E08CEA8C8A0A050987
:100D4000090600FFF8A88888888888A8F8050A0A94
:100D50000600FE205050505088A8A8887003030356
:100D600006000340A040FFFFFFFFFFFFFFFFFFFF64
:100D7000FFFFFFFFFFFFFFFFFFFFFFFF0000000679
:100D800005FF010707060200808080808000800345
:100D90000303060105A0A0A005060606000050F802
:100DA0005050F8500509090600FF2070A8A07028CF
:100DB000A87020050707060000C8C81020409898B2
:100DC00005070706000040A0A040A89068010303A3
:100DD0000602058080800309090601FF204040804B
:100DE00080804040200309090601FF804040202008
:100DF0002040408005070706000020A8702070A84A
:100E0000200505050600012020F820200203030626
:100E100001FFC04080050101060003F8020202063E
:100E20000100C0C005070706000008101020404060
:100E300080050707060000708898A8C88870030717
:100E40000706010040C040404040E005070706009B
:100E500000708808102040F8050707060000F80811
:100E6000103008887005070706000010305090F811
:100E70001010050707060000F880F00808887005C4
:100E80000707060000304080F088887005070706D5
:100E90000000F80810102020200507070600007049
:100EA0008888708888700507070600007088887831
:100EB000081060020505060100C0C000C0C002069F
:100EC000060601FFC0C000C0408003050506010101
:100ED0002040804020050303060002F800F80305C7
:100EE00005060101804020408005070706000070CC
:100EF0008810202000200507070600007088B8A889
:100F0000B88070050707060000708888F888888810
:100F1000050707060000F04848704848F005070735
:100F20000600007088808080887005070706000032
:100F3000F04848484848F0050707060000F8808058
:100F4000F08080F8050707060000F88080F08080B8
:100F50008005070706000070888080988870050764
:100F600007060000888888F8888888030707060134
:100F700000E04040404040E0050707060000381010
:100F800010101090600507070600008890A0C0A010
:100F90009088050707060000808080808080F80523
:100FA000070706000088D8A88888888805070706EC
:100FB00000008888C8A89888880507070600007080
:100FC000888888888870050707060000F08888F000
:100FD00080808005070706000070888888A89068D0
:100FE000050707060000F08888F0A090880507072D
:100FF00006000070888070088870050707060000EA
:10100000F820202020202005070706000088888877
:1010100088888870050707060000888888885050EF
:101020002005070706000088888888A8A8500507BB
:1010300007060000888850205088880507070600AA
:101040000088885020202020050707060000F808A7
:1010500010204080F80309090601FFE080808080AD
:10106000808080E0050707060000804040201010C7
:10107000080309090601FFE020202020202020E0AD
:101080000503030600052050880501010600FEF84F
:1010900003030306010580402005050506000070D6
:1010A000087888780507070600008080F08888881F
:1010B000F0050505060000708080887005070706AA
:1010C0000000080878888888780505050600007003
:1010D00088F08070050707060000304840E0404077
:1010E000400507070600FE708888887808700507A5
:1010F000070600008080F0888888880307070601BB
:10110000004000C0404040E00409090601FE100014
:1011100030101010109060050707060000808088CE
:1011200090E09088030707060100C040404040401F
:10113000E0050505060000D0A8A8A8A80505050635
:101140000000B0C8888888050505060000708888FA
:1011500088700507070600FEF0888888F080800503
:1011600007070600FE7888888878080805050506C0
:101170000000B0C8808080050505060000788070FA
:1011800008F00507070600002020F8202020180599
:101190000505060000888888986805050506000092
:1011A00088888850200505050600008888A8A85072
:1011B0000505050600008850205088050707060031
:1011C000FE88888850204080050505060000F8103C
:1011D0002040F80309090601FF20404040804040BC
:1011E00040200109090602FF808080808080808085
:1011F000800309090601FF804040402040404080B4
:1012000005030306000248A890FFFFFFFFFFFFFF52
:10121000FFFFFFFFFFFFFFFFFFFFFFFFFFFFFFFFDE
:10122000FFFFFFFFFFFFFFFFFFFF0000000605FFBE
:101230000107070602008000808080808005070784
:101240000600FF2070A8A0A8702005070706000070
:10125000304840E04048B0050505060000A8508829
:1012600050A80507070600008850F820F820200144
:10127000070706020080808000808080040808063E
:10128000010070806090906010E00301010601078A
:10129000A00607070600007884B4A4B48478030588
:1012A0000506010460A06000E005050506000028B1
:1012B00050A05028050303060001F80808030101A7
:1012C000060103E00607070600007884B4A4A4849E
:1012D00078050101060007F8040404060105609082
:1012E00090600507070600002020F8202000F80382
:1012F000050506010440A02040E0030505060104A1
:10130000C0204020C00303030601052040800507DC
:10131000070600FE88888898E8808005080806008F
:101320000078E8E8E868282828020202060203C0DC
:10133000C00302020601FE20C003050506010440A9
:10134000C04040E003050506010540A04000E0055F
:101350000505060000A0502850A0050A0A06000056
:1013600040C048506050B0507810050A0A0600008E
:1013700040C048506050A8081038050A0A0600000E
:10138000C0204830E050B050781005070706000034
:1013900020002020408870050A0A06000040200036
:1013A000708888F8888888050A0A060000102000DE
:1013B000708888F8888888050A0A0600002050008E
:1013C000708888F8888888050A0A06000068B000D6
:1013D000708888F888888805090906000050007020
:1013E0008888F8888888050A0A060000205020703E
:1013F0008888F888888805070706000078A0A0F08C
:10140000A0A0B80509090600FE7088808080887059
:101410001060050A0A060000402000F88080F08075
:1014200080F8050A0A060000102000F88080F0808D
:1014300080F8050A0A060000205000F88080F0803D
:1014400080F80509090600005000F88080F08080CF
:10145000F8030A0A060100804000E0404040404096
:10146000E0030A0A060100204000E04040404040FE
:10147000E0030A0A06010040A000E040404040406E
:10148000E0030909060100A000E04040404040E0C0
:10149000050707060000704848E8484870050A0A32
:1014A00006000068B0008888C8A8988888050A0ADD
:1014B00006000040200070888888888870050A0A25
:1014C00006000010200070888888888870050A0A45
:1014D00006000020500070888888888870050A0AF5
:1014E00006000068B000708888888888700509093F
:1014F00006000050007088888888887005050506F9
:10150000000188502050880509090600FF087098DE
:10151000A8A8A8C87080050A0A0600004020008814
:10152000888888888870050A0A06000010200088CC
:10153000888888888870050A0A060000205000887C
:101540008888888888700509090600005000888806
:101550008888888870050A0A06000010200088889C
:10156000502020202004070706010080E090909082
:10157000E080050707060000708890A09088B005FD
:1015800008080600004020007008788878050808E0
:10159000060000102000700878887805080806000A
:1015A0000020500070087888780508080600006858
:1015B000B0007008788878050707060000500070B2
:1015C0000878887805080806000020502070087800
:1015D0008878050505060000702870A078050707C3
:1015E0000600FE70888088701060050808060000FC
:1015F0004020007088F08070050808060000102068
:10160000007088F080700508080600002050007007
:1016100088F0807005070706000050007088F08091
:1016200070030808060100804000C0404040E0030D
:101630000808060100204000C0404040E0030808C0
:1016400006010040A000C0404040E003070706013B
:1016500000A000C0404040E00509090600005020FD
:101660005008788888887005080806000068B0006F
:10167000B0C88888880508080600004020007088E7
:101680008888700508080600001020007088888887
:1016900070050808060000205000708888887005D2
:1016A000080806000068B000708888887005070781
:1016B0000600005000708888887005050506000146
:1016C0002000F800200505050600007898A8C8F05D
:1016D00005080806000040200088888888700508F2
:1016E0000806000010200088888888700508080611
:1016F00000002050008888888870050707060000D1
:1017000050008888888870050A0A0600FE102000AC
:10171000888888502040800509090600FE8080F0F6
:10172000888888F080800509090600FE50008888B6
:101730008850204080526970726573612064612016
:10174000506F7765724C6F737300436F6E66696795
:101750007572617A696F6E650052697072656E6448
:1017600069207374616D706100416C696D656E74A0
:1017700061746F72650047656E65726963005072CF
:101780006F746F636F6C6C6F00312E300042617547
:1017900064003131353230300068747470733A2F20
:1017A0002F7777772E616C69657870726573732E09
:1017B000636F6D2F6974656D2F3332393635343070
:1017C000363339362E68746D6C005A4F4E4553547B
:1017D0004152205A5249425F563600544954414EB4
:1017E000204558545255444552004C6976656C2E3C
:1017F0002042696C696E656172650045737472752B
:10180000736F7269007777772E7A6F6E6573746184
:101810007233642E636F6D005A394D3300323032AB
:10182000302D30382D313500322E302E352E34000B
:1018300056352E30005465726D6973746F7269008D
:10184000496E666F2E2073636865646100496E6639
:101850006F2E207374616D70616E7465004D313050
:1018600030300041727265737461207374616D7001
:101870006100496E64696574726F0053746F700023
:101880004D65646961206E6F6E2070726573656E60
:101890007465004D32310043616D626961206D6590
:1018A0006469610043616D6269612066696C616DA4
:1018B000656E746F005265676F6C61005269677581
:1018C0006172646F207374616D70616E7465005332
:1018D000636865726D61746120696E666F00417640
:1018E000766961207374616D7061005374616D700D
:1018F000610043616E6E6F7420656E746572207353
:1019000075626469723A2000022E2E004F6666737B
:101910006574205A20736F6E646100496D706F7337
:1019200074617A2E206176616E7A61746500524925
:101930004D554F56492046494C414D454E544F0058
:101940004341524943412046494C414D454E544F35
:101950000043414D42494F2046494C414D454E546C
:101960004F004732380A473239204E330043617402
:101970006368205A204F666673657400436172691C
:10198000636120696D706F7374617A696F6E69004D
:1019900052697072697374696E6120696D702E008E
:1019A00053616C766120696D706F7374617A696FD1
:1019B0006E69005072657269732E41425320636FE5
:1019C0006E66005072657269732E504C4120636FD1
:1019D0006E660053656E732E66696C6F2074657257
:1019E0006D696E2E004D363030204230205425690E
:1019F000004D37303120542569004D3730322054A6
:101A000025690052696D756F76692066696C616D34
:101A1000656E746F202A004D3730320052696D7543
:101A20006F766920747574746F00436172696361C5
:101A30002066696C616D656E746F202A0043616D6C
:101A40006269612066696C616D656E746F202A0041
:101A5000537075726761206469207069C3B9004F63
:101A6000505A494F4E4920524950524553413A002D
:101A70005354414D504120494E205041555341004F
:101A800020205567656C6C6F3A2000436F6E74724E
:101A90006F6C6C6F20667567613A204F4646003167
:101AA0003330004245443A5A6F6E65737461722058
:101AB0002854726F6E7879205833412900436F6E35
:101AC00074726F6C6C6F20667567613A204F4E00C0
:101AD00054656D70206D6178003237350054656D46
:101AE00070206D696E0045313A205A6F6E657374CF
:101AF0006172202854726F6E787920583341290022
:101B0000506172636865676769616E646F2E2E2E1F
:101B1000000000417474656E6465726520617676BC
:101B2000696F0064656C2063616D62696F00646950
:101B30002066696C616D656E746F00417474656ECA
:101B400064657265006C27657370756C73696F6E80
:101B5000650064656C2066696C616D656E746F000C
:101B600052697363616C64616D2E207567656C6C7E
:101B70006F00417474656E6465726520707265678C
:101B80006F2E2E2E00005072656D692070657200F8
:101B900072697363616C64617265207567656C6CF2
:101BA0006F0000496E7365726973636920696C0028
:101BB00066696C616D656E746F2065207072656D0D
:101BC000690070657220636F6E74696E756172650D
:101BD00000417474656E6465726500696C206361B0
:101BE000726963616D656E746F0064656C2066690F
:101BF0006C616D656E746F005072656D6920706503
:101C0000720072697072656E64657265006C612045
:101C10007374616D706100417474656E64657265A2
:101C2000006C6120726970726573610064656C6C30
:101C300061207374616D70612E2E2E004174746585
:101C40006E64657265006C6F2073707572676F00EB
:101C500064656C2066696C616D656E746F004572B9
:101C6000726F722077726974696E6720746F204595
:101C70004550524F4D210A00627573793A207061C8
:101C80007573656420666F7220696E7075740A00E2
:101C9000627573793A2070617573656420666F723E
:101CA00020757365720A00627573793A2070726FDD
:101CB00063657373696E670A004D363030004152B8
:101CC0005245535441544F2E20005072696E746532
:101CD000722073746F707065642064756520746F12
:101CE000206572726F72732E204669782074686561
:101CF000206572726F7220616E6420757365204D6D
:101D000039393920746F20726573746172742E20B2
:101D10002854656D706572617475726520697320F1
:101D200072657365742E2053657420697420616632
:101D30007465722072657374617274696E67290AC2
:101D4000004E6F20436865636B73756D207769740F
:101D500068206C696E65206E756D6265722C204C12
:101D6000617374204C696E653A2000636865636B2B
:101D700073756D206D69736D617463682C204C619F
:101D80007374204C696E653A20004C696E65204E74
:101D9000756D626572206973206E6F74204C61737B
:101DA00074204C696E65204E756D6265722B312C06
:101DB000204C617374204C696E653A20004D3131BE
:101DC000300053442072656164206572726F720A3C
:101DD000002121204B494C4C2063617573656420C0
:101DE0006279204B494C4C20627574746F6E2F7071
:101DF000696E0A002121204B494C4C2063617573A8
:101E0000656420627920746F6F206D756368206946
:101E10006E6163746976652074696D65202D206339
:101E2000757272656E7420636F6D6D616E643A20B9
:101E30000052696176766961726520707265676FBC
:101E4000005354414D50414E5445204645524D415A
:101E500054410025533A2025530055434349534FDD
:101E60002E20005072696E7465722068616C746512
:101E7000642E206B696C6C28292063616C6C65642E
:101E8000210A003C3D38033637260E2E303E121311
:101E90001A1C1824221E28271608440A064308097B
:101EA0000600015654726176206D696E00566D69A8
:101EB0006E00566D6178204500566D6178205A009D
:101EC000566D6178205900566D6178205800416D3B
:101ED0006178204500416D6178205A00416D61783C
:101EE000205900416D6178205800412D53706F7367
:101EF00074616D656E746F00412D52697472617A00
:101F0000696F6E6500416363656C00446576696165
:101F10007A2E206769756E7A696F6E69004F666602
:101F2000736574205920736F6E6461004F66667329
:101F30006574205820736F6E646100206279746547
:101F4000733B20637263200053657474696E67731A
:101F50002053746F726564202800454550524F4DE0
:101F6000206461746173697A65206572726F722E84
:101F70000A002073746F7265642073657474696EEF
:101F80006773207265747269657665642028002025
:101F90002863616C63756C6174656429210A002093
:101FA000213D2000454550524F4D20435243206D66
:101FB00069736D61746368202D202873746F726576
:101FC00064292000496E6465783A2000204D6172D2
:101FD0006C696E3D563736290A00454550524F4DC3
:101FE0002076657273696F6E206D69736D617463BD
:101FF000682028454550524F4D3D00454550524FB1
:102000004D20496E697469616C697A65640A00489B
:10201000617264636F6465642044656661756C74A5
:102020002053657474696E6773204C6F61646564D6
:102030000A003B20000000FA430000FA430000A021
:10204000400000C8410000A0420000A0420000C8BB
:10205000430000DC43B80B0000B80B000064000034
:102060000010270000426564204C6576656C696E3F
:102070006720004661696C656420746F20656E613D
:10208000626C6520426564204C6576656C696E679C
:102090000A00496E76616C6964206D6573682E0A6A
:1020A0000050756E746F20736F6E6461746F0025DD
:1020B000532025692F25690050726F62696E672071
:1020C0006D65736820706F696E742000636174635E
:1020D00068206F66667365742C20444F4E4521005E
:1020E0006661696C2C204D6F76652075702050728A
:1020F0006F62652100546F206361746368206F66AE
:102100006673657400202844525952554E29004781
:102110003239204175746F20426564204C657665C4
:102120006C696E67003F20284C2C522C462C4229AB
:10213000206F7574206F6620626F756E64732E0A4F
:10214000003F2856296572626F7365206C6576655D
:102150006C20696D706C61757369626C65202830E4
:102160002D34292E0A00426164205A2076616C7554
:10217000650A004E6F2062696C696E656172206746
:102180007269640A00204D393220580020204D61C8
:10219000783A200020204D696E3A2000536F667413
:1021A00020656E6473746F70733A200025290025D2
:1021B0007C00203B2043757272656E74205A0020AB
:1021C0003B20456E6400203B2053746172740047CD
:1021D00072616469656E74204D6978200052616E89
:1021E000646F6D204D6978200050726573732062B2
:1021F0007574746F6E20746F2068656174206E6FE3
:102200007A7A6C650A004D32342053256C64205470
:10221000256C64004739322E39204525730047313B
:1022200020462564004739322E39205A257300474D
:1022300031205A3020463230300047312058257343
:1022400020592573204633303030004D3432302051
:10225000532569205A2573004D31303620502569A9
:1022600020532569004D31303920532569004D3107
:10227000393020532569004D323030204425730019
:102280004739322E392045305A300A4D3130392005
:10229000543020533135300A4731205A320A473200
:1022A0003852305859004D343230205330205A3093
:1022B0000020496E76616C6964206578747275647B
:1022C0006572200020496E76616C69642045207338
:1022D000746570706572200020452073746570709D
:1022E0006572206E6F7420737065636966696564DA
:1022F0000A004570617373692F6D6D005A706173C8
:1023000073692F6D6D005970617373692F6D6D0066
:102310005870617373692F6D6D00496E697A6961D8
:102320006C697A7A61004D34323800496E697A6995
:10233000616C697A7A6120454550524F4D0046697B
:102340006C616D656E746F0050617373692F6D6D94
:10235000004F66667365747320736F6E6461004A24
:1023600065726B00416363656C6572617A696F6E5B
:102370006500496D702E206F666673657420686F06
:102380006D650050726F7373696D6F20737069674C
:102390006F6C6F00466174746F0050726F73736975
:1023A0006D6F00486F6D6520617373692058595ACD
:1023B00000556E526574205600556E526574206D3E
:1023C0006D0053616C7461206D6D005269747261AF
:1023D0006920205600526974726169206D6D004158
:1023E00075746F5269747261690045310062656489
:1023F000002C2073797374656D2073746F70706531
:102400006421204865617465725F49443A20002068
:10241000645465726D200020695465726D2000203F
:10242000705465726D2000204F75747075742000B3
:102430003A20496E7075742000205049445F44452D
:10244000425547200052697363616C642E204661D7
:102450006C6C69746F0048656174696E67206661B1
:10246000696C65640054454D502046554F524920D3
:10247000434F4E54524F4C4C4F00546865726D613F
:102480006C2052756E6177617900202D20496E763F
:10249000616C6964206578747275646572206E750C
:1024A0006D62657220210A004572723A2054454DD2
:1024B00050204D415353494D41004D415854454DD5
:1024C0005020747269676765726564004572723A7C
:1024D0002054454D50204D494E494D41004D494EE7
:1024E00054454D5020747269676765726564004D8C
:1024F000383420582059205A204500202F002042EF
:10250000403A0020403A001000C902E0002C0100CF
:102510000122013001180170010E01B0010401F027
:1025200001FA005002F000F002E6009003DC0040E7
:1025300004D2004005C8004006BE000008B400B048
:1025400009AA00D00BA000600E960060118C00005C
:1025500015820020197800C01D6E00A0226400B012
:10256000275A00902C500000314600E0343C001007
:10257000383200903A2800603C1E00A03D140080D4
:102580003E0A00203F000044697374206D6D206690
:10259000696C6F207465726D2E00436172696361AE
:1025A000206D6D0052696D756F7669206D6D004408
:1025B00069616D2E2066696C6F004520696E206D23
:1025C0006DC2B3004D33303320553120452569208D
:1025D00053256900504944204175746F74756E65C8
:1025E000202A005049442D44202A005049442D49B6
:1025F000202A005049442D50202A000200000000EB
:1026000000000000000000000000000000000000CA
:1026100000000000000000000000000000000000BA
:1026200000000000000000000000000007FFC3FFE2
:10263000870187FF0FFCFFFC1E01FF8007FFC3FF20
:1026400087018FFF1FFCFFFC1E03FFC00000C600B8
:10265000C7018C0018000300618300C00001C600A0
:10266000C7C18C0018000300618300C0000386000E
:10267000C6C18C0018000301806300C0000706007B
:10268000C6618C0018000301806300C0000E0600C4
:10269000C6618C0018000301806300C0001C0600A6
:1026A000C6318FFE1FF803018063FFC000380600AB
:1026B000C6318FFE0FFC03018063FF8000700600AF
:1026C000C6198C00000C0301FFE30C0000E00600BB
:1026D000C6198C00000C0301FFE3070001C00600CF
:1026E000C60D8C00000C030180630180038006008E
:1026F000C60D8C00000C03018063018007000600FA
:10270000C6078C00000C03018063018006000600F0
:10271000C6078C00000C03018063018007FFC3FF24
:1027200086038FFF1FFC03018063018007FFC3FF47
:10273000860387FF1FF8030180630180000000000B
:102740000000000000000000000000000000000089
:102750000000000000000000000000000000000079
:102760000000000000000000000000000000000069
:102770000000000000000000000000004D3130307B
:10278000302053002020506C616E6E657242756679
:1027900066657242797465733A20002046726565F9
:1027A000204D656D6F72793A2000436F6D70696CD2
:1027B00065643A2041756720313720323032300A63
:1027C00000204C61737420557064617465643A2014
:1027D000323032302D30382D3135207C2041757427
:1027E000686F723A20285A4F4E45535441522C205C
:1027F00048616C6C79290A00322E302E352E340A4D
:10280000004D61726C696E0020536F66747761725F
:10281000652052657365740A0020576174636864AB
:102820006F672052657365740A002042726F776E7D
:10283000206F75742052657365740A0020457874A2
:1028400065726E616C2052657365740A00506F7713
:10285000657255700A006175746F25632E670047B5
:1028600032385859004D31303031006572726F7214
:102870002077726974696E6720746F2066696C6571
:102880000A00446F6E6520736176696E6720666921
:102890006C652E0A004D32390046696E65636F72B1
:1028A0002E002553202563202563202563202563E2
:1028B0000020503A0020583A00656E6473746F70BF
:1028C00073206869743A200024F4D43050C38E20F9
:1028D000C2A24017828B7011127A910D816CD90AB5
:1028E000A861E108C7586607615143061E4B5D05A4
:1028F000C145A7041A411104093D980371393103F8
:102900004036DB0265339102D4305402802E1D0222
:10291000632CEE01752AC501B028A00110278101A2
:102920008F2564012B244B01E0223401AC211F01CF
:102930008D200D01801FFC00841EED00971DDF001F
:10294000B81CD200E61BC600201BBC00641AB200F3
:10295000B219A8000A19A0006A189900D1179100AD
:1029600040178B00B516840031167E00B315790030
:102970003A157300C7146F0058146A00EE1366000E
:102980008813630025135E00C7125B006C125700AA
:1029900015125400C111510070114F0021114B004C
:1029A000D61049008D104700461044000210420026
:1029B000C00F4000800F3E00420F3C00060F3B005E
:1029C000CB0E3800930E37005C0E3500270E340016
:1029D000F30D3200C10D3100900D3000600D2E005E
:1029E000320D2D00050D2C00D90C2B00AE0C29004A
:1029F000850C29005C0C2700350C27000E0C2600E6
:102A0000E80B2400C40B2400A00B23007D0B230043
:102A10005A0B2100390B2100180B2000F80A1F0067
:102A2000D90A1E00BB0A1E009D0A1D00800A1D0057
:102A3000630A1C00470A1B002C0A1B00110A1A001B
:102A4000F7091A00DD091900C4091900AB091900BA
:102A5000920917007B091800630917004C0916003A
:102A600036091600200916000A091500F508150098
:102A7000E0081400CC081400B8081400A4081400DE
:102A8000900813007D0812006B081300580812000C
:102A90004608120034081100230811001208110022
:102AA00001081100F0071000E0071000D007100027
:102AB000C0071000B0070F00A107100091070E001B
:102AC00083070F0074070F0065070E0057070E00FD
:102AD00049070E003B070D002E070E0020070D00D2
:102AE00013070D0006070D00F9060C00ED060D009A
:102AF000E0060C00D4060C00C8060C00BC060C0056
:102B0000B0060C00A4060B0099060C008D060B0005
:102B100082060B0077060B006C060B0061060A00AC
:102B200057060B004C060A0042060A0038060A0047
:102B30002E060A0024060A001A060A0010060900DA
:102B400007060A00FD050900F4050900EB05090068
:102B5000E2050900D9050900D0050900C7050900EB
:102B6000BE050900B5050800AD050800A50509006A
:102B70009C050800940508008C05080084050800E1
:102B80007C050800740508006C0507006505080051
:102B90005D050700560508004E05070047050700BC
:102BA0004005080038050700310507002A05070021
:102BB000230507001C050600160507000F05070082
:102BC0000805060002050700FB040600F5040700DF
:102BD000EE040600E8040600E2040700DB04060039
:102BE000D5040600CF040600C9040600C30406008D
:102BF000BD040600B7040600B1040500AC040600DD
:102C0000A6040600A00405009B0406009504050028
:102C1000900406008A04050085040500800406006F
:102C20007A04050075040500700405006B040500B6
:102C300066040500610405005C04050057040500F6
:102C4000520405004D040500480405004304050036
:102C50003E0404003A040500350405003004040075
:102C60002C04050027040400230405001E040400AE
:102C70001A04040016040500110404000D040400E5
:102C8000090405000404040000040400FC0304001B
:102C9000F8030400F4030400F0030400EC03040050
:102CA000E8030400E4030400E0030400DC03040080
:102CB000D8030400D4030400D0030400CC030400B0
:102CC000C8030300C503030024F404D9201BC40C6B
:102CD0005C0E9804C4095F0265077101F405F900F0
:102CE000FB04B30048048700C10369005803550082
:102CF00003034500BE023A008402310053022A0059
:102D00002902250004022000E4011C00C80119006A
:102D1000AF01170098011400840113007101100025
:102D20006101100051010E0043010D0036010B003E
:102D30002B010B0020010B00150109000C010900FB
:102D400003010800FB000800F3000800EB00070087
:102D5000E4000600DE000600D8000600D2000600EF
:102D6000CC000500C7000500C2000500BD0004003E
:102D7000B9000400B5000400B1000400AD00040077
:102D8000A9000400A5000300A20003009F000400A6
:102D90009B000300980003009500020093000300CD
:102DA000900003008D0002008B00030088000200E9
:102DB0008600020084000300810002007F00020000
:102DC0007D0002007B000200790002007700010014
:102DD000760002007400020072000100710002001F
:102DE0006F0002006D0001006C0002006A0001002B
:102DF0006900020067000100660001006500010033
:102E00006400020062000100610001006000010036
:102E10005F0002005D0001005C0001005B0001003A
:102E20005A0001005900010058000100570001003C
:102E3000560001005500010054000100530000003D
:102E40005300010052000100510001005000010038
:102E50004F0001004E0000004E0001004D00010037
:102E60004C0001004B0000004B0001004A00010033
:102E7000490001004800000048000100470001002F
:102E8000460000004600010045000000450001002A
:102E90004400010043000000430001004200000024
:102EA000420001004100000041000100400001001B
:102EB0003F0000003F0001003E0000003E00010016
:102EC0003D0000003D0001003C0000003C0000000F
:102ED0003C0001003B0000003B0001003A00000004
:102EE0003A000100390000003900010038000000FC
:102EF00038000000380001003700000037000100F2
:102F000036000000360000003600010035000000E9
:102F100035000000350001003400000034000000DE
:102F200034000100330000003300000033000100D2
:102F300032000000320000003200010031000000C9
:102F400031000000310001003000000030000000BE
:102F5000300001002F0000002F0000002F000000B3
:102F60002F0001002E0000002E0000002E000100A6
:102F70002D0000002D0000002D0000002D0001009C
:102F80002C0000002C0000002C0000002C00010090
:102F90002B0000002B0000002B0000002B00010084
:102FA0002A0000002A0000002A0000002A00010078
:102FB000290000002900000029000000290000006D
:102FC000290001002800000028000000280000005F
:102FD0002800000028000100270000002700000052
:102FE0002700000027000000270001002600000045
:102FF0002600000026000000260000002600010038
:10300000250000002500000025000000250000002C
:10301000250000002500010024000000240000001D
:103020002400000024000000240001002300000010
:103030002300000023000000230000002300000004
:1030400023000000230001002200000022000000F5
:1030500022000000220000002200000022000100E7
:1030600021000000210000002100000021000000DC
:1030700021000000210000002100010020000000CC
:1030800020000000200000002000000020000000C0
:103090002000000020000000200001001F000000B0
:1030A0001F0000001F0000001F0000001F000000A4
:1030B0001F0000001F0001001E0000001E00000095
:1030C0001E0000001E000000A42C0000841E000052
:1030D000B0120000870A00009E050000E90200000F
:1030E0007B010000BF00000020423A0020436F75C2
:1030F0006E7420413A000020746F6F206C6F6E6711
:1031000020657874727573696F6E2070726576656C
:103110006E7465640A0000000000000000000000FA
:10312000000000009B4300009B430000C8430000D8
:10313000484200004842000080400202040000A013
:10314000400000A04000000040FFFFFF5761726E8A
:10315000696E673A20486F6D696E672042756D70C1
:103160002044697669736F72203C20310A007C3CF0
:103170003E5E2B3D3F2F5B5D3B2C2A225C0054655D
:103180006D70657261747572610056656C2E207683
:10319000656E746F6C610056656C6F636974C3A073
:1031A000004D656E75207072696E636970616C6543
:1031B000005072657269732E504C41205567656CE2
:1031C0006C6F005072657269732E504C41205069CB
:1031D0006174746F005072657269732E414253209E
:1031E0005567656C6C6F005072657269732E414251
:1031F000532050696174746F005261666672656431
:1032000064610050726572697363616C646120412E
:1032100042530050726572697363616C646120503F
:103220004C41004261627973746570205A00466CAB
:103230007573736F002053697A653A200043616E9D
:103240006E6F74206F70656E207375626469722092
:103250000053442063617264206F6B0A006F7065D5
:103260006E526F6F74206661696C65640A00766FD8
:103270006C756D652E696E6974206661696C656434
:103280000A00534420696E6974206661696C0A0003
:103290004D3234004D32332025730046696C652071
:1032A00073656C65637465640A0046696C65206FBC
:1032B00070656E65643A2000454E44205355425275
:1032C0004F5554494E450A002220706F730022204A
:1032D000706172656E743A2200535542524F5554D4
:1032E000494E452043414C4C207461726765743AE5
:1032F0002200747279696E6720746F2063616C6C50
:10330000207375622D67636F64652066696C6573F1
:10331000207769746820746F6F206D616E79206CFE
:103320006576656C732E204D4158206C6576656C12
:103330002069733A310A0044656C6574696F6E20C8
:103340006661696C65642C2046696C653A200046AC
:10335000696C652064656C657465643A00577269D0
:1033600074696E6720746F2066696C653A20006628
:103370007265736800646F696E67004E6F77200036
:103380006563686F3A004572726F723A0042696C09
:10339000696E656172204C6576656C696E67204761
:1033A0007269643A0A002568753A253032687500FA
:1033B000256875642025303268753A253032687585
:1033C0000020202020202020001FE020102010209E
:1033D00010102010202010201030300840048003EE
:1033E000001FE03FF03FF03FF01FE01FE03FF03FE5
:1033F000F03FF00FC0078003003FFFF0380070304F
:10340000FC3020FC102078102030102C00D02E3101
:10341000D02F7BD02F7BD02E31D02C00D02030105D
:1034200020781020FC1030FC303800703FFFF03F57
:10343000FFF03800703186302387102787902F8760
:10344000D02F03D02030102078102078102030109A
:103450002F03D02F87D027879023871031863038CD
:1034600000703FFFF01FFFF81FFFF8041040020834
:103470002002082004104008208010410010410064
:103480000820800410400000001FFFF81FFFF833E1
:1034900000CC00CC1200480048120048004812003E
:1034A00048004813FFCFFFC810000000081FFF832B
:1034B000FFF8000FC7E000000FEFE0000003EF800F
:1034C000000001EF000000006C00000000000000A0
:1034D0004D697363656C61746F7265003A202534C1
:1034E000642E2564206D6D003F00416E6E756C6C1E
:1034F0006100496E766572746920677261646965FE
:103500006E746500562D746F6F6C2066696E616C09
:103510006500562D746F6F6C20696E697A69616CF5
:1035200065005A2066696E653A005A20696E697AAC
:10353000696F3A00562D746F6F6C732072697072E8
:10354000697374696E2E005265736574746100430B
:1035500069636C6F206D697363656C61005269709B
:1035600072697374696E6120562D746F6F6C73008D
:10357000436F6D6D6974206D697820562D746F6F7F
:103580006C00436F6D706F6E656E7465207E0056C3
:103590002D746F6F6C2061747469766F006F706545
:1035A0006E206661696C65642C2046696C653A2002
:1035B0000020453A00205A3A0020593A004F6666EA
:1035C000004F6E0052616E646F6D204D6978003A55
:1035D0002064697361626C65003A20656E61626C9B
:1035E00065004772616469656E746500496D706F4E
:1035F000737461204D697363656C61004D383400EC
:103600004469736162696C697461204D6F746F7293
:1036100069004732380A473239004C6976656C6C6C
:1036200061207069616E6F004C6976656C6C612019
:10363000737069676F6C69004732385A00486F6D64
:10364000652061737365205A004732385900486F0E
:103650006D65206173736520590047323858004802
:103660006F6D6520617373652058004732380041E3
:1036700075746F20486F6D65005374616D706120C3
:103680006461206D65646961004D756F76692064C1
:10369000692025736D6D004D756F76692064692012
:1036A000302E316D6D004D756F7669206469203163
:1036B0006D6D004D756F76692064692031306D6DD8
:1036C000004D756F766920417373650045737472A0
:1036D00075736F7265004D756F7669205A004D7570
:1036E0006F76692059004D756F766920580000008B
:1036F0002100240027002A002D00300033000101A2
:103700000000040107010A01000022002500280032
:103710002B002E00310034000201000005010801D9
:103720000B01000020002300260029002C002F00A0
:10373000320000010000030106010901050505052D
:10374000070508080808020202020A0A0808040419
:103750000404010101010101010103030303030347
:103760000303040707070C0C0C0C0C0C0C0C0202D6
:10377000020206060606060606060B0B0B0B0B0BD3
:103780000B0B010210202008081020401020408060
:103790000201020108040201010204081020408015
:1037A00080402010080402018004020180402010A3
:1037B00008040201080402010102040810204080EC
:1037C000010204081020408000000A0B02090C0DC1
:1037D0000E080703040100000000000000000000C4
:1037E00000000000000000000000000000000000D9
:1037F0000000000012111000000000000000000096
:103800000000000000000000000000000000506107
:10381000757361207374616D7061005374616D70B4
:103820006120616E6E756C6C617461004D323500A3
:10383000205A3A200020593A200042656420583A24
:1038400020005374616D706120736F7370657361D4
:103850000050726F62696E67204661696C65640A28
:1038600000536F6E64616767696F2066616C6C6995
:10387000746F00486F6D6520257325732573207064
:1038800072696D6100496E736572742066696C615E
:103890006D656E7420616E64207072657373206252
:1038A0007574746F6E0A0020573A005A394D3320F0
:1038B00070726F6E746F2E005374616D70612E2E76
:1038C0002E00220A00556E6B6E6F776E20636F6D4F
:1038D0006D616E643A20220020520020204D363067
:1038E00033200020204D34313220530046696C6172
:1038F0006D656E742072756E6F75742073656E736E
:103900006F723A0020550046696C616D656E7420D7
:103910006C6F61642F756E6C6F6164206C656E678F
:103920007468733A0020204D3835312058005A2DE4
:1039300050726F6265204F66667365740020204D7B
:103940003230392053004175746F2D5265747261A5
:1039500063743A20533D3020746F20646973616250
:103960006C652C203120746F20696E7465727072E2
:10397000657420452D6F6E6C79206D6F76657320B0
:10398000617320726574726163742F7265636F7600
:1039900065720020204D3230382053005265636F2D
:1039A0007665723A20533C6C656E6774683E2046BB
:1039B0003C756E6974732F6D3E0020570020204DBA
:1039C000323037205300526574726163743A205369
:1039D0003C6C656E6774683E20463C756E69747316
:1039E0002F6D3E205A3C6C6966743E0020204D3499
:1039F0003133205300506F7765722D4C6F737320F5
:103A00005265636F766572793A0020204D3330310C
:103A10002050005049442073657474696E67733A8E
:103A20000020460020480020204D3134352053002E
:103A30004D6174657269616C206865617475702090
:103A4000706172616D65746572733A00202047324F
:103A500039205720490020204D3432302053004176
:103A600075746F20426564204C6576656C696E677D
:103A70003A0020204D323036205800486F6D6520C6
:103A80006F66667365743A00204A0020204D32301C
:103A900035204200416476616E6365643A20423CA1
:103AA0006D696E5F7365676D656E745F74696D6572
:103AB0005F75733E20533C6D696E5F666565647229
:103AC0006174653E20543C6D696E5F747261766509
:103AD0006C5F66656564726174653E204A3C6A7518
:103AE0006E635F6465763E0020540020204D3230C6
:103AF00034205000416363656C65726174696F6E58
:103B00002028756E6974732F7332293A20503C70E7
:103B100072696E745F616363656C3E20523C7265CE
:103B200074726163745F616363656C3E20543C74BE
:103B3000726176656C5F616363656C3E0020204D49
:103B40003230312058004D6178696D756D204163C8
:103B500063656C65726174696F6E2028756E697437
:103B6000732F7332293A0020204D32303320580011
:103B70004D6178696D756D20666565647261746507
:103B8000732028756E6974732F73293A0053746516
:103B900070732070657220756E69743A0020204D34
:103BA0003230302044300A0020204D323030204462
:103BB000002044697361626C65640A0046696C6147
:103BC0006D656E742073657474696E67733A002056
:103BD000204D3134392043203B20556E69747320C9
:103BE000696E2043656C736975730A0020286D6DDA
:103BF00029002020473231202020203B20556E69AB
:103C0000747320696E206D6D006F70656E00545284
:103C1000494747455245440066696C616D656E745D
:103C2000007A5F70726F6265007A5F6D696E00790D
:103C30005F6D696E00785F6D696E005265706F72BE
:103C400074696E6720656E6473746F70207374613D
:103C50007475730A004361703A003F5A206F75749F
:103C6000206F662072616E67652028003F59206FC3
:103C70007574206F662072616E676520282D003F85
:103C800058206F7574206F662072616E67652028FA
:103C90002D0050726F6265204F6666736574205800
:103CA00000656E7175657565696E672022006F6BC2
:103CB00000526573656E643A20004D656469612049
:103CC00072696D6F73736F004D6564696120696E11
:103CD00073657269746F0000D101730211241FBEF5
:103CE000CFEFD1E2DEBFCDBF00E00CBF13E0A0E01C
:103CF000B2E0E6EBF9E802E00BBF02C007900D92DC
:103D0000AE36B107D9F726E1AEE6B3E001C01D92A9
:103D1000A938B207E1F71EE1CDE6DEE100E006C01A
:103D200021970109802FFE010F942842CC36D1073C
:103D300080E00807A9F70F94DA2B0D94C9440C947E
:103D400000002F923F924F925F926F927F928F92DC
:103D50009F92AF92BF92CF92DF92EF92FF920F931A
:103D60001F93CF93DF93CDB7DEB76F970FB6F8945D
:103D7000DEBF0FBECDBF8F8F2091FA142E8F11E0C2
:103D80001093FA148091DE158D3409F407C484353C
:103D900011F40C942E30873411F00C944F30809134
:103DA000DC159091DD158B31910509F45EC1CCF4E1
:103DB0008430910509F415C11CF4029788F1EAC317
:103DC0008B30910509F44CC18531910511F40C94A7
:103DD00051300A9709F0DEC381E00E94E3E20C94BF
:103DE00051308A32910509F4F5C254F48D319105B0
:103DF00009F465C10CF453C14E9709F474C1CAC3E8
:103E00008B35910509F430C28C35910509F431C226
:103E10008A35910509F0BEC3109278030C94513095
:103E200080911F07813011F00C94513019821A8251
:103E30001B821C82CE0101965C01E3EAEE2EEDE0CE
:103E4000FE2E08EC10E1F8EDCF2EF0E1DF2E912CE4
:103E500088E5890D0E94FC75F50181935F01882337
:103E600011F10E94F7722B013C01892D0E94197DEE
:103E7000882351F0F8012081318142815381C301AF
:103E8000B2010F94314209C0F60120813181428193
:103E90005381C301B2010F943042F70160837183F3
:103EA000828393830AC0F80180819181A281B381CA
:103EB000F70180839183A283B3839394F4E0EF0EA0
:103EC000F11C0C5F1F4F24E0C20ED11C33E0931293
:103ED000BFCF85E40E94FC758C83882301F10E948A
:103EE000F7726B017C0183E00E94197D882371F0D9
:103EF0002091D4103091D5104091D6105091D71008
:103F0000C701B6010F9431426B017C01C092AF0D25
:103F1000D092B00DE092B10DF092B20D10C0809130
:103F2000D4109091D510A091D610B091D710809355
:103F3000AF0D9093B00DA093B10DB093B20D8091E1
:103F40006715882381F08091AB1182FF0CC08C81B2
:103F5000882349F08981811103C08A81882319F05F
:103F600080E00E94AE7B40E050E0BA0186E40E940F
:103F7000063820E030E0A9010F94B443181684F409
:103F80000E94F77220E030E040E752E40F94B44220
:103F900060936E0270936F0280937002909371022F
:103FA00080914615882311F40C948C3085E40E948E
:103FB0002A73882311F40C948C3088E50E942A73AC
:103FC00081110C948C3089E50E942A7381110C9424
:103FD0008C308AE50E942A7381110C948C300C94E9
:103FE0005A3080E50E94FC75882329F00E947A717E
:103FF0006B017C0103C0C12CD12C760183E50E94AA
:10400000FC75882361F00E94F77220E030E04AE7F7
:1040100054E40F94A13B0F942D436B017C010E944B
:104020009CBB8091AB14811105C060E089EB96E0E8
:104030000F94DE140F949F0AC60ED71EE81EF91EB9
:104040000F949F0ADC01CB018C199D09AE09BF09B1
:10405000B7FD02C00C94513080E00E94D150F0CFE7
:1040600080E00E94E3E20C9451300F94861A811193
:104070000C9451308CE0EEE7F2E0DE0111960190F5
:104080000D928A95E1F760E070E080E50E94598426
:10409000BE016F5F7F4F0F9459100C945130809187
:1040A000F8148770873011F00C94B73060E08FE41B
:1040B0000E94247681110C9451300C94B7300F94E7
:1040C000861A81110C9451308091BC0D882311F413
:1040D0000C94543160E08FE40E94247681110C949A
:1040E00051300C9454312091EC143091ED144091E6
:1040F000EE145091EF146091C8107091C910809126
:10410000CA109091CB100F943142AB01BC0188E5ED
:104110000E94063869837A838B839C832091F014F4
:104120003091F1144091F2145091F3146091CC103D
:104130007091CD108091CE109091CF100F9431429C
:10414000AB01BC0189E50E9406386D837E838F83B5
:104150009887BE016B5F7F4FCE0101960E948A71E6
:10416000882311F40C94513080E00E940DE60E94E7
:104170008DC361E085E40E94247601E021E0482FB0
:10418000BE016B5F7F4FCE0101960F94DC1A6B016D
:104190007C019B01AC010F94324481115FC0898086
:1041A0009A80AB80BC8020E030E0A901C501B40159
:1041B0000F943B3B87FF05C027E137EB41E558EB08
:1041C00004C027E137EB41E558E3C501B4010F9482
:1041D0003142AB01BC018AE398E30E945BE98D8028
:1041E0009E80AF80B88420E030E0A901C501B40111
:1041F0000F943B3B87FF05C027E137EB41E558EBC8
:1042000004C027E137EB41E558E3C501B4010F9441
:104210003142AB01BC0185E398E30E945BE920E0F9
:1042200030E0A901C701B6010F943B3B87FF05C0F1
:1042300067E177EB81E598EB04C067E177EB81E517
:1042400098E3A70196010F943142AB01BC0180E3D2
:1042500098E30E945BE98AE00E94A54F0E9474C324
:104260000F94FD1E0C9451308FE0809378030C94D2
:1042700051308091DB15882349F1893009F0A6C0BF
:104280005AE9A52E52E0B52E68ECE62E60E1F62E36
:10429000D12C00E010E0F50181915F010E94FC75D6
:1042A000882369F00E94F772F7016083718382832B
:1042B0009383133011F401E002C0DD24D3941F5F17
:1042C000F4E0EF0EF11C143031F775C02AE9222E0C
:1042D00022E0322E37E9E32E3DE0F32E28EC30E1E8
:1042E0003D8F2C8F48EDC42E40E1D42E00E010E02D
:1042F000F10181911F010E94FC75882309F44AC0D5
:104300000E94F7722B013C01133049F0F601208125
:104310003181428153810F9430422B013C01EC8D5D
:10432000FD8D2081318142815381C301B2010F94FF
:1043300030424B015C012DEB37E346E855EB0F941F
:10434000B44387FD0AC02DEB37E346E855E3C501CA
:10435000B4010F943B3B1816ECF4133051F4409227
:10436000D4105092D5106092D6107092D71001E000
:1043700011C0A5019401F70160817181828193814F
:104380000F943142F7016083718382839383812F7D
:104390000E9452C01F5FF4E0EF0EF11C2C8D3D8D8A
:1043A0002C5F3F4F3D8F2C8F34E0C30ED11C143057
:1043B00009F09ECF05C0DD2019F00F94FB1E06C04A
:1043C000002321F084ED90E10E9469BE0F94FD1E50
:1043D0000C94513080911F07813011F00C945130B2
:1043E00089E40E94FC75E82E882321F00E94F37274
:1043F000082F01C000E08AE40E94FC75F82E882393
:1044000021F00E94F372182F01C010E0EE2011F08D
:10441000043020F4FF2041F0143030F088EC96E0B6
:104420000E9495E80C94513080E1E8ECF0E1A3EAB9
:10443000BDE001900D928A95E1F7EE2019F1602F11
:10444000000F770B880B990B0F94423B2091361588
:104450003091371540913815509139150F94A13B83
:104460002091F3033091F4034091F5035091F6034A
:104470000F9431426093A30D7093A40D8093A50D0A
:104480009093A60DFF2019F1612F110F770B880B68
:10449000990B0F94423B20913A1530913B15409176
:1044A0003C1550913D150F94A13B2091F70330919D
:1044B000F8034091F9035091FA030F94314260934D
:1044C000A70D7093A80D8093A90D9093AA0D60E09D
:1044D00080E50E9424768823C1F1EE20D1F020915E
:1044E000EC143091ED144091EE145091EF14609162
:1044F000A30D7091A40D8091A50D9091A60D0F9420
:1045000030426093A30D7093A40D8093A50D9093FA
:10451000A60DFF20D1F02091F0143091F1144091BC
:10452000F2145091F3146091A70D7091A80D809131
:10453000A90D9091AA0D0F9430426093A70D70932E
:10454000A80D8093A90D9093AA0D40E050E0BA0108
:1045500086E40E9406386B017C0120E030E0A9016E
:104560000F94B44318164CF420E030E040E752E4D6
:10457000C701B6010F94B44203C060E070E0CB0104
:1045800069837A838B839C83CE0101960E94ACC39E
:104590000C9451300F94D2160C9451308091DC154C
:1045A0009091DD158B39910509F4A1C50CF00EC170
:1045B0008235910509F4C1C50CF08DC08A31910591
:1045C00009F411C39CF58431910509F483C27CF48C
:1045D0008131910509F46AC22CF4029708F42EC2C5
:1045E0000C942B30429709F4B6C50C942B308731CC
:1045F000910509F494C28CF48531910509F48BC2BC
:10460000469711F00C942B300E94A8D78091AB11E3
:10461000877F8093AB110C9451308831910509F458
:1046200093C2499709F4CBC20C942B308032910588
:1046300009F451C3F4F48D31910509F435C384F4C0
:104640008B31910509F4DDC24C9711F00C942B309D
:104650008091D9159091DA150E94B2DA0C945130FC
:104660008E31910509F427C34F9709F45DC30C946B
:104670002B308C34910509F41BC46CF48A329105FB
:1046800009F4FDC38B34910511F00C942B300F9479
:10469000C50D0C9451308D34910509F40DC481354C
:1046A000910511F00C942B300E94C78E0F94100EC0
:1046B0000E94ADBB0E945E4E60E08CED97E00F94CF
:1046C000DE1468EE73E080E090E00E9471E80E94E2
:1046D000854E0C9451308F36910509F46DC4BCF5AC
:1046E0008936910509F417C4CCF48535910509F490
:1046F0005EC554F48335910509F426C584359105CA
:1047000009F429C50C942B308C35910509F472C538
:104710008836910509F4D4C30C942B308C3691055E
:1047200009F48FC454F48A36910509F408C48B3611
:10473000910509F423C40C942B308D36910509F4AE
:10474000D5C38E36910509F424C40C942B308637DA
:10475000910509F459C6CCF48237910509F4D4C502
:1047600054F48037910509F472C48137910509F436
:104770007BC40C942B308337910509F4CCC5853765
:10478000910509F431C60C942B308937910509F451
:1047900079C694F48737910509F471C68837910575
:1047A00011F00C942B3081E08093B6048093B50413
:1047B0000F94E11F0C9451308C38910509F479C4A1
:1047C0008139910509F465C60C942B308039E1E0FC
:1047D0009E0711F40C946D2E0CF082C08E3C910556
:1047E00011F40C94122CB4F58E3B910509F47CC4A1
:1047F000C4F4843A910509F4D5C634F4833A91059A
:1048000009F4A2C60C942B30863A910509F4DDC652
:10481000873A910511F00C942B300E946C840C9413
:1048200051308B3C910509F49FC754F4883C9105A5
:1048300009F4CEC6893C910509F414C70C942B30B9
:104840008C3C910509F4AFC78D3C910509F4DCC798
:104850000C942B308D3D910511F40C94F52CF4F44F
:10486000813D910511F40C94BE2C64F48F3C9105AC
:1048700011F40C94302C803D910511F40C94742C9F
:104880000C942B30833D910511F40C94CB2C8C3D72
:10489000910511F40C94CE2C0C942B308C3221E029
:1048A000920711F40C94D82D64F4823E910511F412
:1048B0000C944A2D8232914011F40C94962D0C9454
:1048C0002B308D32F1E09F0711F40C94ED2D8F32D7
:1048D000914011F00C942B300E941D380C945130F3
:1048E000873F31E0930711F40C94472F0CF04FC031
:1048F000843AF1E09F0711F40C94802E2CF58A394C
:1049000031E0930709F4ACC394F48139F1E09F07D7
:1049100011F40C94702E8239914011F00C942B30CC
:1049200080E00E94A9A80F94FD1E0C9451308C3990
:1049300031E0930711F40C94762E8D39914011F4E7
:104940000C94F72F0C942B30843FF1E09F0711F467
:104950000C94412F6CF4853A31E0930711F40C94D8
:10496000832E8C3A914011F40C94E42E0C942B304D
:10497000853FF1E09F0711F40C94442F863F91404E
:1049800011F00C942B300E94DB5C0C9451308E3B68
:1049900032E0930711F40C94E32F1CF58835F2E014
:1049A0009F0711F40C94682F6CF4883F31E0930753
:1049B00011F40C944F2F8C30924011F40C94602F12
:1049C0000C942B308B35F2E09F0711F40C946B2F75
:1049D0008D3B924011F00C942B300E9456800C9429
:1049E0005130873E33E0930711F40C94E92FCCF457
:1049F0008335F3E09F0711F40C94E62F803A93403F
:104A000011F00C942B302091D9153091DA1590913A
:104A1000AB1192609093AB11C9010E94B2DA0C9471
:104A20005130883E33E0930711F40C940E30893EE8
:104A3000934011F40C9411300C942B3080E50E94BB
:104A4000FC75882329F00E947A716B017C0103C0F8
:104A5000C12CD12C760183E50E94FC75882361F07E
:104A60000E94F77220E030E04AE754E40F94A13B43
:104A70000F942D436B017C010E949CBB8091D91542
:104A80009091DA15009721F061E00F94541505C05C
:104A900060E087EE96E00F94DE1440E0C701B601B7
:104AA0000E94B0540F9423170C9451308091DF155D
:104AB00084FF02C00C9457318091E11587FF02C03A
:104AC0000C9457318091E215837011F00C9457319A
:104AD0000C94743185E197E00E9495E888EC91E1AF
:104AE0000E94D7CB8BE1E8ECF1E1DE011196019059
:104AF0000D928A95E1F760E070E0CE0101960E9488
:104B0000E2DBCE0101960E94AFDD86E097E00E94D5
:104B100095E80C9451300E945DD80C945130E0918E
:104B2000D915F091DA158081882329F0803209F4B3
:104B300010823196F8CF60E08091D9159091DA1506
:104B40000E9400DB0C94513083E50E94FC758823A1
:104B500021F00E94BF720E94403E84E50E94FC75D5
:104B60008823A9F00E94BF726B017C010F94AA0DEB
:104B7000C092C414D092C514E092C614F092C71427
:104B8000CD28CE28CF2819F081E0809327150E94E8
:104B9000614E882381F00E94B9D70F94C50D8CE136
:104BA00095E00E945ED71092E3151092E4151092E2
:104BB000E5151092E6150F9423170C94513080914F
:104BC000AB1182FF03C08B7F8093AB11809167157F
:104BD000882319F081E00E94AE7B0F94FB0D0F94A7
:104BE00023170C9451308091AB1183FD02C00C94BB
:104BF000513083E50E94FC7581110C9483310C9433
:104C0000513083E40E942A73882319F180E397E0EE
:104C10000E9495E880910F13882391F0BE016F5F89
:104C20007F4F8CE093E10E94A3CB8E010F5F1F4F5B
:104C3000F80181918F01882339F00E94A54FF8CFA8
:104C400086E297E00E9495E88AE00E94A54F0C94C6
:104C500051308091AB1182FF21C08FE397E00E9419
:104C600095E86091A7117091A8118091A911909178
:104C7000AA114AE00E94AC4F8FE20E94A54F6091BA
:104C8000A3117091A4118091A5119091A6114AE0F1
:104C90000E94AC4F0E94AA500C94513081E597E0DD
:104CA0000E9495E80C9451308091AB118E7F8093D7
:104CB000AB110C9451308091AB1183FD02C00C9468
:104CC00051300F94BB168091D9159091DA150E943E
:104CD000F6D90C9451308091AB1182FD0E949CBB9F
:104CE0008091AB1183FD02C00C94513060E080E5EF
:104CF0000E942476182F682F8091D9159091DA158B
:104D00000E9400DB83E50E94FC75882321F00E944D
:104D1000BF720E94403E0E94B9D711110C945130CD
:104D20000F94C50D0C9451300F94760D7B018C01BE
:104D300020E831E541E050E00F949141C9016DE672
:104D400071E00F9400424B015C01C801B70120E102
:104D50003EE040E050E00F949141CA01B90128E1E2
:104D600030E040E050E00F949141762E672EC62E41
:104D7000D72E9CE3292E312C412C512CC801B70190
:104D8000A20191010F949141F62EE72ECA01B901BB
:104D9000A20191010F949141CB018E010F5F1F4F32
:104DA0008114910499F0EF92FF927F936F936F9229
:104DB0007F92BF92AF929F928F9282E697E09F93ED
:104DC0008F931F930F930F94D33A13C0A114B10480
:104DD000B1F0EF92FF927F936F936F927F92BF92A9
:104DE000AF9286E697E09F938F931F930F930F9454
:104DF000D33A0FB6F894DEBF0FBECDBF30C0CD287A
:104E000079F0EF92FF927F936F936F927F928AE691
:104E100097E09F938F931F930F930F94D33AE9CF0B
:104E2000892B69F0EF92FF927F936F938EE697E064
:104E30009F938F931F930F930F94D33ADACFEF92F0
:104E4000FF9282E797E09F938F931F930F930F94A6
:104E5000D33A0F900F900F900F900F900F9060E04B
:104E6000C8010F9454150E9490E9B80186E797E0B5
:104E70000E9479E98AE00E94A54F0C9451306DE0C0
:104E800070E080E50E9409768C0197FF02C00C94C7
:104E90005130E82E60E089E40E94247681110C9460
:104EA0008831802F0F94B52B811111C60C94883155
:104EB0000F94FB0D0C9451300F94100E0C94513044
:104EC00080913E0D83FF02C00C94513083E50E9417
:104ED000FC75882311F40C9451300E94F7720F94E2
:104EE0002643CB010E94088E0C94513080913E0DD8
:104EF00083FF02C00C94513083E50E94FC75182F8B
:104F000081110C94C53182E50E94FC7581110C94CD
:104F1000C5310C9451300E94F07C182F87FD0AC0D7
:104F20008EEA9CE30E9495E8812F0E94188E8AE009
:104F30000E94A54F8E8D8093FA140C94973360E0F5
:104F400080E50E94187681110C94513081E40E9412
:104F50002A73882321F06091D40770E002C06FEFBC
:104F600070E083E50E9459848F3F910519F010F09D
:104F70008FEF90E08093D4070C94513060E080E58F
:104F80000E94187681110C9451301092D4070C9421
:104F900051308EE40E94FC75882311F40C9451303A
:104FA0000E94BF7260936B1670936C1680936D169F
:104FB00090936E160C94513083E50E942A738823D7
:104FC00031F060E083E50E94187680933E0D0E94E8
:104FD00090E980EC97E00E9495E880913E0D88234F
:104FE00069F18DE3E82E8BE0F82E00E010E020E080
:104FF00080913E0D90E0A0E0B0E0002E04C0B69598
:10500000A795979587950A94D2F780FF0EC0DD2467
:10501000D394D20E222319F08CE20E94A54FF701FF
:10502000859194910E9495E82D2D0F5F1F4F92E07E
:10503000E90EF11C05301105D9F606CE8CEB97E090
:1050400001CE1092F914109272020C94513041E08A
:1050500060E070E087EC97E00E94884E0C9451303D
:105060000E94394E0C94513083E50E94FC758823D0
:1050700081F00E94CF72282F30E02D33310524F4C7
:10508000809300020C9451308CE3809300020C94C6
:1050900051300E9490E94091000250E060E070E0E1
:1050A00085ED97E00E943DE98AE00E94A54F0C94AF
:1050B000513080913E0D83FF02C00C94513083E546
:1050C0000E94FC75882311F40C9451300E94F772F1
:1050D0000F9426436837710514F068E770E0709309
:1050E000710460937004DDC70E94753CDAC783E5E4
:1050F0000E94FC75882309F4D4C70E94CF72182F30
:1051000090E0CD970CF01CE3109373030F949F0A6B
:105110006B017C01212F30E0A8EEB3E00F94E54154
:10512000C60ED71EE81EF91EC0926F03D092700300
:10513000E0927103F0927203B4C7809178038F7D7F
:10514000806180937803ADC7809178038F7E806201
:1051500080937803A6C783E50E94FC75882399F0A5
:105160000E94F77220E030E04AE754E40F94A13B3C
:105170000F942D4360930102709302028093030207
:10518000909304028EC78091DF1584FF02C00C94B7
:1051900007328091E11587FF02C00C94073280919D
:1051A000E215837011F00C9407320C94383283E5C9
:1051B0000E942A73882309F474C70F949F0A60938E
:1051C000FB147093FC148093FD149093FE140E94C2
:1051D000F77220E030E04AE754E40F94A13B0F94CB
:1051E0002D436093740370937503809376039093BB
:1051F000770357C70E94F07C87FD53C79091DF1556
:1052000094FD04C09091E11597FF0AC01AE9C12EE0
:1052100012E0D12E0FE3E02E0DE0F02E10E009C0D9
:105220009091E215937091F7682F81E00E943F7191
:1052300038C7F60181916F010E94FC75882309F43B
:1052400059C0133009F04FC00E94F7724B015C0146
:1052500020E030E040EA51E40F943B3B87FF3AC046
:10526000A501940160915F0D7091600D8091610DB9
:105270009091620D0F94B4422B013C019B01AC0153
:1052800060916F0D7091700D8091710D9091720D04
:105290000F94A13B60936F0D7093700D8093710D0F
:1052A0009093720D6091C8077091C9078091CA07E9
:1052B0009091CB070F94403BA30192010F94A13B27
:1052C0000F942D436093C8077093C9078093CA0752
:1052D0009093CB0780925F0D9092600DA092610D2C
:1052E000B092620D07C00E94F772F701648B758B54
:1052F000868B978B1F5FF4E0EF0EF11C143009F0E2
:1053000098CF0E94A2A9CDC60E949FFA80E391E1A6
:105310000E941EA0C6C683E099E00E9495E860E066
:1053200083EF98E00F94202760E08EED98E00F94D3
:10533000202761E087E393E20F94202761E083ED6B
:1053400098E00F94202761E083EC98E00F942027E9
:1053500060E08AEB98E00F94202761E080EB98E012
:105360000F94202761E086EA98E00F94202761E0FF
:105370008EE998E00F94202761E080E998E00F948F
:10538000202760E082E898E00F94202760E083E720
:1053900098E00F94202760E085E698E00F9420279E
:1053A00060E08FE498E00F94202760E08EE398E0BF
:1053B0000F94202760E08FE298E00F94202760E0B0
:1053C0008AE198E00F94202760E087E098E00F944E
:1053D000202760E08AEF97E00F94202760E086EEB8
:1053E00097E00F9420275DC68091D9159091DA152A
:1053F000009709F4E0CBFC012081222309F4DBCBE8
:1054000060E00F9454154DC60091D9151091DA152E
:1054100094E0F12C40E0915029F1F8018081282F8F
:105420002B7F213421F421812133E1F408C0803520
:10543000C9F4F801818180538A3048F013C0813467
:1054400021F0853421F441E002C0FF24F394980157
:105450002E5F3F4F89012F5F3F4FF80180818032DF
:10546000C9F3D9CF41110E9490E9FF2021F085ECCA
:1054700099E00E9495E8C8010E94B05012C60F94AE
:10548000AE1F0FC61092B6041092B5040F94E11F20
:1054900008C660E070E083E50E9409768C01112760
:1054A000023011053CF00E948CE989EC99E00E94E1
:1054B00095E8F7C588E40E94FC758823A9F00E944E
:1054C000F3728A3A91053CF08530F1E09F072CF0A9
:1054D00084E091E002C08AEA90E0F801EE0FFF1F3D
:1054E000E259FA4E9183808386E40E94FC758823FA
:1054F00081F00E94F37297FD07C08F3F910529F05C
:1055000024F08FEF90E001C080E0F801E859FA4EF6
:10551000808382E40E94FC75882309F4C2C50E943E
:10552000F3728530910534F0893791052CF088E7C6
:1055300090E002C085E090E0F801EE0FFF1FE65911
:10554000FA4E91838083ADC560E070E083E50E94F0
:1055500009768C0103970CF0A4C560E070E080E54B
:105560000E940976BC01C80199279C012759314F37
:105570007901072E000C880B990B0F94423B20E019
:1055800030E040E251E40F94B4420F942D43F70110
:1055900060830230110509F084C580911B080E94C8
:1055A00077E27FC56FEF7FEF83E50E94097697FD75
:1055B00007C0803191050CF074C50E9477E271C577
:1055C00080911B080E9477E26CC50E94258569C501
:1055D0000E94F07C182F87FD64C584E40E942A7322
:1055E0008823E9F10E94F7726B017C0101E020E061
:1055F00030E0A9010F943B3B811101C000E0009312
:10560000B30D20E030E0A901C701B6010F943B3B88
:10561000882329F124E01202F0011124E854F24F0A
:10562000C082D182E282F38220E030E0A901609161
:10563000B80D7091B90D8091BA0D9091BB0D0F947A
:105640003B3B81110CC080E090E0A0EEBFE3809373
:10565000B80D9093B90DA093BA0DB093BB0D0E94F5
:1056600037BB1FC50E94F07C87FD1BC57AE9872EDA
:1056700072E0972EEFE3AE2EEDE0BE2E712CF4011A
:1056800081914F010E942A73882309F465C00E940A
:10569000F7727B018C0180E1EAE8F2E0DE0111960D
:1056A00001900D928A95E1F7872DF3E0F71508F444
:1056B00083E0C82ED12C2DEC3CEC4CEC5DE3B70123
:1056C000C8010F943B3B87FF02C00C948933F6015D
:1056D000EE0FFF1FEE0FFF1F21E030E02C0F3D1FEC
:1056E000E20FF31F3080418052806380232D342DE0
:1056F000452D562DB701C8010F94B443181614F464
:105700000C9491339701A801B701C8010F943B3B5A
:105710008823B9F0F601E656FD4F80810E94A54F1F
:1057200088EF99E00E9495E88EEF99E00E9495E855
:10573000A701B8018BEE99E00E945BE98AE00E9424
:10574000A54FB701C8010F942D43F5016083718304
:10575000828393830E945BA97394F4E0AF0EB11C23
:1057600024E072128CCF9DC40E94F07C87FD99C406
:105770005AE9E52E52E0F52E0FE31DE0F701819185
:105780007F010E942A73882339F00E94F772F80182
:1057900064A375A386A397A30C5F1F4FFDE00F348E
:1057A0001F0761F77EC48091E01587FD64C6809174
:1057B000E1158E7009F05FC64091730D5091740D24
:1057C0006091750D7091760D8BE09AE00E945BE917
:1057D0004091770D5091780D6091790D70917A0D0F
:1057E00088ED98E30E945BE940917B0D50917C0D20
:1057F00060917D0D70917E0D88EE9AE30E945BE9C9
:105800008AE00E94A54F4DC48091DF1581FD79C6C5
:105810008091E01581FD75C68091E1158C7009F0CD
:1058200070C63FC44EE8E42E45E0F42E10E088E553
:10583000810F0E942A73882351F00E94F772F701AA
:105840006083718382839383812F0E9452C01F5F84
:10585000F4E0EF0EF11C133051F70F94FD1E21C43C
:1058600083E50E942A73882351F00E94F7726093A7
:105870004715709348158093491590934A1586E40F
:105880000E942A73882381F00E94F77220E030E0A2
:1058900040E752E40F94B44260934B1570934C155B
:1058A00080934D1590934E158AE50E942A738823A4
:1058B00051F00E94F77260934F15709350158093CA
:1058C00051159093521587E50E942A73882309F495
:1058D000E8C30E94F77260935B1570935C15809328
:1058E0005D1590935E15DDC383E50E942A738823BE
:1058F00051F00E94F7726093531570935415809382
:1059000055159093561586E40E942A73882381F0DA
:105910000E94F77220E030E040E752E40F94B44276
:1059200060935715709358158093591590935A1595
:1059300082E50E942A73882381F00E94F77220E09A
:1059400030E040E752E40F94B442609363157093E3
:105950006415809365159093661587E50E942A73F8
:10596000882309F49EC30E94F77260935F157093B9
:105970006015809361159093621593C383E50E942F
:105980002A73882309F48DC30E94E372809346151D
:105990000E948F7C86C30E94737383C383E50E9439
:1059A000FC75882331F00E94F37290934C0280932F
:1059B0004B028091DF159091E015A091E115B09117
:1059C000E215892B8A2B8B2B09F06BC360914B025C
:1059D00070914C028AE39AE00E946CE985E20E9491
:1059E000A54F8AE00E94A54F5CC30E94F07CF82E70
:1059F00087FD57C383E50E94FC750F2D0F2C000C0B
:105A0000110B882361F10E94F372F801EE0FFF1F62
:105A1000E35BFD4F91838083000F111F000F111F67
:105A20009801225D3D4F7901BC01990F880B990BBC
:105A30000F94423B2AE037ED43E25CE30F94A13B35
:105A4000F801EC54F24F20813181428153810F944F
:105A5000A13BF701608371838283938322C30E94F9
:105A600090E985E40E94A54F80E38F0D0E94A54F29
:105A7000F801EE0FFF1FE35BFD4F608171818EE344
:105A80009AE00E946CE985E20E94A54F8AE00E949C
:105A9000A54F07C380E50E942A73882309F401C338
:105AA00060E070E080E50E940976F82E6FEF7FEFEE
:105AB00083E50E9409768C010196039708F0F1C2F4
:105AC000F7FCEFC28F2D0F94B52B882339F00E947D
:105AD0008CE986E49AE00E9495E8E3C20E949CBBB0
