:100000000C94B51E0C94E61E0C94E61E0C94E61E91
:100010000C94E61E0C94E61E0C94E61E0C94E61E50
:100020000C94E61E0C94E61E0C94E61E0C94E61E40
:100030000C94E61E0C94609F0C94E61E0C94E61E35
:100040000C94E61E0C9406A10C94E61E0C94E61E7D
:100050000C94E61E0C94E61E0C94D68E0C94169FFF
:100060000C94E61E0C943F550C9435550C94E61EEA
:100070000C94E61E0C94E61E0C94E61E0C94E61EF0
:100080000C94E61E0C94E61E0C94E61E0C94E61EE0
:100090000C94E61E0C94E61E0C94E61E0C94E61ED0
:1000A0000C94E61E0C94E61E0C94E61E0C94E61EC0
:1000B0000C94E61E0C94E61E0C94E61E0C94E61EB0
:1000C0000C94E61E0C94E61E0C94E61E0C94E61EA0
:1000D0000C94E61E0C94E61E0C94E61E0C94E61E90
:1000E0000C94E61ED069376870680C6A7068706896
:1000F0007068706870687068706870687068706840
:10010000706870687068706870687068706870682F
:10011000706870687068706870687068706870681F
:10012000066A706870687068706870687068706877
:100130007068DF697068706870687068706870688F
:100140007068706870687068236A6D683FE04CE0A2
:1001500061E06EE08BE0A0E0ADE0BEE0CFE0E8E083
:1001600001E11AE133E150E16DE111027901290267
:100170000B016301E3018902AF01B901E5007501DB
:10018000F901A302DF01E3017D01CB019F01D7014A
:10019000E9007B02B3010D018D016302A1014D0253
:1001A00057011D02270141014D018D0151029901A5
:1001B00057025301130209027B0101016901650223
:1001C00093011F0191025D02BD010D948C060C94F8
:1001D000D28B0D94110A0C9444E20C94CB970C949E
:1001E000F7330C9412980C94C4670C9470680C94B8
:1001F000DE970C94FCF50C9404970C94C6980D941F
:1002000070150D9444170C940F410C94B39E0C94EC
:10021000ADE00C9436970D946D060D942A0A0D945A
:1002200075000C944AF20C9438CF0C946C980C9492
:10023000CD480C94CE960D944B000C945A980D9486
:100240004D170D94BD000C9420880C9430D40D945F
:10025000620A0C94B9970C94E2F30C945DF80D9437
:1002600081000C948F960C947B9A0C9454980C9467
:1002700086550D946F000D9455000C9461E00C941C
:100280003D400D94710A0C9412D50D948C040C947D
:10029000BC9E0C94C0880C94D0960D947B0A0C9450
:1002A000AB980C9450E10D945B170C943C980D9412
:1002B0004E0A0C944ED30C9498460C94AD480C9472
:1002C000BD410D9459050D9473060C9426CF0C94E2
:1002D000F7970D9447170C944F970C948E970C94A6
:1002E0004CE00C9437680C94BF3E0D9490060C942F
:1002F000B1480D947A060D943E170D94A4060C9403
:10030000D2980C94066A0D9451020D9445000C94F9
:10031000DF690C94CCD10C945E880D94A30A0C94E4
:100320003ACF0C94C1670D9456170C94F7890C942E
:10033000C5480D948F0A0C94C7670C94E1880D94FE
:10034000AC060D943C0A0C942A980C9467430C94C8
:100350003F880C947B970C944B860C94159A0D94C3
:1003600082060C940C6A0D94200A0C94B9480C94E3
:1003700029F20D9488060D9456020D9453170C948F
:10038000129C0C9430980C9433F20C94CFE00C94A3
:100390003FE00C94C1480D94A8060C94A2570C940D
:1003A00001E10D9436330C942FCF0C943CCF0D9477
:1003B0000C0A0C9418880C94D5480D9447020D949F
:1003C0009E060C94669E0D94B1060D944C020C94FE
:1003D0001B980C94194C0C94F8330C94199A0C94A7
:1003E0007C3F0C941F3F0D9446000C9447D00D9415
:1003F0005C150D9496060C943A4B0C94EB960C9469
:10040000D1480C947EBB0C9472980C9448980C9430
:10041000BF8B0D9441170C943D4B0C9436980C9463
:10042000F1560D9477060D943B170C94BEE00C9496
:1004300029EA0C948BE00C9433E10D94580A0C9447
:1004400003CF0C9423F20C94A7970C94BD960C94B4
:10045000404B0D9469060C946EE00C94843F0C9410
:100460009C980C94A6960C941AE10C94A49E0C945F
:10047000C9480C94BD480C94D4990C94D0690D943F
:1004800050000C946DE10C94236A0C94A8570D94C1
:100490007B000C944E980C94FE3E0D94440A0C94F0
:1004A000C0490D94850A0C9403980C94003F0D9458
:1004B000990A0C940AF40C94A0570D9450170C94BC
:1004C000A0E00C94D48B0D94340A0D944A170C942C
:1004D000D08B0D949B020C94FB330C9468970C9476
:1004E0008D980C94F9870D9418330C94E8E00C94D3
:1004F0004DD00C94BA980D94160A0C946D680C9417
:1005000060980C941D970C948C3F0C946C590C942F
:1005100066980D947E060C94A6570C9442980C9401
:10052000A4570D9468170D94300E0C943BD50C9481
:10053000B5480C94F0450C9401F40C944CCF0C94F9
:1005400003F50C94CE8B0D949A060C94733F0C9487
:1005500029F70C94E69E0C9417F20C947E984E4169
:100560004E494E495459494E46CDCCCC3D0AD7232D
:100570003C17B7D13877CC2B329595E6241FB14F75
:100580000A000020410000C84200401C4620BCBEBA
:100590004CCA1B0E5AAEC59D7400407A10F35A0027
:1005A000A0724E18090010A5D4E80000E87648179C
:1005B0000000E40B54020000CA9A3B000000E1F581
:1005C00005000080969800000040420F000000A047
:1005D0008601000000102700000000E80300000072
:1005E000006400000000000A00000000000100009C
:1005F0000000002C76D888DC674F0823DFC1DFAE0F
:1006000059E1B1B796E5E3E453C63AE651997696D7
:10061000E8E6C28426EB898C9B62ED407C6FFCEFA0
:10062000BC9C9F40F2BAA56FA5F490055A2AF75CCE
:10063000936B6CF9676DC11BFCE0E40D47FEF52080
:10064000E6B500D0ED902E03009435770500808448
:100650001E080000204E0A000000C80C333333335C
:100660000F986E12831141EF8D2114893BE65516C8
:10067000CFFEE6DB18D1844B381BF77C1D901DA400
:10068000BBE424203284725E228100C9F124ECA1F3
:10069000E53D27434F4D4D554E49434154494F4E3B
:1006A0000044525952554E004552524F5253004940
:1006B0004E464F004543484F005265706F736F2E92
:1006C0002E2E004D65736820706F696E7420636113
:1006D0006E6E6F74206265207265736F6C766564F0
:1006E0000A0050756C7361722070617261205265EE
:1006F000616E756461720053696E206D6F76696D0D
:1007000069656E746F00456E642066696C65206C67
:100710006973740A00426567696E2066696C6520BA
:100720006C6973740A00286E6F2066696C65290015
:1007300043757272656E742066696C653A20005369
:1007400044207072696E74696E67206279746520E6
:10075000004E6F74205344207072696E74696E6726
:100760000A002569792025696420256968202569A2
:100770006D20256973005072696E742074696D650F
:100780003A2000496E76616C69642050696E204D94
:100790006F64650A00456E667269616E646F2E2E25
:1007A0002E0043616C656E74616E646F2E2E2E0098
:1007B00045202553006F66660044454255473A0080
:1007C0004D3131322053687574646F776E004D314E
:1007D00031332053005A394D33204F46462E0043C3
:1007E00048414D4245525F54454D50455241545544
:1007F0005245004D4F54494F4E5F4D4F44455300B5
:10080000544845524D414C5F50524F544543544912
:100810004F4E004155544F5245504F52545F534430
:100820005F5354415455530050524F4D50545F53F1
:100830005550504F525400454D455247454E43592F
:100840005F50415253455200434153455F4C494725
:1008500048545F4252494748544E45535300544F01
:1008600047474C455F4C494748545300534F465403
:10087000574152455F504F574552004255494C44ED
:100880005F50455243454E54004C4556454C494EE9
:10089000475F44415441005A5F50524F4245004126
:1008A00055544F4C4556454C005052494E545F4AA2
:1008B0004F420050524F4752455353004155544FF9
:1008C0005245504F52545F54454D5000564F4C5571
:1008D0004D45545249430042494E4152595F4649A1
:1008E0004C455F5452414E53464552005345524980
:1008F000414C5F584F4E5F584F4646004649524D57
:10090000574152455F4E414D453A4D61726C696E9B
:1009100020322E302E352E342028476974487562D7
:100920002920534F555243455F434F44455F55522D
:100930004C3A68747470733A2F2F676974687562E3
:100940002E636F6D2F4D61726C696E4669726D77A3
:100950006172652F4D61726C696E2050524F544F19
:10096000434F4C5F56455253494F4E3A312E30203B
:100970004D414348494E455F545950453A5A394DC7
:10098000332045585452554445525F434F554E54B9
:100990003A3120555549443A63656465326132669F
:1009A0002D343161322D343734382D396231322DC6
:1009B0006335356336326633363766660A002F2F65
:1009C00020004D31343520533C696E6465783E20FB
:1009D0006F7574206F662072616E67652028302DF8
:1009E00031290A00206C696D6974656420746F2078
:1009F00000204D61782000416363656C657261740D
:100A0000696F6E00416363656C65726174696F6ED6
:100A10003A2050003F4A206F7574206F6620726143
:100A20006E67652028302E303120746F20302E33D1
:100A3000290A0046523A0020466C6F773A2000504F
:100A4000726F7465637465642050696E0A00496E44
:100A500076616C69642065787472756465720A00E9
:100A600020643A0020693A0020703A0046696C61BF
:100A70006D656E742072756E6F7574206469737421
:100A8000616E636520286D6D293A200046696C61AE
:100A90006D656E742072756E6F757420004D343202
:100AA0003120696E636F7272656374207061726168
:100AB0006D657465722075736167650A00446573BE
:100AC000666173652061706C696361646100457281
:100AD000723A20546F6F206661722100546F6F204C
:100AE0006661722066726F6D207265666572656EF2
:100AF000636520706F696E740A00454550524F4D12
:100B0000204F4B0A00506F7765722D6C6F73732006
:100B10007265636F766572792000446F6E65207030
:100B200072696E74696E672066696C650A004D377C
:100B300037004D333100B406AF06A806A106930670
:100B4000456E667269616E646F2043616D612E2E21
:100B50002E0043616C656E74616E646F2043616D3D
:100B6000612E2E2E0023646566696E65204445461D
:100B700041554C545F004B6420004B6920004B7082
:100B80002000504944204175746F74756E6520666D
:100B9000696E697368656421205075742074686596
:100BA000206C617374204B702C204B6920616E6443
:100BB000204B6420636F6E7374616E747320667271
:100BC0006F6D2062656C6F7720696E746F20436F64
:100BD0006E66696775726174696F6E2E680A00507F
:100BE0004944204175746F74756E65206661696C47
:100BF0006564212074696D656F75740A000A20436D
:100C00006C617373696320504944200A00204B646F
:100C10003A2000204B693A2000204B703A200020F7
:100C200054753A2000204B753A2000206D61783AC7
:100C30002000206D696E3A200020643A2000206276
:100C40006961733A2000504944204175746F74758E
:100C50006E652073746172740A00504944204175B6
:100C6000746F74756E65206661696C6564212054CB
:100C7000656D706572617475726520746F6F206840
:100C80006967680A00504944204175746F74756E35
:100C900065206661696C6564212042616420657825
:100CA000747275646572206E756D6265720A0050AB
:100CB000494420446562756720004572723A207588
:100CC00074663820666F6E74206E6F7420696E696A
:100CD0007469616C697A65642E00000C0D00FE0772
:100CE000022603BC01FFFE0AFE08FE0508080600F6
:100CF0000040F0C88888987810050808060000C0F1
:100D0000F88888888888F80505050600012030F8ED
:100D100030200508080600002070F820202020E080
:100D20000509090600FF2070A8A8B888887020056A
:100D30000606060001E08CEA8C8A0A05090906000D
:100D4000FFF8A88888888888A8F8050A0A0600FE9F
:100D5000205050505088A8A8887003030306000351
:100D600040A040FFFFFFFFFFFFFFFFFFFFFFFFFF70
:100D7000FFFFFFFFFFFFFFFFFF0000000605FF0171
:100D8000070706020080808080800080030303063E
:100D90000105A0A0A005060606000050F85050F876
:100DA000500509090600FF2070A8A07028A870202F
:100DB000050707060000C8C81020409898050707D7
:100DC00006000040A0A040A89068010303060205A9
:100DD0008080800309090601FF2040408080804018
:100DE00040200309090601FF8040402020204040A8
:100DF0008005070706000020A8702070A8200505C0
:100E0000050600012020F820200203030601FFC090
:100E10004080050101060003F8020202060100C03D
:100E2000C005070706000008101020404080050795
:100E300007060000708898A8C88870030707060195
:100E40000040C040404040E00507070600007088B1
:100E500008102040F8050707060000F808103008C1
:100E6000887005070706000010305090F810100534
:100E70000707060000F880F00808887005070706D5
:100E80000000304080F0888870050707060000F8F1
:100E900008101020202005070706000070888870C1
:100EA0008888700507070600007088887808106039
:100EB000020505060100C0C000C0C002060606010A
:100EC000FFC0C000C040800305050601012040802E
:100ED0004020050303060002F800F803050506019B
:100EE0000180402040800507070600007088102020
:100EF0002000200507070600007088B8A8B8807099
:100F0000050707060000708888F8888888050707A5
:100F1000060000F04848704848F005070706000042
:100F200070888080808870050707060000F04848B8
:100F3000484848F0050707060000F88080F08080E8
:100F4000F8050707060000F88080F080808005071C
:100F500007060000708880809888700507070600E3
:100F600000888888F8888888030707060100E04021
:100F700040404040E0050707060000381010101000
:100F800090600507070600008890A0C0A090880523
:100F90000707060000808080808080F8050707062C
:100FA000000088D8A8888888880507070600008878
:100FB00088C8A89888880507070600007088888870
:100FC000888870050707060000F08888F080808018
:100FD00005070706000070888888A890680507073D
:100FE000060000F08888F0A090880507070600003A
:100FF00070888070088870050707060000F82020B8
:101000002020202005070706000088888888888817
:10101000700507070600008888888850502005075B
:101020000706000088888888A8A8500507070600DA
:1010300000888850205088880507070600008888A7
:101040005020202020050707060000F80810204047
:1010500080F80309090601FFE0808080808080809D
:10106000E005070706000080404020101008030933
:10107000090601FFE020202020202020E0050303B6
:101080000600052050880501010600FEF803030351
:1010900006010580402005050506000070087888D7
:1010A000780507070600008080F0888888F005052D
:1010B000050600007080808870050707060000089C
:1010C0000878888888780505050600007088F08013
:1010D00070050707060000304840E0404040050723
:1010E000070600FE708888887808700507070600E4
:1010F000008080F088888888030707060100400088
:10110000C0404040E00409090601FE100030101004
:101110001010906005070706000080808890E0901E
:1011200088030707060100C04040404040E0050535
:1011300005060000D0A8A8A8A8050505060000B06F
:10114000C8888888050505060000708888887005AD
:1011500007070600FEF0888888F0808005070706EC
:1011600000FE78888888780808050505060000B024
:10117000C880808005050506000078807008F005AD
:1011800007070600002020F8202020180505050686
:10119000000088888898680505050600008888880A
:1011A00050200505050600008888A8A850050505FB
:1011B00006000088502050880507070600FE888832
:1011C0008850204080050505060000F8102040F8F2
:1011D0000309090601FF20404040804040402001B3
:1011E00009090602FF80808080808080808003095A
:1011F000090601FF80404040204040408005030335
:1012000006000248A890FFFFFFFFFFFFFFFFFFFF60
:10121000FFFFFFFFFFFFFFFFFFFFFFFFFFFFFFFFDE
:10122000FFFFFFFFFFFFFF0000000605FF010707AC
:10123000060200800080808080800507070600FF8E
:101240002070A8A0A87020050707060000304840BD
:10125000E04048B0050505060000A8508850A805E4
:1012600007070600008850F820F82020010707062D
:1012700002008080800080808004080806010070E1
:10128000806090906010E0030101060107A006074E
:10129000070600007884B4A4B48478030505060129
:1012A0000460A06000E00505050600002850A0507D
:1012B00028050303060001F80808030101060103DD
:1012C000E00607070600007884B4A4A4847805012A
:1012D00001060007F804040406010560909060050B
:1012E00007070600002020F8202000F80305050667
:1012F000010440A02040E0030505060104C0204091
:1013000020C00303030601052040800507070600EF
:10131000FE88888898E8808005080806000078E83C
:10132000E8E868282828020202060203C0C0030277
:10133000020601FE20C003050506010440C040402E
:10134000E003050506010540A04000E0050505068F
:101350000000A0502850A0050A0A06000040C0481E
:10136000506050B0507810050A0A06000040C0488E
:10137000506050A8081038050A0A060000C020482E
:1013800030E050B05078100507070600002000201C
:1013900020408870050A0A060000402000708888F6
:1013A000F8888888050A0A060000102000708888DE
:1013B000F8888888050A0A0600002050007088888E
:1013C000F8888888050A0A06000068B000708888D6
:1013D000F88888880509090600005000708888F898
:1013E000888888050A0A060000205020708888F83E
:1013F00088888805070706000078A0A0F0A0A0B89C
:101400000509090600FE70888080808870106005DC
:101410000A0A060000402000F88080F08080F8056D
:101420000A0A060000102000F88080F08080F8058D
:101430000A0A060000205000F88080F08080F8053D
:1014400009090600005000F88080F08080F8030A47
:101450000A060100804000E04040404040E0030AAE
:101460000A060100204000E04040404040E0030AFE
:101470000A06010040A000E04040404040E003096F
:1014800009060100A000E04040404040E005070799
:10149000060000704848E8484870050A0A0600003F
:1014A00068B0008888C8A8988888050A0A060000DD
:1014B00040200070888888888870050A0A06000025
:1014C00010200070888888888870050A0A06000045
:1014D00020500070888888888870050A0A060000F5
:1014E00068B000708888888888700509090600003F
:1014F0005000708888888888700505050600018876
:10150000502050880509090600FF087098A8A8A86F
:10151000C87080050A0A0600004020008888888874
:10152000888870050A0A06000010200088888888CC
:10153000888870050A0A060000205000888888887C
:101540008888700509090600005000888888888806
:101550008870050A0A0600001020008888502020A4
:10156000202004070706010080E0909090E08005AD
:101570000707060000708890A09088B0050808064C
:1015800000004020007008788878050808060000F0
:1015900010200070087888780508080600002050A0
:1015A00000700878887805080806000068B00070A8
:1015B00008788878050707060000500070087888CA
:1015C0007805080806000020502070087888780503
:1015D0000505060000702870A0780507070600FEC4
:1015E00070888088701060050808060000402000A0
:1015F0007088F080700508080600001020007088D0
:10160000F080700508080600002050007088F08007
:101610007005070706000050007088F0807003080E
:1016200008060100804000C0404040E00308080672
:101630000100204000C0404040E0030808060100CF
:1016400040A000C0404040E0030707060100A000A2
:10165000C0404040E00509090600005020500878CD
:101660008888887005080806000068B000B0C8883F
:101670008888050808060000402000708888887067
:10168000050808060000102000708888887005088A
:101690000806000020500070888888700508080639
:1016A000000068B000708888887005070706000091
:1016B000500070888888700505050600012000F834
:1016C00000200505050600007898A8C8F005080860
:1016D00006000040200088888888700508080600F9
:1016E00000102000888888887005080806000020FF
:1016F0005000888888887005070706000050008819
:1017000088888870050A0A0600FE102000888888EC
:10171000502040800509090600FE8080F0888888F6
:10172000F080800509090600FE5000888888502056
:101730004080526563757065722E20706F722069EB
:101740006E746572722E00436F6E666967757261A2
:101750006369C3B36E004675656E746520616C691C
:101760006D656E74616369C3B36E0047656E6572C3
:1017700069630050726F746F636F6C6F00312E304D
:101780000042617564696F73003131353230300069
:1017900068747470733A2F2F7777772E616C696550
:1017A0007870726573732E636F6D2F6974656D2F1A
:1017B00033323936353430363339362E68746D6C01
:1017C000005A4F4E4553544152205A5249425F5697
:1017D0003600544954414E204558545255444552C0
:1017E000004E6976656C616E646F2042696C696E4B
:1017F00065616C004578747275736F7265730077FC
:1018000077772E7A6F6E657374617233642E636FAF
:101810006D005A394D3300323032302D30382D3191
:101820003500322E302E352E340056352E300054F1
:1018300065726D6973746F72657300496E666F2EA1
:1018400020436F6E74726F6C61646F7200496E66D4
:101850006F2E20496D707265736F7261004D31306B
:10186000303000446574656E657220696D70726514
:101870007369C3B36E005265616E756461722069ED
:101880006D7072657369C3B36E00417472C3A173E6
:101890000050617261720053442F555342206E6FA5
:1018A0002070726573656E7465004D32310043615E
:1018B0006D626961722053442F5553420043616D3C
:1018C000626961722066696C616D656E746F00415A
:1018D0006A75737461720041636572636120646547
:1018E00020496D707265736F72610050616E746132
:1018F0006C6C6120646520496E662E00496E6963D8
:1019000069617220696D7072657369C3B36E004955
:101910006D7072696D69720043616E6E6F742065DF
:101920006E746572207375626469723A2000022ECB
:101930002E0044657366617365205A00416A7573B1
:10194000746573206176616E7A61646F73004445DB
:10195000534341524741522046494C414D454E5414
:101960004F0043414D424941522046494C414D456B
:101970004E544F004732380A473239204E33004325
:1019800061746368205A204F666673657400436112
:101990007267617220454550524F4D005265737415
:1019A0002E2066C3A162726963610047756172642B
:1019B000617220454550524F4D0050726563616C15
:1019C000656E7461722041425320416A757374657B
:1019D0000050726563616C656E74617220504C4199
:1019E00020416A757374650053656E736F7220646D
:1019F00065207365636369C3B36E00526574726179
:101A00006572004D36303020423020542569004D3B
:101A100037303120542569004D3730322054256944
:101A2000004465736361726761722066696C2E2081
:101A30002A004D373032004465736361726761720A
:101A400020746F646F004361726761722066696C15
:101A5000616D656E746F202A0043616D6269617209
:101A60002066696C616D656E746F202A00436F6E2D
:101A700074696E75617220696D702E0050757267A1
:101A80006172206DC3A173004F50432E205245490F
:101A90004E4943494F3A00494D5052455349C3932B
:101AA0004E2050415553414441002020426F7175F2
:101AB000696C6C613A200052756E617761792057CC
:101AC000617463683A204F46460031333000424526
:101AD000443A5A6F6E6573746172202854726F6E47
:101AE000787920583341290052756E6177617920E9
:101AF00057617463683A204F4E0054656D702E2014
:101B00004DC3A178696D61003237350054656D7041
:101B10002E204DC3AD6E696D610045313A205A6F7C
:101B20006E6573746172202854726F6E78792058D4
:101B3000334129004170617263616E646F2E2E2EF5
:101B40000000004573706572616E646F2070617291
:101B50006100696E696369617220656C2063616D03
:101B600062696F0064652066696C616D656E746F93
:101B7000004573706572652070617261006C696206
:101B80006572617220656C2066696C616D656E744A
:101B90006F000043616C656E74616E646F20626FEC
:101BA0007175696C6C610045737065726520706F4A
:101BB00072206661766F722E2E2E000050756C7347
:101BC0006520656C20626F74C3B36E2070617261B2
:101BD0000063616C656E746172206C6120626F716C
:101BE00075696C6C610000496E736572746520657F
:101BF0006C2066696C616D656E746F00792070751C
:101C00006C736520656C20626F74C3B36E00706185
:101C1000726120636F6E74696E7561722E2E2E0074
:101C20005761697420666F720066696C616D656EDC
:101C300074206C6F6164000050756C736172206574
:101C40006C20626F74C3B36E207061726100726544
:101C5000616E7564617220696D7072657369C3B37A
:101C60006E00004573706572616E646F20696D70FF
:101C70007265736F72610070617261207265616E6E
:101C8000756461722E2E2E0000457370657265209A
:101C9000706172610070757267617220656C206698
:101CA000696C616D656E746F00004572726F7220B1
:101CB00077726974696E6720746F20454550524F82
:101CC0004D210A00627573793A20706175736564FD
:101CD00020666F7220696E7075740A006275737980
:101CE0003A2070617573656420666F722075736544
:101CF000720A00627573793A2070726F636573734C
:101D0000696E670A004D363030005072696E746536
:101D1000722073746F707065642064756520746FD1
:101D2000206572726F72732E204669782074686520
:101D3000206572726F7220616E6420757365204D2C
:101D400039393920746F20726573746172742E2072
:101D50002854656D706572617475726520697320B1
:101D600072657365742E20536574206974206166F2
:101D70007465722072657374617274696E67290A82
:101D8000004E6F20436865636B73756D20776974CF
:101D900068206C696E65206E756D6265722C204CD2
:101DA000617374204C696E653A2000636865636BEB
:101DB00073756D206D69736D617463682C204C615F
:101DC0007374204C696E653A20004C696E65204E34
:101DD000756D626572206973206E6F74204C61733B
:101DE00074204C696E65204E756D6265722B312CC6
:101DF000204C617374204C696E653A20004D31317E
:101E0000300053442072656164206572726F720AFB
:101E1000002121204B494C4C20636175736564207F
:101E20006279204B494C4C20627574746F6E2F7030
:101E3000696E0A002121204B494C4C206361757367
:101E4000656420627920746F6F206D756368206906
:101E50006E6163746976652074696D65202D2063F9
:101E6000757272656E7420636F6D6D616E643A2079
:101E700000506F72206661766F722C207265696EF9
:101E80006963696500494D505245534F52412044A2
:101E90004554454E4944410025533A202553004DB1
:101EA0005545525441005072696E746572206861E4
:101EB0006C7465642E206B696C6C28292063616CDE
:101EC0006C6564210A003C3D38033637260E2E30FF
:101ED0003E12131A1C1824221E28271608440A062C
:101EE00043080906000156656C2E207669616A6513
:101EF000206D696E00566D696E00566D61782045E3
:101F000000566D6178205A00566D61782059005650
:101F10006D61782058004163656C2E206D617845B5
:101F2000004163656C2E206D61785A004163656CD9
:101F30002E206D617859004163656C2E206D6178AB
:101F400058004163656C2E205669616A65004163E3
:101F5000656C2E207265747261632E004163656C3E
:101F60006572616369C3B36E004A756E6374696FAD
:101F70006E204465760050726F62652059204F666E
:101F8000667365740050726F62652058204F6666F4
:101F9000736574002062797465733B2063726320FB
:101FA0000053657474696E67732053746F7265644F
:101FB000202800454550524F4D206461746173697B
:101FC0007A65206572726F722E0A002073746F72C8
:101FD00065642073657474696E67732072657472CA
:101FE0006965766564202800202863616C63756CE0
:101FF0006174656429210A0020213D200045455077
:10200000524F4D20435243206D69736D6174636874
:10201000202D202873746F726564292000496E6436
:1020200065783A2000204D61726C696E3D563736F6
:10203000290A00454550524F4D2076657273696FED
:102040006E206D69736D6174636820284545505238
:102050004F4D3D00454550524F4D20496E697469C2
:10206000616C697A65640A0048617264636F6465D3
:10207000642044656661756C742053657474696E80
:102080006773204C6F616465640A003B20000000A8
:10209000FA430000FA430000A0400000C8410000DD
:1020A000A0420000A0420000C8430000DC43B80B7F
:1020B0000000B80B0000640000001027000042651B
:1020C00064204C6576656C696E6720004661696CBA
:1020D000656420746F20656E61626C652042656482
:1020E000204C6576656C696E670A00496E76616C96
:1020F0006964206D6573682E0A00536F6E646561B4
:10210000722050756E746F0025532025692F256944
:102110000050726F62696E67206D65736820706F22
:10212000696E7420006361746368206F666673650E
:10213000742C20444F4E4521006661696C2C204D63
:102140006F76652075702050726F62652100546F44
:10215000206361746368206F66667365740020286D
:1021600044525952554E2900473239204175746FF7
:1021700020426564204C6576656C696E67003F207F
:10218000284C2C522C462C4229206F7574206F66E7
:1021900020626F756E64732E0A003F28562965729F
:1021A000626F7365206C6576656C20696D706C611B
:1021B000757369626C652028302D34292E0A00421F
:1021C0006164205A2076616C75650A004E6F20624A
:1021D000696C696E65617220677269640A00204DDE
:1021E000393220580020204D61783A200020204DBF
:1021F000696E3A2000536F667420656E6473746F65
:1022000070733A2000252900257C00203B2043756F
:102210007272656E74205A00203B20456E64002067
:102220003B205374617274004772616469656E7417
:10223000204D6978200052616E646F6D204D697881
:102240002000507265737320627574746F6E207411
:102250006F2068656174206E6F7A7A6C650A004D34
:1022600032342053256C642054256C640047393285
:102270002E39204525730047312046256400473913
:10228000322E39205A2573004731205A30204632E9
:1022900030300047312058257320592573204633AC
:1022A000303030004D34323020532569205A2573A8
:1022B000004D3130362050256920532569004D31BD
:1022C000303920532569004D3139302053256900BC
:1022D0004D32303020442573004739322E392045A5
:1022E000305A300A4D313039205430205331353096
:1022F0000A4731205A320A47323852305859004D75
:10230000343230205330205A300020496E76616CD0
:102310006964206578747275646572200020496E66
:1023200076616C69642045207374657070657220F5
:102330000020452073746570706572206E6F742084
:102340007370656369666965640A0045207061732E
:102350006F732F6D6D005A207061736F732F6D6DE9
:102360000059207061736F732F6D6D00582070617C
:10237000736F732F6D6D00496E6963696172004DF3
:1023800034323800496E696369616C697A61722020
:10239000454550524F4D0046696C616D656E746FD6
:1023A000005061736F732F6D6D0050726F62652006
:1023B0004F666673657473004A65726B00416363B0
:1023C000656C00416A75737461722064657366613F
:1023D0007365730053696775656E74652045737125
:1023E00075696E61004C6973746F00536967756934
:1023F0006E7465004F726967656E2058595A0044C3
:102400006573526574205600446573526574206D7F
:102410006D004C6576616E746172206D6D00526561
:102420007472616572202056005265747261657223
:10243000206D6D005265747261636369C3B36E2071
:102440004175746F2E00453100626564002C207365
:10245000797374656D2073746F70706564212048A2
:1024600065617465725F49443A2000206454657266
:102470006D200020695465726D20002070546572D3
:102480006D2000204F757470757420003A20496EDD
:102490007075742000205049445F444542554720E0
:1024A0000043616C656E742E2066616C6C69646FAC
:1024B0000048656174696E67206661696C656400D7
:1024C000465547412054C389524D49434100546801
:1024D00065726D616C2052756E6177617900202D97
:1024E00020496E76616C69642065787472756465E4
:1024F00072206E756D62657220210A004572723A13
:1025000054454D502E204DC38158004D41585445DF
:102510004D50207472696767657265640045727218
:102520003A54454D502E204D494E004D494E54458C
:102530004D5020747269676765726564004D383468
:1025400020582059205A204500202F002042403A90
:102550000020403A001000C902E0002C01000122D6
:10256000013001180170010E01B0010401F001FAFF
:10257000005002F000F002E6009003DC004004D2BC
:10258000004005C8004006BE000008B400B009AA1B
:1025900000D00BA000600E960060118C0000158228
:1025A0000020197800C01D6E00A0226400B0275AD8
:1025B00000902C500000314600E0343C00103832CE
:1025C00000903A2800603C1E00A03D1400803E0AA6
:1025D00000203F00004469737420646520736563C4
:1025E000632E206D6D004361726761206D6D004444
:1025F00065736361726761206D6D0046696C2E20A2
:102600004469612E004520656E206D6DC2B3004D9A
:10261000333033205531204525692053256900503A
:102620004944204175746F74756E65202A005049C5
:10263000442D44202A005049442D49202A00504965
:10264000442D50202A00020000000000000000007D
:10265000000000000000000000000000000000007A
:10266000000000000000000000000000000000006A
:102670000000000000000007FFC3FF870187FF0F75
:10268000FCFFFC1E01FF8007FFC3FF87018FFF1FB8
:10269000FCFFFC1E03FFC00000C600C7018C001831
:1026A000000300618300C00001C600C7C18C001890
:1026B000000300618300C000038600C6C18C0018BF
:1026C000000301806300C000070600C6618C00188B
:1026D000000301806300C0000E0600C6618C001874
:1026E000000301806300C0001C0600C6318FFE1F7E
:1026F000F803018063FFC000380600C6318FFE0F6B
:10270000FC03018063FF8000700600C6198C000086
:102710000C0301FFE30C0000E00600C6198C00006A
:102720000C0301FFE3070001C00600C60D8C00008A
:102730000C03018063018003800600C60D8C00003D
:102740000C03018063018007000600C6078C0000AF
:102750000C03018063018006000600C6078C0000A0
:102760000C03018063018007FFC3FF86038FFF1FF7
:10277000FC03018063018007FFC3FF860387FF1FFF
:10278000F8030180630180000000000000000000E9
:102790000000000000000000000000000000000039
:1027A0000000000000000000000000000000000029
:1027B0000000000000000000000000000000000019
:1027C000000000000000004D313030302053002068
:1027D00020506C616E6E65724275666665724279F4
:1027E0007465733A20002046726565204D656D6FF3
:1027F00072793A2000436F6D70696C65643A2041CC
:10280000756720313720323032300A00204C617336
:102810007420557064617465643A20323032302D12
:1028200030382D3135207C20417574686F723A2024
:10283000285A4F4E45535441522C2048616C6C79B4
:10284000290A00322E302E352E340A004D61726C6A
:10285000696E0020536F66747761726520526573EC
:1028600065740A00205761746368646F672052655D
:102870007365740A002042726F776E206F75742042
:1028800052657365740A002045787465726E616CD8
:102890002052657365740A00506F77657255700A2F
:1028A000006175746F25632E6700473238585900F0
:1028B0004D31303031006572726F722077726974F9
:1028C000696E6720746F2066696C650A00446F6EDC
:1028D0006520736176696E672066696C652E0A00F3
:1028E0004D323900456E6473746F70730025532048
:1028F00025632025632025632025630020503A00AE
:1029000020583A00656E6473746F70732068697440
:102910003A200024F4D43050C38E20C2A240178243
:102920008B7011127A910D816CD90AA861E108C7E8
:10293000586607615143061E4B5D05C145A7041A41
:10294000411104093D9803713931034036DB0265BA
:10295000339102D4305402802E1D02632CEE017597
:102960002AC501B028A001102781018F2564012B01
:10297000244B01E0223401AC211F018D200D018088
:102980001FFC00841EED00971DDF00B81CD200E67E
:102990001BC600201BBC00641AB200B219A8000AB2
:1029A00019A0006A189900D117910040178B00B543
:1029B00016840031167E00B31579003A157300C7EE
:1029C000146F0058146A00EE136600881363002524
:1029D000135E00C7125B006C12570015125400C141
:1029E00011510070114F0021114B00D61049008D7C
:1029F0001047004610440002104200C00F40008003
:102A00000F3E00420F3C00060F3B00CB0E380093F8
:102A10000E37005C0E3500270E3400F30D3200C176
:102A20000D3100900D3000600D2E00320D2D00058F
:102A30000D2C00D90C2B00AE0C2900850C29005C54
:102A40000C2700350C27000E0C2600E80B2400C4D0
:102A50000B2400A00B23007D0B23005A0B2100390F
:102A60000B2100180B2000F80A1F00D90A1E00BB1A
:102A70000A1E009D0A1D00800A1D00630A1C0047F3
:102A80000A1B002C0A1B00110A1A00F7091A00DDA4
:102A9000091900C4091900AB091900920917007B34
:102AA000091800630917004C0916003609160020A2
:102AB0000916000A091500F5081500E0081400CCF5
:102AC000081400B8081400A4081400900813007D2E
:102AD0000812006B08130058081200460812003450
:102AE000081100230811001208110001081100F05C
:102AF000071000E0071000D0071000C0071000B05A
:102B0000070F00A107100091070E0083070F007444
:102B1000070F0065070E0057070E0049070E003B20
:102B2000070D002E070E0020070D0013070D0006ED
:102B3000070D00F9060C00ED060D00E0060C00D4B0
:102B4000060C00C8060C00BC060C00B0060C00A465
:102B5000060B0099060C008D060B0082060B007711
:102B6000060B006C060B0061060A0057060B004CB2
:102B7000060A0042060A0038060A002E060A002449
:102B8000060A001A060A001006090007060A00FDD8
:102B9000050900F4050900EB050900E2050900D963
:102BA000050900D0050900C7050900BE050900B5E3
:102BB000050800AD050800A50509009C050800945E
:102BC0000508008C050800840508007C05080074D1
:102BD0000508006C050700650508005D050700563F
:102BE0000508004E050700470507004005080038A6
:102BF000050700310507002A050700230507001C0B
:102C0000050600160507000F050700080506000267
:102C1000050700FB040600F5040700EE040600E8C3
:102C2000040600E2040700DB040600D5040600CF1A
:102C3000040600C9040600C3040600BD040600B76C
:102C4000040600B1040500AC040600A6040600A0BA
:102C50000405009B04060095040500900406008A04
:102C600004050085040500800406007A040500754B
:102C7000040500700405006B04050066040500618E
:102C80000405005C04050057040500520405004DCE
:102C900004050048040500430405003E0404003A0E
:102CA00004050035040500300404002C0405002749
:102CB000040400230405001E0404001A0404001682
:102CC000040500110404000D0404000904050004B7
:102CD00004040000040400FC030400F8030400F4EE
:102CE000030400F0030400EC030400E8030400E420
:102CF000030400E0030400DC030400D8030400D450
:102D0000030400D0030400CC030400C8030300C57F
:102D100003030024F404D9201BC40C5C0E9804C4E3
:102D2000095F0265077101F405F900FB04B300486F
:102D3000048700C10369005803550003034500BE22
:102D4000023A008402310053022A002902250004BD
:102D5000022000E4011C00C8011900AF011700980F
:102D60000114008401130071011000610110005171
:102D7000010E0043010D0036010B002B010B00205A
:102D8000010B00150109000C01090003010800FBFB
:102D9000000800F3000800EB000700E4000600DE76
:102DA000000600D8000600D2000600CC000500C7CF
:102DB000000500C2000500BD000400B9000400B514
:102DC000000400B1000400AD000400A9000400A547
:102DD000000300A20003009F0004009B0003009872
:102DE0000003009500020093000300900003008D93
:102DF0000002008B000300880002008600020084AD
:102E0000000300810002007F0002007D0002007BC1
:102E100000020079000200770001007600020074D1
:102E200000020072000100710002006F0002006DDC
:102E30000001006C0002006A0001006900020067E6
:102E400000010066000100650001006400020062EC
:102E500000010061000100600001005F0002005DF0
:102E60000001005C0001005B0001005A00010059F4
:102E700000010058000100570001005600010055F4
:102E800000010054000100530000005300010052F3
:102E900000010051000100500001004F0001004EF0
:102EA0000000004E0001004D0001004C0001004BED
:102EB0000000004B0001004A0001004900010048E9
:102EC00000000048000100470001004600000046E5
:102ED00000010045000000450001004400010043DE
:102EE00000000043000100420000004200010041D8
:102EF00000000041000100400001003F0000003FD1
:102F00000001003E0000003E0001003D0000003DC9
:102F10000001003C0000003C0000003C0001003BC0
:102F20000000003B0001003A0000003A00010039B7
:102F300000000039000100380000003800000038AF
:102F400000010037000000370001003600000036A5
:102F5000000000360001003500000035000000359B
:102F60000001003400000034000000340001003390
:102F70000000003300000033000100320000003286
:102F8000000000320001003100000031000000317B
:102F90000001003000000030000000300001002F70
:102FA0000000002F0000002F0000002F0001002E65
:102FB0000000002E0000002E0001002D0000002D5A
:102FC0000000002D0000002D0001002C0000002C4E
:102FD0000000002C0000002C0001002B0000002B42
:102FE0000000002B0000002B0001002A0000002A36
:102FF0000000002A0000002A00010029000000292A
:10300000000000290000002900000029000100281C
:103010000000002800000028000000280000002810
:103020000001002700000027000000270000002703
:1030300000000027000100260000002600000026F6
:1030400000000026000000260001002500000025E9
:1030500000000025000000250000002500000025DC
:1030600000010024000000240000002400000024CF
:1030700000000024000100230000002300000023C2
:1030800000000023000000230000002300000023B4
:1030900000010022000000220000002200000022A7
:1030A0000000002200000022000100210000002199
:1030B000000000210000002100000021000000218C
:1030C000000000210001002000000020000000207E
:1030D0000000002000000020000000200000002070
:1030E000000000200001001F0000001F0000001F62
:1030F0000000001F0000001F0000001F0000001F54
:103100000001001E0000001E0000001E0000001E46
:10311000000000A42C0000841E0000B012000087F4
:103120000A00009E050000E90200007B010000BFCC
:1031300000000020423A0020436F756E7420413A2F
:10314000000020746F6F206C6F6E6720657874725A
:103150007573696F6E2070726576656E7465640A4A
:103160000000000000000000000000000000009BC4
:103170004300009B430000C8430000484200004851
:1031800042000080400202040000A0400000A04075
:1031900000000040FFFFFF5761726E696E673A20C2
:1031A000486F6D696E672042756D7020446976695D
:1031B000736F72203C20310A007C3C3E5E2B3D3F09
:1031C0002F5B5D3B2C2A225C0054656D706572613B
:1031D000747572610056656E74696C61646F72001B
:1031E000426F7175696C6C610056656C6F636964E0
:1031F0006164004D656EC3BA207072696E63697058
:10320000616C0050726563616C656E746172205010
:103210004C412046696E0050726563616C656E7446
:10322000617220504C412043616D610050726563B2
:10323000616C656E746172204142532046696E0074
:1032400050726563616C656E7461722041425320F7
:1032500043616D6100456E6672696172005072650E
:1032600063616C656E7461722041425300507265F7
:1032700063616C656E74617220504C41004D6963EE
:10328000726F7061736F205A00466C756A6F002010
:1032900053697A653A200043616E6E6F74206F70D7
:1032A000656E207375626469722000534420636107
:1032B0007264206F6B0A006F70656E526F6F7420BE
:1032C0006661696C65640A00766F6C756D652E6960
:1032D0006E6974206661696C65640A0053442069F4
:1032E0006E6974206661696C0A004D3234004D329B
:1032F000332025730046696C652073656C656374C3
:1033000065640A0046696C65206F70656E65643A95
:103310002000454E4420535542524F5554494E4586
:103320000A002220706F73002220706172656E7433
:103330003A2200535542524F5554494E452043417D
:103340004C4C207461726765743A2200747279691A
:103350006E6720746F2063616C6C207375622D67DB
:10336000636F64652066696C657320776974682093
:10337000746F6F206D616E79206C6576656C732E4D
:10338000204D4158206C6576656C2069733A310A8E
:103390000044656C6574696F6E206661696C656474
:1033A0002C2046696C653A200046696C652064658E
:1033B0006C657465643A0057726974696E6720744D
:1033C0006F2066696C653A200066726573680064F8
:1033D0006F696E67004E6F7720006563686F3A0013
:1033E0004572726F723A0042696C696E6561722053
:1033F0004C6576656C696E6720477269643A0A00AD
:103400002568753A25303268750025687564202571
:10341000303268753A25303268750020202020202F
:103420002020001FE020102010201010201020204D
:1034300010201030300840048003001FE03FF03FB0
:10344000F03FF01FE01FE03FF03FF03FF00FC007FC
:103450008003003FFFF038007030FC3020FC10206B
:1034600078102030102C00D02E31D02F7BD02F7B25
:10347000D02E31D02C00D020301020781020FC101D
:1034800030FC303800703FFFF03FFFF03800703103
:1034900086302387102787902F87D02F03D02030A6
:1034A000102078102078102030102F03D02F87D0D4
:1034B0002787902387103186303800703FFFF01F38
:1034C000FFF81FFFF8041040020820020820041033
:1034D0004008208010410010410008208004104066
:1034E0000000001FFFF81FFFF83300CC00CC1200D3
:1034F0004800481200480048120048004813FFCF17
:10350000FFC810000000081FFF83FFF8000FC7E08E
:1035100000000FEFE0000003EF80000001EF00006B
:1035200000006C000000000000004D69657A636CCB
:1035300061646F72003A202534642E2564206D6D1D
:10354000003F0043616E63656C61720044656772A1
:10355000616461646F20696E766572736F0020200C
:103560002046696E20486572722E5600496E696366
:10357000696F20486572722E560020202046696EC1
:10358000205A3A00496E6963696F205A3A004865CB
:1035900072722E56207265696E69636961646F7319
:1035A000005265696E6963696172004D657A636C8A
:1035B000612043C3AD636C696361005265696E69E4
:1035C0006369617220486572722E5600436F6D65A3
:1035D000746572206D657A632E20486572722E566E
:1035E00000436F6D706F6E656E7465203D004163C2
:1035F000746976617220486572722E56006F70652C
:103600006E206661696C65642C2046696C653A20A1
:103610000020453A0020593A004D6F76696D696582
:103620006E746F0041706167617200456E63656E14
:1036300064657200616C6561746F726961206D65AB
:103640007A636C61003A2064697361626C65003A68
:1036500020656E61626C65004465677261646164D7
:103660006F0045737461626C65636572206D657A85
:10367000636C61004D383400417061676172206D88
:103680006F746F726573004E6976656C616E646FFE
:103690002043616D61004732380A473239004E6974
:1036A00076656C61722043616D61004E6976656C70
:1036B00061722045737175696E6173004732385AC3
:1036C000004F726967656E205A0047323859004FC3
:1036D000726967656E20590047323858004F726929
:1036E00067656E205800473238004C6C6576617211
:1036F00020616C206F726967656E00496D70726938
:103700006D2E2064657364652053442F5553420029
:103710004D6F7665722025736D6D004D6F76657205
:1037200020302E316D6D004D6F76657220316D6DDC
:10373000004D6F7665722031306D6D004D6F76658E
:103740007220656A6573004578747275736F7200D4
:103750004D6F766572205A004D6F76657220590064
:103760004D6F76657220580000002100240027006C
:103770002A002D0030003300010100000401070180
:103780000A0100002200250028002B002E00310035
:10379000340002010000050108010B0100002000B7
:1037A0002300260029002C002F0032000001000019
:1037B00003010601090105050505070508080808B4
:1037C000020202020A0A08080404040401010101B9
:1037D00001010101030303030303030304070707B4
:1037E0000C0C0C0C0C0C0C0C020202020606060659
:1037F000060606060B0B0B0B0B0B0B0B0102102026
:103800002008081020401020408002010201080416
:1038100002010102040810204080804020100804AA
:103820000201800402018040201008040201080403
:103830000201010204081020408001020408102047
:10384000408000000A0B02090C0D0E08070304015A
:103850000000000000000000000000000000000068
:103860000000000000000000000000000000121135
:103870001000000000000000000000000000000038
:103880000000000000000000506175736172206943
:103890006D7072657369C3B36E00496D7072657344
:1038A00069C3B36E2063616E63656C616461004DD2
:1038B000323500205A3A200020593A2000426564EF
:1038C00020583A2000496D7072657369C3B36E2049
:1038D000506175736164610050726F62696E672038
:1038E0004661696C65640A00536F6E64656F2046BB
:1038F000616C6C61646F004F726967656E2025733F
:1039000025732573205072696D65726F00496E735F
:103910006572742066696C616D656E7420616E6499
:1039200020707265737320627574746F6E0A002064
:10393000573A005A394D33206C6973746100496DF0
:103940007072696D69656E646F2E2E2E00220A00FA
:10395000556E6B6E6F776E20636F6D6D616E643A3E
:1039600020220020520020204D363033200020201D
:103970004D34313220530046696C616D656E7420A0
:1039800072756E6F75742073656E736F723A002076
:10399000550046696C616D656E74206C6F61642FB3
:1039A000756E6C6F6164206C656E677468733A0045
:1039B00020204D3835312058005A2D50726F6265E5
:1039C000204F66667365740020204D3230392053D5
:1039D000004175746F2D526574726163743A20539F
:1039E0003D3020746F2064697361626C652C2031F6
:1039F00020746F20696E7465727072657420452D35
:103A00006F6E6C79206D6F766573206173207265BF
:103A100074726163742F7265636F76657200202023
:103A20004D3230382053005265636F7665723A200C
:103A3000533C6C656E6774683E20463C756E6974D5
:103A4000732F6D3E0020570020204D323037205319
:103A500000526574726163743A20533C6C656E6702
:103A600074683E20463C756E6974732F6D3E205A13
:103A70003C6C6966743E0020204D34313320530085
:103A8000506F7765722D4C6F7373205265636F763C
:103A90006572793A0020204D333031205000504972
:103AA000442073657474696E67733A002046002081
:103AB000480020204D3134352053004D617465722B
:103AC00069616C2068656174757020706172616DE8
:103AD00065746572733A00202047323920572049B7
:103AE0000020204D3432302053004175746F204245
:103AF0006564204C6576656C696E673A0020204DE0
:103B0000323036205800486F6D65206F66667365E9
:103B1000743A00204A0020204D32303520420041C6
:103B20006476616E6365643A20423C6D696E5F73D2
:103B300065676D656E745F74696D655F75733E2052
:103B4000533C6D696E5F66656564726174653E20A5
:103B5000543C6D696E5F74726176656C5F66656515
:103B600064726174653E204A3C6A756E635F646589
:103B7000763E0020540020204D3230342050004149
:103B80006363656C65726174696F6E2028756E6918
:103B900074732F7332293A20503C7072696E745FCF
:103BA000616363656C3E20523C726574726163743C
:103BB0005F616363656C3E20543C74726176656C32
:103BC0005F616363656C3E0020204D3230312058C8
:103BD000004D6178696D756D20416363656C657238
:103BE0006174696F6E2028756E6974732F73322942
:103BF0003A0020204D3230332058004D6178696DF5
:103C0000756D206665656472617465732028756ED4
:103C10006974732F73293A0053746570732070654B
:103C20007220756E69743A0020204D323030204485
:103C3000300A0020204D3230302044002044697387
:103C400061626C65640A0046696C616D656E742022
:103C500073657474696E67733A0020204D3134398E
:103C60002043203B20556E69747320696E204365A4
:103C70006C736975730A0020286D6D290020204738
:103C80003231202020203B20556E69747320696EEC
:103C9000206D6D006F70656E005452494747455264
:103CA00045440066696C616D656E74007A5F707280
:103CB0006F6265007A5F6D696E00795F6D696E0095
:103CC000785F6D696E005265706F7274696E6720FF
:103CD000656E6473746F70207374617475730A0019
:103CE0004361703A003F5A206F7574206F662072EE
:103CF000616E67652028003F59206F7574206F66DC
:103D00002072616E676520282D003F58206F757402
:103D1000206F662072616E676520282D0050726FDB
:103D20006265204F6666736574205800656E717514
:103D3000657565696E672022006F6B00526573655B
:103D40006E643A200053442F5553422072657469C3
:103D50007261646F0053442F55534220696E73653E
:103D6000727461646F00D101730211241FBECFEF22
:103D7000D1E2DEBFCDBF00E00CBF13E0A0E0B2E0B7
:103D8000E4E4FAE802E00BBF02C007900D92AE3601
:103D9000B107D9F726E1AEE6B3E001C01D92AE3916
:103DA000B207E1F71EE1C4EBDEE100E006C02197B7
:103DB0000109802FFE010F946F42C33BD10780E0C1
:103DC0000807A9F70F94212C0D9410450C940000BE
:103DD0002F923F924F925F926F927F928F929F921B
:103DE000AF92BF92CF92DF92EF92FF920F931F9309
:103DF000CF93DF93CDB7DEB76F970FB6F894DEBFE2
:103E00000FBECDBF8F8F20910F152E8F11E0109315
:103E10000F158091F3158D3409F407C4843511F41E
:103E20000C947530873411F00C9496308091F11514
:103E30009091F2158B31910509F45EC1CCF4843078
:103E4000910509F415C11CF4029788F1EAC38B307F
:103E5000910509F44CC18531910511F40C94983009
:103E60000A9709F0DEC381E00E942AE30C9498309F
:103E70008A32910509F4F5C254F48D31910509F4A3
:103E800065C10CF453C14E9709F474C1CAC38B3594
:103E9000910509F430C28C35910509F431C28A3597
:103EA000910509F0BEC3109278030C94983080916C
:103EB0001F07813011F00C94983019821A821B82EE
:103EC0001C82CE0101965C01E3EAEE2EEDE0FE2EAF
:103ED00008EC10E1F8EDCF2EF0E1DF2E912C88E513
:103EE000890D0E944376F50181935F01882311F1CA
:103EF0000E943E732B013C01892D0E94607D882326
:103F000051F0F8012081318142815381C301B20116
:103F10000F94784209C0F60120813181428153819A
:103F2000C301B2010F947742F701608371838283EA
:103F300093830AC0F80180819181A281B381F70146
:103F400080839183A283B3839394F4E0EF0EF11CFA
:103F50000C5F1F4F24E0C20ED11C33E09312BFCF81
:103F600085E40E9443768C83882301F10E943E738E
:103F70006B017C0183E00E94607D882371F02091B9
:103F8000D4103091D5104091D6105091D710C70160
:103F9000B6010F9478426B017C01C092AF0DD092B4
:103FA000B00DE092B10DF092B20D10C08091D4101E
:103FB0009091D510A091D610B091D7108093AF0DED
:103FC0009093B00DA093B10DB093B20D80917C157C
:103FD000882381F08091AB1182FF0CC08C818823F3
:103FE00049F08981811103C08A81882319F080E01A
:103FF0000E94F57B40E050E0BA0186E40E944D3813
:1040000020E030E0A9010F94FB43181684F40E94CD
:104010003E7320E030E040E752E40F94FB426093AF
:104020006E0270936F028093700290937102809180
:104030005B15882311F40C94D33085E40E947173CE
:10404000882311F40C94D33088E50E947173811198
:104050000C94D33089E50E94717381110C94D33094
:104060008AE50E94717381110C94D3300C94A130B5
:1040700080E50E944376882329F00E94C1716B017C
:104080007C0103C0C12CD12C760183E50E944376CC
:10409000882361F00E943E7320E030E04AE754E458
:1040A0000F94E83B0F9474436B017C010E94E3BBC7
:1040B0008091AB14811105C060E089EB96E00F940C
:1040C00025150F94E60AC60ED71EE81EF91E0F949A
:1040D000E60ADC01CB018C199D09AE09BF09B7FDC9
:1040E00002C00C94983080E00E941851F0CF80E01C
:1040F0000E942AE30C9498300F94CD1A81110C94ED
:1041000098308CE0EEE7F2E0DE01119601900D921E
:104110008A95E1F760E070E080E50E94A084BE012E
:104120006F5F7F4F0F94A0100C94983080910D1505
:104130008770873011F00C94FE3060E08FE40E94AD
:104140006B7681110C9498300C94FE300F94CD1A3C
:1041500081110C9498308091BC0D882311F40C943B
:104160009B3160E08FE40E946B7681110C94983053
:104170000C949B312091011530910215409103154B
:10418000509104156091C8107091C9108091CA10A7
:104190009091CB100F947842AB01BC0188E50E944E
:1041A0004D3869837A838B839C83209105153091E8
:1041B000061540910715509108156091CC1070912B
:1041C000CD108091CE109091CF100F947842AB011A
:1041D000BC0189E50E944D386D837E838F8398876B
:1041E000BE016B5F7F4FCE0101960E94D171882383
:1041F00011F40C94983080E00E9454E60E94D4C3DD
:1042000061E085E40E946B7601E021E0482FBE0169
:104210006B5F7F4FCE0101960F94231B6B017C01D6
:104220009B01AC010F94794481115FC089809A8011
:10423000AB80BC8020E030E0A901C501B4010F943F
:10424000823B87FF05C027E137EB41E558EB04C00F
:1042500027E137EB41E558E3C501B4010F947842FB
:10426000AB01BC018DEB98E30E94A2E98D809E809A
:10427000AF80B88420E030E0A901C501B4010F94FB
:10428000823B87FF05C027E137EB41E558EB04C0CF
:1042900027E137EB41E558E3C501B4010F947842BB
:1042A000AB01BC0188EB98E30E94A2E920E030E07A
:1042B000A901C701B6010F94823B87FF05C067E1E2
:1042C00077EB81E598EB04C067E177EB81E598E354
:1042D000A70196010F947842AB01BC0183EB98E3F0
:1042E0000E94A2E98AE00E94EC4F0E94BBC30F9497
:1042F000441F0C9498308FE0809378030C9498308E
:104300008091F015882349F1893009F0A6C05AE957
:10431000A52E52E0B52E68ECE62E60E1F62ED12CEB
:1043200000E010E0F50181915F010E94437688234F
:1043300069F00E943E73F7016083718382839383E7
:10434000133011F401E002C0DD24D3941F5FF4E0C8
:10435000EF0EF11C143031F775C02AE9222E22E04D
:10436000322E37E9E32E3DE0F32E28EC30E13D8F8D
:104370002C8F48EDC42E40E1D42E00E010E0F10176
:1043800081911F010E944376882309F44AC00E944C
:104390003E732B013C01133049F0F601208131813D
:1043A000428153810F9477422B013C01EC8DFD8DAE
:1043B0002081318142815381C301B2010F94774240
:1043C0004B015C012DEB37E346E855EB0F94FB43C3
:1043D00087FD0AC02DEB37E346E855E3C501B4017C
:1043E0000F94823B1816ECF4133051F44092D41021
:1043F0005092D5106092D6107092D71001E011C083
:10440000A5019401F70160817181828193810F94EC
:104410007842F7016083718382839383812F0E94A6
:1044200099C01F5FF4E0EF0EF11C2C8D3D8D2C5FC9
:104430003F4F3D8F2C8F34E0C30ED11C143009F058
:104440009ECF05C0DD2019F00F94421F06C0002347
:1044500021F084ED90E10E94B0BE0F94441F0C94B3
:10446000983080911F07813011F00C94983089E4C6
:104470000E944376E82E882321F00E943A73082F89
:1044800001C000E08AE40E944376F82E882321F0E0
:104490000E943A73182F01C010E0EE2011F0043092
:1044A00020F4FF2041F0143030F083EC96E00E94BD
:1044B000DCE80C94983080E1E8ECF0E1A3EABDE0A0
:1044C00001900D928A95E1F7EE2019F1602F000F0F
:1044D000770B880B990B0F94893B20914B153091EA
:1044E0004C1540914D1550914E150F94E83B20917D
:1044F000F3033091F4034091F5035091F6030F94C8
:1045000078426093A30D7093A40D8093A50D9093B2
:10451000A60DFF2019F1612F110F770B880B990B56
:104520000F94893B20914F153091501540915115B2
:10453000509152150F94E83B2091F7033091F80306
:104540004091F9035091FA030F9478426093A70DBC
:104550007093A80D8093A90D9093AA0D60E080E55B
:104560000E946B768823C1F1EE20D1F020910115D5
:104570003091021540910315509104156091A30DDF
:104580007091A40D8091A50D9091A60D0F94774286
:104590006093A30D7093A40D8093A50D9093A60D29
:1045A000FF20D1F020910515309106154091071597
:1045B000509108156091A70D7091A80D8091A90DDB
:1045C0009091AA0D0F9477426093A70D7093A80D58
:1045D0008093A90D9093AA0D40E050E0BA0186E4C3
:1045E0000E944D386B017C0120E030E0A9010F945E
:1045F000FB4318164CF420E030E040E752E4C701DA
:10460000B6010F94FB4203C060E070E0CB01698308
:104610007A838B839C83CE0101960E94F3C30C9412
:1046200098300F9419170C9498308091F11590914F
:10463000F2158B39910509F4A1C50CF00EC1823534
:10464000910509F4C1C50CF08DC08A31910509F4BA
:1046500011C39CF58431910509F483C27CF4813146
:10466000910509F46AC22CF4029708F42EC20C9446
:104670007230429709F4B6C50C94723087319105B7
:1046800009F494C28CF48531910509F48BC24697E4
:1046900011F00C9472300E94EFD78091AB11877F9C
:1046A0008093AB110C9498308831910509F493C232
:1046B000499709F4CBC20C9472308032910509F409
:1046C00051C3F4F48D31910509F435C384F48B3171
:1046D000910509F4DDC24C9711F00C947230809171
:1046E000EE159091EF150E94F9DA0C9498308E3106
:1046F000910509F427C34F9709F45DC30C947230F8
:104700008C34910509F41BC46CF48A32910509F4C8
:10471000FDC38B34910511F00C9472300F940C0E84
:104720000C9498308D34910509F40DC481359105B0
:1047300011F00C9472300E940E8F0F94570E0E944D
:10474000F4BB0E94A54E60E085ED97E00F9425151F
:1047500068EE73E080E090E00E94B8E80E94CC4EE2
:104760000C9498308F36910509F46DC4BCF58936E8
:10477000910509F417C4CCF48535910509F45EC59B
:1047800054F48335910509F426C58435910509F45F
:1047900029C50C9472308C35910509F472C58836A0
:1047A000910509F4D4C30C9472308C36910509F448
:1047B0008FC454F48A36910509F408C48B369105E8
:1047C00009F423C40C9472308D36910509F4D5C3D5
:1047D0008E36910509F424C40C9472308637910505
:1047E00009F459C6CCF48237910509F4D4C554F4C0
:1047F0008037910509F472C48137910509F47BC4AF
:104800000C9472308337910509F4CCC58537910536
:1048100009F431C60C9472308937910509F479C6D0
:1048200094F48737910509F471C68837910511F022
:104830000C94723081E08093B6048093B5040F9499
:1048400028200C9498308C38910509F479C481396A
:10485000910509F465C60C9472308039E1E09E0739
:1048600011F40C94B42E0CF082C08E3C910511F41E
:104870000C94592CB4F58E3B910509F47CC4C4F416
:10488000843A910509F4D5C634F4833A910509F4C4
:10489000A2C60C947230863A910509F4DDC6873AB7
:1048A000910511F00C9472300E94B3840C949830EE
:1048B0008B3C910509F49FC754F4883C910509F499
:1048C000CEC6893C910509F414C70C9472308C3C17
:1048D000910509F4AFC78D3C910509F4DCC70C9430
:1048E00072308D3D910511F40C943C2DF4F4813D12
:1048F000910511F40C94052D64F48F3C910511F48D
:104900000C94772C803D910511F40C94BB2C0C94E5
:104910007230833D910511F40C94122D8C3D91055C
:1049200011F40C94152D0C9472308C3221E0920706
:1049300011F40C941F2E64F4823E910511F40C9432
:10494000912D8232914011F40C94DD2D0C94723033
:104950008D32F1E09F0711F40C94342E8F32914088
:1049600011F00C9472300E9464380C949830873F98
:1049700031E0930711F40C948E2F0CF04FC0843A61
:10498000F1E09F0711F40C94C72E2CF58A3931E021
:10499000930709F4ACC394F48139F1E09F0711F453
:1049A0000C94B72E8239914011F00C94723080E053
:1049B0000E94F0A80F94441F0C9498308C3931E079
:1049C000930711F40C94BD2E8D39914011F40C9481
:1049D0003E300C947230843FF1E09F0711F40C9448
:1049E000882F6CF4853A31E0930711F40C94CA2EA9
:1049F0008C3A914011F40C942B2F0C947230853F1B
:104A0000F1E09F0711F40C948B2F863F914011F039
:104A10000C9472300E94225D0C9498308E3B32E0F0
:104A2000930711F40C942A301CF58835F2E09F07A7
:104A300011F40C94AF2F6CF4883F31E0930711F41C
:104A40000C94962F8C30924011F40C94A72F0C9458
:104A500072308B35F2E09F0711F40C94B22F8D3B2E
:104A6000924011F00C9472300E949D800C9498300A
:104A7000873E33E0930711F40C943030CCF4833547
:104A8000F3E09F0711F40C942D30803A934011F01D
:104A90000C9472302091EE153091EF159091AB117E
:104AA00092609093AB11C9010E94F9DA0C9498308E
:104AB000883E33E0930711F40C945530893E9340BF
:104AC00011F40C9458300C94723080E50E944376B7
:104AD000882329F00E94C1716B017C0103C0C12CA5
:104AE000D12C760183E50E944376882361F00E94F1
:104AF0003E7320E030E04AE754E40F94E83B0F9423
:104B000074436B017C010E94E3BB8091EE15909190
:104B1000EF15009721F061E00F949B1505C060E050
:104B200082EE96E00F94251540E0C701B6010E9481
:104B3000F7540F946A170C9498308091F41584FF01
:104B400002C00C949E318091F61587FF02C00C9430
:104B50009E318091F715837011F00C949E310C9466
:104B6000BB3185E197E00E94DCE888EC91E10E948E
:104B70001ECC8BE1E8ECF1E1DE01119601900D9283
:104B80008A95E1F760E070E0CE0101960E9429DC91
:104B9000CE0101960E94F6DD86E097E00E94DCE8F7
:104BA0000C9498300E94A4D80C949830E091EE15A3
:104BB000F091EF158081882329F0803209F410826A
:104BC0003196F8CF60E08091EE159091EF150E943C
:104BD00047DB0C94983083E50E944376882321F0CC
:104BE0000E9406730E94873E84E50E9443768823D4
:104BF000A9F00E9406736B017C010F94F10DC09225
:104C0000D914D092DA14E092DB14F092DC14CD289F
:104C1000CE28CF2819F081E080933C150E94A84E41
:104C2000882381F00E9400D80F940C0E8CE195E04F
:104C30000E94A5D71092F8151092F9151092FA1546
:104C40001092FB150F946A170C9498308091AB1159
:104C500082FF03C08B7F8093AB1180917C158823EA
:104C600019F081E00E94F57B0F94420E0F946A17B1
:104C70000C9498308091AB1183FD02C00C94983055
:104C800083E50E94437681110C94CA310C949830CC
:104C900083E40E947173882319F180E397E00E94F6
:104CA000DCE880910F13882391F0BE016F5F7F4F86
:104CB0008CE093E10E94EACB8E010F5F1F4FF80159
:104CC00081918F01882339F00E94EC4FF8CF86E262
:104CD00097E00E94DCE88AE00E94EC4F0C94983048
:104CE0008091AB1182FF21C08FE397E00E94DCE846
:104CF0006091A7117091A8118091A9119091AA11AA
:104D00004AE00E94F34F8FE20E94EC4F6091A311A2
:104D10007091A4118091A5119091A6114AE00E9472
:104D2000F34F0E94F1500C94983081E597E00E9477
:104D3000DCE80C9498308091AB118E7F8093AB119E
:104D40000C9498308091AB1183FD02C00C94983084
:104D50000F9402178091EE159091EF150E943DDAA5
:104D60000C9498308091AB1182FD0E94E3BB80913E
:104D7000AB1183FD02C00C94983060E080E50E9486
:104D80006B76182F682F8091EE159091EF150E9489
:104D900047DB83E50E944376882321F00E94067357
:104DA0000E94873E0E9400D811110C9498300F94F5
:104DB0000C0E0C9498300F94BD0D7B018C0120E8F3
:104DC00031E541E050E00F94D841C9016DE671E052
:104DD0000F9447424B015C01C801B70120E13EE05E
:104DE00040E050E00F94D841CA01B90128E130E019
:104DF00040E050E00F94D841762E672EC62ED72E75
:104E00009CE3292E312C412C512CC801B701A20161
:104E100091010F94D841F62EE72ECA01B901A201E3
:104E200091010F94D841CB018E010F5F1F4F811468
:104E3000910499F0EF92FF927F936F936F927F921C
:104E4000BF92AF929F928F9282E697E09F938F934B
:104E50001F930F930F941A3B13C0A114B104B1F028
:104E6000EF92FF927F936F936F927F92BF92AF9278
:104E700086E697E09F938F931F930F930F941A3BAF
:104E80000FB6F894DEBF0FBECDBF30C0CD2879F08D
:104E9000EF92FF927F936F936F927F928AE697E0F3
:104EA0009F938F931F930F930F941A3BE9CF892BF6
:104EB00069F0EF92FF927F936F938EE697E09F9356
:104EC0008F931F930F930F941A3BDACFEF92FF92B9
:104ED00082E797E09F938F931F930F930F941A3B52
:104EE0000F900F900F900F900F900F9060E0C801FF
:104EF0000F949B150E94D7E9B80186E797E00E94BE
:104F0000C0E98AE00E94EC4F0C9498306DE070E0AC
:104F100080E50E9450768C0197FF02C00C94983077
:104F2000E82E60E089E40E946B7681110C94CF3109
:104F3000802F0F94FC2B811111C60C94CF310F944C
:104F4000420E0C9498300F94570E0C949830809128
:104F50003E0D83FF02C00C94983083E50E94437697
:104F6000882311F40C9498300E943E730F946D4383
:104F7000CB010E944F8E0C94983080913E0D83FFA0
:104F800002C00C94983083E50E944376182F81115B
:104F90000C940C3282E50E94437681110C940C3201
:104FA0000C9498300E94377D182F87FD0AC089E342
:104FB0009DE30E94DCE8812F0E945F8E8AE00E94C0
:104FC000EC4F8E8D80930F150C94DE3360E080E5FE
:104FD0000E945F7681110C94983081E40E94717375
:104FE000882321F06091D40770E002C06FEF70E079
:104FF00083E50E94A0848F3F910519F010F08FEF98
:1050000090E08093D4070C94983060E080E50E9493
:105010005F7681110C9498301092D4070C949830DC
:105020008EE40E944376882311F40C9498300E94F9
:105030000673609380167093811680938216909306
:1050400083160C94983083E50E947173882331F0A5
:1050500060E083E50E945F7680933E0D0E94D7E971
:1050600089EB97E00E94DCE880913E0D882369F18E
:1050700086E3E82E8BE0F82E00E010E020E080913F
:105080003E0D90E0A0E0B0E0002E04C0B695A795DC
:10509000979587950A94D2F780FF0EC0DD24D394AC
:1050A000D20E222319F08CE20E94EC4FF701859179
:1050B00094910E94DCE82D2D0F5F1F4F92E0E90EC6
:1050C000F11C05301105D9F606CE85EB97E001CE2F
:1050D00010920E15109272020C94983041E060E02C
:1050E00070E080EC97E00E94CF4E0C9498300E94C4
:1050F000804E0C94983083E50E944376882381F09B
:105100000E941673282F30E02D33310524F480934C
:1051100000020C9498308CE3809300020C94983039
:105120000E94D7E94091000250E060E070E08EEC10
:1051300097E00E9484E98AE00E94EC4F0C9498303A
:1051400080913E0D83FF02C00C94983083E50E944D
:105150004376882311F40C9498300E943E730F9488
:105160006D436837710514F068E770E0709371045F
:1051700060937004DDC70E94BC3CDAC783E50E94DF
:105180004376882309F4D4C70E941673182F90E041
:10519000CD970CF01CE3109373030F94E60A6B0198
:1051A0007C01212F30E0A8EEB3E00F942C42C60E14
:1051B000D71EE81EF91EC0926F03D0927003E092D2
:1051C0007103F0927203B4C7809178038F7D806180
:1051D00080937803ADC7809178038F7E806280933F
:1051E0007803A6C783E50E944376882399F00E943E
:1051F0003E7320E030E04AE754E40F94E83B0F941C
:1052000074436093010270930202809303029093AF
:1052100004028EC78091F41584FF02C00C944E32B4
:105220008091F61587FF02C00C944E328091F715DD
:10523000837011F00C944E320C947F3283E50E94FF
:105240007173882309F474C70F94E60A60931015EC
:105250007093111580931215909313150E943E734D
:1052600020E030E04AE754E40F94E83B0F947443A5
:105270006093740370937503809376039093770320
:1052800057C70E94377D87FD53C79091F41594FD51
:1052900004C09091F61597FF0AC01AE9C12E12E0DA
:1052A000D12E0FE3E02E0DE0F02E10E009C090911A
:1052B000F715937091F7682F81E00E94867138C7C7
:1052C000F60181916F010E944376882309F459C049
:1052D000133009F04FC00E943E734B015C0120E087
:1052E00030E040EA51E40F94823B87FF3AC0A501C9
:1052F000940160915F0D7091600D8091610D9091AE
:10530000620D0F94FB422B013C019B01AC016091AB
:105310006F0D7091700D8091710D9091720D0F94C1
:10532000E83B60936F0D7093700D8093710D9093B7
:10533000720D6091C8077091C9078091CA0790915A
:10534000CB070F94873BA30192010F94E83B0F9486
:1053500074436093C8077093C9078093CA079093FA
:10536000CB0780925F0D9092600DA092610DB0927C
:10537000620D07C00E943E73F701648B758B868BAC
:10538000978B1F5FF4E0EF0EF11C143009F098CFFB
:105390000E94E9A9CDC60E94E6FA80E391E10E944D
:1053A00065A0C6C68CEF98E00E94DCE860E08CEE59
:1053B00098E00F94672760E087ED98E00F946727E7
:1053C00061E083EB99E10F94672761E08CEC98E052
:1053D0000F94672761E08CEB98E00F94672760E0FB
:1053E00083EB98E00F94672761E089EA98E00F94D7
:1053F000672761E08FE998E00F94672761E087E90C
:1054000098E00F94672761E089E898E00F94672798
:1054100060E08BE798E00F94672760E08CE698E007
:105420000F94672760E08EE598E00F94672760E0AF
:1054300088E498E00F94672760E087E398E00F9492
:10544000672760E088E298E00F94672760E083E1D7
:1054500098E00F94672760E080E098E00F9467275A
:1054600060E083EF97E00F94672760E08FED97E0AF
:105470000F9467275DC68091EE159091EF15009708
:1054800009F4E0CBFC012081222309F4DBCB60E0AE
:105490000F949B154DC60091EE151091EF1594E0F9
:1054A000F12C40E0915029F1F8018081282F2B7FC9
:1054B000213421F421812133E1F408C08035C9F47D
:1054C000F801818180538A3048F013C0813421F083
:1054D000853421F441E002C0FF24F39498012E5F4B
:1054E0003F4F89012F5F3F4FF80180818032C9F320
:1054F000D9CF41110E94D7E9FF2021F08EEB99E02E
:105500000E94DCE8C8010E94F75012C60F94F51FF4
:105510000FC61092B6041092B5040F94282008C646
:1055200060E070E083E50E9450768C011127023024
:1055300011053CF00E94D3E982EC99E00E94DCE87E
:10554000F7C588E40E9443768823A9F00E943A7345
:105550008A3A91053CF08530F1E09F072CF084E019
:1055600091E002C08AEA90E0F801EE0FFF1FED57CC
:10557000FA4E9183808386E40E944376882381F0EB
:105580000E943A7397FD07C08F3F910529F024F0E0
:105590008FEF90E001C080E0F801E358FA4E80837D
:1055A00082E40E944376882309F4C2C50E943A73BC
:1055B0008530910534F0893791052CF088E790E02B
:1055C00002C085E090E0F801EE0FFF1FE158FA4EAF
:1055D00091838083ADC560E070E083E50E945076E2
:1055E0008C0103970CF0A4C560E070E080E50E9498
:1055F0005076BC01C80199279C012759314F790188
:10560000072E000C880B990B0F94893B20E030E0AB
:1056100040E251E40F94FB420F947443F70160831E
:105620000230110509F084C580911B080E94BEE27A
:105630007FC56FEF7FEF83E50E94507697FD07C02F
:10564000803191050CF074C50E94BEE271C5809155
:105650001B080E94BEE26CC50E946C8569C50E9451
:10566000377D182F87FD64C584E40E9471738823F9
:10567000E9F10E943E736B017C0101E020E030E023
:10568000A9010F94823B811101C000E00093B30D8A
:1056900020E030E0A901C701B6010F94823B8823C6
:1056A00029F124E01202F0011124E854F24FC082E3
:1056B000D182E282F38220E030E0A9016091B80D4E
:1056C0007091B90D8091BA0D9091BB0D0F94823BF2
:1056D00081110CC080E090E0A0EEBFE38093B80D94
:1056E0009093B90DA093BA0DB093BB0D0E947EBBF1
:1056F0001FC50E94377D87FD1BC57AE9872E72E0A2
:10570000972EEFE3AE2EEDE0BE2E712CF4018191C9
:105710004F010E947173882309F465C00E943E7393
:105720007B018C0180E1EAE8F2E0DE011196019054
:105730000D928A95E1F7872DF3E0F71508F483E0E1
:10574000C82ED12C2DEC3CEC4CEC5DE3B701C8012C
:105750000F94823B87FF02C00C94D033F601EE0F0A
:10576000FF1FEE0FFF1F21E030E02C0F3D1FE20F67
:10577000F31F3080418052806380232D342D452DCE
:10578000562DB701C8010F94FB43181614F40C945E
:10579000D8339701A801B701C8010F94823B882331
:1057A000B9F0F601E656FD4F80810E94EC4F81EF83
:1057B00099E00E94DCE887EF99E00E94DCE8A7010D
:1057C000B80184EE99E00E94A2E98AE00E94EC4FC1
:1057D000B701C8010F947443F5016083718382831C
:1057E00093830E94A2A97394F4E0AF0EB11C24E04D
:1057F00072128CCF9DC40E94377D87FD99C45AE9EF
:10580000E52E52E0F52E0FE31DE0F70181917F01B7
:105810000E947173882339F00E943E73F80164A3DB
:1058200075A386A397A30C5F1F4FFDE00F341F07DE
:1058300061F77EC48091F51587FD64C68091F615E9
:105840008E7009F05FC64091730D5091740D609198
:10585000750D7091760D84E09AE00E94A2E9409166
:10586000770D5091780D6091790D70917A0D83E6E6
:1058700099E30E94A2E940917B0D50917C0D6091CB
:105880007D0D70917E0D83E79BE30E94A2E98AE083
:105890000E94EC4F4DC48091F41581FD79C6809132
:1058A000F51581FD75C68091F6158C7009F070C6EE
:1058B0003FC44EE8E42E45E0F42E10E088E5810F69
:1058C0000E947173882351F00E943E73F701608338
:1058D000718382839383812F0E9499C01F5FF4E0BC
:1058E000EF0EF11C133051F70F94441F21C483E5D0
:1058F0000E947173882351F00E943E7360935C157F
:1059000070935D1580935E1590935F1586E40E94F9
:105910007173882381F00E943E7320E030E040E7FD
:1059200052E40F94FB42609360157093611580936D
:105930006215909363158AE50E947173882351F074
:105940000E943E736093641570936515809366158D
:105950009093671587E50E947173882309F4E8C363
:105960000E943E7360937015709371158093721549
:1059700090937315DDC383E50E947173882351F002
:105980000E943E73609368157093691580936A1541
:1059900090936B1586E40E947173882381F00E94B6
:1059A0003E7320E030E040E752E40F94FB42609306
:1059B0006C1570936D1580936E1590936F1582E53D
:1059C0000E947173882381F00E943E7320E030E0D2
:1059D00040E752E40F94FB42609378157093791579
:1059E00080937A1590937B1587E50E9471738823C5
:1059F00009F49EC30E943E736093741570937515ED
:105A0000809376159093771593C383E50E94717305
:105A1000882309F48DC30E942A7380935B150E942A
:105A2000D67C86C30E94BA7383C383E50E94437603
:105A3000882331F00E943A7390934C0280934B027A
:105A40008091F4159091F515A091F615B091F71588
:105A5000892B8A2B8B2B09F06BC360914B027091C1
:105A60004C0283E39AE00E94B3E985E20E94EC4F86
:105A70008AE00E94EC4F5CC30E94377DF82E87FDC0
:105A800057C383E50E9443760F2D0F2C000C110B9A
:105A9000882361F10E943A73F801EE0FFF1FE35B68
:105AA000FD4F91838083000F111F000F111F98017C
:105AB000225D3D4F7901BC01990F880B990B0F9422
:105AC000893B2AE037ED43E25CE30F94E83BF801C1
:105AD000EC54F24F20813181428153810F94E83B95
