:100000000C945F7D0C94907D0C94907D0C94907D6D
:100010000C94907D0C94907D0C94907D0C94907D2C
:100020000C94907D0C94907D0C94907D0C94907D1C
:100030000C94907D0C947CC40C94907D0C94907DD9
:100040000C94907D0D9426070C94907D0C94907DDB
:100050000C94907D0C94907D0D94C44B0D942027AE
:100060000C94907D0D949A4B0D946A4B0C94907D5A
:100070000C94907D0C94907D0C94907D0C94907DCC
:100080000C94907D0C94907D0C94907D0C94907DBC
:100090000C94907D0C94907D0C94907D0C94907DAC
:1000A0000C94907D0C94907D0C94907D0C94907D9C
:1000B0000C94907D0C94907D0C94907D0C94907D8C
:1000C0000C94907D0C94907D0C94907D0C94907D7C
:1000D0000C94907D0C94907D0C94907D0C94907D6C
:1000E0000C94907D148419841E842A843684C384DD
:1000F00042844A8452845E846A84768487849384AA
:10010000C3849F84AB84B784A5C3A8C397C39BC390
:10011000A1C3DFC3ACC3B0C3B6C3BAC3BEC3C4C3F9
:10012000C8C3CCC3DFC3D2C3D6C3DAC340014C01BA
:1001300036012C013E0162014401660124012401C3
:100140002401240124012401240124012401240187
:100150002401240124012401240124012401240177
:1001600024012401240124016001180122015C0101
:1001700050015201300114013A011E0120012E01EB
:100180001C01260116015601240134015E013C01C7
:100190002401240124014E012801480124012401E5
:1001A00024012401240124016001180122015C01C1
:1001B00050015201300114013A011E0120012E01AB
:1001C0001C01260116015601240134015E013C0187
:1001D0002401240124014E0128014801084AD73B8B
:1001E0003BCE016E84BCBFFDC12F3D6C74319ABD06
:1001F00056833DDA3D00C77F11BED9E4BB4C3E912A
:100200006BAAAABE000000803F05A84CCDB2D44E18
:10021000B93836A9020C50B9918688083CA6AAAA1A
:100220002ABE000000803F000D94E6470D941D4853
:100230000D94FC470D94A9480D9403470D94BA47BB
:100240000D9407480D94DB470D9448480D94DF4604
:100250000D9464470D94F6240D94A4260D94124831
:100260000D94F2460D94D0480D94C5470D94AD26DB
:100270000D945C260D94AF470D9490470D94B726CE
:100280000D9473260D94A5240D94D9260D94D6575C
:100290000D946F470D9423070D94E5260D9459474F
:1002A0000D947A470D9485470D94E8240D94A44746
:1002B0000D94E5480D947B480D94D0470D949947D3
:1002C0000D94F1470D94BC260D94B7480D942F481A
:1002D0004E414E494E495459494E46CDCCCC3D0A2B
:1002E000D7233C17B7D13877CC2B329595E6241F0E
:1002F000B14F0A000020410000C84200401C4620C7
:10030000BCBE4CCA1B0E5AAEC59D74456E642066B9
:10031000696C65206C69737400426567696E20665C
:10032000696C65206C697374005344207072696E47
:1003300074696E67206279746520004E6F74205373
:1003400044207072696E74696E67005772697469CF
:100350006E6720746F2066696C653A20006F706567
:100360006E206661696C65642C2046696C653A2074
:10037000004372656174696F6E206661696C6564C3
:10038000004469726563746F727920637265617489
:1003900065640057656967687420006578747275D4
:1003A00064657220636F6F6C65722073706565643D
:1003B000205B302D3235355D0064697374616E6386
:1003C0006520746F2072657472616374207768654C
:1003D0006E2068656174696E67205B6D6D5D007489
:1003E000656D702E20666F72207265747261637421
:1003F000696F6E207768656E2068656174696E67E5
:10040000205B435D0074656D702E207374616269BA
:100410006C697A652074696D65205B735D005A2D87
:100420006F6666736574205B73746570735D0059E5
:100430002D6F6666736574205B73746570735D0001
:10044000582D6F6666736574205B73746570735D99
:1004500000504944206D61782076616C7565205BA1
:10046000302D3235355D0050494420442D67616997
:100470006E0050494420492D6761696E005049441F
:1004800020502D6761696E2F646561642D74696DFC
:100490006500504944206472697665206D696E007C
:1004A000504944206472697665206D617800686502
:1004B0006174206D616E61676572205B302D335D04
:1004C00000616363656C65726174696F6E205B6D5A
:1004D0006D2F735E325D00737461727420666565A2
:1004E0006472617465205B6D6D2F735D006D617862
:1004F0002E206665656472617465205B6D6D2F7377
:100500005D00737465707320706572206D6D0052AC
:10051000657472616374696F6E20756E646F2073A9
:1005200070656564004578747261206578747275D1
:1005300073696F6E206F6E20756E646F20737769BC
:100540007463682072657472616374205B6D6D5DA5
:1005500000457874726120657874727573696F6E86
:10056000206F6E20756E646F2072657472616374A3
:10057000205B6D6D5D0052657472616374696F6EAE
:10058000207A2D6C696674205B6D6D5D0052657418
:1005900072616374696F6E207370656564205B6D52
:1005A0006D2F735D0052657472616374696F6E20A4
:1005B0006C656E6774682065787472756465722006
:1005C000737769746368205B6D6D5D00526574724A
:1005D000616374696F6E206C656E677468205B6D13
:1005E0006D5D00456E61626C652072657472616359
:1005F00074696F6E20636F6E76657273696F6E20BB
:100600005B302F315D0042656420504944206D61AC
:10061000782076616C7565205B302D3235355D0054
:100620004265642050494420442D6761696E004250
:1006300065642050494420492D6761696E00426518
:10064000642050494420502D6761696E0042656402
:1006500020504944206472697665206D696E0042BD
:10066000656420504944206472697665206D617824
:10067000004265642048656174204D616E61676564
:1006800072205B302D335D004175746F6C6576654B
:100690006C206163746976652028312F3029005AF7
:1006A0002D70726F62652062656E64696E6720638B
:1006B0006F7272656374696F6E2043205B6D6D5D50
:1006C000005A2D70726F62652062656E64696E6794
:1006D00020636F7272656374696F6E2042205B6D78
:1006E0006D5D005A2D70726F62652062656E64697F
:1006F0006E6720636F7272656374696F6E2041204C
:100700005B6D6D5D005A2D70726F626520593320EC
:100710005B6D6D5D005A2D70726F626520583320DD
:100720005B6D6D5D005A2D70726F626520593220CD
:100730005B6D6D5D005A2D70726F626520583220BE
:100740005B6D6D5D005A2D70726F626520593120AE
:100750005B6D6D5D005A2D70726F6265205831209F
:100760005B6D6D5D005A2D70726F6265206F6666FD
:100770007365742079205B6D6D5D005A2D70726F0A
:100780006265206F66667365742078205B6D6D5DB1
:10079000005A2D70726F626520782D792D73706507
:1007A0006564205B6D6D2F735D005A2D70726F62F2
:1007B00065207370656564205B6D6D2F735D004D02
:1007C00061782E207A2D70726F6265202D2062650F
:1007D0006420646973742E205B6D6D5D005A2D700A
:1007E000726F626520686569676874205B6D6D5D16
:1007F00000436F6174696E6720746869636B6E652E
:100800007373205B6D6D5D005A2D61786973207480
:10081000726176656C20616363656C657261746991
:100820006F6E205B6D6D2F735E325D00592D6178A8
:1008300069732074726176656C20616363656C65B1
:10084000726174696F6E205B6D6D2F735E325D0037
:10085000582D617869732074726176656C206163CC
:1008600063656C65726174696F6E205B6D6D2F736B
:100870005E325D005A2D6178697320616363656C37
:1008800065726174696F6E205B6D6D2F735E325D92
:1008900000592D6178697320616363656C657261CD
:1008A00074696F6E205B6D6D2F735E325D00582D25
:1008B0006178697320616363656C65726174696FE7
:1008C0006E205B6D6D2F735E325D005A206D617816
:1008D000206C656E677468205B6D6D5D0059206DDE
:1008E0006178206C656E677468205B6D6D5D005883
:1008F000206D6178206C656E677468205B6D6D5D3E
:10090000005A206D696E20706F73205B6D6D5D0005
:1009100059206D696E20706F73205B6D6D5D00589E
:10092000206D696E20706F73205B6D6D5D004D6191
:10093000782E205A2D6A65726B205B6D6D2F735D6A
:10094000004D61782E206A65726B205B6D6D2F7390
:100950005D005A2D6178697320686F6D696E67203C
:100960006665656472617465205B6D6D2F735D00F3
:10097000592D6178697320686F6D696E67206665AF
:10098000656472617465205B6D6D2F735D00582D19
:100990006178697320686F6D696E6720666565644C
:1009A00072617465205B6D6D2F735D005A2D6178E7
:1009B0006973206D61782E20666565647261746567
:1009C000205B6D6D2F735D00592D61786973206D0B
:1009D00061782E206665656472617465205B6D6D5B
:1009E0002F735D00582D61786973206D61782E201A
:1009F0006665656472617465205B6D6D2F735D0063
:100A00005A2D6178697320737465707320706572F4
:100A1000206D6D00592D6178697320737465707352
:100A200020706572206D6D00582D61786973207398
:100A30007465707320706572206D6D0053746F70F3
:100A400020737465707065722061667465722069C8
:100A50006E6163746976697479205B6D732C303DC7
:100A60006F66665D004D61782E20696E6163746902
:100A700076652074696D65205B6D732C303D6F6603
:100A8000665D005072696E74657220616374697688
:100A900065205B735D0046696C616D656E742070E6
:100AA00072696E746564205B6D5D0042617564728D
:100AB000617465004C616E677561676500504944FB
:100AC000204175746F74756E65206661696C65642C
:100AD000212074696D656F7574005049442041751B
:100AE000746F74756E65206661696C65642120544D
:100AF000656D706572617475726520746F6F2068C2
:100B000069676800204B643A2000204B693A200056
:100B1000204B703A200020436C617373696320504E
:100B20004944002054753A2000204B753A2000209B
:100B30006D61783A2000206D696E3A200020643A99
:100B4000200020626961733A2000504944204175B9
:100B5000746F74756E65207374617274004E6F20CB
:100B600063617365206C6967687473004D617854C4
:100B7000656D703A004469616D657465723A004153
:100B80006363656C65726174696F6E3A004D61787C
:100B900053706565643A004A65726B3A004D61783E
:100BA00042656454656D703A005072696E74657286
:100BB000547970653A43617274657369616E005A65
:100BC00054726176656C416363656C3A0059547286
:100BD0006176656C416363656C3A00585472617666
:100BE000656C416363656C3A005A5072696E74417A
:100BF0006363656C3A00595072696E744163636552
:100C00006C3A00585072696E74416363656C3A00C7
:100C10005A53697A653A005953697A653A005853CC
:100C2000697A653A005A4D61783A00594D61783ACF
:100C300000584D61783A005A4D696E3A00594D6935
:100C40006E3A00584D696E3A005265747261637471
:100C5000696F6E556E646F53706565643A005265D6
:100C60007472616374696F6E556E646F45787472E7
:100C7000614C6F6E674C656E6774683A00526574BC
:100C800072616374696F6E556E646F4578747261DA
:100C90004C656E6774683A0052657472616374697A
:100CA0006F6E5A4C6966743A00526574726163746F
:100CB000696F6E53706565643A0052657472616362
:100CC00074696F6E4C6F6E674C656E6774683A003E
:100CD00052657472616374696F6E4C656E67746897
:100CE0003A004A65726B5A3A004A65726B58593A33
:100CF000005072696E746C696E6543616368653A31
:100D000000454550524F4D3A004175746F6C657601
:100D1000656C3A005A50726F62653A0043617365C0
:100D20004C69676874733A00537570706F72744CD5
:100D30006F63616C46696C616D656E746368616E4A
:100D400067653A00537570706F7274473130473180
:100D5000313A005A486F6D654469723A0059486FDC
:100D60006D654469723A0058486F6D654469723A1E
:100D700000536F667477617265506F776572537751
:100D8000697463683A004C43443A0046616E323AF3
:100D9000300046616E3A005344436172643A004841
:100DA00065617465644265643A004D6978696E678F
:100DB00045787472756465723A004E756D45787445
:100DC00072756465723A00496E7075744275666634
:100DD00065723A0042617564726174653A00436FEE
:100DE0006E66696775726174696F6E20726573658E
:100DF0007420746F2064656661756C74732E00696D
:100E00006E666F3A436F6E74696E75652066726FB9
:100E10006D20666174616C207374617465000054A8
:100E2000657374696E6720666174616C20657272A7
:100E30006F720029203D20002C0042656E64696EAF
:100E4000672061742028004A616D206465627567BF
:100E500067696E673A00436F6E66696775726174A1
:100E6000696F6E206C6F616465642066726F6D20BF
:100E7000454550524F4D2E00436F6E66696775723F
:100E80006174696F6E2073746F72656420746F2073
:100E9000454550524F4D2E00536574204D69637285
:100EA0006F7374657070696E6700436F6C64206562
:100EB0007874727573696F6E20646973616C6C6F9E
:100EC00077656400436F6C6420657874727573692C
:100ED0006F6E20616C6C6F77656400576174636836
:100EE000646F672066656174757265207761732031
:100EF0006E6F7420636F6D70696C656420696E74C9
:100F00006F20746869732076657273696F6E210053
:100F10004175746F726574726163743A00205A4A45
:100F200065726B3A004A65726B3A0020746F20005C
:100F300053657420766F6C756D6574726963206596
:100F40007874727573696F6E20666F72206578743D
:100F50007275646572200044697361626C65642017
:100F6000766F6C756D6574726963206578747275DF
:100F700073696F6E20666F72206578747275646530
:100F80007220004D31313420004649524D574152B4
:100F9000455F4E414D453A52657065746965725FB3
:100FA000302E39322E39204649524D574152455F35
:100FB00055524C3A68747470733A2F2F676974688D
:100FC00075622E636F6D2F72657065746965722F1F
:100FD00052657065746965722D4669726D776172CC
:100FE000652F2050524F544F434F4C5F564552533C
:100FF000494F4E3A312E30204D414348494E455FCE
:10100000545950453A436F72655F585920455854BA
:1010100052554445525F434F554E543A3220524543
:101020005045544945525F50524F544F434F4C3AEC
:10103000330050696E2063616E206E6F74206265AC
:1010400020736574206279204D34322C206973201E
:10105000696E2073656E7369746976652070696E58
:10106000732120002069732000496C6C6567616CF6
:1010700020532076616C756520666F72204D343286
:101080000020746F2000536574206F757470757440
:101090003A200000013C3D3803023637260E0F2E61
:1010A000303E12130D0C0A081A1C1824221E0D0EB5
:1010B000354C617365724F6E3A000000000000000D
:1010C000008900000000000000008800000000000F
:1010D0000000008600000000000000008500C31032
:1010E000BA10D510CC10506F6C736B6900436573E8
:1010F00074696E61005376656E736B61004974614B
:101100006C69616E6F004E656465726C616E6473CC
:1011100065004672616E6361697300506F72747529
:101120006775657300457370616E6F6C004465751B
:101130007473636800456E676C69736800035804D4
:101140000200DE100320040200E210000004260466
:1011500040009600000004220440009500000004B6
:101160004C040000BB000000044D040000BC000063
:1011700000042E04000090000000042A0400008FE8
:10118000000000042B0400008E000000042C04006A
:10119000008D00000004290400008C0000000413EE
:1011A0000400005500000004120400005400000078
:1011B0000411040000530000000416040000510054
:1011C0000000041504000050000000041404000096
:1011D0004F000000040F04000038000000040E045B
:1011E000000037000000040D04000035000000047A
:1011F0000C04000034000000040B04000033000065
:1012000000040A040000310000000409040000305A
:1012100000000004080400002F00E61003AD2600C3
:10122000000000ED1003AC2600000000F51003AA3A
:101230002600000000FD1003A82600000000061193
:1012400003A62600000000121103AB2600000000D8
:101250001B1103A72600000000251103A92600008A
:1012600000002D1103A52600000000351103A4265F
:1012700000000000000003DC0500000B010000037B
:10128000B2040000D0000000023D11000087000001
:101290000002441100008400000004100400008BD0
:1012A00000661893118A11811178116F1166115D12
:1012B000113C1533152A15211518150F1554114B0E
:1012C0001106156618C911C011B711AE11A5119CF0
:1012D00011661811120812FF11F611ED11E411DB5D
:1012E00011D21166186B1262125912501247123E37
:1012F0001235122C1223121A12661898128F1286A7
:10130000127D1274120200001100A11202000007E7
:1013100000C3120200000900D1120200000B00E31A
:10132000120200000600F912417373656D626C656C
:1013300020636865636B2077697A617264000000DE
:1013400003070400003B00000003060400003A000D
:10135000000002051300000F000000020C13000043
:101360004E000000021313000039000000021A139F
:101370000000E400000002211300008A00000003C6
:10138000820400000A01000003810400003F000005
:101390000003800400003E000000037F0400003DC5
:1013A000000000037E0400003C00281303DD05005C
:1013B000000000000004BD040010E300000003B9B9
:1013C000040010E100000003B8040010E000000079
:1013D00003B6040010DF00000003B5040010DE00B7
:1013E000000003BE040010DD00000003B70400107D
:1013F000DC00000003B4040000D2000000031E045F
:10140000000083000000031D0400008200000003B0
:101410001C04000081000000031B04000080000089
:1014200000031A0408007F00000004520400007E3C
:1014300000000004E10500001301000004E00500C5
:10144000001201000004DF0500001101000004B6D5
:101450000F00000901000004B50F000008010000A2
:1014600004B40F0000070100000000000000F200BB
:1014700000000000000000AB0000000000000000C1
:101480007000000000000000006F00000003542402
:1014900002000300000003E8030000040000000154
:1014A00000000000C900661874136B13621359130F
:1014B00050135E1947133E136618AA13A11398130D
:1014C0008F1386137D136618E913E013D713CE1319
:1014D000C513BC13B313661828141F1416140D1467
:1014E0000414FB13F2136618EC1643143A14311467
:1014F00066185E1455144C14821479147014671411
:101500009D1494148B140000042F0400009B000011
:101510000004260420009A000000042504200099FD
:10152000000000042404200098000000042304208C
:101530000097000000042204200094000000042D05
:1015400004000093000200000900A6140200000736
:1015500000B8140200000800C6140200000800D6FB
:10156000140200000500E6140200000400F0140359
:10157000F0030400F814020000030000150000004E
:1015800000000000F70000000000000000DA006624
:10159000183C1533152A15211518150F15061500B9
:1015A0000002451500000D000000024C150000115E
:1015B00000000002381B000010000000025315005C
:1015C00010D9000000025A1500007D0000000261E1
:1015D0001500000F01000002001B00000F000000BA
:1015E00002F91A00000E00000002071B00000B00A9
:1015F00000000000000000E000000000000000000B
:10160000DA0000000000000000DF00000000000021
:101610000000DA0000000000000000E1000000000F
:1016200000000000DA0000000000000000DE000002
:10163000000000000000DA0000000000000000DDF3
:101640000000000000000000DA00000000000000C0
:1016500000DC0000000000000000DA0000000000D4
:10166000000000CF0000000000000000CE000000DD
:101670000000000000CD0000000000000000CC00D1
:10168000000002681500000601000002231B000094
:1016900021000000020E1B000022000000022A1B95
:1016A00000001F00000002151B00002000000002C7
:1016B000311B00001D000000021C1B00001E00006A
:1016C0000003000400801600000003FF03008015E3
:1016D00000000003FE030080140000000344040027
:1016E000002E000000026F1500002300000004DE41
:1016F0000500001001000004620400002500000045
:101700000461040000240000000336040000C60049
:10171000000003430400801C00000003310400109B
:101720001B00000003380400001A000000034704F7
:101730000000180000000337040000170000000339
:1017400088130000CB0000000448040000B1000032
:1017500000041F040000B000000003FD030080131C
:1017600000000000000000006E000000000000000B
:10177000006D00000000000000006C000000000090
:101780000000006B00000000000000006A00000084
:101790000000000000690000000000000000680078
:1017A00000000000000000670000000000000000D2
:1017B000660000000000000000650000000000005E
:1017C0000000640000000000000000630000000052
:1017D0000000000062000000000000000061000046
:1017E0000000000000006000000000000000005F3A
:1017F00000000000000000005E000000000000008B
:10180000005D00000000000000005C00000000001F
:101810000000005B00000000000000005A00000013
:101820000000000000590000000000000000580007
:10183000000000000000005700000003F403010254
:101840004D0000000276150200C900000003F703F6
:1018500004004A00000003F60302044900000003EC
:10186000F50301024800000003E80300000A00003D
:10187000000000000000A80000000000000000A719
:101880000000000000000000A600000000000000B2
:1018900000A50086157D1502000008008F1566184A
:1018A000E7155D18DE15D515CC15C315BA15B1159C
:1018B000A8159F15F915F0150B1602161D1614160E
:1018C0002F1626164116381653164A1677166E1618
:1018D00065165C1666185817D116C816BF16B616C8
:1018E000AD16A4169B1692168916E3168016661876
:1018F000FE16F516EC16E316DA16661858174F178B
:1019000046173D1734172B172217191710170717EB
:101910007C1773176A176117A01797178E1785170B
:10192000C417BB17B217A917E817DF17D617CD17BB
:101930000C180318FA17F117301827181E18151865
:1019400066185D1854184B1842183918661878181C
:101950006F188A18811800031027020093180000DE
:101960000297180000A2002F2F20616374696F6E28
:101970003A726573756D650044656C6574696F6E68
:10198000206661696C65640046696C652064656CFD
:1019900065746564000200000B009E184732380D24
:1019A000204733322053320D0055495F414354499B
:1019B0004F4E5F484F4D45414C4C200003102702CD
:1019C00000B4180310270200B8180310270200BC47
:1019D000180310270200C0180310270200C41803C0
:1019E00010270200C818473120452D3320463230D9
:1019F000300A00473120453820463230300A005442
:101A0000310A004D31303920543120533230300A00
:101A100000473120452D3320463230300A0047310F
:101A200020453820463230300A004D3130392054BC
:101A30003020533230300A004D31393020533430A9
:101A40000A004731205A2D3520463230300A0047EF
:101A500031205A3520463230300A0047312059357E
:101A6000302046323030300A00473120592D353091
:101A70002046323030300A00473120583530204679
:101A8000323030300A00473120582D353020463270
:101A90003030300A004D3434340A0047342053319A
:101AA0000A004739310A000588130400CC182F2F8B
:101AB00020616374696F6E3A706175736500696D5A
:101AC000706F7274616E743A2046696C616D656EF8
:101AD00074206368616E67652072657175697265EF
:101AE0006421004A616D20636F6E74726F6C2064B4
:101AF000697361626C65643A000200000D00D418DD
:101B00000200000600EE180200000B00FA1803FCA9
:101B1000030400101903FB030400181903FA03045B
:101B200000201903EF030400281903EE030400301A
:101B30001903ED03040038190200000600401901E2
:101B4000000001004C1903102702004E1903102752
:101B50000200521955495F414354494F4E5F484F67
:101B60004D455F5A200055495F414354494F4E5FF0
:101B7000484F4D455F59200055495F414354494FF7
:101B80004E5F484F4D455F58200055495F414354D3
:101B9000494F4E5F484F4D45414C4C2000496E76B1
:101BA000616C6964206172630047333220002061F8
:101BB000745A3A0043757272656E745A3A005072E4
:101BC0006F62696E67206861642072657475726EF9
:101BD0006564206572726F7273202D206175746F59
:101BE0006C6576656C696E672063616E63656C65B4
:101BF000642E00446576696174696F6E2062657455
:101C00007765656E206D6561737572656D656E745F
:101C100073207765726520746F6F206269672C206E
:101C2000706C65617365207265706561742E005219
:101C3000656C617469766520706F736974696F6E25
:101C4000696E67004162736F6C75746520706F73A5
:101C50006974696F6E696E6700473332206C657610
:101C6000656C696E67206661696C65642100473246
:101C700039206C6576656C696E67206661696C6594
:101C8000642100473239206C6576656C696E672087
:101C90006661696C65642100473239200041646ADD
:101CA0007573746564207A206F726967696E005A73
:101CB0002D70726F6265206176657261676520685C
:101CC00065696768743A00556E6B6E6F776E206356
:101CD0006F6D6D616E643A005344206361726420DD
:101CE000696E736572746564005344206361726445
:101CF0002072656D6F7665640066696C616D656EF6
:101D00007420496E73746572210066696C616D653B
:101D10006E742052756E204F75742100686F6D656A
:101D20004178697320006B126212591250124712E7
:101D30003E1235122C1223121A1200002100240028
:101D400027002A002D0030003300010100000401AB
:101D500007010A01000020002300260029002C00B2
:101D60002F003200000100000301060109010000FC
:101D70000A0B02090C0D0E08070304010000000005
:101D80000000000000000000000000000000000053
:101D90000000000000000000000012111000000010
:101DA0000000000000000000000000000000000033
:101DB00000000000536F667477617265205265738E
:101DC0006574005761746368646F6720526573655A
:101DD000740042726F776E206F7574205265736560
:101DE000740045787465726E616C20526573657419
:101DF00000506F7765725570000D0E5A6F6E6573E7
:101E0000746172203344205072696E7465720046AA
:101E1000575645523A5633004D6F64656C3A4D6FD4
:101E200064656C3A5A3943726F65585900FFFFFF79
:101E3000FFFFFFFFFFFFFFFFFFFFFFFFFFFFFFFFB2
:101E4000FFFFFFFFFFFFFFFFFFFFFFFFFFFFFFFFA2
:101E5000FFFFFFFFFFFFFFFFFFFFFFFFFFFFFFFF92
:101E6000FFFFFFFFFFFFFFFFFFFFFFFFFFF0007817
:101E700001E1F0E003000C000FE0FF003FF0003054
:101E800000C0F0C002000C000FC07E001FF0002058
:101E900000C070C002000C000F807E001FFFF861C0
:101EA000F8C07087FE1FFFF1FF8C3E3E1FFFF06100
:101EB000F8C07087FE1FFFE1FF8E3E3E1FFFE0E18E
:101EC000F8C03080061FFFE1FF1E3E3E1FFFC1E14C
:101ED000F8C0308002000FE1FF1E3E001FFF03E14B
:101EE000F8C21080020007E1FF1B1E001FFE07E181
:101EF000F8C21080030007E1FE1B1E001FFC0FE16B
:101F0000F8C21087FFFF87E1FE311E3E1FF81FE178
:101F1000F8C31087FFFF87E1FE310E3E1FF07FE11F
:101F2000F8C30087FFFF87E1FC218E3E1FF00060B1
:101F300000C30080020007E1FC608E3E1FF000201D
:101F400000C380C0020007E1FC60863E1FF0003045
:101F500000C381C002000FE1F840463E1FFC00783C
:101F600003C3E3F002001FE1F840463E1FFFFFFFFE
:101F7000FFFFFFFFFFFFFFFFFFFFFFFFFFFFFFFF71
:101F8000FFFFFFFFFFFFFFFFFFFFFFFFFFFFFFFF61
:101F9000FFFFFFFFFFFFFFFFFFFFFFFFFFFFFFFF51
:101FA000FFFFFFFFFFFFFFFFFFFFFFFFFF46726521
:101FB000652052414D3A008200000A00261D4E6500
:101FC000656473206C616E67756167652073656C0D
:101FD000656374696F6E007374617274002050726F
:101FE000696E7465722073746F7070656420616EC1
:101FF0006420686561746572732064697361626CE2
:1020000065642064756520746F2074686973206549
:1020100072726F722E20466978206572726F72201C
:10202000616E64207265737461727420776974687C
:10203000204D3939392E00666174616C3A00206395
:10204000203D20002062203D2000706C616E653ACA
:102050002061203D20004175746F6C6576656C6968
:102060006E672064697361626C6564004175746FAA
:102070006C6576656C696E6720656E61626C65641F
:10208000004731205A31300D00004175746F6C6586
:1020900076656C206D617472697820726573657401
:1020A0000044697361626C696E6720616C6C2068C2
:1020B0006561746572732064756520746F20646552
:1020C0007465637465642073656E736F72206465F4
:1020D000666563742E00206465672E204300206DC2
:1020E0006561737572656420004572726F723A4360
:1020F0006F756C64206E6F7420686F6C64207465FB
:102100006D70657261747572652000206D730020BA
:10211000616674657220004572726F723A54656D23
:10212000702E2072616973656420746F20736C6F08
:10213000772E2052697365203D20004F6E65206820
:102140006561746572207365656D73206465636F86
:1021500075706C65642066726F6D20746865726D51
:102160006973746F72202D2064697361626C696E8B
:102170006720616C6C20666F72207361666574798C
:102180002100486561746572206465636F75706CC9
:1021900065640048656174656420626564206578E3
:1021A000636565646564206D61782074656D706534
:1021B000726174757265210020453A00583A00201A
:1021C000403A002042403A00205241570020423A13
:1021D00000202F00543A0053706565644D756C748F
:1021E00069706C793A00466C6F774D756C746970E4
:1021F0006C793A0046616E73706565643A00206DD3
:10220000696E0020686F75727320002064617973B5
:1022100020005072696E74696E672074696D653A4A
:10222000006D20005072696E7465642066696C618F
:102230006D656E743A0020002F006572726F722017
:1022400077726974696E6720746F2066696C6500C7
:10225000504944204175746F74756E652066696ECF
:102260006973686564202120506C6163652074681F
:1022700065204B702C204B6920616E64204B6420DC
:10228000636F6E7374616E747320696E2074686519
:1022900020436F6E66696775726174696F6E2E6830
:1022A000206F7220454550524F4D00446F6E65209F
:1022B000736176696E672066696C652E0001021095
:1022C0002020080810204010204080020102010850
:1022D0000402010102040810204080804020100800
:1022E0000402018004020180402010080402010859
:1022F00004020101020408102040800102040810B9
:1023000020408000002200250028002B002E0031F4
:1023100000340002010000050108010B010505055C
:1023200005070508080808020202020A0A0808044C
:10233000040404010101010101010103030303037A
:10234000030303040707070C0C0C0C0C0C0C0C0209
:1023500002020206060606060606060B0B0B0B0B10
:102360000B0B0B02436F6E6669673A0057726F6E14
:102370006720636865636B73756D00534420696EF5
:102380006974206661696C00000000002064656368
:102390002000206465662000040003000000003F68
:1023A000CDCC4C3D0AD7A33B6F12033A496E666F02
:1023B0003A004572726F723A00494E46004E414EE5
:1023C0000050726F746F636F6C2076657273696F03
:1023D0006E206368616E6765642C2075706772613A
:1023E00064696E67005472616E73666F726D6174BA
:1023F000696F6E206D61747269783A004578747205
:102400002E004550523A3320000000211042206334
:10241000308440A550C660E770088129914AA16BBD
:10242000B18CC1ADD1CEE1EFF13112100273325255
:1024300022B5529442F772D662399318837BB35A0D
:10244000A3BDD39CC3FFF3DEE36224433420040125
:1024500014E664C774A44485546AA54BB52885095D
:1024600095EEE5CFF5ACC58DD553367226111630F5
:1024700006D776F6669556B4465BB77AA7199738AD
:1024800087DFF7FEE79DD7BCC7C448E5588668A735
:10249000784008611802282338CCC9EDD98EE9AFFD
:1024A000F9488969990AA92BB9F55AD44AB77A9695
:1024B0006A711A500A333A122AFDDBDCCBBFFB9E4D
:1024C000EB799B588B3BBB1AABA66C877CE44CC565
:1024D0005C222C033C600C411CAEED8FFDECCDCD9D
:1024E000DD2AAD0BBD688D499D977EB66ED55EF435
:1024F0004E133E322E511E700E9FFFBEEFDDDFFCED
:10250000CF1BBF3AAF599F788F8891A981CAB1EB91
:10251000A10CD12DC14EF16FE18010A100C230E3BA
:10252000200450254046706760B9839893FBA3DA76
:10253000B33DC31CD37FE35EF3B1029012F322D20A
:10254000323542145277625672EAB5CBA5A8958906
:10255000856EF54FE52CD50DC5E234C324A014815A
:10256000046674476424540544DBA7FAB79987B816
:10257000975FE77EF71DC73CD7D326F2369106B0AA
:102580001657667676154634564CD96DC90EF92F16
:10259000E9C899E9898AB9ABA944586548067827FA
:1025A00068C018E1088238A3287DCB5CDB3FEB1EB6
:1025B000FBF98BD89BBBAB9ABB754A545A376A164A
:1025C0007AF10AD01AB32A923A2EFD0FED6CDD4D46
:1025D000CDAABD8BADE89DC98D267C076C645C459A
:1025E0004CA23C832CE01CC10C1FEF3EFF5DCF7C56
:1025F000DF9BAFBABFD98FF89F176E367E554E74EA
:102600005E932EB23ED10EF01E0000420FA10716BF
:1026100005D0030D038B022E02E801B2018601638F
:102620000145012C0117010401F400000000000025
:10263000000000000000000000000024F403D95056
:10264000C38EB1C2A23D96828B3582127AE372812B
:102650006CCB66A861015DC758EB546151204E1EDA
:102660004B5648C14559431A41013F093D2F3B7123
:1026700039CD374036C93465331432D430A32F8076
:102680002E6B2D632C672B752A8E29B028DC271022
:10269000274B268F25D9242B248223E0224322ACEA
:1026A000211A218D200420801F001F841E0C1E97DC
:1026B0001D261DB81C4E1CE61B821B201BC11A6464
:1026C0001A0A1AB2195D190A19B9186A181C18D110
:1026D0001788174017FA16B51673163116F115B389
:1026E0001576153A150015C7148F1458142214EED8
:1026F00013BA13881356132513F612C71299126CC6
:102700001240121512EB11C11198117011481121CC
:1027100011FB10D610B1108D106910461024100254
:1027200010E10FC00FA00F800F610F420F230F06A3
:102730000FE80ECB0EAF0E930E770E5C0E410E27F8
:102740000E0D0EF30DDA0DC10DA80D900D780D6074
:102750000D490D320D1B0D050DEF0CD90CC30CAE40
:102760000C990C850C700C5C0C480C350C210C0E73
:102770000CFB0BE80BD60BC40BB20BA00B8E0B7D26
:102780000B6B0B5A0B4A0B390B290B180B080BF868
:102790000AE90AD90ACA0ABB0AAC0A9D0A8E0A804B
:1027A0000A710A630A550A470A390A2C0A1E0A11D5
:1027B0000A040AF709EA09DD09D009C409B709AB17
:1027C000099F09920987097B096F09630958094C18
:1027D00009410936092B09200915090A090009F5DB
:1027E00008EB08E008D608CC08C208B808AE08A470
:1027F000089A08900887087D0874086B08610858D3
:10280000084F0846083D0834082C0823081A081207
:102810000809080108F807F007E807E007D807D01B
:1028200007C807C007B807B007A807A1070000003E
:1028300000000000F10000000000000000C40000E3
:10284000000000000000F00000000000000000C3D5
:102850000000000000000000EA000000000000008E
:1028600000E90000000000000000E8000000000097
:10287000000000E70000000000000000E60000008B
:102880000000000000E50048283F2836282D287E5B
:102890002875286C2863285A285128000000040055
:1028A000872800000006008F2846696C6520736544
:1028B0006C6563746564002053697A653A00466903
:1028C0006C65206F70656E65643A0066696C652E94
:1028D0006F70656E206661696C656400A2289B2834
:1028E00000070A00FE07026903FB00FFFE08FE075F
:1028F000FE050707060000A80088008800A8050854
:10290000080600000808082848F8402003030306CA
:10291000010440A040050505060000F8F8F8F8F8A5
:10292000050505060000F8888888F80508080600EF
:10293000002050505070F8F8700705050900001C81
:10294000FE8282FE0508080600008850208820507C
:102950008888060808060000489048FCFC7830305B
:10296000060808060000244824FCFC7830300605E0
:1029700005060000FCFC783030060202060000FC70
:10298000FC06060606000048904890FCFC06060679
:1029900006000024482448FCFC07070707000082C3
:1029A000443828384482070707070000101038EE23
:1029B000381010FFFFFFFFFFFFFFFFFFFFFFFFFFCC
:1029C000FFFFFF0000000605FF0107070602008069
:1029D000808080800080030303060104A0A0A0057E
:1029E00007070600005050F850F85050050707063A
:1029F00000002070A070287020060808060000441F
:102A0000A448102048948805070706000040A0A0AD
:102A100040A8906801030306020480808003070732
:102A20000601002040808080402003070706010047
:102A3000804020202040800505050600018850F8D0
:102A400050880505050600012020F8202003030317
:102A50000601FF604080040101060103F00202024A
:102A60000601FFC0C0050707060000080810204047
:102A700080800507070600002050888888502005C0
:102A800007070600002060A0202020F805070706A1
:102A90000000708808304080F8050707060000F83D
:102AA00008103008887005070706000010305090A5
:102AB000F81010050707060000F880B0C8088870F5
:102AC000050707060000304080B0C888700507077A
:102AD000060000F808101020404005070706000017
:102AE00070888870888870050707060000708898CD
:102AF00068081060020505060201C0C000C0C003DE
:102B000007070601FF40E040006040800407070619
:102B1000010010204080402010050303060002F849
:102B200000F80407070601008040201020408005BF
:102B30000707060000708810202000200507070600
:102B40000000708898A8B080700507070600002074
:102B5000508888F88888050707060000F048487004
:102B60004848F0050707060000708880808088705C
:102B7000050707060000F04848484848F0050707E1
:102B8000060000F88080F08080F805070706000046
:102B9000F88080F08080800507070600007088803C
:102BA00080988870050707060000888888F888885C
:102BB00088030707060100E04040404040E0050769
:102BC0000706000038101010109060050707060077
:102BD000008890A0C0A090880507070600008080AC
:102BE00080808080F80507070600008888D8A888BC
:102BF00088880507070600008888C8A8988888057F
:102C0000070706000070888888888870050707060F
:102C10000000F08888F08080800508080600FF70BA
:102C200088888888A87008050707060000F088884B
:102C3000F0A090880507070600007088807008885B
:102C400070050707060000F8202020202020050737
:102C500007060000888888888888700507070600AE
:102C60000088888850505020050707060000888893
:102C700088A8A8D888050707060000888850205033
:102C80008888050707060000888850202020200536
:102C90000707060000F80810204080F80307070621
:102CA0000100E08080808080E0050707060000804A
:102CB000804020100808030707060100E0202020BC
:102CC0002020E005030306000420508805010106CA
:102CD00000FFF80202020602068040050505060014
:102CE0000070087888780507070600008080B0C863
:102CF00088C8B00505050600007088808870050743
:102D00000706000008086898889868050505060009
:102D1000007088F88070050707060000304840F012
:102D20004040400507070600FE78888878088870CC
:102D30000507070600008080B0C888888803070759
:102D40000601004000C0404040E00409090601FEC1
:102D500010003010101090906005070706000080EA
:102D6000808890E09088030707060100C04040403B
:102D70004040E0050505060000D0A8A8A888050584
:102D800005060000B0C888888805050506000070A3
:102D9000888888700507070600FEB0C888C8B0801C
:102DA000800507070600FE689888986808080505EA
:102DB00005060000B0C8808080050505060000708B
:102DC000807008F00507070600004040F0404048CA
:102DD0003005050506000088888898680505050601
:102DE000000088885050200505050600008888A846
:102DF000A8500505050600008850205088050707E3
:102E00000600FE8888986808887005050506000099
:102E1000F8102040F8040707060100304020C020C9
:102E20004030010707060200808080808080800497
:102E30000707060100C02040304020C005030306FC
:102E4000000448A890FFFFFFFFFFFFFFFFFFFFFF09
:102E5000FFFFFFFFFFFFFFFFFFFFFFFFFFFFFFFF82
:102E6000FFFFFFFFFFFFFF01070706020080008052
:102E7000808080800507070600FF2078A0A0A0784A
:102E800020050707060000304840E04048B005052F
:102E90000506000088705070880508080600FF8845
:102EA000885020F82020200107070602008080803B
:102EB000008080800508080600FF7080E090483898
:102EC0000870030101060107A0050707060000704E
:102ED00088A8C8A888700406060601017090B05042
:102EE00000F006050506000024489048240402026C
:102EF000060102F010FF0507070600007088E8C809
:102F0000C88870050101060007F8030303060104E1
:102F100040A0400506060600002020F82020F80406
:102F2000050506010360902040F004050506010335
:102F3000E0106010E00202020602064080FF050772
:102F40000706000078E8E868282828010101060241
:102F500003800202020602FE40800305050601030B
:102F600040C04040E0040606060101609090600009
:102F7000F006050506000090482448900609090659
:102F800000FF40C04040E40C143C04060909060060
:102F9000FF40C04040E81404081C0509090600FF72
:102FA000C0204020C8182878080507070600002020
:102FB0000020204088700508080600004020708826
:102FC00088F888880508080600001020708888F8AE
:102FD00088880508080600002050708888F88888CE
:102FE00005080806000048B0708888F88888050839
:102FF000080600005000708888F8888805080806D0
:1030000000002050708888F88888060707060000AE
:103010003C50909CF0909C0509090600FE70888049
:1030200080808870204005080806000040F88080F5
:10303000F08080F805080806000010F88080F08015
:1030400080F805080806000020F88080F08080F8ED
:1030500005080806000050F88080F08080F803081A
:10306000080601008040E040404040E003080806B8
:1030700001002040E040404040E003080806010015
:1030800040A0E040404040E0030808060100A000E6
:10309000E040404040E0050707060000F04848E8EF
:1030A0004848F0050808060000285088C8A89888F5
:1030B0008805080806000040207088888888700508
:1030C00008080600001020708888888870050808A5
:1030D000060000205070888888887005080806005F
:1030E00000285070888888887005080806000050FD
:1030F00000708888888870050505060000885020C3
:103100005088050707060000709898A8C8C8700581
:10311000080806000040208888888888700508080C
:103120000600001020888888888870050808060036
:103130000020500088888888700508080600005024
:103140000088888888887005080806000010208894
:10315000885020202005070706000080F088F080B6
:103160008080050707060000708890A09088B00551
:1031700008080600004020007008788878050808D4
:1031800006000010200070087888780508080600FE
:10319000002050007008788878050808060000288C
:1031A0005000700878887805070706000050007006
:1031B00008788878050808060000205020700878F4
:1031C000887806050506000078147C907C050707C2
:1031D0000600FE7088808870204005080806000000
:1031E0004020007088F88070050808060000102054
:1031F000007088F8807005080806000020500070F4
:1032000088F8807005070706000050007088F88075
:1032100070030808060100804000C0404040E00301
:103220000808060100408000C0404040E003080854
:1032300006010040A000C0404040E003070706012F
:1032400000A000C0404040E0050707060000C03075
:103250007088888870050808060000285000B0C8EB
:103260008888880508080600004020007088888843
:103270007005080806000010200070888888700516
:10328000080806000020500070888888700508082B
:10329000060000285000708888887005070706001F
:1032A0000050007088888870050505060001200020
:1032B000F800200505050600007898A8C8F0050864
:1032C00008060000402000888888986805080806DD
:1032D000000010200088888898680508080600000B
:1032E000205000888888986805070706000050006D
:1032F00088888898680509090600FE102088889843
:10330000680888700508080600FE80F0888888F044
:1033100080800509090600FE5000888898680888A2
:103320007000050700FF06024803BA00FFFF08FF10
:1033300006FF050505050000A8008800A805080887
:103340000600000808082848F84020030303060187
:103350000440A040050505060000F8F8F8F8F80557
:103360000505060000F8888888F8050808060000AA
:103370002050505070F8F8700705050900001CFE39
:103380008282FE05080806000088502088205088A8
:1033900088060808060000489048FCFC7830300693
:1033A0000808060000244824FCFC78303006050597
:1033B000060000FCFC783030060202060000FCFC2F
:1033C00006060606000048904890FCFC0606060625
:1033D000000024482448FCFC07070707000082443B
:1033E0003828384482070707070000101038EE38E5
:1033F0001010FFFFFFFFFFFFFFFFFFFFFFFFFFFFBB
:10340000FFFF0000000504000106060502008080A1
:1034100080800080030303050103A0A0A00505052B
:1034200005000050F850F85005050505000070A093
:10343000702870040606050000809020409010045B
:10344000050505000040A040A0500103030502034C
:103450008080800206060501004080808080400256
:103460000606050100804040404080030505050137
:1034700000A040E040A00505050500002020F82040
:10348000200303030501FF604080040101050002E1
:10349000F0020202050100C0C0040404050001108E
:1034A00020408003060605010040A0A0A0A0400324
:1034B000060605010040C0404040E0040606050045
:1034C000006090102040F0040606050000F0106037
:1034D0001090600406060500002060A0F020200483
:1034E0000606050000F080E0109060040606050066
:1034F000006080E0909060040606050000F0102057
:103500002040400406060500006090609090600432
:103510000606050000609090701060020505050128
:1035200000C0C000C0C00306060500FF6060006068
:10353000408003050505010020408040200403036E
:10354000050001F000F00305050501008040204062
:103550008003060605010040A02040004004060646
:103560000500006090B0B0806004060605000060B1
:103570009090F09090040606050000E090E0909096
:10358000E004060605000060908080906004060656
:10359000050000E090909090E0040606050000F021
:1035A00080E08080F0040606050000F080E0808066
:1035B00080040606050000609080B0907004060646
:1035C0000500009090F0909090030606050100E041
:1035D00040404040E0040606050000101010109026
:1035E0006004060605000090A0C0C0A09004060676
:1035F0000500008080808080F004060605000090B1
:10360000F0F090909004060605000090D0D0B0B085
:1036100090040606050000609090909060040606F5
:10362000050000E09090E080800407070500FF603F
:10363000909090D06010040606050000E09090E0A5
:10364000A0900406060500006090402090600306EC
:1036500006050100E0404040404004060605000029
:1036600090909090906004060605000090909090D5
:103670006060040606050000909090F0F09004064B
:10368000060500009090606090900306060501001A
:10369000A0A0A0404040040606050000F010204015
:1036A00080F0030606050100E080808080E00404CD
:1036B0000405000180402010030606050100E020FB
:1036C000202020E003020205010440A004010105BE
:1036D0000000F00202020501048040040404050019
:1036E000007090B0500406060500008080E09090C5
:1036F000E003040405000060808060040606050005
:103700000010107090907004040405000060B0C0B8
:1037100060040606050000205040E0404004050516
:103720000500FF7090608070040606050000808030
:10373000E09090900306060501004000C04040E084
:103740000307070501FF2000202020A040040606F3
:103750000500008080A0C0A090030606050100C0FF
:1037600040404040E0040404050000A0F0909004B4
:103770000404050000E0909090040404050000603B
:103780009090600405050500FFE09090E08004053E
:10379000050500FF7090907010040404050000E01F
:1037A00090808004040405000070C030E004060628
:1037B0000500004040E04040300404040500009053
:1037C000909070030404050100A0A0A0400404042C
:1037D0000500009090F0F004040405000090606083
:1037E000900405050500FF90905020400404040556
:1037F0000000F02040F00306060501002040C04014
:10380000402001060605020080808080808003063B
:10381000060501008040604040800402020500046B
:1038200050A0FFFFFFFFFFFFFFFFFFFFFFFFFFFFB6
:10383000FFFFFFFFFFFFFFFFFFFFFFFFFFFFFFFF98
:10384000FFFFFF00000005040001060605020080DE
:1038500000808080800406060500FF2070A0A07014
:10386000200405050500003040E040B005050505D1
:1038700000008870507088030606050100A0A04073
:10388000E0404001050505020080800080800307BC
:10389000070501FF6080C0A06020C0030101050191
:1038A00005A00507070500FF7088A8C8A888700351
:1038B000030305000360A0600503030500014890B1
:1038C00048040202050001F010030101050102E0B5
:1038D0000507070500FF7088E8C8C8887004010163
:1038E000050005F003030305010340A0400506069B
:1038F0000500002020F82020F8020404050102C081
:103900004080C0020404050102C0C040C00202029F
:1039100005010440800405050500FF909090E080BB
:1039200004060605000070D0D05050500202020577
:103930000102C0C00202020501FF40800304040529
:10394000010240C040E003030305000340A040051E
:1039500003030500019048900407070500FF8080DD
:1039600080903070100407070500FF808080B01041
:1039700020300407070500FFC0C040D0307010039E
:10398000060605010040004080A040040606050030
:1039900000609090F0909004060605000060909002
:1039A000F09090040606050000609090F09090045E
:1039B0000606050000609090F09090040606050051
:1039C00000906090F0909004060605000060609002
:1039D000F0909004060605000070A0B0E0A0B004CE
:1039E00007070500FF609080809060400406060590
:1039F0000000F080E08080F0040606050000F08002
:103A0000E08080F0040606050000F080E08080F091
:103A1000040606050000F080E08080F0030606053D
:103A20000100E040404040E0030606050100E040A0
:103A3000404040E0030606050100E040404040E011
:103A4000030606050100E040404040E0040606058C
:103A50000000E050D05050E0040606050000B09091
:103A6000D0B0B09004060605000060909090906081
:103A7000040606050000609090909060040606051C
:103A80000000609090909060040606050000609031
:103A90009090906004060605000090609090906001
:103AA0000404040500009060609004060605000010
:103AB00070B0B0D0D0E00406060500009090909061
:103AC00090600406060500009090909090600406B7
:103AD0000605000090909090906004060605000096
:103AE000900090909060030606050100A0A0A04001
:103AF000404004060605000080E090E08080040657
:103B0000060500006090A09090A004060605000045
:103B100040207090B05004060605000020407090D0
:103B2000B05004060605000020507090B050040606
:103B30000605000050A07090B05004060605000075
:103B400050007090B0500406060500006060709050
:103B5000B05004040405000070B0A0700305050512
:103B600001FF608080604004060605000040206080
:103B7000B0C060040606050000204060B0C06004CC
:103B8000060605000040A060B0C0600406060500FF
:103B900000A00060B0C0600306060501008040C0C0
:103BA0004040E00306060501004080C04040E003BD
:103BB000060605010040A0C04040E00306060501DE
:103BC00000A000C04040E004060605000040306050
:103BD00090906004060605000050A0E090909004CC
:103BE000060605000040206090906004060605006F
:103BF00000204060909060040606050000600060B0
:103C000090906004060605000050A060909060044B
:103C10000606050000500060909060040505050050
:103C2000006000F0006004040405000070B0D0E003
:103C300004060605000040209090907004060605DA
:103C4000000020409090907004060605000060007F
:103C500090909070040606050000500090909070BF
:103C60000407070500FF20409090502040040606FE
:103C70000500FF80E09090E0800407070500FF50FA
:103C800000909050204055495F414354494F4E5F4A
:103C9000484F4D45414C4C20005D2E776569676863
:103CA000743D00457874727565725B005D2E7765B2
:103CB000696768743D00457874727565725B008051
:103CC00025000040380000004B000080700000001C
:103CD000960000C0DA000000E10000002C0100089E
:103CE000B2010000C2010000F40100008403009052
:103CF000D0030000E803000008070020A10700002F
:103D0000100E0040420F0060E3160000000000614A
:103D100075746F4D69785F45307765696768745F62
:103D20006D6178203D20006175746F4D69785F4545
:103D3000307765696768745F6D696E203D20005556
:103D4000495F414354494F4E5F45504F5349544991
:103D50004F4E200055495F414354494F4E5F5A50E2
:103D60004F534954494F4E5F4641535420005549E3
:103D70005F414354494F4E5F59504F534954494F47
:103D80004E5F46415354200055495F414354494FCB
:103D90004E5F58504F534954494F4E5F464153541C
:103DA000200055495F414354494F4E5F5A504F538D
:103DB0004954494F4E200055495F414354494F4EA5
:103DC0005F59504F534954494F4E200055495F4168
:103DD0004354494F4E5F58504F534954494F4E201A
:103DE000004170706C79204D697820526174696F60
:103DF0000045787435204D697820526174696F3AB6
:103E0000254D340045787434204D69782052617412
:103E1000696F3A254D330045787433204D69782019
:103E2000526174696F3A254D320045787432204DE5
:103E3000697820526174696F3A254D310045787474
:103E400031204D697820526174696F3A254D3000F8
:103E5000457874722E30204D61783A254D4D0045DD
:103E60007874722E30204D696E3A254D6D00417583
:103E7000746F4D6978526174696F3A254D61004DD8
:103E80006978526174696F3A20254D302F254D3184
:103E900000536574204D697820526174696F000584
:103EA0002565312F254531025A3A257832000725FC
:103EB00065422F25456202205A3A257832200005B6
:103EC000313A2565302F2545300205323A256531D6
:103ED0002F25453102004175746F6C6576656C2045
:103EE0004D65617375726500456E6453746F702023
:103EF000202020203A202564700050727A65737566
:103F00006E2077205A203A2554326D6D0050727A17
:103F10006573756E20772059203A202554316D6DD8
:103F20000050727A6573756E20772058203A2025EC
:103F300054306D6D00506F6C6F7A656E69652077D7
:103F4000796472756B75005779732E20536F6E64A8
:103F500079205A3A257A68002544332033204B6F64
:103F6000706965002544322032204B6F706965000E
:103F70002544312031204B6F706961002544302089
:103F80004E6965206B6F7069756A0025583520573A
:103F900079626965727A20457874722E2036002520
:103FA0005834205779626965727A20457874722E88
:103FB000203500255833205779626965727A20458B
:103FC0007874722E20340057796C2E2045787472E4
:103FD0007564657220360057796C2E2045787472AE
:103FE0007564657220350057796C2E20457874729F
:103FF0007564657220340054656D702E4578363ACC
:104000002565352F25453502430054656D702E45D5
:1040100078353A2565342F25453402430054656DC3
:10402000702E4578343A2565332F254533024300F9
:10403000202542436D6D0005256563020005256559
:10404000632F254563020000256F73002555662008
:104050006D206472756B6F77616E65002555662003
:104060006D0025557400583A25783020593A257846
:1040700031004D756C3A20256F6D202020466C6F05
:10408000773A20256F66005A3A257832202042750B
:1040900066203A20256F4200072565422F2545629C
:1040A0000200052565632F25456302072565422F1C
:1040B0002545620200256F730050727A65703A20C0
:1040C000256F66252525004D756C3A20256F6D25D9
:1040D000252520FD202020453A202578346D000E2E
:1040E000202565622F254562B0205A3A2578320096
:1040F0004D69783A20254D302F254D3120593A25EC
:104100007831000A202565632F254563B020583A91
:10411000257830004A657A796B00496E6E612067B8
:104120007275626F73633A2542436D6D00496E6E1E
:1041300061004B6C656A207720737A7479666369D5
:1041400065005A69656C6F6E61207461736D6120E2
:10415000504554004E6965622E207461736D612074
:104160006D61736B2E004B6170746F6E00427569E8
:104170006C6454616B00437A797374792073746F43
:104180006C0073746F6C753A005779626965727A66
:10419000206D6174657269616C00506F6B72796338
:1041A00069652073746F6C75005374616E64627915
:1041B00000456B73747275646572207A61626C6F0E
:1041C0006B6F77616E790074656D7065726174757F
:1041D0007279202E2E2E00506F637A656B616A20F3
:1041E0006E61207A6164616E6500726F7A67727ABF
:1041F000616320656B7374727564657279004B6CD2
:10420000696B6E696A20616279207A6EC3B3770048
:1042100049676E6F72756A206B6F6D2E204D31305D
:10422000362025466900506F7A79636A61205365AC
:104230007277613A20256F53004175746F706F7A01
:10424000696F6D6F772E3A20256C6C004B6C696B33
:104250006E696A206A616B20676F746F77650066AC
:10426000696C616D656E74207720676F72652F646D
:104270006F6C004B726563206162792070727A65A1
:104280007375776163005A6D69656E2066696C614C
:104290006D656E74005A6D69616E612066696C614E
:1042A0006D656E747500446F726567756C756A2014
:1042B0005A3A256F596D6D0050727A657277696A46
:1042C0002077796472756B00536C6F7742616E670B
:1042D00000446561642054696D6500576C2F5779FF
:1042E0006C207A6173696C616E6965006472756BCC
:1042F0006F77616E65005A757A79746F2066696CA4
:10430000616D656E747500437A61732070726163CC
:10431000790020682E003A0020646E692C20004449
:1043200072756B61726B6120676F746F7761004BA0
:104330006172746120534420776C6F7A6F6E6100F4
:104340004B617274612053442077796A657461000F
:10435000577973757720726F7A67727A65773A2525
:1043600058556D6D004D696E54656D702077797389
:104370007577753A255854024300506F7A696F6D0E
:104380002064656C7479004F626C69637A20706F89
:104390007A696F6D6F77616E6961005573746177CB
:1043A0002050330055737461772050320055737478
:1043B0006177205031005A206B616C69622E005584
:1043C00073746177205A3D30005A6572756A2070A7
:1043D0006F6D69617200506F6B617A20706F6D69EB
:1043E00061720050727A65706C79772066696C61D1
:1043F0006D2E3A256F6625252500537A79626B6FFD
:104400007363206472756B75203A256F6D252525C1
:1044100000072565622F2545620243207E256F62D5
:104420000045333A2565322F25453202437E256FFC
:10443000320045323A2565312F25453102437E252C
:104440006F310045313A2565302F25453002437ED6
:10445000256F3000052565632F2545630243207EC7
:10446000256F43004275666F723A256F42004C61BA
:10447000646F77616E69652E2E2E006F64637A79A2
:1044800074616E61207A20454550524F4D004B6F4C
:104490006E666967757261636A61007A61706973DB
:1044A000616E6120646F20454550524F4D004B6F47
:1044B0006E666967757261636A610053696C6E69E3
:1044C0006B692077796C61637A6F6E65005A6174ED
:1044D000727A796D616E790047727A616E696520D2
:1044E00073746F6C750047727A616E696520676CD2
:1044F0006F7769637900416B636A613A256C61008B
:10450000504944004477757374616E6F7779004F3A
:1045100066736574205920203A255879004F6673D8
:104520006574205820203A255878004D6178207312
:104530007465722E3A20255844004D617820492038
:104540007761723A2025584D004D696E20492077D9
:1045500061723A2025586D005049442044202020A3
:10456000203A255864005049442049202020203A10
:10457000255869004D61782E2050574D203A255816
:1045800044004465616474696D65203A2558700083
:104590005049442050202020203A25587000526570
:1045A00067756C61746F723A255868004164766172
:1045B0006E63652071756164203A2558610041641D
:1045C00076616E6365206C696E20203A25586C0018
:1045D000437A61732073746162696C2E203A2558A6
:1045E00077730050727A7973706965737A2E202020
:1045F0003A255841004D617820537A79626B6F7388
:1046000063203A25584600506F637A61746B6F7768
:104610006120535A3A255866004B726F6B692F6DB3
:104620006D203A2025536500537A79626B6F73636E
:10463000205553423A256F6300557374617769655D
:104640006E696120676C6F776E6500303D4E6965FD
:104650002077796C61637A616A0057796C61637A5B
:1046600020706F3A20256970206D696E2E00577991
:104670006C61637A207A6173696C2E20706F0030F0
:104680003D4E69652077796C61637A616A0057797C
:104690006C61637A20706F3A20256973206D696EB2
:1046A0002E0057796C61637A2073696C6E696B694F
:1046B00020706F005573746177206E612031303047
:1046C000252525005573746177206E6120373525C7
:1046D0002525005573746177206E612035302525BE
:1046E00025005573746177206E61203235252525AC
:1046F0000057796C61637A207769617472616B002D
:104700004F62726F7479207769617472616B613A7C
:10471000254673252525004F62726F7479207769CD
:10472000617472616B61004D696E3A25737A204D38
:1047300061783A25735A005A3A257832206D6D0017
:104740004D696E3A257379204D61783A2573590089
:10475000593A257831206D6D004D696E3A25737890
:10476000204D61783A25735800583A257830206DED
:104770006D004D696E3A25737A204D61783A257344
:104780005A005A3A257832206D6D004D696E3A25EF
:104790007379204D61783A25735900593A2578315B
:1047A000206D6D004D696E3A257378204D61783A21
:1047B00025735800583A257830206D6D004A65649D
:1047C0006E6F73746B612031206D6D00453A2578F2
:1047D00033206D6D00004B72616E636F776B6120EB
:1047E0004D41583A2025735A004B72616E636F77C2
:1047F0006B61204D494E3A2025737A005A3A25784C
:1048000032206D6D00004B72616E636F776B6120BB
:104810004D41583A20257359004B72616E636F7792
:104820006B61204D494E3A2025737900593A25781D
:1048300031206D6D00004B72616E636F776B61208C
:104840004D41583A20257358004B72616E636F7763
:104850006B61204D494E3A2025737800583A2578EF
:1048600030206D6D00004B72616E636F776B61205D
:104870004D61783A2025735A004B72616E636F77F1
:104880006B61204D494E3A2025737A005A3A2578BB
:1048900032206D6D2025647A25645A00004B7261C8
:1048A0006E636F776B61204D61783A2025735900F4
:1048B0004B72616E636F776B61204D494E3A2025D4
:1048C000737900593A257831206D6D20256479255A
:1048D000645900004B72616E636F776B61204D41CC
:1048E000583A20257358004B72616E636F776B6185
:1048F000204D494E3A2025737800583A25783020CB
:104900006D6D2025647825645800506F77726F7440
:104910003A25665A00506F77726F74205A3A2566AE
:104920005A00506F77726F7420593A2566590050BB
:104930006F77726F7420583A256658004D61783A47
:1049400025667A004D6178205A3A25667A004D61D5
:104950007820593A256679004D617820583A2566C5
:104960007800537A79626B6F7363005573756E20AC
:10497000706C696B005A616D6F6E74756A206B6143
:10498000727465004F646D6F6E74756A206B61722E
:10499000746500577A6E6F77206472756B6F772E2F
:1049A00000577374727A796D616A206472756B0056
:1049B0004472756B756A207A20706C696B75004162
:1049C0006E7469204F6F7A650050727A6573756EE8
:1049D00020706F3A254F61004D696E2E64697374C3
:1049E0003A254F64004261636B736C2E203A254F69
:1049F000620052657472616374203A254F7200251B
:104A00004F32204F5053204661737400254F3120A0
:104A10004F505320436C617373696300254F3020FE
:104A20004F5053204F66660042657A207779647252
:104A3000756B75203A2025646400426C65647920AA
:104A40002020202020203A2025646500496E666FD2
:104A5000726D61636A6520203A20256469004563B0
:104A6000686F20202020202020203A2025646F001D
:104A70004F64637A7974207A20454550524F4D0037
:104A80005A617069737A20646F20454550524F4DCA
:104A90000050727A7973706965737A656E69650022
:104AA0005A2D4A65726B3A25614A004A65726B3A23
:104AB00025616A0050727A65737577616E6961204D
:104AC0003A25615A0050727A657375772E205A2004
:104AD000203A25615A0050727A657375772E2059F5
:104AE00020203A2561590050727A657375772E201F
:104AF0005820203A256158004472756B6F77616EBB
:104B0000696120203A25617A004472756B6F772EB7
:104B1000205A2020203A25617A004472756B6F7705
:104B20002E20592020203A256179004472756B6F40
:104B3000772E20582020203A256178005573746123
:104B400077206A616B6F207A65726F00255831207B
:104B50005779626965727A20457874722E20330025
:104B6000255831205779626965727A2045787472C8
:104B70002E203200255830205779626965727A20DC
:104B8000457874722E20310057796C2E2045787448
:104B9000727564657220330057796C2E20457874E5
:104BA000727564657220320057796C2E20457874D6
:104BB000727564657220310054656D702E457833CE
:104BC0003A2565322F25453202430054656D702E1B
:104BD0004578323A2565312F254531024300546529
:104BE0006D702E4578313A2565302F2545300243CA
:104BF0000054656D702E53746F6C753A2565622F85
:104C0000254562024300506F7A79636A61204578D6
:104C10007472756465726100506F7A79636A61209D
:104C20005A20537A79626B6F00506F7A79636A61A8
:104C3000205A00506F7A79636A61205920537A793B
:104C4000626B6F00506F7A79636A61205900506F10
:104C50007A79636A61205820537A79626B6F0050C9
:104C60006F7A79636A6120580057796C61637A20A2
:104C700073696C6E696B69005573746177206A6142
:104C80006B6F207A65726F0043686C6F647A656E33
:104C90006965004F73776965746C656E6965203A64
:104CA000256C6F00526F7A67727A656A20414253B1
:104CB00000526F7A67727A656A20504C41005A65DB
:104CC00072756A205A005A6572756A2059005A65D1
:104CD00072756A2058005A6572756A2077737A79FE
:104CE00073746B6965206F73696500486F6D65202B
:104CF00064656C746100546573746F77616E696587
:104D0000004B6172746120534400456B737472757B
:104D100064657200506F7A79636A61004B6F6E66EA
:104D20006967757261636A6100256F6500537A79FE
:104D3000626B696520757374617769656E6961007E
:104D4000506F77726F742001002A2A2A2A20424C61
:104D50004144202A2A2A2A004272616B206B617228
:104D6000747920534400576F6C6E61004472756B08
:104D70006F77616E6965004472756B6F77616E69FC
:104D8000652E2E2E004E69650054616B00427261E3
:104D90006B0057796C005A616C004170706C79201F
:104DA0004D697820526174696F0045787435204DE3
:104DB000697820526174696F3A254D3400457874E2
:104DC00034204D697820526174696F3A254D330063
:104DD00045787433204D697820526174696F3A25A3
:104DE0004D320045787432204D69782052617469E3
:104DF0006F3A254D310045787431204D6978205245
:104E00006174696F3A254D3000457874722E3020F8
:104E10004D61783A254D4D00457874722E30204D05
:104E2000696E3A254D6D004175746F4D6978526118
:104E300074696F3A254D61004D6978526174696FEC
:104E40003A20254D302F254D3100536574204D6992
:104E50007820526174696F00052565312F25453131
:104E6000025A3A25783200072565422F254562020D
:104E7000205A3A257832200005313A2565302F2511
:104E800045300205323A2565312F25453102004172
:104E900075746F6C6576656C204D656173757265B0
:104EA00000456E6453746F703A25647000536574E6
:104EB000205A206F66667365743A2554326D6D0012
:104EC0005365742059206F66667365743A255431B2
:104ED0006D6D005365742058206F66667365743A73
:104EE0002554306D6D00536574207072696E7420A6
:104EF0006F666673657473005679736B61207A2DE3
:104F0000746573743A257A68002544332033204B46
:104F10006F706969002544322032204B6F706969D7
:104F2000002544312031204B6F70696500254430E5
:104F3000205A61646E65204B6F7069650025583595
:104F4000205A766F6C697420457874722E20360072
:104F5000255834205A766F6C697420457874722E07
:104F6000203500255833205A766F6C6974204578B7
:104F700074722E2034004578747275646572203620
:104F8000207679702E0045787472756465722035CC
:104F9000207679702E0045787472756465722034BD
:104FA000207679702E005465706C6F746120363AEB
:104FB0002565352F2545350243005465706C6F74A7
:104FC0006120353A2565342F254534024300546568
:104FD000706C6F746120343A2565332F2545330298
:104FE0004300202542436D6D0005256563020005E1
:104FF0002565632F254563020000256F7300255545
:1050000066206D2050726F7469736B6E75746F00DB
:10501000255566206D0025557400583A25783020B6
:10502000593A257831004D756C3A20256F6D202056
:1050300020466C6F773A20256F66005A3A25783201
:105040002020427566203A20256F420007256542E0
:105050002F2545620200052565632F25456302075C
:105060002565422F2545620200256F7300466C6F4F
:10507000773A20256F66252525004D756C3A202549
:105080006F6D25252520FD202020453A20257834E8
:105090006D000E202565622F254562B0205A3A2505
:1050A0007832004D69783A20254D302F254D31203A
:1050B000593A257831000A202565632F254563B0CC
:1050C00020583A257830004A617A796B00566C6135
:1050D00073746E693A2542436D6D00566C6173744A
:1050E0006E69004C657069636920747963696E6BE1
:1050F00061005A656C656E61205045542070617383
:105100006B61004D6F647261206D61736B2E207056
:1051100061736B61004B6170746F6E004275696CF6
:105120006454616B004E6F206E61746572000050B4
:105130006F7374656C206E617465723A00506F73A2
:1051400074656C206E61746572005374616E646284
:1051500079004578747275646572206A616D0074B7
:1051600065706C6F7479202E2E2E00506F636B6506
:105170006A7465206E612063696C6F76650065787E
:10518000747275646572732E004B6C696B6EC49B90
:105190007465206F687261740049676E6F726F7614
:1051A0006174204D31303620254669005365727692
:1051B0006F20706F7A6963653A20256F53004175DF
:1051C000746F6C6576656C3A20256C6C00506F6B63
:1051D000722E2073206376616B6E7574696D007634
:1051E0006C616B656E206E61686F72752F646F6C99
:1051F00075004F746F63697420736520706F6879F0
:10520000626F766174005A6D656E612066696C61CB
:105210006D656E74005A6D656E612066696C616DB6
:10522000656E74005A2062616279737465702E3AFB
:10523000256F596D6D005A617374617669742074BD
:1052400069736B00536C6F7742616E6700446561F0
:10525000642054696D65005A61706E6F75742041E9
:105260005458207A64726F6A0050726F7469736B5D
:105270006E75746F0046696C616D656E742074693B
:105280007374656E7900436173207469736B750084
:10529000003A0020646E7520005469736B61726E71
:1052A00061204F4B00566C6F7A656E61205344202D
:1052B0006B61727461005344206B6172746120767B
:1052C000796A6D7574612E004A65646E2E2063657F
:1052D0006B616E693A2558556D6D005465706C2E82
:1052E0002063656B616E692558540243004C6576F6
:1052F000656C2064656C7461005679706F636974C5
:105300006174206C6576656C696E67005365742006
:10531000503300536574205032005365742050316F
:10532000005A206B616C69622E00536574205A3DEF
:1053300030004F626E6F766974206D6572656E69BC
:1053400000556B617A6174206D6572656EC3AD0046
:10535000466C6F77206E61736F6269743A256F6671
:1053600025252500527963686C6F73743A256F6D3B
:1053700025252500072565622F2545620243207EED
:10538000256F620045333A2565322F2545320243A9
:105390007E256F320045323A2565312F2545310291
:1053A000437E256F310045313A2565302F25453044
:1053B00002437E256F3000052565632F2545630276
:1053C00043207E256F43004275666665723A256FFD
:1053D00042004E6168726176616D2E2E2E004E6124
:1053E0006374656E61207A20454550524F4D004BE5
:1053F0006F6E666967757261636500556C6F7A657B
:105400006E61207620454550524F4D004B6F6E66C1
:1054100069677572616365004D6F746F722076798C
:10542000706E7574005A6173746176656E6F004FAB
:1054300068726976616E69206465736B79004F6884
:10544000726976616E6920657874727564657275CB
:1054500000416B63653A256C61005049440042612C
:105460006E6742616E6700592D4F66667365743AC8
:1054700025587900582D4F66667365743A2558781B
:1054800000504944204D61783A25584400447269DF
:105490007665204D61783A25584D004472697665ED
:1054A000204D696E3A25586D0050494420443A25F4
:1054B00058640050494420493A255869004F766C99
:1054C0006164616E692050574D3A25584D004D7208
:1054D00074766120646F62613A25587000504944C7
:1054E00020503A25587000436F6E74726F6C3A25E5
:1054F000586800526F7A7369722E20717561643A30
:1055000025586100526F7A7369722E206C696E3A69
:1055100025586C00537461622E6361733A25587785
:10552000005A727963686C2E3A255841004D6178B3
:105530002046523A255846005374617274204652F0
:105540003A255866006B726F6B752F4D4D3A255397
:105550006500527963686C6F73743A256F63005A03
:10556000616B6C61646E69005B6D696E5D20303DDE
:105570004F6666005679706E6F757420706F3A20B2
:105580002569206D004D61782E206E65616B746910
:10559000766E69005B6D696E5D20303D4F6666001A
:1055A0005679706E6F757420706F203A2569206D82
:1055B000004E65616B7469766E69206D6F746F72F1
:1055C000790056657472616B206E6120706C6E6F2D
:1055D0000056657472616B206E6120373525252574
:1055E0000056657472616B206E612035302525256B
:1055F0000056657472616B206E6120323525252559
:10560000005679706E6F757400416B7475616C6EC5
:105610006920727963686C6F73743A254673252527
:105620002500527963686C6F7374207665747261BB
:105630006B75004D696E3A25737A204D61783A2575
:10564000735A005A3A257832206D6D004D696E3AD2
:10565000257379204D61783A25735900593A257898
:1056600031206D6D004D696E3A257378204D61785B
:105670003A25735800583A257830206D6D004D69F1
:105680006E3A25737A204D61783A25735A005A3A5A
:10569000257832206D6D004D696E3A257379204D65
:1056A00061783A25735900593A257831206D6D009B
:1056B0004D696E3A257378204D61783A257358000C
:1056C000583A257830206D6D0031206B6C696B6E17
:1056D000757469203D2031206D6D00453A25783381
:1056E000206D6D00004D6178206B6F6E63616B3AC9
:1056F00025735A004D696E206B6F6E63616B3A259E
:10570000737A005A3A257832206D6D00004D617829
:10571000206B6F6E63616B3A257359004D696E2083
:105720006B6F6E63616B3A25737900593A25783156
:10573000206D6D00004D6178206B6F6E63616B3A78
:10574000257358004D696E206B6F6E63616B3A254F
:10575000737800583A257830206D6D00004D6178DF
:10576000206B6F6E63616B3A25735A004D696E2032
:105770006B6F6E63616B3A25737A005A3A25783203
:10578000206D6D2025647A25645A00004D617820D3
:105790006B6F6E63616B3A257359004D696E206BB8
:1057A0006F6E63616B3A25737900593A2578312021
:1057B0006D6D2025647925645900004D6178206B5A
:1057C0006F6E63616B3A257358004D696E206B6F85
:1057D0006E63616B3A25737800583A257830206DF6
:1057E0006D2025647825645800486F6D653A2566FC
:1057F0005A00486F6D65205A3A25665A00486F6D09
:105800006520593A25665900486F6D6520583A253C
:105810006658004D61783A25667A004D6178205AC5
:105820003A25667A004D617820593A256679004D0F
:10583000617820583A25667800527963686C6F73F6
:105840007400536D617A617420736F75626F7200BA
:10585000507269706F6A6974206B61727475004F61
:1058600064706F6A6974206B6172747500506F6B3D
:105870007261636F76616E69207469736B75005035
:105880006F7A61737461766974207469736B005404
:1058900069736B6E6F757420736F75626F720050F1
:1058A000726F7469206B6170616E6900506F7375FF
:1058B0006E75746920706F3A254F61004D696E2EC8
:1058C000767A642C3A254F640056756C652E203A22
:1058D000254F620052657472616B6365203A254FF3
:1058E0007200254F32204F505320527963686C6507
:1058F00000254F31204F5053204B6C617369636B0F
:105900006500254F30204F5053205679706E7574C6
:105910006F00426568206E616E65636973746F3AEB
:1059200025646400436879627920203A2564650023
:10593000496E666F2020203A256469004563686FD0
:105940002020203A25646F004E6168726174207ACD
:1059500020454550524F4D00556C6F7A6974206454
:105960006F20454550524F4D00416B63656C657229
:10597000616365005A2D4A65726B3A25614A004A97
:1059800065726B3A25616A00506F73756E3A2561D6
:105990005A00506F73756E205A3A25615A00506F45
:1059A00073756E20593A25615900506F73756E20DA
:1059B000583A256158005469736B3A25617A00544E
:1059C00069736B205A3A25617A005469736B2059C8
:1059D0003A256179005469736B20583A2561780043
:1059E0004E6173746176697420706F636174656B66
:1059F00000255831205A766F6C697420457874728E
:105A00002E203300255831205A766F6C697420455A
:105A10007874722E203200255830205A766F6C69C7
:105A20007420457874722E20310045787472756444
:105A300065722033207679702E0045787472756413
:105A400065722032207679702E0045787472756404
:105A500065722031207679702E004578747233207B
:105A60005465706C6F74613A2565322F254532029A
:105A700043004578747232205465706C6F74613ADB
:105A80002565312F25453102430045787472312058
:105A90005465706C6F74613A2565302F254530026E
:105AA00043005465706C6F7461206465736B793A60
:105AB00020254562024300506F7A6963652065784E
:105AC00074727564657275005A20727963686C65CA
:105AD000005A20706F7A6963650059207279636893
