:100000000C94BF0F0C94F00F0C94F00F0C94F00FA5
:100010000C94F00F0C94F00F0C94F00F0C94F00F64
:100020000C94F00F0C94F00F0C94F00F0C94F00F54
:100030000C94F00F0C94F00F0C94F00F0C94F00F44
:100040000C94F00F0C9413910C94F00F0C94F00F8F
:100050000C94F00F0C94F00F0C949E8B0C94AD88C4
:100060000C94F00F0C94F00F0C94F00F0C94F00F14
:100070000C94F00F0C94F00F0C94F00F0C94F00F04
:100080000C94F00F0C94F00F0C94F00F0C94F00FF4
:100090000C94F00F0C94F00F0C94F00F0C94F00FE4
:1000A0000C94F00F0C94F00F0C94F00F0C94F00FD4
:1000B0000C94F00F0C94F00F0C94F00F0C94F00FC4
:1000C0000C94F00F0C94F00F0C94F00F0C94A36EA2
:1000D0000C94F00F0C94F00F0C94F00F0C94F00FA4
:1000E0000C94F00F084AD73B3BCE016E84BCBFFD99
:1000F000C12F3D6C74319ABD56833DDA3D00C77FF8
:1001000011BED9E4BB4C3E916BAAAABE0000008090
:100110003F05A84CCDB2D44EB93836A9020C50B91F
:10012000918688083CA6AAAA2ABE000000803F0744
:10013000634236B79BD8A71A39685618AEBAAB5582
:100140008C1D3CB7CC5763BD6DEDFD753EF6177247
:1001500031BF000000803F08000000BE9224491219
:100160003EABAAAA2ABECDCCCC4C3E00000080BE3D
:10017000ABAAAAAA3E00000000BF000000803F001A
:1001800000000000084178D3BB4387D1133D190E0E
:100190003CC3BD4282AD2B3E68EC8276BED98FE176
:1001A000A93E4C80EFFFBE01C4FF7F3F000000006E
:1001B00000004E414E494E495459494E46CDCCCC93
:1001C0003D0AD7233C17B7D13877CC2B329595E62B
:1001D000241FB14F0A000020410000C84200401C0B
:1001E0004620BCBE4CCA1B0E5AAEC59D74434F4D33
:1001F0004D554E49434154494F4E00445259525572
:100200004E004552524F525300494E464F0045430F
:10021000484F002569730025696D20256973002505
:1002200069682025696D202569730025696420258A
:1002300069682025696D2025697300256979202565
:100240006964202569682025696D2025697300503F
:1002500072696E7465722073746F70706564206467
:10026000756520746F206572726F72732E204669F7
:100270007820746865206572726F7220616E6420E8
:10028000757365204D39393920746F207265737428
:100290006172742E202854656D7065726174757278
:1002A000652069732072657365742E205365742010
:1002B000697420616674657220726573746172740A
:1002C000696E67290A004E6F20436865636B73751A
:1002D0006D2077697468206C696E65206E756D623B
:1002E00065722C204C617374204C696E653A200055
:1002F000636865636B73756D206D69736D6174639D
:10030000682C204C617374204C696E653A20004C57
:10031000696E65204E756D626572206973206E6F1F
:1003200074204C617374204C696E65204E756D624B
:1003300065722B312C204C617374204C696E653AC8
:1003400020004D313130004D33310053442072656F
:100350006164206572726F720A00446F6E6520706E
:1003600072696E74696E672066696C650A00207038
:100370006F736974696F6E206F7574206F66207279
:10038000616E67652E0A003F50726F626520000A39
:100390000A426564204C6576656C20436F72726515
:1003A0006374696F6E204D61747269783A00202B16
:1003B000000A436F7272656374656420426564204D
:1003C0004865696768742076732E204265642054FE
:1003D0006F706F6C6F67793A0A00202B000A4265D4
:1003E000642048656967687420546F706F67726134
:1003F0007068793A0A2020202B2D2D2D2042414370
:100400004B202D2D2B0A2020207C20202020202056
:1004100020202020207C0A204C207C202020202806
:100420002B29202020207C20520A2045207C2020BF
:100430002020202020202020207C20490A20462027
:100440007C20282D29204E20282B29207C20470A7B
:100450002054207C20202020202020202020207CB0
:1004600020480A2020207C20202020282D29202000
:1004700020207C20540A2020207C202020202020A6
:1004800020202020207C0A2020204F2D2D20465285
:100490004F4E54202D2D2B0A2028302C30290A00B5
:1004A0004D65616E206F662073616D706C656420B0
:1004B000706F696E74733A200020643A20002062E5
:1004C0003A200045716E20636F65666669636965F1
:1004D0006E74733A20613A200020284452595255D4
:1004E0004E2900473239204175746F2042656420DF
:1004F0004C6576656C696E670028422961636B0004
:10050000284629726F6E7400285229696768740042
:10051000284C29656674003F4E756D626572206FC8
:10052000662070726F626520706F696E74732069E7
:100530007320696D706C61757369626C6520283217
:10054000206D696E696D756D292E0A003F28562948
:100550006572626F7365206C6576656C20697320C7
:10056000696D706C61757369626C652028302D341B
:10057000292E0A0044656C6574696F6E2066616996
:100580006C65642C2046696C653A200046696C6590
:100590002064656C657465643A006F70656E2066F2
:1005A00061696C65642C2046696C653A20006D00B9
:1005B00046696C616D656E7420757365643A2000E0
:1005C00053746174733A20002C204C6F6E6765730E
:1005D00074206A6F623A2000546F74616C207469F1
:1005E0006D653A200053746174733A20002C2046E4
:1005F00061696C65643A20002C2046696E697368F5
:1006000065643A20005072696E74733A2000537426
:100610006174733A2000205A3A0020423A00204385
:100620006F756E7420413A0020453A00205A3A0016
:1006300020593A00583A003A004361703A00236466
:100640006566696E65202044454641554C545F4BB4
:1006500064200023646566696E6520204445464138
:10066000554C545F4B69200023646566696E6520B4
:100670002044454641554C545F4B7020005049443E
:10068000204175746F74756E652066696E69736854
:100690006564212050757420746865206C617374E2
:1006A000204B702C204B6920616E64204B642063CA
:1006B0006F6E7374616E74732066726F6D20626505
:1006C0006C6F7720696E746F20436F6E6669677513
:1006D000726174696F6E2E680A005049442041753A
:1006E000746F74756E65206661696C656421207431
:1006F000696D656F75740A00544845524D414C2030
:1007000052554E4157415900546865726D616C20D5
:1007100052756E617761790048656174696E672012
:100720006661696C65640048656174696E6720661E
:1007300061696C656400504944204175746F74753B
:100740006E65206661696C6564212054656D706515
:1007500072617475726520746F6F20686967680ACA
:1007600000204B643A2000204B693A2000204B7057
:100770003A20000A20436C61737369632050494436
:10078000200A002054753A2000204B753A200020A2
:100790006D61783A2000206D696E3A200020643A3D
:1007A000200020626961733A200047322F473320CE
:1007B00062616420706172616D65746572730A00B4
:1007C000205A3A200020593A200042656420583AC5
:1007D0002000456E642066696C65206C6973740A3C
:1007E00000426567696E2066696C65206C69737488
:1007F0000A005344207072696E74696E67206279D2
:10080000746520004E6F74205344207072696E74BA
:10081000696E670A005072696E742074696D653A7A
:10082000200050726F7465637465642050696E0AAD
:10083000006F6666000E0209020202FB01ED014430
:10084000454255473A006F6B0020573A0020573A0F
:1008500000454D455247454E43595F50415253451F
:100860005200434153455F4C494748545F42524907
:100870004748544E45535300544F47474C455F4CEF
:10088000494748545300534F4654574152455F50CF
:100890004F574552004255494C445F5045524345DD
:1008A0004E54004C4556454C494E475F44415441D7
:1008B000005A5F50524F4245004155544F4C4556E7
:1008C000454C005052494E545F4A4F420050524FDF
:1008D0004752455353004155544F5245504F52547F
:1008E0005F54454D5000564F4C554D455452494369
:1008F00000454550524F4D0053455249414C5F58B9
:100900004F4E5F584F4646004649524D574152455B
:100910005F4E414D453A4D61726C696E2042617384
:1009200065206F6E204D61726C696E312E312E38EC
:1009300020284769746875622920534F55524345F2
:100940005F434F44455F55524C3A68747470733A34
:100950002F2F6769746875622E636F6D2F7A6F6EC3
:10096000657374617233642050524F544F434F4C3F
:100970005F56455253494F4E3A312E30204D414338
:1009800048494E455F545950453A5A3946204558D2
:100990005452554445525F434F554E543A312055B9
:1009A0005549443A30303030303031302D303830E5
:1009B000382D303030332D303030302D323031382A
:1009C000303131303030310A002F2F200053657420
:1009D00074696E672054726176656C20416363654B
:1009E0006C65726174696F6E3A2000536574746946
:1009F0006E67205265747261637420416363656C35
:100A000065726174696F6E3A200053657474696E23
:100A100067205072696E7420416363656C65726112
:100A200074696F6E3A200053657474696E67205064
:100A300072696E7420616E642054726176656C20F8
:100A4000416363656C65726174696F6E3A20002062
:100A50005A00205900580020204D61783A2000208B
:100A60005A00205900580020204D696E3A20004F4E
:100A70006E20004F666600536F667420656E647367
:100A8000746F70733A200000013C3D3803FF363725
:100A9000260EFF2E303E12FF13FF080906FFFF1A35
:100AA0001C18FFFF24221E28271608440A0643FFAD
:100AB000FFFFFFFFFF20643A0020693A0020703AF0
:100AC00000426564204C6576656C696E672000465F
:100AD00061696C656420746F20656E61626C65206D
:100AE000426564204C6576656C696E670A004265F4
:100AF00064204C6576656C20436F7272656374691F
:100B00006F6E204D61747269783A003A2000207A45
:100B10005F6D696E3A20202D3230207A5F6D6178EA
:100B20003A202032300A0050726F6265205A204FFE
:100B30006666736574004E6F2063617365206C692F
:100B40006768740A00556E6B6E6F776E20636F6D09
:100B50006D616E643A202200526573656E643A20BE
:100B6000006F6B0020746F6F206C6F6E672065786C
:100B700074727573696F6E2070726576656E7465D8
:100B8000640A004B494C4C206361757365642062B4
:100B90007920746F6F206D75636820696E6163746E
:100BA0006976652074696D65202D206375727265A4
:100BB0006E7420636F6D6D616E643A20000000A05A
:100BC000C00000A0C0000000000000484200004833
:100BD0004200000040000000005761726E696E67BD
:100BE0003A20486F6D696E672042756D70204469C8
:100BF0007669736F72203C20310A00020204000003
:100C0000A0400000A040000000400080A2430080FF
:100C10009D430000C843FFFFFF7C3C3E5E2B3D3FF1
:100C20002F5B5D3B2C2A225C004572726F7220772D
:100C3000726974696E6720746F20454550524F4D3C
:100C4000210A00290A002062797465733B206372CF
:100C500063200053657474696E67732053746F72F8
:100C60006564202800202863616C63756C6174657D
:100C70006429210A0020213D2000454550524F4D56
:100C800020435243206D69736D61746368202D2089
:100C90002873746F726564292000290A0020627924
:100CA0007465733B2063726320002073746F7265F8
:100CB000642073657474696E6773207265747269F9
:100CC00065766564202800204D61726C696E3D5622
:100CD0003630290A0028454550524F4D3D004545C4
:100CE00050524F4D2076657273696F6E206D697337
:100CF0006D61746368200048617264636F64656449
:100D00002044656661756C742053657474696E6700
:100D100073204C6F616465640A00D0070000D0073F
:100D2000000064000000881300000000164300006B
:100D3000C84200000041000048420000A0420000FC
:100D4000A0420000C8430000C843205A00205900B8
:100D500020204D3231312058004D696E20506F7384
:100D60002041646A3A0A0020204D383531205A006B
:100D70005A2D50726F6265204F6666736574202825
:100D80006D6D293A0A0020204D3230392053004140
:100D900075746F2D526574726163743A20533D30DF
:100DA00020746F2064697361626C652C203120743B
:100DB0006F20696E7465727072657420452D6F6E58
:100DC0006C79206D6F766573206173207265747223
:100DD0006163742F7265636F7665720A0020460046
:100DE00020570020204D3230382053005265636F69
:100DF0007665723A20533C6C656E6774683E204697
:100E00003C756E6974732F6D3E0A00205A002046AF
:100E10000020570020204D32303720530052657497
:100E2000726163743A20533C6C656E6774683E204F
:100E3000463C756E6974732F6D3E205A3C6C696632
:100E4000743E0A0020440020490020204D333031F8
:100E50002050005049442073657474696E67733A7A
:100E60000A0020204D3432302053004175746F2029
:100E7000426564204C6576656C696E673A0A0020AD
:100E80004500205A002059002058002042002054DC
:100E90000020204D323035205300416476616E636E
:100EA00065643A20533C6D696E5F66656564726186
:100EB00074653E20543C6D696E5F74726176656C3A
:100EC0005F66656564726174653E20423C6D696E63
:100ED0005F7365676D656E745F74696D655F75736B
:100EE0003E20583C6D61785F78795F6A65726B3E31
:100EF000205A3C6D61785F7A5F6A65726B3E20456F
:100F00003C6D61785F655F6A65726B3E0A002054D4
:100F10000020520020204D323034205000416363C5
:100F2000656C65726174696F6E2028756E69747383
:100F30002F7332293A20503C7072696E745F61637E
:100F400063656C3E20523C726574726163745F61CC
:100F50006363656C3E20543C74726176656C5F61BE
:100F60006363656C3E0A00204500205A002059004A
:100F700020204D3230312058004D6178696D756DFB
:100F800020416363656C65726174696F6E202875BA
:100F90006E6974732F7332293A0A00204500205A73
:100FA0000020590020204D3230332058004D617808
:100FB000696D756D2066656564726174657320285E
:100FC000756E6974732F73293A0A00204500205A00
:100FD0000020590020204D3932205800537465708C
:100FE000732070657220756E69743A0A0020204D76
:100FF0003230302044300A0020204D32303020443E
:10100000002044697361626C65640A0046696C6122
:101010006D656E742073657474696E67733A006DE4
:101020006D0A00696E636865730A00203B20556E87
:1010300069747320696E2000202047320030012C33
:1010400001400127015001220170011D019001188A
:1010500001B0011301C0010E01F0010901100204E9
:10106000013002FF006002FA009002F500C002F0B9
:10107000000003EB004003E6008003E100D003DC46
:10108000002004D700E004D200C005CD004006C80F
:1010900000D006C3008007BE00F008B9004009B4C4
:1010A00000C009AF00B00AAA00B00BA500D00CA088
:1010B00000000E9B00C01096005012910000148C8E
:1010C00000C0158700B0178200B0197D00D01B78D2
:1010D00000001E730040206E0090226900F024641E
:1010E0000040275F0090295A00E02B5500102E5039
:1010F0000020304B0010324600E033410090353C78
:10110000001037370070383200A0392D00B03A286F
:1011100000A03B2300603C1E00103D1900903D14D0
:1011200000103E0F00703E0A00C03E0500003F0068
:1011300000403FFBFF803FF6FFC03FF1FF7A5F704A
:10114000726F62653A20007A5F6D696E3A200079AD
:101150005F6D696E3A2000785F6D696E3A200052CB
:1011600065706F7274696E6720656E6473746F70FA
:10117000207374617475730A0020746F6F206C6F34
:101180006E6720657874727573696F6E2070726512
:1011900076656E7465640A0024F4D43050C38E20E2
:1011A000C2A24017828B7011127A910D816CD90AFC
:1011B000A861E108C7586607615143061E4B5D05EB
:1011C000C145A7041A411104093D9803713931033F
:1011D0004036DB0265339102D4305402802E1D026A
:1011E000632CEE01752AC501B028A00110278101EA
:1011F0008F2564012B244B01E0223401AC211F0117
:101200008D200D01801FFC00841EED00971DDF0066
:10121000B81CD200E61BC600201BBC00641AB2003A
:10122000B219A8000A19A0006A189900D1179100F4
:1012300040178B00B516840031167E00B315790077
:101240003A157300C7146F0058146A00EE13660055
:101250008813630025135E00C7125B006C125700F1
:1012600015125400C111510070114F0021114B0093
:10127000D61049008D10470046104400021042006D
:10128000C00F4000800F3E00420F3C00060F3B00A5
:10129000CB0E3800930E37005C0E3500270E34005D
:1012A000F30D3200C10D3100900D3000600D2E00A5
:1012B000320D2D00050D2C00D90C2B00AE0C290091
:1012C000850C29005C0C2700350C27000E0C26002D
:1012D000E80B2400C40B2400A00B23007D0B23008B
:1012E0005A0B2100390B2100180B2000F80A1F00AF
:1012F000D90A1E00BB0A1E009D0A1D00800A1D009F
:10130000630A1C00470A1B002C0A1B00110A1A0062
:10131000F7091A00DD091900C4091900AB09190001
:10132000920917007B091800630917004C09160081
:1013300036091600200916000A091500F5081500DF
:10134000E0081400CC081400B8081400A408140025
:10135000900813007D0812006B0813005808120053
:101360004608120034081100230811001208110069
:1013700001081100F0071000E0071000D00710006E
:10138000C0071000B0070F00A107100091070E0062
:1013900083070F0074070F0065070E0057070E0044
:1013A00049070E003B070D002E070E0020070D0019
:1013B00013070D0006070D00F9060C00ED060D00E1
:1013C000E0060C00D4060C00C8060C00BC060C009D
:1013D000B0060C00A4060B0099060C008D060B004D
:1013E00082060B0077060B006C060B0061060A00F4
:1013F00057060B004C060A0042060A0038060A008F
:101400002E060A0024060A001A060A001006090021
:1014100007060A00FD050900F4050900EB050900AF
:10142000E2050900D9050900D0050900C705090032
:10143000BE050900B5050800AD050800A5050900B1
:101440009C050800940508008C0508008405080028
:101450007C050800740508006C0507006505080098
:101460005D050700560508004E0507004705070003
:101470004005080038050700310507002A05070068
:10148000230507001C050600160507000F050700C9
:101490000805060002050700FB040600F504070026
:1014A000EE040600E8040600E2040700DB04060080
:1014B000D5040600CF040600C9040600C3040600D4
:1014C000BD040600B7040600B1040500AC04060024
:1014D000A6040600A00405009B0406009504050070
:1014E000900406008A0405008504050080040600B7
:1014F0007A04050075040500700405006B040500FE
:1015000066040500610405005C040500570405003D
:10151000520405004D04050048040500430405007D
:101520003E0404003A0405003504050030040400BC
:101530002C04050027040400230405001E040400F5
:101540001A04040016040500110404000D0404002C
:10155000090405000404040000040400FC03040062
:10156000F8030400F4030400F0030400EC03040097
:10157000E8030400E4030400E0030400DC030400C7
:10158000D8030400D4030400D0030400CC030400F7
:10159000C8030300C503030024F404D9201BC40CB2
:1015A0005C0E9804C4095F0265077101F405F90037
:1015B000FB04B30048048700C103690058035500C9
:1015C00003034500BE023A008402310053022A00A0
:1015D0002902250004022000E4011C00C8011900B2
:1015E000AF0117009801140084011300710110006D
:1015F0006101100051010E0043010D0036010B0086
:101600002B010B0020010B00150109000C01090042
:1016100003010800FB000800F3000800EB000700CE
:10162000E4000600DE000600D8000600D200060036
:10163000CC000500C7000500C2000500BD00040085
:10164000B9000400B5000400B1000400AD000400BE
:10165000A9000400A5000300A20003009F000400ED
:101660009B00030098000300950002009300030014
:10167000900003008D0002008B0003008800020030
:101680008600020084000300810002007F00020047
:101690007D0002007B00020079000200770001005B
:1016A0007600020074000200720001007100020066
:1016B0006F0002006D0001006C0002006A00010072
:1016C000690002006700010066000100650001007A
:1016D000640002006200010061000100600001007E
:1016E0005F0002005D0001005C0001005B00010082
:1016F0005A00010059000100580001005700010084
:101700005600010055000100540001005300000084
:10171000530001005200010051000100500001007F
:101720004F0001004E0000004E0001004D0001007E
:101730004C0001004B0000004B0001004A0001007A
:101740004900010048000000480001004700010076
:101750004600000046000100450000004500010071
:10176000440001004300000043000100420000006B
:101770004200010041000000410001004000010062
:101780003F0000003F0001003E0000003E0001005D
:101790003D0000003D0001003C0000003C00000056
:1017A0003C0001003B0000003B0001003A0000004B
:1017B0003A00010039000000390001003800000043
:1017C0003800000038000100370000003700010039
:1017D0003600000036000000360001003500000031
:1017E0003500000035000100340000003400000026
:1017F000340001003300000033000000330001001A
:101800003200000032000000320001003100000010
:101810003100000031000100300000003000000005
:10182000300001002F0000002F0000002F000000FA
:101830002F0001002E0000002E0000002E000100ED
:101840002D0000002D0000002D0000002D000100E3
:101850002C0000002C0000002C0000002C000100D7
:101860002B0000002B0000002B0000002B000100CB
:101870002A0000002A0000002A0000002A000100BF
:1018800029000000290000002900000029000000B4
:1018900029000100280000002800000028000000A6
:1018A0002800000028000100270000002700000099
:1018B000270000002700000027000100260000008C
:1018C000260000002600000026000000260001007F
:1018D0002500000025000000250000002500000074
:1018E0002500000025000100240000002400000065
:1018F0002400000024000000240001002300000058
:10190000230000002300000023000000230000004B
:10191000230000002300010022000000220000003C
:10192000220000002200000022000000220001002E
:101930002100000021000000210000002100000023
:101940002100000021000000210001002000000013
:101950002000000020000000200000002000000007
:101960002000000020000000200001001F000000F7
:101970001F0000001F0000001F0000001F000000EB
:101980001F0000001F0001001E0000001E000000DC
:101990001E0000001E0000004D3834205820592041
:1019A0005A20450006060606060000000000626593
:1019B000640A002C2073797374656D2073746F70E2
:1019C00070656421204865617465725F49443A20FE
:1019D00000544845524D414C2052554E41574159B3
:1019E00000546865726D616C2052756E6177617923
:1019F0000048656174696E67206661696C656400A2
:101A000048656174696E67206661696C6564001081
:101A100000AA038000400100012C01B00122014016
:101A2000021001F00202018003F8004004F500E01A
:101A300004ED009005E4003006DD00E006D70080EC
:101A400007D1003008CC00D008C7007009C30010CF
:101A50000ABE00B00ABB00500BB700900CB300D018
:101A60000DAA00B00FA5005010A000101496009011
:101A700016900010198C00501A8500301C820070DE
:101A8000227800B023750040256E0020276900A051
:101A9000296400502A5F00902B5A00D02C5500700A
:101AA0002D4F00E02E48005031450030334100D02A
:101AB0003539006036370010373300F0382D00A07C
:101AC000392700803C1C00403D1700F03D1100808C
:101AD0003E0900D03FE5FF4572723A204D494E5411
:101AE000454D5020424544004572723A204D494EC2
:101AF00054454D50004D494E54454D502074726927
:101B0000676765726564004572723A204D415854AA
:101B1000454D5020424544004572723A204D41588F
:101B200054454D50004D415854454D5020747269F4
:101B300067676572656400202F002042403A0020EC
:101B4000403A0000002100240027002A002D003028
:101B500000330001010000040107010A0100002216
:101B600000250028002B002E003100340002010067
:101B700000050108010B01000020002300260029B8
:101B8000002C002F003200000100000301060109B3
:101B90000105050505070508080808020202020AF2
:101BA0000A08080404040401010101010101010300
:101BB00003030303030303040707070C0C0C0C0CBB
:101BC0000C0C0C0202020206060606060606060BAE
:101BD0000B0B0B0B0B0B0B01021020200808102025
:101BE00040102040800201020108040201010204A9
:101BF0000810204080804020100804020180040268
:101C000001804020100804020108040201010204BE
:101C10000810204080010204081020408000000AC3
:101C20000B02090C0D0E0807030401000000000060
:101C300000000000000000000000000000000000A4
:101C40000000000000000000001211100000000061
:101C50000000000000000000000000000000000084
:101C6000000000473231002020506C616E6E6572BA
:101C700042756666657242797465733A2000204643
:101C8000726565204D656D6F72793A2000436F6D06
:101C900070696C65643A204A756E203132203230AA
:101CA00032300A00207C20417574686F723A202817
:101CB00048616C6C79405A4F4E4553544152290A41
:101CC00000323032302D30362D313200204C6173ED
:101CD0007420557064617465643A200042617365D4
:101CE000206F6E204D61726C696E312E312E380A74
:101CF000004D61726C696E0020536F66747761727B
:101D0000652052657365740A0020576174636864C6
:101D10006F672052657365740A002042726F776E98
:101D2000206F75742052657365740A0020457874BD
:101D300065726E616C2052657365740A00506F772E
:101D4000657255700A0073746172740A006572726C
:101D50006F722077726974696E6720746F2066698C
:101D60006C650A0020503A00205A3A0020593A0087
:101D700020583A00656E6473746F707320686974DC
:101D80003A2000446F6E6520736176696E67206645
:101D9000696C652E0A004D32390050726F62696EAF
:101DA00067206661696C65640A00205A3A20002049
:101DB000593A200042656420583A20002066697232
:101DC00073740A005A0059005800486F6D6520006E
:101DD00057726974696E6720746F2066696C653A22
:101DE00020006F70656E206661696C65642C20460A
:101DF000696C653A20006F70656E206661696C657C
:101E0000642C2046696C653A200046696C65207335
:101E1000656C65637465640A002053697A653A20CD
:101E20000046696C65206F70656E65643A20006FCE
:101E300070656E206661696C65642C2046696C650E
:101E40003A20002066696C653A2000646F696E670D
:101E5000006672657368004E6F772000454E44201F
:101E6000535542524F5554494E450A002220706F37
:101E700073002220706172656E743A2200535542DD
:101E8000524F5554494E452043414C4C2074617289
:101E90006765743A2200747279696E6720746F20E6
:101EA00063616C6C207375622D67636F6465206677
:101EB000696C6573207769746820746F6F206D6139
:101EC0006E79206C6576656C732E204D4158206CC0
:101ED0006576656C2069733A0053442063617264CF
:101EE000206F6B0A006F70656E526F6F74206661B1
:101EF000696C65640A00766F6C756D652E696E6934
:101F000074206661696C65640A00534420696E69D7
:101F100074206661696C0A0043616E6E6F74206F95
:101F200070656E2073756264697220004D323400F2
:101F30004D3233202573006175746F25692E67005B
:101F4000656E7175657565696E67202200656368E9
:101F50006F3A005072696E7465722068616C7465C6
:101F6000642E206B696C6C28292063616C6C65643D
:101F7000210A004572726F723A0017A7F9A6112460
:101F80001FBECFEFD1E2DEBFCDBF00E00CBF13E03C
:101F9000A0E0B2E0EAE7F6E701E00BBF02C007907D
:101FA0000D92AA30B107D9F72FE0AAE0B3E001C043
:101FB0001D92AA3FB207E1F71FE0CEEBDFE000E0A1
:101FC00006C021970109802FFE010E94A5BACD3BD2
:101FD000D10780E00807A9F70E9440A80C942CBB09
:101FE0000C9400008CE0E6E7F4E0ADE6B8E0019088
:101FF0000D928A95E1F70895CF93DF93EC0120E0ED
:1020000030E04BE953E4688179818A819B810E94A9
:10201000B0B8181644F480E090E0ABE9B3E48883EC
:102020009983AA83BB8320E030E04BE953E46C81C1
:102030007D818E819F810E94B0B8181644F480E0A3
:1020400090E0ABE9B3E48C839D83AE83BF8320E053
:1020500030E048EC53E4688579858A859B850E9449
:10206000B0B8181644F480E090E0A8ECB3E4888798
:102070009987AA87BB87DF91CF910895129A479AD3
:10208000109A08950F931F93CF93DF93ECE2F8E03B
:1020900080813181682F630F7727771FC281C60F38
:1020A000D72FD11D24E6829FC0011124BE010E94BA
:1020B0007EBA462F0FE218E0D8016C93329FC00120
:1020C0001124BE010E947EBAD80111966C9311971B
:1020D000862F840F281B12962C93408361832283C2
:1020E000DF91CF911F910F9108952FEB280F2A3187
:1020F00068F5422F50E0FA0183E0F595E7958A955F
:10210000E1F7E356FC4F9081892F90E0277002C0E1
:10211000959587952A95E2F780FD02C08170089514
:102120004D575C4FFA018081882369F020912E047D
:1021300030912F04820F932F911D90937C038093F5
:102140007B0381E0089590E080E0F7CF80E0089580
:10215000CCDF882341F081E020917B0330917C0328
:10216000232B09F480E00895089590E080E008951D
:1021700080E1EDE6F8E0A6E6B4E001900D928A95E4
:10218000E1F7089580E1E6E6F4E0ADE6B8E001901D
:102190000D928A95E1F708958FB7F89490912704EE
:1021A00020912604291769F0E92FF0E0EA55FC4F49
:1021B000208130E09F5F9F77909327048FBFC901F4
:1021C00008952FEF3FEFFACFAF92BF92CF92DF92F9
:1021D000EF92FF920F931F93CF93DF931F92CDB790
:1021E000DEB76C018B0159018091820481111BC003
:1021F0007B01E40EF51EF601808191810E94E6B517
:102200008983F80181938F01BE016F5F7F4FC50104
:102210000E949986F6018081918101969183808345
:10222000E016F10641F70F90DF91CF911F910F91CA
:10223000FF90EF90DF90CF90BF90AF900895EF9216
:102240000F931F93CF93DF93CDB7DEB72C970FB6C5
:10225000F894DEBF0FBECDBFEDE6F8E08085918536
:10226000A285B38544815581668177810081118182
:102270002281338109831A832B833C834D835E83C0
:102280006F83788789879A87AB87BC87AE01475F62
:102290005F4FBE016B5F7F4FCE0101960E94B89EDB
:1022A000E12C09E212E029E738E0AE01475F5F4F19
:1022B000BE016B5F7F4FCE0101960E94709C2C96F1
:1022C0000FB6F894DEBF0FBECDBFDF91CF911F9147
:1022D0000F91EF900895CF93DF9390E080E00E94FC
:1022E000B290C6E7D4E0688379838A839B8381E0D8
:1022F00090E00E94B2906C837D838E839F8382E006
:1023000090E00E94B290688779878A879B87DF91E7
:10231000CF91089580917B0390917C03009731F0D9
:102320004AE050E070E060E00C947EAF60E070E066
:10233000CB010895EFDF97FD0AC0ECDF6F3F710519
:102340008105910509F02CF4E5DF862F089580E0E2
:1023500008958FEF089580917B0390917C03892BE2
:1023600039F0E8DF91E0811101C090E0892F0895F4
:1023700091E0FCCFCF92DF92EF92FF92C09079086C
:10238000D0907A08E0907B08F0907C082091290595
:1023900030912A0540912B0550912C05C701B601BB
:1023A0000E9486B20E94BBB860935B0C70935C0C79
:1023B00080935D0C90935E0CC701B6010E94CEB76E
:1023C0002FB7F89460930508709306088093070868
:1023D000909308082FBF10924B0C10924C0C109247
:1023E0004D0C10924E0CFF90EF90DF90CF9008951F
:1023F000019719F583E393E3ABECB1E48093B40464
:102400009093B504A093B604B093B7046091B4045C
:102410007091B5048091B6049091B70420E030E04B
:1024200040E450E40E94EBB86093B0047093B104B0
:102430008093B2049093B304089580E090E0A0E804
:10244000BFE3DCCF0F931F93CF9380917B039091D9
:102450007C030097E9F0FC018F01C1912C2F2F7DA7
:1024600081F0C53411F0C536B9F7F801108270E07B
:1024700060E00E9429AEF801C083CF911F910F91B7
:10248000089570E060E0CF911F910F910C9429AEF8
:1024900060E070E0CB01F1CFCF93DF93EC01D2DFAE
:1024A000239789F42091B804222369F02091B00485
:1024B0003091B1044091B2045091B3040E9486B2AD
:1024C000DF91CF9108952091B4043091B5044091EB
:1024D000B6045091B704F2CFB5DF2091B404309127
:1024E000B5044091B6045091B7040C9486B2CF92D3
:1024F000DF92EF92FF920F931F93CF93DF9389E6C2
:10250000C82E82E0D82E96E6E92E94E0F92E0DE64C
:1025100018E0D0E0C0E0F60181916F01E6DD88238C
:1025200009F476C0CE01B8DFFE01E258FC4F2081ED
:10253000211105C020918203222309F465C0F8010E
:1025400020813181428153810E948AB6F7016083E4
:102550007183828393832196F4E0EF0EF11C0C5F6C
:102560001F4FC430D105B9F686E4F2DD8823B9F0F7
:10257000B3DF20E030E0A9010E94B0B818167CF467
:10258000ABDF20E030E040E752E40E9466B76093A2
:10259000290270932A0280932B0290932C0280913F
:1025A000FC0483FD28C080918B0C882321F12091AD
:1025B000790830917A0840917B0850917C086091AD
:1025C00072047091730480917404909175040E9458
:1025D00089B620917D0C30917E0C40917F0C5091FA
:1025E000800C0E948AB660937D0C70937E0C809361
:1025F0007F0C9093800CDF91CF911F910F91FF90F2
:10260000EF90DF90CF90089520E030E0A9019CCFBB
:10261000F80180819181A281B381F7018083918348
:10262000A283B38398CF2F923F924F925F926F9283
:102630007F928F929F92AF92BF92CF92DF92EF9252
:10264000FF920F931F93CF93DF93EB01FC018080E8
:102650009180A280B380C501B40120E831E541E05A
:1026600050E00E942CB6C9016DE671E00E947EBA6E
:102670006B017C01C501B40120E13EE040E050E087
:102680000E942CB6CA01B90128E130E040E050E0D8
:102690000E942CB6362E272E062F172F8CE3482E9D
:1026A000512C612C712CC501B401A30192010E942F
:1026B0002CB6B62EA72ECA01B901A30192010E9421
:1026C0002CB6CB01C114D10469F1AF92BF927F93B4
:1026D0006F932F923F92FF92EF92DF92CF928BE314
:1026E00092E09F938F93DF93CF930E94F2B18DB7C7
:1026F0009EB70E960FB6F8949EBF0FBE8DBFDF91AA
:10270000CF911F910F91FF90EF90DF90CF90BF90EE
:10271000AF909F908F907F906F905F904F903F9081
:102720002F900895E114F104C9F0AF92BF927F9306
:102730006F932F923F92FF92EF928BE292E09F93E2
:102740008F93DF93CF930E94F2B1EDB7FEB73C9623
:102750000FB6F894FEBF0FBEEDBFD1CF012BB9F07D
:10276000AF92BF927F936F932F923F928FE192E04F
:102770009F938F93DF93CF930E94F2B18DB79EB753
:102780000A960FB6F8949EBF0FBE8DBFB8CF892BA7
:10279000A9F0AF92BF927F936F9387E192E09F93EE
:1027A0008F93DF93CF930E94F2B1EDB7FEB73896C7
:1027B0000FB6F894FEBF0FBEEDBFA1CFAF92BF9290
:1027C00083E192E09F938F93DF93CF930E94F2B1C6
:1027D0000F900F900F900F900F900F9090CFFC01E3
:1027E00020E03EE2DB014D91BD01403249F028304E
:1027F00011F430833196DB0111974C91408331966F
:102800002F5F2B3079F71082089561E0FC01808101
:102810000C94D8868EBD0DB407FEFDCF08958FEFC2
:102820008EBD0DB407FEFDCF8EB508958F929F9299
:10283000AF92BF92EF92FF920F931F93CF937C01C1
:10284000C62F49015A01FC019281892F806A869521
:102850008CBD90FD03C081E0963009F480E08DBD11
:1028600060E0F70180810E94D8868CE291E00E94AE
:1028700094888C2F8064CEDF08E110E0D501C4017C
:10288000002E04C0B695A795979587950A94D2F720
:10289000C1DF08501109083FFFEF1F0779F785E9ED
:1028A000CC2321F087E8C83009F08FEFB3DFCC30BC
:1028B00009F4B5DFC0E0B3DFF701838387FF04C00D
:1028C000CF3F11F0CF5FF7CFCF911F910F91FF90C6
:1028D000EF90BF90AF909F908F9008950F931F93AC
:1028E000CF93DF93EC0189018C81833039F089E04B
:1028F000440F551F661F771F8A95D1F79A01AB01C8
:1029000068E1CE0193DF882319F086E0898335C022
:102910008EEF8EBDF801C8019E5F0DB407FEFDCF9E
:1029200020812EBD0DB407FEFDCF21812EBD329634
:10293000E817F90791F70DB407FEFDCF8FEF6ADFB7
:102940008FEF68DF6CDF8B838F71853091F488E5C2
:1029500092E00E949488182F87E11123B9F220E0B9
:1029600030E0A9016DE0CE0161DF882351F086E1FE
:10297000CDCF83E18983CE0148DFCE0146DF10E071
:1029800005C04DDF8111F3CFCE013FDF812FDF91F5
:10299000CF911F910F910895CF9380918E0AC1E03E
:1029A000882399F04091860A5091870A6091880A9D
:1029B0007091890A26E838E080918F0A9091900AF8
:1029C0008DDFC82F811104C0C0E08C2FCF910895F6
:1029D00040918A0A50918B0A60918C0A70918D0AFD
:1029E000411551056105710589F026E838E08091AF
:1029F0008F0A9091900A72DF882331F310928A0A2D
:102A000010928B0A10928C0A10928D0A10928E0AE4
:102A1000DCCFEF92FF920F931F93CF93DF93EC01E4
:102A200079018C81833039F089E0440F551F661F8E
:102A3000771F8A95D1F79A01AB0161E1CE01F6DEED
:102A4000882331F084E08983CE01DFDE80E034C06A
:102A50000E943F888B01E3DE8B838F3F71F40E94DD
:102A60003F88601B710B6D327140A8F381E189834F
:102A7000CE01CBDE8FEFCEDEE9CF8E3F11F08FE0BF
:102A8000F6CF8FEF8EBDF701D701A150BE4F0DB429
:102A900007FEFDCF9EB591938EBDAE17BF07B9F768
:102AA0000DB407FEFDCF8EB58C93B9DEB8DECE0136
:102AB000ACDE8FEFAFDE81E0DF91CF911F910F9100
:102AC000FF90EF900895CF92DF92EF92FF92CF9315
:102AD0006B017C01C42F8091860A9091870AA09196
:102AE000880AB091890A8C159D05AE05BF05F1F0E5
:102AF00053DF811108C0C0E08C2FCF91FF90EF9081
:102B0000DF90CF90089526E838E0B701A6018091C4
:102B10008F0A9091900A7DDF882369F3C092860A1C
:102B2000D092870AE092880AF092890ACC2321F099
:102B300081E080938E0AE0CFC1E0DECF4F925F92BA
:102B40006F927F928F929F92AF92BF92CF92DF92BD
:102B5000EF92FF920F931F93CF93DF93EC014230DC
:102B600051056105710590F480E0DF91CF911F91CF
:102B70000F91FF90EF90DF90CF90BF90AF909F901C
:102B80008F907F906F905F904F90089589859A8580
:102B9000AB85BC850196A11DB11D84179507A607BD
:102BA000B70710F38F898031C1F5852E962EA72E99
:102BB000BB248B899C89AD89BE89880E991EAA1E6B
:102BC000BB1E280139016A017B0141E0C501B40146
:102BD0007ADF882349F29F89903181F5DD24EE2444
:102BE000FF24F601EE0FFF1FEA57F74F1183008312
:102BF0009A89923008F4B9CF4D815E816F817885D2
:102C0000840E951EA61EB71E80928A0A90928B0A89
:102C1000A0928C0AB0928D0AA8CF803209F0A4CF7E
:102C20008B899C89AD89BE894A015B01E7E0B69436
:102C3000A79497948794EA95D1F7BFCFE894C7F803
:102C4000DD24EE24FF24F601EE0FFF1FEE0FFF1F21
:102C5000EA57F74F4082518262827382C9CFCF9286
:102C6000DF92EF92FF920F931F93CF93DF93FC01BC
:102C700081859285A385B4850196A11DB11D841718
:102C80009507A607B70750F480E0DF91CF911F9119
:102C90000F91FF90EF90DF90CF900895878980315A
:102CA000A9F5BB27A72F962F852FC388D488E58841
:102CB000F6888C0D9D1DAE1DBF1DE9016A017B01CB
:102CC0008F014091860A5091870A6091880A70911D
:102CD000890A84179507A607B70749F5F801878978
:102CE000803161F5B701A601552766277727440F84
:102CF000551F4A57574FFA0180819181B0E0A0E0FB
:102D000088839983AA83BB8381E0BFCF803209F097
:102D1000BBCFC388D488E588F688DB01CA01C7E049
:102D2000B695A79597958795CA95D1F7C2CF40E0FC
:102D3000BC01CD01C8DE8111D1CFA6CFB701A6015C
:102D40004F77552766277727440F551F440F551F88
:102D50004A57574FFA0180819181A281B381BF7098
:102D6000CFCF4F925F926F927F92AF92BF92CF92EE
:102D7000DF92EF92FF920F931F93CF93DF9300D0D8
:102D80001F92CDB7DEB78C0149835A836B837C8356
:102D90005901C12CD12C7601412C82E0582E612C96
:102DA000712C49815A816B817C819E012F5F3F4F3D
:102DB000C80155DF882319F1F8018585A301920127
:102DC00004C0220F331F441F551F8A95D2F7DA0122
:102DD000C901C80ED91EEA1EFB1E49815A816B81AA
:102DE0007C8187898031F1F481E0483F5F4F610544
:102DF0007105B8F2F501C082D182E282F3820F90B0
:102E00000F900F900F90DF91CF911F910F91FF9036
:102E1000EF90DF90CF90BF90AF907F906F905F90DA
:102E20004F90089581E0483F5F4F6F4F7F4008F417
:102E3000B8CFE0CF0F931F93CF93DF93FC01238193
:102E4000222331F080E0DF91CF911F910F910895FF
:102E50008B01EC01FB018789803139F582E08B839E
:102E60001D8A1E8A1F8A188E808D918DB0E0A0E089
:102E700025E0880F991FAA1FBB1F2A95D1F7898BC0
:102E80009A8BAB8BBC8B1A8F098F81E08983188654
:102E900019861A861B861C821D821E821F82188A32
:102EA0001C861D861E861F86CECF803259F683E093
:102EB0008B83428D538D648D758D4D8B5E8B6F8BA7
:102EC000788F9E012F5E3F4FC8014BDF8111DBCF12
:102ED000B9CF8F929F92AF92BF92CF92DF92EF9233
:102EE000FF920F931F93CF93DF93EC018B8181119E
:102EF0000EC080E0DF91CF911F910F91FF90EF9076
:102F0000DF90CF90BF90AF909F908F9008950989E8
:102F10001A892B893C89041715072607370748F3B8
:102F20004A015B01823031F488869986AA86BB8685
:102F300081E0E0CF81149104A104B10449F4188622
:102F400019861A861B861C821D821E821F82F0CF64
:102F5000088519852A853B85E98DFA8D858590E060
:102F60000996B901A8014150510961097109082E5A
:102F700004C076956795579547950A94D2F77501E1
:102F80006401E1E0CE1AD108E108F10804C0F6942A
:102F9000E794D794C7948A95D2F7C416D506E60667
:102FA000F70620F0012B022B032B09F58D899E8952
:102FB000AF89B88D8C839D83AE83BF838E010C5FF8
:102FC0001F4FC114D104E104F10409F4ADCF4C81C9
:102FD0005D816E817F819801898D9A8D40DE91E0BF
:102FE000C91AD108E108F1088111EBCF82CFC41AC8
:102FF000D50AE60AF70AE2CF40E050E0BA0169CF0D
:103000003F924F925F926F927F928F929F92AF9278
:10301000BF92CF92DF92EF92FF920F931F93CF93C5
:10302000DF93CDB7DEB72C970FB6F894DEBF0FBE97
:10303000CDBF5C01DC0159968D909C90F401818597
:103040009285A385B4859C01AD012F5F3F4F4F4F03
:103050005F4F29873A874B875C87D50114964D903F
:103060005D906D907C901797411451046104710438
:1030700009F458C0BFEF4B1A5B0A6B0A7B0A312C6C
:10308000730162011D821E821F821886F4018185F0
:103090009285A385B4852D813E814F81588528175F
:1030A00039074A075B0708F054C089859A85AB85C4
:1030B000BC858C159D05AE05BF0550F482E0C82E79
:1030C000D12CE12CF12C92E0492E512C612C712C49
:1030D0009E012F5F3F4FB701A601C401C0DD8823C9
:1030E000C1F189819A81AB81BC81892B8A2B8B2B81
:1030F00001F1260137019FEF491A590A690A790A35
:103100002D813E814F8158852F5F3F4F4F4F5F4F3D
:103110002D833E834F8358873FEFC31AD30AE30AB8
:10312000F30AB4CF4080518062807380332433949B
:10313000A7CFC414D504E604F70411F70FEF1FEF6F
:103140002FEF3FE0B701A601C401F8DC782E811112
:103150001AC0712C872D2C960FB6F894DEBF0FBEC7
:10316000CDBFDF91CF911F910F91FF90EF90DF9036
:10317000CF90BF90AF909F908F907F906F905F9017
:103180004F903F900895F501448155816681778184
:10319000411551056105710531F097018601C401A2
:1031A000CDDC8823B1F2D5011496CD92DD92ED925B
:1031B000FC921797332051F0D701C6010196A11D4B
:1031C000B11DF40180839183A283B383F5018589C6
:1031D0009689A789B08D892B8A2B8B2B09F0BACFC2
:1031E000C58AD68AE78AF08E818180688183B2CFD2
:1031F000CF93DF93EC01462F41706C857D858E85E2
:103200009F8561DC882351F0888920E2829FC0017C
:1032100011248A57974FDF91CF91089590E080E075
:10322000FACFEF92FF920F931F93CF93DF93FC019E
:103230008B01EA019781992351F0DB01ED90FC901D
:1032400092509230A8F48FE2F70180831182D80166
:10325000ED91FC91119788819081992389F18D38A6
:10326000E0F53196ED93FC9388818F5F8883EFCFF3
:1032700060E0CF010496BCDF009749F3DC0160E019
:1032800080E09EE22D91203299F0883031F4970150
:10329000260F311DF90190836F5F9701260F311DB5
:1032A000AD0141505109FA014081F90140836F5F3E
:1032B0008F5F8B3039F7F701E60FF11D1082C7CF12
:1032C0008D3858F48FE28083F801808191810196D6
:1032D0009183808388818F5F8883DF91CF911F9155
:1032E0000F91FF90EF900895CF93DF93EC018B81C6
:1032F000882339F1898187FF21C061E0CE0178DF21
:10330000FC01892BF1F08081853ED9F08B818230E0
:1033100040F489899A89AB89BC89848F958FA68F5F
:10332000B78F8D899E89938F828F8D899E89AF8972
:10333000B88DB58BA48B89818F778983DF91CF91ED
:103340002BCB81E0888380E0DF91CF9108952F928D
:103350003F924F925F926F927F928F929F92AF9225
:10336000BF92CF92DF92EF92FF920F931F93CF9372
:10337000DF9300D01F92CDB7DEB78C014B011A014D
:10338000DC0113968C911397813009F0C7C0119618
:103390008C9181FFC3C082FDAEC06101D801189637
:1033A0004D915D916D917C911B97C114D10409F4ED
:1033B00014C159968D919C915A97FC0174802FEFFE
:1033C000270D2A013B0139E076946794579447947E
:1033D0003A95D1F7722E74207A01F1E0FF22711034
:1033E0001FC0E114F104E1F414964D915D916D91CB
:1033F0007C911797411551056105710509F094C03D
:1034000055968D919D910D90BC91A02D0097A10591
:10341000B10509F0A1C0C801F3DD882309F47EC01D
:1034200080E092E08E199F0956018C159D0508F4E5
:103430005C01D80159964D915C915A9714968D91E3
:103440009D910D90BC91A02D0297A109B109FA019F
:10345000258504C0880F991FAA1FBB1F2A95D2F784
:103460004685578560897189840F951FA61FB71FF0
:103470009C01AD01270D311D411D511D29013A014E
:10348000A11432E0B30609F075C08091860A9091CC
:10349000870AA091880AB091890A481659066A06D7
:1034A0007B0669F410928E0A8FEF9FEFDC01809308
:1034B000860A9093870AA093880AB093890A940198
:1034C000B301A20180918F0A9091900A07DA8823B4
:1034D00029F1F80180859185A285B3858A0D9B1D10
:1034E000A11DB11D80879187A287B3878A0C9B1C81
:1034F000CA18DB0853CFF80141895289638974895E
:1035000080859185A285B385481759076A077B078F
:1035100009F443CFC801DDDC81113FCF81E0D80140
:103520008C938FEF9FEF6FC09E012F5F3F4F97DB14
:103530008823A1F389819A81AB81BC81F801218D17
:10354000328DF9012789203169F4883FFFEF9F0709
:10355000A105B10508F05FCFF80184839583A683A8
:10356000B7835ECF883F2FEF9207A2072FE0B20705
:1035700098F351CFE114F10449F5D80118964D9113
:103580005D916D917C911B9751968D919D910D90C0
:10359000BC91A02D481759076A077B07B8F0FCD9E2
:1035A000882309F4BBCF81E080938E0A4092860A7B
:1035B0005092870A6092880A7092890AA501B40124
:1035C000C7018A57974F0E94C2BA83CF41E0C30117
:1035D000B20179DA8111F2CFA1CFF8018189928904
:1035E000A389B48984179507A607B70738F48181A2
:1035F000418B528B638B748B80688183F80181814E
:1036000083FD18C0C1010F900F900F900F90DF91B4
:10361000CF911F910F91FF90EF90DF90CF90BF90CF
:10362000AF909F908F907F906F905F904F903F9062
:103630002F900895C80158DE8111E4CF6FCFCF934A
:10364000DF931F92CDB7DEB7698341E050E0BE0142
:103650006F5F7F4F04967BDE0F90DF91CF910895CF
:10366000CF93DF93EC0140DE1B82DF91CF91089571
:10367000FC0123812111F4CF08952F923F924F92A4
:103680005F926F927F928F929F92AF92BF92CF92F2
:10369000DF92EF92FF920F931F93CF93DF9300D0AF
:1036A0001F92CDB7DEB79C838B834B017A01DC017F
:1036B00013968C91811119C08FEF9FEF0F900F908F
:1036C0000F900F90DF91CF911F910F91FF90EF908E
:1036D000DF90CF90BF90AF909F908F907F906F9032
:1036E0005F904F903F902F900895EB81FC818181F6
:1036F00080FFE2CF01891289238934894085518571
:1037000062857385C701B0E0A0E028013901441A41
:10371000550A660A770A481659066A067B0618F49F
:103720007801E41AF50A67018B819C8104969A83DB
:103730008983612C32E0732EC114D10409F4B4C022
:10374000AB81BC8118964D915D916D917C911B97D9
:103750005A01B1E0BB22EB81FC81818D928D1A016F
:103760002B0129E056944794379427942A95D1F752
:103770002381223089F5DC015A966D917D918D91DE
:103780009C915D97620D731D841D951D83010A191F
:103790001B09C016D10608F486010115B2E01B070B
:1037A00071F42091860A3091870A4091880A5091DD
:1037B000890A621773078407950709F057C040E02C
:1037C00082D9882309F478CFB5016A57774FA801C9
:1037D000C4010E94C2BA55C0FC01148111501221CB
:1037E000A114B10481F411110EC0452B462B472BB7
:1037F00079F5EB81FC8185899689A789B08D8483D1
:103800009583A683B783AB81BC815996ED91FC91DA
:103810005A9714966D917D918D919C911797625056
:10382000710981099109258504C0660F771F881FDA
:10383000991F2A95D2F72685378540895189620FCD
:10384000731F841F951F610F711D811D911D9ECFD8
:10385000AB81BC8114964D915D916D917C911797D0
:1038600029813A81FCD98111CECF26CF9401AB01B9
:10387000BC0180918F0A9091900ACBD8882309F4DB
:103880001BCF800E911EEB81FC8180859185A285E6
:10389000B385800F911FA11DB11D80879187A287DD
:1038A000B387C01AD10A48CFC70108CFDF92EF9281
:1038B000FF920F931F93CF93DF938C01EB017A015B
:1038C0008DE0D82E40E250E0BE01C801D6DE803245
:1038D000910571F021E0892B09F420E0822F819578
:1038E000DF91CF911F910F91FF90EF90DF9008959E
:1038F00028812223C1F1253E29F32E3219F3E11448
:10390000F10439F13B853F733F3019F54A8D5B8DEA
:10391000452BF9F42F713FEF320F3230D0F42150A4
:10392000330BD29EC001D39E900D1124D701A80F56
:10393000B91FFE0120E0AD01253078F431813D93BF
:103940002F5F32962D30C1F7288126FF02C0FA0181
:1039500015862B8523FDB6CFC3CF2B3010F43481D1
:10396000EECF3681ECCF80E0BBCF4F925F926F926B
:103970007F92AF92BF92CF92DF92EF92FF920F931E
:103980001F93CF93DF931F92CDB7DEB78C017B01DE
:103990005A01C22EDB0159968D919C91F801928FAC
:1039A000818FCB0129DB712CF70180859185A28560
:1039B000B385418952896389748984179507A6075D
:1039C000B70708F051C055E0B695A795979587952C
:1039D0005A95D1F7F82FFF70DF2ED70113968C91EF
:1039E000823010F480E0D9C041E050E0BE016F5F4A
:1039F0007F4FC70142DE0197A9F7F70180859185C6
:103A0000A285B3854F96A11DB11D80879187A2879E
:103A1000B387F0E2DF9EB00111246A57774F61153A
:103A2000710501F3DB018C91882341F0853E09F09B
:103A30004BC0772029F077247394B6CF71100EC055
:103A40008091860A9091870AA091880AB091890A8C
:103A5000F80184879587A687B787D08ADB018C9188
:103A60008111E9CF772473948C2D8274823409F00C
:103A7000B9CF772009F4A1C0F801D08861E0C8016E
:103A8000B7DB009709F4AECF20E2DC011D922A9546
:103A9000E9F72BE0F501DC0101900D922A95E1F7A1
:103AA00021E238E2FC01318B208B40E058E057875F
:103AB0004687338B228B318F208F578B468B0E940A
:103AC000CC14811109C08ECF4BE050E0C5010E949B
:103AD000B5BA892B09F068CFF0E2DF9ED00111243E
:103AE0009D012A57374FF9018385817121F08C2D73
:103AF000827109F0FAC0F801818D928D4091860A99
:103B00005091870A6091880A7091890A4487558785
:103B100066877787D08AFD01EA57F74F4488558832
:103B2000712C612C320155244424D80155964D92B4
:103B30005D926D927C925897428D538D70E060E05B
:103B4000442955296629772955964D935D936D93A0
:103B50007C935897D9011B962C91287109F0B8C015
:103B6000848D958DA68DB78DF801818B928BA38B5B
:103B7000B48B81E083838C2D8F70F8018183148254
:103B8000158216821782108611861286138681E0AE
:103B9000C4FE03C0C8010E940F830F90DF91CF9134
:103BA0001F910F91FF90EF90DF90CF90BF90AF905B
:103BB0007F906F905F904F900895D70113968C91EE
:103BC0001397823009F40ECF51968D919D910D90EF
:103BD000BC91A02D803E9F4FAF41B10508F002CFB0
:103BE000C7010EDA882309F4FDCE0E94CC14882385
:103BF00009F4F8CED7015996ED91FC915A97149695
:103C00004D905D906D907C901797B2E04B1A5108E3
:103C100061087108858504C0440C551C661C771C1E
:103C20008A95D2F786859785A089B189480E591E55
:103C30006A1E7B1E81E080938E0A4092860A509213
:103C4000870A6092880A7092890AE6E8F8E080E0C4
:103C500092E0DF019C011D9221503040E1F7DD240C
:103C6000D394D7015996ED91FC918481D81698F49C
:103C700026E838E0B301A2014D0D511D611D711DF3
:103C800080918F0A9091900A0E946E14882309F403
:103C9000A9CED394E6CF258580E092E0A0E0B0E005
:103CA00004C0880F991FAA1FBB1F2A95D2F7F701DE
:103CB0004189528963897489840F951FA61FB71F94
:103CC000818B928BA38BB48B86E898E0D12CDCCED1
:103CD000203159F498012F5E3F4F43D8882329F0B3
:103CE00084E0D80113968C9346CFD80113961C928A
:103CF00079CE2F923F924F925F926F927F928F92E6
:103D00009F92AF92BF92CF92DF92EF92FF920F936A
:103D10001F93CF93DF93CDB7DEB7C354D1090FB64E
:103D2000F894DEBF0FBECDBF4C015B016A01222EAD
:103D300019821C821C8E1F8E6115710511F510E011
:103D4000CE014C9695DCCE01019692DC812FCD5BA5
:103D5000DF4F0FB6F894DEBF0FBECDBFDF91CF911E
:103D60001F910F91FF90EF90DF90CF90BF90AF9099
:103D70009F908F907F906F905F904F903F902F908B
:103D80000895FC0183818111DACFFA0180818F329D
:103D9000A9F18B01CE0101967C013C0180E2382E15
:103DA0002E019CE1490E511C2396EFAE23972496D9
:103DB000FFAE249722963FAE229721963FAE2197E1
:103DC0003FAE3EAE3DAE3CAE3BAE3AAE39AE38AEA7
:103DD0003FAA960190E047E0D9018D91882309F42C
:103DE00047C08F3209F444C0282F8E3201F54A3083
:103DF00009F4A5CF98E04AE09D01EECFFB01838155
:103E000082508B01823058F0618D728DCE014C96BC
:103E100011D88E01045E1F4F882309F490CFC6018C
:103E20006C010196F60120812F32D1F3B3CFE9E185
:103E3000FCE03491332321F031968313FACF7FCF06
:103E4000491708F47CCF813208F479CF8F3709F411
:103E500076CF3FE9380F3A3110F420EE280FE7E330
:103E6000F0E0EC0FFD1FE90FF11D20839F5FC4CF31
:103E70008FA9803209F463CF6901F90180812F5F36
:103E80003F4F8F32C9F38823F1F021E0AE01495C46
:103E90005F4FB801C70169DD882309F450CF0A15C7
:103EA0001B0511F0C801DCDB942D852D6E147F04F9
:103EB00031F023969FAD239724968FAD24978701E9
:103EC000E92EF82E77CF222DAE01495C5F4FB80165
:103ED000C4014BDD182F34CF25E732E0FC013183DC
:103EE00020830496C5CB8A9AE8E2F8E010825F9AB4
:103EF00011829FB7F894A8E0B1E08C9181608C9317
:103F00009FBF12820C943E102F923F924F925F926D
:103F10006F927F928F929F92AF92BF92CF92DF92D9
:103F2000EF92FF920F931F93CF93DF9300D01F92D6
:103F3000CDB7DEB79A8389831B018A013C832B832B
:103F40004090290250902A0260902B0270902C021F
:103F5000F901E080F1809280838020E030E0A901C7
:103F6000B701892D982D0E9421B2811109C0E1ED80
:103F7000FBE085919591A591B4917C019A2E8B2EB1
:103F8000F8012081318142815381609175087091DF
:103F9000760880917708909178080E9421B287FF77
:103FA0001AC0C701A92DB82D8093290290932A0227
:103FB000A0932B02B0932C02F80180819181A28101
:103FC000B3818093750890937608A0937708B09397
:103FD00078080E941F11EB81FC81A080B180C28013
:103FE000D38020E030E0A901C601B5010E9421B2D2
:103FF000811108C0A0902502B0902602C09027022F
:10400000D0902802A0922902B0922A02C0922B02DC
:10401000D0922C02E981FA8180819181A281B381C1
:1040200080936D0890936E08A0936F08B09370080A
:10403000F10180819181A281B38180937108909375
:104040007208A0937308B09374080E941F11F801BE
:104050002081318142815381609175087091760889
:1040600080917708909178080E94B0B81816D4F41F
:10407000C701A92DB82D8093290290932A02A093FD
:104080002B02B0932C02F80180819181A281B3812F
:104090008093750890937608A0937708B09378087A
:1040A0000E941F110E9405914092290250922A02FB
:1040B00060922B0270922C020F900F900F900F9035
:1040C000DF91CF911F910F91FF90EF90DF90CF90F4
:1040D000BF90AF909F908F907F906F905F904F9028
:1040E0003F902F9008959B01AC0161E778E08DE649
:1040F00098E00ACFCF92DF92EF92FF921F93CF9377
:10410000DF93CDB7DEB72C970FB6F894DEBF0FBEA6
:10411000CDBF90916208981709F469C0182F80E00C
:1041200090E0A0E2B1E48D839E83AF83B887C09016
:104130006908D0906A08E0906B08F0906C0820E065
:1041400030E0A901C701B6010E9421B287FF0CC06F
:10415000A701960160E070E080E291E40E9489B6D8
:104160006D837E838F8398872D813E814F81588513
:104170006091750870917608809177089091780821
:104180000E9421B287FF0AC019821A821B821C82F8
:10419000BE016F5F7F4FCE010596A5DF80916D0850
:1041A00090916E08A0916F08B091700889879A87E6
:1041B000AB87BC878091710890917208A0917308B9
:1041C000B09174088D839E83AF83B88719821A8259
:1041D0001B821C829E012F5F3F4F45E758E0BE01C6
:1041E0006B5F7F4FCE0109968FDE1093620880E0EF
:1041F0002C960FB6F894DEBF0FBECDBFDF91CF91E6
:104200001F91FF90EF90DF90CF900895269A2E98FF
:1042100008959091130CE92FF0E0ED59F74F80834A
:104220009F5F943040F49093130C8091140C8F5F37
:104230008093140C08951092130CF7CFDF92EF9235
:10424000FF920F931F93CF93DF93CDB7DEB76E9797
:104250000FB6F894DEBF0FBECDBF6091910A70918A
:10426000920A6115710569F14DE150E08E010F5F11
:104270001F4FC8010E94C9B11E8EF8017F01E01ACC
:10428000F10AD190DD2019F08AE0D812F7CFF801B9
:10429000EE0DFF1D1082C8010E94FC99882389F051
:1042A00090E080E0DD2049F08FEFE81AF80A809175
:1042B000910A9091920A8E0D9F1D9093920A80937D
:1042C000910A81E02091910A3091920A232B09F4FE
:1042D00080E06E960FB6F894DEBF0FBECDBFDF91C3
:1042E000CF911F910F91FF90EF90DF9008950F9362
:1042F0001F93CF93DF93CDB7DEB72C970FB6F8940B
:10430000DEBF0FBECDBFEDE6F8E080859185A285CA
:10431000B385448155816681778100811181228135
:10432000338109831A832B833C834D835E836F83A0
:10433000788789879A87AB87BC87AE01475F5F4FD5
:10434000BE016B5F7F4FCE0101960E94B89E29E7A8
:1043500038E0AE01475F5F4FBE016B5F7F4FCE011C
:1043600001960E94A39B2C960FB6F894DEBF0FBE59
:10437000CDBFDF91CF911F910F9108954F925F9222
:104380006F927F92AF92BF92CF92DF92EF92FF92A5
:104390000F931F93CF93DF93CDB7DEB760970FB620
:1043A000F894DEBF0FBECDBF2A013B01D02EE12E17
:1043B000F22EC32E8C01000F111F000F111FC80118
:1043C0008359974F5C01FC01108211821282138283
:1043D0008EDFF501408251826282738220E030E0FC
:1043E000A9016D2D7E2D8F2D9C2D0E9421B2811152
:1043F0000BC0F801E753F44F85919591A591B491C5
:10440000D82EE92EFA2ECB2E8D2D9E2DAF2DBC2D24
:104410008D879E87AF87B88B8091750890917608BD
:10442000A0917708B0917808409171085091720876
:10443000609173087091740800916D0810916E0876
:1044400020916F083091700809831A832B833C8375
:104450004D835E836F83788789879A87AB87BC8714
:10446000AE01475F5F4FBE016B5F7F4FCE0101968C
:104470000E94B89EE12C8E01035F1F4F29E738E0B0
:10448000AE01475F5F4FBE016B5F7F4FCE0101966C
:104490000E94709C0E9405911092670860960FB66A
:1044A000F894DEBF0FBECDBFDF91CF911F910F916A
:1044B000FF90EF90DF90CF90BF90AF907F906F9084
:1044C0005F904F9008959091C104981791F0809358
:1044D000C104811109C00E946B1186E794E00E941B
:1044E0009A9D0E94F20F03CF8DE698E00E949A9D5C
:1044F000FACF089580E0E7DFEBE1FCE080E090E0B8
:10450000A0E8BFE380839183A283B38314821582E2
:1045100016821782108611861286138614861586D7
:1045200016861786808B918BA28BB38B148A158A83
:10453000168A178A108E118E128E138E148E158E77
:10454000168E178E80A391A3A2A3B3A308951F93E1
:10455000CF93DF9300D000D01F921F92CDB7DEB76C
:104560006D837E838F839887CA01B90120E030E094
:1045700040E752E40E9466B769837A838B839C8309
:10458000BE016F5F7F4FCE010596ADDD10916708CC
:10459000109267080E946B1186E794E00E949A9D32
:1045A00080917E0490917F04A0918004B091810459
:1045B0008093750890937608A0937708B093780855
:1045C00096DE81E013FD80E028960FB6F894DEBFFA
:1045D0000FBECDBFDF91CF911F91089520915F0C49
:1045E0009091600C81E0291301C080E0089588E873
:1045F00093E19093F8078093F70780916F008D7F88
:1046000080936F00EBDF882351F0E8DF8823D1F33C
:104610008091600C8F5F87708093600CF3CF109255
:10462000F6071092F50780916F00826080936F000B
:104630000E9405910E946B1186E794E00E949A9D6A
:104640000E94F20F54CE0E943F8860933004709312
:10465000310480933204909333040895809173035E
:1046600090917403A0917503B09176038093290211
:1046700090932A02A0932B02B0932C028091710395
:10468000909172039093030280930202DCCF809199
:10469000290290912A02A0912B02B0912C028093C2
:1046A000730390937403A0937503B0937603809182
:1046B000020290910302909372038093710384E647
:1046C00090E09093030280930202BDCF9091D000BE
:1046D00095FFFCCF8093D6000895AF92BF92CF9202
:1046E000DF92EF92FF920F931F93CF93DF93C82F28
:1046F00081110AC00DE41FE1F80184910F5F1F4F83
:10470000882311F0E3DFF8CF08E310E1F80184918A
:104710000F5F1F4F882311F0D9DFF8CFC090B4048A
:10472000D090B504E090B604F090B70420E030E0FB
:1047300040E85FE3C701B6010E9421B2882361F01F
:1047400080E3C4DF0BE210E1F80184910F5F1F4F9B
:10475000882321F0BBDFF8CF81E3F3CF20E030E006
:1047600040E85FE3C701B6010E9421B203E210E115
:10477000811102C00FE110E1F80184910F5F1F4F1A
:10478000882311F0A3DFF8CF8AE0A0DFC11129C090
:104790000DE41FE15801F5018491FFEFAF1ABF0A44
:1047A00081110DC0DCE0AD2ED0E1BD2EF50184916C
:1047B000FFEFAF1ABF0A882321F088DFF7CF86DF2B
:1047C000EACF8091B804B1E0AB2EB0E1BB2E8823D4
:1047D00061F18AE07BDFF80184910F5F1F4F811147
:1047E000F9CFA70196016091BD047091BE0480913C
:1047F000BF049091C0040E9466B7AB01BC0188EF72
:104800009FE00E9402998AE061DF8091B8048111E3
:104810001FC0C11113C00DE41FE1F80184910F5FA7
:104820001F4F882359F052DFF8CFF5018491FFEF35
:10483000AF1ABF0A882379F249DFF7CF0DEE1FE0E8
:10484000F80184910F5F1F4F882311F03FDFF8CFED
:10485000C11121C00DE41FE17801F7018491FFEF40
:10486000EF1AFF0A81110DC0ACEDEA2EAFE0FA2E6F
:10487000F7018491FFEFEF1AFF0A882321F026DF6A
:10488000F7CF24DFEACFF80184910F5F1F4F882311
:1048900011F01CDFF8CF2091B4043091B5044091A1
:1048A000B6045091B70460911D0570911E0580916A
:1048B0001F05909120050E9466B7AB01BC0184EDF5
:1048C0009FE00E9402992091B4043091B504409178
:1048D000B6045091B7046091210570912205809132
:1048E0002305909124050E9466B7AB01BC0181EDC0
:1048F0009FE00E9402992091B4043091B504409148
:10490000B6045091B70460912505709126058091F9
:104910002705909128050E9466B7AB01BC018EEC7B
:104920009FE00E9402996091290570912A0580916B
:104930002B0590912C052091B804222359F1209148
:10494000B0043091B1044091B2045091B3040E947C
:1049500066B7AB01BC018BEC9FE00E9402998AE034
:10496000B5DEC1112AC00DE41FE17801F701849181
:10497000FFEFEF1AFF0A811116C0FDEAEF2EFFE0EC
:10498000FF2EF7018491FFEFEF1AFF0A882369F0E9
:104990009DDEF7CF2091B4043091B5044091B60468
:1049A0005091B704D4CF92DEE1CFF80184910F5F2C
:1049B0001F4F882311F08ADEF8CF2091B404309184
:1049C000B5044091B6045091B7046091DE04709133
:1049D000DF048091E0049091E1040E9466B7AB018E
:1049E000BC0184EA9FE00E9402992091B4043091B6
:1049F000B5044091B6045091B7046091E2047091FF
:104A0000E3048091E4049091E5040E9466B7AB0151
:104A1000BC0181EA9FE00E9402992091B404309188
:104A2000B5044091B6045091B7046091E6047091CA
:104A3000E7048091E8049091E9040E9466B7AB0115
:104A4000BC018EE99FE00E9402996091EA04709196
:104A5000EB048091EC049091ED042091B8042223A2
:104A600059F12091B0043091B1044091B2045091B9
:104A7000B3040E9466B7AB01BC018BE99FE00E94C2
:104A800002998AE023DEC1112AC00DE41FE17801FA
:104A9000F7018491FFEFEF1AFF0A811116C0E9E7D1
:104AA000EE2EEFE0FE2EF7018491FFEFEF1AFF0AE2
:104AB000882369F00BDEF7CF2091B4043091B50460
:104AC0004091B6045091B704D4CF00DEE1CFF80195
:104AD00084910F5F1F4F882311F0F8DDF8CF6091AC
:104AE0000D0570910E0580910F05909110050E94A3
:104AF00025B22091B4043091B5044091B604509190
:104B0000B7040E9466B7AB01BC0180E79FE00E943A
:104B10000299609111057091120580911305909191
:104B200014050E9425B22091B4043091B50440913F
:104B3000B6045091B7040E9466B7AB01BC018DE684
:104B40009FE00E9402996091150570911605809171
:104B50001705909118050E9425B22091B404309158
:104B6000B5044091B6045091B7040E9466B7AB01FA
:104B7000BC018AE69FE00E9402996091190570913C
:104B80001A0580911B0590911C050E9425B2209169
:104B9000B804222359F12091B0043091B10440911E
:104BA000B2045091B3040E9466B7AB01BC0187E622
:104BB0009FE00E9402998AE089DDC1112AC00DE4BC
:104BC0001FE17801F7018491FFEFEF1AFF0A8111CD
:104BD00016C07DE1E72E7FE0F72EF7018491FFEF0D
:104BE000EF1AFF0A882369F071DDF7CF2091B40432
:104BF0003091B5044091B6045091B704D4CF66DD2E
:104C0000E1CFF80184910F5F1F4F882311F05EDD23
:104C1000F8CF2091B4043091B5044091B60450917E
:104C2000B7046091D6047091D7048091D804909114
:104C3000D9040E9466B7AB01BC0184E19FE00E94E9
:104C400002992091B4043091B5044091B60450917A
:104C5000B7046091DA047091DB048091DC049091D8
:104C6000DD040E9466B7AB01BC0181E19FE00E94B8
:104C700002992091B4043091B5044091B60450914A
:104C8000B7046091D2047091D3048091D4049091C0
:104C9000D5040E9466B7AB01BC018EE09FE00E9484
:104CA00002998AE013DDC11121C00DE41FE17801F2
:104CB000F7018491FFEFEF1AFF0A81110DC06AE935
:104CC000E62E6EE0F62EF7018491FFEFEF1AFF0A51
:104CD000882321F0FBDCF7CFF9DCEACFF8018491DF
:104CE0000F5F1F4F882311F0F1DCF8CF2091B4043F
:104CF0003091B5044091B6045091B7046091F60428
:104D00007091F7048091F8049091F9040E9466B7BD
:104D1000AB01BC0181E99EE00E9402992091B4049C
:104D20003091B5044091B6045091B7046091F204FB
:104D30007091F3048091F4049091F5040E9466B799
:104D4000AB01BC018EE89EE00E9402994091EE0406
:104D50005091EF046091F0047091F1048BE89EE0B3
:104D60000E94E6982091B4043091B5044091B604B5
:104D70005091B7046091C2047091C3048091C4043F
:104D80009091C5040E9466B7AB01BC0188E89EE023
:104D90000E9402992091B4043091B5044091B60468
:104DA0005091B7046091C6047091C7048091C80403
:104DB0009091C9040E9466B7AB01BC0185E89EE0F2
:104DC0000E9402992091B4043091B5044091B60438
:104DD0005091B7046091CA047091CB048091CC04C7
:104DE0009091CD040E9466B7AB01BC0182E89EE0C1
:104DF0000E9402992091B4043091B5044091B60408
:104E00005091B7046091CE047091CF048091D0048A
:104E10009091D1040E9466B7AB01BC018FE79EE080
:104E20000E9402998AE052DCC11121C00DE41FE109
:104E30007801F7018491FFEFEF1AFF0A81110DC08D
:104E40005BE6E52E5EE0F52EF7018491FFEFEF1AA9
:104E5000FF0A882321F03ADCF7CF38DCEACFF801EB
:104E600084910F5F1F4F882311F030DCF8CF6091E1
:104E7000C10470E082E69EE00E94C7998AE026DCC9
:104E8000C11121C00DE41FE17801F7018491FFEF0A
:104E9000EF1AFF0A81110DC043E5E42E4EE0F42E17
:104EA000F7018491FFEFEF1AFF0A882321F00EDC4F
:104EB000F7CF0CDCEACFF80184910F5F1F4F8823F6
:104EC00011F004DCF8CF40910D0850910E0860916C
:104ED0000F08709110088AE49EE00E9402992CEA63
:104EE00035EC47E25EE36091090870910A08809111
:104EF0000B0890910C080E9466B7AB01BC0187E4D7
:104F00009EE00E9402992CEA35EC47E25EE3609154
:104F100011087091120880911308909114080E9452
:104F200086B2AB01BC0184E49EE00E9402998AE053
:104F3000CDDBC11121C00DE41FE17801F70184919F
:104F4000FFEFEF1AFF0A81110DC03DE1E32E3EE0B5
:104F5000F32EF7018491FFEFEF1AFF0A882321F067
:104F6000B5DBF7CFB3DBEACFF80184910F5F1F4FBA
:104F7000882311F0ABDBF8CF2091B4043091B50455
:104F80004091B6045091B7046091AC047091AD04A7
:104F90008091AE049091AF040E9466B7AB01BC0152
:104FA00084E19EE00E9402992091B4043091B504FE
:104FB0004091B6045091B7046091A8047091A9047F
:104FC0008091AA049091AB040E9466B7AB01BC012A
:104FD00081E19EE00E9402992091B4043091B504D1
:104FE0004091B6045091B7046091A4047091A50457
:104FF0008091A6049091A7040E9466B720E030E05B
:1050000040E752E40E9486B2AB01BC018EE09EE014
:105010000E9402992091B4043091B5044091B604E5
:105020005091B7046091A0047091A1048091A204F2
:105030009091A3040E9466B7AB01BC018BE09EE097
:105040000E9402998AE042DBC11121C00DE41FE1F8
:105050007801F7018491FFEFEF1AFF0A81110DC06B
:105060002CEEE22E2DE0F22EF7018491FFEFEF1AE5
:10507000FF0A882321F02ADBF7CF28DBEACFF801EB
:1050800084910F5F1F4F882311F020DBF8CF209110
:10509000B4043091B5044091B6045091B7046091C6
:1050A0009C0470919D0480919E0490919F040E94A5
:1050B00066B7AB01BC0183EE9DE00E94029920918E
:1050C000B4043091B5044091B6045091B704609196
:1050D00098047091990480919A0490919B040E9485
:1050E00066B7AB01BC0180EE9DE00E940299209161
:1050F000B4043091B5044091B6045091B704609166
:1051000094047091950480919604909197040E9464
:1051100066B720E030E040E752E40E9486B2AB017F
:10512000BC018DED9DE00E9402998AE0CFDAC111A9
:1051300021C00DE41FE17801F7018491FFEFEF1A20
:10514000FF0A81110DC09FE8E92E9DE0F92EF701BD
:105150008491FFEFEF1AFF0A882321F0B7DAF7CF27
:10516000B5DAEACFF80184910F5F1F4F882311F061
:10517000ADDAF8CF6091930470E086E89DE00E947C
:10518000C7998AE0A3DAC11121C00DE41FE17801BB
:10519000F7018491FFEFEF1AFF0A81110DC080E73C
:1051A000E82E8DE0F82EF7018491FFEFEF1AFF0A49
:1051B000882321F08BDAF7CF89DAEACFF8018491DE
:1051C0000F5F1F4F882311F081DAF8CF2091B404CC
:1051D0003091B5044091B6045091B70460916908CC
:1051E00070916A0880916B0890916C080E9466B774
:1051F000AB01BC0187E69DE00E9402998AE066DA75
:10520000C1111BC00DE41FE1E801FE01849121964C
:10521000811109C0C9E5DDE0FE0184912196882352
:1052200021F054DAF9CF52DAF0CFF80184910F5F10
:105230001F4F882311F04ADAF8CF2091B40430913F
:10524000B5044091B6045091B70460918704709101
:1052500088048091890490918A040E9466B7AB010A
:10526000BC0180E59DE00E9402992091B404309138
:10527000B5044091B6045091B70460918B047091CD
:105280008C0480918D0490918E040E9466B7AB01CE
:10529000BC018DE49DE00E9402992091B4043091FC
:1052A000B5044091B6045091B70460918F04709199
:1052B000900480919104909192040E9466B7AB0192
:1052C000BC018AE49DE00E9402998AE0DF91CF91BF
:1052D0001F910F91FF90EF90DF90CF90BF90AF9014
:1052E000F5C97F928F929F92AF92BF92CF92DF9239
:1052F000EF92FF920F931F93CF93DF931F92CDB73F
:10530000DEB7E0918204E11136C059017C018B01C6
:105310006B01C40ED51E0C151D0569F1F7018080C7
:105320009180F80171908F017982C4010E94E6B5E5
:10533000781681F1672DC4010E940FB6C4010E9446
:10534000E6B59981891731F10DE41FE1F8018491E7
:105350000F5F1F4F81110AC009E21CE0F801849120
:105360000F5F1F4F882321F0B1D9F8CFAFD9EECF0F
:1053700081E0809382040F90DF91CF911F910F9174
:10538000FF90EF90DF90CF90BF90AF909F908F9065
:105390007F900895BE016F5F7F4FC5010E9499867F
:1053A000F70180819181019691838083B4CF8F92A0
:1053B0009F92AF92BF92CF92DF92EF92FF920F93A4
:1053C0001F93CF93DF93CDB7DEB7CB54D1090FB680
:1053D000F894DEBF0FBECDBF1D861E861F86188ABD
:1053E00080917D0290917E02A0917F02B091800217
:1053F000898B9A8BAB8BBC8B18AE1FAA84E690E08E
:105400009AAF89AF109282049E01295C3F4F44E01D
:1054100050E0BE016F5E7F4FCE01C99662DF89AD5D
:105420009AAD02969AAF89AF18AE1FAA81E0249672
:105430008FAF24979E01295C3F4F41E050E0BE01B1
:105440006D5B7F4FCE01C9964CDF9E01295C3F4FBB
:1054500040E150E06DE175E0CE01C99642DF9E016A
:10546000295C3F4F40E150E06EED74E0CE01C996FB
:1054700038DF9E01295C3F4F40E150E06DE075E070
:10548000CE01C9962EDF9E01295C3F4F44E050E0DB
:1054900066ED74E0CE01C99624DF9E01295C3F4F82
:1054A00044E050E06AED74E0CE01C9961ADF9E0137
:1054B000295C3F4F44E050E062ED74E0CE01C996B4
:1054C00010DF9E01295C3F4F44E050E066EF74E03E
:1054D000CE01C99606DF9E01295C3F4F44E050E0B3
:1054E00062EF74E0CE01C996FCDE9E01295C3F4F5D
:1054F00044E050E06EEE74E0CE01C996F2DE9E010B
:10550000295C3F4F40E150E062EC74E0CE01C99667
:10551000E8DEBE016F5F7F4F8CE0FB0111928A9540
:10552000E9F79E01295C3F4F4CE050E0CE01C9965F
:10553000D8DE80E090E0A0E2B1E48D8B9E8BAF8B53
:10554000B88F9E01295C3F4F44E050E0BE016B5E86
:105550007F4FCE01C996C5DE25961FAE25971D86C5
:105560001E861F86188A83E026968FAF2697279679
:105570008FAF27979E01295C3F4F41E050E0BE016D
:105580006C5B7F4FCE01C996ACDE9E01295C3F4F1C
:1055900044E050E0BE01635F7F4FCE01C996A1DEBB
:1055A0009E01295C3F4F41E050E0BE016B5B7F4FA5
:1055B000CE01C99696DE9E01295C3F4F41E050E046
:1055C000BE016A5B7F4FCE01C9968BDE1AE0115097
:1055D00061F09E01295C3F4F44E050E0BE01635FF3
:1055E0007F4FCE01C9967DDEF2CF80916908909100
:1055F0006A08A0916B08B0916C08898F9A8FAB8F65
:10560000BC8F9E01295C3F4F44E050E0BE01675EC5
:105610007F4FCE01C99665DE9E01295C3F4F44E273
:1056200050E06BE17CE0CE01C9965BDE83E028961A
:105630008FAF289729968FAF29971D8E1E8E1F8EAC
:1056400018A219A21AA21BA21CA21D861E861F86C2
:10565000188A9E01295C3F4F41E050E0BE01695B22
:105660007F4FCE01C9963DDE9E01295C3F4F41E050
:1056700050E0BE01685B7F4FCE01C99632DE9E01CD
:10568000295C3F4F44E050E0BE016F5D7F4FCE018B
:10569000C99627DE9E01295C3F4F44E050E0BE01E1
:1056A000635E7F4FCE01C9961CDE0AE010E0015018
:1056B000110961F09E01295C3F4F44E050E0BE01BA
:1056C000635F7F4FCE01C9960CDEF1CF2A961FAEE5
:1056D0002A978FEF2B968FAF2B979E01295C3F4F18
:1056E00041E050E0BE01675B7F4FCE01C996F9DD16
:1056F0009E01295C3F4F41E050E0BE01665B7F4F59
:10570000CE01C996EEDD1D861E861F86188A1CE016
:10571000115061F09E01295C3F4F44E050E0BE0112
:10572000635F7F4FCE01C996DCDDF2CF80913102FD
:1057300090913202A0913302B09134028DA39EA3C6
:10574000AFA3B8A78091350290913602A09137029D
:10575000B091380289A79AA7ABA7BCA71EA61DA621
:1057600018AA1FA69E01295C3F4F44E050E0BE01ED
:105770006B5D7F4FCE01C996B4DD9E01295C3F4F22
:1057800044E050E0BE01675D7F4FCE01C996A9DDC0
:105790009E01295C3F4F44E050E0BE01635D7F4FB6
:1057A000CE01C9969EDD10E0C12C90E8D92E9BE376
:1057B000E92E95E4F92E812C912C20E8A22E2FE3DE
:1057C000B22E111156C09E01295C3F4F44E050E0BB
:1057D0006DE078E0CE01C99684DD9E01295C3F4FE3
:1057E00044E050E069E078E0CE01C9967ADD9E01A0
:1057F000295C3F4F44E050E061E178E0CE01C9967A
:1058000070DD8D869E86AF86B88A9E01295C3F4FEB
:1058100044E050E0BE01635F7F4FCE01C99661DD79
:105820001F5F153071F684E190E09CAF8BAF9E0155
:10583000295C3F4F42E050E0BE01655C7F4FCE01E6
:10584000C9964FDD80E090E8ABE3B5E48D879E8795
:10585000AF87B88B14E0115079F19E01295C3F4F5E
:1058600044E050E0BE01635F7F4FCE01C99639DD51
:10587000F2CFCD86DE86EF86F88A9E01295C3F4F07
:1058800044E050E0BE01635F7F4FCE01C99629DD41
:105890001D861E861F86188A04E0015009F4C0CFB9
:1058A0009E01295C3F4F44E050E0BE01635F7F4FA3
:1058B000CE01C99616DDF1CF80E290E09EAF8DAFAC
:1058C0009E01295C3F4F42E050E0BE01635C7F4F88
:1058D000CE01C99606DD9E01295C3F4F41E050E0B4
:1058E00063E974E0CE01C996FCDC9E01295C3F4F60
:1058F00044E050E06CEA74E0CE01C996F2DC9E010F
:10590000295C3F4F44E050E064EA74E0CE01C99660
:10591000E8DC9E01295C3F4F44E050E060EA74E01F
:10592000CE01C996DEDC9E01295C3F4F44E050E089
:105930006CE974E0CE01C996D4DC9E01295C3F4F2E
:1059400044E050E064E974E0CE01C996CADC9E01EF
:10595000295C3F4F44E050E068EA74E0CE01C9960C
:10596000C0DC9E01295C3F4F44E050E068E974E0F0
:10597000CE01C996B6DC9E01295C3F4F44E050E061
:1059800063E874E0CE01C996ACDC9E01295C3F4F10
:1059900041E050E068EB74E0CE01C996A2DC10E073
:1059A00011110CC08091BD049091BE04A091BF0460
:1059B000B091C0048D879E87AF87B88B9E01295C0C
:1059C0003F4F44E050E0BE01635F7F4FCE01C99678
:1059D00088DC1F5F153021F721961FAE1EAE219780
:1059E0001CE0115061F09E01295C3F4F42E050E005
:1059F000BE01615C7F4FCE01C99673DCF2CF239666
:105A00001FAE1EAE23979E01295C3F4F42E050E03F
:105A1000BE016F5B7F4FCE01C99663DC9E01295C9E
:105A20003F4F42E050E0BE016F5B7F4FCE01C99611
:105A300058DC1D861E861F86188A9E01295C3F4FF2
:105A400044E050E0BE01635F7F4FCE01C99649DC60
:105A50009E01295C3F4F44E050E0BE01635F7F4FF1
:105A6000CE01C9963EDC19AA1AAA1BAA1CAA14E0E8
:105A7000115061F09E01295C3F4F44E050E0BE01AF
:105A80006F5C7F4FCE01C9962CDCF2CF1D861E863F
:105A90001F86188A1CE1115061F09E01295C3F4F5E
:105AA00044E050E0BE01635F7F4FCE01C99619DC30
:105AB000F2CF1D861E861F86188A14E0115061F0F1
:105AC0009E01295C3F4F44E050E0BE01635F7F4F81
:105AD000CE01C99606DCF2CF2C961FAE2C9714E0AF
